:020000021000EC
:1080000000400020A9F70100E5F70100E7F70100B3
:108010000000000000000000000000000000000060
:10802000000000000000000000000000E9F701006F
:108030000000000000000000EBF70100EDF7010078
:10804000EFF701001DB00100A5FE0100EFF70100F0
:10805000EFF7010000000000C1F80100EFF7010098
:10806000EFF701008D0002002DFD0100EFF7010088
:10807000EFF70100EFF70100EFF70100EFF7010064
:10808000EFF70100EFF70100EFF70100EFF7010054
:10809000EFF7010099F501004DDF0100EFF7010056
:1080A000EFF70100EFF70100000000000000000002
:1080B00000000000000000000000000000000000C0
:1080C00010B5064C2378002B07D1054B002B02D0AE
:1080D000044800E000BF0123237010BDB020002041
:1080E000000000009CAE0200044B10B5002B03D032
:1080F0000349044800E000BF10BDC0460000000076
:10810000B42000209CAE0200164B002B00D1144B73
:108110009D46402292029A1A924600218B460F46B3
:108120001348144A121A11F0BFFC0F4B002B00D059
:1081300098470E4B002B00D09847002000210400E8
:108140000D000D48002802D00C4800E000BF0CF0E4
:10815000AFFE2000290011F09DFA0CF093FEC046FE
:1081600000000800004000200000000000000000A7
:10817000A82000201C2900200000000000000000B2
:1081800010B50400034B036040300DF062FC20008A
:1081900010BDC046289D0200F0B585B01F000AAB97
:1081A0001B880600150002910393002F1CD0282085
:1081B00001F0B4F86B4604001989039BAAB200933E
:1081C0003B000DF0E4FB3368210030005B6898470A
:1081D00000280AD0002C05D020000DF0EEFB200076
:1081E00001F0B6F8024800E0024805B0F0BDC04614
:1081F00016FCFFFF17FCFFFF0022104B00B5FF210C
:108200001A70662389B01A0000910D4803F0E0FA55
:108210000C4907A801F086F9C82207A952000A48AC
:1082200002F084FA07A80DF014FC084800F07EFF65
:1082300007480DF044FA09B000BDC0465828002098
:10824000EC24002040A90200BC210020881300007B
:10825000D020002070B5052500240C480EF083FACC
:10826000013D24180A2000F061FF002DF5D1052101
:10827000200008F0B9F80AF057FE054A054B0AF04D
:108280001FF80BF077FA0AF019FE70BDBC21002030
:108290000EBE30992A18D93F37B50321684607F03A
:1082A000A7FA64240025684607F0E6FA104908F0AA
:1082B00031FE09F011F97E2802DD854200DA050061
:1082C000013C002CEFD128000AF02EFE094A0A4B8F
:1082D00009F0F6FF0022094B0AF05EFA0AF0EEFD03
:1082E000002801DA20003EBD6428FCDD6420FAE7A6
:1082F00000007F43333333333333E93F00005940C9
:10830000F7B501211E480DF066FE0AF00DFE0400CF
:108310000D001B4801210DF071FE0AF005FE06005C
:108320000F00174801210DF07CFE0AF0FDFD220030
:10833000009001912B002000290009F0C1FF3200BC
:108340003B0004000D003000390009F0B9FF0200C5
:108350000B002000290009F061F9009A019B0D0033
:1083600004001900100009F0ABFF02000B00200010
:10837000290009F053F90BF0D1FA0AF09FFDFEBD78
:1083800094220020F0B50124022597B0BB4915A81E
:1083900001F0C8F8782215A9B94802F02FFA15A8FB
:1083A0000DF057FBB7480EF01DFEB74B1C70B74ED3
:1083B000B74907A8376801F0B5F8FFF76DFF01006E
:1083C00008A80DF062FB08AA07A909A80DF0ADFBEB
:1083D000B0490AA801F0A6F80AAA09A90BA80DF04D
:1083E000A4FBAD480EF0D8FD01000CA80DF04DFB2C
:1083F0000CAA0BA90DA80DF098FBA8490EA801F036
:1084000091F80EAA0DA90FA80DF08FFBFFF722FF20
:10841000010010A80DF039FB10AA0FA911A80DF04A
:1084200084FB9F4912A801F07DF812AA11A913A894
:108430000DF07BFB9B4801F08DFC010014A80DF0B2
:1084400024FB14AA13A915A80DF06FFB2A0015A987
:1084500038000EF0FEFF15A80DF0FBFA14A80DF081
:10846000F8FA13A80DF0F5FA12A80DF0F2FA11A817
:108470000DF0EFFA10A80DF0ECFA0FA80DF0E9FAE4
:108480000EA80DF0E6FA0DA80DF0E3FA0CA80DF019
:10849000E0FA0BA80DF0DDFA0AA80DF0DAFA09A847
:1084A0000DF0D7FA08A80DF0D4FA07A80DF0D1FA0C
:1084B000142000F03BFE33687B490BA8019301F0C8
:1084C00031F87A4F210038000DF085FD01000CA82D
:1084D0000DF0DBFA0CAA0BA90DA80DF026FB7449D0
:1084E0000EA801F01FF80EAA0DA90FA80DF01DFB94
:1084F000210038000DF082FD010010A80DF0C5FA32
:1085000010AA0FA911A80DF010FB6A4912A801F0DA
:1085100009F812AA11A913A80DF007FB21003800D1
:108520000DF07FFD010014A80DF0AFFA14AA13A9F5
:1085300015A80DF0FAFA2A0015A901980EF089FF86
:1085400015A80DF086FA14A80DF083FA13A80DF003
:1085500080FA12A80DF07DFA11A80DF07AFA10A891
:108560000DF077FA0FA80DF074FA0EA80DF071FA5D
:108570000DA80DF06EFA0CA80DF06BFA0BA80DF01B
:1085800068FA142000F0D2FD4B4909A8366800F0C3
:10859000C9FFFFF7B5FE01000AA80DF076FA0AAA96
:1085A00009A90BA80DF0C1FA44490CA800F0BAFFC4
:1085B0000CAA0BA90DA80DF0B8FA41480DF0B7FDB3
:1085C00001000EA80DF061FA0EAA0DA90FA80DF07A
:1085D000ACFA3C4910A800F0A5FF10AA0FA911A8F9
:1085E0000DF0A3FA38480DF0A2FD010012A80DF01D
:1085F0004CFA12AA11A913A80DF097FA334914A83E
:1086000000F090FF14AA13A915A80DF08EFA2A0005
:1086100015A930000EF01DFF15A80DF01AFA14A8C8
:108620000DF017FA13A80DF014FA12A80DF011FAB4
:1086300011A80DF00EFA10A80DF00BFA0FA80DF00E
:1086400008FA0EA80DF005FA0DA80DF002FA0CA814
:108650000DF0FFF90BA80DF0FCF90AA80DF0F9F9DF
:1086600009A80DF0F6F9322000F060FD064B1B78EA
:10867000002B00D09BE617B0F0BDC04644AE020010
:10868000BC210020EC2400205828002008250020D0
:1086900042A9020045A902004823002048A902007F
:1086A0004BA90200F82200204EA9020094220020CB
:1086B00052A9020056A902005AA902005EA90200AE
:1086C0003422002062A902005C22002066A9020078
:1086D000F7B5194DFA26280000F072F9174801F095
:1086E00039FB0A2310270093F5331A0019001448A8
:1086F00003F06EF8134CB600310000970122200001
:10870000114BFFF749FD31000222104B009720006A
:10871000FFF742FD1C2000F001FE8321202304000E
:10872000C9001A00695803F021FE094B1C6000F0D3
:1087300079FD0020FEBDC046D0200020F822002098
:10874000EC240020A021002085830100F981010094
:108750000825002070B50A4C200000F05FF8094D94
:1087600020002A00084911F040F9084C084920006F
:1087700000F0D8FE2A002000064911F036F970BD3D
:10878000D02000200020002099870100CC2000206C
:1087900068A90200535A0200862310B50400DB00CA
:1087A000C01802F0C7FE1B4BE01802F09BFFF42339
:1087B000194A9B00E2501C33E0180DF04AF9FA23E5
:1087C0009B00E0180DF045F98A239B00E01801F0AA
:1087D00029F92000C530FF3000F030FF20008D3037
:1087E000FF3001F0E7F820006530FF3001F0E2F8DB
:1087F0002000EC3001F0B2FD2000D03002F086FA0B
:108800002000643006F01AFF201DFFF7B9FC20009D
:1088100010BDC0461C040000BC9E0200F0B514252B
:10882000040097B019222B0000951821043002F0A3
:1088300045FC23002700260064331800B4371321B9
:108840001393B83606F006FF38000EF04BFB2900F4
:10885000132230000DF09BFF2000D03002F076FA9A
:108860002300EC3306211800514A149301F09EFDB9
:10887000200000236530009301331A001121FF30DE
:1088800001F0A4F8200000238D3000930222102173
:108890000133FF3001F09AF82000B5301A2302228C
:1088A0000121FF3002F010FB2200C532FF3212928C
:1088B000310004231822129800F0CCFE8A22920084
:1088C000A218159205231D223100019300923B004E
:1088D000129A159801F0AAFA9B229200149B1599FE
:1088E000A018129A01F076FC9E2292003900A0187E
:1088F0001C2202F011FD3223A4221093193B0F9386
:10890000013B0E93013B0D93013B0C93013B0B93F9
:10891000023B0993023B0793013B0693013B0593FE
:10892000013B0493013B0393013B0293013B0A95F6
:108930000193023D9200013BA01800930822013BE5
:10894000072108950DF02BFFF42292003900A018A2
:1089500003F0FCF9FC229200A0181D2102F0FAFAA3
:1089600083230026DB00E650124B28222900E01862
:1089700002F050FF8623DB00E01802F075FE13982A
:108980000321267010F05AFD2300220020000A491E
:108990009C33A0321C6011605660084A02215A6163
:1089A0008030012207F03EF8200017B0F0BDC0462D
:1089B000309D02001C040000BF560200F156020068
:1089C000F0B502780123170004008BB01F401A4253
:1089D00000D0A9E0C530FF300DF059F92300D033A5
:1089E0001800039300F064FA00F092F9282000F0D8
:1089F00095FC050010300DF0BBF84C4B18202B6097
:108A000000F08CFC06004A4B0822089339000997B5
:108A100004600C3011F048F808A90822301D11F04C
:108A200027F8444B2900736112230398AE60EF606E
:108A3000AB802F626F6202F001F9002805D0280098
:108A40000CF0BBFF280000F083FC012500272378F1
:108A500064202B43237000F069FB059526006536E2
:108A6000FF3630000DF063FB00283CD020008D3035
:108A7000FF300DF05CFB002835D00A2F33D0642086
:108A8000013700F053FB0A2FE8D1F4239B00E518CF
:108A90004833E3580493002B1ED100F059F801002D
:108AA00007A800F03FFD08A80CF086FE059B08AA69
:108AB00007A928000093039B03F0A0F908A80CF075
:108AC000C8FF07A80CF0C5FFF6239B00E3580493EA
:108AD0008323049ADB00E250210032002800EC31AD
:108AE00003F01EFBBAE78325ED006659002E1BD16B
:108AF00000F02EF8010007A800F014FD08A80CF003
:108B00005BFEF4239B00E01808AA039B07A90096CC
:108B100003F074F908A80CF09CFF07A80CF099FF6B
:108B2000F6239B00E35863510BB0F0BDFD0300003A
:108B30004757020007570200BFF34F8F024B034A0B
:108B4000DA60BFF34F8FFEE700ED00E00400FA05A6
:108B5000F0B58BB002ABDF1D19223800144910F0BC
:108B600087FF0023134D05266B7180235B055B6E29
:108B70002C000093012301933100009807F030FC92
:108B80000800019907F0A6FB0522009B56431B1A1B
:108B90000093019B534301932B1B5343FB181B5C16
:108BA000013C6371044B9C42E6D102480BB0F0BD1E
:108BB0009FA902005928002054280020F0B595B044
:108BC0001822002104000EA810F06EFF13210EA839
:108BD00010F03EFD03210EA810F0E5FD464B1B688A
:108BE000002B00D10133DBB2009300210123434A63
:108BF00009A807F087F8FA239B009C429B411C4080
:108C000072B63F4B64211E683E4B2000059305253C
:108C100007F0EAFB6843503030180A210690200024
:108C200007F0E2FB0A2107F0C5FC694350317118D7
:108C3000200007910A2107F0BDFC4D4350357619FD
:108C4000089680260024B601009B002B52D004AD6C
:108C50000027032C02D180260024B6016B682A4A23
:108C600002936300D3180022019258780299095C9C
:108C7000039119788C461021604601410398014206
:108C800004D0012090400199014301910132063343
:108C9000092AEAD1019B2A68D9431C4B09011940D2
:108CA000029B934224D1312F22DC002109A810F02D
:108CB0003AFEFA23139A0F99DB001068014219D08B
:108CC000013B002BF9D1FA23013401377600E4B2DD
:108CD0005B009F42BDD1043508ABAB42B8D1064B17
:108CE0001B68002BB0D0009B013BDBB20093ABE7CD
:108CF0003143DBE7FFF720FF10250020F0FF0000E5
:108D000004200020EEA90200B8A90200F01F000014
:108D1000F8B50023124C23600CF06FFD002808D03A
:108D2000042120000CF065FD002801D00D4B2360CC
:108D3000F8BD0122A12704250B4B0C491A602268BB
:108D4000FF0048604E68002EFCD0DE591202013D43
:108D50003243002DF5D1226001225A60E8E7C04677
:108D60000C250020ED5EBC0B00D00040FCD0004084
:108D70000B4B70B51C68002C10D0656D00F08EFB9D
:108D8000A36C002901D1834206D820000CF068FDB5
:108D9000200004490CF052FD2C00ECE770BDC046E9
:108DA0001825002038250020F0B593B007932A4BF2
:108DB00004AC1E68049005910692002E49D0274B02
:108DC000258867881C6800230293002C2DD0636DD2
:108DD00023480393A36C190C9AB20B00854214D15B
:108DE0002048824211D1002901D0B9420BD1029B07
:108DF000002B08D120000CF033FD20001A490CF0A4
:108E00001DFD01230293039CDFE7002A01D0954258
:108E1000F9D1002901D0BB42F5D120000CF020FD92
:108E2000200011490CF00AFDEDE7104BEB18012B67
:108E30000FD910233A002900009308A80C4B0CF01E
:108E4000A6FD336830009B6808A9984708A80CF075
:108E5000B4FD13B0F0BDC046142500204425002009
:108E6000FE030000FF0300003825002002FCFFFF86
:108E7000A98D010010B572B60B4B1C68002C08D0F0
:108E800020000CF0EDFC0023E364084B2000E363BA
:108E900010BD62B65C2010F0B3FD5C22002104001E
:108EA00010F002FEEFE7C0463C2500200040002005
:108EB000F7B51E4C0123227816001E401A4233D10A
:108EC0001B4D2860FFF7D6FF1A4B1B4918600CF0AA
:108ED000B5FCFFF7CFFF194B1860194B4363194BD3
:108EE0008363286800280FD0C023174F320017492A
:108EF00000933B00FFF750F9C023009332003B0082
:108F000013492868FFF748F90C2010F079FD002379
:108F1000838083710F4B03600F4B836000F0D6FAA0
:108F20000123227813432370F7BDC0465F28002039
:108F30001425002048250020382500204025002049
:108F4000FC3F0020F9580200A98D0100FF0300003A
:108F5000FE030000509D0200718D0100024B187845
:108F6000012318407047C0465F280020F7B506006F
:108F70000D0017000193002802D100242000FEBD3F
:108F80000029FAD0FFF776FF041EF6D0074B019AAE
:108F900043630660064B45608760002A00D0054B9E
:108FA00020000549A3630CF049FCE7E7FC3F0020E3
:108FB000D3580200E15802003825002070B5074B55
:108FC0000E0011001A7805000123100018401A4203
:108FD00003D032002800FFF7C9FF70BD5F280020D2
:108FE000024B1868434258417047C046382500205C
:108FF0000300002210B5044994006058002801D0F5
:109000000132F9E7635010BD20250020002310B580
:10901000044A99008C58844201D00133F9E70020BA
:10902000885010BD2025002010B50024084BA20058
:10903000D058002802D003685B6898470134062C9A
:10904000F4D1044B1B68002B00D120BF10BDC046DB
:1090500020250020382500200122F8B52C4B1B7854
:1090600013421CD02B4D2C68E36C134218D00227FE
:109070003B43E364284B1E680423F26C3000134327
:10908000F364636BF3630CF002FC3000716C03F06B
:109090003CFB2868C36C3B4201D003F070FBF8BD79
:1090A0001E4F1F4E3A683068002A0AD128601B07FD
:1090B00012D52C60FFF7B8FF3B68002BFAD02B606D
:1090C0000AE0216DB94219D1616D002900D111006A
:1090D00029602A688242EAD029688C42DFD033684E
:1090E00099420DD10F4B4B630F4B8B6320000CF05B
:1090F000CEFB296820004B6C626C06E02A60E8E732
:109100009C42F3D1002210004B6C03F0BDFAC6E77D
:109110005F280020482500201C250020382500203D
:1091200040250020FC3F0020F958020070B5114B8B
:1091300004001A7801231A4202D110F02DFB70BDF1
:109140000D4A1568EA6C1A4206D0FFF793FE0B4BE6
:109150001860002800D0050000F0A0F92418AC64C5
:1091600028000CF07DFB280005490CF067FBFFF799
:1091700073FFE4E75F280020482500201C2500201D
:1091800018250020F0B51E4B1E4F1E683B6885B0A9
:1091900005000391002B31D01B4B1A7801231A4292
:1091A0002CD0F26C1A420ED0FFF764FE174B041E4F
:1091B000186008D00CF054FB200015490CF03EFB61
:1091C0002600FFF749FF039B30001B042B43B364C9
:1091D0000CF046FB30000F490CF030FB0E4B002426
:1091E000EB18012B07D9C023009329000B4B039ADE
:1091F0003868FEF7D1FF200005B0F0BD084CFAE753
:1092000048250020142500205F2800201C25002070
:10921000382500204425002002FCFFFFA98D010015
:1092200016FCFFFF10B5074B1B78DB0709D5064C72
:1092300020680CF015FB054920680CF0FFFAFFF7D9
:109240000BFF10BD5F280020482500203C25002092
:1092500010B5034B1B78DB0701D5FFF7E3FF10BD0B
:109260005F280020F7B505000C00002833D0012648
:109270001B4B1B78334230D01A4F07233868C26C1F
:109280001100194000911A4207D021002800164A07
:10929000FFF794FE00252800FEBD03F058FA3A6857
:1092A0000221D36C1800084001900B4203D0013119
:1092B0008B43D364EEE73343D3642000A8473A6876
:1092C000019DD36C1900B143D1645B07E3D5200045
:1092D000FFF7BEFFDFE7054DDDE7054DDBE7C046E5
:1092E0005F280020482500205192010017FCFFFF55
:1092F00016FCFFFF020010B5014B12CB12C210BDCD
:109300004C250020034B1A68034B1A607E225A60DA
:109310007047C046042000204C25002070B5040092
:109320000025094B1B78AB4209DD0849EB00200002
:10933000C9180CF0E7FA002804D10135F1E7200044
:109340000BF0DAFD70BDC0466028002054250020D7
:1093500010B5002811D000220B4B19780B4B91420D
:109360000FDD1C68844209D25C68844206D98023E0
:10937000043802681B061343036010BD0132083332
:10938000EDE70BF0C3FDF8E760280020542500202E
:1093900070B5051E14DD0B4E0B4C3368002B02D04C
:1093A000206810F0AEF8FA2120680024074B8900ED
:1093B0008361C4626943356010F0B4F8200070BD69
:1093C0000348FCE7642500209425002079940100DF
:1093D00017FCFFFFF8B5114F05003E68002E0AD1BB
:1093E000302010F00DFB040006F09CF90C4BA66138
:1093F0002360E6623C600B4E3368002B09D11020DD
:1094000010F0FEFA040010F0D9F82000346010F0DB
:10941000AFF82800FFF7BCFFF8BDC0469425002038
:1094200048A2020090250020014B18687047C046F2
:109430006425002070B50D4C2368002B03D00C4B25
:109440001B68002B02D10620FFF7C4FF206810F034
:10945000A6F802000749C3170D684E6852197341F8
:1094600020680A604B6010F0A0F870BD90250020C5
:1094700094250020A820002010B5FFF7DBFF002472
:10948000054BA200D058002802D003681B689847FB
:1094900001340A2CF4D110BD6825002010B5FFF767
:1094A000C9FFFA22034B920018685968002307F09D
:1094B000C1F810BDA820002010B5FFF7BBFF024B7C
:1094C0001868596810BDC046A82000200B4B10B585
:1094D0001B680400002B03D0094B1B68002B02D132
:1094E0000620FFF777FF0023064A990088580028D6
:1094F00001D00133F9E78C5010BDC0469025002003
:109500009425002068250020002310B5044A990006
:109510008C58844201D00133F9E70020885010BDF7
:109520006825002010B50400002902D00B78002B1C
:1095300003D1034B2360200010BD0CF091FAFAE731
:10954000609D0200F8B504000E00150000290AD045
:109550000B78002B07D0002A05D0080097B210F036
:10956000E3FA874203D90B4B23602000F8BD681D46
:109570000BF0C2FC20600CF052FB20682A004780F0
:109580003100043010F074FA23685D1900232B7148
:10959000EBE7C046609D0200014B03607047C04688
:1095A000609D020010B50548054C20600CF03AFBA8
:1095B0002000044A044910F018FA10BD609D020012
:1095C0009825002000200020535A0200084B73B554
:1095D0001D680400002D0AD001002E680822083101
:1095E000684610F045FA0CCC28003168884773BDF6
:1095F0009C25002010B5054C012120000CF006FB35
:109600002000034A034910F0F0F910BDA025002006
:1096100000200020CB5B0200074A030010B50120A8
:10962000934208D0834202D00020DB0703D41E20DF
:10963000FFF7C4FA002010BDFFFF000010B50400C2
:10964000034B08330360FFF7E1FC200010BDC04668
:10965000689D0200F7B507000025040001931A4B2E
:10966000143708330E008580290085710360C58199
:10967000056100923800182210F016FA3800152102
:109680000FF0E6FF019B2200A380009B0E212381A7
:1096900014236381123BA571A563A58723733E3212
:1096A000137826638B431370084B0122E364084B45
:1096B00020002365230054331D70064B6364230090
:1096C00048339D701A80FEBD689D020000000A03A9
:1096D0000003030101000100F7B504000CF03AFC9F
:1096E0000E22A35E7A4F5B42BB4251DA23003E3327
:1096F0001B789B074CD50125210028003E310B78B3
:109700005A08904302000220AA40834313430B707F
:1097100020000CF01FFC1022A35E5B42BB4248DA23
:1097200023003E331B785B0743D501252100280029
:109730003E310B789A089043820004208343134300
:109740000B70260020000CF005FC1222A35E4A36A6
:10975000BB423EDA23003E331B781B0739D521007C
:1097600001223E310B78D80882430820D20083437F
:1097700013430B703378032B3BD80133DBB23370C8
:10978000012B00D08EE0230000224C331A8030E001
:1097900020000CF0DFFB0E22A35EC8225B420025F6
:1097A00052009342B4DD23003E331B789B07A2D5C1
:1097B000AEE720000CF0CEFB1022A35EC8225B4275
:1097C00052009342BDDD23003E331B785B07ACD5CE
:1097D000B7E720000CF0BEFBC8231221625E5B00DD
:1097E0009A4204DD23003E331B781B07B7D5002DBA
:1097F000C0D133780193002B14D0200027004C30C7
:1098000003883E3701339BB203803A78012511006B
:1098100029402A4254D01D2B04D90023AA433A7070
:109820000380337020000CF0C2FB2A4A07239042C9
:1098300044DD20000CF08EFB0E23E25E264E5242E9
:109840000323B2423ADBC82520000CF083FB0E2331
:10985000E25EAD0052420423AA422FDC20000CF04D
:1098600079FB1023E25E02235242B24226DB200043
:109870000CF070FB1023E25E01235242AA421DDC71
:1098800020000CF067FB1223E25E0623B24215DBD8
:1098900020000CF05FFB1223E25E0023AA420DDDE4
:1098A00005330BE0042BA4D122003E321178033B98
:1098B0000B43137000234C3423800C331800FEBD7F
:1098C000092BAFD90180019901393170AAE7C0464F
:1098D00070FEFFFFFF700200E0FCFFFFF0B5C36900
:1098E000C1681A68451D0400EB7F89B0114225D07C
:1098F000002B57D10123A2791A4237D00026022229
:109900006846A188A6710CF03DF9A31DDD7F012DED
:109910002CD1FFF7C3FD3300226A801A99410F0052
:109920000600A1889F4203D1FA239B009E423BD3AD
:109930000123042204A80CF025F917E00B2B01D811
:109940000133EB77EB7F082B0DD90122A37913426A
:109950000CD11343A188A37104A813000CF012F9D1
:10996000FFF79CFD2062EB7F012BC3D90322A37973
:109970001340012B14D1FFF791FD0023226A801AB6
:109980009941994202D10A4B984209D90223A279FE
:10999000A1881343A3710522012304A80CF0F2F857
:1099A00009B0F0BD013BCCE72B000322C2E7C04663
:1099B000DB05000010B50400034B08330360FFF71C
:1099C000A3FD200010BDC046809D0200F0B506003A
:1099D00000250F00040085B002930AAB1B780836FF
:1099E00003930F4B29000833036001928580857132
:1099F0001822300010F058F839003000039A0FF0A8
:109A00002CFE019B029AA380A31DE771DA77631DE8
:109A100025622000DD77FFF759FD200005B0F0BD7D
:109A2000809D020010B50400034B08330360FFF76C
:109A3000EDFA200010BDC046989D0200F0B587B039
:109A400004AC08230F0042221021009405000CF002
:109A5000A4FBA3790020DA0700D48BE06278267893
:109A6000E17812021643A27809020A4312B2D21018
:109A70000292627920791202104300B242100392DE
:109A8000E47936B224021C43AB1CD98FF610A41023
:109A90008803002C00D0210006F0A6FC364B2A00DB
:109AA000C01800B20300002143433F325156DB117E
:109AB000013A4B4311788022C90148431B185B12BD
:109AC000520399182B0034331B785BB2A0334B43FD
:109AD0001B135E432B0032331B7876135BB2DB0023
:109AE000F6183E80AE1CF18F8803002C00D02100B8
:109AF00006F07AFC204B2A00C01800B203000021B7
:109B000043433F325156DB11013A4B4311788022D7
:109B1000C90148431B185B12520399182B003533B7
:109B20001B78029A5BB2A0334B431B135A43531367
:109B30002A003332127852B2D2009B187B803C222A
:109B4000AB5E039A3A21685ED31A3E21725EDB0354
:109B5000A21A50438010181AEB8E610059438023DB
:109B60001B02C9183823EC5E0914091906F03CFCE5
:109B7000B880012007B0F0BD00C0FFFFD0B50400E1
:109B80000CF024FBE268A369981A09F0CDF90600ED
:109B90000F002369E069C01A09F0C6F932003B00E2
:109BA00009F0B8FE0022104B08F08AFB0F4A104B58
:109BB00008F09EF809F030FA0021041C06F012FDAE
:109BC000002804D0201C0B4906F03EFE041C201C7B
:109BD00009F0DAF902000B000020074908F0DCFD6B
:109BE00009F06CF9D0BDC04600806640EA2E4454AE
:109BF000FB2109400000B44300807640F0B504002A
:109C000085B0806A0CF07EFA061CA06A0CF071FA2E
:109C10000221071C20000CF076FB0221039020009B
:109C20000CF083FB07F078FC80231B06C21802218E
:109C3000200001920CF08BFB07F06EFC041C301C22
:109C400009F02AFE051C301C09F0EAFD0290381CC0
:109C500009F022FE061C381C09F0E2FD071C0398DF
:109C600007F05AFC80231B06C018391C07F052F974
:109C7000311C071C019807F04DF9291C07F04AF91F
:109C8000011C381C06F0E0FD311C071C201C07F0ED
:109C900041F9029907F03EF9011C381C06F0D4FD89
:109CA000291C061C201C07F035F90299041C019898
:109CB00007F030F9011C201C07F046FA311C09F0AE
:109CC00091FE0D4907F026F909F05EF90B4A0C4B9D
:109CD00008F00EF809F0A0F90021041C06F082FC3F
:109CE000002804D0201C044906F0AEFD041C201CF2
:109CF00007F0F2FB05B0F0BD0000B443EA2E445477
:109D0000FB2119407FB50425837904002B421BD128
:109D100002260CF05BFAA3790622B3432B43A3710E
:109D200068460123A1880BF02DFFA3791A00334068
:109D3000581E83415842FB239B001840034BAA4303
:109D4000A271C01804B070BD0148FBE714FCFFFF0E
:109D500015FCFFFF10B5837904005A070DD49B074B
:109D600001D4FFF7CFFFA36A2000002B02D0FFF73A
:109D700045FF10BDFFF702FFFBE70148F9E7C046CA
:109D800015FCFFFF70B5C66A86B001AC05000191F5
:109D90006260A360002E0CD00B4905A8FFF7C2FB40
:109DA0000C232200300005A90DF0D7F805A80BF010
:109DB00050FE2B000C3307CC07C30223AA791343B0
:109DC000AB7106B070BDC046CEAB0200642330B5A7
:109DD000040085B08180028143810CF0C4FA022224
:109DE000A37920009343A3710CF01AFAE06A0028CB
:109DF00013D00D490DF07CF8051E0ED001000C2289
:109E0000103101A80FF034FE20000199029A039B43
:109E1000FFF7B8FF28000FF0EFFD0123A2791343ED
:109E2000A37105B030BDC046CEAB0200F8B504004A
:109E30000E0000201700E36201230B4D06AA08352F
:109E400007A9A080A0712560E06020616061A06129
:109E5000E061206266622000A7621288098823867A
:109E6000FFF7B4FF2000F8BD989D020082B0F0B566
:109E70000400A5B064202B932A920FF08DFC0422DD
:109E80000C2109A802F0DCFC2422CD491BA80FF00C
:109E9000EFFD052206A811000EF06DF9C94907A8CB
:109EA00002F07CFDA06800F079FBA568C64918A8FF
:109EB000FFF738FB7822280018A900F09FFC18A8AB
:109EC0000BF0C7FD6E256420013D0FF065FC002DF1
:109ED000F9D1A06800F062FBA0680CF03FFC012102
:109EE00060680CF078F80121070060680CF086F8D3
:109EF00006000A20FFF71AF90022B44B04929F4291
:109F000010DB013204923A00C8320BDBC822042174
:109F100092000491974205DC03220492C82F01DCD1
:109F2000013A0492002203929E4210DB0123039324
:109F30003300C8330BDBC82304329B0003929E42DC
:109F400005DC03230393C82E01DC013B039306A821
:109F50000EF008F91BAF00233E000593B378002BE9
:109F600005D0FF237278317806A802F0ABFC059B80
:109F70000336013305930C2BF0D16B460C229A5E0D
:109F80006B4606A81021595EFF2302F09BFC0023BC
:109F9000A0681A000093743006A90EF0F3F83B0095
:109FA000243305933B78049A934234D17B78039A07
:109FB000934230D1BE78002E2DD1310020680CF0B4
:109FC000A2F907F0A9FA3200031C290009A80DF034
:109FD00083FA310020680CF0A8F907F09DFA0122FD
:109FE000031C290009A80DF077FA310020680CF055
:109FF000AEF907F091FA2900031C022209A80DF01E
:10A000006BFAFE2329009B05032209A80DF064FAD0
:10A010000123BB70ED18059B03379F42C2D164201A
:10A02000FFF784F80B2D00DC59E709A80DF040FA82
:10A03000012201000CA802F003FC002509A80DF084
:10A0400037FAA8423CDD2900002209A80DF032FAB7
:10A0500000222900061C09A80DF02CFA011C301C56
:10A0600006F058FF2900061C012209A80DF022FA6B
:10A0700001222900071C09A80DF01CFA011C381C3C
:10A0800006F048FF311C06F0DFFB29000222061C07
:10A0900009A80DF00FFA02222900071C09A80DF0EB
:10A0A00009FA011C381C06F035FF311C06F0CCFB08
:10A0B0002900031C00220CA80DF00EFA0135BDE7A3
:10A0C00009AA1100012318A80DF020FA18A90FA859
:10A0D0000DF07AFA18A80DF010FA0CAA09A912A826
:10A0E00001230DF013FA002312AA0FA915A80DF0F1
:10A0F0000DFA002215A811000DF0DCF90022061C53
:10A10000012115A80DF0D6F90022051C022115A881
:10A110000DF0D0F9FC21071C8905301C06F0FAFE71
:10A1200007F0DAF9FC21060018908905281C06F0D2
:10A13000F1FE07F0D1F9FC21050019908905381CC2
:10A1400006F0E8FE07F0C8F92A00030031001A9073
:10A150002068FFF717FEA0680CF000FB07A908A80D
:10A16000A5680DF0F7FF0022194B009208A9019392
:10A170002800130000F0B0FA08A80DF0DEFFFA2066
:10A1800080000FF009FBA0680CF0E8FA15A80DF0AC
:10A19000B4F912A80DF0B1F90FA80DF0AEF90CA8A2
:10A1A0000DF0ABF907A80DF0C8FF06A80DF0C5FF2C
:10A1B00009A80DF0A2F925B0F0BC08BC02B0184700
:10A1C0002CAC0200D9AB02001EAC0200E0FCFFFF89
:10A1D000DC050000F7B583601D4B05001F680160BA
:10A1E0004260002F31D028200FF00AFC040010300C
:10A1F0000BF0BEFC174B182023600FF001FC00226F
:10A200000600154B00210192056008320C300093C6
:10A210000FF04AFC08226946301D0FF029FC0F4B55
:10A2200000227361C223A3803B68E26021003800F2
:10A230005B68A660226262629847002805D0200011
:10A240000BF0BBFB20000FF0D7FB2800FEBDC04683
:10A250009C250020050006006D9E01000B64020095
:10A26000F0B5040085B0637A9C46002B04D1200031
:10A270000CF0F6F805B0F0BDA37A266F0193102319
:10A28000019AF35600259B1801229A402900F36891
:10A2900003920293029BAB4231DDB068019B68439D
:10A2A000C01873694000E77A1A181B5C5078E2798D
:10A2B000012F14D1571E3F1A18003B004243606F14
:10A2C00052008218D2189379634500DD6346627BA1
:10A2D0001A4202D00123AB4019430135DAE7022FBD
:10A2E00007D0032FEAD1277A013FFF1A0300380075
:10A2F000E4E7571EFB1A277A013F381ADEE71123DD
:10A30000C943F356606C994023691940039B194374
:10A310000FF009FBA27B072AACD8637B0C495B00DA
:10A320006373531CDBB290004158A373022A03D815
:10A3300008000FF026FA96E7064B2000236300235F
:10A340006363054BE462236414300FF0EBF891E78C
:10A35000B09D020061A201004B64020070B50400D0
:10A36000104B250008330360FFF7CEF8200074304F
:10A370000DF0E3FE200060300DF0DFFE20005830CD
:10A380000BF067FB200050300BF063FB064B1435DD
:10A39000280063610FF0B5F8280005F0D9F9200016
:10A3A00070BDC046D09D020048A20200F8B500254D
:10A3B0000400324B85800833036085711430160029
:10A3C0000F0005F0AFF920002D4BE56263612564B5
:10A3D0005030FFF7E1F820005830FFF7DDF820009B
:10A3E000603002F069FA20000423F25E33682667C9
:10A3F000590009B274300DF0BEFE3368226FE3716C
:10A4000073680126237210236581A7802561D356C6
:10A4100091685918994204DD300098400133054392
:10A42000F8E711230120D356D1685918994206DD67
:10A4300002009A402669013332432261F6E7142074
:10A440000FF0DEFA226900212A430123060005F0FD
:10A4500059FCFF23220063720133A3810023483299
:10A460006664A37320001370A366FFF72FF801231F
:10A47000A27920001343A371F8BDC046D09D02000D
:10A480005CA20200F0B5437A040085B0002B04D131
:10A4900020000BF0E5FF05B0F0BD0122837A11002A
:10A4A0009C461023066F0025F3560392634499409F
:10A4B00002912900F3680193019BAB422CDDB06847
:10A4C0007369684360444000E77A1A181B5C50784F
:10A4D000E279012F10D1571E3F1A18003B0042436A
:10A4E000606F52008218D2189379002B02D0039B20
:10A4F000AB4019430135DFE7022F07D0032FEED120
:10A50000277A013FFF1A03003800E8E7571EFB1ABD
:10A51000277A013F381AE2E71123C943F356606CEA
:10A52000994023691940029B19430FF0FCF9667AA0
:10A53000B31EDBB2FC2B14D8FEF776FF0B4B0500E5
:10A54000236300230A4863630A4BFF217043E462DC
:10A55000236405F049FF29004143200014300EF028
:10A56000E1FF637A012B00D995E791E7616402006E
:10A57000B60300004B6402001FB5012381881A0056
:10A5800068460BF0FFFA012368461A0002490BF0F7
:10A59000F9FA05B000BDC046FE0300001FB5030078
:10A5A00048331A780400002A0DD000221A700123C3
:10A5B00081881A0068460BF0E5FA012368461A0004
:10A5C00003490BF0DFFA200074300DF0CBFD1FBD06
:10A5D000FF03000010B548300378002B06D0037845
:10A5E000012B03D0012102480BF06AF910BDC046CF
:10A5F000FF03000010B50121040006200BF060F9F4
:10A60000064B984208D148342378002B04D0237895
:10A61000012B01D020BFF7E710BDC04616FCFFFF9D
:10A6200070B50500141E19DB060048363378002B80
:10A6300002D03378012B13D1002328001A00743084
:10A6400002F0FCF9002C07D02B004A331C800024B8
:10A6500007234C352C803370200070BD014CFBE784
:10A66000014CF9E717FCFFFF12FCFFFFF8B50B6880
:10A6700005005B8808001700012B08D100210BF0B2
:10A680006AFA002201002800FFF7CAFFF8BD002A7D
:10A6900019DD2E0048363378002B02D03378012B99
:10A6A00013D12B0000245C331C80043B01001800F4
:10A6B0000BF02CFA2B004A331F8003234C352C80DF
:10A6C00020003370E2E70248E0E70248DEE7C046D8
:10A6D00017FCFFFF12FCFFFF73B5079C0500002C61
:10A6E0001CDB060048363078002802D0307801287C
:10A6F00016D106981BB2C0B20090280012B2743076
:10A700000DF040FD002C07D02B004A331C800024A4
:10A7100007234C352C803370200076BD014CFBE7BD
:10A72000014CF9E717FCFFFF12FCFFFFF7B505002E
:10A730000E00171E26DDFFF74DFF2B0048331B7858
:10A74000DCB2002B20D133685B88012B09D12100BA
:10A7500030000BF000FA220001002800FFF760FF34
:10A76000FEBD310001A80BF0C9F93A0001A928008B
:10A77000FFF77CFF01A80BF06CF92800FFF73AFF08
:10A780002000EDE70148EBE70148E9E717FCFFFF90
:10A7900011FCFFFFF0B587B00D9C05000E001700FF
:10A7A0000393002C21DBFFF715FF2B0048331B78A8
:10A7B000DAB20292002B1AD1310005A80DF0CAFCC2
:10A7C0000C9B3A0000932800039B019405A9FFF716
:10A7D00083FF05A80DF0B1FC002C03D02800FFF783
:10A7E00009FF029C200007B0F0BD024CFAE7024CC2
:10A7F000F8E7C04617FCFFFF11FCFFFFF8B50400A7
:10A80000171E1DDD060048363378002B02D0337842
:10A81000012B17D12200E3795632013B137023003C
:10A820000025200054331D8050300BF06FF92300B9
:10A830004A331F80022328004C3425803370F8BD32
:10A840000148FCE70148FAE717FCFFFF12FCFFFF95
:10A85000FF2902D84172002070470148FCE7C0463A
:10A8600017FCFFFFF0B51F0085B00AAB1B78040092
:10A87000039300933B000D0016000EF0B6FD002878
:10A8800033D0237D082B2DD8236800221900FC31FA
:10A890008A62A021C9005A50154905205A50013832
:10A8A000C046C046C046C046C046C046C046C04678
:10A8B000C046C046C046C046F1D1236801325A5056
:10A8C000A0210432C9005A5005F07CFB039B3200E2
:10A8D000009329003B0020000EF087FD237D01330B
:10A8E0002375CCE7034805B0F0BD2075FBE7C046F3
:10A8F000FC0F00000EFCFFFFF0B51F0085B00AAB97
:10A900001B780400039300933B000D0016000EF02B
:10A9100054FD002833D0237D082B2DD82368002236
:10A920001900FC318A62A021C9005A50154905203E
:10A930005A500138C046C046C046C046C046C04610
:10A94000C046C046C046C046C046C046F1D1236896
:10A9500001325A50A0210432C9005A5005F032FB8E
:10A96000039B3200009329003B0020000EF025FDE0
:10A97000237D01332375CCE7034805B0F0BD207576
:10A98000FBE7C046FC0F00000EFCFFFF10B5040003
:10A9900086B0006C04F052FF237BA0219A00A050E7
:10A9A00000200C4AC90050500B4914305050626CC2
:10A9B0006846517CC91849B20BF0AEFF039B019A5F
:10A9C00003211A60207B0130C0B205F009FD21731C
:10A9D00006B010BD007000400405000082B070B5E4
:10A9E0000400002588B00C920D93636C9A68AA420B
:10A9F0000ADD197C02A8491949B20BF08DFF069BAC
:10AA0000039A01351A60F0E75D7C237B02A8ED18FC
:10AA10006DB229000BF080FF039A059B00211A609C
:10AA2000019202A818220FF03FF802A80022290084
:10AA30000EF013FE206C002801D00EF0DDFF082080
:10AA40000EF0DEFF2900060004F0D2FE094B2000C4
:10AA5000E3620023FA212363074B2664A462E363C5
:10AA6000103009010EF05EFD08B070BC08BC02B0E9
:10AA70001847C0468DA90100C3680200F0B5040064
:10AA80000E00150085B01F000CAB1B881030019321
:10AA90000BF06EF82680658018200EF0B1FF02AE34
:10AAA000050033000AAA03CA03C32F602800082741
:10AAB00000213A000C300EF0F7FF3A003100281D5B
:10AAC0000EF0D6FF064B022220006B610023019995
:10AAD000A5600A43E360A2802362636205B0F0BD13
:10AAE000D968020070B5040086B010300D0004F083
:10AAF00019FE0023184AA3622261184AE36316680C
:10AB00006564237323606360A3609E421FD0144A70
:10AB10002820049205930EF073FFC02305006A46B7
:10AB2000029304AB03CB03C22300062102222800B8
:10AB3000FFF7A4FF3368290030005B6898470028BE
:10AB400005D028000AF039FF28000EF055FF002339
:10AB50002000236406B070BD5CA202009C2500208A
:10AB6000DDA9010030B5154B04001D6891B0002D22
:10AB700017D0134B6A4604930023059310330293B6
:10AB800004AB03CB03C223000222062106A8FFF771
:10AB900075FF2B6828009B6806A9984706A80AF04D
:10ABA0000CFF2500074B1035280023610EF0A9FC8F
:10ABB000280004F0CDFD200011B030BD9C25002000
:10ABC000DDA9010048A20200F8B50D1E2FD0002615
:10ABD0000227C468002C27D0AA88A38853403B4290
:10ABE00020D13A4215D1A368AA6893421AD12B8882
:10ABF000002B02D022889A4214D16B88002B02D0FD
:10AC000062889A420ED1A2880A4B01361343A38070
:10AC100008E0A968A0680CF03AFC0028E7D1AB88EE
:10AC20003B42E0D0646AD5E72000002E00DC0248F9
:10AC3000F8BDC0460080FFFF17FCFFFFF0B506001F
:10AC40000D0085B0002959D00127C468002C23D0FD
:10AC50000221AA8800230A4202D0A3885B083B4055
:10AC6000226829688A4211D1A068A968002B0BD0FC
:10AC70000CF00DFC002809D00421625EA388002A94
:10AC800006DB1F4805B0F0BD8842F5D0646ADDE7F9
:10AC90005B045B0CA380F4E7F0682A880100031EC4
:10ACA00007D1F5600123684616490AF06BFF0020C2
:10ACB000E8E71C88944206D25C6A1900002C0DD08B
:10ACC0002300F6E723001C88944207D15F886C8834
:10ACD000A74203D25C6A1900002CF3D1814209D14A
:10ACE0000B889A4204D305D14C886B889C4201D9C9
:10ACF0006862D6E74B6A6B624D62D3E70248C1E7F0
:10AD000016FCFFFFFD03000017FCFFFF064B10B50C
:10AD10001A00040008322C33026043600430FEF74E
:10AD200075F9200010BDC046E89D020008B4024B32
:10AD30009C46043808BC60470DAD010008B4024BC6
:10AD40009C46043808BC60477B6902000C4A00231B
:10AD500011002C32083110B5038183724260C36048
:10AD6000036143614383016004000430FEF740F94E
:10AD7000044B1A68002A00D11C60200010BDC04698
:10AD8000E89D02009C250020F7B50D000126C4684F
:10AD90000192002C37D023882A889A4201D0002BB8
:10ADA00024D163886A889A4201D0002B1ED1FEF715
:10ADB000D5F80123002806D0C022A3881340C03B49
:10ADC0005A425341DBB2019A93421AD10422A35E44
:10ADD000A788002B15DB10222900A0180EF048FED2
:10ADE00040231F4204D020000BF0D0FD646AD0E75E
:10ADF000FEF7B4F80028F6D021000448FEF732FA36
:10AE0000F4E70026F2E73000FEBDC0468D6902007F
:10AE100008B4024B9C46043808BC6047176B02001C
:10AE2000F0B587B001930EAB1B88060003930D9B12
:10AE30000D000093019B0C9F0292002B3CD0002F31
:10AE400002D1009BDB0737D528200EF0D9FD040086
:10AE500010300AF08DFE029B1820258063800EF0D2
:10AE6000CFFD0500009B08220593019B0021036094
:10AE70000C3004970EF018FE082204A9281D0EF0CD
:10AE8000F7FD0E4B02226B6100230399E3602362FE
:10AE9000636233680A43300021005B68A560A280CA
:10AEA0009847002806D020000AF087FD20000EF009
:10AEB000A3FD034807B0F0BD0248FBE7516B020059
:10AEC00016FCFFFF17FCFFFFF0B51600002583807E
:10AED000164A174B04008571026001814681057393
:10AEE00018688C4689B0A8421DD0124A0595049274
:10AEF000C02202926A4604AB82CB82C223002A009F
:10AF00006146FFF78DFFC022094B0A49186802927B
:10AF10006A46069106AB079582CB82C223002A00BF
:10AF20003100FFF77DFF200009B0F0BD2C9E02002C
:10AF30009C2500207B6C020030B5002403730123A4
:10AF4000034D05608471818082734373846030BDDA
:10AF5000449E020070B5040000250C4B0E0008331F
:10AF6000858085710360210018300BF03EFF2000C2
:10AF7000210020300BF05CFF054B2000A680E5800F
:10AF80002572E560256165611C6070BD549E0200FC
:10AF9000A42500208379DB0702D5C160002070471B
:10AFA0000048FCE716FCFFFF8379DB0701D5C0688A
:10AFB00070470148FCE7C04616FCFFFF70B54569C5
:10AFC0000400002D22D0037A032B21D8FFF7ECFFD9
:10AFD000A8622C200EF014FD2C22002105000EF09A
:10AFE00063FD002263695A622369934207D1636952
:10AFF00023610020237A65610133237270BD1A003A
:10B000005B6A002BFBD163695362F2E70148F5E705
:10B010000148F3E717FCFFFF13FCFFFF144B70B56B
:10B020005A68144C002A03D000225A600132A260F0
:10B030001A69002A17D0002119618023DB000E4D08
:10B04000E3582868012B0FD1A923DB00E1584942BE
:10B05000FFF7A0FF2868FFF7B1FF2B685A69074B7D
:10B06000E2500123A36070BDFFF794FFF9E7C046EB
:10B07000FC10004000100040A42500200405000042
:10B0800003000069002809D00221054AD167426AFD
:10B090001A611A7A013A1A72024B19607047C04657
:10B0A00004E100E000E100E010B5002903DB024B01
:10B0B00019600EF008FA10BDA825002070B5040034
:10B0C0001D0004AB1E7804F0E9FA20000E4B40305E
:10B0D0002360FEF761FA2300220001354C331D7016
:10B0E0000023E1215832013616700A3AA3646365E1
:10B0F000138053809381D381013B20006364490214
:10B10000FFF7D2FF200070BD289D0200F7B5802711
:10B110007F053E697C690822113C744305002100CB
:10B1200068460EF0A5FC104B009A9A4219D0009385
:10B130000023019379692800133971430BF08FFEC6
:10B14000019A280000990BF0A6FE210028000BF0C0
:10B1500086FE79692200133928007143B3080BF089
:10B160008AFE0198FEBDC046FECA0000F0B50D0083
:10B17000ABB000210D920700302212A81E000EF085
:10B1800093FC28000EF0D0FC431C0C93102B00D92C
:10B19000B8E0202E00D9B5E0290038000BF0A8FE59
:10B1A0000B90002854D129000C9A12A80EF060FCD4
:10B1B00032000D9916A80EF05BFC80235B051A691E
:10B1C0005D690B92113D6A4338005E690D92FFF78D
:10B1D0009DFF0D9B30220833002104001EA80F9311
:10B1E0000EF062FC31000B9B1339594338000BF011
:10B1F00036FE00230F9E0C930E930C9BA34246DA5F
:10B20000310030221EA80EF033FC12A91EA80EF049
:10B2100081FC00282BD13D49380022001091119467
:10B220000BF039FE6A46099615AB23CB23C223CB1C
:10B2300023C223CB23C23800149B1299139A0BF01C
:10B2400038FE01230E930C9B303601330C93D4E768
:10B250000B9832000D9910300EF0FCFB04000B9897
:10B260000EF0CAFB002C9ED120002BB0F0BD6A4628
:10B27000099621AB23CB23C223CB23C223CB23C2EA
:10B2800038001E991F9A209B0BF013FEDBE7E64364
:10B290003021F61726404E430F9B9E190E9B002B24
:10B2A0001CD10B9B981E05F015F8A0422CD0174915
:10B2B000013438002200109111940BF0ECFD6A4625
:10B2C000099615AB23CB23C223CB23C223CB23C2A6
:10B2D00038001299139A149B0BF0EBFD38000D996E
:10B2E0000BF0BDFD80235B0559690C230B9A1339C4
:10B2F00063434A433800110002330D9A0BF0BBFD43
:10B300000024B1E7024CAFE7024CADE7FECA0000F3
:10B3100017FCFFFF13FCFFFF70B50400A280FA22A8
:10B32000002308000C49920008312160A3710B49E9
:10B330006061E260A36063820BF0DAFD051E09D054
:10B34000010020000222103112300EF091FB280083
:10B350000EF052FB200070BD6C9E020050AC02004B
:10B3600030B502258379040087B02B4204D1FDF764
:10B370003FFEA3791D43A57120000BF0FFFD0028BF
:10B380001CD06B46DD1C28000BF0EFFD2B78002B4A
:10B3900017D001A80BF0E7FD0321019AD3170B404A
:10B3A0009B189B102382FEF779F8E368A188181890
:10B3B0000123A0601A0002A80AF0E4FB002007B0F5
:10B3C00030BD0122064B1A60064A51680029FCD0A4
:10B3D00000215160044A1268019201225A60DBE7A1
:10B3E00000C00040FCC0004008C50040022802D157
:10B3F0000122014B1A7070476128002070B5064D7C
:10B4000004002B78002B04D1044801F0E5FC012353
:10B410002B70200070BDC04662280020EDB30100F3
:10B4200070B50C000AF0E9F9002810D00023144D83
:10B43000A40A2B7020000BF0BFFD002803D00A20C7
:10B440000EF0AAF9F6E72B78002BFCD070BD022194
:10B450000C4B0D4A99508021C90008005D58002D01
:10B46000FCD0A121C9005C5019580029FCD0002152
:10B4700099508021C9005A58002AFCD0E6E7C046FE
:10B480006128002000E0014004050000F8B50C0030
:10B4900015001E000AF0B1F9002811D00023174F43
:10B4A0003B703200290020000BF084FD002803D0FF
:10B4B0000A200EF071F9F4E73B78002BFCD0F8BDC0
:10B4C00001220F490F488C4642508022D2008358F7
:10B4D000002BFCD080270023FF009E4207DD9A004E
:10B4E000A958A150C259002AFCD00133F5E7002326
:10B4F00062468350C359002BFCD0E0E7612800204E
:10B500000405000000E00140084B8000C018A223A1
:10B510000322DB0010B50649C45821432243C15021
:10B52000C046C046C046C25010BDC0460060004084
:10B53000031F000010B50400034B08330360FDF740
:10B54000E3FF200010BDC046849E0200F8B5A02392
:10B5500003223049DB055A5004315A5080212E4ACB
:10B560008905995080210127A225C9052B4C9950A6
:10B570002B4BED00E75063592A492B4E0B4063518A
:10B5800062592A4B002013436351FFF7BDFFA359B3
:10B59000244938000B40A351A259254B1343A35112
:10B5A000FFF7B2FFC046C046C046224B224A23499D
:10B5B0005A51A322D2009C519950214A2149224834
:10B5C0005A5004315850214921485C500431585098
:10B5D00020495A500F2220495A50204B104A9F5060
:10B5E00000225A5004315A5002325A51A8223221B4
:10B5F000D200DF6099501A4A013999500432323131
:10B600009950184AC919995080225C399200995072
:10B61000F8BDC046740700000C0500000060004043
:10B62000FC0F0000FFE0ECFF14050000001D03000C
:10B63000001E130000F0014040A1004044A1004062
:10B64000046000401C05000048A1004024050000E3
:10B650004CA100402C0500000405000000A00040A3
:10B66000440500004C0500000023154A10B50832BF
:10B670000260EE21A0228380837104000320D205A2
:10B68000C900505080200F494005505032220E49C9
:10B6900020000A700D490A700D490A70FA210D4AFE
:10B6A000090113700C4A118001210C4A11700C4AD7
:10B6B0001370FFF74BFF2000FDF708FF200010BDBF
:10B6C000849E02000C0500006428002065280020EC
:10B6D00066280020672800204428002063280020D6
:10B6E0006828002010B50400034B08330360FDF701
:10B6F0000BFF200010BDC0469C9E0200F7B5012143
:10B700000C008368314A9C40A023DB059C50322406
:10B71000013CC046C046C046C046C046C046C046C2
:10B72000C046C046C046C046C046F1D105001135EE
:10B730000195A1250400ED00AC460D3407250E004F
:10B740008768BE4027782F410F4231D06746DE51CF
:10B75000C046C046C046C046C046C046C046C046B9
:10B76000C0469E50013DEAD2019D0134A542E5D17B
:10B77000012381688B40A021C9058B503223013BF6
:10B78000C046C046C046C046C046C046C046C04689
:10B79000C046C046C046C046F1D1827B437B017C97
:10B7A0009B18C27B52189B185A1E93414374F7BDD5
:10B7B0006746DE51C0469E50C046C046C046C046A1
:10B7C000C046C046C046C046CCE7C0460C05000097
:10B7D000F8B504002500260006A80078277B6273D0
:10B7E000A173E37320740D3511362878784307F080
:10B7F0009BFB0022064B06F07BFA04F03BFF28700F
:10B800000135AE42F1D12000FFF778FFF8BDC04608
:10B8100000E06F40F7B5002317000126224A83801D
:10B82000083202600A008371040081600773A0205F
:10B8300003258E40C132FF32C005920015501B4ACD
:10B84000250086506373E3812382230011330D3575
:10B85000009301922878784307F066FB144B00228E
:10B8600006F046FA04F006FF009B287001359D4261
:10B87000F0D1A023019ADB059E503223013BC04644
:10B88000C046C046C046C046C046C046C046C04688
:10B89000C046C046C046F1D120000BF0A3FB2000FB
:10B8A000FDF714FE2000FEBD9C9E02000C0500006A
:10B8B00000E06F4010B50400054B083303601C30F6
:10B8C0000AF0C7F8200018300AF0C3F8200010BDB5
:10B8D000B49E0200FF23F0B52C4E8DB033700023D0
:10B8E00001AD040029000088019303F0A5F80028A9
:10B8F00001D1AB783370264D2B68DB68002B07D164
:10B90000002320881A0019000BF07DFB0DB0F0BD5C
:10B910003378032BF4D81F496846FDF703FE2B68E4
:10B920006946DD6804A80AF0E9F8280004A90BF0CC
:10B930000EFB0027050004A80AF08BF8BD421ED0BC
:10B9400029002022103104A80EF092F828000EF0F1
:10B9500053F8317804ABC9005918082202A80EF038
:10B9600087F801230822208802A90BF04CFB01373D
:10B97000002804D10C212088074A0BF042FB6846BE
:10B980000AF067F8002FBBD0C0E7C0468020002037
:10B99000B825002058AC0200FFFF0000F0B5837905
:10B9A000040091B05B071BD5FDF778FD00232269E9
:10B9B000801A9941994203D1F533FF3398420FD34E
:10B9C000A068002808D0354B1D880CF07CFC03686B
:10B9D000152229001B6A98470422A3799343A37177
:10B9E000A3799B0758D52E4E3368DB68002B4FD0C8
:10B9F0002C4F3B78032B4BD8284B2B491B8804A892
:10BA00000193FDF78FFD336804A9DD6808A80AF0EB
:10BA100075F808A928000BF09AFA050008A80AF0A2
:10BA200018F8082302AAD3800198073B063206A91A
:10BA30000BF0EBFA002D08D029002022103108A8C5
:10BA40000EF016F828000DF0D7FF3D7802ABDA882B
:10BA5000ED0008AB5D19280006A90DF0FBFF0028DA
:10BA600013D00822280006A90EF002F8336804A9B2
:10BA7000DD6805A80AF042F82023280008AA05A9D5
:10BA80000BF06BFA05A809F0E4FF04A809F0E1FF48
:10BA90000222A3799343A37111B0F0BD4628002080
:10BAA000B82500208020002058AC020070B5036843
:10BAB00004000D1E09D15B699847FA208000684395
:10BAC000074904F007FCE08070BD9B689847A842D6
:10BAD000F3D9236820009B6898470500EDE7C0462E
:10BAE00071020000F0B50400150085B001930AABA7
:10BAF0001F880BAB1B78461C02930EAB1B781022E1
:10BB000003930B7803704B8A0131438230000DF0B0
:10BB1000AFFF656100250122019B27836383039B9F
:10BB2000E5832377029B2000F377A31CDA770C9B35
:10BB30000C26636223000D9A283329001A705D7069
:10BB400032009D702C300DF0AFFF2000064B32000C
:10BB5000A3632900E56340300DF0A6FF2000034BEE
:10BB60002565E36405B0F0BD21700200137002008A
:10BB7000F0B507001500A1B002C706006B4918A870
:10BB80001C000BF00EFB2B1E03D028000DF0CCFF89
:10BB900083B20122049200220392029202320192A5
:10BBA00000932A0018A93800FFF79CFF3300604972
:10BBB000583318A807930BF0F4FA231E03D0200083
:10BBC0000DF0B2FF83B2012204920022039202928E
:10BBD000023201920093220018A90798FFF782FF12
:10BBE00033005449AC3318A808930BF0DAFA269BBB
:10BBF000002B03D018000DF097FF83B201220492AE
:10BC0000002203920292023201920093269A18A90E
:10BC10000898FFF767FF731CFF33474918A809937B
:10BC20000BF0BFFA279B002B03D018000DF07CFF10
:10BC300083B2012204920022701C0392029202320B
:10BC400001920093279A18A9FF30FFF74BFF3300AA
:10BC50005533FF33394918A809930BF0A2FA289BF2
:10BC6000002B03D018000DF05FFF83B20122049275
:10BC7000002203920292023201920093289A18A99C
:10BC80000998FFF72FFF3300A933FF332C4918A879
:10BC90000A930BF086FA299B002B03D018000DF0B5
:10BCA00043FF83B201220492002218AC0392029255
:10BCB0000232019200932100299A0A98FFF712FF9D
:10BCC000204B1B780B93002B2DD1079B1E49139300
:10BCD000089B0DA81493731CFF331593099B1297AF
:10BCE00016930A9B12AD17930BF05BFA1D214920A6
:10BCF00006AB1B7F1022237006ABDB8D638206AB85
:10BD0000C918C0180DF0B4FE062323750B9B3068CC
:10BD1000A383A5610CF0DBFA036821001B68984738
:10BD20000122084B1A70300021B0F0BD292A000012
:10BD3000242A0000252A0000272A0000262A0000C5
:10BD4000282A0000692800200A18000070B5002584
:10BD500004000A4B8580083385710360C160183088
:10BD6000FDF71AFC20001C30FDF716FC044B2000E8
:10BD70001C600123A5606561A37170BDB49E0200C3
:10BD8000B8250020FA2130B585B004000123022235
:10BD90006846890009F0F6FE074D2868002809D09A
:10BDA0000BF038FA2188054B2A6819800223917913
:10BDB0000B43937105B030BDB82500204628002004
:10BDC00010B50C0007290FD880680CF07CFA074BDF
:10BDD000195703685B6C984743425841044B4042F3
:10BDE0001840044BC01810BD0348FCE767AD0200C3
:10BDF000EA03000016FCFFFF17FCFFFFF0B5984CAC
:10BE00000D00A544040096AB1B78964908A807933B
:10BE10000692FDF787FB200029001C3009F076FE12
:10BE2000914909A8FDF77EFB90490AA8FDF77AFB26
:10BE30000CAE09AA08A90BA809F077FE2A00300069
:10BE400011AD0BA909F071FE0AAA3100280009F012
:10BE50006CFE290008A809F059FE280009F0F9FD38
:10BE6000300009F0F6FD0BA809F0F3FD08200DF0F5
:10BE7000C7FD0700002100F095FE08220021A76001
:10BE80000DA80DF011FE00230C932B0007CE07C365
:10BE9000774B2900EB60002338002B610CF0FCF994
:10BEA000A0680CF010FA08220021059012A80DF0ED
:10BEB000FBFD14200DF0A4FD6E4B2A00119303002E
:10BEC000C2CAC2C36C4B059EC3600023A436036183
:10BED0003368002B00D0BDE03060A0680CF0F7F9AB
:10BEE00008220021060012A80DF0DEFD14200DF03E
:10BEF00087FD624B1193030086CD86C3604BC36000
:10BF000000230361336B002B00D0A5E03063A068F1
:10BF10000CF0D9F908220021059012A80DF0C4FDFB
:10BF200014200DF06DFD574B11AE1193320003003C
:10BF3000A2CAA2C3544B059DC36000239835036178
:10BF40002B68002B00D089E02860012004AB1B7F08
:10BF500004AA03430BA913770BF059F8A0680CF05F
:10BF6000BAF9036849495B6A9847A0680CF0B3F9CD
:10BF7000036847499B699847A0680CF0ACF9454AAB
:10BF8000036800921D6800231A001900A847079B48
:10BF9000002B0AD020000BF046F9032805DDA0682D
:10BFA0000CF099F90368DB68984706212000FFF739
:10BFB00007FF394B394A1B68A1680393384B30009F
:10BFC0001B6800250293374B1B680193069B1B6877
:10BFD00004330093344B12681B68FFF7C9FDA06857
:10BFE0000CF071F903680CA99B6A9847082304AA0E
:10BFF0001384A068DB18538495840CF064F90368FB
:10C000000CA9DB6A98470621A0680BF0D6F8089ABD
:10C0100009219378A06804320BF0E2F8A0680CF0D4
:10C0200052F90571A0680CF04EF93221FFF73EFD80
:10C03000A0680CF048F90BF0AAF80AA809F009FD6D
:10C0400009A809F006FD08A809F003FD91239B004B
:10C050009D44F0BD03613FE7036157E7036173E768
:10C06000BCFDFFFF64AC020088AC020072AC0200B1
:10C070002F70020085BD01003D700200D5B801009F
:10C080004B7002007970020059700200ADC00100CF
:10C09000E1C0010074AC0200B4250020B0250020EE
:10C0A00008200020AC2500200C20002013B506221B
:10C0B0006846FDF747FA094B1C68002C0AD0694610
:10C0C00001A809F01BFD200001A90BF0CDF801A883
:10C0D00009F0BFFC684609F0BCFC13BDB825002080
:10C0E000002373B501AE0C0031000500019302F08E
:10C0F000A3FC002802D1B278064B1A70064B1868D0
:10C10000002806D061426141044BC9B21D800BF08A
:10C11000B3F873BD80200020B825002046280020F9
:10C12000F0B504008BB00F0005A87D490392FDF720
:10C13000F9F97C4906A8FDF7F5F9220005A91C329A
:10C1400009A809F0F2FC06AA09A907A809F0EDFC64
:10C1500009A809F07EFCA0680CF0B5F8036800257A
:10C160005B699847A0680CF0AEF8030006000A333C
:10C170001F220021180002930DF096FC029B300054
:10C18000DD770AF0FBFF0621A0680BF016F8079A8E
:10C1900009219378A06804320BF022F8A0680CF013
:10C1A00092F80571A0680CF08EF8C821FFF77EFCAC
:10C1B000A0680CF088F80581A0680CF084F80AF0FB
:10C1C000E6FF3800FEF7EAF9390020000BF067F8C7
:10C1D0002000FCF70DFF0295FF3562690123160070
:10C1E0001E401A422DD0504908A800F0D7FB08A9DC
:10C1F00009A80BF0AFFF002209A9130001920092D9
:10C200003800FEF7C7FA09A80BF097FF029B002B36
:10C2100041D1043D282D40DC38000AF09FFA002D62
:10C2200000DC0296039809F082FF002806D0012363
:10C2300062699A43130004221343636108A80BF058
:10C240007CFF04226369134230D0FF213800FEF7DF
:10C25000FFFA0026A36902229B5EB34222DD200082
:10C2600031B2183009F077FC0023010038001A00C1
:10C27000743000F0E3FBC8208000FCF757FF380063
:10C280000AF06CFAC820FCF751FF022263691342DE
:10C2900008D10136DEE70435BCE7FE2DC2DD002300
:10C2A0000293BFE7FA208000FCF740FF0222636997
:10C2B00013421DD01E000632164013421CD01B49EB
:10C2C00008A800F06BFB08A909A80BF043FF0022A7
:10C2D00009A91300019200923800FEF75BFA09A841
:10C2E0000BF02BFF1248FCF721FF08A80BF025FFED
:10C2F0006420FCF71BFF70E70E4908A800F04EFB16
:10C3000008A909A80BF026FF330032003800019677
:10C31000009609A9FEF73EFA09A80BF00EFFE4E724
:10C320007BAC020072AC02008BAC0200D0AC02000D
:10C33000983A00000DAD02001FB5084B1B68DB8B5F
:10C34000834209D1064B68461A78064B06491A7093
:10C350000123032209F016FC05B000BDBC25002016
:10C360006A2800206B280020FF030000F0B51D00A4
:10C37000ADB0040001610135143016000691FDF7DF
:10C380000BF9EBB21800079308F0B6FD0025013653
:10C39000F6B26060300008F0AFFD4A4B2A001D7015
:10C3A000494B4A491D70079B2060A672E3722581A4
:10C3B0000FA80BF012F801270C23226804970193B1
:10C3C00000963B000FA90395029517A8FFF78AFB7B
:10C3D0002A003F490FA80BF000F854200DF010FB85
:10C3E000202306000193079B6268049700930FA91E
:10C3F0003B0003950295FFF775FB364B08961E60D0
:10C400000AAE17AB2A003449300009930AF0E5FF61
:10C4100034213520337802AA52181370738A1231EE
:10C4200002AA52181380253902ABC9181022C0186D
:10C430000DF01EFB4821022302AA5218137050224D
:10C4400002AB9B1808AF159706981D800BF03FFFB5
:10C4500003680FA91B689847722202AB9B181B88C0
:10C460000698E3600BF033FF079014200DF0C8FA34
:10C4700007001A4B05610822310010C00A930B9582
:10C480000DF0F6FA164BFB60079B9B69AB4217D188
:10C49000079B06989F610BF01AFF050008220021F8
:10C4A0000BA80DF001FB0F4B0A932B006C3307CE4A
:10C4B00007C30D4B2000AB670023EB672DB0F0BD29
:10C4C0003B61E5E76A2800206B2800206FAD020081
:10C4D0007FAD0200BC2500208FAD02003773020043
:10C4E0000D73020039C30100FF720200054A030008
:10C4F0001178054A1278501A914201D9DB7AC01896
:10C500007047C0466B2800206A280020F0B58DB027
:10C5100002AF040039607A613B61002A00DCA2E0CE
:10C520003B69012B00D19EE027230025FB18006901
:10C530001D700BF0CCFE272203684D499B69BA1889
:10C540000968984720690AF06BFF022302001A402D
:10C55000184236D12533FB181B78AB4200D185E059
:10C56000FA6120690AF05CFF0223184275D0253376
:10C57000FB181B78FB60002B6FD03E4B6E461D787E
:10C580003D4B1B78BB60FB69BB6100237B60BB69D3
:10C590007A69934217DAE17A681C04F00BF8BB68F9
:10C5A0008B420AD0BA693B689B5C62685355FB6951
:10C5B000CDB20133FB61FB687B60BB690133BB61BA
:10C5C000E5E7FD61CDE77B68002B01D0294B1D70AD
:10C5D0002000FFF78BFF6A46C31DDB08DB00D31A80
:10C5E0009D4602AB0200002105001800BB610DF062
:10C5F0005BFA204BE27A1B7820000193BB68009322
:10C60000BB6961680AF011FF3B69022B03D103216A
:10C610001A48FCF7B7FD20690BF059FEABB20025B4
:10C62000134A1268D18B02680095D2681500BA6966
:10C63000A8473B69022B14D1FCF70EFD20690BF0D3
:10C6400046FE272203680A499B69BA180968984779
:10C65000FB697A69B546934283DBBD46F8690BB046
:10C66000F0BDB546F9E7064BFB61F6E7054BFBE786
:10C67000BC2500206A2800206B280020FF03000052
:10C6800017FCFFFF16FCFFFF002815D0006041607B
:10C690008260C360046145618661C761444604628B
:10C6A0004C464462544684625C46C46264460463F9
:10C6B0006E46466374468463002A06D0C46B043C0D
:10C6C000043A25681560B442F9D18C6BA6464E6BCE
:10C6D000B546002B06D0CC6B043C043B1D6825609E
:10C6E000B442F9D10C6BA446CC6AA3468C6AA2462C
:10C6F0004C6AA1460C6AA046CF698E694D690C69E7
:10C70000CB688A6808684968704700604160826049
:10C71000C360046145618661C761444604624C465A
:10C720004462544684625C46C462644604636E4656
:10C73000466374468463C46B043C043925680D6009
:10C74000B442F9D1C76986694569046970470060D8
:10C7500041608260C360046145618661C76144468F
:10C7600004624C464462544684625C46C462644639
:10C7700004636C4644637446846304697047846B45
:10C78000A646446BA546046BA446C46AA346846AC5
:10C79000A246446AA146046AA046C76986694569FB
:10C7A0000469C368826800684168704710B5041E58
:10C7B0000CD00DF0B9F9431EE318A34208D9227832
:10C7C0001978013B21705A700134F6E7014810BD19
:10C7D0000020FCE717FCFFFFF0B585B00D1E0090B0
:10C7E00029D000260A27C217141A4B1E544003935F
:10C7F0002000029639000136019603F0DBFECB17CC
:10C80000C9185940039B303120009955390003F075
:10C81000EBFD041EECD1009B002B04DA2D23029EBD
:10C82000019A0236AB5400232800AB55FFF7BEFF38
:10C83000200005B0F0BD014CFAE7C04617FCFFFF31
:10C8400010B50400100048436160A26000280BDDB1
:10C85000074B984205DC80000DF0E4F820602000D2
:10C8600010BD01204042F7E700232360F7E7C046F0
:10C87000FEFFFF1F4A688B6870B583605343040056
:10C880000D004260002B12DD0A4A9E0030009342E8
:10C8900001DD012040420DF0C5F800232A68206028
:10C8A000D158C1500433B342FAD1200070BD0023E7
:10C8B0000360FAE7FEFFFF1F014B03607047C046AD
:10C8C000CC9E020030B500684488A1420CDA85880D
:10C8D000AA4209DA002907DB002A05DB6243401877
:10C8E00080188371002030BD0048FCE717FCFFFF73
:10C8F000F0B507000E001D0085B0002921DD002ADB
:10C900001FDD002B1DD00468638803938B4200DD7C
:10C910000391A3880293934200DD02920023063420
:10C920000193019B029A93420ED029002000039AA2
:10C930000DF09EF83B68AD195B88E418019B01334C
:10C94000EEE7024805B0F0BD0020FBE717FCFFFF53
:10C95000F8B504000D0016001F00002901DB002AB5
:10C9600002DA0D4B2360F8BD10004843063008F092
:10C97000C3FA206009F053F923685D809E80002F80
:10C9800006D03B00320029002000FFF7B1FFEAE7A4
:10C9900020000BF0E7FBE6E7CC9E0200F7B50700AE
:10C9A0000D1E03D1244B03603800FEBD0024080097
:10C9B0002600210001940378002B1AD03022524225
:10C9C00094469C446246092A11D90A2B0AD1019B3C
:10C9D000361901330193B14200DA310000242600F8
:10C9E0000130E8E7002CFBD000240136F8E70124F1
:10C9F000F6E70126019A380012B209B27642FFF733
:10CA0000A7FF31000A203B689A1D2C78002CCBD060
:10CA10002300303B092B08D8F343DB173340434353
:10CA20001B19303B1E000135EFE7002EFBDB1670B3
:10CA30000E000132F7E7C046CC9E0200F0B50500BB
:10CA400087B004A816001C000F00FCF753FC2B68ED
:10CA50005A88964235DA9B889C4232DA1F2F30D9A9
:10CA6000059B01939F422CDC05217943049BA0394F
:10CA70005B1801932300621D0392019A12780292BF
:10CA800000222C68B7186088B8420DDDA1888B425F
:10CA90000ADAE419102717415843029924180F4065
:10CAA000781E87417F42A7710132052AE9D1019A98
:10CAB000013301320192039A9342DED1002007B084
:10CAC000F0BD0148FBE7C04617FCFFFFF7B5036860
:10CAD00006009F1D5B880D005A1A0192002919DD7E
:10CAE0000024994203DB0BF03DFB002013E0336888
:10CAF0009B889C42F9DA79193800019A0CF0B8FF4A
:10CB0000019B2900F8180BF01FFB336801345B8888
:10CB1000FF18ECE70048FEBD17FCFFFF10B5054805
:10CB2000054C206009F07EF82000044A04490CF00E
:10CB30005CFF10BDCC9E0200C0250020002000201C
:10CB40003B81020070B5002817D1124D2E68002ECF
:10CB500011D108300CF054FF066046600E4E040000
:10CB60003368002B02D10CF03AF8306023682C6057
:10CB70009B00F3586360286870BD084A0123116860
:10CB800007480C001C401942F6D103604460136052
:10CB9000F2E7C046C8250020D4250020C425002087
:10CBA000CC250020002370B5040001604360994249
:10CBB0000AD1064D2B68002B02D10CF010F828602A
:10CBC00023689B00EB586360200070BDD4250020D3
:10CBD000436810B50400002B02D104480CF00FFD8F
:10CBE000606803681B69984710BDC0469FAD02008E
:10CBF000436810B50400002B02D104480CF0FFFC80
:10CC0000606803689B69984710BDC0469FAD0200ED
:10CC1000436810B50400002B02D104480CF0EFFC6F
:10CC2000606803685B6A984710BDC0469FAD02000C
:10CC300010B5040002F0B4FA034B1B68002B01D0BE
:10CC40002000984710BDC046DC250020F0B58BB011
:10CC5000050001F02BFD002000F0C4FD0368060074
:10CC60001B699847336804009B6930009847336814
:10CC700001905B6A300098470200288810380B2822
:10CC80006CD803F013FB06486B6B6B656B6B6B71B9
:10CC90006B83AF88200039000CF0A2FA2200162323
:10CCA000583216789C46143B3343A879697B13703D
:10CCB000012304AEB3700023378032001F00AC4460
:10CCC000F070981801330771062BFAD10027917282
:10CCD0003A00F3190137DA72062FFAD163463A00A7
:10CCE0007361E91D05A80CF0C3FE29000B2004ABFD
:10CCF0003A000E31C0180CF0BBFE94346368A36098
:10CD0000A06800282AD0C36831009847A368002B88
:10CD1000F4D01B69F3E720002E49AE880CF060FACE
:10CD20002200022058321378A9798343137004AB90
:10CD30001E809970A0346368A360A06800280DD09D
:10CD4000C36804A99847A368002BF4D01B69F3E7D4
:10CD50005369002B02D0A888A91D98472900019883
:10CD60000BF000FC0BB0F0BD636E002BF6D0AE797B
:10CD7000A366A06E0028F1D0C36831009847A36E67
:10CD8000002B01D1636EF3E71B69F1E701266946C9
:10CD90000D27AB7BEF575A071E40920FDB080A7234
:10CDA0000B730622E91D04A80CF062FE6A46127A93
:10CDB00004AB1A726A46127B9F715A72DE712B00A5
:10CDC00020000F338C3407938030236804A99847E0
:10CDD000C4E7C046FFFF0000014B18607047C04623
:10CDE000DC2500201FB58022A323D205DB00D35809
:10CDF0000820DB0700D4053048221D4B1D4901F0F7
:10CE000061F800280AD080B2002807D1BFF34F8F05
:10CE1000194B1A4ADA60BFF34F8FFEE7002302A8CE
:10CE2000029301330370164B1B6843600BF05BFAEF
:10CE3000002802D0072005B000BD6B46581C0BF03F
:10CE400050FA0028F6D16B46591C0BF048FA00281E
:10CE5000F0D10C4801F066F880B20028EBD10A4806
:10CE600001F06AF880B20028E5D100F0D7F9E2E7D6
:10CE7000EB820200E025002000ED00E00400FA054E
:10CE8000D82500204DCC010031CC010080B2002813
:10CE900007D1BFF34F8F034B034ADA60BFF34F8FC5
:10CEA000FEE7704700ED00E00400FA0513B50468E2
:10CEB0000093A46813000A000149A04716BDC046AC
:10CEC000FFFF000037B506AC257804680195009394
:10CED000246913000A000149A0473EBDFFFF00007E
:10CEE000F0B587B016000DAA0D00147800216A462F
:10CEF000518069460CAA128801930A80002C1AD12D
:10CF000001004279F831A2420BD9E700CF5BB7426A
:10CF10001BD130212034A40022580132D27F0A4292
:10CF200015D16A46310028000BF0E7F906230028E6
:10CF300008D0032306E06A46310028000BF0DDF933
:10CF4000031EF6D1180007B0F0BD0134DBE7102155
:10CF50000A4051424A41002005930CAB0493194BFF
:10CF600002AC01322680A270A0809D4207D100F061
:10CF700039FC03681B6998470CF035F9050021005E
:10CF800028000BF0BEF9002382B29A42DAD01000DA
:10CF90000D4A05339042D5D00FD801330828D1D09F
:10CFA000013B1128CED06A46310028000BF0A5F9CC
:10CFB00005230028C6D0023BC4E7044A062390425A
:10CFC000C0D0F0E7FFFF0000033000000134000094
:10CFD000F0B5040099B008002E250C9100F054FD26
:10CFE00006ABED1812902A00012012A90BF083F96C
:10CFF000002802D0032019B0F0BD2B880C9A0B90AA
:10D0000093830C9B0B9A1B7D934200D8C6E06379F7
:10D010001D2B01D90720EEE70C9B9B690D930B9B01
:10D020000D9A9B009D586B69002B07D16B8B002BD1
:10D0300004D16B1CDB7F022B00D1AAE0280000F09A
:10D0400023FD2B000026283312900E960D960F9389
:10D050000F9B1B78B34221D96A6AB3009F583422D0
:10D0600006AB9B1800221A701300002113AA9A180D
:10D0700001335170102BF8D1462206AB9B184A4A57
:10D0800038001A8013A90BF0BBF9002803D07B6984
:10D090000D937B8B0E930136F6B2D9E76179AB1C09
:10D0A0001F31C90061186A1CDB7FD27F08912900FB
:10D0B0002A31097800200791290029310978069141
:10D0C0000E9905910D990491297F0391298B029165
:10D0D000698B01916969009112A90BF025FE002866
:10D0E00000D087E7637907001A00203292001F33CF
:10D0F0001551DB001B5BEB836379013363712B00FC
:10D1000028331B78BB4244D98E239B00E35C132B4E
:10D1100000D97FE76A6ABB009E580023180013A954
:10D120000B705A1801335070102BFAD11E4B30007F
:10D130004B820BF065F90D90002827D1300000F0EC
:10D14000A3FC8E218900625C738B1E32FF32520079
:10D15000A2180292327F12900192328B0D980092A7
:10D16000726912A90BF085FE002800D042E78E21DB
:10D170008900625C531CDBB263541D337A32FF3387
:10D1800092005B001651E3185B88F3830137FFB20E
:10D19000B5E70B980130C3B20B9332E72379002037
:10D1A0000133237127E7C0460129000070B50C2226
:10D1B0000D00002104000CF077FC00232361024BDA
:10D1C00020002560E36070BDFF72020070B50500AD
:10D1D0000BF032F9041E1DD1280078222100803086
:10D1E0000CF062FC2800E93050222100FF300CF0E6
:10D1F0005BFC280008222100F8300CF055FC064B9F
:10D200002822E81821000CF04FFC8E239B00EC54E0
:10D21000200070BD0624FBE73A0200001FB528235A
:10D2200002AC23806933FF336380E3806B460022C6
:10D23000D81D1123A2800D49037005320BF0A8FA06
:10D2400080B200280FD1802080000BF09DFA80B2C0
:10D25000002808D120000BF099FA80B2002802D1F2
:10D260000BF090FA80B204B010BDC046C2AD02000F
:10D2700000487047FFFF0000F0B597B005930368C2
:10D2800007AD1B680491039311002B00060091C9A0
:10D2900091C30024D368210008220DA8EB602C6103
:10D2A0000CF002FC22000B4B10940F9311AB0C946A
:10D2B0001C70E11801344A70102CFAD15A82019383
:10D2C000059B2A00009330000499039C0CABA047F7
:10D2D00017B0F0BD99880200FC3070B5046C0500F1
:10D2E000002C0DD124200CF08BFB064B4460836195
:10D2F000054B8460C46004614461C46103602864B8
:10D30000286C70BDD89F0200C0A00200FC3070B530
:10D31000C56B0400002D11D134200CF071FB084BBB
:10D3200085604360074B45610361074B0562C3613C
:10D33000064BC5628362064BE0630360E06B70BD21
:10D3400008A00200F89F020068A0020078A0020076
:10D3500088A002007FB503791548002B23D0154E15
:10D36000154C33782000002B1DD10A256D44280070
:10D370000BF076FA002810D16B88592B0DD12B7841
:10D38000AA88D91F012910D800920C4A2021200018
:10D3900007F09CFE0123337004E02022200008499E
:10D3A0000CF0C9FB200004B070BD0092054AEDE707
:10D3B000C8AD02008C2800206C280020EAAD0200D5
:10D3C000E2AD020007AE020010B50400024B08C037
:10D3D0000BF01EFB200010BDF89F020010B50400EA
:10D3E000024B08C00BF029FB200010BD08A0020072
:10D3F000064B70B5040003604068002804D005693E
:10D400000CF0FAFA2800F8E7200070BDE89F02004F
:10D41000064B70B5040003604068002804D005691D
:10D420000CF0EAFA2800F8E7200070BD18A002000E
:10D43000064B70B5040003604068002804D00569FD
:10D440000CF0DAFA2800F8E7200070BD28A00200EE
:10D45000064B70B5040003604068002804D00569DD
:10D460000CF0CAFA2800F8E7200070BD68A002009E
:10D47000064B70B5040003604068002804D00569BD
:10D480000CF0BAFA2800F8E7200070BD0C9F0200EB
:10D49000064B70B5040003604068002804D005699D
:10D4A0000CF0AAFA2800F8E7200070BD1C9F0200CB
:10D4B000064B70B5040003604068002804D005697D
:10D4C0000CF09AFA2800F8E7200070BD2C9F0200AB
:10D4D000064B70B5040003604068002804D005695D
:10D4E0000CF08AFA2800F8E7200070BD3C9F02008B
:10D4F000064B70B5040003604068002804D005693D
:10D500000CF07AFA2800F8E7200070BDD89F0200DE
:10D51000064B70B5040003604068002804D005691C
:10D520000CF06AFA2800F8E7200070BD78A002002D
:10D53000FC3070B5046C0500002C0DD124200CF0DB
:10D540005FFA064B44608361054B8460C4600461EC
:10D550004461C46103602864286C70BDD89F0200D8
:10D56000C0A00200134B70B508330360124B0400D7
:10D57000C3608023114A451CFF355B00C250280060
:10D580000BF0BFFF280002F0E3F820000C4BB8308E
:10D59000E360FFF79DFF2000AC30FFF789FF20001C
:10D5A000A030FFF775FF20006C30FFF761FF20000F
:10D5B00070BDC046ECA0020034A1020048A20200E7
:10D5C0004C9F0200F0B50500040087B0AC356B68D5
:10D5D000AB60A868002807D0C36821009847AB68F3
:10D5E000002BF4D01B69F3E72500B035286800282C
:10D5F00004D006690CF000FA3000F8E7220003219D
:10D600005832137828608B43137023005C331870F2
:10D6100020000A300BF0DAFA200034300BF0D6FA92
:10D62000606E002804D005690CF0E6F92800F8E7E0
:10D630002500983560662868002804D006690CF03B
:10D64000DBF93000F8E72600A43628603568002DA5
:10D6500005D02F6928000CF0CFF93D00F7E729002D
:10D660003560082202A80CF01FFA01AE2300320038
:10D6700001956C3383CA83C3094B08222900A36731
:10D68000E56702A80CF010FA23000195803307CE5D
:10D6900007C32800034A90341A60256007B0F0BD24
:10D6A0008B8802007D880200444AF0B50600C26003
:10D6B000A022434B01000833036016360023428248
:10D6C0000400320085B003718360037483823531B6
:10D6D000137001329142FBD1802580222000AD00E1
:10D6E000D2011100F377358438300093002300F025
:10D6F00069FB2300210040331A0003932B0000250F
:10D700005F31157001328A42FBD1039A0321D5772C
:10D71000220060321380137920008B4313712300A1
:10D7200068331D70274B0C22E36600212567783093
:10D730000CF0BAF92300270088331D60224B08370C
:10D74000A567FB67843700210C2238000CF0ACF988
:10D750001E4B1F4AFB602300A0333D613D601A60F1
:10D760001C4A5D60DA601C4A1D619A61DD6130000F
:10D770000BF02CFA03980BF029FA184B601CE360AD
:10D780002300C4331D809D70FF3001F0CBFF8C233C
:10D790005B00E55023001933FF335D618023104A9D
:10D7A0005B00E250230001222000FE3352425A86E1
:10D7B000023B9D63DD631D6405B0F0BD4C9F02001C
:10D7C000ECA002000C9F02008B8802007D88020002
:10D7D0001C9F02002C9F02003C9F020034A102000B
:10D7E0005CA2020070B5074D2B68002B07D1A0206A
:10D7F00040000CF005F90400FFF756FF2C60286884
:10D8000070BDC0462826002070B500250400254BB9
:10D8100029000360244B85808360244BC5604361ED
:10D82000234B85610362234B4562C362224B056330
:10D830008363C5634430FFF7B9FC200029005830EA
:10D84000FFF7B4FC200029006C30FFF7AFFC1B4B46
:10D85000220023602300F832803320C39342FCD19E
:10D8600026001D00E936FF36280008220021083571
:10D870000CF01AF9AE42F7D18E2300229B00E1187A
:10D8800004C68E42FCD18E2300219B00E2540C4B37
:10D890000C4AE318A218198002339342FBD12000EE
:10D8A00070BDC04638A00200E89F0200F89F020049
:10D8B00008A0020018A0020028A00200DC9E0200BE
:10D8C0003A02000062020000014B18787047C0461F
:10D8D0008D280020F0B587B0019000202A4F1E004F
:10D8E0003B780D001400834204D101F08DFC002828
:10D8F00002D00B2007B0F0BD002E0ED0222003A9CD
:10D9000003960BF093F9031E07D00620082BF1D0E5
:10D91000113B584258410430ECE702ABD81C0023BD
:10D92000037000F025FD0028E3D11C22019B6D004F
:10D93000A4002B4314401C431F2314491C400D78A2
:10D9400002AA9D43113B9B181880114B2C43039353
:10D9500002230C7003AC2371093002ABC0180522FE
:10D960000CF086F821000B4800F06CFD031E07D078
:10D970000720042BBED00430082BBBD10538B9E7F3
:10D9800001223A70B6E7C0468D2800208120002091
:10D99000318C02008E28002010B5064800F022FECF
:10D9A000031E06D00720042B03D00430082B00D11F
:10D9B000053810BD8E28002073B56B460400032285
:10D9C000581D0E0000210CF06FF80F4B01AD1B78B5
:10D9D000200029002B7001F02FF8041E04D0042031
:10D9E000052C00D0073076BD3100280000F062FD24
:10D9F00003002000002BF6D00720042BF3D00430C6
:10DA0000082BF0D10538EEE78E28002073B56B4661
:10DA1000114C0D00060005222100D81C0CF028F83E
:10DA2000012D09D00223022D13D103222378934321
:10DA30001A000123134302E0032223789343237047
:10DA40006B463000D91C0BF0EFF80023984200D051
:10DA50000B33180076BDC04681200020084B010022
:10DA60001B78092010B5002B08D0064800F05CFD9B
:10DA7000031E03D003200E2B00D0001810BDC0469B
:10DA80008D2800208E280020F0B5438A85B00193B0
:10DA9000037805000127002B37D0224BC6191B68DD
:10DAA00000249C463100204AA44511D00023981E32
:10DAB000012804D9D05C0700C85C87422ED101330D
:10DAC000102BF4D111235C43174B1F193F7C1CE032
:10DAD00030000BF012F92B7807000090002B01D1D9
