:020000021000EC
:108000000040002049F9010085F9010087F90100CD
:108010000000000000000000000000000000000060
:1080200000000000000000000000000089F90100CD
:1080300000000000000000008BF901008DF9010034
:108040008FF9010075B00100450002008FF90100B1
:108050008FF901000000000061FA01008FF90100B2
:108060008FF901002D020200CDFE01008FF9010001
:108070008FF901008FF901008FF901008FF90100DC
:108080008FF901008FF901008FF901008FF90100CC
:108090008FF90100C5DF010045E101008FF9010002
:1080A0008FF901008FF901000000000000000000BE
:1080B00000000000000000000000000000000000C0
:1080C00010B5064C2378002B07D1054B002B02D0AE
:1080D000044800E000BF0123237010BDB020002041
:1080E000000000003CB00200044B10B5002B03D090
:1080F0000349044800E000BF10BDC0460000000076
:10810000B42000203CB00200164B002B00D1144BD1
:108110009D46402292029A1A924600218B460F46B3
:108120001348144A121A11F08FFD0F4B002B00D088
:1081300098470E4B002B00D09847002000210400E8
:108140000D000D48002802D00C4800E000BF0CF0E4
:108150007FFF2000290011F06DFB0CF063FFC0468B
:1081600000000800004000200000000000000000A7
:10817000A82000201C2900200000000000000000B2
:1081800010B50400034B036040300DF032FD2000B9
:1081900010BDC046C89E0200F0B585B01F000AABF6
:1081A0001B880600150002910393002F1CD0282085
:1081B00001F0E0F86B4604001989039BAAB2009312
:1081C0003B000DF0B4FC3368210030005B68984739
:1081D00000280AD0002C05D020000DF0BEFC2000A5
:1081E00001F0E2F8024800E0024805B0F0BDC046E8
:1081F00016FCFFFF17FCFFFF0022104B00B5FF210C
:108200001A70662389B01A0000910D4803F0A8FB8C
:108210000C4907A801F0B2F9C82207A952000A4880
:1082200002F0B0FA07A80DF0E4FC084800F0AAFF3D
:1082300007480DF014FB09B000BDC04658280020C7
:10824000EC240020E0AA0200BC21002088130000DA
:10825000D0200020822110B50E4C4900200003F0F0
:1082600079FA782000F08EFF200003F0DFFA3C203E
:1082700000F088FFC3212000890003F06BFAFA2088
:10828000400000F07FFF200003F0D0FA02480EF01B
:1082900079FF10BD00250020EC24002070B50525D5
:1082A00000240C480EF02FFB013D24180A2000F09A
:1082B00069FF002DF5D10521200008F065F90AF0CD
:1082C00003FF054A054B0AF0CBF80BF023FB0AF03D
:1082D000C5FE70BDBC2100200EBE30992A18D93FC2
:1082E00037B50321684607F053FB64240025684630
:1082F00007F092FB104908F0DDFE09F0BDF97E2879
:1083000002DD854200DA0500013C002CEFD1280097
:108310000AF0DAFE094A0A4B0AF0A2F80022094BD9
:108320000AF00AFB0AF09AFE002801DA20003EBD9E
:108330006428FCDD6420FAE700007F4333333333E5
:108340003333E93F00005940F7B501211E480DF0D5
:1083500012FF0AF0B9FE04000D001B4801210DF0C8
:108360001DFF0AF0B1FE06000F00174801210DF0B5
:1083700028FF0AF0A9FE2200009001912B002000A6
:1083800029000AF06DF832003B0004000D003000B7
:1083900039000AF065F802000B002000290009F0FE
:1083A0000DFA009A019B0D000400190010000AF05C
:1083B00057F802000B002000290009F0FFF90BF02C
:1083C0007DFB0AF04BFEFEBD94220020F0B5012497
:1083D000022593B0BA4911A801F0D0F8782211A96A
:1083E000B84802F037FA11A80DF003FCB6480EF0B9
:1083F000C9FEB64B1C70B64910A801F0BFF8FFF7D4
:108400006FFF010011A80DF010FC11AA10A904A81B
:108410000DF05BFC11A80DF0ECFB10A80DF0E9FBD2
:10842000AC4910A801F0AAF8AB480EF085FE010097
:1084300011A80DF0FAFB11AA10A905A80DF045FC32
:1084400011A80DF0D6FB10A80DF0D3FBA34910A87E
:1084500001F094F8FFF722FF010011A80DF0E5FBF1
:1084600011AA10A906A80DF030FC11A80DF0C1FB4F
:1084700010A80DF0BEFB9A4910A801F07FF89948AA
:1084800001F094FC010011A80DF0CFFB11AA10A976
:1084900007A80DF01AFC11A80DF0ABFB10A80DF009
:1084A000A8FB914910A801F069F8904E2100300016
:1084B0000DF061FE010011A80DF0B7FB11AA10A983
:1084C00008A80DF002FC11A80DF093FB10A80DF008
:1084D00090FB874910A801F051F8210030000DF001
:1084E0005DFE010011A80DF0A0FB11AA10A909A8BA
:1084F0000DF0EBFB11A80DF07CFB10A80DF079FB43
:108500007C4910A801F03AF8210030000DF059FE26
:10851000010011A80DF089FB11AA10A90AA80DF0FD
:10852000D4FB11A80DF065FB10A80DF062FB724999
:1085300010A801F023F8FFF707FF010011A80DF0C4
:1085400074FB11AA10A90BA80DF0BFFB11A80DF028
:1085500050FB10A80DF04DFB684910A801F00EF873
:1085600067480DF0B4FE010011A80DF05EFB11AAE2
:1085700010A90CA80DF0A9FB11A80DF03AFB10A84A
:108580000DF037FB5F4910A800F0F8FF5E480DF0D2
:108590009EFE010011A80DF048FB11AA10A90DA81C
:1085A0000DF093FB11A80DF024FB10A80DF021FB9A
:1085B000564E05AA04A90FA837680DF086FB06AA37
:1085C0000FA910A80DF081FB07AA10A911A80DF0A2
:1085D0007CFB2A0011A938000FF00BF811A80DF050
:1085E00008FB10A80DF005FB0FA80DF002FB1420EE
:1085F00000F0C8FD376809AA08A910A80DF065FBAE
:108600000AAA10A911A80DF060FB2A0011A93800D0
:108610000EF0EFFF11A80DF0ECFA10A80DF0E9FA3A
:10862000142000F0AFFD0CAA0BA90EA836680DF0BF
:108630004CFB0DAA0EA90FA80DF047FB344910A85A
:1086400000F09CFF10AA0FA911A80DF03EFB2A0014
:1086500011A930000EF0CDFF11A80DF0CAFA10A834
:108660000DF0C7FA0FA80DF0C4FA0EA80DF0C1FA6C
:10867000322000F087FD0DA80DF0BBFA0CA80DF01C
:10868000B8FA0BA80DF0B5FA0AA80DF0B2FA09A8CD
:108690000DF0AFFA08A80DF0ACFA07A80DF0A9FA92
:1086A00006A80DF0A6FA05A80DF0A3FA04A80DF08F
:1086B000A0FA064B1B78002B00D09CE613B0F0BD4F
:1086C000E4AF0200BC210020EC2400205828002048
:1086D000E2AA0200E5AA020048230020E8AA02005C
:1086E000EBAA0200F8220020EEAA02009422002049
:1086F000F2AA0200F6AA0200FAAA0200FEAA0200EA
:108700003422002002AB02005C2200200825002059
:1087100006AB0200F7B51E4DFF24280000F07CF9DF
:1087200000231C4E1A0019003000009403F018F9C1
:10873000194801F03BFBFFF78DFD0A233000FA26B4
:108740001027220021000093230003F009F9134CA5
:10875000B6003100009701222000114BFFF71CFDED
:10876000310002220F4B00972000FFF715FD1C205F
:1087700000F000FE832120230400C9001A0069587C
:1087800003F0BCFE084B1C6000F078FD0020FEBD2D
:10879000D0200020EC240020F8220020A02100207E
:1087A000CD830100F98101000825002070B50A4C35
:1087B000200000F05FF8094D20002A00084911F060
:1087C000E4F9084C0849200000F0D8FE2A002000F7
:1087D000064911F0DAF970BDD020002000200020F9
:1087E000F1870100CC20002008AB0200F35B0200FF
:1087F000862310B50400DB00C01802F0D3FE1B4B2B
:10880000E01803F037F8F423194A9B00E2501C33B8
:10881000E0180DF0EEF9FA239B00E0180DF0E9F9ED
:108820008A239B00E01801F029F92000C530FF30B1
:1088300000F030FF20008D30FF3001F0E7F820001D
:108840006530FF3001F0E2F82000EC3001F0B2FDBD
:108850002000D03002F086FA2000643006F0BEFF1F
:10886000201DFFF78DFC200010BDC0461C04000039
:108870005CA00200F0B51425040097B019222B006B
:1088800000951821043002F045FC23002700260043
:1088900064331800B43713211393B83606F0AAFFD7
:1088A00038000EF0EFFB2900132230000EF03FF8E5
:1088B0002000D03002F076FA2300EC3306211800B5
:1088C000514A149301F09EFD20000023653000936F
:1088D00001331A001121FF3001F0A4F82000002319
:1088E0008D300093022210210133FF3001F09AF8FD
:1088F0002000B5301A2302220121FF3002F010FBC4
:108900002200C532FF32129231000423182212983D
:1089100000F0CCFE8A229200A218159205231D2297
:108920003100019300923B00129A159801F0AAFAC7
:108930009B229200149B1599A018129A01F076FCC4
:108940009E2292003900A0181C2202F011FD322351
:10895000A4221093193B0F93013B0E93013B0D93FF
:10896000013B0C93013B0B93023B0993023B0793A2
:10897000013B0693013B0593013B0493013B0393A9
:10898000013B0293013B0A950193023D9200013B9A
:10899000A01800930822013B072108950DF0CFFF96
:1089A000F42292003900A01803F098FAFC229200F9
:1089B000A0181D2102F0FAFA83230026DB00E650FE
:1089C000124B28222900E01802F0ECFF8623DB007E
:1089D000E01802F081FE13980321267010F0FEFDCE
:1089E0002300220020000A499C33A0321C60116041
:1089F0005660084A02215A618030012207F0E2F8ED
:108A0000200017B0F0BDC046D09E02001C0400003C
:108A10005F58020091580200F0B502780123170058
:108A200004008BB01F401A4200D0A9E0C530FF30CF
:108A30000DF0FDF92300D0331800039300F064FA21
:108A400000F092F9282000F095FC050010300DF0A0
:108A50005FF94C4B18202B6000F08CFC06004A4B51
:108A6000082208933900099704600C3011F0ECF8E3
:108A700008A90822301D11F0CBF8444B290073617E
:108A800012230398AE60EF60AB802F626F6202F03A
:108A900001F9002805D028000DF05FF8280000F04B
:108AA00083FC01250027237864202B43237000F0EA
:108AB00069FB059526006536FF3630000DF007FC92
:108AC00000283CD020008D30FF300DF000FC002845
:108AD00035D00A2F33D06420013700F053FB0A2F22
:108AE000E8D1F4239B00E5184833E3580493002BA6
:108AF0001ED100F059F8010007A800F03FFD08A8BA
:108B00000CF02AFF059B08AA07A928000093039BE5
:108B100003F03CFA08A80DF06CF807A80DF069F80E
:108B2000F6239B00E35804938323049ADB00E2506E
:108B3000210032002800EC3103F0BAFBBAE78325AC
:108B4000ED006659002E1BD100F02EF8010007A899
:108B500000F014FD08A80CF0FFFEF4239B00E018C1
:108B600008AA039B07A9009603F010FA08A80DF0C5
:108B700040F807A80DF03DF8F6239B00E358635139
:108B80000BB0F0BDFD030000E7580200A75802003B
:108B9000BFF34F8F024B034ADA60BFF34F8FFEE7FC
:108BA00000ED00E00400FA05F0B58BB002ABDF1D6C
:108BB00019223800144911F02BF80023134D052613
:108BC0006B7180235B055B6E2C0000930123019386
:108BD0003100009807F0D4FC0800019907F04AFC26
:108BE0000522009B56431B1A0093019B534301939C
:108BF0002B1B5343FB181B5C013C6371044B9C42D1
:108C0000E6D102480BB0F0BD3FAB0200592800206E
:108C100054280020F0B595B01822002104000EA8B9
:108C200011F012F813210EA810F0E2FD03210EA896
:108C300010F089FE464B1B68002B00D10133DBB2DC
:108C4000009300210123434A09A807F02BF9FA23D6
:108C50009B009C429B411C4072B63F4B64211E68A6
:108C60003E4B20000593052507F08EFC68435030ED
:108C700030180A210690200007F086FC0A2107F030
:108C800069FD694350317118200007910A2107F0EE
:108C900061FD4D4350357619089680260024B601B3
:108CA000009B002B52D004AD0027032C02D180265C
:108CB0000024B6016B682A4A02936300D31800228D
:108CC000019258780299095C039119788C46102119
:108CD000604601410398014204D00120904001996F
:108CE0000143019101320633092AEAD1019B2A6826
:108CF000D9431C4B09011940029B934224D1312FC7
:108D000022DC002109A810F0DEFEFA23139A0F9945
:108D1000DB001068014219D0013B002BF9D1FA2386
:108D2000013401377600E4B25B009F42BDD10435C7
:108D300008ABAB42B8D1064B1B68002BB0D0009BF0
:108D4000013BDBB20093ABE73143DBE7FFF720FFEA
:108D500010250020F0FF0000042000208EAB020050
:108D600058AB0200F01F0000F8B50023124C23603E
:108D70000CF013FE002808D0042120000CF009FE9E
:108D8000002801D00D4B2360F8BD0122A127042546
:108D90000B4B0C491A602268FF0048604E68002E99
:108DA000FCD0DE591202013D3243002DF5D1226084
:108DB00001225A60E8E7C0460C250020ED5EBC0B9E
:108DC00000D00040FCD000400B4B70B51C68002C5C
:108DD00010D0656D00F08EFBA36C002901D1834299
:108DE00006D820000CF00CFE200004490CF0F6FD23
:108DF0002C00ECE770BDC046182500203825002067
:108E0000F0B593B007932A4B04AC1E68049005910B
:108E10000692002E49D0274B258867881C680023BE
:108E20000293002C2DD0636D23480393A36C190C7F
:108E30009AB20B00854214D12048824211D10029F8
:108E400001D0B9420BD1029B002B08D120000CF0BD
:108E5000D7FD20001A490CF0C1FD01230293039CA9
:108E6000DFE7002A01D09542F9D1002901D0BB42A9
:108E7000F5D120000CF0C4FD200011490CF0AEFD2E
:108E8000EDE7104BEB18012B0FD910233A00290006
:108E9000009308A80C4B0CF04AFE336830009B6826
:108EA00008A9984708A80CF058FE13B0F0BDC046BA
:108EB0001425002044250020FE030000FF030000CD
:108EC0003825002002FCFFFF018E010010B572B6AC
:108ED0000B4B1C68002C08D020000CF091FD0023E7
:108EE000E364084B2000E36310BD62B65C2010F021
:108EF00057FE5C220021040010F0A6FEEFE7C046FA
:108F00003C25002000400020F7B51E4C01232278AC
:108F100016001E401A4233D11B4D2860FFF7D6FFC2
:108F20001A4B1B4918600CF059FDFFF7CFFF194B86
:108F30001860194B4363194B8363286800280FD0CE
:108F4000C023174F3200174900933B00FFF724F965
:108F5000C023009332003B0013492868FFF71CF937
:108F60000C2010F01DFE0023838083710F4B0360E3
:108F70000F4B836000F0D6FA01232278134323704D
:108F8000F7BDC0465F28002014250020482500209A
:108F90003825002040250020FC3F0020995A02007F
:108FA000018E0100FF030000FE030000F09E02009E
:108FB000C98D0100024B1878012318407047C04644
:108FC0005F280020F7B506000D0017000193002868
:108FD00002D100242000FEBD0029FAD0FFF776FF61
:108FE000041EF6D0074B019A43630660064B4560AA
:108FF0008760002A00D0054B20000549A3630CF0D0
:10900000EDFCE7E7FC3F0020735A0200815A0200A2
:109010003825002070B5074B0E0011001A780500A6
:109020000123100018401A4203D032002800FFF735
:10903000C9FF70BD5F280020024B186843425841A9
:109040007047C046382500200300002210B50449AF
:1090500094006058002801D00132F9E7635010BD38
:1090600020250020002310B5044A99008C58844222
:1090700001D00133F9E70020885010BD20250020E1
:1090800010B50024084BA200D058002802D0036875
:109090005B6898470134062CF4D1044B1B68002B05
:1090A00000D120BF10BDC04620250020382500205B
:1090B0000122F8B52C4B1B7813421CD02B4D2C6889
:1090C000E36C134218D002273B43E364284B1E682D
:1090D0000423F26C30001343F364636BF3630CF00E
:1090E000A6FC3000716C03F0D8FB2868C36C3B42CF
:1090F00001D003F00CFCF8BD1E4F1F4E3A683068DB
:10910000002A0AD128601B0712D52C60FFF7B8FF90
:109110003B68002BFAD02B600AE0216DB94219D1CF
:10912000616D002900D1110029602A688242EAD0CD
:1091300029688C42DFD0336899420DD10F4B4B63C5
:109140000F4B8B6320000CF072FC296820004B6CE5
:10915000626C06E02A60E8E79C42F3D1002210002E
:109160004B6C03F059FBC6E75F2800204825002020
:109170001C2500203825002040250020FC3F002031
:10918000995A020070B5114B04001A7801231A4253
:1091900002D110F0D1FB70BD0D4A1568EA6C1A427D
:1091A00006D0FFF793FE0B4B1860002800D0050097
:1091B00000F0A0F92418AC6428000CF021FC280071
:1091C00005490CF00BFCFFF773FFE4E75F28002074
:1091D000482500201C25002018250020F0B51E4B36
:1091E0001E4F1E683B6885B005000391002B31D0EF
:1091F0001B4B1A7801231A422CD0F26C1A420ED063
:10920000FFF764FE174B041E186008D00CF0F8FB43
:10921000200015490CF0E2FB2600FFF749FF039BF5
:1092200030001B042B43B3640CF0EAFB30000F4901
:109230000CF0D4FB0E4B0024EB18012B07D9C023F4
:10924000009329000B4B039A3868FEF7A5FF200016
:1092500005B0F0BD084CFAE7482500201425002091
:109260005F2800201C2500203825002044250020F0
:1092700002FCFFFF018E010016FCFFFF10B5074B3B
:109280001B78DB0709D5064C20680CF0B9FB0549B3
:1092900020680CF0A3FBFFF70BFF10BD5F28002038
:1092A000482500203C25002010B5034B1B78DB0728
:1092B00001D5FFF7E3FF10BD5F280020F7B50500DB
:1092C0000C00002833D001261B4B1B78334230D0D2
:1092D0001A4F07233868C26C1100194000911A42D6
:1092E00007D021002800164AFFF794FE0025280029
:1092F000FEBD03F0F4FA3A680221D36C180008406E
:1093000001900B4203D001318B43D364EEE733432A
:10931000D3642000A8473A68019DD36C1900B1437B
:10932000D1645B07E3D52000FFF7BEFFDFE7054D03
:10933000DDE7054DDBE7C0465F280020482500201B
:10934000A992010017FCFFFF16FCFFFF020010B5F9
:10935000014B12CB12C210BD4C250020034B1A68E2
:10936000034B1A607E225A607047C04604200020DA
:109370004C25002070B504000025094B1B78AB423A
:1093800009DD0849EB002000C9180CF08BFB002810
:1093900004D10135F1E720000BF07EFE70BDC04620
:1093A000602800205425002010B5002811D000228C
:1093B0000B4B19780B4B91420FDD1C68844209D28C
:1093C0005C68844206D98023043802681B06134374
:1093D000036010BD01320833EDE70BF067FEF8E7DC
:1093E000602800205425002070B5051E14DD0B4EAA
:1093F0000B4C3368002B02D0206810F052F9FA2190
:1094000020680024074B89008361C462694335608A
:1094100010F058F9200070BD0348FCE764250020D7
:1094200094250020D194010017FCFFFFF8B5114FDF
:1094300005003E68002E0AD1302010F0B1FB040078
:1094400006F040FA0C4BA6612360E6623C600B4ECE
:109450003368002B09D1102010F0A2FB040010F09B
:109460007DF92000346010F053F92800FFF7BCFFAD
:10947000F8BDC04694250020E8A3020090250020F6
:10948000014B18687047C0466425002070B50D4C2C
:109490002368002B03D00C4B1B68002B02D1062045
:1094A000FFF7C4FF206810F04AF902000749C3170C
:1094B0000D684E685219734120680A604B6010F0C5
:1094C00044F970BD9025002094250020A82000209C
:1094D00010B5FFF7DBFF0024054BA200D058002891
:1094E00002D003681B68984701340A2CF4D110BDE0
:1094F0006825002010B5FFF7C9FFFA22034B920040
:1095000018685968002307F065F910BDA8200020ED
:1095100010B5FFF7BBFF024B1868596810BDC04675
:10952000A82000200B4B10B51B680400002B03D0B3
:10953000094B1B68002B02D10620FFF777FF0023A1
:10954000064A99008858002801D00133F9E78C5069
:1095500010BDC046902500209425002068250020DD
:10956000002310B5044A99008C58844201D001337D
:10957000F9E70020885010BD6825002010B50400D0
:10958000002902D00B78002B03D1034B236020006D
:1095900010BD0CF035FBFAE7009F0200F8B504009F
:1095A0000E00150000290AD00B78002B07D0002AE6
:1095B00005D0080097B210F087FB874203D90B4B08
:1095C00023602000F8BD681D0BF066FD20600CF0E4
:1095D000F6FB20682A0047803100043010F018FBA9
:1095E00023685D1900232B71EBE7C046009F020042
:1095F000014B03607047C046009F020010B505484C
:10960000054C20600CF0DEFB2000044A044910F0F9
:10961000BCFA10BD009F0200982500200020002009
:10962000F35B0200084B73B51D680400002D0AD0DF
:1096300001002E6808220831684610F0E9FA0CCCC7
:1096400028003168884773BD9C25002010B5054C63
:10965000012120000CF0AAFB2000034A034910F06E
:1096600094FA10BDA0250020002000206B5D0200B0
:10967000074A030010B50120934208D0834202D06C
:109680000020DB0703D41E20FFF7C4FA002010BD22
:10969000FFFF000010B50400034B08330360FFF721
:1096A000E1FC200010BDC046089F0200F7B507008E
:1096B0000025040001931A4B143708330E008580EF
:1096C000290085710360C581056100923800182268
:1096D00010F0BAFA3800152110F08AF8019B220028
:1096E000A380009B0E21238114236381123BA5716B
:1096F000A563A58723733E32137826638B431370CB
:10970000084B0122E364084B2000236523005433F7
:109710001D70064B6364230048339D701A80FEBDA4
:10972000089F020000000A0300030301010001007A
:10973000F7B504000CF0DEFC0E22A35E7A4F5B420C
:10974000BB4251DA23003E331B789B074CD50125E1
:10975000210028003E310B785A0890430200022075
:10976000AA40834313430B7020000CF0C3FC10226B
:10977000A35E5B42BB4248DA23003E331B785B07A3
:1097800043D50125210028003E310B789A089043EB
:1097900082000420834313430B70260020000CF04A
:1097A000A9FC1222A35E4A36BB423EDA23003E33B6
:1097B0001B781B0739D5210001223E310B78D808D0
:1097C00082430820D200834313430B703378032B6A
:1097D0003BD80133DBB23370012B00D08EE0230085
:1097E00000224C331A8030E020000CF083FC0E2263
:1097F000A35EC8225B42002552009342B4DD2300E1
:109800003E331B789B07A2D5AEE720000CF072FC1C
:109810001022A35EC8225B4252009342BDDD2300AA
:109820003E331B785B07ACD5B7E720000CF062FC39
:10983000C8231221625E5B009A4204DD23003E339E
:109840001B781B07B7D5002DC0D133780193002BAF
:1098500014D0200027004C3003883E3701339BB2E0
:1098600003803A780125110029402A4254D01D2B4B
:1098700004D90023AA433A700380337020000CF00F
:1098800066FC2A4A0723904244DD20000CF032FC9B
:109890000E23E25E264E52420323B2423ADBC82533
:1098A00020000CF027FC0E23E25EAD0052420423A0
:1098B000AA422FDC20000CF01DFC1023E25E0223E4
:1098C0005242B24226DB20000CF014FC1023E25E70
:1098D00001235242AA421DDC20000CF00BFC122393
:1098E000E25E0623B24215DB20000CF003FC1223DB
:1098F000E25E0023AA420DDD05330BE0042BA4D168
:1099000022003E321178033B0B43137000234C348A
:1099100023800C331800FEBD092BAFD901800199BB
:1099200001393170AAE7C04670FEFFFFFF700200E8
:10993000E0FCFFFFF0B5C369C1681A68451D04006B
:10994000EB7F89B0114225D0002B57D10123A2799A
:109950001A4237D0002602226846A188A6710CF070
:10996000E1F9A31DDD7F012D2CD1FFF7C3FD3300ED
:10997000226A801A99410F000600A1889F4203D1F4
:10998000FA239B009E423BD30123042204A80CF03F
:10999000C9F917E00B2B01D80133EB77EB7F082BCC
:1099A0000DD90122A37913420CD11343A188A371CD
:1099B00004A813000CF0B6F9FFF79CFD2062EB7FC2
:1099C000012BC3D90322A3791340012B14D1FFF734
:1099D00091FD0023226A801A9941994202D10A4BD3
:1099E000984209D90223A279A1881343A3710522C1
:1099F000012304A80CF096F909B0F0BD013BCCE7B7
:109A00002B000322C2E7C046DB05000010B50400AE
:109A1000034B08330360FFF7A3FD200010BDC046D1
:109A2000209F0200F0B5060000250F00040085B05D
:109A300002930AAB1B78083603930F4B29000833B7
:109A400003600192858085711822300010F0FCF8C7
:109A500039003000039A0FF0D0FE019B029AA380D8
:109A6000A31DE771DA77631D25622000DD77FFF71C
:109A700059FD200005B0F0BD209F020010B5040084
:109A8000034B08330360FFF7EDFA200010BDC0461A
:109A9000389F0200F0B587B004AC08230F004222C3
:109AA0001021009405000CF048FCA3790020DA078F
:109AB00000D48BE062782678E17812021643A2780F
:109AC00009020A4312B2D21002926279207912027C
:109AD000104300B242100392E47936B224021C43D0
:109AE000AB1CD98FF610A4108803002C00D02100E5
:109AF00006F04AFD364B2A00C01800B203000021D0
:109B000043433F325156DB11013A4B4311788022D7
:109B1000C90148431B185B12520399182B003433B8
:109B20001B785BB2A0334B431B135E432B003233D5
:109B30001B7876135BB2DB00F6183E80AE1CF18F0B
:109B40008803002C00D0210006F01EFD204B2A00C7
:109B5000C01800B20300002143433F325156DB11CD
:109B6000013A4B4311788022C90148431B185B120C
:109B7000520399182B0035331B78029A5BB2A0333D
:109B80004B431B135A4353132A003332127852B2F9
:109B9000D2009B187B803C22AB5E039A3A21685E20
:109BA000D31A3E21725EDB03A21A50438010181AAA
:109BB000EB8E6100594380231B02C9183823EC5EE9
:109BC0000914091906F0E0FCB880012007B0F0BDC7
:109BD00000C0FFFFD0B504000CF0C8FBE268A36929
:109BE000981A09F071FA06000F002369E069C01A9B
:109BF00009F06AFA32003B0009F05CFF0022104BCA
:109C000008F02EFC0F4A104B08F042F909F0D4FA84
:109C10000021041C06F0B6FD002804D0201C0B49CE
:109C200006F0E2FE041C201C09F07EFA02000B0084
:109C30000020074908F080FE09F010FAD0BDC046A8
:109C400000806640EA2E4454FB2109400000B443E2
:109C500000807640F0B5040085B0806A0CF022FBED
:109C6000061CA06A0CF015FB0221071C20000CF05A
:109C70001AFC0221039020000CF027FC07F01CFDC9
:109C800080231B06C2180221200001920CF02FFC39
:109C900007F012FD041C301C09F0CEFE051C301C20
:109CA00009F08EFE0290381C09F0C6FE061C381C16
:109CB00009F086FE071C039807F0FEFC80231B06B4
:109CC000C018391C07F0F6F9311C071C019807F081
:109CD000F1F9291C07F0EEF9011C381C06F084FE8E
:109CE000311C071C201C07F0E5F9029907F0E2F986
:109CF000011C381C06F078FE291C061C201C07F0ED
:109D0000D9F90299041C019807F0D4F9011C201C10
:109D100007F0EAFA311C09F035FF0D4907F0CAF9DE
:109D200009F002FA0B4A0C4B08F0B2F809F044FAB9
:109D30000021041C06F026FD002804D0201C044944
:109D400006F052FE041C201C07F096FC05B0F0BD86
:109D50000000B443EA2E4454FB2119407FB504258A
:109D6000837904002B421BD102260CF0FFFAA37961
:109D70000622B3432B43A37168460123A1880BF04D
:109D8000D1FFA3791A003340581E83415842FB2368
:109D90009B001840034BAA43A271C01804B070BDC9
:109DA0000148FBE714FCFFFF15FCFFFF10B58379AA
:109DB00004005A070DD49B0701D4FFF7CFFFA36A15
:109DC0002000002B02D0FFF745FF10BDFFF702FF78
:109DD000FBE70148F9E7C04615FCFFFF70B5C66A0E
:109DE00086B001AC050001916260A360002E0CD02A
:109DF0000B4905A8FFF7C2FB0C232200300005A980
:109E00000DF07BF905A80BF0F4FE2B000C3307CC0A
:109E100007C30223AA791343AB7106B070BDC046D5
:109E20006EAD0200642330B5040085B081800281EC
:109E300043810CF068FB0222A37920009343A371B5
:109E40000CF0BEFAE06A002813D00D490DF020F99D
:109E5000051E0ED001000C22103101A80FF0D8FE13
:109E600020000199029A039BFFF7B8FF28000FF02A
:109E700093FE0123A2791343A37105B030BDC04600
:109E80006EAD0200F8B504000E0000201700E3627A
:109E900001230B4D06AA083507A9A080A0712560F3
:109EA000E06020616061A061E06120626662200084
:109EB000A762128809882386FFF7B4FF2000F8BD47
:109EC000389F020082B0F0B50400A5B064202B9347
:109ED0002A920FF031FD04220C2109A802F078FD2E
:109EE0002422CD491BA80FF093FE052206A81100DD
:109EF0000EF011FAC94907A802F018FEA06800F098
:109F000079FBA568C64918A8FFF738FB7822280016
:109F100018A900F09FFC18A80BF06BFE6E256420BA
:109F2000013D0FF009FD002DF9D1A06800F062FBA2
:109F3000A0680CF0E3FC012160680CF01CF9012121
:109F4000070060680CF02AF906000A20FFF71AF9EA
:109F50000022B44B04929F4210DB013204923A007B
:109F6000C8320BDBC822042192000491974205DC21
:109F700003220492C82F01DC013A049200220392CA
:109F80009E4210DB012303933300C8330BDBC8234D
:109F900004329B0003929E4205DC03230393C82EE8
:109FA00001DC013B039306A80EF0ACF91BAF0023C4
:109FB0003E000593B378002B05D0FF2372783178EB
:109FC00006A802F047FD059B0336013305930C2BD1
:109FD000F0D16B460C229A5E6B4606A81021595EA2
:109FE000FF2302F037FD0023A0681A0000937430AD
:109FF00006A90EF097F93B00243305933B78049AA9
:10A00000934234D17B78039A934230D1BE78002EAC
:10A010002DD1310020680CF046FA07F04DFB3200DC
:10A02000031C290009A80DF027FB310020680CF063
:10A030004CFA07F041FB0122031C290009A80DF08E
:10A040001BFB310020680CF052FA07F035FB2900A9
:10A05000031C022209A80DF00FFBFE2329009B051B
:10A06000032209A80DF008FB0123BB70ED18059B26
:10A0700003379F42C2D16420FFF784F80B2D00DC28
:10A0800059E709A80DF0E4FA012201000CA802F03A
:10A090009FFC002509A80DF0DBFAA8423CDD290051
:10A0A000002209A80DF0D6FA00222900061C09A8F2
:10A0B0000DF0D0FA011C301C06F0FCFF2900061C34
:10A0C000012209A80DF0C6FA01222900071C09A8DF
:10A0D0000DF0C0FA011C381C06F0ECFF311C06F034
:10A0E00083FC29000222061C09A80DF0B3FA022203
:10A0F0002900071C09A80DF0ADFA011C381C06F058
:10A10000D9FF311C06F070FC2900031C00220CA8AA
:10A110000DF0B2FA0135BDE709AA1100012318A814
:10A120000DF0C4FA18A90FA80DF01EFB18A80DF029
:10A13000B4FA0CAA09A912A801230DF0B7FA00235A
:10A1400012AA0FA915A80DF0B1FA002215A8110046
:10A150000DF080FA0022061C012115A80DF07AFAF4
:10A160000022051C022115A80DF074FAFC21071C21
:10A170008905301C06F09EFF07F07EFAFC210600E0
:10A1800018908905281C06F095FF07F075FAFC2148
:10A19000050019908905381C06F08CFF07F06CFA51
:10A1A0002A00030031001A902068FFF717FEA0680C
:10A1B0000CF0A4FB07A908A8A5680EF09BF80022E4
:10A1C000194B009208A901932800130000F0B0FA7F
:10A1D00008A80EF082F8FA2080000FF0ADFBA0680E
:10A1E0000CF08CFB15A80DF058FA12A80DF055FADA
:10A1F0000FA80DF052FA0CA80DF04FFA07A80EF0B8
:10A200006CF806A80EF069F809A80DF046FA25B01A
:10A21000F0BC08BC02B01847CCAD020079AD02001A
:10A22000BEAD0200E0FCFFFFDC050000F7B5836077
:10A230001D4B05001F6801604260002F31D02820AF
:10A240000FF0AEFC040010300BF062FD174B18202D
:10A2500023600FF0A5FC00220600154B002101929F
:10A26000056008320C3000930FF0EEFC08226946BE
:10A27000301D0FF0CDFC0F4B00227361C223A38071
:10A280003B68E260210038005B68A660226262627F
:10A290009847002805D020000BF05FFC20000FF04D
:10A2A0007BFC2800FEBDC0469C2500200500060062
:10A2B000C59E0100AB650200F0B5040085B0637A6D
:10A2C0009C46002B04D120000CF09AF905B0F0BD9B
:10A2D000A37A266F01931023019AF35600259B1849
:10A2E00001229A402900F36803920293029BAB4239
:10A2F00031DDB068019B6843C01873694000E77A9C
:10A300001A181B5C5078E279012F14D1571E3F1A9E
:10A3100018003B004243606F52008218D2189379B4
:10A32000634500DD6346627B1A4202D00123AB40E5
:10A3300019430135DAE7022F07D0032FEAD1277A34
:10A34000013FFF1A03003800E4E7571EFB1A277A83
:10A35000013F381ADEE71123C943F356606C994078
:10A3600023691940039B19430FF0ADFBA27B072A19
:10A37000ACD8637B0C495B006373531CDBB2900069
:10A380004158A373022A03D808000FF0CAFA96E7CF
:10A39000064B2000236300236363054BE4622364C0
:10A3A00014300FF08FF991E7509F0200B9A201001D
:10A3B000EB65020070B50400104B25000833036004
:10A3C000FFF7CEF8200074300DF087FF20006030DA
:10A3D0000DF083FF200058300BF00BFC20005030B4
:10A3E0000BF007FC064B1435280063610FF059F998
:10A3F000280005F07DFA200070BDC046709F020065
:10A40000E8A30200F8B500250400324B858008332C
:10A4100003608571143016000F0005F053FA200018
:10A420002D4BE562636125645030FFF7E1F82000B1
:10A430005830FFF7DDF82000603002F005FB200007
:10A440000423F25E33682667590009B274300DF0B8
:10A4500062FF3368226FE371736801262372102351
:10A460006581A7802561D35691685918994204DD0A
:10A470003000984001330543F8E711230120D356FB
:10A48000D1685918994206DD02009A4026690133C5
:10A4900032432261F6E714200FF082FB226900218B
:10A4A0002A430123060005F0FDFCFF23220063720E
:10A4B0000133A381002348326664A3732000137024
:10A4C000A366FFF72FF80123A27920001343A3719D
:10A4D000F8BDC046709F0200FCA30200F0B5437AAD
:10A4E000040085B0002B04D120000CF089F805B0E1
:10A4F000F0BD0122837A11009C461023066F0025CF
:10A50000F35603926344994002912900F368019342
:10A51000019BAB422CDDB068736968436044400026
:10A52000E77A1A181B5C5078E279012F10D1571E78
:10A530003F1A18003B004243606F52008218D21845
:10A540009379002B02D0039BAB4019430135DFE721
:10A55000022F07D0032FEED1277A013FFF1A030005
:10A560003800E8E7571EFB1A277A013F381AE2E75E
:10A570001123C943F356606C994023691940029B2B
:10A5800019430FF0A0FA667AB31EDBB2FC2B14D885
:10A59000FEF776FF0B4B0500236300230A48636335
:10A5A0000A4BFF217043E462236405F0EDFF2900AC
:10A5B0004143200014300FF085F8637A012B00D955
:10A5C00095E791E701660200B6030000EB65020023
:10A5D0001FB5012381881A0068460BF0A3FB0123F5
:10A5E00068461A0002490BF09DFB05B000BDC0464D
:10A5F000FE0300001FB5030048331A780400002A48
:10A600000DD000221A70012381881A0068460BF0D1
:10A6100089FB012368461A0003490BF083FB2000E5
:10A6200074300DF06FFE1FBDFF03000010B5483001
:10A630000378002B06D00378012B03D001210248B8
:10A640000BF00EFA10BDC046FF03000010B501214B
:10A65000040006200BF004FA064B984208D1483457
:10A660002378002B04D02378012B01D020BFF7E7FB
:10A6700010BDC04616FCFFFF70B50500141E19DBA7
:10A68000060048363378002B02D03378012B13D1E3
:10A69000002328001A00743002F098FA002C07D02A
:10A6A0002B004A331C80002407234C352C80337048
:10A6B000200070BD014CFBE7014CF9E717FCFFFFE0
:10A6C00012FCFFFFF8B50B6805005B880800170057
:10A6D000012B08D100210BF00EFB00220100280005
:10A6E000FFF7CAFFF8BD002A19DD2E00483633787F
:10A6F000002B02D03378012B13D12B0000245C33C4
:10A700001C80043B010018000BF0D0FA2B004A33E8
:10A710001F8003234C352C8020003370E2E7024871
:10A72000E0E70248DEE7C04617FCFFFF12FCFFFF30
:10A7300073B5079C0500002C1CDB060048363078FA
:10A74000002802D03078012816D106981BB2C0B27A
:10A750000090280012B274300DF0E4FD002C07D0F8
:10A760002B004A331C80002407234C352C80337087
:10A77000200076BD014CFBE7014CF9E717FCFFFF19
:10A7800012FCFFFFF7B505000E00171E26DDFFF7D0
:10A790004DFF2B0048331B78DCB2002B20D13368EF
:10A7A0005B88012B09D1210030000BF0A4FA2200B4
:10A7B00001002800FFF760FFFEBD310001A80BF08B
:10A7C0006DFA3A0001A92800FFF77CFF01A80BF001
:10A7D00010FA2800FFF73AFF2000EDE70148EBE709
:10A7E0000148E9E717FCFFFF11FCFFFFF0B587B058
:10A7F0000D9C05000E0017000393002C21DBFFF7D2
:10A8000015FF2B0048331B78DAB20292002B1AD1C5
:10A81000310005A80DF06EFD0C9B3A000093280056
:10A82000039B019405A9FFF783FF05A80DF055FDD3
:10A83000002C03D02800FFF709FF029C200007B07E
:10A84000F0BD024CFAE7024CF8E7C04617FCFFFFE8
:10A8500011FCFFFFF8B50400171E1DDD0600483689
:10A860003378002B02D03378012B17D12200E37903
:10A870005632013B137023000025200054331D8005
:10A8800050300BF013FA23004A331F8002232800B4
:10A890004C3425803370F8BD0148FCE70148FAE7E5
:10A8A00017FCFFFF12FCFFFFFF2902D841720020B6
:10A8B00070470148FCE7C04617FCFFFFF0B51F00DA
:10A8C00085B00AAB1B780400039300933B000D0096
:10A8D00016000EF05AFE002833D0237D082B2DD809
:10A8E000236800221900FC318A62A021C9005A5055
:10A8F000154905205A500138C046C046C046C046DA
:10A90000C046C046C046C046C046C046C046C04617
:10A91000F1D1236801325A50A0210432C9005A50A3
:10A9200005F020FC039B3200009329003B0020002F
:10A930000EF02BFE237D01332375CCE7034805B0D1
:10A94000F0BD2075FBE7C046FC0F00000EFCFFFFCA
:10A95000F0B51F0085B00AAB1B7804000393009389
:10A960003B000D0016000EF0F8FD002833D0237DCB
:10A97000082B2DD8236800221900FC318A62A021FF
:10A98000C9005A50154905205A500138C046C046E2
:10A99000C046C046C046C046C046C046C046C04687
:10A9A000C046C046F1D1236801325A50A02104327A
:10A9B000C9005A5005F0D6FB039B320000932900D2
:10A9C0003B0020000EF0C9FD237D01332375CCE749
:10A9D000034805B0F0BD2075FBE7C046FC0F000042
:10A9E0000EFCFFFF10B5040086B0006C04F0F6FF0B
:10A9F000237BA0219A00A05000200C4AC90050508F
:10AA00000B4914305050626C6846517CC91849B2E9
:10AA10000CF052F8039B019A03211A60207B01304D
:10AA2000C0B205F0ADFD217306B010BD007000404E
:10AA30000405000082B070B50400002588B00C92B7
:10AA40000D93636C9A68AA420ADD197C02A8491921
:10AA500049B20CF031F8069B039A01351A60F0E711
:10AA60005D7C237B02A8ED186DB229000CF024F860
:10AA7000039A059B00211A60019202A818220FF088
:10AA8000E3F802A8002229000EF0B7FE206C00288F
:10AA900001D00FF081F808200FF082F8290006009D
:10AAA00004F076FF094B2000E3620023FA212363C0
:10AAB000074B2664A462E363103009010EF002FE26
:10AAC00008B070BC08BC02B01847C046E5A9010038
:10AAD000636A0200F0B504000E00150085B01F0087
:10AAE0000CAB1B88103001930BF012F926806580A7
:10AAF00018200FF055F802AE050033000AAA03CA69
:10AB000003C32F602800082700213A000C300FF003
:10AB10009BF83A003100281D0FF07AF8064B02220C
:10AB200020006B6100230199A5600A43E360A280C5
:10AB30002362636205B0F0BD796A020070B504005B
:10AB400086B010300D0004F0BDFE0023184AA36249
:10AB50002261184AE36316686564237323606360A7
:10AB6000A3609E421FD0144A2820049205930FF040
:10AB700017F8C02305006A46029304AB03CB03C257
:10AB80002300062102222800FFF7A4FF33682900D2
:10AB900030005B689847002805D028000AF0DDFFE8
:10ABA00028000EF0F9FF00232000236406B070BDDA
:10ABB000FCA302009C25002035AA010030B5154BEE
:10ABC00004001D6891B0002D17D0134B6A46049302
:10ABD000002305931033029304AB03CB03C223007D
:10ABE0000222062106A8FFF775FF2B6828009B6844
:10ABF00006A9984706A80AF0B0FF2500074B1035B4
:10AC0000280023610EF04DFD280004F071FE2000A5
:10AC100011B030BD9C25002035AA0100E8A3020038
:10AC2000F8B50D1E2FD000260227C468002C27D0AF
:10AC3000AA88A38853403B4220D13A4215D1A36849
:10AC4000AA6893421AD12B88002B02D022889A42FC
:10AC500014D16B88002B02D062889A420ED1A28850
:10AC60000A4B01361343A38008E0A968A0680CF0E2
:10AC7000DEFC0028E7D1AB883B42E0D0646AD5E730
:10AC80002000002E00DC0248F8BDC0460080FFFF17
:10AC900017FCFFFFF0B506000D0085B0002959D064
:10ACA0000127C468002C23D00221AA8800230A426D
:10ACB00002D0A3885B083B40226829688A4211D1F0
:10ACC000A068A968002B0BD00CF0B1FC002809D0BB
:10ACD0000421625EA388002A06DB1F4805B0F0BD90
:10ACE0008842F5D0646ADDE75B045B0CA380F4E77F
:10ACF000F0682A880100031E07D1F5600123684629
:10AD000016490BF00FF80020E8E71C88944206D2A1
:10AD10005C6A1900002C0DD02300F6E723001C8884
:10AD2000944207D15F886C88A74203D25C6A1900FD
:10AD3000002CF3D1814209D10B889A4204D305D16A
:10AD40004C886B889C4201D96862D6E74B6A6B627B
:10AD50004D62D3E70248C1E716FCFFFFFD03000088
:10AD600017FCFFFF064B10B51A00040008322C3305
:10AD7000026043600430FEF775F9200010BDC04644
:10AD8000889F020008B4024B9C46043808BC604708
:10AD900065AD010008B4024B9C46043808BC60470E
:10ADA0001B6B02000C4A002311002C32083110B535
:10ADB000038183724260C360036143614383016026
:10ADC00004000430FEF740F9044B1A68002A00D151
:10ADD0001C60200010BDC046889F02009C250020FA
:10ADE000F7B50D000126C4680192002C37D02388E6
:10ADF0002A889A4201D0002B24D163886A889A421B
:10AE000001D0002B1ED1FEF7D5F80123002806D073
:10AE1000C022A3881340C03B5A425341DBB2019A7F
:10AE200093421AD10422A35EA788002B15DB1022BF
:10AE30002900A0180EF0ECFE40231F4204D0200091
:10AE40000BF074FE646AD0E7FEF7B4F80028F6D081
:10AE500021000448FEF732FAF4E70026F2E730005A
:10AE6000FEBDC0462D6B020008B4024B9C46043860
:10AE700008BC6047B76C0200F0B587B001930EAB19
:10AE80001B88060003930D9B0D000093019B0C9FF4
:10AE90000292002B3CD0002F02D1009BDB0737D55C
:10AEA00028200EF07DFE040010300AF031FF029BD6
:10AEB0001820258063800EF073FE0500009B082299
:10AEC0000593019B002103600C3004970EF0BCFE3B
:10AED000082204A9281D0EF09BFE0E4B02226B6176
:10AEE00000230399E3602362636233680A433000FE
:10AEF00021005B68A560A2809847002806D020004A
:10AF00000AF02BFE20000EF047FE034807B0F0BD0C
:10AF10000248FBE7F16C020016FCFFFF17FCFFFF85
:10AF2000F0B5160000258380164A174B0400857182
:10AF3000026001814681057318688C4689B0A84279
:10AF40001DD0124A05950492C02202926A4604ABB3
:10AF500082CB82C223002A006146FFF78DFFC02208
:10AF6000094B0A49186802926A46069106AB079592
:10AF700082CB82C223002A003100FFF77DFF200030
:10AF800009B0F0BDCC9F02009C2500201B6E020082
:10AF900030B5002403730123034D05608471818063
:10AFA00082734373846030BDE49F020070B5040077
:10AFB00000250C4B0E00083385808571036021004D
:10AFC00018300BF0E2FF2000210020300CF000F8D8
:10AFD000054B2000A680E5802572E560256165614E
:10AFE0001C6070BDF49F0200A42500208379DB075C
:10AFF00002D5C160002070470048FCE716FCFFFF47
:10B000008379DB0701D5C06870470148FCE7C0467B
:10B0100016FCFFFF70B545690400002D22D0037AAD
:10B02000032B21D8FFF7ECFFA8622C200EF0B8FD0F
:10B030002C22002105000EF007FE002263695A62EF
:10B040002369934207D1636923610020237A6561F4
:10B050000133237270BD1A005B6A002BFBD1636958
:10B060005362F2E70148F5E70148F3E717FCFFFFF9
:10B0700013FCFFFF144B70B55A68144C002A03D020
:10B0800000225A600132A2601A69002A17D00021FA
:10B0900019618023DB000E4DE3582868012B0FD186
:10B0A000A923DB00E1584942FFF7A0FF2868FFF71A
:10B0B000B1FF2B685A69074BE2500123A36070BDB2
:10B0C000FFF794FFF9E7C046FC1000400010004075
:10B0D000A42500200405000003000069002809D011
:10B0E0000221054AD167426A1A611A7A013A1A7234
:10B0F000024B19607047C04604E100E000E100E047
:10B1000010B5002903DB024B19600EF0ACFA10BD3C
:10B11000A825002070B504001D0004AB1E7804F0C3
:10B120008DFB20000E4B40302360FEF761FA2300B8
:10B13000220001354C331D700023E12158320136C5
:10B1400016700A3AA3646365138053809381D38198
:10B15000013B200063644902FFF7D2FF200070BD6D
:10B16000C89E0200F7B580277F053E697C690822EA
:10B17000113C74430500210068460EF049FD104B58
:10B18000009A9A4219D0009300230193796928000C
:10B19000133971430BF033FF019A280000990BF02B
:10B1A0004AFF210028000BF02AFF79692200133999
:10B1B00028007143B3080BF02EFF0198FEBDC04676
:10B1C000FECA0000F0B50D00ABB000210D920700E3
:10B1D000302212A81E000EF037FD28000EF074FD7C
:10B1E000431C0C93102B00D9B8E0202E00D9B5E0F9
:10B1F000290038000BF04CFF0B90002854D1290097
:10B200000C9A12A80EF004FD32000D9916A80EF04B
:10B21000FFFC80235B051A695D690B92113D6A434F
:10B2200038005E690D92FFF79DFF0D9B30220833B9
:10B23000002104001EA80F930EF006FD31000B9BA9
:10B240001339594338000BF0DAFE00230F9E0C939C
:10B250000E930C9BA34246DA310030221EA80EF05A
:10B26000D7FC12A91EA80EF025FD00282BD13D49C0
:10B2700038002200109111940BF0DDFE6A46099609
:10B2800015AB23CB23C223CB23C223CB23C238004D
:10B29000149B1299139A0BF0DCFE01230E930C9B66
:10B2A000303601330C93D4E70B9832000D991030EF
:10B2B0000EF0A0FC04000B980EF06EFC002C9ED14A
:10B2C00020002BB0F0BD6A46099621AB23CB23C2E8
:10B2D00023CB23C223CB23C238001E991F9A209B65
:10B2E0000BF0B7FEDBE7E6433021F61726404E436E
:10B2F0000F9B9E190E9B002B1CD10B9B981E05F0DB
:10B30000B9F8A0422CD0174901343800220010911E
:10B3100011940BF090FE6A46099615AB23CB23C21D
:10B3200023CB23C223CB23C238001299139A149B38
:10B330000BF08FFE38000D990BF061FE80235B054A
:10B3400059690C230B9A133963434A43380011009F
:10B3500002330D9A0BF05FFE0024B1E7024CAFE719
:10B36000024CADE7FECA000017FCFFFF13FCFFFF15
:10B3700070B50400A280FA22002308000C49920054
:10B3800008312160A3710B496061E260A3606382B0
:10B390000BF07EFE051E09D00100200002221031B4
:10B3A00012300EF035FC28000EF0F6FB200070BDC8
:10B3B0000CA00200F0AD020030B502258379040034
:10B3C00087B02B4204D1FDF73FFEA3791D43A57141
:10B3D00020000BF0A3FE00281CD06B46DD1C2800CB
:10B3E0000BF093FE2B78002B17D001A80BF08BFEEF
:10B3F0000321019AD3170B409B189B102382FEF761
:10B4000079F8E368A18818180123A0601A0002A83F
:10B410000AF088FC002007B030BD0122064B1A60FC
:10B42000064A51680029FCD000215160044A126884
:10B43000019201225A60DBE700C00040FCC00040DE
:10B4400008C50040022802D10122014B1A70704742
:10B450006128002070B5064D04002B78002B04D124
:10B46000044801F081FD01232B70200070BDC0460F
:10B470006228002045B4010070B50C000AF08DFA76
:10B48000002810D00023144DA40A2B7020000BF0CC
:10B4900063FE002803D00A200EF04EFAF6E72B7860
:10B4A000002BFCD070BD02210C4B0D4A995080211D
:10B4B000C90008005D58002DFCD0A121C9005C50D6
:10B4C00019580029FCD0002199508021C9005A58F0
:10B4D000002AFCD0E6E7C0466128002000E00140D9
:10B4E00004050000F8B50C0015001E000AF055FA1E
:10B4F000002811D00023174F3B7032002900200094
:10B500000BF028FE002803D00A200EF015FAF4E70D
:10B510003B78002BFCD0F8BD01220F490F488C4628
:10B5200042508022D2008358002BFCD08027002379
:10B53000FF009E4207DD9A00A958A150C259002A77
:10B54000FCD00133F5E7002362468350C359002B3A
:10B55000FCD0E0E7612800200405000000E0014085
:10B56000084B8000C018A2230322DB0010B5064957
:10B57000C45821432243C150C046C046C046C250B1
:10B5800010BDC04600600040031F0000A22203213E
:10B59000034B8000C018D20083588B438350704700
:10B5A0000060004010B50400034B08330360FDF752
:10B5B000D7FF200010BDC04624A00200F8B5A0238C
:10B5C00003223049DB055A5004315A5080212E4A5B
:10B5D0008905995080210127A225C9052B4C995036
:10B5E0002B4BED00E75063592A492B4E0B4063511A
:10B5F00062592A4B002013436351FFF7B1FFA3594F
:10B60000244938000B40A351A259254B1343A351A1
:10B61000FFF7A6FFC046C046C046224B224A234938
:10B620005A51A322D2009C519950214A21492248C3
:10B630005A5004315850214921485C500431585027
:10B6400020495A500F2220495A50204B104A9F50EF
:10B6500000225A5004315A5002325A51A822322143
:10B66000D200DF6099501A4A0139995004323231C0
:10B670009950184AC919995080225C399200995002
:10B68000F8BDC046740700000C05000000600040D3
:10B69000FC0F0000FFE0ECFF14050000001D03009C
:10B6A000001E130000F0014040A1004044A10040F2
:10B6B000046000401C05000048A100402405000073
:10B6C0004CA100402C0500000405000000A0004033
:10B6D000440500004C0500000023154A10B508324F
:10B6E0000260EE21A0228380837104000320D20532
:10B6F000C900505080200F494005505032220E4959
:10B7000020000A700D490A700D490A70FA210D4A8D
:10B71000090113700C4A118001210C4A11700C4A66
:10B720001370FFF74BFF2000FDF7FCFE200010BD5B
:10B7300024A002000C0500006428002065280020D9
:10B740006628002067280020442800206328002065
:10B75000682800200B002B4A143B9BB270B50D00EB
:10B7600093424ED80322284B284C1980284B1A703C
:10B770000022284B1A7001236360E360A223DB00E0
:10B78000F42900D80432E2500020FFF7FFFE012028
:10B79000FFF7FCFEA02380211F4ADB058905995095
:10B7A0008021043AC90599502901F42D00D92900B6
:10B7B0001A4804F05FFEA92385B232206A1EDB001E
:10B7C000E250174B6421E550684304F0DDFEA823E6
:10B7D0002D1ADB00E550134B0138E0500020FFF735
:10B7E000BFFE114B1B78002B02D10120FFF7B8FEE2
:10B7F0000123A02223608021A123D205DB0049057B
:10B80000D15070BD0C4E00004428002000A0004024
:10B8100068280020672800200C0500000024F400A0
:10B820004C050000440500006328002070B50E4D53
:10B830002B78032B17D101240C4B00205C60DC60BB
:10B84000FFF7A4FE2000FFF7A1FEA0228021084BF5
:10B85000D2058905D1508021C905D15080214905E3
:10B86000D15000232B7070BD6828002000A000403C
:10B870000C05000010B50400034B08330360FDF70E
:10B880006FFE200010BDC0463CA00200F7B50121AC
:10B890000C008368314A9C40A023DB059C50322475
:10B8A000013CC046C046C046C046C046C046C04631
:10B8B000C046C046C046C046C046F1D1050011355D
:10B8C0000195A1250400ED00AC460D3407250E00BE
:10B8D0008768BE4027782F410F4231D06746DE513E
:10B8E000C046C046C046C046C046C046C046C04628
:10B8F000C0469E50013DEAD2019D0134A542E5D1EA
:10B90000012381688B40A021C9058B503223013B64
:10B91000C046C046C046C046C046C046C046C046F7
:10B92000C046C046C046C046F1D1827B437B017C05
:10B930009B18C27B52189B185A1E93414374F7BD43
:10B940006746DE51C0469E50C046C046C046C0460F
:10B95000C046C046C046C046CCE7C0460C05000005
:10B96000F8B504002500260006A80078277B62733E
:10B97000A173E37320740D3511362878784307F0EE
:10B98000A3FB0022064B06F083FA04F043FF287065
:10B990000135AE42F1D12000FFF778FFF8BDC04677
:10B9A00000E06F40F7B5002317000126224A83808C
:10B9B000083202600A008371040081600773A020CE
:10B9C00003258E40C132FF32C005920015501B4A3C
:10B9D000250086506373E3812382230011330D35E4
:10B9E000009301922878784307F06EFB144B0022F5
:10B9F00006F04EFA04F00EFF009B287001359D42C0
:10BA0000F0D1A023019ADB059E503223013BC046B2
:10BA1000C046C046C046C046C046C046C046C046F6
:10BA2000C046C046C046F1D120000BF0ABFB200061
:10BA3000FDF778FD2000FEBD3CA002000C050000D3
:10BA400000E06F4010B50400054B083303601C3064
:10BA50000AF0CFF8200018300AF0CBF8200010BD13
:10BA600054A00200FF23F0B52C4E8DB0337000239C
:10BA700001AD040029000088019303F0D9F80028E3
:10BA800001D1AB783370264D2B68DB68002B07D1D2
:10BA9000002320881A0019000BF085FB0DB0F0BDC3
:10BAA0003378032BF4D81F496846FDF767FD2B68F0
:10BAB0006946DD6804A80AF0F1F8280004A90BF033
:10BAC00016FB0027050004A80AF093F8BD421ED01B
:10BAD00029002022103104A80EF09AF828000EF058
:10BAE0005BF8317804ABC9005918082202A80EF09F
:10BAF0008FF801230822208802A90BF054FB01379C
:10BB0000002804D10C212088074A0BF04AFB684624
:10BB10000AF06FF8002FBBD0C0E7C046802000209D
:10BB2000B8250020F8AD0200FFFF0000F0B58379D2
:10BB3000040091B05B071BD5FDF7DCFC00232269F4
:10BB4000801A9941994203D1F533FF3398420FD3BC
:10BB5000A068002808D0354B1D880CF084FC0368D1
:10BB6000152229001B6A98470422A3799343A371E5
:10BB7000A3799B0758D52E4E3368DB68002B4FD036
:10BB80002C4F3B78032B4BD8284B2B491B8804A800
:10BB90000193FDF7F3FC336804A9DD6808A80AF0F7
:10BBA0007DF808A928000BF0A2FA050008A80AF001
:10BBB00020F8082302AAD3800198073B063206A981
:10BBC0000BF0F3FA002D08D029002022103108A82C
:10BBD0000EF01EF828000DF0DFFF3D7802ABDA888A
:10BBE000ED0008AB5D19280006A90EF003F8002847
:10BBF00013D00822280006A90EF00AF8336804A919
:10BC0000DD6805A80AF04AF82023280008AA05A93B
:10BC10000BF073FA05A809F0ECFF04A809F0E9FF9E
:10BC20000222A3799343A37111B0F0BD46280020EE
:10BC3000B825002080200020F8AD020070B5036810
:10BC400004000D1E09D15B699847FA208000684303
:10BC5000074904F00FFCE08070BD9B689847A8423C
:10BC6000F3D9236820009B6898470500EDE7C0469C
:10BC700071020000F0B50400150085B001930AAB15
:10BC80001F880BAB1B78461C02930EAB1B7810224F
:10BC900003930B7803704B8A0131438230000DF01F
:10BCA000B7FF656100250122019B27836383039B06
:10BCB000E5832377029B2000F377A31CDA770C9BA4
:10BCC0000C26636223000D9A283329001A705D70D8
:10BCD00032009D702C300DF0B7FF2000064B320073
:10BCE000A3632900E56340300DF0AEFF2000034B55
:10BCF0002565E36405B0F0BDC1710200B3710200B7
:10BD0000F0B507001500A1B002C706006B4918A8DE
:10BD10001C000BF016FB2B1E03D028000DF0D4FFE7
:10BD200083B2012204920022039202920232019213
:10BD300000932A0018A93800FFF79CFF33006049E0
:10BD4000583318A807930BF0FCFA231E03D02000E9
:10BD50000DF0BAFF83B201220492002203920292F4
:10BD6000023201920093220018A90798FFF782FF80
:10BD700033005449AC3318A808930BF0E2FA269B21
:10BD8000002B03D018000DF09FFF83B20122049214
:10BD9000002203920292023201920093269A18A97D
:10BDA0000898FFF767FF731CFF33474918A80993EA
:10BDB0000BF0C7FA279B002B03D018000DF084FF6F
:10BDC00083B2012204920022701C0392029202327A
:10BDD00001920093279A18A9FF30FFF74BFF330019
:10BDE0005533FF33394918A809930BF0AAFA289B59
:10BDF000002B03D018000DF067FF83B201220492DC
:10BE0000002203920292023201920093289A18A90A
:10BE10000998FFF72FFF3300A933FF332C4918A8E7
:10BE20000A930BF08EFA299B002B03D018000DF01B
:10BE30004BFF83B201220492002218AC03920292BB
:10BE40000232019200932100299A0A98FFF712FF0B
:10BE5000204B1B780B93002B2DD1079B1E4913936E
:10BE6000089B0DA81493731CFF331593099B12971D
:10BE700016930A9B12AD17930BF063FA1D2149200C
:10BE800006AB1B7F1022237006ABDB8D638206ABF3
:10BE9000C918C0180DF0BCFE062323750B9B306833
:10BEA000A383A5610CF0E3FA036821001B6898479F
:10BEB0000122084B1A70300021B0F0BD292A000081
:10BEC000242A0000252A0000272A0000262A000034
:10BED000282A0000692800200A18000070B50025F3
:10BEE00004000A4B8580083385710360C1601830F7
:10BEF000FDF77EFB20001C30FDF77AFB044B200091
:10BF00001C600123A5606561A37170BD54A002008F
:10BF1000B8250020FA2130B585B0040001230222A3
:10BF20006846890009F0FEFE074D2868002809D000
:10BF30000BF040FA2188054B2A6819800223917979
:10BF40000B43937105B030BDB82500204628002072
:10BF500010B50C0007290FD880680CF084FA074B45
:10BF6000195703685B6C984743425841044B404261
:10BF70001840044BC01810BD0348FCE707AF02008F
:10BF8000EA03000016FCFFFF17FCFFFFF0B5984C1A
:10BF90000D00A544040096AB1B78964908A80793AA
:10BFA0000692FDF7EBFA200029001C3009F07EFE16
:10BFB000914909A8FDF7E2FA90490AA8FDF7DEFACF
:10BFC0000CAE09AA08A90BA809F07FFE2A003000D0
:10BFD00011AD0BA909F079FE0AAA3100280009F079
:10BFE00074FE290008A809F061FE280009F001FE8E
:10BFF000300009F0FEFD0BA809F0FBFD08200DF054
:10C00000CFFD0700002100F095FE08220021A76067
:10C010000DA80DF019FE00230C932B0007CE07C3CB
:10C02000774B2900EB60002338002B610CF004FAF9
:10C03000A0680CF018FA08220021059012A80DF053
:10C0400003FE14200DF0ACFD6E4B2A00119303008B
:10C05000C2CAC2C36C4B059EC3600023A4360361F1
:10C060003368002B00D0BDE03060A0680CF0FFF911
:10C0700008220021060012A80DF0E6FD14200DF0A4
:10C080008FFD624B1193030086CD86C3604BC36066
:10C0900000230361336B002B00D0A5E03063A06860
:10C0A0000CF0E1F908220021059012A80DF0CCFD5A
:10C0B00014200DF075FD574B11AE119332000300A3
:10C0C000A2CAA2C3544B059DC360002398350361E7
:10C0D0002B68002B00D089E02860012004AB1B7F77
:10C0E00004AA03430BA913770BF061F8A0680CF0C6
:10C0F000C2F9036849495B6A9847A0680CF0BBF92C
:10C10000036847499B699847A0680CF0B4F9454A11
:10C11000036800921D6800231A001900A847079BB6
:10C12000002B0AD020000BF04EF9032805DDA06893
:10C130000CF0A1F90368DB68984706212000FFF79F
:10C1400007FF394B394A1B68A1680393384B30000D
:10C150001B6800250293374B1B680193069B1B68E5
:10C1600004330093344B12681B68FFF7C9FDA068C5
:10C170000CF079F903680CA99B6A9847082304AA74
:10C180001384A068DB18538495840CF06CF9036861
:10C190000CA9DB6A98470621A0680BF0DEF8089A24
:10C1A00009219378A06804320BF0EAF8A0680CF03B
:10C1B0005AF90571A0680CF056F93221FFF73EFDDF
:10C1C000A0680CF050F90BF0B2F80AA809F011FDC4
:10C1D00009A809F00EFD08A809F00BFD91239B00AA
:10C1E0009D44F0BD03613FE7036157E7036173E7D7
:10C1F000BCFDFFFF04AE020028AE020012AE02003A
:10C20000CF71020015BF0100DD71020065BA0100A7
:10C21000EB71020019720200F97102003DC20100C7
:10C2200071C2010014AE0200B4250020B025002028
:10C2300008200020AC2500200C20002013B5062289
:10C240006846FDF7ABF9094B1C68002C0AD069461B
:10C2500001A809F023FD200001A90BF0D5F801A8E1
:10C2600009F0C7FC684609F0C4FC13BDB8250020DE
:10C27000002373B501AE0C0031000500019302F0FC
:10C28000D7FC002802D1B278064B1A70064B18680A
:10C29000002806D061426141044BC9B21D800BF0F9
:10C2A000BBF873BD80200020B82500204628002060
:10C2B000F0B504008BB00F0005A87D490392FDF78F
:10C2C0005DF97C4906A8FDF759F9220005A91C3241
:10C2D00009A809F0FAFC06AA09A907A809F0F5FCC3
:10C2E00009A809F086FCA0680CF0BDF803680025D9
:10C2F0005B699847A0680CF0B6F8030006000A33A3
:10C300001F220021180002930DF09EFC029B3000BA
:10C31000DD770BF003F80621A0680BF01EF8079AF2
:10C3200009219378A06804320BF02AF8A0680CF079
:10C330009AF80571A0680CF096F8C821FFF77EFC0A
:10C34000A0680CF090F80581A0680CF08CF80AF059
:10C35000EEFF3800FEF74EF9390020000BF06FF8C1
:10C360002000FCF771FE0295FF356269012316007B
:10C370001E401A422DD0504908A800F0D7FB08A94A
:10C3800009A80BF0B7FF002209A91300019200923F
:10C390003800FEF72BFA09A80BF09FFF029B002B39
:10C3A00041D1043D282D40DC38000AF0A7FA002DC9
:10C3B00000DC0296039809F08AFF002806D00123CA
:10C3C00062699A43130004221343636108A80BF0C7
:10C3D00084FF04226369134230D0FF213800FEF746
:10C3E00063FA0026A36902229B5EB34222DD20008D
:10C3F00031B2183009F07FFC0023010038001A0028
:10C40000743000F0E3FBC8208000FCF7BBFE38006E
:10C410000AF074FAC820FCF7B5FE022263691342E1
:10C4200008D10136DEE70435BCE7FE2DC2DD00236E
:10C430000293BFE7FA208000FCF7A4FE02226369A2
:10C4400013421DD01E000632164013421CD01B4959
:10C4500008A800F06BFB08A909A80BF04BFF00220D
:10C4600009A91300019200923800FEF7BFF909A84C
:10C470000BF033FF1248FCF785FE08A80BF02DFFE8
:10C480006420FCF77FFE70E70E4908A800F04EFB21
:10C4900008A909A80BF02EFF3300320038000196DE
:10C4A000009609A9FEF7A2F909A80BF016FFE4E728
:10C4B0001BAE020012AE02002BAE020070AE0200F4
:10C4C000983A0000ADAE02001FB5084B1B68DB8B2D
:10C4D000834209D1064B68461A78064B06491A7002
:10C4E0000123032209F01EFC05B000BDBC2500207D
:10C4F0006A2800206B280020FF030000F0B51D0013
:10C50000ADB0040001610135143016000691FDF74D
:10C510006FF8EBB21800079308F0BEFD0025013656
:10C52000F6B26060300008F0B7FD4A4B2A001D707B
:10C53000494B4A491D70079B2060A672E372258112
:10C540000FA80BF01AF801270C2322680497019317
:10C5500000963B000FA90395029517A8FFF78AFBE9
:10C560002A003F490FA80BF008F854200DF018FBE3
:10C57000202306000193079B6268049700930FA98C
:10C580003B0003950295FFF775FB364B08961E603E
:10C590000AAE17AB2A003449300009930AF0EDFFC8
:10C5A00034213520337802AA52181370738A12315D
:10C5B00002AA52181380253902ABC9181022C018DC
:10C5C0000DF026FB4821022302AA521813705022B4
:10C5D00002AB9B1808AF159706981D800BF047FF1C
:10C5E00003680FA91B689847722202AB9B181B882F
:10C5F0000698E3600BF03BFF079014200DF0D0FA93
:10C6000007001A4B05610822310010C00A930B95F0
:10C610000DF0FEFA164BFB60079B9B69AB4217D1EE
:10C62000079B06989F610BF022FF0500082200215E
:10C630000BA80DF009FB0F4B0A932B006C3307CEB0
:10C6400007C30D4B2000AB670023EB672DB0F0BD97
:10C650003B61E5E76A2800206B2800200FAF02004D
:10C660001FAF0200BC2500202FAF0200D7740200CC
:10C67000AD740200C9C401009F740200054A0300A2
:10C680001178054A1278501A914201D9DB7AC01804
:10C690007047C0466B2800206A280020F0B58DB096
:10C6A00002AF040039607A613B61002A00DCA2E03D
:10C6B0003B69012B00D19EE027230025FB18006970
:10C6C0001D700BF0D4FE272203684D499B69BA18F0
:10C6D0000968984720690AF073FF022302001A4094
:10C6E000184236D12533FB181B78AB4200D185E0C8
:10C6F000FA6120690AF064FF0223184275D02533DD
:10C70000FB181B78FB60002B6FD03E4B6E461D78EC
:10C710003D4B1B78BB60FB69BB6100237B60BB6941
:10C720007A69934217DAE17A681C04F013F8BB685F
:10C730008B420AD0BA693B689B5C62685355FB69BF
:10C74000CDB20133FB61FB687B60BB690133BB6128
:10C75000E5E7FD61CDE77B68002B01D0294B1D701B
:10C760002000FFF78BFF6A46C31DDB08DB00D31AEE
:10C770009D4602AB0200002105001800BB610DF0D0
:10C7800063FA204BE27A1B7820000193BB68009388
:10C79000BB6961680AF019FF3B69022B03D10321D1
:10C7A0001A48FCF71BFD20690BF061FEABB20025B7
:10C7B000134A1268D18B02680095D2681500BA69D5
:10C7C000A8473B69022B14D1FCF772FC20690BF0DF
:10C7D0004EFE272203680A499B69BA1809689847E0
:10C7E000FB697A69B546934283DBBD46F8690BB0B5
:10C7F000F0BDB546F9E7064BFB61F6E7054BFBE7F5
:10C80000BC2500206A2800206B280020FF030000C0
:10C8100017FCFFFF16FCFFFF002815D000604160E9
:10C820008260C360046145618661C76144460462F9
:10C830004C464462544684625C46C4626446046367
:10C840006E46466374468463002A06D0C46B043C7B
:10C85000043A25681560B442F9D18C6BA6464E6B3C
:10C86000B546002B06D0CC6B043C043B1D6825600C
:10C87000B442F9D10C6BA446CC6AA3468C6AA2469A
:10C880004C6AA1460C6AA046CF698E694D690C6955
:10C89000CB688A68086849687047006041608260B8
:10C8A000C360046145618661C761444604624C46C9
:10C8B0004462544684625C46C462644604636E46C5
:10C8C000466374468463C46B043C043925680D6078
:10C8D000B442F9D1C7698669456904697047006047
:10C8E00041608260C360046145618661C7614446FE
:10C8F00004624C464462544684625C46C4626446A8
:10C9000004636C4644637446846304697047846BB3
:10C91000A646446BA546046BA446C46AA346846A33
:10C92000A246446AA146046AA046C7698669456969
:10C930000469C368826800684168704710B5041EC6
:10C940000CD00DF0C1F9431EE318A34208D9227898
:10C950001978013B21705A700134F6E7014810BD87
:10C960000020FCE717FCFFFFF0B585B00D1E00901E
:10C9700029D000260A27C217141A4B1E54400393CD
:10C980002000029639000136019603F0E3FECB1732
:10C99000C9185940039B303120009955390003F0E4
:10C9A000F3FD041EECD1009B002B04DA2D23029E24
:10C9B000019A0236AB5400232800AB55FFF7BEFFA7
:10C9C000200005B0F0BD014CFAE7C04617FCFFFFA0
:10C9D00010B50400100048436160A26000280BDD20
:10C9E000074B984205DC80000DF0ECF82060200039
:10C9F00010BD01204042F7E700232360F7E7C0465F
:10CA0000FEFFFF1F4A688B6870B5836053430400C4
:10CA10000D004260002B12DD0A4A9E003000934256
:10CA200001DD012040420DF0CDF800232A6820608E
:10CA3000D158C1500433B342FAD1200070BD002355
:10CA40000360FAE7FEFFFF1F014B03607047C0461B
:10CA50006CA0020030B500684488A1420CDA8588D9
:10CA6000AA4209DA002907DB002A05DB62434018E5
:10CA700080188371002030BD0048FCE717FCFFFFE1
:10CA8000F0B507000E001D0085B0002921DD002A49
:10CA90001FDD002B1DD00468638803938B4200DDEB
:10CAA0000391A3880293934200DD0292002306348F
:10CAB0000193019B029A93420ED029002000039A11
:10CAC0000DF0A6F83B68AD195B88E418019B0133B3
:10CAD000EEE7024805B0F0BD0020FBE717FCFFFFC2
:10CAE000F8B504000D0016001F00002901DB002A24
:10CAF00002DA0D4B2360F8BD10004843063008F001
:10CB0000CBFA206009F05BF923685D809E80002FDE
:10CB100006D03B00320029002000FFF7B1FFEAE712
:10CB200020000BF0EFFBE6E76CA00200F7B5070072
:10CB30000D1E03D1244B03603800FEBD0024080005
:10CB40002600210001940378002B1AD03022524293
:10CB500094469C446246092A11D90A2B0AD1019BAA
:10CB6000361901330193B14200DA31000024260066
:10CB70000130E8E7002CFBD000240136F8E701245F
:10CB8000F6E70126019A380012B209B27642FFF7A1
:10CB9000A7FF31000A203B689A1D2C78002CCBD0CF
:10CBA0002300303B092B08D8F343DB1733404343C2
:10CBB0001B19303B1E000135EFE7002EFBDB167022
:10CBC0000E000132F7E7C0466CA00200F0B5050088
:10CBD00087B004A816001C000F00FCF7B7FB2B68F9
:10CBE0005A88964235DA9B889C4232DA1F2F30D918
:10CBF000059B01939F422CDC05217943049BA039BE
:10CC00005B1801932300621D0392019A127802922D
:10CC100000222C68B7186088B8420DDDA1888B42CD
:10CC20000ADAE419102717415843029924180F40D3
:10CC3000781E87417F42A7710132052AE9D1019A06
:10CC4000013301320192039A9342DED1002007B0F2
:10CC5000F0BD0148FBE7C04617FCFFFFF7B50368CE
:10CC600006009F1D5B880D005A1A0192002919DDEC
:10CC70000024994203DB0BF045FB002013E03368EE
:10CC80009B889C42F9DA79193800019A0CF0C0FFB0
:10CC9000019B2900F8180BF027FB336801345B88EF
:10CCA000FF18ECE70048FEBD17FCFFFF10B5054874
:10CCB000054C206009F086F82000044A04490CF075
:10CCC00064FF10BD6CA00200C025002000200020E1
:10CCD000DB82020070B5002817D1124D2E68002E9D
:10CCE00011D108300CF05CFF066046600E4E040067
:10CCF0003368002B02D10CF069FA306023682C6095
:10CD00009B00F3586360286870BD084A01231168CE
:10CD100007480C001C401942F6D1036044601360C0
:10CD2000F2E7C046C8250020D4250020C4250020F5
:10CD3000CC250020002370B50400016043609942B7
:10CD40000AD1064D2B68002B02D10CF03FFA286067
:10CD500023689B00EB586360200070BDD425002041
:10CD6000436810B50400002B02D104480CF017FDF5
:10CD7000606803681B69984710BDC0463FAF02005A
:10CD8000436810B50400002B02D104480CF007FDE5
:10CD9000606803689B69984710BDC0463FAF0200BA
:10CDA000436810B50400002B02D104480CF0F7FCD6
:10CDB000606803685B6A984710BDC0463FAF0200D9
:10CDC00010B5040002F0E8FA034B1B68002B01D0F9
:10CDD0002000984710BDC046DC250020F0B58BB080
:10CDE000050001F05FFD002000F0F8FF0368060079
:10CDF0001B699847336804009B6930009847336883
:10CE000001905B6A300098470200288810380B2890
:10CE10006CD803F01BFB06486B6B6B656B6B6B711F
:10CE20006B83AF88200039000BF0CEFC2200162364
:10CE3000583216789C46143B3343A879697B1370AB
:10CE4000012304AEB3700023378032001F00AC44CE
:10CE5000F070981801330771062BFAD100279172F0
:10CE60003A00F3190137DA72062FFAD163463A0015
:10CE70007361E91D05A80CF0CBFE29000B2004AB63
:10CE80003A000E31C0180CF0C3FE94346368A360FE
:10CE9000A06800282AD0C36831009847A368002BF7
:10CEA000F4D01B69F3E720002E49AE880BF08CFC10
:10CEB0002200022058321378A9798343137004ABFF
:10CEC0001E809970A0346368A360A06800280DD00C
:10CED000C36804A99847A368002BF4D01B69F3E743
:10CEE0005369002B02D0A888A91D984729000198F2
:10CEF0000BF049FE0BB0F0BD636E002BF6D0AE799F
:10CF0000A366A06E0028F1D0C36831009847A36ED5
:10CF1000002B01D1636EF3E71B69F1E70126694637
:10CF20000D27AB7BEF575A071E40920FDB080A72A2
:10CF30000B730622E91D04A80CF06AFE6A46127AF9
:10CF400004AB1A726A46127B9F715A72DE712B0013
:10CF500020000F338C3407938030236804A998474E
:10CF6000C4E7C046FFFF0000014B18607047C04691
:10CF7000DC2500201FB58022A323D205DB00D35877
:10CF80000820DB0700D4053048221D4B1D4901F065
:10CF900095F800280AD080B2002807D1BFF34F8F40
:10CFA000194B1A4ADA60BFF34F8FFEE7002302A83D
:10CFB000029301330370164B1B6843600BF063FA56
:10CFC000002802D0072005B000BD6B46581C0BF0AE
:10CFD00058FA0028F6D16B46591C0BF050FA00287D
:10CFE000F0D10C4801F09AF880B20028EBD10A4841
:10CFF00001F09EF880B20028E5D100F0E5F9E2E703
:10D000008B840200E025002000ED00E00400FA051A
:10D01000D8250020DDCD0100C1CD010080B200285F
:10D0200007D1BFF34F8F034B034ADA60BFF34F8F33
:10D03000FEE7704700ED00E00400FA05024B0B60CC
:10D04000092313607047C04662AF020010B50400A8
:10D05000002000F0C3FE03681B6998470300F33308
:10D060001C7086235B00C05003000021044AFC337F
:10D070005A61044A99615A62F4300CF023FB10BDE6
:10D080008586020097860200012110B5054A080036
:10D0900000F0A8FF03005A1E93410B205B4218408A
:10D0A00010BDC0464DD00100F0B50500040087B0AA
:10D0B000AC356B68AB60A868002807D0C368210056
:10D0C0009847AB68002BF4D01B69F3E72600B03615
:10D0D0003568002D05D02F6928000CF05DFD3D005E
:10D0E000F7E7220003215832137835608B43137021
:10D0F000260023000A365C331F22290030001D70F1
:10D100000CF0A2FDF5772A361F22290030000CF022
:10D110009BFDF577606E002804D005690CF03CFD9E
:10D120002800F8E72500983560662868002804D0B4
:10D1300006690CF031FD3000F8E72600A4362860BF
:10D140003568002D05D02F6928000CF025FD3D0025
:10D15000F7E729003560082202A80CF075FD01AE42
:10D160002300320001956C3383CA83C3094B082224
:10D170002900A367E56702A80CF066FD230001956E
:10D18000803307CE07C32800034A90341A60256015
:10D1900007B0F0BD7786020069860200F0B593B053
:10D1A000029000200C0000F019FE03685B6A9847AB
:10D1B00000F034F9030006A8002B0DD00023037102
:10D1C00005AB0693082303730AAB836000F0F0F904
:10D1D000002803D013B0F0BD037103730023237341
:10D1E00023710193029B019ABA331B7893423ED973
:10D1F000072353431E00029ABB36D318BB331B7858
:10D200009619022B2CD1002506AF3B7BAB4220D9CF
:10D21000AB000393089BAA00300099580BF06AFBFF
:10D2200000281AD0B868AB00C118237BA6689C46BA
:10D230009A000B6893516346013323733B7B5A1E5C
:10D24000954204D00B4D5B199B001B580B6006AB3D
:10D250001A73019B0133DBB2C3E70135EDB2D3E7AB
:10D26000237921689A00013356502371F1E7002099
:10D27000B0E7C046FFFFFF3F0200087810B5012865
:10D2800016D04B8803280ED1A03B0A4C9BB2A34278
:10D2900008D880238C880320DB019C4202D2100036
:10D2A0000BF098FA10BD203B0320034C9BB2EEE735
:10D2B0000220F7E7603F0000E03F0000F0B59DB0BE
:10D2C0001E006B4605005A70981C06225F1C02ACBB
:10D2D0000CF09EFC002E2FD033882380738863804F
:10D2E000B388A380F388E3800CAB049314AB6A4645
:10D2F00006932E000023B936137513773378002B6D
:10D3000022D101223378022608A9134058000B7855
:10D31000B3430343229804AE4E6000281CD128007A
:10D32000323000789343104003430B70AB8D0B8178
:10D33000EB8D4B812B8E1DE032232380DB18638025
:10D34000F533A680FF33CEE7280004A9FFF726FFB8
:10D350000028D6D01DB0F0BD2298934380791040AC
:10D3600003430B70229B1B880B81229B5B884B81A4
:10D37000229B9B88220038008B810BF0ACF8031EA7
:10D38000E8D0112814D80B20032BE3D9181F0D283F
:10D390000CD803F05BF8150B0B09070B0B0B0B0BF1
:10D3A0000B0B09130620D5E70420D3E70B20D1E7A8
:10D3B000044A0B209342CDD10738CBE70520C9E7BB
:10D3C0000720C7E7023200001FB5282302AC2380E4
:10D3D0006933FF336380E3806B460022D81D11233D
:10D3E000A2800D49037005320BF031FA80B200289B
:10D3F0000FD1802080000BF026FA80B2002808D1DF
:10D4000020000BF022FA80B2002802D10BF019FAAA
:10D4100080B204B010BDC0466BAF0200014B18785B
:10D420007047C0466C280020F0B587B001900020FE
:10D430002A4F1E003B780D001400834204D101F0F6
:10D44000DFFF002802D00B2007B0F0BD002E0ED069
:10D45000222003A903960BF0FEF9031E07D0062035
:10D46000082BF1D0113B584258410430ECE702AB95
:10D47000D81C0023037001F077F80028E3D11C22A8
:10D48000019B6D00A4002B4314401C431F2314492F
:10D490001C400D7802AA9D43113B9B181880114B2C
:10D4A0002C43039302230C7003AC2371093002ABAD
:10D4B000C01805220CF0ACFB21000B4801F0BEF8AF
:10D4C000031E07D00720042BBED00430082BBBD18D
:10D4D0000538B9E701223A70B6E7C0466C2800204B
:10D4E000812000205B8802006D28002010B50648CE
:10D4F00001F074F9031E06D00720042B03D004307A
:10D50000082B00D1053810BD6D28002073B56B467F
:10D5100004000322581D0E0000210CF095FB0F4B58
:10D5200001AD1B78200029002B7001F081FB041E47
:10D5300004D00420052C00D0073076BD310028002F
:10D5400001F0B4F803002000002BF6D00720042BD4
:10D55000F3D00430082BF0D10538EEE76D28002019
:10D5600073B56B46114C0D00060005222100D81C36
:10D570000CF04EFB012D09D00223022D13D1032202
:10D58000237893431A000123134302E003222378F4
:10D59000934323706B463000D91C0BF05AF90023DB
:10D5A000984200D00B33180076BDC0468120002081
:10D5B000084B01001B78092010B5002B08D0064845
:10D5C00001F0AEF8031E03D003200E2B00D000188C
:10D5D00010BDC0466C2800206D28002013B50468DB
:10D5E0000093A46813000A000149A04716BDC04675
:10D5F000FFFF000037B506AC25780468019500935D
:10D60000246913000A000149A0473EBDFFFF000046
:10D61000F0B587B016000DAA0D00147800216A46F7
:10D62000518069460CAA128801930A80002C1AD1F5
:10D6300001004279F831A2420BD9E700CF5BB74233
:10D640001BD130212034A40022580132D27F0A425B
:10D6500015D16A46310028000BF060F90623002836
:10D6600008D0032306E06A46310028000BF056F983
:10D67000031EF6D1180007B0F0BD0134DBE710211E
:10D680000A4051424A41002005930CAB0493194BC8
:10D6900002AC01322680A270A0809D4207D100F02A
:10D6A0009DFB03681B6998470BF091F8050021006A
:10D6B00028000BF037F9002382B29A42DAD010002A
:10D6C0000D4A05339042D5D00FD801330828D1D068
:10D6D000013B1128CED06A46310028000BF01EF91C
:10D6E00005230028C6D0023BC4E7044A0623904223
:10D6F000C0D0F0E7FFFF000003300000013400005D
:10D70000F0B5040099B008002E250C9100F0D8FB6C
:10D7100006ABED1812902A00012012A90BF0FCF8BC
:10D72000002802D0032019B0F0BD2B880C9A0B9072
:10D7300093830C9B0B9A1B7D934200D8C6E06379C0
:10D740001D2B01D90720EEE70C9B9B690D930B9BCA
:10D750000D9A9B009D586B69002B07D16B8B002B9A
:10D7600004D16B1CDB7F022B00D1AAE0280000F063
:10D77000A7FB2B000026283312900E960D960F93D0
:10D780000F9B1B78B34221D96A6AB3009F58342299
:10D7900006AB9B1800221A701300002113AA9A18D6
:10D7A00001335170102BF8D1462206AB9B184A4A20
:10D7B00038001A8013A90BF034F9002803D07B69D4
:10D7C0000D937B8B0E930136F6B2D9E76179AB1CD2
:10D7D0001F31C90061186A1CDB7FD27F08912900C4
:10D7E0002A3109780020079129002931097806910A
:10D7F0000E9905910D990491297F0391298B02912E
:10D80000698B01916969009112A90BF021FD002833
:10D8100000D087E7637907001A00203292001F3397
:10D820001551DB001B5BEB836379013363712B00C4
:10D8300028331B78BB4244D98E239B00E35C132B17
:10D8400000D97FE76A6ABB009E580023180013A91D
:10D850000B705A1801335070102BFAD11E4B300048
:10D860004B820BF0DEF80D90002827D1300000F03D
:10D8700027FB8E218900625C738B1E32FF325200BF
:10D88000A2180292327F12900192328B0D98009270
:10D89000726912A90BF081FD002800D042E78E21A9
:10D8A0008900625C531CDBB263541D337A32FF3350
:10D8B00092005B001651E3185B88F3830137FFB2D7
:10D8C000B5E70B980130C3B20B9332E72379002000
:10D8D0000133237127E7C0460129000070B50C22EF
:10D8E0000D00002104000CF0AFF900232361024B6E
:10D8F00020002560E36070BD9F74020070B50500D4
:10D900000BF0ABF8041E1DD12800782221008030D6
:10D910000CF09AF92800E93050222100FF300CF079
:10D9200093F9280008222100F8300CF08DF9064BFD
:10D930002822E81821000CF087F98E239B00EC5474
:10D94000200070BD0624FBE73A0200000048704743
:10D95000FFFF0000F0B597B00593036807AD1B68A3
:10D960000491039311002B00060091C991C3002478
:10D97000D368210008220DA8EB602C610CF064F93B
:10D9800022000B4B10940F9311AB0C941C70E118F8
:10D9900001344A70102CFAD15A820193059B2A0057
:10D9A000009330000499039C0CABA04717B0F0BD66
:10D9B000878E0200FC3070B5046C0500002C0DD180
:10D9C00024200CF0EDF8064B44608361054B846025
:10D9D000C46004614461C46103602864286C70BD44
:10D9E00004A20200ECA20200FC3070B5C56B04007A
:10D9F000002D11D134200CF0D3F8084B8560436022
:10DA0000074B45610361074B0562C361064BC56265
:10DA10008362064BE0630360E06B70BD34A20200DA
:10DA200024A2020094A20200A4A20200B4A2020056
:10DA30007FB503791548002B23D0154E154C33784C
:10DA40002000002B1DD10A256D4428000BF00DFA93
:10DA5000002810D16B88592B0DD12B78AA88D91F9B
:10DA6000012910D800920C4A2021200007F0FEFB6B
:10DA70000123337004E02022200008490CF02BF928
:10DA8000200004B070BD0092054AEDE771AF0200BE
:10DA90008E2800206E28002093AF02008BAF02007A
:10DAA000B0AF020010B50400024B08C00BF0A7FA9B
:10DAB000200010BD24A2020010B50400024B08C0D3
:10DAC0000BF0B2FA200010BD34A20200064B70B574
:10DAD000040003604068002804D005690CF05CF87D
