:020000021000EC
:1080000000400020FDFC010039FD01003BFD0100A6
:108010000000000000000000000000000000000060
:108020000000000000000000000000003DFD010015
:1080300000000000000000003FFD010041FD0100C4
:1080400043FD010011B30100F903020043FD0100EB
:1080500043FD01000000000015FE010043FD01008A
:1080600043FD0100E10502008102020043FD010021
:1080700043FD010043FD010043FD010043FD0100FC
:1080800043FD010043FD010043FD010043FD0100EC
:1080900043FD0100EDFA0100B9EF010043FD0100CD
:1080A00043FD010043FD010000000000000000004E
:1080B00000000000000000000000000000000000C0
:1080C00010B5064C2378002B07D1054B002B02D0AE
:1080D000044800E000BF0123237010BDB020002041
:1080E000000000003CB70200044B10B5002B03D089
:1080F0000349044800E000BF10BDC0460000000076
:10810000B42000203CB70200164B002B00D1144BCA
:108110009D46402292029A1A924600218B460F46B3
:108120001348144A121A12F0CDF80F4B002B00D04E
:1081300098470E4B002B00D09847002000210400E8
:108140000D000D48002802D00C4800E000BF0DF0E3
:1081500059F92000290011F0ABFE0DF03DF9C046A1
:1081600000000800004000200000000000000000A7
:10817000A8200020202900200000000000000000AE
:1081800010B50400034B036040300DF00CFF2000DD
:1081900010BDC04648A50200F0B585B01F000AAB6F
:1081A0001B880600150002910393002F1CD0282085
:1081B00001F0C2F86B4604001989039BAAB2009330
:1081C0003B000DF08EFE3368210030005B6898475D
:1081D00000280AD0002C05D020000DF098FE2000C9
:1081E00001F0C4F8024800E0024805B0F0BDC04606
:1081F00016FCFFFF17FCFFFF0022104B00B5FF210C
:108200001A70662389B01A0000910D4803F05AFCD9
:108210000C4907A801F094F9C82207A952000A489E
:1082200002F0D8FB07A80DF0BEFE084800F08CFF56
:1082300007480DF0EEFC09B000BDC0465C280020E8
:10824000F024002060B10200C0210020881300004B
:10825000D420002010B50A480EF0E9FD094B002893
:108260000BD118680BF00AF9074A084B0AF0D2FA4A
:108270000BF02AFD0BF0CCF810BD1860F2E7C046F9
:10828000C0210020D02000200EBE30992A18D93FEE
:1082900037B50321684607F055FD6424002568467C
:1082A00007F094FD104909F0DFF809F0BFFB7E28C4
:1082B00002DD854200DA0500013C002CEFD12800E8
:1082C0000BF0DCF8094A0A4B0AF0A4FA0022094B29
:1082D0000AF00CFD0BF09CF8002801DA20003EBDEE
:1082E0006428FCDD6420FAE700007F433333333336
:1082F0003333E93F00005940F7B501211E480EF025
:10830000C3F90BF0BBF804000D001B4801210EF06F
:10831000CEF90BF0B3F806000F00174801210EF05C
:10832000D9F90BF0ABF82200009001912B0020004E
:1083300029000AF06FFA32003B0004000D00300003
:1083400039000AF067FA02000B002000290009F04A
:108350000FFC009A019B0D000400190010000AF0A8
:1083600059FA02000B002000290009F001FC0BF073
:108370007FFD0BF04DF8FEBD98220020F0B599B0BE
:10838000BE4917A801F0DCF8782217A9BC4802F012
:10839000B3FB17A80DF007FEFF230124022500936D
:1083A000CC3B1A000021B74803F08CFBB64B1C7085
:1083B000B64EB74909A8376801F0C2F8FFF768FF61
:1083C00001000AA80DF00BFE0AAA09A90BA80DF0DE
:1083D00056FEB0490CA801F0B3F80CAA0BA90DA8E1
:1083E0000DF04DFEAC480FF03BF901000EA80DF06A
:1083F000F6FD0EAA0DA90FA80DF041FEA74910A881
:1084000001F09EF810AA0FA911A80DF038FEFFF791
:1084100021FF010012A80DF0E2FD12AA11A913A874
:108420000DF02DFE9E4914A801F08AF814AA13A994
:1084300015A80DF024FE9B4801F0E0FD010016A8F0
:108440000DF0CDFD16AA15A917A80DF018FE2A00EB
:1084500017A938000FF0BAFC17A80DF0A4FD16A854
:108460000DF0A1FD15A80DF09EFD14A80DF09BFDCB
:1084700013A80DF098FD12A80DF095FD11A80DF0B0
:1084800092FD10A80DF08FFD0FA80DF08CFD0EA829
:108490000DF089FD0DA80DF086FD0CA80DF083FDF3
:1084A0000BA80DF080FD0AA80DF07DFD09A80DF0C8
:1084B0007AFD142000F048FE33687B490DA8039331
:1084C00001F03EF8794F210038000EF0DDF8010090
:1084D0000EA80DF084FD0EAA0DA90FA80DF0CFFD7A
:1084E000734910A801F02CF810AA0FA911A80DF0DB
:1084F000C6FD210038000EF0DAF8010012A80DF0D8
:108500006EFD12AA11A913A80DF0B9FD694914A8AE
:1085100001F016F814AA13A915A80DF0B0FD21005A
:1085200038000EF0D7F8010016A80DF058FD16AA75
:1085300015A917A80DF0A3FD2A0017A903980FF09D
:1085400045FC17A80DF02FFD16A80DF02CFD15A861
:108550000DF029FD14A80DF026FD13A80DF023FD44
:1085600012A80DF020FD11A80DF01DFD10A80DF0B2
:108570001AFD0FA80DF017FD0EA80DF014FD0DA8A3
:108580000DF011FD142000F0DFFD4B490BA83668FB
:1085900000F0D6FFFFF7B0FE01000CA80DF01FFDA4
:1085A0000CAA0BA90DA80DF06AFD44490EA800F015
:1085B000C7FF0EAA0DA90FA80DF061FD40480EF0EF
:1085C0000FF9010010A80DF00AFD10AA0FA911A8BB
:1085D0000DF055FD3B4912A800F0B2FF12AA11A9F7
:1085E00013A80DF04CFD38480EF0FAF8010014A85D
:1085F0000DF0F5FC14AA13A915A80DF040FD3349A0
:1086000016A800F09DFF16AA15A917A80DF037FDB2
:108610002A0017A930000FF0D9FB17A80DF0C3FCF2
:1086200016A80DF0C0FC15A80DF0BDFC14A80DF0A7
:10863000BAFC13A80DF0B7FC12A80DF0B4FC11A8F9
:108640000DF0B1FC10A80DF0AEFC0FA80DF0ABFCC6
:108650000EA80DF0A8FC0DA80DF0A5FC0CA80DF0BF
:10866000A2FC0BA80DF09FFC322000F06DFD064B24
:108670001B78002B00D09BE619B0F0BDE4B60200D9
:10868000C0210020F02400205C2800200C250020C0
:1086900062B1020065B102004C23002068B1020003
:1086A0006BB10200FC2200206EB102009822002073
:1086B00072B1020076B102007AB102007EB102000E
:1086C0003822002082B102006022002086B1020020
:1086D000F7B51F4CFA26200000F080F91D4801F084
:1086E0008DFC0A2310270093F5331A0019001A484D
:1086F00003F0E8F9194DB600310000970122280077
:10870000174BFFF749FD31000222164B0097280056
:10871000FFF742FD1C2000F00FFE2023050030363D
:10872000A1591A0004F00AFA0F4B38001D6000F03E
:1087300003FEA1590D4A04F001F91C2000F0FCFDD4
:10874000A159044A03F0C6FF00F07AFD0020FEBDE7
:10875000D4200020FC220020F0240020A4210020AE
:108760007D830100F98101000C2500204C230020AD
:1087700070B50A4C200000F05FF8094D20002A0077
:10878000084911F040FD084C0849200000F0D8FECF
:108790002A002000064911F036FD70BDD4200020CB
:1087A00000200020B5870100CC20002088B1020005
:1087B000A75F0200862310B50400DB00C01803F099
:1087C00033F81B4BE01803F007F9F423194A9B0018
:1087D000E2501C33E0180DF0E6FBFA239B00E01892
:1087E0000DF0E1FB8A239B00E01801F06FFA2000F6
:1087F000C530FF3001F076F820008D30FF3001F0F9
:108800002DFA20006530FF3001F028FA2000EC300E
:1088100001F0F8FE2000D03002F0F2FB20006430BE
:1088200007F0B6F9201DFFF7ABFC200010BDC046D5
:108830001C040000E4A60200F0B51425040097B063
:1088400019222B0000951821043002F0B1FD2300FD
:108850002700260064331800B43713211393B83669
:1088600007F0A2F938000EF0A1FE29001322300013
:108870000EF0F1FA2000D03002F0E2FB2300EC33DE
:1088800006211800514A149301F0E4FE2000002351
:108890006530009301331A001121FF3001F0EAF92D
:1088A000200000238D300093022210210133FF307D
:1088B00001F0E0F92000B5301A2302220121FF3037
:1088C00002F07CFC2200C532FF32129231000423F8
:1088D0001822129801F012F88A229200A21815921A
:1088E00005231D223100019300923B00129A159836
:1088F00001F0F0FB9B229200149B1599A018129A8C
:1089000001F0BCFD9E2292003900A0181C2202F04A
:108910007DFE3223A4221093193B0F93013B0E934B
:10892000013B0D93013B0C93013B0B93023B0993DD
:10893000023B0793013B0693013B0593013B0493E4
:10894000013B0393013B0293013B0A950193023DD6
:108950009200013BA01800930822013B07210895D3
:108960000EF081FAF42292003900A01803F068FB9F
:10897000FC229200A0181D2102F066FC8323002631
:10898000DB00E650124B28222900E01803F0BCF867
:108990008623DB00E01802F0E1FF13980321267024
:1089A00011F05AF92300220020000A499C33A0321A
:1089B0001C6011605660084A02215A618030012211
:1089C00007F0DAFA200017B0F0BDC04650A502004B
:1089D0001C040000135C0200455C0200F0B5027844
:1089E0000123170004008BB01F401A4200D0A9E0F9
:1089F000C530FF300DF0A4FC2300D03318000393E2
:108A000000F064FA00F092F9282000F095FC0500CF
:108A100010300DF057FB4C4B18202B6000F08CFCF5
:108A200006004A4B082208933900099704600C306D
:108A300011F048FC08A90822301D11F027FC444B16
:108A40002900736112230398AE60EF60AB802F6240
:108A50006F6202F06DFA002805D028000DF057FA79
:108A6000280000F083FC01250027237864202B4395
:108A7000237000F069FB059526006536FF3630004F
:108A80000DF0AEFE00283CD020008D30FF300DF000
:108A9000A7FE002835D00A2F33D06420013700F01C
:108AA00053FB0A2FE8D1F4239B00E5184833E35821
:108AB0000493002B1ED100F059F8010007A800F024
:108AC0003FFD08A80DF022F9059B08AA07A9280078
:108AD0000093039B03F00CFB08A80DF064FA07A8B1
:108AE0000DF061FAF6239B00E35804938323049A64
:108AF000DB00E250210032002800EC3103F08AFC58
:108B0000BAE78325ED006659002E1BD100F02EF840
:108B1000010007A800F014FD08A80DF0F7F8F423F1
:108B20009B00E01808AA039B07A9009603F0E0FA4F
:108B300008A80DF038FA07A80DF035FAF6239B00C7
:108B4000E35863510BB0F0BDFD0300009B5C0200D5
:108B50005B5C0200BFF34F8F024B034ADA60BFF346
:108B60004F8FFEE700ED00E00400FA05F0B58BB092
:108B700002ABDF1D19223800144911F087FB0023D6
:108B8000134D05266B7180235B055B6E2C000093F3
:108B9000012301933100009807F0CCFE08000199F1
:108BA00007F042FE0522009B56431B1A0093019BCF
:108BB000534301932B1B5343FB181B5C013C637114
:108BC000044B9C42E6D102480BB0F0BDBFB102009D
:108BD0005D28002058280020F0B595B0182200210B
:108BE00004000EA811F06EFB13210EA811F03EF93F
:108BF00003210EA811F0E5F9464B1B68002B00D1AC
:108C00000133DBB2009300210123434A09A807F096
:108C100023FBFA239B009C429B411C4072B63F4BB6
:108C200064211E683E4B20000593052507F086FE53
:108C30006843503030180A210690200007F07EFE6D
:108C40000A2107F061FF6943503171182000079134
:108C50000A2107F059FF4D435035761908968026B2
:108C60000024B601009B002B52D004AD0027032C3A
:108C700002D180260024B6016B682A4A0293630061
:108C8000D3180022019258780299095C039119784F
:108C90008C461021604601410398014204D0012016
:108CA000904001990143019101320633092AEAD12A
:108CB000019B2A68D9431C4B09011940029B93422E
:108CC00024D1312F22DC002109A811F03AFAFA232D
:108CD000139A0F99DB001068014219D0013B002B59
:108CE000F9D1FA23013401377600E4B25B009F42E8
:108CF000BDD1043508ABAB42B8D1064B1B68002B85
:108D0000B0D0009B013BDBB20093ABE73143DBE724
:108D1000FFF720FF14250020F0FF000004200020B2
:108D20000EB20200D8B10200F01F0000F8B5002317
:108D3000124C23600DF00BF8002808D0042120000D
:108D40000DF001F8002801D00D4B2360F8BD012281
:108D5000A12704250B4B0C491A602268FF004860CC
:108D60004E68002EFCD0DE591202013D3243002D28
:108D7000F5D1226001225A60E8E7C04610250020A4
:108D8000ED5EBC0B00D00040FCD000400B4B70B53A
:108D90001C68002C10D0656D00F08EFBA36C0029C0
:108DA00001D1834206D820000DF004F820000449C8
:108DB0000CF0EEFF2C00ECE770BDC0461C25002037
:108DC0003C250020F0B593B007932A4B04AC1E68F5
:108DD000049005910692002E49D0274B258867887C
:108DE0001C6800230293002C2DD0636D234803934D
:108DF000A36C190C9AB20B00854214D12048824210
:108E000011D1002901D0B9420BD1029B002B08D10E
:108E100020000CF0CFFF20001A490CF0B9FF01230D
:108E20000293039CDFE7002A01D09542F9D1002983
:108E300001D0BB42F5D120000CF0BCFF200011494D
:108E40000CF0A6FFEDE7104BEB18012B0FD9102308
:108E50003A002900009308A80C4B0DF042F8336843
:108E600030009B6808A9984708A80DF050F813B087
:108E7000F0BDC0461825002048250020FE03000054
:108E8000FF0300003C25002002FCFFFFC58D010010
:108E900010B572B60B4B1C68002C08D020000CF0EB
:108EA00089FF0023E364084B2000E36310BD62B632
:108EB0005C2011F0B3F95C220021040011F002FAE9
:108EC000EFE7C0464025002000400020F7B51E4CCB
:108ED0000123227816001E401A4233D11B4D286010
:108EE000FFF7D6FF1A4B1B4918600CF051FFFFF734
:108EF000CFFF194B1860194B4363194B83632868E4
:108F000000280FD0C023174F3200174900933B00B1
:108F1000FFF742F9C023009332003B001349286851
:108F2000FFF73AF90C2011F079F90023838083715F
:108F30000F4B03600F4B836000F0D6FA01232278B9
:108F400013432370F7BDC046632800201825002076
:108F50004C2500203C25002044250020FC3F00201B
:108F60004D5E0200C58D0100FF030000FE030000FE
:108F700070A502008D8D0100024B18780123184066
:108F80007047C04663280020F7B506000D001700A3
:108F90000193002802D100242000FEBD0029FAD050
:108FA000FFF776FF041EF6D0074B019A4363066075
:108FB000064B45608760002A00D0054B200005491C
:108FC000A3630CF0E5FEE7E7FC3F0020275E02000C
:108FD000355E02003C25002070B5074B0E001100E5
:108FE0001A7805000123100018401A4203D03200FD
:108FF0002800FFF7C9FF70BD63280020024B1868E6
:10900000434258417047C0463C25002003000022DF
:1090100010B5044994006058002801D00132F9E7E6
:10902000635010BD24250020002310B5044A990088
:109030008C58844201D00133F9E70020885010BDDC
:109040002425002010B50024084BA200D058002889
:1090500002D003685B6898470134062CF4D1044BB6
:109060001B68002B00D120BF10BDC0462425002066
:109070003C2500200122F8B52C4B1B7813421CD054
:109080002B4D2C68E36C134218D002273B43E3645A
:10909000284B1E680423F26C30001343F364636BA7
:1090A000F3630CF09EFE3000716C03F016FF28682D
:1090B000C36C3B4201D003F04AFFF8BD1E4F1F4E68
:1090C0003A683068002A0AD128601B0712D52C6044
:1090D000FFF7B8FF3B68002BFAD02B600AE0216D48
:1090E000B94219D1616D002900D1110029602A68A7
:1090F0008242EAD029688C42DFD0336899420DD190
:109100000F4B4B630F4B8B6320000CF06AFE2968FA
:1091100020004B6C626C06E02A60E8E79C42F3D1C9
:10912000002210004B6C03F097FEC6E76328002076
:109130004C250020202500203C250020442500202F
:10914000FC3F00204D5E020070B5114B04001A7800
:1091500001231A4202D110F02DFF70BD0D4A15688F
:10916000EA6C1A4206D0FFF793FE0B4B18600028FA
:1091700000D0050000F0A0F92418AC6428000CF021
:1091800019FE280005490CF003FEFFF773FFE4E722
:10919000632800204C250020202500201C250020CD
:1091A000F0B51E4B1E4F1E683B6885B0050003914D
:1091B000002B31D01B4B1A7801231A422CD0F26CB1
:1091C0001A420ED0FFF764FE174B041E186008D039
:1091D0000CF0F0FD200015490CF0DAFD2600FFF739
:1091E00049FF039B30001B042B43B3640CF0E2FDEA
:1091F00030000F490CF0CCFD0E4B0024EB18012B76
:1092000007D9C023009329000B4B039A3868FEF757
:10921000C3FF200005B0F0BD084CFAE74C25002044
:109220001825002063280020202500203C25002050
:109230004825002002FCFFFFC58D010016FCFFFF42
:1092400010B5074B1B78DB0709D5064C20680CF0DE
:10925000B1FD054920680CF09BFDFFF70BFF10BD29
:10926000632800204C2500204025002010B5034B2A
:109270001B78DB0701D5FFF7E3FF10BD6328002053
:10928000F7B505000C00002833D001261B4B1B78D6
:10929000334230D01A4F07233868C26C110019408E
:1092A00000911A4207D021002800164AFFF794FEC9
:1092B00000252800FEBD03F032FE3A680221D36C7F
:1092C0001800084001900B4203D001318B43D36456
:1092D000EEE73343D3642000A8473A68019DD36C7E
:1092E0001900B143D1645B07E3D52000FFF7BEFF4F
:1092F000DFE7054DDDE7054DDBE7C04663280020CD
:109300004C2500206D92010017FCFFFF16FCFFFFAB
:10931000020010B5014B12CB12C210BD5025002027
:10932000034B1A68034B1A607E225A607047C0468E
:10933000042000205025002070B504000025094BB2
:109340001B78AB4209DD0849EB002000C9180CF07E
:1093500083FD002804D10135F1E720000CF076F8F8
:1093600070BDC046642800205825002010B5002894
:1093700011D000220B4B19780B4B91420FDD1C686A
:10938000844209D25C68844206D98023043802688A
:109390001B061343036010BD01320833EDE70CF0E8
:1093A0005FF8F8E7642800205825002070B5051EF6
:1093B00014DD0B4E0B4C3368002B02D0206810F0EC
:1093C000AEFCFA2120680024074B89008361C46247
:1093D0006943356010F0B4FC200070BD0348FCE721
:1093E00068250020982500209594010017FCFFFFB8
:1093F000F8B5114F05003E68002E0AD1302010F05C
:109400000DFF040006F038FC0C4BA6612360E662F9
:109410003C600B4E3368002B09D1102010F0FEFE8B
:10942000040010F0D9FC2000346010F0AFFC2800DC
:10943000FFF7BCFFF8BDC0469825002068AA0200CF
:1094400094250020014B18687047C046682500200D
:1094500070B50D4C2368002B03D00C4B1B68002B00
:1094600002D10620FFF7C4FF206810F0A6FC02001E
:109470000749C3170D684E685219734120680A6086
:109480004B6010F0A0FC70BD9425002098250020B2
:10949000A820002010B5FFF7DBFF0024054BA20039
:1094A000D058002802D003681B68984701340A2C62
:1094B000F4D110BD6C25002010B5FFF7C9FFFA22CA
:1094C000034B920018685968002307F05DFB10BD3C
:1094D000A820002010B5FFF7BBFF024B18685968A1
:1094E00010BDC046A82000200B4B10B51B6804001F
:1094F000002B03D0094B1B68002B02D10620FFF77D
:1095000077FF0023064A99008858002801D00133CC
:10951000F9E78C5010BDC046942500209825002006
:109520006C250020002310B5044A99008C58844211
:1095300001D00133F9E70020885010BD6C250020D0
:1095400010B50400002902D00B78002B03D1034B87
:109550002360200010BD0CF02DFDFAE780A502006D
:10956000F8B504000E00150000290AD00B78002B76
:1095700007D0002A05D0080097B210F0E3FE87421A
:1095800003D90B4B23602000F8BD681D0BF05EFF74
:1095900020600CF09DFE20682A00478031000430D6
:1095A00010F074FE23685D1900232B71EBE7C046B1
:1095B00080A50200014B03607047C04680A50200F1
:1095C00010B50548054C20600CF085FE2000044ACB
:1095D000044910F018FE10BD80A502009C25002053
:1095E00000200020A75F0200084B73B51D6804002F
:1095F000002D0AD001002E6808220831684610F0BC
:1096000045FE0CCC28003168884773BDA02500209A
:10961000014B03607047C04688A5020030B5006862
:109620004488A1420CDA8588AA4209DA002907DBBE
:10963000002A05DB6243401880188371002030BD8A
:109640000048FCE717FCFFFFF0B507000E001D0007
:1096500085B0002921DD002A1FDD002B1DD0046804
:10966000638803938B4200DD0391A38802939342A6
:1096700000DD0292002306340193019B029A93427B
:109680000ED029002000039A10F000FE3B68AD19AF
:109690005B88E418019B0133EEE7024805B0F0BD9A
:1096A0000020FBE717FCFFFFF8B504000D001600D3
:1096B0001F00002901DB002A02DA0D4B2360F8BDF0
:1096C0001000484306300BF0C1FE20600CF000FE95
:1096D00023685D809E80002F06D03B003200290069
:1096E0002000FFF7B1FFEAE720000CF02DFDE6E7D0
:1096F00088A50200F7B507000D1E03D1244B0360B7
:109700003800FEBD002408002600210001940378E3
:10971000002B1AD03022524294469C446246092AB9
:1097200011D90A2B0AD1019B361901330193B14299
:1097300000DA3100002426000130E8E7002CFBD0DD
:1097400000240136F8E70124F6E70126019A3800E3
:1097500012B209B27642FFF7A7FF31000A203B6838
:109760009A1D2C78002CCBD02300303B092B08D835
:10977000F343DB17334043431B19303B1E000135D5
:10978000EFE7002EFBDB16700E000132F7E7C04654
:1097900088A50200F0B5050087B004A816001C00DB
:1097A0000F00FFF7B5FD2B685A88964235DA9B8883
:1097B0009C4232DA1F2F30D9059B01939F422CDC4B
:1097C00005217943049BA0395B1801932300621D96
:1097D0000392019A1278029200222C68B7186088CE
:1097E000B8420DDDA1888B420ADAE419102717412F
:1097F0005843029924180F40781E87417F42A77171
:109800000132052AE9D1019A013301320192039A0A
:109810009342DED1002007B0F0BD0148FBE7C0460F
:1098200017FCFFFFF7B5036806009F1D5B880D005E
:109830005A1A0192002919DD0024994203DB0CF029
:1098400083FC002013E033689B889C42F9DA791985
:109850003800019A10F01AFD019B2900F8180CF04D
:1098600065FC336801345B88FF18ECE70048FEBDF7
:1098700017FCFFFF10B50548054C20600CF02BFDD0
:109880002000044A044910F0BEFC10BD88A5020067
:10989000A4250020002000201F61020010B5054C07
:1098A000012120000CF00BFD2000034A034910F0B9
:1098B000AAFC10BDA8250020002000207D62020027
:1098C000074A030010B50120934208D0834202D01A
:1098D0000020DB0703D41E20FFF77EF9002010BD17
:1098E000FFFF000010B50400034B08330360FFF7CF
:1098F0009BFB200010BDC04690A50200F7B50700F5
:109900000025040001931A4B143708330E0085809C
:10991000290085710360C581056100923800182215
:1099200010F0D0FC3800152110F0A0FA019B2200A5
:10993000A380009B0E21238114236381123BA57118
:10994000A563A58723733E32137826638B43137078
:10995000084B0122E364084B2000236523005433A5
:109960001D70064B6364230048339D701A80FEBD52
:1099700090A5020000000A0300030301010001009A
:10998000F7B504000CF03FFE0E22A35E7A4F5B4257
:10999000BB4251DA23003E331B789B074CD501258F
:1099A000210028003E310B785A0890430200022023
:1099B000AA40834313430B7020000CF024FE1022B6
:1099C000A35E5B42BB4248DA23003E331B785B0751
:1099D00043D50125210028003E310B789A08904399
:1099E00082000420834313430B70260020000CF0F8
:1099F0000AFE1222A35E4A36BB423EDA23003E3301
:109A00001B781B0739D5210001223E310B78D8087D
:109A100082430820D200834313430B703378032B17
:109A20003BD80133DBB23370012B00D08EE0230032
:109A300000224C331A8030E020000CF0E4FD0E22AE
:109A4000A35EC8225B42002552009342B4DD23008E
:109A50003E331B789B07A2D5AEE720000CF0D3FD68
:109A60001022A35EC8225B4252009342BDDD230058
:109A70003E331B785B07ACD5B7E720000CF0C3FD85
:109A8000C8231221625E5B009A4204DD23003E334C
:109A90001B781B07B7D5002DC0D133780193002B5D
:109AA00014D0200027004C3003883E3701339BB28E
:109AB00003803A780125110029402A4254D01D2BF9
:109AC00004D90023AA433A700380337020000CF0BD
:109AD000C7FD2A4A0723904244DD20000CF093FD85
:109AE0000E23E25E264E52420323B2423ADBC825E1
:109AF00020000CF088FD0E23E25EAD0052420423EC
:109B0000AA422FDC20000CF07EFD1023E25E02232F
:109B10005242B24226DB20000CF075FD1023E25EBB
:109B200001235242AA421DDC20000CF06CFD1223DE
:109B3000E25E0623B24215DB20000CF064FD122326
:109B4000E25E0023AA420DDD05330BE0042BA4D115
:109B500022003E321178033B0B43137000234C3438
:109B600023800C331800FEBD092BAFD90180019969
:109B700001393170AAE7C04670FEFFFFFF70020096
:109B8000E0FCFFFFF0B5C369C1681A68451D040019
:109B9000EB7F89B0114225D0002B57D10123A27948
:109BA0001A4237D0002602226846A188A6710CF01E
:109BB00093FAA31DDD7F012D2CD1FFF77DFC33002F
:109BC000226A801A99410F000600A1889F4203D1A2
:109BD000FA239B009E423BD30123042204A80CF0ED
:109BE0007BFA17E00B2B01D80133EB77EB7F082BC7
:109BF0000DD90122A37913420CD11343A188A3717B
:109C000004A813000CF068FAFFF756FC2062EB7F03
:109C1000012BC3D90322A3791340012B14D1FFF7E1
:109C20004BFC0023226A801A9941994202D10A4BC7
:109C3000984209D90223A279A1881343A37105226E
:109C4000012304A80CF048FA09B0F0BD013BCCE7B1
:109C50002B000322C2E7C046DB05000010B504005C
:109C6000034B08330360FFF75DFC200010BDC046C6
:109C7000A8A50200F0B5060000250F00040085B07D
:109C800002930AAB1B78083603930F4B2900083365
:109C900003600192858085711822300010F012FB5C
:109CA00039003000039A10F0E6F8019B029AA38075
:109CB000A31DE771DA77631D25622000DD77FFF7CA
:109CC00013FC200005B0F0BDA8A5020010B50400EB
:109CD000034B08330360FFF7A7F9200010BDC0460F
:109CE000C0A50200F0B587B004AC08230F004222E3
:109CF0001021009405000CF0A9FDA3790020DA07DB
:109D000000D48BE062782678E17812021643A278BC
:109D100009020A4312B2D210029262792079120229
:109D2000104300B242100392E47936B224021C437D
:109D3000AB1CD98FF610A4108803002C00D0210092
:109D400006F0FCFD364B2A00C01800B203000021CB
:109D500043433F325156DB11013A4B431178802285
:109D6000C90148431B185B12520399182B00343366
:109D70001B785BB2A0334B431B135E432B00323383
:109D80001B7876135BB2DB00F6183E80AE1CF18FB9
:109D90008803002C00D0210006F0D0FD204B2A00C3
:109DA000C01800B20300002143433F325156DB117B
:109DB000013A4B4311788022C90148431B185B12BA
:109DC000520399182B0035331B78029A5BB2A033EB
:109DD0004B431B135A4353132A003332127852B2A7
:109DE000D2009B187B803C22AB5E039A3A21685ECE
:109DF000D31A3E21725EDB03A21A50438010181A58
:109E0000EB8E6100594380231B02C9183823EC5E96
:109E10000914091906F092FDB880012007B0F0BDC1
:109E200000C0FFFFD0B504000CF029FDE268A36973
:109E3000981A09F023FB06000F002369E069C01A95
:109E400009F01CFB32003B000AF00EF80022104B18
:109E500008F0E0FC0F4A104B08F0F4F909F086FB1B
:109E60000021041C06F068FE002804D0201C0B49C9
:109E700006F094FF041C201C09F030FB02000B00CC
:109E80000020074908F032FF09F0C2FAD0BDC046F1
:109E900000806640EA2E4454FB2109400000B44390
:109EA00000807640F0B5040085B0806A0CF083FC39
:109EB000061CA06A0CF076FC0221071C20000CF0A6
:109EC0007BFD0221039020000CF088FD07F0CEFD01
:109ED00080231B06C2180221200001920CF090FD85
:109EE00007F0C4FD041C301C09F080FF051C301C69
:109EF00009F040FF0290381C09F078FF061C381C5E
:109F000009F038FF071C039807F0B0FD80231B06FB
:109F1000C018391C07F0A8FA311C071C019807F07B
:109F2000A3FA291C07F0A0FA011C381C06F036FF22
:109F3000311C071C201C07F097FA029907F094FACD
:109F4000011C381C06F02AFF291C061C201C07F0E7
:109F50008BFA0299041C019807F086FA011C201C58
:109F600007F09CFB311C09F0E7FF0D4907F07CFA74
:109F700009F0B4FA0B4A0C4B08F064F909F0F6FA50
:109F80000021041C06F0D8FD002804D0201C044940
:109F900006F004FF041C201C07F048FD05B0F0BDCE
:109FA0000000B443EA2E4454FB2119407FB5042538
:109FB000837904002B421BD102260CF060FCA379AC
:109FC0000622B3432B43A37168460123A1880CF0FA
:109FD00083F8A3791A003340581E83415842FB236B
:109FE0009B001840034BAA43A271C01804B070BD77
:109FF0000148FBE714FCFFFF15FCFFFF10B5837958
:10A0000004005A070DD49B0701D4FFF7CFFFA36AC2
:10A010002000002B02D0FFF745FF10BDFFF702FF25
:10A02000FBE70148F9E7C04615FCFFFF70B5C66ABB
:10A0300086B001AC050001916260A360002E0CD0D7
:10A040000B4905A8FFF77CFA0C232200300005A974
:10A050000DF0E7FA05A80BF0A6FF2B000C3307CC98
:10A0600007C30223AA791343AB7106B070BDC04683
:10A07000EEB30200642330B5040085B08180028114
:10A0800043810CF0C9FC0222A37920009343A37101
:10A090000CF01FFCE06A002813D00D490DF08CFA7B
:10A0A000051E0ED001000C22103101A810F0EEF8B0
:10A0B00020000199029A039BFFF7B8FF280010F0D7
:10A0C000A9F80123A2791343A37105B030BDC0469E
:10A0D000EEB30200F8B504000E0000201700E362A2
:10A0E00001230B4D06AA083507A9A080A0712560A1
:10A0F000E06020616061A061E06120626662200032
:10A10000A762128809882386FFF7B4FF2000F8BDF4
:10A11000C0A5020082B0F0B50400A5B064202B9366
:10A120002A920FF047FF04220C2109A802F070FFC9
:10A130002422CD491BA810F0A9F8052206A8110079
:10A140000CF00BF8C94907A8FFF7D4FAA06800F093
:10A1500079FBA568C64918A8FFF7F2F9782228000C
:10A1600018A900F09FFC18A80BF01DFF6E256420B5
:10A17000013D0FF01FFF002DF9D1A06800F062FB38
:10A18000A0680CF04FFE012160680CF07DFA0121FF
:10A19000070060680CF08BFA06000A20FEF7D4FF77
:10A1A0000022B44B04929F4210DB013204923A0029
:10A1B000C8320BDBC822042192000491974205DCCF
:10A1C00003220492C82F01DC013A04920022039278
:10A1D0009E4210DB012303933300C8330BDBC823FB
:10A1E00004329B0003929E4205DC03230393C82E96
:10A1F00001DC013B039306A80BF0A6FF1BAF002375
:10A200003E000593B378002B05D0FF237278317898
:10A2100006A8FFF703FA059B0336013305930C2BC1
:10A22000F0D16B460C229A5E6B4606A81021595E4F
:10A23000FF23FFF7F3F90023A0681A00009374309E
:10A2400006A90BF091FF3B00243305933B78049A59
:10A25000934234D17B78039A934230D1BE78002E5A
:10A260002DD1310020680CF0A7FB07F0FFFB320076
:10A27000031C290009A80DF0ECFD310020680CF04A
:10A28000ADFB07F0F3FB0122031C290009A80DF028
:10A29000E0FD310020680CF0B3FB07F0E7FB29007C
:10A2A000031C022209A80DF0D4FDFE2329009B0502
:10A2B000032209A80DF0CDFD0123BB70ED18059B0D
:10A2C00003379F42C2D16420FEF73EFF0B2D00DC16
:10A2D00059E709A80DF0A9FD012201000CA802F020
:10A2E00097FE002509A80DF0A0FDA8423CDD29003D
:10A2F000002209A80DF09BFD00222900061C09A8D8
:10A300000DF095FD011C301C07F0AEF82900061C6D
:10A31000012209A80DF08BFD01222900071C09A8C4
:10A320000DF085FD011C381C07F09EF8311C06F06D
:10A3300035FD29000222061C09A80DF078FD022235
:10A340002900071C09A80DF072FD011C381C07F03C
:10A350008BF8311C06F022FD2900031C00220CA8FA
:10A360000DF077FD0135BDE709AA1100012318A8FA
:10A370000DF089FD18A90FA80DF0E3FD18A80DF048
:10A3800079FD0CAA09A912A801230DF07CFD002378
:10A3900012AA0FA915A80DF076FD002215A811002C
:10A3A0000DF045FD0022061C012115A80DF03FFD12
:10A3B0000022051C022115A80DF039FDFC21071C07
:10A3C0008905301C07F050F807F030FBFC2106002F
:10A3D00018908905281C07F047F807F027FBFC2197
:10A3E000050019908905381C07F03EF807F01EFBA0
:10A3F0002A00030031001A902068FFF717FEA068BA
:10A400000CF010FD07A908A8A5680BF095FE002226
:10A41000194B009208A901932800130000F0B0FA2C
:10A4200008A80BF07CFEFA2080000FF0C3FDA068A6
:10A430000CF0F8FC15A80DF01DFD12A80DF01AFD8A
:10A440000FA80DF017FD0CA80DF014FD07A80BF0D8
:10A4500066FE06A80BF063FE09A80DF00BFD25B003
:10A46000F0BC08BC02B018474CB40200F9B30200BB
:10A470003EB40200E0FCFFFFDC050000F7B583609E
:10A480001D4B05001F6801604260002F31D028205D
:10A490000FF0C4FE040010300BF014FE174B182010
:10A4A00023600FF0BBFE00220600154B0021019235
:10A4B000056008320C3000930FF004FF0822694653
:10A4C000301D0FF0E3FE0F4B00227361C223A38007
:10A4D0003B68E260210038005B68A660226262622D
:10A4E0009847002805D020000BF011FD20000FF048
:10A4F00091FE2800FEBDC046A025002005000600F4
:10A5000015A10100D36A0200F0B5040085B0637A9A
:10A510009C46002B04D120000CF006FB05B0F0BDDA
:10A52000A37A266F01931023019AF35600259B18F6
:10A5300001229A402900F36803920293029BAB42E6
:10A5400031DDB068019B6843C01873694000E77A49
:10A550001A181B5C5078E279012F14D1571E3F1A4C
:10A5600018003B004243606F52008218D218937962
:10A57000634500DD6346627B1A4202D00123AB4093
:10A5800019430135DAE7022F07D0032FEAD1277AE2
:10A59000013FFF1A03003800E4E7571EFB1A277A31
:10A5A000013F381ADEE71123C943F356606C994026
:10A5B00023691940039B19430FF0C3FDA27B072AAF
:10A5C000ACD8637B0C495B006373531CDBB2900017
:10A5D0004158A373022A03D808000FF0E0FC96E765
:10A5E000064B2000236300236363054BE46223646E
:10A5F00014300FF0A5FB91E7D8A5020009A50100D2
:10A60000136B020070B50400104B25000833036083
:10A61000FEF788FF200074300BF081FD20006030D1
:10A620000BF07DFD200058300BF0BDFC20005030B9
:10A630000BF0B9FC064B1435280063610FF06FFB7B
:10A64000280005F02FFB200070BDC046F8A50200D1
:10A6500068AA0200F8B500250400324B8580083353
:10A6600003608571143016000F0005F005FB200013
:10A670002D4BE562636125645030FEF79BFF20009F
:10A680005830FEF797FF20006030FEF7C1FF200032
:10A690000423F25E33682667590009B274300BF068
:10A6A0005CFD3368226FE371736801262372102307
:10A6B0006581A7802561D35691685918994204DDB8
:10A6C0003000984001330543F8E711230120D356A9
:10A6D000D1685918994206DD02009A402669013373
:10A6E00032432261F6E714200FF098FD2269002121
:10A6F0002A430123060005F0AFFDFF232200637209
:10A700000133A381002348326664A37320001370D1
:10A71000A366FEF7E9FE0123A27920001343A3718B
:10A72000F8BDC046F8A502007CAA0200F0B5437A45
:10A73000040085B0002B04D120000CF0F5F905B021
:10A74000F0BD0122837A11009C461023066F00257C
:10A75000F35603926344994002912900F3680193F0
:10A76000019BAB422CDDB0687369684360444000D4
:10A77000E77A1A181B5C5078E279012F10D1571E26
:10A780003F1A18003B004243606F52008218D218F3
:10A790009379002B02D0039BAB4019430135DFE7CF
:10A7A000022F07D0032FEED1277A013FFF1A0300B3
:10A7B0003800E8E7571EFB1A277A013F381AE2E70C
:10A7C0001123C943F356606C994023691940029BD9
:10A7D00019430FF0B6FC667AB31EDBB2FC2B14D81B
:10A7E000FEF730FE0B4B0500236300230A4863632A
:10A7F0000A4BFF217043E462236406F09FF82900AE
:10A800004143200014300FF09BFA637A012B00D9EA
:10A8100095E791E7296B0200B6030000136B020075
:10A820001FB5012381881A0068460BF055FC0123EF
:10A8300068461A0002490BF04FFC05B000BDC04647
:10A84000FE0300001FB5030048331A780400002AF5
:10A850000DD000221A70012381881A0068460BF07F
:10A860003BFC012368461A0003490BF035FC20002D
:10A8700074300BF069FC1FBDFF03000010B54830B9
:10A880000378002B06D00378012B03D00121024866
:10A890000BF0C0FA10BDC046FF03000010B5012147
:10A8A000040006200BF0B6FA064B984208D1483453
:10A8B0002378002B04D02378012B01D020BFF7E7A9
:10A8C00010BDC04616FCFFFF70B50500141E19DB55
:10A8D000060048363378002B02D03378012B13D191
:10A8E000002328001A007430FEF754FF002C07D014
:10A8F0002B004A331C80002407234C352C803370F6
:10A90000200070BD014CFBE7014CF9E717FCFFFF8D
:10A9100012FCFFFFF8B50B6805005B880800170004
:10A92000012B08D100210BF0C0FB00220100280000
:10A93000FFF7CAFFF8BD002A19DD2E00483633782C
:10A94000002B02D03378012B13D12B0000245C3371
:10A950001C80043B010018000BF082FB2B004A33E3
:10A960001F8003234C352C8020003370E2E702481F
:10A97000E0E70248DEE7C04617FCFFFF12FCFFFFDE
:10A9800073B5079C0500002C1CDB060048363078A8
:10A99000002802D03078012816D106981BB2C0B228
:10A9A0000090280012B274300BF0DEFB002C07D0B0
:10A9B0002B004A331C80002407234C352C80337035
:10A9C000200076BD014CFBE7014CF9E717FCFFFFC7
:10A9D00012FCFFFFF7B505000E00171E26DDFFF77E
:10A9E0004DFF2B0048331B78DCB2002B20D133689D
:10A9F0005B88012B09D1210030000BF056FB2200AF
:10AA000001002800FFF760FFFEBD310001A80BF038
:10AA10001FFB3A0001A92800FFF77CFF01A80BF0FB
:10AA2000C2FA2800FFF73AFF2000EDE70148EBE704
:10AA30000148E9E717FCFFFF11FCFFFFF0B587B005
:10AA40000D9C05000E0017000393002C21DBFFF77F
:10AA500015FF2B0048331B78DAB20292002B1AD173
:10AA6000310005A80BF068FB0C9B3A00009328000E
:10AA7000039B019405A9FFF783FF05A80BF04FFB8B
:10AA8000002C03D02800FFF709FF029C200007B02C
:10AA9000F0BD024CFAE7024CF8E7C04617FCFFFF96
:10AAA00011FCFFFFF8B50400171E1DDD0600483637
:10AAB0003378002B02D03378012B17D12200E379B1
:10AAC0005632013B137023000025200054331D80B3
:10AAD00050300BF0C5FA23004A331F8002232800B0
:10AAE0004C3425803370F8BD0148FCE70148FAE793
:10AAF00017FCFFFF12FCFFFFF7B504000F00161E46
:10AB000018DDFFF7BBFE230048331B78DDB2002BB6
:10AB100012D1390001A80BF09BFA320001A92000E4
:10AB2000FFF7C0FF01A80BF03EFA2000FFF7B6FECA
:10AB30002800FEBD0148FCE70148FAE717FCFFFFCB
:10AB400011FCFFFFFF2902D8417200207047014825
:10AB5000FCE7C04617FCFFFFF0B51F0085B00AAB4D
:10AB60001B780400039300933B000D0016000FF0C8
:10AB70004AF8002833D0237D082B2DD823680022E3
:10AB80001900FC318A62A021C9005A5015490520DC
:10AB90005A500138C046C046C046C046C046C046AE
:10ABA000C046C046C046C046C046C046F1D1236834
:10ABB00001325A50A0210432C9005A5005F0ACFCB1
:10ABC000039B3200009329003B0020000FF01BF88C
:10ABD000237D01332375CCE7034805B0F0BD207514
:10ABE000FBE7C046FC0F00000EFCFFFFF0B51F00A6
:10ABF00085B00AAB1B780400039300933B000D0063
:10AC000016000EF0E8FF002833D0237D082B2DD846
:10AC1000236800221900FC318A62A021C9005A5021
:10AC2000154905205A500138C046C046C046C046A6
:10AC3000C046C046C046C046C046C046C046C046E4
:10AC4000F1D1236801325A50A0210432C9005A5070
:10AC500005F062FC039B3200009329003B002000BA
:10AC60000EF0B9FF237D01332375CCE7034805B00F
:10AC7000F0BD2075FBE7C046FC0F00000EFCFFFF97
:10AC800010B5040086B0006C05F082F8237BA0218B
:10AC90009A00A05000200C4AC90050500B491430B3
:10ACA0005050626C6846517CC91849B20CF098F952
:10ACB000039B019A03211A60207B0130C0B205F08A
:10ACC00039FE217306B010BD00700040040500007D
:10ACD00082B070B50400002588B00C920D93636CAF
:10ACE0009A68AA420ADD197C02A8491949B20CF0F7
:10ACF00077F9069B039A01351A60F0E75D7C237BA8
:10AD000002A8ED186DB229000CF06AF9039A059BB0
:10AD100000211A60019202A818220FF0D3FA02A8AB
:10AD2000002229000FF0A7F8206C002801D00FF0B6
:10AD300071FA08200FF072FA2900060005F002F8F7
:10AD4000094B2000E3620023FA212363074B2664AA
:10AD5000A462E363103009010EF0F2FF08B070BC8A
:10AD600008BC02B01847C04681AC01008B6F0200DE
:10AD7000F0B504000E00150085B01F000CAB1B8859
:10AD8000103001930BF09EF92680658018200FF09B
:10AD900045FA02AE050033000AAA03CA03C32F60B6
:10ADA0002800082700213A000C300FF08BFA3A00F7
:10ADB0003100281D0FF06AFA064B022220006B6159
:10ADC00000230199A5600A43E360A28023626362C5
:10ADD00005B0F0BDA16F020070B5040086B0103060
:10ADE0000D0004F049FF0023184AA3622261184AAB
:10ADF000E36316686564237323606360A3609E4207
:10AE00001FD0144A2820049205930FF007FAC0239C
:10AE100005006A46029304AB03CB03C2230006215C
:10AE200002222800FFF7A4FF3368290030005B6886
:10AE30009847002805D028000BF069F828000FF08B
:10AE4000E9F900232000236406B070BD7CAA02004B
:10AE5000A0250020D1AC010030B5154B04001D68C1
:10AE600091B0002D17D0134B6A460493002305932D
:10AE70001033029304AB03CB03C22300022206214A
:10AE800006A8FFF775FF2B6828009B6806A998475E
:10AE900006A80BF03CF82500074B1035280023616D
:10AEA0000EF03DFF280004F0FDFE200011B030BD83
:10AEB000A0250020D1AC010068AA0200F8B50D1E43
:10AEC0002FD000260227C468002C27D0AA88A38888
:10AED00053403B4220D13A4215D1A368AA6893421D
:10AEE0001AD12B88002B02D022889A4214D16B8869
:10AEF000002B02D062889A420ED1A2880A4B0136FA
:10AF00001343A38008E0A968A0680CF07DFF002827
:10AF1000E7D1AB883B42E0D0646AD5E72000002E41
:10AF200000DC0248F8BDC0460080FFFF17FCFFFFB1
:10AF3000F0B506000D0085B0002959D00127C4687E
:10AF4000002C23D00221AA8800230A4202D0A38821
:10AF50005B083B40226829688A4211D1A068A96831
:10AF6000002B0BD00CF050FF002809D00421625EAA
:10AF7000A388002A06DB1F4805B0F0BD8842F5D043
:10AF8000646ADDE75B045B0CA380F4E7F0682A8861
:10AF90000100031E07D1F5600123684616490BF036
:10AFA0009BF80020E8E71C88944206D25C6A1900EE
:10AFB000002C0DD02300F6E723001C88944207D113
:10AFC0005F886C88A74203D25C6A1900002CF3D119
:10AFD000814209D10B889A4204D305D14C886B88F1
:10AFE0009C4201D96862D6E74B6A6B624D62D3E737
:10AFF0000248C1E716FCFFFFFD03000017FCFFFF3E
:10B00000064B10B51A00040008322C33026043606E
:10B010000430FEF709F8200010BDC04610A602005B
:10B0200008B4024B9C46043808BC604701B00100DC
:10B0300008B4024B9C46043808BC604743700200C9
:10B040000C4A002311002C32083110B503818372A1
:10B050004260C360036143614383016004000430C4
:10B06000FDF7D4FF044B1A68002A00D11C602000B1
:10B0700010BDC04610A60200A0250020F7B50D00A7
:10B080000126C4680192002C37D023882A889A426E
:10B0900001D0002B24D163886A889A4201D0002B0A
:10B0A0001ED1FDF769FF0123002806D0C022A38826
:10B0B0001340C03B5A425341DBB2019A93421AD12A
:10B0C0000422A35EA788002B15DB10222900A018FC
:10B0D0000FF0DCF840231F4204D020000BF0BAFF31
:10B0E000646AD0E7FDF748FF0028F6D02100044845
:10B0F000FEF7C6F8F4E70026F2E73000FEBDC046D2
:10B100005570020008B4024B9C46043808BC6047E6
:10B11000DF710200F0B587B001930EAB1B8806000B
:10B1200003930D9B0D000093019B0C9F0292002B3B
:10B130003CD0002F02D1009BDB0737D528200FF031
:10B140006DF8040010300AF0BDFF029B1820258026
:10B1500063800FF063F80500009B08220593019BB4
:10B16000002103600C3004970FF0ACF8082204A90A
:10B17000281D0FF08BF80E4B02226B610023039900
:10B18000E3602362636233680A43300021005B6836
:10B19000A560A2809847002806D020000AF0B7FEDC
:10B1A00020000FF037F8034807B0F0BD0248FBE776
:10B1B0001972020016FCFFFF17FCFFFFF0B5160026
:10B1C00000258380164A174B0400857102600181B7
:10B1D0004681057318688C4689B0A8421DD0124A72
:10B1E00005950492C02202926A4604AB82CB82C2C9
:10B1F00023002A006146FFF78DFFC022094B0A4950
:10B20000186802926A46069106AB079582CB82C205
:10B2100023002A003100FFF77DFF200009B0F0BDB8
:10B2200054A60200A02500204373020030B500247C
:10B2300003730123034D056084718180827343731E
:10B24000846030BD6CA6020070B5040000250C4B74
:10B250000E000833858085710360210018300CF0E2
:10B2600028F92000210020300CF046F9054B200081
:10B27000A680E5802572E560256165611C6070BD72
:10B280007CA60200AC2500208379DB0702D5C160D3
:10B29000002070470048FCE716FCFFFF8379DB07BE
:10B2A00001D5C06870470148FCE7C04616FCFFFFA7
:10B2B00070B545690400002D22D0037A032B21D8F4
:10B2C000FFF7ECFFA8622C200EF0A8FF2C22002133
:10B2D00005000EF0F7FF002263695A62236993426A
:10B2E00007D1636923610020237A656101332372EA
:10B2F00070BD1A005B6A002BFBD163695362F2E7F1
:10B300000148F5E70148F3E717FCFFFF13FCFFFFD7
:10B31000144B70B55A68144C002A03D000225A60AE
:10B320000132A2601A69002A17D000211961802316
:10B33000DB000E4DE3582868012B0FD1A923DB0059
:10B34000E1584942FFF7A0FF2868FFF7B1FF2B68DB
:10B350005A69074BE2500123A36070BDFFF794FFC9
:10B36000F9E7C046FC10004000100040AC2500206A
:10B370000405000003000069002809D00221054AE5
:10B38000D167426A1A611A7A013A1A72024B19603D
:10B390007047C04604E100E000E100E010B500297C
:10B3A00003DB024B19600EF09CFC10BDB0250020A1
:10B3B00070B504001D0004AB1E7804F019FC2000D9
:10B3C0000E4B40302360FEF7F5F8230022000135D4
:10B3D0004C331D700023E1215832013616700A3AB1
:10B3E000A3646365138053809381D381013B200064
:10B3F00063644902FFF7D2FF200070BD48A5020038
:10B40000F7B580277F053E697C690822113C7443AB
:10B410000500210068460EF039FF104B009A9A4251
:10B4200019D00093002301937969280013397143DF
:10B430000CF079F8019A280000990CF090F821009E
:10B4400028000CF070F87969220013392800714344
:10B45000B3080CF074F80198FEBDC046FECA0000A7
:10B46000F0B50D00ABB000210D920700302212A8FC
:10B470001E000EF027FF28000EF064FF431C0C9303
:10B48000102B00D9B8E0202E00D9B5E029003800F3
:10B490000CF092F80B90002854D129000C9A12A8B5
:10B4A0000EF0F4FE32000D9916A80EF0EFFE802388
:10B4B0005B051A695D690B92113D6A4338005E694C
:10B4C0000D92FFF79DFF0D9B3022083300210400F1
:10B4D0001EA80F930EF0F6FE31000B9B1339594353
:10B4E00038000CF020F800230F9E0C930E930C9B59
:10B4F000A34246DA310030221EA80EF0C7FE12A980
:10B500001EA80EF015FF00282BD13D49380022005F
:10B51000109111940CF023F86A46099615AB23CBD1
:10B5200023C223CB23C223CB23C23800149B1299FE
:10B53000139A0CF022F801230E930C9B3036013342
:10B540000C93D4E70B9832000D9910300EF090FE5A
:10B5500004000B980EF05EFE002C9ED120002BB054
:10B56000F0BD6A46099621AB23CB23C223CB23C26D
:10B5700023CB23C238001E991F9A209B0BF0FDFF9E
:10B58000DBE7E6433021F61726404E430F9B9E191A
:10B590000E9B002B1CD10B9B981E05F045F9A04279
:10B5A0002CD01749013438002200109111940BF06F
:10B5B000D6FF6A46099615AB23CB23C223CB23C201
:10B5C00023CB23C238001299139A149B0BF0D5FF9A
:10B5D00038000D990BF0A7FF80235B0559690C23F8
:10B5E0000B9A133963434A433800110002330D9A12
:10B5F0000BF0A5FF0024B1E7024CAFE7024CADE72A
:10B60000FECA000017FCFFFF13FCFFFF70B504002B
:10B61000A280FA22002308000C4992000831216020
:10B62000A3710B496061E260A36063820BF0C4FF09
:10B63000051E09D0010020000222103112300EF048
:10B6400025FE28000EF0E6FD200070BD94A6020045
:10B6500070B4020030B502258379040087B02B4214
:10B6600004D1FDF7D3FCA3791D43A57120000BF095
:10B67000E9FF00281CD06B46DD1C28000BF0D9FF29
:10B680002B78002B17D001A80BF0D1FF0321019AD2
:10B69000D3170B409B189B102382FDF70DFFE36827
:10B6A000A18818180123A0601A0002A80AF014FD4E
:10B6B000002007B030BD0122064B1A60064A5168CF
:10B6C0000029FCD000215160044A12680192012235
:10B6D0005A60DBE700C00040FCC0004008C50040E5
:10B6E000022802D10122014B1A7070476528002000
:10B6F00070B5064D04002B78002B04D1044801F0EE
:10B700000DFE01232B70200070BDC046662800206E
:10B71000E1B6010070B50C000AF019FB002810D04A
:10B720000023144DA40A2B7020000BF0B2FF002858
:10B7300003D00A200EF03EFCF6E72B78002BFCD05D
:10B7400070BD02210C4B0D4A99508021C9000800A0
:10B750005D58002DFCD0A121C9005C50195800296A
:10B76000FCD0002199508021C9005A58002AFCD0F1
:10B77000E6E7C0466528002000E00140040500001F
:10B78000F8B50C0015001E000AF0E1FA002811D0EF
:10B790000023174F3B703200290020000BF077FF89
:10B7A000002803D00A200EF005FCF4E73B78002BBC
:10B7B000FCD0F8BD01220F490F488C464250802230
:10B7C000D2008358002BFCD080270023FF009E422C
:10B7D00007DD9A00A958A150C259002AFCD00133B4
:10B7E000F5E7002362468350C359002BFCD0E0E705
:10B7F000652800200405000000E00140084B80009F
:10B80000C018A2230322DB0010B50649C458214307
:10B810002243C150C046C046C046C25010BDC046BB
:10B8200000600040031F000010B50400034B083304
:10B830000360FDF777FE200010BDC046ACA60200F5
:10B84000F8B5A02303223049DB055A5004315A5081
:10B8500080212E4A8905995080210127A225C905FA
:10B860002B4C99502B4BED00E75063592A492B4E36
:10B870000B40635162592A4B002013436351FFF779
:10B88000BDFFA359244938000B40A351A259254BB1
:10B890001343A351FFF7B2FFC046C046C046224B38
:10B8A000224A23495A51A322D2009C519950214A3D
:10B8B000214922485A5004315850214921485C50AE
:10B8C0000431585020495A500F2220495A50204BD9
:10B8D000104A9F5000225A5004315A5002325A5195
:10B8E000A8223221D200DF6099501A4A01399950BA
:10B8F000043232319950184AC919995080225C3962
:10B9000092009950F8BDC046740700000C05000075
:10B9100000600040FC0F0000FFE0ECFF1405000099
:10B92000001D0300001E130000F0014040A1004074
:10B9300044A10040046000401C05000048A10040F4
:10B94000240500004CA100402C0500000405000067
:10B9500000A00040440500004C0500000023154AEB
:10B9600010B508320260EE21A022838083710400AA
:10B970000320D205C900505080200F494005505087
:10B9800032220E4920000A700D490A700D490A70D2
:10B99000FA210D4A090113700C4A118001210C4A49
:10B9A00011700C4A1370FFF74BFF2000FDF79CFD50
:10B9B000200010BDACA602000C0500006828002085
:10B9C000692800206A2800206B28002048280020D1
:10B9D000672800206C28002010B50400034B0833B2
:10B9E0000360FDF79FFD200010BDC046C4A6020005
:10B9F000F7B501210C008368314A9C40A023DB0588
:10BA00009C503224013CC046C046C046C046C04699
:10BA1000C046C046C046C046C046C046C046F1D13A
:10BA2000050011350195A1250400ED00AC460D344B
:10BA300007250E008768BE4027782F410F4231D07E
:10BA40006746DE51C046C046C046C046C046C046F6
:10BA5000C046C046C0469E50013DEAD2019D013419
:10BA6000A542E5D1012381688B40A021C9058B50F7
:10BA70003223013BC046C046C046C046C046C04611
:10BA8000C046C046C046C046C046C046F1D1827BD3
:10BA9000437B017C9B18C27B52189B185A1E934112
:10BAA0004374F7BD6746DE51C0469E50C046C0464F
:10BAB000C046C046C046C046C046C046CCE7C046A9
:10BAC0000C050000F8B504002500260006A8007843
:10BAD000277B6273A173E37320740D3511362878C8
:10BAE000784307F0CBFC0022064B06F0ABFB05F0D9
:10BAF0006BF828700135AE42F1D12000FFF778FFD6
:10BB0000F8BDC04600E06F40F7B5002317000126DE
:10BB1000224A8380083202600A0083710400816037
:10BB20000773A02003258E40C132FF32C00592006A
:10BB300015501B4A250086506373E381238223003E
:10BB400011330D35009301922878784307F096FC65
:10BB5000144B002206F076FB05F036F8009B2870A7
:10BB600001359D42F0D1A023019ADB059E5032237E
:10BB7000013BC046C046C046C046C046C046C0465F
:10BB8000C046C046C046C046C046F1D120000BF0BA
:10BB900096FD2000FDF7A8FC2000FEBDC4A6020013
:10BBA0000C05000000E06F4010B50400054B0833A1
:10BBB00003601C300AF0F7F9200018300AF0F3F99E
:10BBC000200010BDDCA60200FF23F0B52C4E8DB086
:10BBD0003370002301AD040029000088019303F0B5
:10BBE00061FF002801D1AB783370264D2B68DB68EC
:10BBF000002B07D1002320881A0019000BF070FDDC
:10BC00000DB0F0BD3378032BF4D81F496846FDF71B
:10BC100097FC2B686946DD6804A80AF019FA280029
:10BC200004A90BF0F8FC0027050004A80AF0BBF9F2
:10BC3000BD421ED029002022103104A80EF026FBA0
:10BC400028000EF0E7FA317804ABC9005918082231
:10BC500002A80EF01BFB01230822208802A90BF08A
:10BC60003FFD0137002804D10C212088074A0BF042
:10BC700035FD68460AF097F9002FBBD0C0E7C046F3
:10BC800080200020C025002078B40200FFFF0000C3
:10BC9000F0B58379040091B05B071BD5FDF70CFC70
:10BCA00000232269801A9941994203D1F533FF3369
:10BCB00098420FD3A068002808D0354B1D880CF09F
:10BCC00010FF0368152229001B6A98470422A379F4
:10BCD0009343A371A3799B0758D52E4E3368DB6835
:10BCE000002B4FD02C4F3B78032B4BD8284B2B49A4
:10BCF0001B8804A80193FDF723FC336804A9DD68C1
:10BD000008A80AF0A5F908A928000BF084FC050092
:10BD100008A80AF048F9082302AAD3800198073B33
:10BD2000063206A90BF0DEFC002D08D029002022E7
:10BD3000103108A80EF0AAFA28000EF06BFA3D7830
:10BD400002ABDA88ED0008AB5D19280006A90EF0F9
:10BD50008FFA002813D00822280006A90EF096FAC0
:10BD6000336804A9DD6805A80AF072F920232800C9
:10BD700008AA05A90BF055FC05A80AF014F904A8B7
:10BD80000AF011F90222A3799343A37111B0F0BD17
:10BD90004A280020C02500208020002078B402001E
:10BDA00070B5036804000D1E09D15B699847FA203D
:10BDB00080006843074904F037FDE08070BD9B6850
:10BDC0009847A842F3D9236820009B68984705004C
:10BDD000EDE7C04671020000F0B50400150085B023
:10BDE00001930AAB1F880BAB1B78461C02930EAB6A
:10BDF0001B78102203930B7803704B8A0131438226
:10BE000030000EF043FA656100250122019B278373
:10BE10006383039BE5832377029B2000F377A31CB6
:10BE2000DA770C9B0C26636223000D9A28332900D5
:10BE30001A705D7032009D702C300EF043FA2000B5
:10BE4000064B3200A3632900E56340300EF03AFA56
:10BE50002000034B2565E36405B0F0BDFB760200CE
:10BE6000ED760200F0B507001500A1B002C706008C
:10BE70006B4918A81C000BF001FD2B1E03D02800F5
:10BE80000EF060FA83B20122049200220392029221
:10BE90000232019200932A0018A93800FFF79CFF94
:10BEA00033006049583318A807930BF0E7FC231EB2
:10BEB00003D020000EF046FA83B201220492002241
:10BEC00003920292023201920093220018A907986D
:10BED000FFF782FF33005449AC3318A808930BF0E6
:10BEE000CDFC269B002B03D018000EF02BFA83B25A
:10BEF00001220492002203920292023201920093E4
:10BF0000269A18A90898FFF767FF731CFF33474963
:10BF100018A809930BF0B2FC279B002B03D0180044
:10BF20000EF010FA83B2012204920022701C0392D8
:10BF30000292023201920093279A18A9FF30FFF76C
:10BF40004BFF33005533FF33394918A809930BF0E1
:10BF500095FC289B002B03D018000EF0F3F983B258
:10BF60000122049200220392029202320192009373
:10BF7000289A18A90998FFF72FFF3300A933FF3338
:10BF80002C4918A80A930BF079FC299B002B03D0AD
:10BF900018000EF0D7F983B201220492002218ACE7
:10BFA000039202920232019200932100299A0A9888
:10BFB000FFF712FF204B1B780B93002B2DD1079B13
:10BFC0001E491393089B0DA81493731CFF331593FC
:10BFD000099B129716930A9B12AD17930BF04EFC18
:10BFE0001D21492006AB1B7F1022237006ABDB8D81
:10BFF000638206ABC918C0180EF048F906232375F2
:10C000000B9B3068A383A5610CF06FFD03682100D2
:10C010001B6898470122084B1A70300021B0F0BD10
:10C02000292A0000242A0000252A0000272A0000CF
:10C03000262A0000282A00006D2800200A18000087
:10C0400070B5002504000A4B8580083385710360B4
:10C05000C1601830FDF7AEFA20001C30FDF7AAFAD7
:10C06000044B20001C600123A5606561A37170BDB5
:10C07000DCA60200C0250020FA2130B585B00400FE
:10C0800001230222684689000AF026F8074D286835
:10C09000002809D00BF02BFC2188054B2A68198059
:10C0A000022391790B43937105B030BDC025002068
:10C0B0004A28002010B50C0007290FD880680CF022
:10C0C00010FD074B195703685B6C98474342584172
:10C0D000044B40421840044BC01810BD0348FCE715
:10C0E00087B50200EA03000016FCFFFF17FCFFFF04
:10C0F000F0B5984C0D00A544040096AB1B7896490A
:10C1000008A807930692FDF71BFA200029001C30AF
:10C1100009F0A6FF914909A8FDF712FA90490AA86B
:10C12000FDF70EFA0CAE09AA08A90BA809F0A7FFA3
:10C130002A00300011AD0BA909F0A1FF0AAA3100B5
:10C14000280009F09CFF290008A809F089FF2800B1
:10C1500009F029FF300009F026FF0BA809F023FFA2
:10C1600008200EF05BF80700002100F0BDFF082258
:10C170000021A7600DA80EF0A5F800230C932B005A
:10C1800007CE07C3774B2900EB60002338002B61F3
:10C190000CF090FCA0680CF0A4FC08220021059093
:10C1A00012A80EF08FF814200EF038F86E4B2A000B
:10C1B00011930300C2CAC2C36C4B059EC360002327
:10C1C000A43603613368002B00D0BDE03060A06866
:10C1D0000CF08BFC08220021060012A80EF072F869
:10C1E00014200EF01BF8624B1193030086CD86C31A
:10C1F000604BC36000230361336B002B00D0A5E0CC
:10C200003063A0680CF06DFC08220021059012A894
:10C210000EF058F814200EF001F8574B11AE1193A0
:10C2200032000300A2CAA2C3544B059DC360002381
:10C23000983503612B68002B00D089E0286001202D
:10C2400004AB1B7F04AA03430BA913770BF04CFA32
:10C25000A0680CF04EFC036849495B6A9847A068E7
:10C260000CF047FC036847499B699847A0680CF0AD
:10C2700040FC454A036800921D6800231A0019001B
:10C28000A847079B002B0AD020000BF039FB03289E
:10C2900005DDA0680CF02DFC0368DB6898470621DB
:10C2A0002000FFF707FF394B394A1B68A168039349
:10C2B000384B30001B6800250293374B1B680193F5
:10C2C000069B1B6804330093344B12681B68FFF70E
:10C2D000C9FDA0680CF005FC03680CA99B6A98478F
:10C2E000082304AA1384A068DB18538495840CF0F7
:10C2F000F8FB03680CA9DB6A98470621A0680BF0DD
:10C30000C9FA089A09219378A06804320BF0D5FA8B
:10C31000A0680CF0E6FB0571A0680CF0E2FB32218E
:10C32000FFF73EFDA0680CF0DCFB0BF09DFA0AA8BD
:10C3300009F039FE09A809F036FE08A809F033FE15
:10C3400091239B009D44F0BD03613FE7036157E7E4
:10C35000036173E7BCFDFFFF84B40200A8B40200D0
:10C3600092B402000977020079C001001777020039
:10C37000C9BB010025770200537702003377020022
:10C38000A1C30100D5C3010094B40200BC25002064
:10C39000B825002008200020B42500200C20002013
:10C3A00013B506226846FDF7DBF8094B1C68002C24
:10C3B0000AD0694601A809F04BFE200001A90BF044
:10C3C000C0FA01A809F0EFFD684609F0ECFD13BDC5
:10C3D000C0250020002373B501AE0C00310005001C
:10C3E000019303F05FFB002802D1B278064B1A706C
:10C3F000064B1868002806D061426141044BC9B25F
:10C400001D800BF0A6FA73BD80200020C0250020FF
:10C410004A280020F0B504008BB00F0005A87D4924
:10C420000392FDF78DF87C4906A8FDF789F82200F4
:10C4300005A91C3209A809F022FE06AA09A907A825
:10C4400009F01DFE09A809F0AEFDA0680CF049FB3B
:10C45000036800255B699847A0680CF042FB030065
:10C4600006000A331F220021180002930DF02AFF54
:10C47000029B3000DD770BF0EEF90621A0680BF08F
:10C4800009FA079A09219378A06804320BF015FA8B
:10C49000A0680CF026FB0571A0680CF022FBC821F7
:10C4A000FFF77EFCA0680CF01CFB0581A0680CF077
:10C4B00018FB0BF0D9F93800FEF7C4F93900200059
:10C4C0000BF05AFA2000FCF7A1FD0295FF356269D6
:10C4D000012316001E401A422DD0504908A8FDF72E
:10C4E00009F908A909A809F027FE002209A91300E3
:10C4F000019200923800FEF7A1FA09A809F00FFE98
:10C50000029B002B41D1043D282D40DC38000AF06D
:10C5100089FC002D00DC029603980AF061F90028DE
:10C5200006D0012362699A43130004221343636116
:10C5300008A809F0F4FD04226369134230D0FF21FA
:10C540003800FEF7FFFA0026A36902229B5EB34281
:10C5500022DD200031B2183009F0A7FD00230100D0
:10C5600038001A007430FDF715F9C8208000FCF778
:10C57000EBFD38000AF056FCC820FCF7E5FD02226E
:10C580006369134208D10136DEE70435BCE7FE2DAE
:10C59000C2DD00230293BFE7FA208000FCF7D4FD40
:10C5A0000222636913421DD01E0006321640134258
:10C5B0001CD01B4908A8FDF79DF808A909A809F097
:10C5C000BBFD002209A91300019200923800FEF77A
:10C5D00035FA09A809F0A3FD1248FCF7B5FD08A833
:10C5E00009F09DFD6420FCF7AFFD70E70E4908A837
:10C5F000FDF780F808A909A809F09EFD3300320074
:10C6000038000196009609A9FEF718FA09A809F062
:10C6100086FDE4E79BB4020092B40200ABB40200D2
:10C62000F0B40200983A00002DB50200F0B587B0D2
:10C6300001930EAB1B88060003930D9B0D00009326
:10C64000019B0C9F0292002B3CD0002F02D1009B3B
:10C65000DB0737D528200DF0E1FD0400103009F08C
:10C6600031FD029B1820258063800DF0D7FD050069
:10C67000009B08220593019B002103600C30049766
:10C680000DF020FE082204A9281D0DF0FFFD0E4B21
:10C6900002226B6100230399E360236263623368C3
:10C6A0000A43300021005B68A560A28098470028FB
:10C6B00006D0200009F02BFC20000DF0ABFD034854
:10C6C00007B0F0BD0248FBE7037A020016FCFFFF4B
:10C6D00017FCFFFFF0B50700F5B0016042608E491E
:10C6E00000225FA80BF0CEF93B000833002401269E
:10C6F000122506930623069A0496019500935FA9D6
:10C7000023000394029420A8FFF766FB22008349CC
:10C710005FA80BF0B7F93B000E3307930195103D6E
:10C7200023000095079A04965FA90394029435A804
:10C73000FFF752FB22007A495FA80BF0A3F93B00F8
:10C74000103308930A230095089A18AD04960193B4
:10C750005FA92300039402944AA8FFF73DFB22003F
:10C76000280070490BF08EF93B001233099318230F
:10C770002900099A049601930096230003940294D9
:10C780005FA8FFF729FB7868BC60FC600AF09BF9A2
:10C79000722304AA9B18DE77C6239B18DE778D23AD
:10C7A0005B009B18DE77B7235B009B18DE7720AB1E
:10C7B0000F9335AB10934AAB22005B49388211933B
:10C7C000BC745FAB13A812930BF05CF93C223D21C3
:10C7D000512004AB9B181B7812322B7004AB9B18B2
:10C7E0001B883E3A6B8204ABC918C0180DF04EFD91
:10C7F00004232B750FABAB61AC8338680CF075F973
:10C80000036829001B6898478E2204AB9B181B887D
:10C810005432BB8204AB9B181B885432FB8204AB9E
:10C820009B181B8854323B8304AB9B181B883868C9
:10C830007B830CF05AF90368B98A5D69069A06236E
:10C84000A84738680CF051F90368F98A5D69079ABE
:10C850000223A84738680CF048F903680094398B24
:10C86000DD68089A0223A84738680CF03EF903688F
:10C870000094798B099ADD683300A84738680CF07A
:10C8800034F9060014200DF0C9FC0500274B0461A3
:10C89000082280C013A9139314940DF0F7FC244BC5
:10C8A000EB60B369A34234D1B561224E30680028F1
:10C8B0002CD000220C92C03202926A461E4D0BAB65
:10C8C0000B9512CB12C23B0004220521FFF7AEFEEE
:10C8D000002269460E92103202920D950DAB11CBDB
:10C8E00011C10B3A11003B003068FFF79FFE002298
:10C8F00014921032306802926A4613AB139512CB31
:10C9000012C23B0007220521FFF790FE380075B0E8
:10C91000F0BD2B61C8E7C046AFB502008FB502007D
:10C92000BFB502009FB50200CFB50200437A0200F6
:10C93000D9790200A0250020AD7B0200F0B50700E8
:10C94000C3B001604260674900222DA80BF09AF83D
:10C950003B000833002401260693122310AD069AEB
:10C9600004960193009623002DA90394029418A81D
:10C97000FFF732FA220028005B490BF083F83B00F6
:10C980000A3307930A230193083B2900079A049668
:10C9900000930394230002942DA8FFF71DFA7868F2
:10C9A0003C720AF072FE5A2202ABD218D677AE223F
:10C9B00002ABD218D67718AA09922DAA4B497881D2
:10C9C0000A920BA822000BF05DF82421392002AA5C
:10C9D0005218137802AA2B70D38E89196B8202AB7E
:10C9E0001022C918C0180DF051FC02232B7509AB99
:10C9F000AB61AC8338680CF078F8036829001B68D9
:10CA00009847762202AB9B181B885432BB8102AB3D
:10CA10009B181B883868FB810CF067F8036800944A
:10CA2000B989DD68069A3300A84738680CF05DF8CC
:10CA300003680094F989079ADD680223A8473868DB
:10CA40000CF053F8060014200DF0E8FB0500284B0D
:10CA50000461082280C00BA90B930C940DF016FC06
:10CA6000244BEB60B369A34239D1234BB5611E68F7
:10CA7000002E31D028200DF0D1FB0400103009F039
:10CA800021FB1E4B182023600DF0C8FB002205007F
:10CA90001B4B00210C92076008320C300B930DF0F9
:10CAA00011FC08220BA9281D0DF0F0FB154B0022EC
:10CAB0006B61C223A3803368E260210030005B68B1
:10CAC000A560226262629847002805D0200009F024
:10CAD0001EFA20000DF09EFB380043B0F0BD2B6124
:10CAE000C3E7C046DFB50200EFB50200FFB50200A4
:10CAF000457C0200DB7B0200A02500201C00010019
:10CB0000857C0200057C02001FB5084B1B68DB8B8F
:10CB1000834209D1064B68461A78064B06491A70BB
:10CB20000123032209F0D8FA05B000BDC425002076
:10CB30006E2800206F280020FF030000F0B51D00C4
:10CB4000ADB0040001610135143016000691FCF708
:10CB500031FDEBB21800079308F078FC0025013690
:10CB6000F6B26060300008F071FC4A4B2A001D707C
:10CB7000494B4A491D70079B2060A672E3722581CC
:10CB80000FA80AF07FFF01270C2322680497019366
:10CB900000963B000FA90395029517A8FFF71CF913
:10CBA0002A003F490FA80AF06DFF54200DF036FB14
:10CBB000202306000193079B6268049700930FA946
:10CBC0003B0003950295FFF707F9364B08961E6068
:10CBD0000AAE17AB2A003449300009930AF052FF1D
:10CBE00034213520337802AA52181370738A123117
:10CBF00002AA52181380253902ABC9181022C01896
:10CC00000DF044FB4821022302AA5218137050224F
:10CC100002AB9B1808AF159706981D800BF065FFB7
:10CC200003680FA91B689847722202AB9B181B88E8
:10CC30000698E3600BF059FF079014200DF0EEFA10
:10CC400007001A4B05610822310010C00A930B95AA
:10CC50000DF01CFB164BFB60079B9B69AB4217D189
:10CC6000079B06989F610BF040FF050008220021FA
:10CC70000BA80DF027FB0F4B0A932B006C3307CE4C
:10CC800007C30D4B2000AB670023EB672DB0F0BD51
:10CC90003B61E5E76E2800206F2800200FB60200F8
:10CCA0001FB60200C42500202FB60200F77C020048
:10CCB000CD7C020009CB0100BF7C0200054A0300C5
:10CCC0001178054A1278501A914201D9DB7AC018BE
:10CCD0007047C0466F2800206E280020F0B58DB048
:10CCE00002AF040039607A613B61002A00DCA2E0F7
:10CCF0003B69012B00D19EE027230025FB1800692A
:10CD00001D700BF0F2FE272203684D499B69BA188B
:10CD10000968984720690BF040F8022302001A4086
:10CD2000184236D12533FB181B78AB4200D185E081
:10CD3000FA6120690BF031F80223184275D02533CF
:10CD4000FB181B78FB60002B6FD03E4B6E461D78A6
:10CD50003D4B1B78BB60FB69BB6100237B60BB69FB
:10CD60007A69934217DAE17A681C03F0CDFEBB685A
:10CD70008B420AD0BA693B689B5C62685355FB6979
:10CD8000CDB20133FB61FB687B60BB690133BB61E2
:10CD9000E5E7FD61CDE77B68002B01D0294B1D70D5
:10CDA0002000FFF78BFF6A46C31DDB08DB00D31AA8
:10CDB0009D4602AB0200002105001800BB610DF08A
:10CDC00081FA204BE27A1B7820000193BB68009324
:10CDD000BB6961680AF0E6FF3B69022B03D10321BE
:10CDE0001A48FCF7DDF920690BF07FFEABB2002595
:10CDF000134A1268D18B02680095D2681500BA698F
:10CE0000A8473B69022B14D1FCF734F920690BF0D9
:10CE10006CFE272203680A499B69BA18096898477B
:10CE2000FB697A69B546934283DBBD46F8690BB06E
:10CE3000F0BDB546F9E7064BFB61F6E7054BFBE7AE
:10CE4000C42500206E2800206F280020FF0300006A
:10CE500017FCFFFF16FCFFFF002815D000604160A3
:10CE60008260C360046145618661C76144460462B3
:10CE70004C464462544684625C46C4626446046321
:10CE80006E46466374468463002A06D0C46B043C35
:10CE9000043A25681560B442F9D18C6BA6464E6BF6
:10CEA000B546002B06D0CC6B043C043B1D682560C6
:10CEB000B442F9D10C6BA446CC6AA3468C6AA24654
:10CEC0004C6AA1460C6AA046CF698E694D690C690F
:10CED000CB688A6808684968704700604160826072
:10CEE000C360046145618661C761444604624C4683
:10CEF0004462544684625C46C462644604636E467F
:10CF0000466374468463C46B043C043925680D6031
:10CF1000B442F9D1C7698669456904697047006000
:10CF200041608260C360046145618661C7614446B7
:10CF300004624C464462544684625C46C462644661
:10CF400004636C4644637446846304697047846B6D
:10CF5000A646446BA546046BA446C46AA346846AED
:10CF6000A246446AA146046AA046C7698669456923
:10CF70000469C368826800684168704710B5041E80
:10CF80000CD00DF0DFF9431EE318A34208D9227834
:10CF90001978013B21705A700134F6E7014810BD41
:10CFA0000020FCE717FCFFFFF0B585B00D1E0090D8
:10CFB00029D000260A27C217141A4B1E5440039387
:10CFC0002000029639000136019603F09DFDCB1733
:10CFD000C9185940039B303120009955390003F09E
:10CFE000ADFC041EECD1009B002B04DA2D23029E25
:10CFF000019A0236AB5400232800AB55FFF7BEFF61
:10D00000200005B0F0BD014CFAE7C04617FCFFFF59
:10D0100010B50400100048436160A26000280BDDD9
:10D02000074B984205DC80000DF00AF920602000D3
:10D0300010BD01204042F7E700232360F7E7C04618
:10D04000FEFFFF1F4A688B6870B58360534304007E
:10D050000D004260002B12DD0A4A9E003000934210
:10D0600001DD012040420DF0EBF800232A6820602A
:10D07000D158C1500433B342FAD1200070BD00230F
:10D080000360FAE7FEFFFF1F70B5002817D1124DAD
:10D090002E68002E11D108300DF0C0F806604660F1
:10D0A0000E4E04003368002B02D10CF06AFB306096
:10D0B00023682C609B00F3586360286870BD084AA1
:10D0C0000123116807480C001C401942F6D1036087
:10D0D00044601360F2E7C046CC250020D82500202C
:10D0E000C8250020D0250020002370B50400016071
:10D0F000436099420AD1064D2B68002B02D10CF0F7
:10D1000040FB286023689B00EB586360200070BDE3
:10D11000D8250020436810B50400002B02D1044834
:10D120000CF07BFE606803681B69984710BDC04621
:10D130003FB60200436810B50400002B02D104483A
:10D140000CF06BFE606803689B69984710BDC04691
:10D150003FB60200436810B50400002B02D104481A
:10D160000CF05BFE606803685B6A984710BDC046C0
:10D170003FB6020010B5040001F08EFC034B1B68A3
:10D18000002B01D02000984710BDC046E0250020AC
:10D19000F0B58BB0050002F0BFFA002000F018FFD8
:10D1A000036806001B699847336804009B693000D8
:10D1B0009847336801905B6A3000984702002888DE
:10D1C00010380B286CD803F01BFB06486B6B6B65A3
:10D1D0006B6B6B716B83AF88200039000BF032FEF4
:10D1E00022001623583216789C46143B3343A87904
:10D1F000697B1370012304AEB370002337803200C3
:10D200001F00AC44F070981801330771062BFAD157
:10D21000002791723A00F3190137DA72062FFAD11A
:10D2200063463A007361E91D05A80DF02FF8290047
:10D230000B2004AB3A000E31C0180DF027F89434DF
:10D240006368A360A06800282AD0C36831009847AB
:10D25000A368002BF4D01B69F3E720002E49AE88A9
:10D260000BF0F0FD2200022058321378A979834395
:10D27000137004AB1E809970A0346368A360A0682B
:10D2800000280DD0C36804A99847A368002BF4D0E8
:10D290001B69F3E75369002B02D0A888A91D9847A2
:10D2A000290001980BF042FF0BB0F0BD636E002B1C
:10D2B000F6D0AE79A366A06E0028F1D0C368310025
:10D2C0009847A36E002B01D1636EF3E71B69F1E76A
:10D2D000012669460D27AB7BEF575A071E40920F78
:10D2E000DB080A720B730622E91D04A80CF0CEFFBE
:10D2F0006A46127A04AB1A726A46127B9F715A729E
:10D30000DE712B0020000F338C34079380302368AC
:10D3100004A99847C4E7C046FFFF0000014B18600E
:10D320007047C046E02500201FB58022A323D20508
:10D33000DB00D3580820DB0700D4053048221D4B02
:10D340001D4901F0F5FD00280AD080B2002807D160
:10D35000BFF34F8F194B1A4ADA60BFF34F8FFEE7C6
:10D36000002302A8029301330370164B1B6843602D
:10D370000BF0C7FB002802D0072005B000BD6B46AC
:10D38000581C0BF0BCFB0028F6D16B46591C0BF067
:10D39000B4FB0028F0D10C4801F0FAFD80B200285F
:10D3A000EBD10A4801F0FEFD80B20028E5D100F083
:10D3B0009DFBE2E7078B0200E425002000ED00E082
:10D3C0000400FA05DC25002091D1010075D101008F
:10D3D00080B2002807D1BFF34F8F034B034ADA60B6
:10D3E000BFF34F8FFEE7704700ED00E00400FA0541
:10D3F000024B0B60092313607047C04662B60200FF
:10D4000010B50400002000F0E3FD03681B69984795
:10D410000300F3331C7086235B00C050030000211F
:10D42000044AFC335A61044A99615A62F4300CF0A0
:10D4300087FC10BD018D0200138D0200012110B583
:10D44000054A080002F062FB03005A1E93410B20BC
:10D450005B42184010BDC04601D40100F0B5050084
:10D46000040087B0AC356B68AB60A868002807D0B3
:10D47000C36821009847AB68002BF4D01B69F3E721
:10D480002600B0363568002D05D02F6928000CF035
:10D49000C1FE3D00F7E722000321583213783560C2
:10D4A0008B431370260023000A365C331F222900A9
:10D4B00030001D700CF006FFF5772A361F22290078
:10D4C00030000CF0FFFEF577606E002804D005698F
:10D4D0000CF0A0FE2800F8E7250098356066286863
:10D4E000002804D006690CF095FE3000F8E726000D
:10D4F000A43628603568002D05D02F6928000CF06F
:10D5000089FE3D00F7E729003560082202A80CF0EB
:10D51000D9FE01AE2300320001956C3383CA83C368
:10D52000094B08222900A367E56702A80CF0CAFE90
:10D5300023000195803307CE07C32800034A9034A7
:10D540001A60256007B0F0BDF38C0200E58C020084
:10D55000F0B593B0029000200C0000F039FD036894
:10D560005B6A984700F0F8FD030006A8002B0DD079
:10D570000023037105AB0693082303730AAB836092
:10D5800000F0B4FE002803D013B0F0BD03710373A4
:10D590000023237323710193029B019ABA331B78F2
:10D5A00093423ED9072353431E00029ABB36D31839
:10D5B000BB331B789619022B2CD1002506AF3B7B81
:10D5C000AB4220D9AB000393089BAA0030009958C6
:10D5D0000CF03FFA00281AD0B868AB00C118237BC2
:10D5E000A6689C469A000B689351634601332373E7
:10D5F0003B7B5A1E954204D00B4D5B199B001B5878
:10D600000B6006AB1A73019B0133DBB2C3E7013534
:10D61000EDB2D3E7237921689A0001335650237184
:10D62000F1E70020B0E7C046FFFFFF3F02000878A7
:10D6300010B5012816D04B8803280ED1A03B0A4C08
:10D640009BB2A34208D880238C880320DB019C4234
:10D6500002D210000BF0FCFB10BD203B0320034C5A
:10D660009BB2EEE70220F7E7603F0000E03F0000DA
:10D67000F0B59DB01E006B4605005A70981C06223E
:10D680005F1C02AC0CF002FE002E2FD033882380EA
:10D6900073886380B388A380F388E3800CAB049322
:10D6A00014AB6A4606932E000023B9361375137720
:10D6B0003378002B22D101223378022608A91340A7
:10D6C00058000B78B3430343229804AE4E60002801
:10D6D0001CD12800323000789343104003430B7074
:10D6E000AB8D0B81EB8D4B812B8E1DE03223238084
:10D6F000DB186380F533A680FF33CEE7280004A94A
:10D70000FFF726FF0028D6D01DB0F0BD2298934326
:10D710008079104003430B70229B1B880B81229B56
:10D720005B884B81229B9B88220038008B810BF009
:10D7300010FA031EE8D0112814D80B20032BE3D9CC
:10D74000181F0D280CD803F05BF8150B0B09070BFD
:10D750000B0B0B0B0B0B09130620D5E70420D3E7AB
:10D760000B20D1E7044A0B209342CDD10738CBE7F9
:10D770000520C9E70720C7E70232000013B5046897
:10D780000093A46813000A000149A04716BDC046D3
:10D79000FFFF000037B506AC2578046801950093BB
:10D7A000246913000A000149A0473EBDFFFF0000A5
:10D7B000F0B587B016000DAA0D00147800216A4656
:10D7C000518069460CAA128801930A80002C1AD154
:10D7D00001004279F831A2420BD9E700CF5BB74292
:10D7E0001BD130212034A40022580132D27F0A42BA
:10D7F00015D16A46310028000BF063FB0623002890
:10D8000008D0032306E06A46310028000BF059FBDC
:10D81000031EF6D1180007B0F0BD0134DBE710217C
:10D820000A4051424A41002005930CAB0493194B26
:10D8300002AC01322680A270A0809D4207D100F088
:10D84000C7FB03681B6998470BF0FFFA050021002E
:10D8500028000BF03AFB002382B29A42DAD0100083
:10D860000D4A05339042D5D00FD801330828D1D0C6
:10D87000013B1128CED06A46310028000BF021FB75
:10D8800005230028C6D0023BC4E7044A0623904281
:10D89000C0D0F0E7FFFF00000330000001340000BB
:10D8A000F0B5040099B008002E250C9100F002FCA0
:10D8B00006ABED1812902A00012012A90BF0FFFA16
:10D8C000002802D0032019B0F0BD2B880C9A0B90D1
:10D8D00093830C9B0B9A1B7D934200D8C6E063791F
:10D8E0001D2B01D90720EEE70C9B9B690D930B9B29
:10D8F0000D9A9B009D586B69002B07D16B8B002BF9
:10D9000004D16B1CDB7F022B00D1AAE0280000F0C1
:10D91000D1FB2B000026283312900E960D960F9304
:10D920000F9B1B78B34221D96A6AB3009F583422F7
:10D9300006AB9B1800221A701300002113AA9A1834
:10D9400001335170102BF8D1462206AB9B184A4A7E
:10D9500038001A8013A90BF037FB002803D07B692D
:10D960000D937B8B0E930136F6B2D9E76179AB1C30
:10D970001F31C90061186A1CDB7FD27F0891290022
:10D980002A31097800200791290029310978069168
:10D990000E9905910D990491297F0391298B02918C
:10D9A000698B01916969009112A90BF02CFF002885
:10D9B00000D087E7637907001A00203292001F33F6
:10D9C0001551DB001B5BEB836379013363712B0023
:10D9D00028331B78BB4244D98E239B00E35C132B76
:10D9E00000D97FE76A6ABB009E580023180013A97C
:10D9F0000B705A1801335070102BFAD11E4B3000A7
:10DA00004B820BF0E1FA0D90002827D1300000F096
:10DA100051FB8E218900625C738B1E32FF325200F3
:10DA2000A2180292327F12900192328B0D980092CE
:10DA3000726912A90BF08CFF002800D042E78E21FA
:10DA40008900625C531CDBB263541D337A32FF33AE
:10DA500092005B001651E3185B88F3830137FFB235
:10DA6000B5E70B980130C3B20B9332E7237900205E
:10DA70000133237127E7C0460129000070B50C224D
:10DA80000D00002104000CF01DFC00232361024B5B
:10DA900020002560E36070BDBF7C020070B505000A
:10DAA0000BF0AEFA041E1DD1280078222100803030
:10DAB0000CF008FC2800E93050222100FF300CF067
:10DAC00001FC280008222100F8300CF0FBFB064B7B
:10DAD0002822E81821000CF0F5FB8E239B00EC5463
