:020000021000EC
:1080000000400020C9F7010005F8010007F8010051
:108010000000000000000000000000000000000060
:1080200000000000000000000000000009F801004E
:1080300000000000000000000BF801000DF8010036
:108040000FF801002DB00100C5FE01000FF801007E
:108050000FF8010000000000E1F801000FF8010036
:108060000FF80100AD0002004DFD01000FF8010006
:108070000FF801000FF801000FF801000FF80100E0
:108080000FF801000FF801000FF801000FF80100D0
:108090000FF8010045DE0100D5EA01000FF80100EC
:1080A0000FF801000FF801000000000000000000C0
:1080B00000000000000000000000000000000000C0
:1080C00010B5064C2378002B07D1054B002B02D0AE
:1080D000044800E000BF0123237010BDB020002041
:1080E00000000000BCAE0200044B10B5002B03D012
:1080F0000349044800E000BF10BDC0460000000076
:10810000B4200020BCAE0200164B002B00D1144B53
:108110009D46402292029A1A924600218B460F46B3
:108120001348144A121A11F0CFFC0F4B002B00D049
:1081300098470E4B002B00D09847002000210400E8
:108140000D000D48002802D00C4800E000BF0CF0E4
:10815000BFFE2000290011F0ADFA0CF0A3FEC046CE
:1081600000000800004000200000000000000000A7
:10817000A8200020242900200000000000000000AA
:1081800010B50400034B036040300DF072FC20007A
:1081900010BDC046489D0200F0B585B01F000AAB77
:1081A0001B880600150002910393002F1CD0282085
:1081B00001F0BCF86B4604001989039BAAB2009336
:1081C0003B000DF0F4FB3368210030005B689847FA
:1081D00000280AD0002C05D020000DF0FEFB200066
:1081E00001F0BEF8024800E0024805B0F0BDC0460C
:1081F00016FCFFFF17FCFFFF0022104B00B5FF210C
:108200001A70662389B01A0000910D4803F0E8FA4D
:108210000C4907A801F08EF9C82207A952000A48A4
:1082200002F08CFA07A80DF024FC084800F086FF45
:1082300007480DF054FA09B000BDC0466028002080
:10824000F424002060A90200C4210020881300004B
:10825000D820002070B5104D28000EF094FA0F4C75
:1082600020600A2000F06AFF28000EF08CFA60609F
:108270000A2000F063FF09CC98420ADD0AF064FE90
:10828000074A084B0AF02CF80BF084FA0AF026FE95
:1082900070BD1800F2E7C046C4210020CC200020A9
:1082A0000EBE30992A18D93F37B50321684607F02A
:1082B000AFFA64240025684607F0EEFA104908F08A
:1082C00039FE09F019F97E2802DD854200DA050041
:1082D000013C002CEFD128000AF036FE094A0A4B77
:1082E00009F0FEFF0022094B0AF066FA0AF0F6FDDB
:1082F000002801DA20003EBD6428FCDD6420FAE796
:1083000000007F43333333333333E93F00005940B8
:10831000F7B501211E480DF06EFE0AF015FE0400AF
:108320000D001B4801210DF079FE0AF00DFE06003C
:108330000F00174801210DF084FE0AF005FE22000F
:10834000009001912B002000290009F0C9FF3200A4
:108350003B0004000D003000390009F0C1FF0200AD
:108360000B002000290009F069F9009A019B0D001B
:1083700004001900100009F0B3FF02000B002000F8
:10838000290009F05BF90BF0D9FA0AF0A7FDFEBD50
:108390009C220020F0B50124022597B0BB4915A806
:1083A00001F0C8F8782215A9B94802F02FFA15A8EB
:1083B0000DF05FFBB7480EF025FEB74B1C70B74EB3
:1083C000B74907A8376801F0B5F8FFF76DFF01005E
:1083D00008A80DF06AFB08AA07A909A80DF0B5FBCB
:1083E000B0490AA801F0A6F80AAA09A90BA80DF03D
:1083F000ACFBAD480EF0E0FD01000CA80DF055FB04
:108400000CAA0BA90DA80DF0A0FBA8490EA801F01D
:1084100091F80EAA0DA90FA80DF097FBFFF71AFF10
:10842000010010A80DF041FB10AA0FA911A80DF032
:108430008CFB9F4912A801F07DF812AA11A913A87C
:108440000DF083FB9B4801F08DFC010014A80DF09A
:108450002CFB14AA13A915A80DF077FB2A0015A967
:1084600038000FF006F815A80DF003FB14A80DF066
:1084700000FB13A80DF0FDFA12A80DF0FAFA11A8EE
:108480000DF0F7FA10A80DF0F4FA0FA80DF0F1FABC
:108490000EA80DF0EEFA0DA80DF0EBFA0CA80DF0F9
:1084A000E8FA0BA80DF0E5FA0AA80DF0E2FA09A81F
:1084B0000DF0DFFA08A80DF0DCFA07A80DF0D9FAE4
:1084C000142000F03BFE33687B490BA8019301F0B8
:1084D00031F87A4F210038000DF08DFD01000CA815
:1084E0000DF0E3FA0CAA0BA90DA80DF02EFB7449B0
:1084F0000EA801F01FF80EAA0DA90FA80DF025FB7C
:10850000210038000DF08AFD010010A80DF0CDFA11
:1085100010AA0FA911A80DF018FB6A4912A801F0C2
:1085200009F812AA11A913A80DF00FFB21003800B9
:108530000DF087FD010014A80DF0B7FA14AA13A9D5
:1085400015A80DF002FB2A0015A901980EF091FF65
:1085500015A80DF08EFA14A80DF08BFA13A80DF0E3
:1085600088FA12A80DF085FA11A80DF082FA10A869
:108570000DF07FFA0FA80DF07CFA0EA80DF079FA35
:108580000DA80DF076FA0CA80DF073FA0BA80DF0FB
:1085900070FA142000F0D2FD4B4909A8366800F0AB
:1085A000C9FFFFF7B5FE01000AA80DF07EFA0AAA7E
:1085B00009A90BA80DF0C9FA44490CA800F0BAFFAC
:1085C0000CAA0BA90DA80DF0C0FA41480DF0BFFD93
:1085D00001000EA80DF069FA0EAA0DA90FA80DF062
:1085E000B4FA3C4910A800F0A5FF10AA0FA911A8E1
:1085F0000DF0ABFA38480DF0AAFD010012A80DF0FD
:1086000054FA12AA11A913A80DF09FFA334914A81D
:1086100000F090FF14AA13A915A80DF096FA2A00ED
:1086200015A930000EF025FF15A80DF022FA14A8A8
:108630000DF01FFA13A80DF01CFA12A80DF019FA8C
:1086400011A80DF016FA10A80DF013FA0FA80DF0EE
:1086500010FA0EA80DF00DFA0DA80DF00AFA0CA8EC
:108660000DF007FA0BA80DF004FA0AA80DF001FAB4
:1086700009A80DF0FEF9322000F060FD064B1B78D2
:10868000002B00D09BE617B0F0BDC04664AE0200E0
:10869000C4210020F42400206028002010250020A0
:1086A00062A9020065A902005023002068A9020007
:1086B0006BA90200002300206EA902009C2200206A
:1086C00072A9020076A902007AA902007EA902001E
:1086D0003C22002082A902006422002086A9020018
:1086E000F7B5194DFA26280000F072F9174801F085
:1086F00039FB0A2310270093F5331A001900144898
:1087000003F06EF8134CB6003100009701222000F0
:10871000114BFFF741FD31000222104B0097200062
:10872000FFF73AFD1C2000F001FE83212023040006
:10873000C9001A00695803F021FE094B1C6000F0C3
:1087400079FD0020FEBDC046D82000200023002077
:10875000F4240020A821002095830100F981010064
:108760001025002070B50A4C200000F05FF8094D7C
:1087700020002A00084911F048F9084C0849200057
:1087800000F0D8FE2A002000064911F03EF970BD25
:10879000D820002000200020A9870100D42000203C
:1087A00088A90200735A0200862310B50400DB007A
:1087B000C01802F0C7FE1B4BE01802F09BFFF42329
:1087C000194A9B00E2501C33E0180DF052F9FA23CD
:1087D0009B00E0180DF04DF98A239B00E01801F092
:1087E00029F92000C530FF3000F030FF20008D3027
:1087F000FF3001F0E7F820006530FF3001F0E2F8CB
:108800002000EC3001F0B2FD2000D03002F086FAFA
:108810002000643006F022FF201DFFF7B1FC20008D
:1088200010BDC0461C040000DC9E0200F0B51425FB
:10883000040097B019222B0000951821043002F093
:1088400045FC23002700260064331800B4371321A9
:108850001393B83606F00EFF38000EF053FB2900D4
:10886000132230000DF0A3FF2000D03002F076FA82
:108870002300EC3306211800514A149301F09EFDA9
:10888000200000236530009301331A001121FF30CE
:1088900001F0A4F8200000238D3000930222102163
:1088A0000133FF3001F09AF82000B5301A2302227C
:1088B0000121FF3002F010FB2200C532FF3212927C
:1088C000310004231822129800F0CCFE8A22920074
:1088D000A218159205231D223100019300923B003E
:1088E000129A159801F0AAFA9B229200149B1599EE
:1088F000A018129A01F076FC9E2292003900A0186E
:108900001C2202F011FD3223A4221093193B0F9375
:10891000013B0E93013B0D93013B0C93013B0B93E9
:10892000023B0993023B0793013B0693013B0593EE
:10893000013B0493013B0393013B0293013B0A95E6
:108940000193023D9200013BA01800930822013BD5
:10895000072108950DF033FFF42292003900A0188A
:1089600003F0FCF9FC229200A0181D2102F0FAFA93
:1089700083230026DB00E650124B28222900E01852
:1089800002F050FF8623DB00E01802F075FE13981A
:108990000321267010F062FD2300220020000A4906
:1089A0009C33A0321C6011605660084A02215A6153
:1089B0008030012207F046F8200017B0F0BDC04615
:1089C000509D02001C040000DF56020011570200F7
:1089D000F0B502780123170004008BB01F401A4243
:1089E00000D0A9E0C530FF300DF061F92300D0338D
:1089F0001800039300F064FA00F092F9282000F0C8
:108A000095FC050010300DF0C3F84C4B18202B607E
:108A100000F08CFC06004A4B0822089339000997A5
:108A200004600C3011F050F808A90822301D11F034
:108A30002FF8444B2900736112230398AE60EF6056
:108A4000AB802F626F6202F001F9002805D0280088
:108A50000CF0C3FF280000F083FC012500272378D9
:108A600064202B43237000F069FB059526006536D2
:108A7000FF3630000DF06BFB00283CD020008D301D
:108A8000FF300DF064FB002835D00A2F33D064206E
:108A9000013700F053FB0A2FE8D1F4239B00E518BF
:108AA0004833E3580493002B1ED100F059F801001D
:108AB00007A800F03FFD08A80CF08EFE059B08AA51
:108AC00007A928000093039B03F0A0F908A80CF065
:108AD000D0FF07A80CF0CDFFF6239B00E3580493CA
:108AE0008323049ADB00E250210032002800EC319D
:108AF00003F01EFBBAE78325ED006659002E1BD15B
:108B000000F02EF8010007A800F014FD08A80CF0F2
:108B100063FEF4239B00E01808AA039B07A90096B4
:108B200003F074F908A80CF0A4FF07A80CF0A1FF4B
:108B3000F6239B00E35863510BB0F0BDFD0300002A
:108B40006757020027570200BFF34F8F024B034ABB
:108B5000DA60BFF34F8FFEE700ED00E00400FA0596
:108B6000F0B58BB002ABDF1D19223800144910F0AC
:108B70008FFF0023134D05266B7180235B055B6E11
:108B80002C000093012301933100009807F038FC7A
:108B90000800019907F0AEFB0522009B56431B1A03
:108BA0000093019B534301932B1B5343FB181B5C06
:108BB000013C6371044B9C42E6D102480BB0F0BD0E
:108BC000BFA90200612800205C280020F0B595B004
:108BD0001822002104000EA810F076FF13210EA821
:108BE00010F046FD03210EA810F0EDFD464B1B686A
:108BF000002B00D10133DBB2009300210123434A53
:108C000009A807F08FF8FA239B009C429B411C4067
:108C100072B63F4B64211E683E4B2000059305252C
:108C200007F0F2FB6843503030180A21069020000C
:108C300007F0EAFB0A2107F0CDFC694350317118B7
:108C4000200007910A2107F0C5FC4D4350357619E5
:108C5000089680260024B601009B002B52D004AD5C
:108C60000027032C02D180260024B6016B682A4A13
:108C700002936300D3180022019258780299095C8C
:108C8000039119788C4610216046014103980142F6
:108C900004D0012090400199014301910132063333
:108CA000092AEAD1019B2A68D9431C4B09011940C2
:108CB000029B934224D1312F22DC002109A810F01D
:108CC00042FEFA23139A0F99DB001068014219D073
:108CD000013B002BF9D1FA23013401377600E4B2CD
:108CE0005B009F42BDD1043508ABAB42B8D1064B07
:108CF0001B68002BB0D0009B013BDBB20093ABE7BD
:108D00003143DBE7FFF720FF18250020F0FF0000CC
:108D1000042000200EAA0200D8A90200F01F0000C3
:108D2000F8B50023124C23600CF077FD002808D022
:108D3000042120000CF06DFD002801D00D4B2360B4
:108D4000F8BD0122A12704250B4B0C491A602268AB
:108D5000FF0048604E68002EFCD0DE591202013D33
:108D60003243002DF5D1226001225A60E8E7C04667
:108D700014250020ED5EBC0B00D00040FCD000406C
:108D80000B4B70B51C68002C10D0656D00F08EFB8D
:108D9000A36C002901D1834206D820000CF070FD9D
:108DA000200004490CF05AFD2C00ECE770BDC046D1
:108DB0002025002040250020F0B593B007932A4BD2
:108DC00004AC1E68049005910692002E49D0274BF2
:108DD000258867881C6800230293002C2DD0636DC2
:108DE00023480393A36C190C9AB20B00854214D14B
:108DF0002048824211D1002901D0B9420BD1029BF7
:108E0000002B08D120000CF03BFD20001A490CF08B
:108E100025FD01230293039CDFE7002A01D0954240
:108E2000F9D1002901D0BB42F5D120000CF028FD7A
:108E3000200011490CF012FDEDE7104BEB18012B4F
:108E40000FD910233A002900009308A80C4B0CF00E
:108E5000AEFD336830009B6808A9984708A80CF05D
:108E6000BCFD13B0F0BDC0461C2500204C250020E1
:108E7000FE030000FF0300004025002002FCFFFF6E
:108E8000B98D010010B572B60B4B1C68002C08D0D0
:108E900020000CF0F5FC0023E364084B2000E363A2
:108EA00010BD62B65C2010F0BBFD5C220021040006
:108EB00010F00AFEEFE7C0464425002000400020E5
:108EC000F7B51E4C0123227816001E401A4233D1FA
:108ED0001B4D2860FFF7D6FF1A4B1B4918600CF09A
:108EE000BDFCFFF7CFFF194B1860194B4363194BBB
:108EF0008363286800280FD0C023174F320017491A
:108F000000933B00FFF748F9C023009332003B0079
:108F100013492868FFF740F90C2010F081FD002369
:108F2000838083710F4B03600F4B836000F0D6FA90
:108F30000123227813432370F7BDC0466728002021
:108F40001C25002050250020402500204825002019
:108F5000FC3F002019590200B98D0100FF030000F9
:108F6000FE030000709D0200818D0100024B187805
:108F7000012318407047C04667280020F7B5060057
:108F80000D0017000193002802D100242000FEBD2F
:108F90000029FAD0FFF776FF041EF6D0074B019A9E
:108FA00043630660064B45608760002A00D0054B8E
:108FB00020000549A3630CF051FCE7E7FC3F0020CB
:108FC000F3580200015902004025002070B5074BFC
:108FD0000E0011001A7805000123100018401A42F3
:108FE00003D032002800FFF7C9FF70BD67280020BA
:108FF000024B1868434258417047C0464025002044
:109000000300002210B5044994006058002801D0E4
:109010000132F9E7635010BD28250020002310B568
:10902000044A99008C58844201D00133F9E70020AA
:10903000885010BD2825002010B50024084BA20040
:10904000D058002802D003685B6898470134062C8A
:10905000F4D1044B1B68002B00D120BF10BDC046CB
:1090600028250020402500200122F8B52C4B1B7834
:1090700013421CD02B4D2C68E36C134218D00227EE
:109080003B43E364284B1E680423F26C3000134317
:10909000F364636BF3630CF00AFC3000716C03F053
:1090A0003CFB2868C36C3B4201D003F070FBF8BD69
:1090B0001E4F1F4E3A683068002A0AD128601B07ED
:1090C00012D52C60FFF7B8FF3B68002BFAD02B605D
:1090D0000AE0216DB94219D1616D002900D111005A
:1090E00029602A688242EAD029688C42DFD033683E
:1090F00099420DD10F4B4B630F4B8B6320000CF04B
:10910000D6FB296820004B6C626C06E02A60E8E719
:109110009C42F3D1002210004B6C03F0BDFAC6E76D
:10912000672800205025002024250020402500200D
:1091300048250020FC3F00201959020070B5114B52
:1091400004001A7801231A4202D110F035FB70BDD9
:109150000D4A1568EA6C1A4206D0FFF793FE0B4BD6
:109160001860002800D0050000F0A0F92418AC64B5
:1091700028000CF085FB280005490CF06FFBFFF779
:1091800073FFE4E7672800205025002024250020F5
:1091900020250020F0B51E4B1E4F1E683B6885B091
:1091A00005000391002B31D01B4B1A7801231A4282
:1091B0002CD0F26C1A420ED0FFF764FE174B041E3F
:1091C000186008D00CF05CFB200015490CF046FB41
:1091D0002600FFF749FF039B30001B042B43B364B9
:1091E0000CF04EFB30000F490CF038FB0E4B002406
:1091F000EB18012B07D9C023009329000B4B039ACE
:109200003868FEF7C9FF200005B0F0BD084CFAE74A
:10921000502500201C250020672800202425002040
:10922000402500204C25002002FCFFFFB98D0100E5
:1092300016FCFFFF10B5074B1B78DB0709D5064C62
:1092400020680CF01DFB054920680CF007FBFFF7B8
:109250000BFF10BD6728002050250020442500206A
:1092600010B5034B1B78DB0701D5FFF7E3FF10BDFB
:1092700067280020F7B505000C00002833D0012630
:109280001B4B1B78334230D01A4F07233868C26C0F
:109290001100194000911A4207D021002800164AF7
:1092A000FFF794FE00252800FEBD03F058FA3A6847
:1092B0000221D36C1800084001900B4203D0013109
:1092C0008B43D364EEE73343D3642000A8473A6866
:1092D000019DD36C1900B143D1645B07E3D5200035
:1092E000FFF7BEFFDFE7054DDDE7054DDBE7C046D5
:1092F00067280020502500206192010017FCFFFF25
:1093000016FCFFFF020010B5014B12CB12C210BDBC
:1093100054250020034B1A68034B1A607E225A60C2
:109320007047C046042000205425002070B504007A
:109330000025094B1B78AB4209DD0849EB002000F2
:10934000C9180CF0EFFA002804D10135F1E720002C
:109350000BF0E2FD70BDC046682800205C250020AF
:1093600010B5002811D000220B4B19780B4B9142FD
:109370000FDD1C68844209D25C68844206D98023D0
:10938000043802681B061343036010BD0132083322
:10939000EDE70BF0CBFDF8E7682800205C25002006
:1093A00070B5051E14DD0B4E0B4C3368002B02D03C
:1093B000206810F0B6F8FA2120680024074B8900D5
:1093C0008361C4626943356010F0BCF8200070BD51
:1093D0000348FCE76C2500209C25002089940100AF
:1093E00017FCFFFFF8B5114F05003E68002E0AD1AB
:1093F000302010F015FB040006F0A4F90C4BA66118
:109400002360E6623C600B4E3368002B09D11020CC
:1094100010F006FB040010F0E1F82000346010F0BA
:10942000B7F82800FFF7BCFFF8BDC0469C25002018
:1094300068A2020098250020014B18687047C046BA
:109440006C25002070B50D4C2368002B03D00C4B0D
:109450001B68002B02D10620FFF7C4FF206810F024
:10946000AEF802000749C3170D684E6852197341E0
:1094700020680A604B6010F0A8F870BD98250020A5
:109480009C250020A820002010B5FFF7DBFF00245A
:10949000054BA200D058002802D003681B689847EB
:1094A00001340A2CF4D110BD7025002010B5FFF74F
:1094B000C9FFFA22034B920018685968002307F08D
:1094C000C9F810BDA820002010B5FFF7BBFF024B64
:1094D0001868596810BDC046A82000200B4B10B575
:1094E0001B680400002B03D0094B1B68002B02D122
:1094F0000620FFF777FF0023064A990088580028C6
:1095000001D00133F9E78C5010BDC04698250020EA
:109510009C25002070250020002310B5044A9900E6
:109520008C58844201D00133F9E70020885010BDE7
:109530007025002010B50400002902D00B78002B04
:1095400003D1034B2360200010BD0CF099FAFAE719
:10955000809D0200F8B504000E00150000290AD015
:109560000B78002B07D0002A05D0080097B210F026
:10957000EBFA874203D90B4B23602000F8BD681D2E
:109580000BF0CAFC20600CF05AFB20682A004780D0
:109590003100043010F07CFA23685D1900232B7130
:1095A000EBE7C046809D0200014B03607047C04658
:1095B000809D020010B50548054C20600CF042FB70
:1095C0002000044A044910F020FA10BD809D0200DA
:1095D000A025002000200020735A0200084B73B51C
:1095E0001D680400002D0AD001002E6808220831F1
:1095F000684610F04DFA0CCC28003168884773BDDE
:10960000A425002010B5054C012120000CF00EFB14
:109610002000034A034910F0F8F910BDA8250020E6
:1096200000200020EB5B0200074A030010B5012078
:10963000934208D0834202D00020DB0703D41E20CF
:10964000FFF7C4FA002010BDFFFF000010B50400B2
:10965000034B08330360FFF7E1FC200010BDC04658
:10966000889D0200F7B507000025040001931A4BFE
:10967000143708330E008580290085710360C58189
:10968000056100923800182210F01EFA38001521EA
:109690000FF0EEFF019B2200A380009B0E2123818F
:1096A00014236381123BA571A563A58723733E3202
:1096B000137826638B431370084B0122E364084B35
:1096C00020002365230054331D70064B6364230080
:1096D00048339D701A80FEBD889D020000000A0379
:1096E0000003030101000100F7B504000CF042FC87
:1096F0000E22A35E7A4F5B42BB4251DA23003E3317
:109700001B789B074CD50125210028003E310B78A2
:109710005A08904302000220AA40834313430B706F
:1097200020000CF027FC1022A35E5B42BB4248DA0B
:1097300023003E331B785B0743D501252100280019
:109740003E310B789A0890438200042083431343F0
:109750000B70260020000CF00DFC1222A35E4A368E
:10976000BB423EDA23003E331B781B0739D521006C
:1097700001223E310B78D80882430820D20083436F
:1097800013430B703378032B3BD80133DBB23370B8
:10979000012B00D08EE0230000224C331A8030E0F1
:1097A00020000CF0E7FB0E22A35EC8225B420025DE
:1097B00052009342B4DD23003E331B789B07A2D5B1
:1097C000AEE720000CF0D6FB1022A35EC8225B425D
:1097D00052009342BDDD23003E331B785B07ACD5BE
:1097E000B7E720000CF0C6FBC8231221625E5B00C5
:1097F0009A4204DD23003E331B781B07B7D5002DAA
:10980000C0D133780193002B14D0200027004C30B6
:1098100003883E3701339BB203803A78012511005B
:1098200029402A4254D01D2B04D90023AA433A7060
:109830000380337020000CF0CAFB2A4A07239042B1
:1098400044DD20000CF096FB0E23E25E264E5242D1
:109850000323B2423ADBC82520000CF08BFB0E2319
:10986000E25EAD0052420423AA422FDC20000CF03D
:1098700081FB1023E25E02235242B24226DB20002B
:109880000CF078FB1023E25E01235242AA421DDC59
:1098900020000CF06FFB1223E25E0623B24215DBC0
:1098A00020000CF067FB1223E25E0023AA420DDDCC
:1098B00005330BE0042BA4D122003E321178033B88
:1098C0000B43137000234C3423800C331800FEBD6F
:1098D000092BAFD90180019901393170AAE7C0463F
:1098E00070FEFFFFFF700200E0FCFFFFF0B5C369F0
:1098F000C1681A68451D0400EB7F89B0114225D06C
:10990000002B57D10123A2791A4237D00026022218
:109910006846A188A6710CF045F9A31DDD7F012DD5
:109920002CD1FFF7C3FD3300226A801A99410F0042
:109930000600A1889F4203D1FA239B009E423BD39D
:109940000123042204A80CF02DF917E00B2B01D8F9
:109950000133EB77EB7F082B0DD90122A37913425A
:109960000CD11343A188A37104A813000CF01AF9B9
:10997000FFF79CFD2062EB7F012BC3D90322A37963
:109980001340012B14D1FFF791FD0023226A801AA6
:109990009941994202D10A4B984209D90223A279EE
:1099A000A1881343A3710522012304A80CF0FAF83F
:1099B00009B0F0BD013BCCE72B000322C2E7C04653
:1099C000DB05000010B50400034B08330360FFF70C
:1099D000A3FD200010BDC046A09D0200F0B506000A
:1099E00000250F00040085B002930AAB1B780836EF
:1099F00003930F4B29000833036001928580857122
:109A00001822300010F060F839003000039A0FF08F
:109A100034FE019B029AA380A31DE771DA77631DD0
:109A200025622000DD77FFF759FD200005B0F0BD6D
:109A3000A09D020010B50400034B08330360FFF73C
:109A4000EDFA200010BDC046B89D0200F0B587B009
:109A500004AC08230F0042221021009405000CF0F2
:109A6000ACFBA3790020DA0700D48BE0627826787B
:109A7000E17812021643A27809020A4312B2D21008
:109A80000292627920791202104300B242100392CE
:109A9000E47936B224021C43AB1CD98FF610A41013
:109AA0008803002C00D0210006F0AEFC364B2A00C3
:109AB000C01800B20300002143433F325156DB116E
:109AC000013A4B4311788022C90148431B185B12AD
:109AD000520399182B0034331B785BB2A0334B43ED
:109AE0001B135E432B0032331B7876135BB2DB0013
:109AF000F6183E80AE1CF18F8803002C00D02100A8
:109B000006F082FC204B2A00C01800B2030000219E
:109B100043433F325156DB11013A4B4311788022C7
:109B2000C90148431B185B12520399182B003533A7
:109B30001B78029A5BB2A0334B431B135A43531357
:109B40002A003332127852B2D2009B187B803C221A
:109B5000AB5E039A3A21685ED31A3E21725EDB0344
:109B6000A21A50438010181AEB8E610059438023CB
:109B70001B02C9183823EC5E0914091906F044FCCD
:109B8000B880012007B0F0BD00C0FFFFD0B50400D1
:109B90000CF02CFBE268A369981A09F0D5F90600CD
:109BA0000F002369E069C01A09F0CEF932003B00CA
:109BB00009F0C0FE0022104B08F092FB0F4A104B38
:109BC00008F0A6F809F038FA0021041C06F01AFD86
:109BD000002804D0201C0B4906F046FE041C201C63
:109BE00009F0E2F902000B000020074908F0E4FD4B
:109BF00009F074F9D0BDC04600806640EA2E445496
:109C0000FB2109400000B44300807640F0B5040019
:109C100085B0806A0CF086FA061CA06A0CF079FA0E
:109C20000221071C20000CF07EFB02210390200083
:109C30000CF08BFB07F080FC80231B06C21802216E
:109C4000200001920CF093FB07F076FC041C301C02
:109C500009F032FE051C301C09F0F2FD0290381CA0
:109C600009F02AFE061C381C09F0EAFD071C0398BF
:109C700007F062FC80231B06C018391C07F05AF954
:109C8000311C071C019807F055F9291C07F052F9FF
:109C9000011C381C06F0E8FD311C071C201C07F0D5
:109CA00049F9029907F046F9011C381C06F0DCFD61
:109CB000291C061C201C07F03DF90299041C019880
:109CC00007F038F9011C201C07F04EFA311C09F08E
:109CD00099FE0D4907F02EF909F066F90B4A0C4B75
:109CE00008F016F809F0A8F90021041C06F08AFC17
:109CF000002804D0201C044906F0B6FD041C201CDA
:109D000007F0FAFB05B0F0BD0000B443EA2E44545E
:109D1000FB2119407FB50425837904002B421BD118
:109D200002260CF063FAA3790622B3432B43A371F6
:109D300068460123A1880BF035FFA3791A00334050
:109D4000581E83415842FB239B001840034BAA43F3
:109D5000A271C01804B070BD0148FBE714FCFFFFFE
:109D600015FCFFFF10B5837904005A070DD49B073B
:109D700001D4FFF7CFFFA36A2000002B02D0FFF72A
:109D800045FF10BDFFF702FFFBE70148F9E7C046BA
:109D900015FCFFFF70B5C66A86B001AC05000191E5
:109DA0006260A360002E0CD00B4905A8FFF7C2FB30
:109DB0000C232200300005A90DF0DFF805A80BF0F8
:109DC00058FE2B000C3307CC07C30223AA79134398
:109DD000AB7106B070BDC046EEAB0200642330B577
:109DE000040085B08180028143810CF0CCFA02220C
:109DF000A37920009343A3710CF022FAE06A0028B3
:109E000013D00D490DF084F8051E0ED001000C2270
:109E1000103101A80FF03CFE20000199029A039B2B
:109E2000FFF7B8FF28000FF0F7FD0123A2791343D5
:109E3000A37105B030BDC046EEAB0200F8B504001A
:109E40000E0000201700E36201230B4D06AA08351F
:109E500007A9A080A0712560E06020616061A06119
:109E6000E061206266622000A7621288098823866A
:109E7000FFF7B4FF2000F8BDB89D020082B0F0B536
:109E80000400A5B064202B932A920FF095FC0422C5
:109E90000C2109A802F0DCFC2422CD491BA80FF0FC
:109EA000F7FD052206A811000EF075F9C94907A8AB
:109EB00002F07CFDA06800F079FBA568C64918A8EF
:109EC000FFF738FB7822280018A900F09FFC18A89B
:109ED0000BF0CFFD6E256420013D0FF06DFC002DD1
:109EE000F9D1A06800F062FBA0680CF047FC0121EA
:109EF00060680CF080F80121070060680CF08EF8B3
:109F000006000A20FFF71AF90022B44B04929F4280
:109F100010DB013204923A00C8320BDBC822042164
:109F200092000491974205DC03220492C82F01DCC1
:109F3000013A0492002203929E4210DB0123039314
:109F40003300C8330BDBC82304329B0003929E42CC
:109F500005DC03230393C82E01DC013B039306A811
:109F60000EF010F91BAF00233E000593B378002BD1
:109F700005D0FF237278317806A802F0ABFC059B70
:109F80000336013305930C2BF0D16B460C229A5EFD
:109F90006B4606A81021595EFF2302F09BFC0023AC
:109FA000A0681A000093743006A90EF0FBF83B007D
:109FB000243305933B78049A934234D17B78039AF7
:109FC000934230D1BE78002E2DD1310020680CF0A4
:109FD000AAF907F0B1FA3200031C290009A80DF014
:109FE0008BFA310020680CF0B0F907F0A5FA0122D5
:109FF000031C290009A80DF07FFA310020680CF03D
:10A00000B6F907F099FA2900031C022209A80DF0FD
:10A0100073FAFE2329009B05032209A80DF06CFAB0
:10A020000123BB70ED18059B03379F42C2D164200A
:10A03000FFF784F80B2D00DC59E709A80DF048FA6A
:10A04000012201000CA802F003FC002509A80DF074
:10A050003FFAA8423CDD2900002209A80DF03AFA97
:10A0600000222900061C09A80DF034FA011C301C3E
:10A0700006F060FF2900061C012209A80DF02AFA4B
:10A0800001222900071C09A80DF024FA011C381C24
:10A0900006F050FF311C06F0E7FB29000222061CE7
:10A0A00009A80DF017FA02222900071C09A80DF0D3
:10A0B00011FA011C381C06F03DFF311C06F0D4FBE0
:10A0C0002900031C00220CA80DF016FA0135BDE78B
:10A0D00009AA1100012318A80DF028FA18A90FA841
:10A0E0000DF082FA18A80DF018FA0CAA09A912A806
:10A0F00001230DF01BFA002312AA0FA915A80DF0D9
:10A1000015FA002215A811000DF0E4F90022061C32
:10A11000012115A80DF0DEF90022051C022115A869
:10A120000DF0D8F9FC21071C8905301C06F002FF50
:10A1300007F0E2F9FC21060018908905281C06F0BA
:10A14000F9FE07F0D9F9FC21050019908905381CA2
:10A1500006F0F0FE07F0D0F92A00030031001A9053
:10A160002068FFF717FEA0680CF008FB07A908A8F5
:10A17000A5680DF0FFFF0022194B009208A901937A
:10A180002800130000F0B0FA08A80DF0E6FFFA204E
:10A1900080000FF011FBA0680CF0F0FA15A80DF08C
:10A1A000BCF912A80DF0B9F90FA80DF0B6F90CA87A
:10A1B0000DF0B3F907A80DF0D0FF06A80DF0CDFF04
:10A1C00009A80DF0AAF925B0F0BC08BC02B01847E8
:10A1D0004CAC0200F9AB02003EAC0200E0FCFFFF19
:10A1E000DC050000F7B583601D4B05001F680160AA
:10A1F0004260002F31D028200FF012FC04001030F4
:10A200000BF0C6FC174B182023600FF009FC00224E
:10A210000600154B00210192056008320C300093B6
:10A220000FF052FC08226946301D0FF031FC0F4B35
:10A2300000227361C223A3803B68E26021003800E2
:10A240005B68A660226262629847002805D0200001
:10A250000BF0C3FB20000FF0DFFB2800FEBDC04663
:10A26000A4250020050006007D9E01002B6402004D
:10A27000F0B5040085B0637A9C46002B04D1200021
:10A280000CF0FEF805B0F0BDA37A266F0193102301
:10A29000019AF35600259B1801229A402900F36881
:10A2A00003920293029BAB4231DDB068019B68438D
:10A2B000C01873694000E77A1A181B5C5078E2797D
:10A2C000012F14D1571E3F1A18003B004243606F04
:10A2D00052008218D2189379634500DD6346627B91
:10A2E0001A4202D00123AB4019430135DAE7022FAD
:10A2F00007D0032FEAD1277A013FFF1A0300380065
:10A30000E4E7571EFB1A277A013F381ADEE71123CC
:10A31000C943F356606C994023691940039B194364
:10A320000FF011FBA27B072AACD8637B0C495B00C2
:10A330006373531CDBB290004158A373022A03D805
:10A3400008000FF02EFA96E7064B20002363002347
:10A350006363054BE462236414300FF0F3F891E774
:10A36000D09D020071A201006B64020070B5040070
:10A37000104B250008330360FFF7CEF8200074303F
:10A380000DF0EBFE200060300DF0E7FE20005830AD
:10A390000BF06FFB200050300BF06BFB064B1435BD
:10A3A000280063610FF0BDF8280005F0E1F92000F6
:10A3B00070BDC046F09D020068A20200F8B50025FD
:10A3C0000400324B85800833036085711430160019
:10A3D0000F0005F0B7F920002D4BE562636125649D
:10A3E0005030FFF7E1F820005830FFF7DDF820008B
:10A3F000603002F069FA20000423F25E33682667B9
:10A40000590009B274300DF0C6FE3368226FE37153
:10A4100073680126237210236581A7802561D356B6
:10A4200091685918994204DD300098400133054382
:10A43000F8E711230120D356D1685918994206DD57
:10A4400002009A402669013332432261F6E7142064
:10A450000FF0E6FA226900212A430123060005F0E5
:10A4600061FCFF23220063720133A3810023483281
:10A470006664A37320001370A366FFF72FF801230F
:10A48000A27920001343A371F8BDC046F09D0200DD
:10A490007CA20200F0B5437A040085B0002B04D101
:10A4A00020000BF0EDFF05B0F0BD0122837A110012
:10A4B0009C461023066F0025F3560392634499408F
:10A4C00002912900F3680193019BAB422CDDB06837
:10A4D0007369684360444000E77A1A181B5C50783F
:10A4E000E279012F10D1571E3F1A18003B0042435A
:10A4F000606F52008218D2189379002B02D0039B10
:10A50000AB4019430135DFE7022F07D0032FEED10F
:10A51000277A013FFF1A03003800E8E7571EFB1AAD
:10A52000277A013F381AE2E71123C943F356606CDA
:10A53000994023691940029B19430FF004FA667A87
:10A54000B31EDBB2FC2B14D8FEF776FF0B4B0500D5
:10A55000236300230A4863630A4BFF217043E462CC
:10A56000236405F051FF29004143200014300EF010
:10A57000E9FF637A012B00D995E791E78164020036
:10A58000B60300006B6402001FB5012381881A0026
:10A5900068460BF007FB012368461A0002490BF0DE
:10A5A00001FB05B000BDC046FE0300001FB503005F
:10A5B00048331A780400002A0DD000221A700123B3
:10A5C00081881A0068460BF0EDFA012368461A00EC
:10A5D00003490BF0E7FA200074300DF0D3FD1FBDE6
:10A5E000FF03000010B548300378002B06D0037835
:10A5F000012B03D0012102480BF072F910BDC046B7
:10A60000FF03000010B50121040006200BF068F9DB
:10A61000064B984208D148342378002B04D0237885
:10A62000012B01D020BFF7E710BDC04616FCFFFF8D
:10A6300070B50500141E19DB060048363378002B70
:10A6400002D03378012B13D1002328001A00743074
:10A6500002F0FCF9002C07D02B004A331C800024A8
:10A6600007234C352C803370200070BD014CFBE774
:10A67000014CF9E717FCFFFF12FCFFFFF8B50B6870
:10A6800005005B8808001700012B08D100210BF0A2
:10A6900072FA002201002800FFF7CAFFF8BD002A65
:10A6A00019DD2E0048363378002B02D03378012B89
:10A6B00013D12B0000245C331C80043B01001800E4
:10A6C0000BF034FA2B004A331F8003234C352C80C7
:10A6D00020003370E2E70248E0E70248DEE7C046C8
:10A6E00017FCFFFF12FCFFFF73B5079C0500002C51
:10A6F0001CDB060048363078002802D0307801286C
:10A7000016D106981BB2C0B20090280012B2743065
:10A710000DF048FD002C07D02B004A331C8000248C
:10A7200007234C352C803370200076BD014CFBE7AD
:10A73000014CF9E717FCFFFF12FCFFFFF7B505001E
:10A740000E00171E26DDFFF74DFF2B0048331B7848
:10A75000DCB2002B20D133685B88012B09D12100AA
:10A7600030000BF008FA220001002800FFF760FF1C
:10A77000FEBD310001A80BF0D1F93A0001A9280073
:10A78000FFF77CFF01A80BF074F92800FFF73AFFF0
:10A790002000EDE70148EBE70148E9E717FCFFFF80
:10A7A00011FCFFFFF0B587B00D9C05000E001700EF
:10A7B0000393002C21DBFFF715FF2B0048331B7898
:10A7C000DAB20292002B1AD1310005A80DF0D2FCAA
:10A7D0000C9B3A0000932800039B019405A9FFF706
:10A7E00083FF05A80DF0B9FC002C03D02800FFF76B
:10A7F00009FF029C200007B0F0BD024CFAE7024CB2
:10A80000F8E7C04617FCFFFF11FCFFFFF8B5040096
:10A81000171E1DDD060048363378002B02D0337832
:10A82000012B17D12200E3795632013B137023002C
:10A830000025200054331D8050300BF077F92300A1
:10A840004A331F80022328004C3425803370F8BD22
:10A850000148FCE70148FAE717FCFFFF12FCFFFF85
:10A86000FF2902D84172002070470148FCE7C0462A
:10A8700017FCFFFFF0B51F0085B00AAB1B78040082
:10A88000039300933B000D0016000EF0BEFD002860
:10A8900033D0237D082B2DD8236800221900FC31EA
:10A8A0008A62A021C9005A50154905205A50013822
:10A8B000C046C046C046C046C046C046C046C04668
:10A8C000C046C046C046C046F1D1236801325A5046
:10A8D000A0210432C9005A5005F084FB039B3200CA
:10A8E000009329003B0020000EF08FFD237D0133F3
:10A8F0002375CCE7034805B0F0BD2075FBE7C046E3
:10A90000FC0F00000EFCFFFFF0B51F0085B00AAB86
:10A910001B780400039300933B000D0016000EF01B
:10A920005CFD002833D0237D082B2DD8236800221E
:10A930001900FC318A62A021C9005A50154905202E
:10A940005A500138C046C046C046C046C046C04600
:10A95000C046C046C046C046C046C046F1D1236886
:10A9600001325A50A0210432C9005A5005F03AFB76
:10A97000039B3200009329003B0020000EF02DFDC8
:10A98000237D01332375CCE7034805B0F0BD207566
:10A99000FBE7C046FC0F00000EFCFFFF10B50400F3
:10A9A00086B0006C04F05AFF237BA0219A00A050CF
:10A9B00000200C4AC90050500B4914305050626CB2
:10A9C0006846517CC91849B20BF0B6FF039B019A47
:10A9D00003211A60207B0130C0B205F011FD217304
:10A9E00006B010BD007000400405000082B070B5D4
:10A9F0000400002588B00C920D93636C9A68AA42FB
:10AA00000ADD197C02A8491949B20BF095FF069B93
:10AA1000039A01351A60F0E75D7C237B02A8ED18EC
:10AA20006DB229000BF088FF039A059B00211A6084
:10AA3000019202A818220FF047F802A8002229006C
:10AA40000EF01BFE206C002801D00EF0E5FF082060
:10AA50000EF0E6FF2900060004F0DAFE094B2000A4
:10AA6000E3620023FA212363074B2664A462E363B5
:10AA7000103009010EF066FD08B070BC08BC02B0D1
:10AA80001847C0469DA90100E3680200F0B5040024
:10AA90000E00150085B01F000CAB1B881030019311
:10AAA0000BF076F82680658018200EF0B9FF02AE14
:10AAB000050033000AAA03CA03C32F602800082731
:10AAC00000213A000C300EF0FFFF3A003100281D43
:10AAD0000EF0DEFF064B022220006B61002301997D
:10AAE000A5600A43E360A2802362636205B0F0BD03
:10AAF000F968020070B5040086B010300D0004F053
:10AB000021FE0023184AA3622261184AE3631668F3
:10AB10006564237323606360A3609E421FD0144A60
:10AB20002820049205930EF07BFFC02305006A469F
:10AB3000029304AB03CB03C22300062102222800A8
:10AB4000FFF7A4FF3368290030005B6898470028AE
:10AB500005D028000AF041FF28000EF05DFF002319
:10AB60002000236406B070BD7CA20200A425002052
:10AB7000EDA9010030B5154B04001D6891B0002D02
:10AB800017D0134B6A4604930023059310330293A6
:10AB900004AB03CB03C223000222062106A8FFF761
:10ABA00075FF2B6828009B6806A9984706A80AF03D
:10ABB00014FF2500074B1035280023610EF0B1FC6F
:10ABC000280004F0D5FD200011B030BDA4250020E0
:10ABD000EDA9010068A20200F8B50D1E2FD00026D5
:10ABE0000227C468002C27D0AA88A38853403B4280
:10ABF00020D13A4215D1A368AA6893421AD12B8872
:10AC0000002B02D022889A4214D16B88002B02D0EC
:10AC100062889A420ED1A2880A4B01361343A38060
:10AC200008E0A968A0680CF042FC0028E7D1AB88D6
:10AC30003B42E0D0646AD5E72000002E00DC0248E9
:10AC4000F8BDC0460080FFFF17FCFFFFF0B506000F
:10AC50000D0085B0002959D00127C468002C23D0ED
:10AC60000221AA8800230A4202D0A3885B083B4045
:10AC7000226829688A4211D1A068A968002B0BD0EC
:10AC80000CF015FC002809D00421625EA388002A7C
:10AC900006DB1F4805B0F0BD8842F5D0646ADDE7E9
:10ACA0005B045B0CA380F4E7F0682A880100031EB4
:10ACB00007D1F5600123684616490AF073FF0020AA
:10ACC000E8E71C88944206D25C6A1900002C0DD07B
:10ACD0002300F6E723001C88944207D15F886C8824
:10ACE000A74203D25C6A1900002CF3D1814209D13A
:10ACF0000B889A4204D305D14C886B889C4201D9B9
:10AD00006862D6E74B6A6B624D62D3E70248C1E7DF
:10AD100016FCFFFFFD03000017FCFFFF064B10B5FC
:10AD20001A00040008322C33026043600430FEF73E
:10AD300075F9200010BDC046089E020008B4024B01
:10AD40009C46043808BC60471DAD010008B4024BA6
:10AD50009C46043808BC60479B6902000C4A0023EB
:10AD600011002C32083110B5038183724260C36038
:10AD7000036143614383016004000430FEF740F93E
:10AD8000044B1A68002A00D11C60200010BDC04688
:10AD9000089E0200A4250020F7B50D000126C46816
:10ADA0000192002C37D023882A889A4201D0002BA8
:10ADB00024D163886A889A4201D0002B1ED1FEF705
:10ADC000D5F80123002806D0C022A3881340C03B39
:10ADD0005A425341DBB2019A93421AD10422A35E34
:10ADE000A788002B15DB10222900A0180EF050FEBA
:10ADF00040231F4204D020000BF0D8FD646AD0E746
:10AE0000FEF7B4F80028F6D021000448FEF732FA25
:10AE1000F4E70026F2E73000FEBDC046AD6902004F
:10AE200008B4024B9C46043808BC6047376B0200EC
:10AE3000F0B587B001930EAB1B88060003930D9B02
:10AE40000D000093019B0C9F0292002B3CD0002F21
:10AE500002D1009BDB0737D528200EF0E1FD04006E
:10AE600010300AF095FE029B1820258063800EF0BA
:10AE7000D7FD0500009B08220593019B002103607C
:10AE80000C3004970EF020FE082204A9281D0EF0B5
:10AE9000FFFD0E4B02226B6100230399E3602362E6
:10AEA000636233680A43300021005B68A560A280BA
:10AEB0009847002806D020000AF08FFD20000EF0F1
:10AEC000ABFD034807B0F0BD0248FBE7716B020021
:10AED00016FCFFFF17FCFFFFF0B51600002583806E
:10AEE000164A174B04008571026001814681057383
:10AEF00018688C4689B0A8421DD0124A0595049264
:10AF0000C02202926A4604AB82CB82C223002A008E
:10AF10006146FFF78DFFC022094B0A49186802926B
:10AF20006A46069106AB079582CB82C223002A00AF
:10AF30003100FFF77DFF200009B0F0BD4C9E0200FC
:10AF4000A42500209B6C020030B50024037301236C
:10AF5000034D05608471818082734373846030BDCA
:10AF6000649E020070B5040000250C4B0E000833EF
:10AF7000858085710360210018300BF046FF2000AA
:10AF8000210020300BF064FF054B2000A680E580F7
:10AF90002572E560256165611C6070BD749E0200CC
:10AFA000AC2500208379DB0702D5C1600020704703
:10AFB0000048FCE716FCFFFF8379DB0701D5C0687A
:10AFC00070470148FCE7C04616FCFFFF70B54569B5
:10AFD0000400002D22D0037A032B21D8FFF7ECFFC9
:10AFE000A8622C200EF01CFD2C22002105000EF082
:10AFF0006BFD002263695A622369934207D163693A
:10B0000023610020237A65610133237270BD1A0029
:10B010005B6A002BFBD163695362F2E70148F5E7F5
:10B020000148F3E717FCFFFF13FCFFFF144B70B55B
:10B030005A68144C002A03D000225A600132A260E0
:10B040001A69002A17D0002119618023DB000E4DF8
:10B05000E3582868012B0FD1A923DB00E1584942AE
:10B06000FFF7A0FF2868FFF7B1FF2B685A69074B6D
:10B07000E2500123A36070BDFFF794FFF9E7C046DB
:10B08000FC10004000100040AC250020040500002A
:10B0900003000069002809D00221054AD167426AED
:10B0A0001A611A7A013A1A72024B19607047C04647
:10B0B00004E100E000E100E010B5002903DB024BF1
:10B0C00019600EF010FA10BDB025002070B5040014
:10B0D0001D0004AB1E7804F0F1FA20000E4B403046
:10B0E0002360FEF761FA2300220001354C331D7006
:10B0F0000023E1215832013616700A3AA3646365D1
:10B10000138053809381D381013B20006364490203
:10B11000FFF7D2FF200070BD489D0200F7B58027E1
:10B120007F053E697C690822113C744305002100BB
:10B1300068460EF0ADFC104B009A9A4219D000936D
:10B140000023019379692800133971430BF097FEAE
:10B15000019A280000990BF0AEFE210028000BF0A8
:10B160008EFE79692200133928007143B3080BF071
:10B1700092FE0198FEBDC046FECA0000F0B50D006B
:10B18000ABB000210D920700302212A81E000EF075
:10B190009BFC28000EF0D8FC431C0C93102B00D90C
:10B1A000B8E0202E00D9B5E0290038000BF0B0FE41
:10B1B0000B90002854D129000C9A12A80EF068FCBC
:10B1C00032000D9916A80EF063FC80235B051A6906
:10B1D0005D690B92113D6A4338005E690D92FFF77D
:10B1E0009DFF0D9B30220833002104001EA80F9301
:10B1F0000EF06AFC31000B9B1339594338000BF0F9
:10B200003EFE00230F9E0C930E930C9BA34246DA46
:10B21000310030221EA80EF03BFC12A91EA80EF031
:10B2200089FC00282BD13D4938002200109111944F
:10B230000BF041FE6A46099615AB23CB23C223CB04
:10B2400023C223CB23C23800149B1299139A0BF00C
:10B2500040FE01230E930C9B303601330C93D4E750
:10B260000B9832000D9910300EF004FC04000B987E
:10B270000EF0D2FB002C9ED120002BB0F0BD6A4610
:10B28000099621AB23CB23C223CB23C223CB23C2DA
:10B2900038001E991F9A209B0BF01BFEDBE7E6434C
:10B2A0003021F61726404E430F9B9E190E9B002B14
:10B2B0001CD10B9B981E05F01DF8A0422CD01749FD
:10B2C000013438002200109111940BF0F4FD6A460D
:10B2D000099615AB23CB23C223CB23C223CB23C296
:10B2E00038001299139A149B0BF0F3FD38000D9956
:10B2F0000BF0C5FD80235B0559690C230B9A1339AC
:10B3000063434A433800110002330D9A0BF0C3FD2A
:10B310000024B1E7024CAFE7024CADE7FECA0000E3
:10B3200017FCFFFF13FCFFFF70B50400A280FA2298
:10B33000002308000C49920008312160A3710B49D9
:10B340006061E260A36063820BF0E2FD051E09D03C
:10B35000010020000222103112300EF099FB28006B
:10B360000EF05AFB200070BD8C9E020070AC0200F3
:10B3700030B502258379040087B02B4204D1FDF754
:10B380003FFEA3791D43A57120000BF007FE0028A6
:10B390001CD06B46DD1C28000BF0F7FD2B78002B32
:10B3A00017D001A80BF0EFFD0321019AD3170B4032
:10B3B0009B189B102382FEF779F8E368A188181880
:10B3C0000123A0601A0002A80AF0ECFB002007B0DD
:10B3D00030BD0122064B1A60064A51680029FCD094
:10B3E00000215160044A1268019201225A60DBE791
:10B3F00000C00040FCC0004008C50040022802D147
:10B400000122014B1A7070476928002070B5064D63
:10B4100004002B78002B04D1044801F0E5FC012343
:10B420002B70200070BDC0466A280020FDB30100CB
:10B4300070B50C000AF0F1F9002810D00023144D6B
:10B44000A40A2B7020000BF0C7FD002803D00A20AF
:10B450000EF0B2F9F6E72B78002BFCD070BD02217C
:10B460000C4B0D4A99508021C90008005D58002DF1
:10B47000FCD0A121C9005C5019580029FCD0002142
:10B4800099508021C9005A58002AFCD0E6E7C046EE
:10B490006928002000E0014004050000F8B50C0018
:10B4A00015001E000AF0B9F9002811D00023174F2B
:10B4B0003B703200290020000BF08CFD002803D0E7
:10B4C0000A200EF079F9F4E73B78002BFCD0F8BDA8
:10B4D00001220F490F488C4642508022D2008358E7
:10B4E000002BFCD080270023FF009E4207DD9A003E
:10B4F000A958A150C259002AFCD00133F5E7002316
:10B5000062468350C359002BFCD0E0E76928002035
:10B510000405000000E00140084B8000C018A22391
:10B520000322DB0010B50649C45821432243C15011
:10B53000C046C046C046C25010BDC0460060004074
:10B54000031F000010B50400034B08330360FDF730
:10B55000E3FF200010BDC046A49E0200F8B5A02362
:10B5600003223049DB055A5004315A5080212E4ABB
:10B570008905995080210127A225C9052B4C995096
:10B580002B4BED00E75063592A492B4E0B4063517A
:10B5900062592A4B002013436351FFF7BDFFA359A3
:10B5A000244938000B40A351A259254B1343A35102
:10B5B000FFF7B2FFC046C046C046224B224A23498D
:10B5C0005A51A322D2009C519950214A2149224824
:10B5D0005A5004315850214921485C500431585088
:10B5E00020495A500F2220495A50204B104A9F5050
:10B5F00000225A5004315A5002325A51A8223221A4
:10B60000D200DF6099501A4A013999500432323120
:10B610009950184AC919995080225C399200995062
:10B62000F8BDC046740700000C0500000060004033
:10B63000FC0F0000FFE0ECFF14050000001D0300FC
:10B64000001E130000F0014040A1004044A1004052
:10B65000046000401C05000048A1004024050000D3
:10B660004CA100402C0500000405000000A0004093
:10B67000440500004C0500000023154A10B50832AF
:10B680000260EE21A0228380837104000320D20592
:10B69000C900505080200F494005505032220E49B9
:10B6A00020000A700D490A700D490A70FA210D4AEE
:10B6B000090113700C4A118001210C4A11700C4AC7
:10B6C0001370FFF74BFF2000FDF708FF200010BDAF
:10B6D000A49E02000C0500006C2800206D280020AC
:10B6E0006E2800206F2800204C2800206B280020A6
:10B6F0007028002010B50400034B08330360FDF7E9
:10B700000BFF200010BDC046BC9E0200F7B5012112
:10B710000C008368314A9C40A023DB059C503224F6
:10B72000013CC046C046C046C046C046C046C046B2
:10B73000C046C046C046C046C046F1D105001135DE
:10B740000195A1250400ED00AC460D3407250E003F
:10B750008768BE4027782F410F4231D06746DE51BF
:10B76000C046C046C046C046C046C046C046C046A9
:10B77000C0469E50013DEAD2019D0134A542E5D16B
:10B78000012381688B40A021C9058B503223013BE6
:10B79000C046C046C046C046C046C046C046C04679
:10B7A000C046C046C046C046F1D1827B437B017C87
:10B7B0009B18C27B52189B185A1E93414374F7BDC5
:10B7C0006746DE51C0469E50C046C046C046C04691
:10B7D000C046C046C046C046CCE7C0460C05000087
:10B7E000F8B504002500260006A80078277B6273C0
:10B7F000A173E37320740D3511362878784307F070
:10B80000A3FB0022064B06F083FA04F043FF2870E6
:10B810000135AE42F1D12000FFF778FFF8BDC046F8
:10B8200000E06F40F7B5002317000126224A83800D
:10B83000083202600A008371040081600773A0204F
:10B8400003258E40C132FF32C005920015501B4ABD
:10B85000250086506373E3812382230011330D3565
:10B86000009301922878784307F06EFB144B002276
:10B8700006F04EFA04F00EFF009B287001359D4241
:10B88000F0D1A023019ADB059E503223013BC04634
:10B89000C046C046C046C046C046C046C046C04678
:10B8A000C046C046C046F1D120000BF0ABFB2000E3
:10B8B000FDF714FE2000FEBDBC9E02000C0500003A
:10B8C00000E06F4010B50400054B083303601C30E6
:10B8D0000AF0CFF8200018300AF0CBF8200010BD95
:10B8E000D49E0200FF23F0B52C4E8DB033700023A0
:10B8F00001AD040029000088019303F033F800280B
:10B9000001D1AB783370264D2B68DB68002B07D153
:10B91000002320881A0019000BF085FB0DB0F0BD44
:10B920003378032BF4D81F496846FDF703FE2B68D4
:10B930006946DD6804A80AF0F1F8280004A90BF0B4
:10B9400016FB0027050004A80AF093F8BD421ED09C
:10B9500029002022103104A80EF09AF828000EF0D9
:10B960005BF8317804ABC9005918082202A80EF020
:10B970008FF801230822208802A90BF054FB01371D
:10B98000002804D10C212088074A0BF04AFB6846A6
:10B990000AF06FF8002FBBD0C0E7C046802000201F
:10B9A000C025002078AC0200FFFF0000F0B58379CD
:10B9B000040091B05B071BD5FDF778FD00232269D9
:10B9C000801A9941994203D1F533FF3398420FD33E
:10B9D000A068002808D0354B1D880CF084FC036853
:10B9E000152229001B6A98470422A3799343A37167
:10B9F000A3799B0758D52E4E3368DB68002B4FD0B8
:10BA00002C4F3B78032B4BD8284B2B491B8804A881
:10BA10000193FDF78FFD336804A9DD6808A80AF0DB
:10BA20007DF808A928000BF0A2FA050008A80AF082
:10BA300020F8082302AAD3800198073B063206A902
:10BA40000BF0F3FA002D08D029002022103108A8AD
:10BA50000EF01EF828000DF0DFFF3D7802ABDA880B
:10BA6000ED0008AB5D19280006A90EF003F80028C8
:10BA700013D00822280006A90EF00AF8336804A99A
:10BA8000DD6805A80AF04AF82023280008AA05A9BD
:10BA90000BF073FA05A809F0ECFF04A809F0E9FF20
:10BAA0000222A3799343A37111B0F0BD4E28002068
:10BAB000C02500208020002078AC020070B503680B
:10BAC00004000D1E09D15B699847FA208000684385
:10BAD000074904F00FFCE08070BD9B689847A842BE
:10BAE000F3D9236820009B6898470500EDE7C0461E
:10BAF00071020000F0B50400150085B001930AAB97
:10BB00001F880BAB1B78461C02930EAB1B781022D0
:10BB100003930B7803704B8A0131438230000DF0A0
:10BB2000B7FF656100250122019B27836383039B87
:10BB3000E5832377029B2000F377A31CDA770C9B25
:10BB40000C26636223000D9A283329001A705D7059
:10BB500032009D702C300DF0B7FF2000064B3200F4
:10BB6000A3632900E56340300DF0AEFF2000034BD6
:10BB70002565E36405B0F0BD41700200337002003A
:10BB8000F0B507001500A1B002C706006B4918A860
:10BB90001C000BF016FB2B1E03D028000DF0D4FF69
:10BBA00083B2012204920022039202920232019295
:10BBB00000932A0018A93800FFF79CFF3300604962
:10BBC000583318A807930BF0FCFA231E03D020006B
:10BBD0000DF0BAFF83B20122049200220392029276
:10BBE000023201920093220018A90798FFF782FF02
:10BBF00033005449AC3318A808930BF0E2FA269BA3
:10BC0000002B03D018000DF09FFF83B20122049295
:10BC1000002203920292023201920093269A18A9FE
:10BC20000898FFF767FF731CFF33474918A809936B
:10BC30000BF0C7FA279B002B03D018000DF084FFF0
:10BC400083B2012204920022701C039202920232FB
:10BC500001920093279A18A9FF30FFF74BFF33009A
:10BC60005533FF33394918A809930BF0AAFA289BDA
:10BC7000002B03D018000DF067FF83B2012204925D
:10BC8000002203920292023201920093289A18A98C
:10BC90000998FFF72FFF3300A933FF332C4918A869
:10BCA0000A930BF08EFA299B002B03D018000DF09D
:10BCB0004BFF83B201220492002218AC039202923D
:10BCC0000232019200932100299A0A98FFF712FF8D
:10BCD000204B1B780B93002B2DD1079B1E491393F0
:10BCE000089B0DA81493731CFF331593099B12979F
:10BCF00016930A9B12AD17930BF063FA1D2149208E
:10BD000006AB1B7F1022237006ABDB8D638206AB74
:10BD1000C918C0180DF0BCFE062323750B9B3068B4
:10BD2000A383A5610CF0E3FA036821001B68984720
:10BD30000122084B1A70300021B0F0BD292A000002
:10BD4000242A0000252A0000272A0000262A0000B5
:10BD5000282A0000712800200A18000070B500256C
:10BD600004000A4B8580083385710360C160183078
:10BD7000FDF71AFC20001C30FDF716FC044B2000D8
:10BD80001C600123A5606561A37170BDD49E020093
:10BD9000C0250020FA2130B585B00400012302221D
:10BDA0006846890009F0FEFE074D2868002809D082
:10BDB0000BF040FA2188054B2A68198002239179FB
:10BDC0000B43937105B030BDC02500204E280020E4
:10BDD00010B50C0007290FD880680CF084FA074BC7
:10BDE000195703685B6C984743425841044B4042E3
:10BDF0001840044BC01810BD0348FCE787AD020093
:10BE0000EA03000016FCFFFF17FCFFFFF0B5984C9B
:10BE10000D00A544040096AB1B78964908A807932B
:10BE20000692FDF787FB200029001C3009F07EFEFA
:10BE3000914909A8FDF77EFB90490AA8FDF77AFB16
:10BE40000CAE09AA08A90BA809F07FFE2A00300051
:10BE500011AD0BA909F079FE0AAA3100280009F0FA
:10BE600074FE290008A809F061FE280009F001FE0F
:10BE7000300009F0FEFD0BA809F0FBFD08200DF0D5
:10BE8000CFFD0700002100F095FE08220021A760E9
:10BE90000DA80DF019FE00230C932B0007CE07C34D
:10BEA000774B2900EB60002338002B610CF004FA7B
:10BEB000A0680CF018FA08220021059012A80DF0D5
:10BEC00003FE14200DF0ACFD6E4B2A00119303000D
:10BED000C2CAC2C36C4B059EC3600023A436036173
:10BEE0003368002B00D0BDE03060A0680CF0FFF993
:10BEF00008220021060012A80DF0E6FD14200DF026
:10BF00008FFD624B1193030086CD86C3604BC360E7
:10BF100000230361336B002B00D0A5E03063A068E1
:10BF20000CF0E1F908220021059012A80DF0CCFDDB
:10BF300014200DF075FD574B11AE11933200030024
:10BF4000A2CAA2C3544B059DC36000239835036168
:10BF50002B68002B00D089E02860012004AB1B7FF8
:10BF600004AA03430BA913770BF061F8A0680CF047
:10BF7000C2F9036849495B6A9847A0680CF0BBF9AD
:10BF8000036847499B699847A0680CF0B4F9454A93
:10BF9000036800921D6800231A001900A847079B38
:10BFA000002B0AD020000BF04EF9032805DDA06815
:10BFB0000CF0A1F90368DB68984706212000FFF721
:10BFC00007FF394B394A1B68A1680393384B30008F
:10BFD0001B6800250293374B1B680193069B1B6867
:10BFE00004330093344B12681B68FFF7C9FDA06847
:10BFF0000CF079F903680CA99B6A9847082304AAF6
:10C000001384A068DB18538495840CF06CF90368E2
:10C010000CA9DB6A98470621A0680BF0DEF8089AA5
:10C0200009219378A06804320BF0EAF8A0680CF0BC
:10C030005AF90571A0680CF056F93221FFF73EFD60
:10C04000A0680CF050F90BF0B2F80AA809F011FD45
:10C0500009A809F00EFD08A809F00BFD91239B002B
:10C060009D44F0BD03613FE7036157E7036173E758
:10C07000BCFDFFFF84AC0200A8AC020092AC020041
:10C080004F70020095BD01005D700200E5B801002F
:10C090006B7002009970020079700200BDC001004F
:10C0A000F1C0010094AC0200BC250020B82500209E
:10C0B00008200020B42500200C20002013B5062203
:10C0C0006846FDF747FA094B1C68002C0AD0694600
:10C0D00001A809F023FD200001A90BF0D5F801A863
:10C0E00009F0C7FC684609F0C4FC13BDC025002058
:10C0F000002373B501AE0C0031000500019302F07E
:10C1000031FC002802D1B278064B1A70064B186831
:10C11000002806D061426141044BC9B21D800BF07A
:10C12000BBF873BD80200020C02500204E280020D1
:10C13000F0B504008BB00F0005A87D490392FDF710
:10C14000F9F97C4906A8FDF7F5F9220005A91C328A
:10C1500009A809F0FAFC06AA09A907A809F0F5FC44
:10C1600009A809F086FCA0680CF0BDF8036800255A
:10C170005B699847A0680CF0B6F8030006000A3324
:10C180001F220021180002930DF09EFC029B30003C
:10C19000DD770BF003F80621A0680BF01EF8079A74
:10C1A00009219378A06804320BF02AF8A0680CF0FB
:10C1B0009AF80571A0680CF096F8C821FFF77EFC8C
:10C1C000A0680CF090F80581A0680CF08CF80AF0DB
:10C1D000EEFF3800FEF7EAF9390020000BF06FF8A7
:10C1E0002000FCF70DFF0295FF3562690123160060
:10C1F0001E401A422DD0504908A800F0D7FB08A9CC
:10C2000009A80BF0B7FF002209A9130001920092C0
:10C210003800FEF7C7FA09A80BF09FFF029B002B1E
:10C2200041D1043D282D40DC38000AF0A7FA002D4A
:10C2300000DC0296039809F08AFF002806D001234B
:10C2400062699A43130004221343636108A80BF048
:10C2500084FF04226369134230D0FF213800FEF7C7
:10C26000FFFA0026A36902229B5EB34222DD200072
:10C2700031B2183009F07FFC0023010038001A00A9
:10C28000743000F0E3FBC8208000FCF757FF380053
:10C290000AF074FAC820FCF751FF022263691342C6
:10C2A00008D10136DEE70435BCE7FE2DC2DD0023F0
:10C2B0000293BFE7FA208000FCF740FF0222636987
:10C2C00013421DD01E000632164013421CD01B49DB
:10C2D00008A800F06BFB08A909A80BF04BFF00228F
:10C2E00009A91300019200923800FEF75BFA09A831
:10C2F0000BF033FF1248FCF721FF08A80BF02DFFCD
:10C300006420FCF71BFF70E70E4908A800F04EFB05
:10C3100008A909A80BF02EFF33003200380001965F
:10C32000009609A9FEF73EFA09A80BF016FFE4E70C
:10C330009BAC020092AC0200ABAC0200F0AC02007D
:10C34000983A00002DAD02001FB5084B1B68DB8B2F
:10C35000834209D1064B68461A78064B06491A7083
:10C360000123032209F01EFC05B000BDC4250020F6
:10C370007228002073280020FF030000F0B51D0084
:10C38000ADB0040001610135143016000691FDF7CF
:10C390000BF9EBB21800079308F0BEFD002501363B
:10C3A000F6B26060300008F0B7FD4A4B2A001D70FD
:10C3B000494B4A491D70079B2060A672E372258194
:10C3C0000FA80BF01AF801270C2322680497019399
:10C3D00000963B000FA90395029517A8FFF78AFB6B
:10C3E0002A003F490FA80BF008F854200DF018FB65
:10C3F000202306000193079B6268049700930FA90E
:10C400003B0003950295FFF775FB364B08961E60BF
:10C410000AAE17AB2A003449300009930AF0EDFF49
:10C4200034213520337802AA52181370738A1231DE
:10C4300002AA52181380253902ABC9181022C0185D
:10C440000DF026FB4821022302AA52181370502235
:10C4500002AB9B1808AF159706981D800BF047FF9D
:10C4600003680FA91B689847722202AB9B181B88B0
:10C470000698E3600BF03BFF079014200DF0D0FA14
:10C4800007001A4B05610822310010C00A930B9572
:10C490000DF0FEFA164BFB60079B9B69AB4217D170
:10C4A000079B06989F610BF022FF050008220021E0
:10C4B0000BA80DF009FB0F4B0A932B006C3307CE32
:10C4C00007C30D4B2000AB670023EB672DB0F0BD19
:10C4D0003B61E5E772280020732800208FAD020041
:10C4E0009FAD0200C4250020AFAD020057730200CB
:10C4F0002D73020049C301001F730200054A0300A7
:10C500001178054A1278501A914201D9DB7AC01885
:10C510007047C0467328002072280020F0B58DB007
:10C5200002AF040039607A613B61002A00DCA2E0BE
:10C530003B69012B00D19EE027230025FB180069F1
:10C540001D700BF0D4FE272203684D499B69BA1871
:10C550000968984720690AF073FF022302001A4015
:10C56000184236D12533FB181B78AB4200D185E049
:10C57000FA6120690AF064FF0223184275D025335E
:10C58000FB181B78FB60002B6FD03E4B6E461D786E
:10C590003D4B1B78BB60FB69BB6100237B60BB69C3
:10C5A0007A69934217DAE17A681C04F013F8BB68E1
:10C5B0008B420AD0BA693B689B5C62685355FB6941
:10C5C000CDB20133FB61FB687B60BB690133BB61AA
:10C5D000E5E7FD61CDE77B68002B01D0294B1D709D
:10C5E0002000FFF78BFF6A46C31DDB08DB00D31A70
:10C5F0009D4602AB0200002105001800BB610DF052
:10C6000063FA204BE27A1B7820000193BB68009309
:10C61000BB6961680AF019FF3B69022B03D1032152
:10C620001A48FCF7B7FD20690BF061FEABB200259C
:10C63000134A1268D18B02680095D2681500BA6956
:10C64000A8473B69022B14D1FCF70EFD20690BF0C3
:10C650004EFE272203680A499B69BA180968984761
:10C66000FB697A69B546934283DBBD46F8690BB036
:10C67000F0BDB546F9E7064BFB61F6E7054BFBE776
:10C68000C42500207228002073280020FF0300002A
:10C6900017FCFFFF16FCFFFF002815D0006041606B
:10C6A0008260C360046145618661C761444604627B
:10C6B0004C464462544684625C46C46264460463E9
:10C6C0006E46466374468463002A06D0C46B043CFD
:10C6D000043A25681560B442F9D18C6BA6464E6BBE
:10C6E000B546002B06D0CC6B043C043B1D6825608E
:10C6F000B442F9D10C6BA446CC6AA3468C6AA2461C
:10C700004C6AA1460C6AA046CF698E694D690C69D6
:10C71000CB688A6808684968704700604160826039
:10C72000C360046145618661C761444604624C464A
:10C730004462544684625C46C462644604636E4646
:10C74000466374468463C46B043C043925680D60F9
:10C75000B442F9D1C76986694569046970470060C8
:10C7600041608260C360046145618661C76144467F
:10C7700004624C464462544684625C46C462644629
:10C7800004636C4644637446846304697047846B35
:10C79000A646446BA546046BA446C46AA346846AB5
:10C7A000A246446AA146046AA046C76986694569EB
:10C7B0000469C368826800684168704710B5041E48
:10C7C0000CD00DF0C1F9431EE318A34208D922781A
:10C7D0001978013B21705A700134F6E7014810BD09
:10C7E0000020FCE717FCFFFFF0B585B00D1E0090A0
:10C7F00029D000260A27C217141A4B1E544003934F
:10C800002000029639000136019603F0E3FECB17B3
:10C81000C9185940039B303120009955390003F065
:10C82000F3FD041EECD1009B002B04DA2D23029EA5
:10C83000019A0236AB5400232800AB55FFF7BEFF28
:10C84000200005B0F0BD014CFAE7C04617FCFFFF21
:10C8500010B50400100048436160A26000280BDDA1
:10C86000074B984205DC80000DF0ECF820602000BA
:10C8700010BD01204042F7E700232360F7E7C046E0
:10C88000FEFFFF1F4A688B6870B583605343040046
:10C890000D004260002B12DD0A4A9E0030009342D8
:10C8A00001DD012040420DF0CDF800232A68206010
:10C8B000D158C1500433B342FAD1200070BD0023D7
:10C8C0000360FAE7FEFFFF1F014B03607047C0469D
:10C8D000EC9E020030B500684488A1420CDA8588DD
:10C8E000AA4209DA002907DB002A05DB6243401867
:10C8F00080188371002030BD0048FCE717FCFFFF63
:10C90000F0B507000E001D0085B0002921DD002ACA
:10C910001FDD002B1DD00468638803938B4200DD6C
:10C920000391A3880293934200DD02920023063410
:10C930000193019B029A93420ED029002000039A92
:10C940000DF0A6F83B68AD195B88E418019B013334
:10C95000EEE7024805B0F0BD0020FBE717FCFFFF43
:10C96000F8B504000D0016001F00002901DB002AA5
:10C9700002DA0D4B2360F8BD10004843063008F082
:10C98000CBFA206009F05BF923685D809E80002F60
:10C9900006D03B00320029002000FFF7B1FFEAE794
:10C9A00020000BF0EFFBE6E7EC9E0200F7B5070076
:10C9B0000D1E03D1244B03603800FEBD0024080087
:10C9C0002600210001940378002B1AD03022524215
:10C9D00094469C446246092A11D90A2B0AD1019B2C
:10C9E000361901330193B14200DA310000242600E8
:10C9F0000130E8E7002CFBD000240136F8E70124E1
:10CA0000F6E70126019A380012B209B27642FFF722
:10CA1000A7FF31000A203B689A1D2C78002CCBD050
:10CA20002300303B092B08D8F343DB173340434343
:10CA30001B19303B1E000135EFE7002EFBDB1670A3
:10CA40000E000132F7E7C046EC9E0200F0B505008B
:10CA500087B004A816001C000F00FCF753FC2B68DD
:10CA60005A88964235DA9B889C4232DA1F2F30D999
:10CA7000059B01939F422CDC05217943049BA0393F
:10CA80005B1801932300621D0392019A12780292AF
:10CA900000222C68B7186088B8420DDDA1888B424F
:10CAA0000ADAE419102717415843029924180F4055
:10CAB000781E87417F42A7710132052AE9D1019A88
:10CAC000013301320192039A9342DED1002007B074
:10CAD000F0BD0148FBE7C04617FCFFFFF7B5036850
:10CAE00006009F1D5B880D005A1A0192002919DD6E
:10CAF0000024994203DB0BF045FB002013E0336870
:10CB00009B889C42F9DA79193800019A0CF0C0FF31
:10CB1000019B2900F8180BF027FB336801345B8870
:10CB2000FF18ECE70048FEBD17FCFFFF10B50548F5
:10CB3000054C206009F086F82000044A04490CF0F6
:10CB400064FF10BDEC9E0200C825002000200020DC
:10CB50005B81020070B5002817D1124D2E68002E9F
:10CB600011D108300CF05CFF066046600E4E0400E8
:10CB70003368002B02D10CF006FA306023682C6079
:10CB80009B00F3586360286870BD084A0123116850
:10CB900007480C001C401942F6D103604460136042
:10CBA000F2E7C046D0250020DC250020CC2500205F
:10CBB000D4250020002370B5040001604360994231
:10CBC0000AD1064D2B68002B02D10CF0DCF928604D
:10CBD00023689B00EB586360200070BDDC250020BB
:10CBE000436810B50400002B02D104480CF017FD77
:10CBF000606803681B69984710BDC046BFAD02005E
:10CC0000436810B50400002B02D104480CF007FD66
:10CC1000606803689B69984710BDC046BFAD0200BD
:10CC2000436810B50400002B02D104480CF0F7FC57
:10CC3000606803685B6A984710BDC046BFAD0200DC
:10CC400010B5040002F0E8FA034B1B68002B01D07A
:10CC50002000984710BDC046E4250020F0B58BB0F9
:10CC6000050001F0B9FC002000F018FF0368060081
:10CC70001B699847336804009B6930009847336804
:10CC800001905B6A300098470200288810380B2812
:10CC90006CD803F01BFB06486B6B6B656B6B6B71A1
:10CCA0006B83AF88200039000BF01DFF2200162394
:10CCB000583216789C46143B3343A879697B13702D
:10CCC000012304AEB3700023378032001F00AC4450
:10CCD000F070981801330771062BFAD10027917272
:10CCE0003A00F3190137DA72062FFAD163463A0097
:10CCF0007361E91D05A80CF0CBFE29000B2004ABE5
:10CD00003A000E31C0180CF0C3FE94346368A3607F
:10CD1000A06800282AD0C36831009847A368002B78
:10CD2000F4D01B69F3E720002E49AE880BF0DBFE40
:10CD30002200022058321378A9798343137004AB80
:10CD40001E809970A0346368A360A06800280DD08D
:10CD5000C36804A99847A368002BF4D01B69F3E7C4
:10CD60005369002B02D0A888A91D98472900019873
:10CD70000BF010FC0BB0F0BD636E002BF6D0AE795B
:10CD8000A366A06E0028F1D0C36831009847A36E57
:10CD9000002B01D1636EF3E71B69F1E701266946B9
:10CDA0000D27AB7BEF575A071E40920FDB080A7224
:10CDB0000B730622E91D04A80CF06AFE6A46127A7B
:10CDC00004AB1A726A46127B9F715A72DE712B0095
:10CDD00020000F338C3407938030236804A99847D0
:10CDE000C4E7C046FFFF0000014B18607047C04613
:10CDF000E42500201FB58022A323D205DB00D358F1
:10CE00000820DB0700D4053048221D4B1D4901F0E6
:10CE10001DFE00280AD080B2002807D1BFF34F8F33
:10CE2000194B1A4ADA60BFF34F8FFEE7002302A8BE
:10CE3000029301330370164B1B6843600BF063FAD7
:10CE4000002802D0072005B000BD6B46581C0BF02F
:10CE500058FA0028F6D16B46591C0BF050FA0028FE
:10CE6000F0D10C4801F022FE80B20028EBD10A4834
:10CE700001F026FE80B20028E5D100F01FF8E2E7BD
:10CE80000B830200E825002000ED00E00400FA0515
:10CE9000E02500205DCC010041CC010080B20028DB
:10CEA00007D1BFF34F8F034B034ADA60BFF34F8FB5
:10CEB000FEE7704700ED00E00400FA051FB52823E7
:10CEC00002AC23806933FF336380E3806B4600222A
:10CED000D81D1123A2800D49037005320BF021FAF1
:10CEE00080B200280FD1802080000BF016FA80B2AB
:10CEF000002808D120000BF012FA80B2002802D1DD
:10CF00000BF009FA80B204B010BDC046E2AD0200D9
:10CF100013B504680093A46813000A000149A047F0
:10CF200016BDC046FFFF000037B506AC2578046883
:10CF300001950093246913000A000149A0473EBDF2
:10CF4000FFFF0000F0B587B016000DAA0D001478A1
:10CF500000216A46518069460CAA128801930A8012
:10CF6000002C1AD101004279F831A2420BD9E70016
:10CF7000CF5BB7421BD130212034A40022580132AC
:10CF8000D27F0A4215D16A46310028000BF0CDF954
:10CF90000623002808D0032306E06A463100280053
:10CFA0000BF0C3F9031EF6D1180007B0F0BD013431
:10CFB000DBE710210A4051424A41002005930CABA7
:10CFC0000493194B02AC01322680A270A0809D42CE
:10CFD00007D100F063FD03681B6998470BF086FDDD
:10CFE0000500210028000BF0A4F9002382B29A4228
:10CFF000DAD010000D4A05339042D5D00FD8013356
:10D000000828D1D0013B1128CED06A463100280033
:10D010000BF08BF905230028C6D0023BC4E7044A75
:10D0200006239042C0D0F0E7FFFF0000033000006D
:10D0300001340000F0B5040099B008002E250C91D1
:10D0400000F07EFE06ABED1812902A00012012A916
:10D050000BF069F9002802D0032019B0F0BD2B882D
:10D060000C9A0B9093830C9B0B9A1B7D934200D8D8
:10D07000C6E063791D2B01D90720EEE70C9B9B6965
:10D080000D930B9B0D9A9B009D586B69002B07D14C
:10D090006B8B002B04D16B1CDB7F022B00D1AAE031
:10D0A000280000F04DFE2B000026283312900E962B
:10D0B0000D960F930F9B1B78B34221D96A6AB30078
:10D0C0009F58342206AB9B1800221A7013000021CF
:10D0D00013AA9A1801335170102BF8D1462206ABCF
:10D0E0009B184A4A38001A8013A90BF0A1F90028AE
:10D0F00003D07B690D937B8B0E930136F6B2D9E793
:10D100006179AB1C1F31C90061186A1CDB7FD27FBB
:10D11000089129002A310978002007912900293136
:10D12000097806910E9905910D990491297F039133
:10D13000298B0291698B01916969009112A90BF009
:10D14000C7FF002800D087E7637907001A00203264
:10D1500092001F331551DB001B5BEB8363790133B6
:10D1600063712B0028331B78BB4244D98E239B006C
:10D17000E35C132B00D97FE76A6ABB009E5800234B
:10D18000180013A90B705A1801335070102BFAD1E4
:10D190001E4B30004B820BF04BF90D90002827D12D
:10D1A000300000F0CDFD8E218900625C738B1E3251
:10D1B000FF325200A2180292327F12900192328BFB
:10D1C0000D980092726912A90CF027F8002800D07F
:10D1D00042E78E218900625C531CDBB263541D332D
:10D1E0007A32FF3392005B001651E3185B88F383B9
:10D1F0000137FFB2B5E70B980130C3B20B9332E7AA
:10D20000237900200133237127E7C046012900005C
:10D2100070B50C220D00002104000CF055FC002319
:10D220002361024B20002560E36070BD1F73020084
:10D2300070B505000BF018F9041E1DD128007822E6
:10D24000210080300CF040FC2800E9305022210001
:10D25000FF300CF039FC280008222100F8300CF0D7
:10D2600033FC064B2822E81821000CF02DFC8E23FD
:10D270009B00EC54200070BD0624FBE73A0200003E
:10D28000024B0B60092313607047C046E8AD0200F3
:10D2900010B50400002000F001FC03681B699847EA
:10D2A0000300F3331C7086235B00C0500300002191
:10D2B000044AFC335A61044A99615A62F4300CF012
:10D2C00041F910BDA3890200B5890200012110B502
:10D2D000054A080000F0C6FD03005A1E93410B20CA
:10D2E0005B42184010BDC04691D20100F0B5050068
:10D2F000040087B0AC356B68AB60A868002807D025
:10D30000C36821009847AB68002BF4D01B69F3E792
:10D310002600B0363568002D05D02F6928000CF0A6
:10D320007BFB3D00F7E7220003215832137835607C
:10D330008B431370260023000A365C331F2229001A
:10D3400030001D700CF0C0FBF5772A361F22290033
:10D3500030000CF0B9FBF577606E002804D0056949
:10D360000CF05AFB2800F8E725009835606628681D
:10D37000002804D006690CF04FFB3000F8E72600C7
:10D38000A43628603568002D05D02F6928000CF0E0
:10D3900043FB3D00F7E729003560082202A80CF0A6
:10D3A00093FB01AE2300320001956C3383CA83C323
:10D3B000094B08222900A367E56702A80CF084FB4B
:10D3C00023000195803307CE07C32800034A903419
:10D3D0001A60256007B0F0BD9589020087890200B8
:10D3E000F0B593B0029000200C0000F057FB0368EA
:10D3F0005B6A984700F0C4FB030006A8002B0DD021
:10D400000023037105AB0693082303730AAB836003
:10D4100000F080FC002803D013B0F0BD037103734B
:10D420000023237323710193029B019ABA331B7863
:10D4300093423ED9072353431E00029ABB36D318AA
:10D44000BB331B789619022B2CD1002506AF3B7BF2
:10D45000AB4220D9AB000393089BAA003000995837
:10D460000BF007FE00281AD0B868AB00C118237B68
:10D47000A6689C469A000B68935163460133237358
:10D480003B7B5A1E954204D00B4D5B199B001B58E9
:10D490000B6006AB1A73019B0133DBB2C3E70135A6
:10D4A000EDB2D3E7237921689A00013356502371F6
:10D4B000F1E70020B0E7C046FFFFFF3F0200087819
:10D4C00010B5012816D04B8803280ED1A03B0A4C7A
:10D4D0009BB2A34208D880238C880320DB019C42A6
:10D4E00002D210000BF005FB10BD203B0320034CC3
:10D4F0009BB2EEE70220F7E7603F0000E03F00004C
:10D50000F0B59DB01E006B4605005A70981C0622AF
:10D510005F1C02AC0CF0BCFA002E2FD033882380A5
:10D5200073886380B388A380F388E3800CAB049393
:10D5300014AB6A4606932E000023B9361375137791
:10D540003378002B22D101223378022608A9134018
:10D5500058000B78B3430343229804AE4E60002872
:10D560001CD12800323000789343104003430B70E5
:10D57000AB8D0B81EB8D4B812B8E1DE032232380F5
:10D58000DB186380F533A680FF33CEE7280004A9BB
:10D59000FFF726FF0028D6D01DB0F0BD2298934398
:10D5A0008079104003430B70229B1B880B81229BC8
:10D5B0005B884B81229B9B88220038008B810BF07B
:10D5C00019F9031EE8D0112814D80B20032BE3D936
:10D5D000181F0D280CD802F079FE150B0B09070B4C
:10D5E0000B0B0B0B0B0B09130620D5E70420D3E71D
:10D5F0000B20D1E7044A0B209342CDD10738CBE76B
:10D600000520C9E70720C7E702320000004870473D
:10D61000FFFF0000F0B597B00593036807AD1B68E6
:10D620000491039311002B00060091C991C30024BB
:10D63000D368210008220DA8EB602C610CF044FA9D
:10D6400022000B4B10940F9311AB0C941C70E1183B
:10D6500001344A70102CFAD15A820193059B2A009A
:10D66000009330000499039C0CABA04717B0F0BDA9
:10D67000418C0200FC3070B5046C0500002C0DD10B
:10D6800024200CF0CDF9064B44608361054B846087
:10D69000C46004614461C46103602864286C70BD87
:10D6A00084A002006CA10200FC3070B5C56B0400C0
:10D6B000002D11D134200CF0B3F9084B8560436084
:10D6C000074B45610361074B0562C361064BC562A9
:10D6D0008362064BE0630360E06B70BDB4A00200A0
:10D6E000A4A0020014A1020024A1020034A102009F
:10D6F0007FB503791548002B23D0154E154C337890
:10D700002000002B1DD10A256D4428000BF08AFA59
:10D71000002810D16B88592B0DD12B78AA88D91FDE
:10D72000012910D800920C4A2021200007F0DEFCCD
:10D730000123337004E02022200008490CF00BFA8A
:10D74000200004B070BD0092054AEDE7F1AD020083
:10D75000942800207428002013AE02000BAE0200B3
:10D7600030AE020010B50400024B08C00BF024FBE1
:10D77000200010BDA4A0020010B50400024B08C098
:10D780000BF02FFB200010BDB4A00200064B70B5BB
:10D79000040003604068002804D005690CF03CF9DF
:10D7A0002800F8E7200070BD94A00200064B70B579
:10D7B000040003604068002804D005690CF02CF9CF
:10D7C0002800F8E7200070BDC4A00200064B70B529
:10D7D000040003604068002804D005690CF01CF9BF
:10D7E0002800F8E7200070BDD4A00200064B70B5F9
:10D7F000040003604068002804D005690CF00CF9AF
:10D800002800F8E7200070BD14A10200064B70B597
:10D81000040003604068002804D005690CF0FCF89F
:10D820002800F8E7200070BDB89F0200064B70B5D5
:10D83000040003604068002804D005690CF0ECF88F
:10D840002800F8E7200070BDC89F0200064B70B5A5
:10D85000040003604068002804D005690CF0DCF87F
:10D860002800F8E7200070BDD89F0200064B70B575
:10D87000040003604068002804D005690CF0CCF86F
:10D880002800F8E7200070BDE89F0200064B70B545
:10D89000040003604068002804D005690CF0BCF85F
:10D8A0002800F8E7200070BD84A00200064B70B588
:10D8B000040003604068002804D005690CF0ACF84F
:10D8C0002800F8E7200070BD24A10200FC3070B5EC
:10D8D000046C0500002C0DD124200CF0A1F8064B9F
:10D8E00044608361054B8460C46004614461C46129
:10D8F00003602864286C70BD84A002006CA1020043
:10D90000134B70B508330360124B0400C3608023CF
:10D91000114A451CFF355B00C25028000BF001FE88
:10D92000280001F025FF20000C4BB830E360FFF722
:10D930009DFF2000AC30FFF789FF2000A030FFF7EB
:10D9400075FF20006C30FFF761FF200070BDC046FE
:10D9500098A102002C9F020068A20200F89F02001A
:10D96000444AF0B50600C260A022434B01000833D0
:10D9700003601636002342820400320085B0037132
:10D980008360037483823531137001329142FBD17D
:10D99000802580222000AD00D2011100F37735846C
:10D9A00038300093002300F01DFA2300210040339B
:10D9B0001A0003932B0000255F31157001328A4253
:10D9C000FBD1039A0321D5772200603213801379AB
:10D9D00020008B431371230068331D70274B0C22EA
:10D9E000E3660021256778300CF06EF823002700ED
:10D9F00088331D60224B0837A567FB6784370021F9
:10DA00000C2238000CF060F81E4B1F4AFB6023000C
:10DA1000A0333D613D601A601C4A5D60DA601C4ABB
:10DA20001D619A61DD6130000BF0A4FA03980BF0E0
:10DA3000A1FA184B601CE3602300C4331D809D7065
:10DA4000FF3001F07FFE8C235B00E550230019338B
:10DA5000FF335D618023104A5B00E2502300012206
:10DA60002000FE3352425A86023B9D63DD631D64F3
:10DA700005B0F0BDF89F020098A10200B89F020017
:10DA80009589020087890200C89F0200D89F020082
:10DA9000E89F02002C9F02007CA2020070B5074D97
:10DAA0002B68002B07D1A02040000BF0B9FF040029
:10DAB000FFF756FF2C60286870BDC0463026002056
:10DAC00070B500250400254B29000360244B858098
:10DAD0008360244BC5604361234B85610362234B04
