:020000021000EC
:108000000040002035FE010071FE010073FE0100FA
:108010000000000000000000000000000000000060
:1080200000000000000000000000000075FE0100DC
:10803000000000000000000077FE010079FE010052
:108040007BFE010059B40100310502007BFE0100F6
:108050007BFE0100000000004DFF01007BFE0100DF
:108060007BFE010019070200B90302007BFE01003C
:108070007BFE01007BFE01007BFE01007BFE010018
:108080007BFE01007BFE01007BFE01007BFE010008
:108090007BFE0100B1E4010031E601007BFE01003E
:1080A0007BFE01007BFE01000000000000000000DC
:1080B00000000000000000000000000000000000C0
:1080C00010B5064C2378002B07D1054B002B02D0AE
:1080D000044800E000BF0123237010BDB020002041
:1080E00000000000B8B70200044B10B5002B03D00D
:1080F0000349044800E000BF10BDC0460000000076
:10810000B4200020B8B70200164B002B00D1144B4E
:108110009D46402292029A1A924600218B460F46B3
:108120001348144A121A12F00BF90F4B002B00D00F
:1081300098470E4B002B00D09847002000210400E8
:108140000D000D48002802D00C4800E000BF0DF0E3
:108150009FF92000290011F0E9FE0DF083F9C046D7
:1081600000000800004000200000000000000000A7
:10817000A8200020202900200000000000000000AE
:1081800010B50400034B036040300DF052FF200097
:1081900010BDC046C0A50200F0B585B01F000AABF7
:1081A0001B880600150002910393002F1CD0282085
:1081B00001F066F96B4604001989039BAAB200938B
:1081C0003B000DF0D4FE3368210030005B68984717
:1081D00000280AD0002C05D020000DF0DEFE200083
:1081E00001F068F9024800E0024805B0F0BDC04661
:1081F00016FCFFFF17FCFFFF0022104B00B5FF210C
:108200001A70662389B01A0000910D4803F0FEFC35
:108210000C4907A801F038FAC82207A952000A48F9
:1082200002F07CFC07A80DF004FF084801F030F8CC
:1082300007480DF034FD09B000BDC0465C280020A1
:10824000F0240020D8B10200C021002088130000D3
:10825000D420002010B506480EF031FE0BF0AAF92C
:10826000044A054B0AF072FB0BF06EF910BDC046D4
:10827000C02100200EBE30992A18D93F37B50321FE
:10828000684607F0FBFD64240025684607F03AFEC7
:10829000104909F085F909F065FC7E2802DD854268
:1082A00000DA0500013C002CEFD128000BF082F928
:1082B000094A0A4B0AF04AFB0022094B0AF0B2FDB8
:1082C0000BF042F9002801DA20003EBD6428FCDDF5
:1082D0006420FAE700007F43333333333333E93F1D
:1082E00000005940F7B501211E480EF013FA0BF0BB
:1082F00061F904000D001B4801210EF01EFA0BF07D
:1083000059F906000F00174801210EF029FA0BF069
:1083100051F92200009001912B00200029000AF061
:1083200015FB32003B0004000D00300039000AF05C
:108330000DFB02000B002000290009F0B5FC009A9B
:10834000019B0D000400190010000AF0FFFA020062
:108350000B002000290009F0A7FC0BF0CFFD0BF06B
:10836000F3F8FEBD98220020F0B595B0FD4913A8A2
:1083700001F08AF9782213A9FB4802F061FC13A8E6
:108380000DF057FEFF230093CC3B1A000021F74865
:1083900003F03CFC01220225F54BF6491A700B68EC
:1083A00003929B180B60F44EF4490FA8376801F054
:1083B0006BF9FFF763FF010010A80DF056FE10AA3D
:1083C0000FA911A80DF0A1FEED4C12A8210001F09B
:1083D0005BF912AA11A913A80DF097FE2A0013A9A0
:1083E00038000FF03BFD13A80DF023FE12A80DF08E
:1083F00020FE11A80DF01DFE10A80DF01AFE0FA80A
:108400000DF017FEDF490FA8376801F03DF9DE488F
:108410000FF06EF9010010A80DF027FE10AA0FA9A9
:1084200011A80DF072FE210012A801F02DF912AA78
:1084300011A913A80DF069FE2A0013A938000FF046
:108440000DFD13A80DF0F5FD12A80DF0F2FD11A819
:108450000DF0EFFD10A80DF0ECFD0FA80DF0E9FDFB
:10846000CA490FA8376801F00FF9FFF7F3FE0100C2
:1084700010A80DF0FAFD10AA0FA911A80DF045FEE5
:10848000210012A801F000F912AA11A913A80DF0F9
:108490003CFE2A0013A938000FF0E0FC13A80DF0F1
:1084A000C8FD12A80DF0C5FD11A80DF0C2FD10A861
:1084B0000DF0BFFD0FA80DF0BCFDB5490FA8376842
:1084C00001F0E2F8B34801F03DFE010010A80DF004
:1084D000CCFD10AA0FA911A80DF017FE210012A8BB
:1084E00001F0D2F812AA11A913A80DF00EFE2A006D
:1084F00013A938000FF0B2FC13A80DF09AFD12A8D2
:108500000DF097FD11A80DF094FD10A80DF091FD50
:108510000FA80DF08EFDA0490FA8376801F0B4F840
:1085200003999E480EF0F6F8010010A80DF09DFD8D
:1085300010AA0FA911A80DF0E8FD210012A801F062
:10854000A3F812AA11A913A80DF0DFFD2A0013A9A0
:1085500038000FF083FC13A80DF06BFD12A80DF08E
:1085600068FD11A80DF065FD10A80DF062FD0FA8C3
:108570000DF05FFD8A490FA8376801F085F803996F
:1085800086480EF0DAF8010010A80DF06EFD10AA72
:108590000FA911A80DF0B9FD210012A801F074F87F
:1085A00012AA11A913A80DF0B0FD2A0013A93800D2
:1085B0000FF054FC13A80DF03CFD12A80DF039FD8E
:1085C00011A80DF036FD10A80DF033FD0FA80DF029
:1085D00030FD74490FA8376801F056F803996F48C9
:1085E0000EF0BEF8010010A80DF03FFD10AA0FA973
:1085F00011A80DF08AFD210012A801F045F812AA79
:1086000011A913A80DF081FD2A0013A938000FF05D
:1086100025FC13A80DF00DFD12A80DF00AFD11A800
:108620000DF007FD10A80DF004FD0FA80DF001FDE1
:108630005D490FA8376801F027F8FFF753FE0100E6
:1086400010A80DF012FD10AA0FA911A80DF05DFDE4
:10865000210012A801F018F812AA11A913A80DF010
:1086600054FD2A0013A938000FF0F8FB13A80DF0F1
:10867000E0FC12A80DF0DDFC11A80DF0DAFC10A84A
:108680000DF0D7FC0FA80DF0D4FC48490FA83768AF
:1086900000F0FAFF41480EF0DDF8010010A80DF0DF
:1086A000E4FC10AA0FA911A80DF02FFD210012A8BB
:1086B00000F0EAFF12AA11A913A80DF026FD2A0066
:1086C00013A938000FF0CAFB13A80DF0B2FC12A8D2
:1086D0000DF0AFFC11A80DF0ACFC10A80DF0A9FC3A
:1086E0000FA80DF0A6FC324909A8366800F0CCFFAF
:1086F00030480EF0BDF801000AA80DF0B6FC0AAA39
:1087000009A90BA80DF001FD21000CA800F0BCFF89
:108710000CAA0BA90DA80DF0F8FC27490EA800F033
:10872000B3FF0EAA0DA90FA80DF0EFFC23480EF021
:108730009FF8010010A80DF098FC10AA0FA911A82D
:108740000DF0E3FC210012A800F09EFF12AA11A96F
:1087500013A80DF0DAFC2A0013A930000FF07EFBFD
:1087600013A82DE060B70200C0210020F0240020F3
:108770005C280020CC2000200C250020DAB102006B
:10878000DDB10200E0B102004C230020E3B10200A1
:10879000E6B10200FC220020E9B10200982200208C
:1087A000EDB10200F1B10200F5B10200F9B1020031
:1087B000FDB102003822002001B202006022002038
:1087C0000DF037FC12A80DF034FC11A80DF031FCAF
:1087D00010A80DF02EFC0FA80DF02BFC0EA80DF02C
:1087E00028FC0DA80DF025FC0CA80DF022FC0BA810
:1087F0000DF01FFC0AA80DF01CFC09A80DF019FCD7
:108800000A2000F045FD034B1B78002B00D0CAE581
:1088100015B0F0BD5C280020F7B51F4CFA262000EB
:1088200000F080F91D4801F08DFCFF2110270B009E
:108830000A0000911A4803F0E9F91A4DB600310018
:10884000009701222800184BFFF7A6FC31000222F6
:10885000164B00972800FFF79FFC1C2000F010FE2D
:10886000202305003036A1591A0004F00BFA104BF2
:1088700038001D6000F004FEA1590E4A04F002F910
:108880001C2000F0FDFDA159044A03F0C7FF00F0D1
:108890007BFD0020FEBDC046D4200020FC2200202D
:1088A000F0240020A421002069830100F981010047
:1088B0000C2500204C23002070B50A4C200000F04D
:1088C0005FF8094D20002A00084911F0DAFC084C35
:1088D0000849200000F0D8FE2A002000064911F0C7
:1088E000D0FC70BDD420002000200020FD880100B5
:1088F000D0200020DFB1020033600200862310B5D3
:108900000400DB00C01803F033F81B4BE01803F041
:1089100007F9F423194A9B00E2501C33E0180DF0CC
:1089200088FBFA239B00E0180DF083FB8A239B0051
:10893000E01801F06FFA2000C530FF3001F076F842
:1089400020008D30FF3001F02DFA20006530FF301F
:1089500001F028FA2000EC3001F0F8FE2000D030C1
:1089600002F0F2FB2000643007F0AEF9201DFFF7A3
:1089700007FC200010BDC0461C0400005CA70200DC
:10898000F0B51425040097B019222B00009518218A
:10899000043002F0B1FD23002700260064331800E4
:1089A000B43713211393B83607F09AF938000EF054
:1089B00045FE2900132230000EF095FA2000D03039
:1089C00002F0E2FB2300EC3306211800514A149315
:1089D00001F0E4FE200000236530009301331A000B
:1089E0001121FF3001F0EAF9200000238D300093BF
:1089F000022210210133FF3001F0E0F92000B530F0
:108A00001A2302220121FF3002F07CFC2200C53231
:108A1000FF321292310004231822129801F012F84A
:108A20008A229200A218159205231D22310001937B
:108A300000923B00129A159801F0F0FB9B229200E5
:108A4000149B1599A018129A01F0BCFD9E22920069
:108A50003900A0181C2202F07DFE3223A4221093BC
:108A6000193B0F93013B0E93013B0D93013B0C937C
:108A7000013B0B93023B0993023B0793013B069397
:108A8000013B0593013B0493013B0393013B02939C
:108A9000013B0A950193023D9200013BA01800930F
:108AA0000822013B072108950EF025FAF4229200D6
:108AB0003900A01803F068FBFC229200A0181D21C9
:108AC00002F066FC83230026DB00E650124B2822CE
:108AD0002900E01803F0BCF88623DB00E01802F060
:108AE000E1FF13980321267011F0F4F8230022000F
:108AF00020000A499C33A0321C6011605660084A6D
:108B000002215A618030012207F0D2FA200017B00A
:108B1000F0BDC046C8A502001C0400009F5C020016
:108B2000D15C0200F0B502780123170004008BB07D
:108B30001F401A4200D0A9E0C530FF300DF046FCBE
:108B40002300D0331800039300F064FA00F092F988
:108B5000282000F095FC050010300DF0F9FA4C4B80
:108B600018202B6000F08CFC06004A4B082208936A
:108B70003900099704600C3011F0E2FB08A90822C3
:108B8000301D11F0C1FB444B29007361122303987F
:108B9000AE60EF60AB802F626F6202F06DFA00286A
:108BA00005D028000DF0F9F9280000F083FC01251C
:108BB0000027237864202B43237000F069FB059580
:108BC00026006536FF3630000DF052FE00283CD0FE
:108BD00020008D30FF300DF04BFE002835D00A2FDD
:108BE00033D06420013700F053FB0A2FE8D1F4237F
:108BF0009B00E5184833E3580493002B1ED100F086
:108C000059F8010007A800F03FFD08A80DF0C4F8CE
:108C1000059B08AA07A928000093039B03F00CFBFF
:108C200008A80DF006FA07A80DF003FAF6239B003A
:108C3000E35804938323049ADB00E25021003200BE
:108C40002800EC3103F08AFCBAE78325ED00665971
:108C5000002E1BD100F02EF8010007A800F014FD33
:108C600008A80DF099F8F4239B00E01808AA039BCC
:108C700007A9009603F0E0FA08A80DF0DAF907A8B2
:108C80000DF0D7F9F6239B00E35863510BB0F0BD0C
:108C9000FD030000275D0200E75C0200BFF34F8F79
:108CA000024B034ADA60BFF34F8FFEE700ED00E0AE
:108CB0000400FA05F0B58BB002ABDF1D19223800B5
:108CC000144911F021FB0023134D05266B718023FD
:108CD0005B055B6E2C00009301230193310000982B
:108CE00007F0C4FE0800019907F03AFE0522009B38
:108CF00056431B1A0093019B534301932B1B534371
:108D0000FB181B5C013C6371044B9C42E6D102489A
:108D10000BB0F0BD3BB202005D28002058280020B7
:108D2000F0B595B01822002104000EA811F008FB40
:108D300013210EA811F0D8F803210EA811F07FF925
:108D4000464B1B68002B00D10133DBB2009300219E
:108D50000123434A09A807F01BFBFA239B009C420E
:108D60009B411C4072B63F4B64211E683E4B200065
:108D70000593052507F07EFE6843503030180A2120
:108D80000690200007F076FE0A2107F059FF69439C
:108D900050317118200007910A2107F051FF4D430F
:108DA00050357619089680260024B601009B002BCA
:108DB00052D004AD0027032C02D180260024B60136
:108DC0006B682A4A02936300D318002201925878F4
:108DD0000299095C039119788C4610216046014183
:108DE0000398014204D00120904001990143019170
:108DF00001320633092AEAD1019B2A68D9431C4B68
:108E000009011940029B934224D1312F22DC002119
:108E100009A811F0D4F9FA23139A0F99DB0010680E
:108E2000014219D0013B002BF9D1FA23013401375B
:108E30007600E4B25B009F42BDD1043508ABAB4283
:108E4000B8D1064B1B68002BB0D0009B013BDBB2B6
:108E50000093ABE73143DBE7FFF720FF1425002049
:108E6000F0FF0000042000208AB2020054B2020089
:108E7000F01F0000F8B50023124C23600CF0ADFF8A
:108E8000002808D0042120000CF0A3FF002801D006
:108E90000D4B2360F8BD0122A12704250B4B0C4983
:108EA0001A602268FF0048604E68002EFCD0DE5930
:108EB0001202013D3243002DF5D1226001225A6099
:108EC000E8E7C04610250020ED5EBC0B00D0004056
:108ED000FCD000400B4B70B51C68002C10D0656DA9
:108EE00000F08EFBA36C002901D1834206D820003C
:108EF0000CF0A6FF200004490CF090FF2C00ECE7DA
:108F000070BDC0461C2500203C250020F0B593B064
:108F100007932A4B04AC1E68049005910692002E1C
:108F200049D0274B258867881C6800230293002CB2
:108F30002DD0636D23480393A36C190C9AB20B00D8
:108F4000854214D12048824211D1002901D0B94272
:108F50000BD1029B002B08D120000CF071FF2000E8
:108F60001A490CF05BFF01230293039CDFE7002A00
:108F700001D09542F9D1002901D0BB42F5D12000A2
:108F80000CF05EFF200011490CF048FFEDE7104B9C
:108F9000EB18012B0FD910233A002900009308A8E1
:108FA0000C4B0CF0E4FF336830009B6808A998472D
:108FB00008A80CF0F2FF13B0F0BDC0461825002041
:108FC00048250020FE030000FF0300003C25002090
:108FD00002FCFFFF0D8F010010B572B60B4B1C6831
:108FE000002C08D020000CF02BFF0023E364084B7A
:108FF0002000E36310BD62B65C2011F04DF95C22E5
:109000000021040011F09CF9EFE7C0464025002044
:1090100000400020F7B51E4C0123227816001E40A8
:109020001A4233D11B4D2860FFF7D6FF1A4B1B495C
:1090300018600CF0F3FEFFF7CFFF194B1860194BC7
:109040004363194B8363286800280FD0C023174F50
:109050003200174900933B00FFF79EF8C0230093AE
:1090600032003B0013492868FFF796F80C2011F0F6
:1090700013F90023838083710F4B03600F4B8360D0
:1090800000F0D6FA0123227813432370F7BDC046BF
:1090900063280020182500204C2500203C250020B6
:1090A00044250020FC3F0020D95E02000D8F010006
:1090B000FF030000FE030000E8A50200D58E0100BA
:1090C000024B1878012318407047C04663280020DF
:1090D000F7B506000D0017000193002802D1002407
:1090E0002000FEBD0029FAD0FFF776FF041EF6D05F
:1090F000074B019A43630660064B45608760002A70
:1091000000D0054B20000549A3630CF087FEE7E77C
:10911000FC3F0020B35E0200C15E02003C2500203F
:1091200070B5074B0E0011001A78050001231000DE
:1091300018401A4203D032002800FFF7C9FF70BD63
:1091400063280020024B1868434258417047C046CC
:109150003C2500200300002210B50449940060580B
:10916000002801D00132F9E7635010BD242500200A
:10917000002310B5044A99008C58844201D0013371
:10918000F9E70020885010BD2425002010B50024E8
:10919000084BA200D058002802D003685B689847AB
:1091A0000134062CF4D1044B1B68002B00D120BFE6
:1091B00010BDC046242500203C2500200122F8B522
:1091C0002C4B1B7813421CD02B4D2C68E36C1342A4
:1091D00018D002273B43E364284B1E680423F26C3B
:1091E00030001343F364636BF3630CF040FE300014
:1091F000716C03F016FF2868C36C3B4201D003F08A
:109200004AFFF8BD1E4F1F4E3A683068002A0AD147
:1092100028601B0712D52C60FFF7B8FF3B68002BB6
:10922000FAD02B600AE0216DB94219D1616D002995
:1092300000D1110029602A688242EAD029688C4254
:10924000DFD0336899420DD10F4B4B630F4B8B63CB
:1092500020000CF00CFE296820004B6C626C06E0CC
:109260002A60E8E79C42F3D1002210004B6C03F027
:1092700097FEC6E7632800204C250020202500200B
:109280003C25002044250020FC3F0020D95E020040
:1092900070B5114B04001A7801231A4202D110F064
:1092A000C7FE70BD0D4A1568EA6C1A4206D0FFF77A
:1092B00093FE0B4B1860002800D0050000F0A0F9C9
:1092C0002418AC6428000CF0BBFD280005490CF004
:1092D000A5FDFFF773FFE4E7632800204C2500207D
:1092E000202500201C250020F0B51E4B1E4F1E68B7
:1092F0003B6885B005000391002B31D01B4B1A78D9
:1093000001231A422CD0F26C1A420ED0FFF764FEF1
:10931000174B041E186008D00CF092FD2000154970
:109320000CF07CFD2600FFF749FF039B30001B0477
:109330002B43B3640CF084FD30000F490CF06EFD3C
:109340000E4B0024EB18012B07D9C02300932900F2
:109350000B4B039A3868FEF71FFF200005B0F0BDE5
:10936000084CFAE74C25002018250020632800202F
:10937000202500203C2500204825002002FCFFFF7E
:109380000D8F010016FCFFFF10B5074B1B78DB07A4
:1093900009D5064C20680CF053FD054920680CF0F7
:1093A0003DFDFFF70BFF10BD632800204C2500207A
:1093B0004025002010B5034B1B78DB0701D5FFF7D4
:1093C000E3FF10BD63280020F7B505000C0000285E
:1093D00033D001261B4B1B78334230D01A4F072362
:1093E0003868C26C1100194000911A4207D0210060
:1093F0002800164AFFF794FE00252800FEBD03F062
:1094000032FE3A680221D36C1800084001900B42EA
:1094100003D001318B43D364EEE73343D3642000A0
:10942000A8473A68019DD36C1900B143D1645B072A
:10943000E3D52000FFF7BEFFDFE7054DDDE7054D73
:10944000DBE7C046632800204C250020B5930100CF
:1094500017FCFFFF16FCFFFF020010B5014B12CBFB
:1094600012C210BD50250020034B1A68034B1A602E
:109470007E225A607047C0460420002050250020FC
:1094800070B504000025094B1B78AB4209DD084983
:10949000EB002000C9180CF025FD002804D101358F
:1094A000F1E720000CF018F870BDC04664280020D9
:1094B0005825002010B5002811D000220B4B197838
:1094C0000B4B91420FDD1C68844209D25C688442D8
:1094D00006D98023043802681B061343036010BDBD
:1094E00001320833EDE70CF001F8F8E764280020BA
:1094F0005825002070B5051E14DD0B4E0B4C33684B
:10950000002B02D0206810F048FCFA2120680024CB
:10951000074B89008361C4626943356010F04EFCDB
:10952000200070BD0348FCE7682500209825002036
:10953000DD95010017FCFFFFF8B5114F05003E68EF
:10954000002E0AD1302010F0A7FE040006F030FCF7
:109550000C4BA6612360E6623C600B4E3368002B27
:1095600009D1102010F098FE040010F073FC2000C8
:10957000346010F049FC2800FFF7BCFFF8BDC0467E
:1095800098250020E0AA020094250020014B1868CD
:109590007047C0466825002070B50D4C2368002B2D
:1095A00003D00C4B1B68002B02D10620FFF7C4FF31
:1095B000206810F040FC02000749C3170D684E6890
:1095C0005219734120680A604B6010F03AFC70BD7C
:1095D0009425002098250020A820002010B5FFF732
:1095E000DBFF0024054BA200D058002802D00368FE
:1095F0001B68984701340A2CF4D110BD6C2500205B
:1096000010B5FFF7C9FFFA22034B9200186859689A
:10961000002307F055FB10BDA820002010B5FFF770
:10962000BBFF024B1868596810BDC046A820002037
:109630000B4B10B51B680400002B03D0094B1B68B3
:10964000002B02D10620FFF777FF0023064A99007E
:109650008858002801D00133F9E78C5010BDC0466E
:1096600094250020982500206C250020002310B5AB
:10967000044A99008C58844201D00133F9E7002054
:10968000885010BD6C25002010B50400002902D0C0
:109690000B78002B03D1034B2360200010BD0CF08E
:1096A000CFFCFAE7F8A50200F8B504000E0015009B
:1096B00000290AD00B78002B07D0002A05D008001B
:1096C00097B210F07DFE874203D90B4B2360200038
:1096D000F8BD681D0BF000FF20600CF03FFE206815
:1096E0002A0047803100043010F00EFE23685D1917
:1096F00000232B71EBE7C046F8A50200014B036085
:109700007047C046F8A5020010B50548054C20601A
:109710000CF027FE2000044A044910F0B2FD10BDF1
:10972000F8A502009C2500200020002033600200E4
:10973000084B73B51D680400002D0AD001002E6887
:1097400008220831684610F0DFFD0CCC2800316893
:10975000884773BDA0250020014B03607047C046B9
:1097600000A6020030B500684488A1420CDA858862
:10977000AA4209DA002907DB002A05DB6243401808
:1097800080188371002030BD0048FCE717FCFFFF04
:10979000F0B507000E001D0085B0002921DD002A6C
:1097A0001FDD002B1DD00468638803938B4200DD0E
:1097B0000391A3880293934200DD029200230634B2
:1097C0000193019B029A93420ED029002000039A34
:1097D00010F09AFD3B68AD195B88E418019B0133DA
:1097E000EEE7024805B0F0BD0020FBE717FCFFFFE5
:1097F000F8B504000D0016001F00002901DB002A47
:1098000002DA0D4B2360F8BD1000484306300BF020
:1098100063FE20600CF0A2FD23685D809E80002F17
:1098200006D03B00320029002000FFF7B1FFEAE735
:1098300020000CF0CFFCE6E700A60200F7B5070019
:109840000D1E03D1244B03603800FEBD0024080028
:109850002600210001940378002B1AD030225242B6
:1098600094469C446246092A11D90A2B0AD1019BCD
:10987000361901330193B14200DA31000024260089
:109880000130E8E7002CFBD000240136F8E7012482
:10989000F6E70126019A380012B209B27642FFF7C4
:1098A000A7FF31000A203B689A1D2C78002CCBD0F2
:1098B0002300303B092B08D8F343DB1733404343E5
:1098C0001B19303B1E000135EFE7002EFBDB167045
:1098D0000E000132F7E7C04600A60200F0B5050011
:1098E00087B004A816001C000F00FFF7B5FD2B6819
:1098F0005A88964235DA9B889C4232DA1F2F30D93B
:10990000059B01939F422CDC05217943049BA039E0
:109910005B1801932300621D0392019A1278029250
:1099200000222C68B7186088B8420DDDA1888B42F0
:109930000ADAE419102717415843029924180F40F6
:10994000781E87417F42A7710132052AE9D1019A29
:10995000013301320192039A9342DED1002007B015
:10996000F0BD0148FBE7C04617FCFFFFF7B50368F1
:1099700006009F1D5B880D005A1A0192002919DD0F
:109980000024994203DB0CF025FC002013E033682F
:109990009B889C42F9DA79193800019A10F0B4FCDE
:1099A000019B2900F8180CF007FC336801345B8830
:1099B000FF18ECE70048FEBD17FCFFFF10B5054897
:1099C000054C20600CF0CDFC2000044A044910F046
:1099D00058FC10BD00A60200A42500200020002095
:1099E000AB61020010B5054C012120000CF0ADFC6C
:1099F0002000034A034910F044FC10BDA8250020B4
:109A00000020002009630200074A030010B501206E
:109A1000934208D0834202D00020DB0703D41E20EB
:109A2000FFF77EF9002010BDFFFF000010B5040015
:109A3000034B08330360FFF79BFB200010BDC046BB
:109A400008A60200F7B507000025040001931A4B91
:109A5000143708330E008580290085710360C581A5
:109A6000056100923800182210F06AFC38001521B8
:109A700010F03AFA019B2200A380009B0E21238163
:109A800014236381123BA571A563A58723733E321E
:109A9000137826638B431370084B0122E364084B51
:109AA00020002365230054331D70064B636423009C
:109AB00048339D701A80FEBD08A6020000000A030C
:109AC0000003030101000100F7B504000CF0E1FD03
:109AD0000E22A35E7A4F5B42BB4251DA23003E3333
:109AE0001B789B074CD50125210028003E310B78BF
:109AF0005A08904302000220AA40834313430B708C
:109B000020000CF0C6FD1022A35E5B42BB4248DA87
:109B100023003E331B785B0743D501252100280035
:109B20003E310B789A08904382000420834313430C
:109B30000B70260020000CF0ACFD1222A35E4A360A
:109B4000BB423EDA23003E331B781B0739D5210088
:109B500001223E310B78D80882430820D20083438B
:109B600013430B703378032B3BD80133DBB23370D4
:109B7000012B00D08EE0230000224C331A8030E00D
:109B800020000CF086FD0E22A35EC8225B42002559
:109B900052009342B4DD23003E331B789B07A2D5CD
:109BA000AEE720000CF075FD1022A35EC8225B42D8
:109BB00052009342BDDD23003E331B785B07ACD5DA
:109BC000B7E720000CF065FDC8231221625E5B0040
:109BD0009A4204DD23003E331B781B07B7D5002DC6
:109BE000C0D133780193002B14D0200027004C30D3
:109BF00003883E3701339BB203803A780125110078
:109C000029402A4254D01D2B04D90023AA433A707C
:109C10000380337020000CF069FD2A4A072390422C
:109C200044DD20000CF035FD0E23E25E264E52424C
:109C30000323B2423ADBC82520000CF02AFD0E2394
:109C4000E25EAD0052420423AA422FDC20000CF059
:109C500020FD1023E25E02235242B24226DB2000A6
:109C60000CF017FD1023E25E01235242AA421DDCD4
:109C700020000CF00EFD1223E25E0623B24215DB3B
:109C800020000CF006FD1223E25E0023AA420DDD47
:109C900005330BE0042BA4D122003E321178033BA4
:109CA0000B43137000234C3423800C331800FEBD8B
:109CB000092BAFD90180019901393170AAE7C0465B
:109CC00070FEFFFFFF700200E0FCFFFFF0B5C3690C
:109CD000C1681A68451D0400EB7F89B0114225D088
:109CE000002B57D10123A2791A4237D00026022235
:109CF0006846A188A6710CF035FAA31DDD7F012D01
:109D00002CD1FFF77DFC3300226A801A99410F00A5
:109D10000600A1889F4203D1FA239B009E423BD3B9
:109D20000123042204A80CF01DFA17E00B2B01D824
:109D30000133EB77EB7F082B0DD90122A379134276
:109D40000CD11343A188A37104A813000CF00AFAE4
:109D5000FFF756FC2062EB7F012BC3D90322A379C6
:109D60001340012B14D1FFF74BFC0023226A801A09
:109D70009941994202D10A4B984209D90223A2790A
:109D8000A1881343A3710522012304A80CF0EAF96A
:109D900009B0F0BD013BCCE72B000322C2E7C0466F
:109DA000DB05000010B50400034B08330360FFF728
:109DB0005DFC200010BDC04620A60200F0B50600E4
:109DC00000250F00040085B002930AAB1B7808360B
:109DD00003930F4B2900083303600192858085713E
:109DE0001822300010F0ACFA39003000039A10F05D
:109DF00080F8019B029AA380A31DE771DA77631DA7
:109E000025622000DD77FFF713FC200005B0F0BDD0
:109E100020A6020010B50400034B08330360FFF7CF
:109E2000A7F9200010BDC04638A60200F0B587B0E3
:109E300004AC08230F0042221021009405000CF00E
:109E40004DFDA3790020DA0700D48BE062782678F4
:109E5000E17812021643A27809020A4312B2D21024
:109E60000292627920791202104300B242100392EA
:109E7000E47936B224021C43AB1CD98FF610A4102F
:109E80008803002C00D0210006F0F4FD364B2A0098
:109E9000C01800B20300002143433F325156DB118A
:109EA000013A4B4311788022C90148431B185B12C9
:109EB000520399182B0034331B785BB2A0334B4309
:109EC0001B135E432B0032331B7876135BB2DB002F
:109ED000F6183E80AE1CF18F8803002C00D02100C4
:109EE00006F0C8FD204B2A00C01800B20300002174
:109EF00043433F325156DB11013A4B4311788022E4
:109F0000C90148431B185B12520399182B003533C3
:109F10001B78029A5BB2A0334B431B135A43531373
:109F20002A003332127852B2D2009B187B803C2236
:109F3000AB5E039A3A21685ED31A3E21725EDB0360
:109F4000A21A50438010181AEB8E610059438023E7
:109F50001B02C9183823EC5E0914091906F08AFDA2
:109F6000B880012007B0F0BD00C0FFFFD0B50400ED
:109F70000CF0CDFCE268A369981A09F01BFB0600FF
:109F80000F002369E069C01A09F014FB32003B009E
:109F900009F0B0FF0022104B08F0D8FC0F4A104B1C
:109FA00008F0ECF909F07EFB0021041C06F060FECD
:109FB000002804D0201C0B4906F08CFF041C201C38
:109FC00009F028FB02000B000020074908F02AFFD7
:109FD00009F0BAFAD0BDC04600806640EA2E44546B
:109FE000FB2109400000B44300807640F0B5040036
:109FF00085B0806A0CF025FC061CA06A0CF018FCE9
:10A000000221071C20000CF01FFD022103902000FC
:10A010000CF02CFD07F0C6FD80231B06C2180221A0
:10A02000200001920CF034FD07F0BCFD041C301C34
:10A0300009F022FF051C301C09F0E2FE0290381CDA
:10A0400009F01AFF061C381C09F0DAFE071C0398F9
:10A0500007F0A8FD80231B06C018391C07F0A0FAE2
:10A06000311C071C019807F09BFA291C07F098FA8D
:10A07000011C381C06F02EFF311C071C201C07F0A9
:10A080008FFA029907F08CFA011C381C06F022FFA7
:10A09000291C061C201C07F083FA0299041C019855
:10A0A00007F07EFA011C201C07F094FB311C09F01C
:10A0B00089FF0D4907F074FA09F0ACFA0B4A0C4B12
:10A0C00008F05CF909F0EEFA0021041C06F0D0FD5E
:10A0D000002804D0201C044906F0FCFE041C201CAF
:10A0E00007F040FD05B0F0BD0000B443EA2E445433
:10A0F000FB2119407FB50425837904002B421BD135
:10A1000002260CF004FCA3790622B3432B43A3716F
:10A1100068460123A1880CF025F8A3791A00334082
:10A12000581E83415842FB239B001840034BAA430F
:10A13000A271C01804B070BD0148FBE714FCFFFF1A
:10A1400015FCFFFF10B5837904005A070DD49B0757
:10A1500001D4FFF7CFFFA36A2000002B02D0FFF746
:10A1600045FF10BDFFF702FFFBE70148F9E7C046D6
:10A1700015FCFFFF70B5C66A86B001AC0500019101
:10A180006260A360002E0CD00B4905A8FFF77CFA93
:10A190000C232200300005A90DF08BFA05A80BF066
:10A1A00048FF2B000C3307CC07C30223AA791343C3
:10A1B000AB7106B070BDC0466AB40200642330B50E
:10A1C000040085B08180028143810CF06DFC022285
:10A1D000A37920009343A3710CF0C3FBE06A00282D
:10A1E00013D00D490DF030FA051E0ED001000C22DF
:10A1F000103101A810F088F820000199029A039B01
:10A20000FFF7B8FF280010F043F80123A2791343A9
:10A21000A37105B030BDC0466AB40200F8B50400B1
:10A220000E0000201700E36201230B4D06AA08353B
:10A2300007A9A080A0712560E06020616061A06135
:10A24000E061206266622000A76212880988238686
:10A25000FFF7B4FF2000F8BD38A6020082B0F0B5C9
:10A260000400A5B064202B932A920FF0E1FE042293
:10A270000C2109A802F070FF2422CD491BA810F080
:10A2800043F8052206A811000BF0ADFFC94907A845
:10A29000FFF7D4FAA06800F079FBA568C64918A8B2
:10A2A000FFF7F2F97822280018A900F09FFC18A8FF
:10A2B0000BF0BFFE6E256420013D0FF0B9FE002DAE
:10A2C000F9D1A06800F062FBA0680CF0F3FD012159
:10A2D00060680CF01FFA0121070060680CF02DFA8D
:10A2E00006000A20FEF7D4FF0022B44B04929F42DE
:10A2F00010DB013204923A00C8320BDBC822042181
:10A3000092000491974205DC03220492C82F01DCDD
:10A31000013A0492002203929E4210DB0123039330
:10A320003300C8330BDBC82304329B0003929E42E8
:10A3300005DC03230393C82E01DC013B039306A82D
:10A340000BF048FF1BAF00233E000593B378002BB2
:10A3500005D0FF237278317806A8FFF703FA059B32
:10A360000336013305930C2BF0D16B460C229A5E19
:10A370006B4606A81021595EFF23FFF7F3F900236F
:10A38000A0681A000093743006A90BF033FF3B005D
:10A39000243305933B78049A934234D17B78039A13
:10A3A000934230D1BE78002E2DD1310020680CF0C0
:10A3B0004BFB07F0F7FB3200031C290009A80DF046
:10A3C00090FD310020680CF051FB07F0EBFB0122FF
:10A3D000031C290009A80DF084FD310020680CF051
:10A3E00057FB07F0DFFB2900031C022209A80DF030
:10A3F00078FDFE2329009B05032209A80DF071FDBD
:10A400000123BB70ED18059B03379F42C2D1642026
:10A41000FEF73EFF0B2D00DC59E709A80DF04DFDBE
:10A42000012201000CA802F097FE002509A80DF0FA
:10A4300044FDA8423CDD2900002209A80DF03FFDA3
:10A4400000222900061C09A80DF039FD011C301C52
:10A4500007F0A6F82900061C012209A80DF02FFD1F
:10A4600001222900071C09A80DF029FD011C381C38
:10A4700007F096F8311C06F02DFD29000222061C7B
:10A4800009A80DF01CFD02222900071C09A80DF0E7
:10A4900016FD011C381C07F083F8311C06F01AFD6C
:10A4A0002900031C00220CA80DF01BFD0135BDE79F
:10A4B00009AA1100012318A80DF02DFD18A90FA855
:10A4C0000DF087FD18A80DF01DFD0CAA09A912A812
:10A4D00001230DF020FD002312AA0FA915A80DF0ED
:10A4E0001AFD002215A811000DF0E9FC0022061C3F
:10A4F000012115A80DF0E3FC0022051C022115A87E
:10A500000DF0DDFCFC21071C8905301C07F048F824
:10A5100007F028FBFC21060018908905281C07F08D
:10A520003FF807F01FFBFC21050019908905381C36
:10A5300007F036F807F016FB2A00030031001A90E6
:10A540002068FFF717FEA0680CF0B4FC07A908A864
:10A55000A5680BF037FE0022194B009208A9019361
:10A560002800130000F0B0FA08A80BF01EFEFA2035
:10A5700080000FF05DFDA0680CF09CFC15A80DF0AC
:10A58000C1FC12A80DF0BEFC0FA80DF0BBFC0CA87E
:10A590000DF0B8FC07A80BF008FE06A80BF005FEAE
:10A5A00009A80DF0AFFC25B0F0BC08BC02B01847FC
:10A5B000C8B4020075B40200BAB40200E0FCFFFFA8
:10A5C000DC050000F7B583601D4B05001F680160C6
:10A5D0004260002F31D028200FF05EFE04001030C2
:10A5E0000BF0B6FD174B182023600FF055FE00222C
:10A5F0000600154B00210192056008320C300093D3
:10A600000FF09EFE08226946301D0FF07DFE0F4BB5
:10A6100000227361C223A3803B68E26021003800FE
:10A620005B68A660226262629847002805D020001D
:10A630000BF0B3FC20000FF02BFE2800FEBDC0463F
:10A64000A0250020050006005DA20100636B02004A
:10A65000F0B5040085B0637A9C46002B04D120003D
:10A660000CF0AAFA05B0F0BDA37A266F019310236F
:10A67000019AF35600259B1801229A402900F3689D
:10A6800003920293029BAB4231DDB068019B6843A9
:10A69000C01873694000E77A1A181B5C5078E27999
:10A6A000012F14D1571E3F1A18003B004243606F20
:10A6B00052008218D2189379634500DD6346627BAD
:10A6C0001A4202D00123AB4019430135DAE7022FC9
:10A6D00007D0032FEAD1277A013FFF1A0300380081
:10A6E000E4E7571EFB1A277A013F381ADEE71123E9
:10A6F000C943F356606C994023691940039B194381
:10A700000FF05DFDA27B072AACD8637B0C495B0090
:10A710006373531CDBB290004158A373022A03D821
:10A7200008000FF07AFC96E7064B20002363002315
:10A730006363054BE462236414300FF03FFB91E741
:10A7400050A6020051A60100A36B020070B50400E0
:10A75000104B250008330360FEF788FF200074309B
:10A760000BF023FD200060300BF01FFD200058305F
:10A770000BF05FFC200050300BF05BFC064B1435F7
:10A78000280063610FF009FB280005F027FB20007B
:10A7900070BDC04670A60200E0AA0200F8B5002510
:10A7A0000400324B85800833036085711430160035
:10A7B0000F0005F0FDFA20002D4BE5626361256472
:10A7C0005030FEF79BFF20005830FEF797FF200027
:10A7D0006030FEF7C1FF20000423F25E3368266775
:10A7E000590009B274300BF0FEFC3368226FE3713C
:10A7F00073680126237210236581A7802561D356D3
:10A8000091685918994204DD30009840013305439E
:10A81000F8E711230120D356D1685918994206DD73
:10A8200002009A402669013332432261F6E7142080
:10A830000FF032FD226900212A430123060005F0B2
:10A84000A7FDFF23220063720133A3810023483256
:10A850006664A37320001370A366FEF7E9FE01236C
:10A86000A27920001343A371F8BDC04670A6020070
:10A87000F4AA0200F0B5437A040085B0002B04D19D
:10A8800020000CF099F905B0F0BD0122837A110087
:10A890009C461023066F0025F356039263449940AB
:10A8A00002912900F3680193019BAB422CDDB06853
:10A8B0007369684360444000E77A1A181B5C50785B
:10A8C000E279012F10D1571E3F1A18003B00424376
:10A8D000606F52008218D2189379002B02D0039B2C
:10A8E000AB4019430135DFE7022F07D0032FEED12C
:10A8F000277A013FFF1A03003800E8E7571EFB1ACA
:10A90000277A013F381AE2E71123C943F356606CF6
:10A91000994023691940029B19430FF050FC667A55
:10A92000B31EDBB2FC2B14D8FEF730FE0B4B050038
:10A93000236300230A4863630A4BFF217043E462E8
:10A94000236406F097F829004143200014300FF0EB
:10A9500035FA637A012B00D995E791E7B96B0200CC
:10A96000B6030000A36B02001FB5012381881A0003
:10A9700068460BF0F7FB012368461A0002490BF00A
:10A98000F1FB05B000BDC046FE0300001FB503008B
:10A9900048331A780400002A0DD000221A700123CF
:10A9A00081881A0068460BF0DDFB012368461A0017
:10A9B00003490BF0D7FB200074300BF00BFC1FBDDC
:10A9C000FF03000010B548300378002B06D0037851
:10A9D000012B03D0012102480BF062FA10BDC046E2
:10A9E000FF03000010B50121040006200BF058FA07
:10A9F000064B984208D148342378002B04D02378A2
:10AA0000012B01D020BFF7E710BDC04616FCFFFFA9
:10AA100070B50500141E19DB060048363378002B8C
:10AA200002D03378012B13D1002328001A00743090
:10AA3000FEF754FF002C07D02B004A331C80002463
:10AA400007234C352C803370200070BD014CFBE790
:10AA5000014CF9E717FCFFFF12FCFFFFF8B50B688C
:10AA600005005B8808001700012B08D100210BF0BE
:10AA700062FB002201002800FFF7CAFFF8BD002A90
:10AA800019DD2E0048363378002B02D03378012BA5
:10AA900013D12B0000245C331C80043B0100180000
:10AAA0000BF024FB2B004A331F8003234C352C80F2
:10AAB00020003370E2E70248E0E70248DEE7C046E4
:10AAC00017FCFFFF12FCFFFF73B5079C0500002C6D
:10AAD0001CDB060048363078002802D03078012888
:10AAE00016D106981BB2C0B20090280012B2743082
:10AAF0000BF080FB002C07D02B004A331C80002475
:10AB000007234C352C803370200076BD014CFBE7C9
:10AB1000014CF9E717FCFFFF12FCFFFFF7B505003A
:10AB20000E00171E26DDFFF74DFF2B0048331B7864
:10AB3000DCB2002B20D133685B88012B09D12100C6
:10AB400030000BF0F8FA220001002800FFF760FF48
:10AB5000FEBD310001A80BF0C1FA3A0001A928009E
:10AB6000FFF77CFF01A80BF064FA2800FFF73AFF1B
:10AB70002000EDE70148EBE70148E9E717FCFFFF9C
:10AB800011FCFFFFF0B587B00D9C05000E0017000B
:10AB90000393002C21DBFFF715FF2B0048331B78B4
:10ABA000DAB20292002B1AD1310005A80BF00AFB91
:10ABB0000C9B3A0000932800039B019405A9FFF722
:10ABC00083FF05A80BF0F1FA002C03D02800FFF753
:10ABD00009FF029C200007B0F0BD024CFAE7024CCE
:10ABE000F8E7C04617FCFFFF11FCFFFFF8B50400B3
:10ABF000171E1DDD060048363378002B02D033784F
:10AC0000012B17D12200E3795632013B1370230048
:10AC10000025200054331D8050300BF067FA2300CC
:10AC20004A331F80022328004C3425803370F8BD3E
:10AC30000148FCE70148FAE717FCFFFF12FCFFFFA1
:10AC4000F7B504000F00161E18DDFFF7BBFE23004A
:10AC500048331B78DDB2002B12D1390001A80BF06C
:10AC60003DFA320001A92000FFF7C0FF01A80BF058
:10AC7000E0F92000FFF7B6FE2800FEBD0148FCE722
:10AC80000148FAE717FCFFFF11FCFFFFFF2902D87C
:10AC90004172002070470148FCE7C04617FCFFFFE7
:10ACA000F0B51F0085B00AAB1B7804000393009336
:10ACB0003B000D0016000EF0E4FF002833D0237D8A
:10ACC000082B2DD8236800221900FC318A62A021AC
:10ACD000C9005A50154905205A500138C046C0468F
:10ACE000C046C046C046C046C046C046C046C04634
:10ACF000C046C046F1D1236801325A50A021043227
:10AD0000C9005A5005F0A4FC039B320000932900AF
:10AD10003B0020000EF0B5FF237D01332375CCE707
:10AD2000034805B0F0BD2075FBE7C046FC0F0000EE
:10AD30000EFCFFFFF0B51F0085B00AAB1B780400C6
:10AD4000039300933B000D0016000EF082FF0028D5
:10AD500033D0237D082B2DD8236800221900FC3125
:10AD60008A62A021C9005A50154905205A5001385D
:10AD7000C046C046C046C046C046C046C046C046A3
:10AD8000C046C046C046C046F1D1236801325A5081
:10AD9000A0210432C9005A5005F05AFC039B32002E
:10ADA000009329003B0020000EF053FF237D013368
:10ADB0002375CCE7034805B0F0BD2075FBE7C0461E
:10ADC000FC0F00000EFCFFFF10B5040086B0006C05
:10ADD00005F07AF8237BA0219A00A05000200C4AAD
:10ADE000C90050500B4914305050626C6846517C79
:10ADF000C91849B20CF03CF9039B019A03211A606F
:10AE0000207B0130C0B205F031FE217306B010BDC9
:10AE1000007000400405000082B070B504000025F9
:10AE200088B00C920D93636C9A68AA420ADD197C73
:10AE300002A8491949B20CF01BF9069B039A013587
:10AE40001A60F0E75D7C237B02A8ED186DB2290043
:10AE50000CF00EF9039A059B00211A60019202A8DA
:10AE600018220FF06DFA02A8002229000FF041F815
:10AE7000206C002801D00FF00BFA08200FF00CFA1C
:10AE80002900060004F0FAFF094B2000E3620023CA
:10AE9000FA212363074B2664A462E363103009019F
:10AEA0000EF08CFF08B070BC08BC02B01847C0465A
:10AEB000C9AD01001B700200F0B504000E001500C2
:10AEC00085B01F000CAB1B88103001930BF040F9CC
:10AED0002680658018200FF0DFF902AE05003300F0
:10AEE0000AAA03CA03C32F602800082700213A00DA
:10AEF0000C300FF025FA3A003100281D0FF004FA4B
:10AF0000064B022220006B6100230199A5600A43D1
:10AF1000E360A2802362636205B0F0BD317002007D
:10AF200070B5040086B010300D0004F041FF00231E
:10AF3000184AA3622261184AE363166865642373A2
:10AF400023606360A3609E421FD0144A28200492AD
:10AF500005930FF0A1F9C02305006A46029304ABE4
:10AF600003CB03C22300062102222800FFF7A4FF1F
:10AF70003368290030005B689847002805D0280016
:10AF80000BF00BF828000FF083F900232000236456
:10AF900006B070BDF4AA0200A025002019AE010081
:10AFA00030B5154B04001D6891B0002D17D0134B20
:10AFB0006A460493002305931033029304AB03CB3A
:10AFC00003C223000222062106A8FFF775FF2B68A3
:10AFD00028009B6806A9984706A80AF0DEFF25000E
:10AFE000074B1035280023610EF0D7FE280004F02F
:10AFF000F5FE200011B030BDA025002019AE0100E3
:10B00000E0AA0200F8B50D1E2FD000260227C46862
:10B01000002C27D0AA88A38853403B4220D13A4233
:10B0200015D1A368AA6893421AD12B88002B02D0AD
:10B0300022889A4214D16B88002B02D062889A42EF
:10B040000ED1A2880A4B01361343A38008E0A968F9
:10B05000A0680CF021FF0028E7D1AB883B42E0D08C
:10B06000646AD5E72000002E00DC0248F8BDC04627
:10B070000080FFFF17FCFFFFF0B506000D0085B054
:10B08000002959D00127C468002C23D00221AA88A6
:10B0900000230A4202D0A3885B083B40226829684B
:10B0A0008A4211D1A068A968002B0BD00CF0F4FEE5
:10B0B000002809D00421625EA388002A06DB1F480D
:10B0C00005B0F0BD8842F5D0646ADDE75B045B0C37
:10B0D000A380F4E7F0682A880100031E07D1F56019
:10B0E0000123684616490BF03DF80020E8E71C886C
:10B0F000944206D25C6A1900002C0DD02300F6E7BA
:10B1000023001C88944207D15F886C88A74203D231
:10B110005C6A1900002CF3D1814209D10B889A4254
:10B1200004D305D14C886B889C4201D96862D6E76C
:10B130004B6A6B624D62D3E70248C1E716FCFFFF22
:10B14000FD03000017FCFFFF064B10B51A000400BA
:10B1500008322C33026043600430FEF709F8200007
:10B1600010BDC04688A6020008B4024B9C460438B5
:10B1700008BC604749B1010008B4024B9C46043842
:10B1800008BC6047D37002000C4A002311002C3227
:10B19000083110B5038183724260C360036143616B
:10B1A0004383016004000430FDF7D4FF044B1A68A8
:10B1B000002A00D11C60200010BDC04688A60200F5
:10B1C000A0250020F7B50D000126C4680192002CCF
:10B1D00037D023882A889A4201D0002B24D1638853
:10B1E0006A889A4201D0002B1ED1FDF769FF012326
:10B1F000002806D0C022A3881340C03B5A425341C6
:10B20000DBB2019A93421AD10422A35EA788002BD5
:10B2100015DB10222900A0180FF076F840231F42FA
:10B2200004D020000BF05EFF646AD0E7FDF748FF12
:10B230000028F6D021000448FEF7C6F8F4E70026FF
:10B24000F2E73000FEBDC046E570020008B4024BD4
:10B250009C46043808BC60476F720200F0B587B0A6
:10B2600001930EAB1B88060003930D9B0D0000930A
:10B27000019B0C9F0292002B3CD0002F02D1009B1F
:10B28000DB0737D528200FF007F8040010300AF04C
:10B290005FFF029B1820258063800EF0FDFF0500F4
:10B2A000009B08220593019B002103600C3004974A
:10B2B0000FF046F8082204A9281D0FF025F80E4BC0
:10B2C00002226B6100230399E360236263623368A7
:10B2D0000A43300021005B68A560A28098470028DF
:10B2E00006D020000AF059FE20000EF0D1FF0348DE
:10B2F00007B0F0BD0248FBE7A972020016FCFFFF91
:10B3000017FCFFFFF0B5160000258380164A174B87
:10B3100004008571026001814681057318688C46BE
:10B3200089B0A8421DD0124A05950492C02202920B
:10B330006A4604AB82CB82C223002A006146FFF733
:10B340008DFFC022094B0A49186802926A4606918D
:10B3500006AB079582CB82C223002A003100FFF79B
:10B360007DFF200009B0F0BDCCA60200A025002082
:10B37000D373020030B5002403730123034D05602D
:10B380008471818082734373846030BDE4A60200BF
:10B3900070B5040000250C4B0E00083385808571C4
:10B3A0000360210018300CF0CCF820002100203080
:10B3B0000CF0EAF8054B2000A680E5802572E560D8
:10B3C000256165611C6070BDF4A60200AC250020FB
:10B3D0008379DB0702D5C160002070470048FCE795
:10B3E00016FCFFFF8379DB0701D5C0687047014871
:10B3F000FCE7C04616FCFFFF70B545690400002D50
:10B4000022D0037A032B21D8FFF7ECFFA8622C206F
:10B410000EF042FF2C22002105000EF091FF0022C9
:10B4200063695A622369934207D1636923610020EB
:10B43000237A65610133237270BD1A005B6A002BA9
:10B44000FBD163695362F2E70148F5E70148F3E78E
:10B4500017FCFFFF13FCFFFF144B70B55A68144C28
:10B46000002A03D000225A600132A2601A69002A21
:10B4700017D0002119618023DB000E4DE3582868A6
:10B48000012B0FD1A923DB00E1584942FFF7A0FFB0
:10B490002868FFF7B1FF2B685A69074BE250012378
:10B4A000A36070BDFFF794FFF9E7C046FC100040B1
:10B4B00000100040AC2500200405000003000069D6
:10B4C000002809D00221054AD167426A1A611A7A16
:10B4D000013A1A72024B19607047C04604E100E05D
:10B4E00000E100E010B5002903DB024B19600EF00B
:10B4F00036FC10BDB025002070B504001D0004AB63
:10B500001E7804F011FC20000E4B40302360FEF743
:10B51000F5F82300220001354C331D700023E12192
:10B520005832013616700A3AA3646365138053805B
:10B530009381D381013B200063644902FFF7D2FF6E
:10B54000200070BDC0A50200F7B580277F053E69C9
:10B550007C690822113C74430500210068460EF006
:10B56000D3FE104B009A9A4219D000930023019306
:10B5700079692800133971430CF01DF8019A2800ED
:10B5800000990CF034F8210028000CF014F87969C7
:10B590002200133928007143B3080CF018F8019801
:10B5A000FEBDC046FECA0000F0B50D00ABB00021E4
:10B5B0000D920700302212A81E000EF0C1FE2800D6
:10B5C0000EF0FEFE431C0C93102B00D9B8E0202E89
:10B5D00000D9B5E0290038000CF036F80B900028AF
:10B5E00054D129000C9A12A80EF08EFE32000D994B
:10B5F00016A80EF089FE80235B051A695D690B921F
:10B60000113D6A4338005E690D92FFF79DFF0D9B67
:10B6100030220833002104001EA80F930EF090FE84
:10B6200031000B9B1339594338000BF0C4FF002342
:10B630000F9E0C930E930C9BA34246DA31003022EE
:10B640001EA80EF061FE12A91EA80EF0AFFE002883
:10B650002BD13D4938002200109111940BF0C7FF07
:10B660006A46099615AB23CB23C223CB23C223CB37
:10B6700023C23800149B1299139A0BF0C6FF0123C2
:10B680000E930C9B303601330C93D4E70B983200A9
:10B690000D9910300EF02AFE04000B980EF0F8FD04
:10B6A000002C9ED120002BB0F0BD6A46099621AB3C
:10B6B00023CB23C223CB23C223CB23C238001E9922
:10B6C0001F9A209B0BF0A1FFDBE7E6433021F61722
:10B6D00026404E430F9B9E190E9B002B1CD10B9BAB
:10B6E000981E05F03DF9A0422CD0174901343800CE
:10B6F0002200109111940BF07AFF6A46099615AB5F
:10B7000023CB23C223CB23C223CB23C238001299DD
:10B71000139A149B0BF079FF38000D990BF04BFF37
:10B7200080235B0559690C230B9A133963434A4301
:10B730003800110002330D9A0BF049FF0024B1E7E5
:10B74000024CAFE7024CADE7FECA000017FCFFFF5A
:10B7500013FCFFFF70B50400A280FA22002308004A
:10B760000C49920008312160A3710B496061E260CD
:10B77000A36063820BF068FF051E09D00100200062
:10B780000222103112300EF0BFFD28000EF080FDB5
:10B79000200070BD0CA70200ECB4020030B50225F9
:10B7A0008379040087B02B4204D1FDF7D3FCA37941
:10B7B0001D43A57120000BF08DFF00281CD06B46A7
:10B7C000DD1C28000BF07DFF2B78002B17D001A883
:10B7D0000BF075FF0321019AD3170B409B189B10A8
:10B7E0002382FDF70DFFE368A18818180123A060EC
:10B7F0001A0002A80AF0B6FC002007B030BD0122F2
:10B80000064B1A60064A51680029FCD0002151609D
:10B81000044A1268019201225A60DBE700C000402E
:10B82000FCC0004008C50040022802D10122014BA3
:10B830001A7070476528002070B5064D04002B78FB
:10B84000002B04D1044801F00DFE01232B702000D1
:10B8500070BDC0466628002029B8010070B50C00F4
:10B860000AF0BBFA002810D00023144DA40A2B7054
:10B8700020000BF056FF002803D00A200EF0D8FB62
:10B88000F6E72B78002BFCD070BD02210C4B0D4A43
:10B8900099508021C90008005D58002DFCD0A121DD
:10B8A000C9005C5019580029FCD000219950802112
:10B8B000C9005A58002AFCD0E6E7C0466528002097
:10B8C00000E0014004050000F8B50C0015001E0062
:10B8D0000AF083FA002811D00023174F3B70320082
:10B8E000290020000BF01BFF002803D00A200EF0D7
:10B8F0009FFBF4E73B78002BFCD0F8BD01220F49F9
:10B900000F488C4642508022D2008358002BFCD036
:10B9100080270023FF009E4207DD9A00A958A1500E
:10B92000C259002AFCD00133F5E700236246835058
:10B93000C359002BFCD0E0E7652800200405000077
:10B9400000E00140084B8000C018A2230322DB0066
:10B9500010B50649C45821432243C150C046C046D1
:10B96000C046C25010BDC04600600040031F00002A
:10B9700010B50400034B08330360FDF777FE200089
:10B9800010BDC04624A70200F8B5A0230322304909
:10B99000DB055A5004315A5080212E4A89059950AE
:10B9A00080210127A225C9052B4C99502B4BED0076
:10B9B000E75063592A492B4E0B40635162592A4B79
:10B9C000002013436351FFF7BDFFA35924493800FA
:10B9D0000B40A351A259254B1343A351FFF7B2FFCC
:10B9E000C046C046C046224B224A23495A51A32290
:10B9F000D2009C519950214A214922485A50043181
:10BA00005850214921485C500431585020495A501F
:10BA10000F2220495A50204B104A9F5000225A5062
:10BA200004315A5002325A51A8223221D200DF602A
:10BA300099501A4A01399950043232319950184AB2
:10BA4000C919995080225C3992009950F8BDC046BE
:10BA5000740700000C05000000600040FC0F0000AF
:10BA6000FFE0ECFF14050000001D0300001E1300A2
:10BA700000F0014040A1004044A1004004600040AB
:10BA80001C05000048A10040240500004CA1004016
:10BA90002C0500000405000000A000404405000043
:10BAA0004C0500000023154A10B508320260EE2153
:10BAB000A0228380837104000320D205C900505066
:10BAC00080200F494005505032220E4920000A7054
:10BAD0000D490A700D490A70FA210D4A09011370C7
:10BAE0000C4A118001210C4A11700C4A1370FFF7A7
:10BAF0004BFF2000FDF79CFD200010BD24A7020095
:10BB00000C05000068280020692800206A28002011
:10BB10006B28002048280020672800206C2800207F
:10BB200010B50400034B08330360FDF79FFD2000B0
:10BB300010BDC0463CA70200F7B501210C00836888
:10BB4000314A9C40A023DB059C503224013CC04676
:10BB5000C046C046C046C046C046C046C046C046B5
:10BB6000C046C046C046F1D1050011350195A1255A
:10BB70000400ED00AC460D3407250E008768BE407A
:10BB800027782F410F4231D06746DE51C046C0466C
:10BB9000C046C046C046C046C046C046C0469E508D
:10BBA000013DEAD2019D0134A542E5D1012381681E
:10BBB0008B40A021C9058B503223013BC046C046B3
:10BBC000C046C046C046C046C046C046C046C04645
:10BBD000C046C046F1D1827B437B017C9B18C27B6F
:10BBE00052189B185A1E93414374F7BD6746DE51A5
:10BBF000C0469E50C046C046C046C046C046C0462D
:10BC0000C046C046CCE7C0460C050000F8B50400AD
:10BC10002500260006A80078277B6273A173E373D2
:10BC200020740D3511362878784307F0C3FC0022C4
:10BC3000064B06F0A3FB05F063F828700135AE4211
:10BC4000F1D12000FFF778FFF8BDC04600E06F405B
:10BC5000F7B5002317000126224A838008320260CC
:10BC60000A008371040081600773A02003258E40C1
:10BC7000C132FF32C005920015501B4A2500865084
:10BC80006373E3812382230011330D350093019206
:10BC90002878784307F08EFC144B002206F06EFBE8
:10BCA00005F02EF8009B287001359D42F0D1A023AD
:10BCB000019ADB059E503223013BC046C046C04678
:10BCC000C046C046C046C046C046C046C046C04644
:10BCD000C046F1D120000BF03AFD2000FDF7A8FC92
:10BCE0002000FEBD3CA702000C05000000E06F40F4
:10BCF00010B50400054B083303601C300AF099F9B5
:10BD0000200018300AF095F9200010BD54A7020059
:10BD1000FF23F0B52C4E8DB03370002301AD04002D
:10BD200029000088019303F085FF002801D1AB783A
:10BD30003370264D2B68DB68002B07D10023208849
:10BD40001A0019000BF014FD0DB0F0BD3378032B71
:10BD5000F4D81F496846FDF797FC2B686946DD68F3
:10BD600004A80AF0BBF9280004A90BF09CFC0027EA
:10BD7000050004A80AF05DF9BD421ED0290020226A
:10BD8000103104A80EF0C0FA28000EF081FA3178C4
:10BD900004ABC9005918082202A80EF0B5FA012315
:10BDA0000822208802A90BF0E3FC0137002804D107
:10BDB0000C212088074A0BF0D9FC68460AF039F9B3
:10BDC000002FBBD0C0E7C04680200020C025002047
:10BDD000F4B40200FFFF0000F0B58379040091B0D5
:10BDE0005B071BD5FDF70CFC00232269801A9941E3
:10BDF000994203D1F533FF3398420FD3A06800284E
:10BE000008D0354B1D880CF0B4FE036815222900BC
:10BE10001B6A98470422A3799343A371A3799B07D4
:10BE200058D52E4E3368DB68002B4FD02C4F3B7813
:10BE3000032B4BD8284B2B491B8804A80193FDF7F3
:10BE400023FC336804A9DD6808A80AF047F908A9AB
:10BE500028000BF028FC050008A80AF0EAF80823DF
:10BE600002AAD3800198073B063206A90BF082FC98
:10BE7000002D08D029002022103108A80EF044FA25
:10BE800028000EF005FA3D7802ABDA88ED0008AB29
:10BE90005D19280006A90EF029FA002813D00822FF
:10BEA000280006A90EF030FA336804A9DD6805A859
:10BEB0000AF014F92023280008AA05A90BF0F9FBC1
:10BEC00005A80AF0B6F804A80AF0B3F80222A3798C
:10BED0009343A37111B0F0BD4A280020C025002073
:10BEE00080200020F4B4020070B5036804000D1E29
:10BEF00009D15B699847FA2080006843074904F03C
:10BF00002FFDE08070BD9B689847A842F3D9236855
:10BF100020009B6898470500EDE7C04671020000CD
:10BF2000F0B50400150085B001930AAB1F880BAB78
:10BF30001B78461C02930EAB1B78102203930B78E0
:10BF400003704B8A0131438230000EF0DDF96561E8
:10BF500000250122019B27836383039BE5832377CD
:10BF6000029B2000F377A31CDA770C9B0C266362FC
:10BF700023000D9A283329001A705D7032009D70DD
:10BF80002C300EF0DDF92000064B3200A3632900AF
:10BF9000E56340300EF0D4F92000034B2565E364DF
:10BFA00005B0F0BD8B7702007D770200F0B5070089
:10BFB0001500A1B002C706006B4918A81C000BF0C1
:10BFC000A5FC2B1E03D028000EF0FAF983B2012243
:10BFD00004920022039202920232019200932A00FC
:10BFE00018A93800FFF79CFF33006049583318A8A0
:10BFF00007930BF08BFC231E03D020000EF0E0F91A
:10C0000083B2012204920022039202920232019230
:10C010000093220018A90798FFF782FF33005449C4
:10C02000AC3318A808930BF071FC269B002B03D0AF
:10C0300018000EF0C5F983B2012204920022039287
:10C040000292023201920093269A18A90898FFF7EB
:10C0500067FF731CFF33474918A809930BF056FC80
:10C06000279B002B03D018000EF0AAF983B20122FF
:10C0700004920022701C03920292023201920093F9
:10C08000279A18A9FF30FFF74BFF33005533FF33D2
:10C09000394918A809930BF039FC289B002B03D0D1
:10C0A00018000EF08DF983B201220492002203924F
:10C0B0000292023201920093289A18A90998FFF778
:10C0C0002FFF3300A933FF332C4918A80A930BF034
:10C0D0001DFC299B002B03D018000EF071F983B2D0
:10C0E00001220492002218AC0392029202320192C1
:10C0F00000932100299A0A98FFF712FF204B1B7822
:10C100000B93002B2DD1079B1E491393089B0DA861
:10C110001493731CFF331593099B129716930A9B74
:10C1200012AD17930BF0F2FB1D21492006AB1B7FCC
:10C130001022237006ABDB8D638206ABC918C018D2
:10C140000EF0E2F8062323750B9B3068A383A561EC
:10C150000CF013FD036821001B6898470122084B6F
:10C160001A70300021B0F0BD292A0000242A0000F6
:10C17000252A0000272A0000262A0000282A00007D
:10C180006D2800200A18000070B5002504000A4B35
:10C190008580083385710360C1601830FDF7AEFA01
:10C1A00020001C30FDF7AAFA044B20001C6001237C
:10C1B000A5606561A37170BD54A70200C025002071
:10C1C000FA2130B585B004000123022268468900B7
:10C1D00009F0C8FF074D2868002809D00BF0CFFBF5
:10C1E0002188054B2A681980022391790B439371AA
:10C1F00005B030BDC02500204A28002010B50C0035
:10C2000007290FD880680CF0B4FC074B1957036856
:10C210005B6C984743425841044B40421840044BE2
:10C22000C01810BD0348FCE703B60200EA03000093
:10C2300016FCFFFF17FCFFFFF0B5984C0D00A5445E
:10C24000040096AB1B78964908A807930692FDF761
:10C250001BFA200029001C3009F048FF914909A869
:10C26000FDF712FA90490AA8FDF70EFA0CAE09AADA
:10C2700008A90BA809F049FF2A00300011AD0BA94D
:10C2800009F043FF0AAA3100280009F03EFF290007
:10C2900008A809F02BFF280009F0CBFE300009F0B8
:10C2A000C8FE0BA809F0C5FE08200DF0F5FF070039
:10C2B000002100F0BDFF08220021A7600DA80EF0AC
:10C2C0003FF800230C932B0007CE07C3774B2900C0
:10C2D000EB60002338002B610CF034FCA0680CF0FC
:10C2E00048FC08220021059012A80EF029F814201D
:10C2F0000DF0D2FF6E4B2A0011930300C2CAC2C3D5
:10C300006C4B059EC3600023A43603613368002B89
:10C3100000D0BDE03060A0680CF02FFC08220021A6
:10C32000060012A80EF00CF814200DF0B5FF624BB9
:10C330001193030086CD86C3604BC3600023036165
:10C34000336B002B00D0A5E03063A0680CF011FC2B
:10C3500008220021059012A80DF0F2FF14200DF024
:10C360009BFF574B11AE119332000300A2CAA2C328
:10C37000544B059DC3600023983503612B68002B47
:10C3800000D089E02860012004AB1B7F04AA03438E
:10C390000BA913770BF0F0F9A0680CF0F2FB03681F
:10C3A00049495B6A9847A0680CF0EBFB0368474972
:10C3B0009B699847A0680CF0E4FB454A036800922B
:10C3C0001D6800231A001900A847079B002B0AD0FC
:10C3D00020000BF0DDFA032805DDA0680CF0D1FB8E
:10C3E0000368DB68984706212000FFF707FF394BF9
:10C3F000394A1B68A1680393384B30001B6800253D
:10C400000293374B1B680193069B1B680433009310
:10C41000344B12681B68FFF7C9FDA0680CF0A9FB3C
:10C4200003680CA99B6A9847082304AA1384A06890
:10C43000DB18538495840CF09CFB03680CA9DB6A21
:10C4400098470621A0680BF06DFA089A09219378A5
:10C45000A06804320BF079FAA0680CF08AFB057131
:10C46000A0680CF086FB3221FFF73EFDA0680CF0BF
:10C4700080FB0BF041FA0AA809F0DBFD09A809F0DE
:10C48000D8FD08A809F0D5FD91239B009D44F0BD7F
:10C4900003613FE7036157E7036173E7BCFDFFFFFB
:10C4A00000B5020024B502000EB502009977020023
:10C4B000C1C10100A777020011BD0100B5770200DC
:10C4C000E3770200C3770200E9C401001DC5010043
:10C4D00010B50200BC250020B8250020082000204F
:10C4E000B42500200C20002013B506226846FDF775
:10C4F000DBF8094B1C68002C0AD0694601A809F03A
:10C50000EDFD200001A90BF064FA01A809F091FDEE
:10C51000684609F08EFD13BDC0250020002373B5C9
:10C5200001AE0C0031000500019303F083FB0028ED
:10C5300002D1B278064B1A70064B1868002806D054
:10C5400061426141044BC9B21D800BF04AFA73BDD0
:10C5500080200020C02500204A280020F0B50400DB
:10C560008BB00F0005A87D490392FDF78DF87C493B
:10C5700006A8FDF789F8220005A91C3209A809F0D0
:10C58000C4FD06AA09A907A809F0BFFD09A809F07A
:10C5900050FDA0680CF0EDFA036800255B69984730
:10C5A000A0680CF0E6FA030006000A331F220021FF
:10C5B000180002930DF0C4FE029B3000DD770BF0F3
:10C5C00092F90621A0680BF0ADF9079A092193783A
:10C5D000A06804320BF0B9F9A0680CF0CAFA057132
:10C5E000A0680CF0C6FAC821FFF77EFCA0680CF02A
:10C5F000C0FA0581A0680CF0BCFA0BF07DF9380098
:10C60000FEF7C4F9390020000BF0FEF92000FCF71A
:10C61000A1FD0295FF356269012316001E401A42F2
:10C620002DD0504908A8FDF709F908A909A809F073
:10C63000C9FD002209A91300019200923800FEF7FB
:10C64000A1FA09A809F0B1FD029B002B41D1043DDC
:10C65000282D40DC38000AF02DFC002D00DC02966D
:10C6600003980AF005F9002806D0012362699A436D
:10C67000130004221343636108A809F096FD042205
:10C680006369134230D0FF213800FEF7FFFA00261D
:10C69000A36902229B5EB34222DD200031B2183032
:10C6A00009F049FD0023010038001A007430FDF73D
:10C6B00015F9C8208000FCF7EBFD38000AF0FAFB02
:10C6C000C820FCF7E5FD02226369134208D1013658
:10C6D000DEE70435BCE7FE2DC2DD00230293BFE791
:10C6E000FA208000FCF7D4FD0222636913421DD0BA
:10C6F0001E000632164013421CD01B4908A8FDF745
:10C700009DF808A909A809F05DFD002209A91300F8
:10C71000019200923800FEF735FA09A809F045FDAC
:10C720001248FCF7B5FD08A809F03FFD6420FCF7AE
:10C73000AFFD70E70E4908A8FDF780F808A909A821
:10C7400009F040FD3300320038000196009609A937
:10C75000FEF718FA09A809F028FDE4E717B502006A
:10C760000EB5020027B502006CB50200983A000031
:10C77000A9B50200F0B587B001930EAB1B88060087
:10C7800003930D9B0D000093019B0C9F0292002BC5
:10C790003CD0002F02D1009BDB0737D528200DF0BD
:10C7A0007BFD0400103009F0D3FC029B182025808B
:10C7B00063800DF071FD0500009B08220593019B2D
:10C7C000002103600C3004970DF0BAFD082204A983
:10C7D000281D0DF099FD0E4B02226B610023039979
:10C7E000E3602362636233680A43300021005B68C0
:10C7F000A560A2809847002806D0200009F0CDFB54
:10C8000020000DF045FD034807B0F0BD0248FBE7EE
:10C81000937A020016FCFFFF17FCFFFFF0B507003C
:10C82000F5B0016042608E4900225FA80BF072F9FA
:10C830003B00083300240126122506930623069A9E
:10C840000496019500935FA923000394029420A805
:10C85000FFF766FB220083495FA80BF05BF93B0002
:10C860000E3307930195103D23000095079A049617
:10C870005FA90394029435A8FFF752FB22007A497E
:10C880005FA80BF047F93B00103308930A2300958B
:10C89000089A18AD049601935FA9230003940294AB
:10C8A0004AA8FFF73DFB2200280070490BF032F93F
:10C8B0003B001233099318232900099A0496019327
:10C8C00000962300039402945FA8FFF729FB786881
:10C8D000BC60FC600AF03FF9722304AA9B18DE7763
:10C8E000C6239B18DE778D235B009B18DE77B7236A
:10C8F0005B009B18DE7720AB0F9335AB10934AABF0
:10C9000022005B4938821193BC745FAB13A8129369
:10C910000BF000F93C223D21512004AB9B181B7801
:10C9200012322B7004AB9B181B883E3A6B8204AB0F
:10C93000C918C0180DF0E8FC04232B750FABAB61D0
:10C94000AC8338680CF019F9036829001B68984714
:10C950008E2204AB9B181B885432BB8204AB9B18FD
:10C960001B885432FB8204AB9B181B8854323B83D8
:10C9700004AB9B181B8838687B830CF0FEF80368B7
:10C98000B98A5D69069A0623A84738680CF0F5F85D
:10C990000368F98A5D69079A0223A84738680CF092
:10C9A000ECF803680094398BDD68089A0223A847E5
:10C9B00038680CF0E2F803680094798B099ADD6816
:10C9C0003300A84738680CF0D8F8060014200DF0A2
:10C9D00063FC0500274B0461082280C013A9139350
:10C9E00014940DF091FC244BEB60B369A34234D155
:10C9F000B561224E306800282CD000220C92C03243
:10CA000002926A461E4D0BAB0B9512CB12C23B0035
:10CA100004220521FFF7AEFE002269460E92103275
:10CA200002920D950DAB11CB11C10B3A11003B00D9
:10CA30003068FFF79FFE0022149210323068029295
:10CA40006A4613AB139512CB12C23B000722052195
:10CA5000FFF790FE380075B0F0BD2B61C8E7C04607
:10CA60002BB602000BB602003BB602001BB602005A
:10CA70004BB60200D37A0200697A0200A02500209A
:10CA80003D7C0200F0B50700C3B001604260674919
:10CA900000222DA80BF03EF83B00083300240126AD
:10CAA0000693122310AD069A049601930096230074
:10CAB0002DA90394029418A8FFF732FA2200280047
:10CAC0005B490BF027F83B000A3307930A230193D5
:10CAD000083B2900079A04960093039423000294CC
:10CAE0002DA8FFF71DFA78683C720AF016FE5A224C
:10CAF00002ABD218D677AE2202ABD218D67718AADC
:10CB000009922DAA4B4978810A920BA822000BF0BA
:10CB100001F82421392002AA5218137802AA2B7096
:10CB2000D38E89196B8202AB1022C918C0180DF080
:10CB3000EBFB02232B7509ABAB61AC8338680CF0BF
:10CB40001CF8036829001B689847762202AB9B18E3
:10CB50001B885432BB8102AB9B181B883868FB8151
:10CB60000CF00BF803680094B989DD68069A33006D
:10CB7000A84738680CF001F803680094F989079A0F
:10CB8000DD680223A84738680BF0F7FF0600142081
:10CB90000DF082FB0500284B0461082280C00BA920
:10CBA0000B930C940DF0B0FB244BEB60B369A342E4
:10CBB00039D1234BB5611E68002E31D028200DF0ED
:10CBC0006BFB0400103009F0C3FA1E4B18202360E1
:10CBD0000DF062FB002205001B4B00210C92076048
:10CBE00008320C300B930DF0ABFB08220BA9281D6B
:10CBF0000DF08AFB154B00226B61C223A3803368C2
:10CC0000E260210030005B68A560226262629847A2
:10CC1000002805D0200009F0C0F920000DF038FBF5
:10CC2000380043B0F0BD2B61C3E7C0465BB60200DD
:10CC30006BB602007BB60200D57C02006B7C020062
:10CC4000A02500201C000100157D0200957C02003B
:10CC50001FB5084B1B68DB8B834209D1064B684626
:10CC60001A78064B06491A700123032209F07AFA52
:10CC700005B000BDC42500206E2800206F280020CC
:10CC8000FF030000F0B51D00ADB0040001610135E7
:10CC9000143016000691FCF731FDEBB21800079333
:10CCA00008F01AFC00250136F6B26060300008F08A
:10CCB00013FC4A4B2A001D70494B4A491D70079BC3
:10CCC0002060A672E37225810FA80AF023FF0127D6
:10CCD0000C2322680497019300963B000FA903954B
:10CCE000029517A8FFF71CF92A003F490FA80AF080
:10CCF00011FF54200DF0D0FA202306000193079B6A
:10CD00006268049700930FA93B0003950295FFF713
:10CD100007F9364B08961E600AAE17AB2A00344955
:10CD2000300009930AF0F6FE34213520337802AA48
:10CD300052181370738A123102AA521813802539BF
:10CD400002ABC9181022C0180DF0DEFA48210223E8
:10CD500002AA52181370502202AB9B1808AF159705
:10CD600006981D800BF009FF03680FA91B68984700
:10CD7000722202AB9B181B880698E3600BF0FDFE45
:10CD8000079014200DF088FA07001A4B056108225D
:10CD9000310010C00A930B950DF0B6FA164BFB60EC
:10CDA000079B9B69AB4217D1079B06989F610BF0CD
:10CDB000E4FE0500082200210BA80DF0C1FA0F4B7C
:10CDC0000A932B006C3307CE07C30D4B2000AB67D3
:10CDD0000023EB672DB0F0BD3B61E5E76E28002036
:10CDE0006F2800208BB602009BB60200C4250020ED
:10CDF000ABB60200877D02005D7D020051CC0100D0
:10CE00004F7D0200054A03001178054A1278501A36
:10CE1000914201D9DB7AC0187047C0466F280020C4
:10CE20006E280020F0B58DB002AF040039607A6141
:10CE30003B61002A00DCA2E03B69012B00D19EE0AF
:10CE400027230025FB1800691D700BF096FE272292
:10CE500003684D499B69BA180968984720690AF028
:10CE6000E4FF022302001A40184236D12533FB1892
:10CE70001B78AB4200D185E0FA6120690AF0D5FF4A
:10CE80000223184275D02533FB181B78FB60002B5A
:10CE90006FD03E4B6E461D783D4B1B78BB60FB69E7
:10CEA000BB6100237B60BB697A69934217DAE17A40
:10CEB000681C03F0C5FEBB688B420AD0BA693B68A8
:10CEC0009B5C62685355FB69CDB20133FB61FB6823
:10CED0007B60BB690133BB61E5E7FD61CDE77B6842
:10CEE000002B01D0294B1D702000FFF78BFF6A46F5
:10CEF000C31DDB08DB00D31A9D4602AB02000021F4
:10CF000005001800BB610DF01BFA204BE27A1B787C
:10CF100020000193BB680093BB6961680AF08AFF37
:10CF20003B69022B03D103211A48FCF7DDF9206984
:10CF30000BF023FEABB20025134A1268D18B0268B6
:10CF40000095D2681500BA69A8473B69022B14D135
:10CF5000FCF734F920690BF010FE272203680A4918
:10CF60009B69BA1809689847FB697A69B546934284
:10CF700083DBBD46F8690BB0F0BDB546F9E7064B5B
:10CF8000FB61F6E7054BFBE7C42500206E28002077
:10CF90006F280020FF03000017FCFFFF16FCFFFFB7
:10CFA000002815D0006041608260C3600461456163
:10CFB0008661C761444604624C46446254468462BA
:10CFC0005C46C462644604636E464663744684638A
:10CFD000002A06D0C46B043C043A25681560B442AC
:10CFE000F9D18C6BA6464E6BB546002B06D0CC6BA8
:10CFF000043C043B1D682560B442F9D10C6BA44687
:10D00000CC6AA3468C6AA2464C6AA1460C6AA0462A
:10D01000CF698E694D690C69CB688A680868496870
:10D020007047006041608260C36004614561866151
:10D03000C761444604624C464462544684625C467E
:10D04000C462644604636E46466374468463C46B7C
:10D05000043C043925680D60B442F9D1C76986697A
:10D06000456904697047006041608260C360046183
:10D0700045618661C761444604624C464462544639
:10D0800084625C46C462644604636C4644637446CE
:10D09000846304697047846BA646446BA546046BA1
:10D0A000A446C46AA346846AA246446AA146046AA6
:10D0B000A046C769866945690469C36882680068D3
:10D0C0004168704710B5041E0CD00DF079F9431E6D
:10D0D000E318A34208D922781978013B21705A70CD
:10D0E0000134F6E7014810BD0020FCE717FCFFFF04
:10D0F000F0B585B00D1E009029D000260A27C21772
:10D10000141A4B1E54400393200002963900013636
:10D11000019603F095FDCB17C9185940039B303198
:10D1200020009955390003F0A5FC041EECD1009BAA
:10D13000002B04DA2D23029E019A0236AB54002301
:10D140002800AB55FFF7BEFF200005B0F0BD014C35
:10D15000FAE7C04617FCFFFF10B504001000484373
:10D160006160A26000280BDD074B984205DC80005F
:10D170000DF0A4F82060200010BD01204042F7E728
:10D1800000232360F7E7C046FEFFFF1F4A688B6855
:10D1900070B58360534304000D004260002B12DD24
:10D1A0000A4A9E003000934201DD012040420DF00A
:10D1B00085F800232A682060D158C1500433B34257
:10D1C000FAD1200070BD00230360FAE7FEFFFF1FC5
:10D1D00070B5002817D1124D2E68002E11D10830DD
:10D1E0000DF05AF8066046600E4E04003368002BBE
:10D1F00002D10BF0FDFE306023682C609B00F358D9
:10D200006360286870BD084A0123116807480C0054
:10D210001C401942F6D1036044601360F2E7C04637
:10D22000CC250020D8250020C8250020D0250020AE
:10D23000002370B504000160436099420AD1064D95
:10D240002B68002B02D10BF0D3FE286023689B00D3
:10D25000EB586360200070BDD8250020436810B5EE
:10D260000400002B02D104480CF015FE606803682E
:10D270001B69984710BDC046BBB60200436810B595
:10D280000400002B02D104480CF005FE606803681E
:10D290009B69984710BDC046BBB60200436810B5F5
:10D2A0000400002B02D104480CF0F5FD606803680F
:10D2B0005B6A984710BDC046BBB6020010B50400BB
:10D2C00001F058FD034B1B68002B01D0200098474C
:10D2D00010BDC046E0250020F0B58BB0050002F07F
:10D2E000E3FA002000F0E2FB036806001B699847A0
:10D2F000336804009B6930009847336801905B6A8B
:10D30000300098470200288810380B286CD803F0AA
:10D3100013FB06486B6B6B656B6B6B716B83AF8834
:10D32000200039000CF06DF82200162358321678D0
:10D330009C46143B3343A879697B1370012304AEE8
:10D34000B3700023378032001F00AC44F07098188F
:10D3500001330771062BFAD1002791723A00F319B5
:10D360000137DA72062FFAD163463A007361E91D7C
:10D3700005A80CF0C9FF29000B2004AB3A000E31C0
:10D38000C0180CF0C1FF94346368A360A068002843
:10D390002AD0C36831009847A368002BF4D01B69DA
:10D3A000F3E720002E49AE880CF02BF82200022073
:10D3B00058321378A9798343137004AB1E80997097
:10D3C000A0346368A360A06800280DD0C36804A9D6
:10D3D0009847A368002BF4D01B69F3E75369002B2F
:10D3E00002D0A888A91D9847290001980CF07FF960
:10D3F0000BB0F0BD636E002BF6D0AE79A366A06EC5
:10D400000028F1D0C36831009847A36E002B01D1EA
:10D41000636EF3E71B69F1E7012669460D27AB7BD5
:10D42000EF575A071E40920FDB080A720B73062251
:10D43000E91D04A80CF068FF6A46127A04AB1A7260
:10D440006A46127B9F715A72DE712B0020000F33E7
:10D450008C3407938030236804A99847C4E7C046FA
:10D46000FFFF0000014B18607047C046E025002018
:10D470001FB58022A323D205DB00D3580820DB0789
:10D4800000D4053048221D4B1D4901F08DF80028BD
:10D490000AD080B2002807D1BFF34F8F194B1A4A28
:10D4A000DA60BFF34F8FFEE7002302A80293013337
:10D4B0000370164B1B6843600BF06BFB002802D017
:10D4C000072005B000BD6B46581C0BF060FB002820
:10D4D000F6D16B46591C0BF058FB0028F0D10C48D4
:10D4E00001F092F880B20028EBD10A4801F096F8DA
:10D4F00080B20028E5D100F087FDE2E7978B0200BB
:10D50000E425002000ED00E00400FA05DC25002001
:10D51000D9D20100BDD2010080B2002807D1BFF3EB
:10D520004F8F034B034ADA60BFF34F8FFEE770471C
:10D5300000ED00E00400FA0500487047FFFF00001E
:10D54000F0B597B00593036807AD1B68049103938A
:10D5500011002B00060091C991C30024D36821005B
:10D5600008220DA8EB602C610CF0EAFE22000B4BA8
:10D5700010940F9311AB0C941C70E11801344A7095
:10D58000102CFAD15A820193059B2A000093300097
:10D590000499039C0CABA04717B0F0BDAB8C020004
:10D5A000FC3070B5046C0500002C0DD124200CF06B
:10D5B00073FE064B44608361054B8460C460046164
:10D5C0004461C46103602864286C70BD40A80200F7
:10D5D00028A90200FC3070B5C56B0400002D11D1E4
:10D5E00034200CF059FE084B85604360074B4561C1
:10D5F0000361074B0562C361064BC5628362064B3C
:10D60000E0630360E06B70BD70A8020060A80200D8
:10D61000D0A80200E0A80200F0A802007FB50379BC
:10D620001548002B23D0154E154C33782000002BC5
:10D630001DD10A256D4428000BF01BFB002810D1DA
:10D640006B88592B0DD12B78AA88D91F012910D8A6
:10D6500000920C4A2021200008F028F801233370A2
:10D6600004E02022200008490CF0B1FE200004B0A4
:10D6700070BD0092054AEDE7DEB60200902800205A
:10D680007028002000B70200F8B602001DB70200A3
:10D6900010B50400024B08C00BF0C3FB200010BD06
:10D6A00060A8020010B50400024B08C00BF0CEFBCE
:10D6B000200010BD70A80200064B70B50400036086
:10D6C0004068002804D005690CF0E2FD2800F8E766
:10D6D000200070BD50A80200064B70B50400036026
:10D6E0004068002804D005690CF0D2FD2800F8E756
:10D6F000200070BD80A80200064B70B504000360D6
:10D700004068002804D005690CF0C2FD2800F8E745
:10D71000200070BD90A80200064B70B504000360A5
:10D720004068002804D005690CF0B2FD2800F8E735
:10D73000200070BDD0A80200064B70B50400036045
:10D740004068002804D005690CF0A2FD2800F8E725
:10D75000200070BD74A70200064B70B50400036082
:10D760004068002804D005690CF092FD2800F8E715
:10D77000200070BD84A70200064B70B50400036052
:10D780004068002804D005690CF082FD2800F8E705
:10D79000200070BD94A70200064B70B50400036022
:10D7A0004068002804D005690CF072FD2800F8E7F5
:10D7B000200070BDA4A70200064B70B504000360F2
:10D7C0004068002804D005690CF062FD2800F8E7E5
:10D7D000200070BD40A80200064B70B50400036035
:10D7E0004068002804D005690CF052FD2800F8E7D5
:10D7F000200070BDE0A80200FC3070B5046C05008C
:10D80000002C0DD124200CF047FD064B44608361B1
:10D81000054B8460C46004614461C4610360286492
:10D82000286C70BD40A8020028A90200134B70B5F7
:10D8300008330360124B0400C3608023114A451C67
:10D84000FF355B00C25028000CF0A7FA280002F058
:10D85000C5FA20000C4BB830E360FFF79DFF2000B5
:10D86000AC30FFF789FF2000A030FFF775FF2000E4
:10D870006C30FFF761FF200070BDC04654A9020064
:10D880009CA90200E0AA0200B4A70200F0B50500BE
:10D89000040087B0AC356B68AB60A868002807D07F
:10D8A000C36821009847AB68002BF4D01B69F3E7ED
:10D8B0002500B0352868002804D006690CF0E8FC83
:10D8C0003000F8E7220003215832137828608B4398
:10D8D000137023005C33187020000A300BF07FFBBC
:10D8E000200034300BF07BFB606E002804D005690B
:10D8F0000CF0CEFC2800F8E7250098356066286813
:10D90000002804D006690CF0C3FC3000F8E72600BC
:10D91000A43628603568002D05D02F6928000CF04A
:10D92000B7FC3D00F7E729003560082202A80CF09B
:10D9300007FD01AE2300320001956C3383CA83C317
:10D94000094B08222900A367E56702A80CF0F8FC40
:10D9500023000195803307CE07C32800034A903483
:10D960001A60256007B0F0BD9D8C02008F8C02000C
:10D97000444AF0B50600C260A022434B01000833C0
:10D9800003601636002342820400320085B0037122
:10D990008360037483823531137001329142FBD16D
:10D9A000802580222000AD00D2011100F37735845C
:10D9B00038300093002300F04BFD2300210040335A
:10D9C0001A0003932B0000255F31157001328A4243
:10D9D000FBD1039A0321D57722006032138013799B
:10D9E00020008B431371230068331D70274B0C22DA
:10D9F000E3660021256778300CF0A2FC23002700A5
:10DA000088331D60224B0837A567FB6784370021E8
:10DA10000C2238000CF094FC1E4B1F4AFB602300C4
:10DA2000A0333D613D601A601C4A5D60DA601C4AAB
:10DA30001D619A61DD6130000BF0D1FA03980BF0A3
:10DA4000CEFA184B601CE3602300C4331D809D7028
:10DA5000FF3002F0ADF98C235B00E5502300193351
:10DA6000FF335D618023104A5B00E25023000122F6
:10DA70002000FE3352425A86023B9D63DD631D64E3
:10DA800005B0F0BDB4A7020054A9020074A70200BB
:10DA90009D8C02008F8C020084A7020094A70200D4
:10DAA000A4A702009CA90200F4AA020070B5074DC9
:10DAB0002B68002B07D1A02040000CF0EDFB0400E8
:10DAC000FFF756FF2C60286870BDC0462C2600204A
:10DAD00070B50C220D00002104000CF031FC002375
