:020000021000EC
:108000000040002005F8010041F8010043F801009C
:108010000000000000000000000000000000000060
:1080200000000000000000000000000045F8010012
:10803000000000000000000047F8010049F80100BE
:108040004BF80100F5B2010001FF01004BF80100FF
:108050004BF80100000000001DF901004BF8010081
:108060004BF80100E900020089FD01004BF8010016
:108070004BF801004BF801004BF801004BF80100F0
:108080004BF801004BF801004BF801004BF80100E0
:108090004BF8010081DE010011EB01004BF80100FB
:1080A0004BF801004BF80100000000000000000048
:1080B00000000000000000000000000000000000C0
:1080C00010B5064C2378002B07D1054B002B02D0AE
:1080D000044800E000BF0123237010BDB020002041
:1080E00000000000FCAE0200044B10B5002B03D0D2
:1080F0000349044800E000BF10BDC0460000000076
:10810000B4200020FCAE0200164B002B00D1144B13
:108110009D46402292029A1A924600218B460F46B3
:108120001348144A121A11F0EDFC0F4B002B00D02B
:1081300098470E4B002B00D09847002000210400E8
:108140000D000D48002802D00C4800E000BF0CF0E4
:10815000DDFE2000290011F0CBFA0CF0C1FEC04674
:1081600000000800004000200000000000000000A7
:10817000A8200020202900200000000000000000AE
:1081800010B50400034B036040300DF090FC20005C
:1081900010BDC046889D0200F0B585B01F000AAB37
:1081A0001B880600150002910393002F1CD0282085
:1081B00001F0B4F86B4604001989039BAAB200933E
:1081C0003B000DF012FC3368210030005B689847DB
:1081D00000280AD0002C05D020000DF01CFC200047
:1081E00001F0B6F8024800E0024805B0F0BDC04614
:1081F00016FCFFFF17FCFFFF0022104B00B5FF210C
:108200001A70662389B01A0000910D4803F04CFCE7
:108210000C4907A801F086F9C82207A952000A48AC
:1082200002F0CAFB07A80DF042FC084800F07EFFF0
:1082300007480DF072FA09B000BDC0465C28002066
:10824000F0240020A0A90200C02100208813000013
:10825000D420002010B50A480EF062FB094B00281C
:108260000BD118680AF08EFE074A084B0AF056F840
:108270000BF0AEFA0AF050FE10BD1860F2E7C046EF
:10828000C0210020D02000200EBE30992A18D93FEE
:1082900037B50321684607F0D9FA642400256846FB
:1082A00007F018FB104908F063FE09F043F97E2837
:1082B00002DD854200DA0500013C002CEFD12800E8
:1082C0000AF060FE094A0A4B0AF028F80022094B1E
:1082D0000AF090FA0AF020FE002801DA20003EBDE4
:1082E0006428FCDD6420FAE700007F433333333336
:1082F0003333E93F00005940F7B501211E480DF026
:1083000047FF0AF03FFE04000D001B4801210DF05D
:1083100052FF0AF037FE06000F00174801210DF04A
:108320005DFF0AF02FFE2200009001912B0020003B
:10833000290009F0F3FF32003B0004000D0030007B
:10834000390009F0EBFF02000B002000290009F0C2
:1083500093F9009A019B0D0004001900100009F028
:10836000DDFF02000B002000290009F085F90BF069
:1083700003FB0AF0D1FDFEBD98220020F0B599B0B4
:10838000BE4917A801F0CEF8782217A9BC4802F020
:10839000A5FB17A80DF08BFBFF23012402250093FA
:1083A000CC3B1A000021B74803F07EFBB64B1C7093
:1083B000B64EB74909A8376801F0B4F8FFF768FF6F
:1083C00001000AA80DF08FFB0AAA09A90BA80DF05D
:1083D000DAFBB0490CA801F0A5F80CAA0BA90DA86E
:1083E0000DF0D1FBAC480EF0B4FE01000EA80DF06C
:1083F0007AFB0EAA0DA90FA80DF0C5FBA74910A87E
:1084000001F090F810AA0FA911A80DF0BCFBFFF71E
:1084100021FF010012A80DF066FB12AA11A913A8F2
:108420000DF0B1FB9E4914A801F07CF814AA13A921
:1084300015A80DF0A8FB9B4801F0D2FD010016A87D
:108440000DF051FB16AA15A917A80DF09CFB2A00E8
:1084500017A938000FF0DAF817A80DF028FB16A8B6
:108460000DF025FB15A80DF022FB14A80DF01FFB45
:1084700013A80DF01CFB12A80DF019FB11A80DF0AC
:1084800016FB10A80DF013FB0FA80DF010FB0EA8A3
:108490000DF00DFB0DA80DF00AFB0CA80DF007FB6D
:1084A0000BA80DF004FB0AA80DF001FB09A80DF0C4
:1084B000FEFA142000F03AFE33687B490DA80393BE
:1084C00001F030F8794F210038000DF061FE010015
:1084D0000EA80DF008FB0EAA0DA90FA80DF053FB76
:1084E000734910A801F01EF810AA0FA911A80DF0E9
:1084F0004AFB210038000DF05EFE010012A80DF0CD
:10850000F2FA12AA11A913A80DF03DFB694914A8AB
:1085100001F008F814AA13A915A80DF034FB2100E6
:1085200038000DF05BFE010016A80DF0DCFA16AA6B
:1085300015A917A80DF027FB2A0017A903980FF01B
:1085400065F817A80DF0B3FA16A80DF0B0FA15A843
:108550000DF0ADFA14A80DF0AAFA13A80DF0A7FAC1
:1085600012A80DF0A4FA11A80DF0A1FA10A80DF0B0
:108570009EFA0FA80DF09BFA0EA80DF098FA0DA820
:108580000DF095FA142000F0D1FD4B490BA8366888
:1085900000F0C8FFFFF7B0FE01000CA80DF0A3FA31
:1085A0000CAA0BA90DA80DF0EEFA44490EA800F094
:1085B000B9FF0EAA0DA90FA80DF0E5FA40480DF07D
:1085C00093FE010010A80DF08EFA10AA0FA911A8B1
:1085D0000DF0D9FA3B4912A800F0A4FF12AA11A984
:1085E00013A80DF0D0FA38480DF07EFE010014A853
:1085F0000DF079FA14AA13A915A80DF0C4FA33499D
:1086000016A800F08FFF16AA15A917A80DF0BBFA3F
:108610002A0017A930000EF0F9FF17A80DF047FA4D
:1086200016A80DF044FA15A80DF041FA14A80DF0A3
:108630003EFA13A80DF03BFA12A80DF038FA11A873
:108640000DF035FA10A80DF032FA0FA80DF02FFA40
:108650000EA80DF02CFA0DA80DF029FA0CA80DF0BB
:1086600026FA0BA80DF023FA322000F05FFD064B2E
:108670001B78002B00D09BE619B0F0BDA4AE020021
:10868000C0210020F02400205C2800200C250020C0
:10869000A2A90200A5A902004C230020A8A902005B
:1086A000ABA90200FC220020AEA902009822002003
:1086B000B2A90200B6A90200BAA90200BEA902002E
:1086C00038220020C2A9020060220020C6A90200B0
:1086D000F7B5194DFA26280000F072F9174801F095
:1086E0007FFC0A2310270093F5331A001900144861
:1086F00003F0DAF9134CB600310000970122200094
:10870000114BFFF749FD31000222104B009720006A
:10871000FFF742FD1C2000F001FE8321202304000E
:10872000C9001A00695803F08DFF094B1C6000F066
:1087300079FD0020FEBDC046D4200020FC22002090
:10874000F0240020A42100207D830100F981010094
:108750000C25002070B50A4C200000F05FF8094D90
:1087600020002A00084911F06EF9084C0849200041
:1087700000F0D8FE2A002000064911F064F970BD0F
:10878000D42000200020002099870100CC20002068
:10879000C8A90200AF5A0200862310B50400DB000E
:1087A000C01803F033F81B4BE01803F007F9F4236B
:1087B000194A9B00E2501C33E0180DF078F9FA23B7
:1087C0009B00E0180DF073F98A239B00E01801F07C
:1087D0006FFA2000C530FF3001F076F820008D30B0
:1087E000FF3001F02DFA20006530FF3001F028FA4B
:1087F0002000EC3001F0F8FE2000D03002F0F2FB57
:108800002000643006F048FF201DFFF7B9FC20006F
:1088100010BDC0461C040000249F0200F0B51425C2
:10882000040097B019222B0000951821043002F0A3
:10883000B1FD23002700260064331800B43713214C
:108840001393B83606F034FF38000EF028FC2900E8
:10885000132230000EF078F82000D03002F0E2FB56
:108860002300EC3306211800514A149301F0E4FE72
:10887000200000236530009301331A001121FF30DE
:1088800001F0EAF9200000238D300093022210212C
:108890000133FF3001F0E0F92000B5301A23022245
:1088A0000121FF3002F07CFC2200C532FF3212921F
:1088B000310004231822129801F012F88A22920043
:1088C000A218159205231D223100019300923B004E
:1088D000129A159801F0F0FB9B229200149B1599B7
:1088E000A018129A01F0BCFD9E2292003900A01837
:1088F0001C2202F07DFE3223A4221093193B0F9319
:10890000013B0E93013B0D93013B0C93013B0B93F9
:10891000023B0993023B0793013B0693013B0593FE
:10892000013B0493013B0393013B0293013B0A95F6
:108930000193023D9200013BA01800930822013BE5
:10894000072108950EF008F8F42292003900A018CB
:1089500003F068FBFC229200A0181D2102F066FCC7
:1089600083230026DB00E650124B28222900E01862
:1089700003F0BCF88623DB00E01802F0E1FF139857
:108980000321267010F088FD2300220020000A49F0
:108990009C33A0321C6011605660084A02215A6163
:1089A0008030012207F06CF8200017B0F0BDC046FF
:1089B000909D02001C0400001B5702004D5702004E
:1089C000F0B502780123170004008BB01F401A4253
:1089D00000D0A9E0C530FF300DF036FA2300D033C7
:1089E0001800039300F064FA00F092F9282000F0D8
:1089F00095FC050010300DF0E9F84C4B18202B6069
:108A000000F08CFC06004A4B0822089339000997B5
:108A100004600C3011F076F808A90822301D11F01E
:108A200055F8444B2900736112230398AE60EF6040
:108A3000AB802F626F6202F06DFA002805D028002B
:108A40000CF0E9FF280000F083FC012500272378C3
:108A500064202B43237000F069FB059526006536E2
:108A6000FF3630000DF040FC00283CD020008D3057
:108A7000FF300DF039FC002835D00A2F33D06420A8
:108A8000013700F053FB0A2FE8D1F4239B00E518CF
:108A90004833E3580493002B1ED100F059F801002D
:108AA00007A800F03FFD08A80CF0B4FE059B08AA3B
:108AB00007A928000093039B03F00CFB08A80CF007
:108AC000F6FF07A80CF0F3FFF6239B00E35804938E
:108AD0008323049ADB00E250210032002800EC31AD
:108AE00003F08AFCBAE78325ED006659002E1BD1FE
:108AF00000F02EF8010007A800F014FD08A80CF003
:108B000089FEF4239B00E01808AA039B07A900969E
:108B100003F0E0FA08A80CF0CAFF07A80CF0C7FFA2
:108B2000F6239B00E35863510BB0F0BDFD0300003A
:108B3000A357020063570200BFF34F8F024B034A53
:108B4000DA60BFF34F8FFEE700ED00E00400FA05A6
:108B5000F0B58BB002ABDF1D19223800144910F0BC
:108B6000B5FF0023134D05266B7180235B055B6EFB
:108B70002C000093012301933100009807F05EFC64
:108B80000800019907F0D4FB0522009B56431B1AED
:108B90000093019B534301932B1B5343FB181B5C16
:108BA000013C6371044B9C42E6D102480BB0F0BD1E
:108BB000FFA902005D28002058280020F0B595B0DC
:108BC0001822002104000EA810F09CFF13210EA80B
:108BD00010F06CFD03210EA810F013FE464B1B682D
:108BE000002B00D10133DBB2009300210123434A63
:108BF00009A807F0B5F8FA239B009C429B411C4052
:108C000072B63F4B64211E683E4B2000059305253C
:108C100007F018FC6843503030180A2106902000F5
:108C200007F010FC0A2107F0F3FC6943503171187A
:108C3000200007910A2107F0EBFC4D4350357619CF
:108C4000089680260024B601009B002B52D004AD6C
:108C50000027032C02D180260024B6016B682A4A23
:108C600002936300D3180022019258780299095C9C
:108C7000039119788C461021604601410398014206
:108C800004D0012090400199014301910132063343
:108C9000092AEAD1019B2A68D9431C4B09011940D2
:108CA000029B934224D1312F22DC002109A810F02D
:108CB00068FEFA23139A0F99DB001068014219D05D
:108CC000013B002BF9D1FA23013401377600E4B2DD
:108CD0005B009F42BDD1043508ABAB42B8D1064B17
:108CE0001B68002BB0D0009B013BDBB20093ABE7CD
:108CF0003143DBE7FFF720FF14250020F0FF0000E1
:108D0000042000204EAA020018AA0200F01F000052
:108D1000F8B50023124C23600CF09DFD002808D00C
:108D2000042120000CF093FD002801D00D4B23609E
:108D3000F8BD0122A12704250B4B0C491A602268BB
:108D4000FF0048604E68002EFCD0DE591202013D43
:108D50003243002DF5D1226001225A60E8E7C04677
:108D600010250020ED5EBC0B00D00040FCD0004080
:108D70000B4B70B51C68002C10D0656D00F08EFB9D
:108D8000A36C002901D1834206D820000CF096FD87
:108D9000200004490CF080FD2C00ECE770BDC046BB
:108DA0001C2500203C250020F0B593B007932A4BEA
:108DB00004AC1E68049005910692002E49D0274B02
:108DC000258867881C6800230293002C2DD0636DD2
:108DD00023480393A36C190C9AB20B00854214D15B
:108DE0002048824211D1002901D0B9420BD1029B07
:108DF000002B08D120000CF061FD20001A490CF076
:108E00004BFD01230293039CDFE7002A01D095422A
:108E1000F9D1002901D0BB42F5D120000CF04EFD64
:108E2000200011490CF038FDEDE7104BEB18012B39
:108E30000FD910233A002900009308A80C4B0CF01E
:108E4000D4FD336830009B6808A9984708A80CF047
:108E5000E2FD13B0F0BDC0461825002048250020D3
:108E6000FE030000FF0300003C25002002FCFFFF82
:108E7000A98D010010B572B60B4B1C68002C08D0F0
:108E800020000CF01BFD0023E364084B2000E3638B
:108E900010BD62B65C2010F0E1FD5C2200210400F0
:108EA00010F030FEEFE7C0464025002000400020D3
:108EB000F7B51E4C0123227816001E401A4233D10A
:108EC0001B4D2860FFF7D6FF1A4B1B4918600CF0AA
:108ED000E3FCFFF7CFFF194B1860194B4363194BA5
:108EE0008363286800280FD0C023174F320017492A
:108EF00000933B00FFF750F9C023009332003B0082
:108F000013492868FFF748F90C2010F0A7FD00234B
:108F1000838083710F4B03600F4B836000F0D6FAA0
:108F20000123227813432370F7BDC0466328002035
:108F3000182500204C2500203C2500204425002039
:108F4000FC3F002055590200A98D0100FF030000DD
:108F5000FE030000B09D0200718D0100024B1878E5
:108F6000012318407047C04663280020F7B506006B
:108F70000D0017000193002802D100242000FEBD3F
:108F80000029FAD0FFF776FF041EF6D0074B019AAE
:108F900043630660064B45608760002A00D0054B9E
:108FA00020000549A3630CF077FCE7E7FC3F0020B5
:108FB0002F5902003D5902003C25002070B5074B97
:108FC0000E0011001A7805000123100018401A4203
:108FD00003D032002800FFF7C9FF70BD63280020CE
:108FE000024B1868434258417047C0463C25002058
:108FF0000300002210B5044994006058002801D0F5
:109000000132F9E7635010BD24250020002310B57C
:10901000044A99008C58844201D00133F9E70020BA
:10902000885010BD2425002010B50024084BA20054
:10903000D058002802D003685B6898470134062C9A
:10904000F4D1044B1B68002B00D120BF10BDC046DB
:10905000242500203C2500200122F8B52C4B1B784C
:1090600013421CD02B4D2C68E36C134218D00227FE
:109070003B43E364284B1E680423F26C3000134327
:10908000F364636BF3630CF030FC3000716C03F03D
:10909000A8FC2868C36C3B4201D003F0DCFCF8BD9F
:1090A0001E4F1F4E3A683068002A0AD128601B07FD
:1090B00012D52C60FFF7B8FF3B68002BFAD02B606D
:1090C0000AE0216DB94219D1616D002900D111006A
:1090D00029602A688242EAD029688C42DFD033684E
:1090E00099420DD10F4B4B630F4B8B6320000CF05B
:1090F000FCFB296820004B6C626C06E02A60E8E704
:109100009C42F3D1002210004B6C03F029FCC6E70F
:10911000632800204C250020202500203C2500202D
:1091200044250020FC3F00205559020070B5114B2A
:1091300004001A7801231A4202D110F05BFB70BDC3
:109140000D4A1568EA6C1A4206D0FFF793FE0B4BE6
:109150001860002800D0050000F0A0F92418AC64C5
:1091600028000CF0ABFB280005490CF095FBFFF73D
:1091700073FFE4E7632800204C2500202025002011
:109180001C250020F0B51E4B1E4F1E683B6885B0A5
:1091900005000391002B31D01B4B1A7801231A4292
:1091A0002CD0F26C1A420ED0FFF764FE174B041E4F
:1091B000186008D00CF082FB200015490CF06CFB05
:1091C0002600FFF749FF039B30001B042B43B364C9
:1091D0000CF074FB30000F490CF05EFB0E4B0024CA
:1091E000EB18012B07D9C023009329000B4B039ADE
:1091F0003868FEF7D1FF200005B0F0BD084CFAE753
:109200004C25002018250020632800202025002060
:109210003C2500204825002002FCFFFFA98D01000D
:1092200016FCFFFF10B5074B1B78DB0709D5064C72
:1092300020680CF043FB054920680CF02DFBFFF77C
:109240000BFF10BD632800204C2500204025002086
:1092500010B5034B1B78DB0701D5FFF7E3FF10BD0B
:1092600063280020F7B505000C00002833D0012644
:109270001B4B1B78334230D01A4F07233868C26C1F
:109280001100194000911A4207D021002800164A07
:10929000FFF794FE00252800FEBD03F0C4FB3A68EA
:1092A0000221D36C1800084001900B4203D0013119
:1092B0008B43D364EEE73343D3642000A8473A6876
:1092C000019DD36C1900B143D1645B07E3D5200045
:1092D000FFF7BEFFDFE7054DDDE7054DDBE7C046E5
:1092E000632800204C2500205192010017FCFFFF4D
:1092F00016FCFFFF020010B5014B12CB12C210BDCD
:1093000050250020034B1A68034B1A607E225A60D6
:109310007047C046042000205025002070B504008E
:109320000025094B1B78AB4209DD0849EB00200002
:10933000C9180CF015FB002804D10135F1E7200015
:109340000BF008FE70BDC0466428002058250020A0
:1093500010B5002811D000220B4B19780B4B91420D
:109360000FDD1C68844209D25C68844206D98023E0
:10937000043802681B061343036010BD0132083332
:10938000EDE70BF0F1FDF8E76428002058250020F8
:1093900070B5051E14DD0B4E0B4C3368002B02D04C
:1093A000206810F0DCF8FA2120680024074B8900BF
:1093B0008361C4626943356010F0E2F8200070BD3B
:1093C0000348FCE7682500209825002079940100D7
:1093D00017FCFFFFF8B5114F05003E68002E0AD1BB
:1093E000302010F03BFB040006F0CAF90C4BA661DC
:1093F0002360E6623C600B4E3368002B09D11020DD
:1094000010F02CFB040010F007F92000346010F07D
:10941000DDF82800FFF7BCFFF8BDC0469825002006
:10942000A8A2020094250020014B18687047C0468E
:109430006825002070B50D4C2368002B03D00C4B21
:109440001B68002B02D10620FFF7C4FF206810F034
:10945000D4F802000749C3170D684E6852197341CA
:1094600020680A604B6010F0CEF870BD9425002093
:1094700098250020A820002010B5FFF7DBFF00246E
:10948000054BA200D058002802D003681B689847FB
:1094900001340A2CF4D110BD6C25002010B5FFF763
:1094A000C9FFFA22034B920018685968002307F09D
:1094B000EFF810BDA820002010B5FFF7BBFF024B4E
:1094C0001868596810BDC046A82000200B4B10B585
:1094D0001B680400002B03D0094B1B68002B02D132
:1094E0000620FFF777FF0023064A990088580028D6
:1094F00001D00133F9E78C5010BDC04694250020FF
:10950000982500206C250020002310B5044A9900FE
:109510008C58844201D00133F9E70020885010BDF7
:109520006C25002010B50400002902D00B78002B18
:1095300003D1034B2360200010BD0CF0BFFAFAE703
:10954000C09D0200F8B504000E00150000290AD0E5
:109550000B78002B07D0002A05D0080097B210F036
:1095600011FB874203D90B4B23602000F8BD681D17
:109570000BF0F0FC20600CF02FFC20682A004780E4
:109580003100043010F0A2FA23685D1900232B711A
:10959000EBE7C046C09D0200014B03607047C04628
:1095A000C09D020010B50548054C20600CF017FC6A
:1095B0002000044A044910F046FA10BDC09D020084
:1095C0009C25002000200020AF5A0200084B73B5F4
:1095D0001D680400002D0AD001002E680822083101
:1095E000684610F073FA0CCC28003168884773BDC8
:1095F000A0250020014B03607047C046C89D0200B3
:1096000030B500684488A1420CDA8588AA4209DA9C
:10961000002907DB002A05DB6243401880188371AC
:10962000002030BD0048FCE717FCFFFFF0B5070045
:109630000E001D0085B0002921DD002A1FDD002B52
:109640001DD00468638803938B4200DD0391A388D7
:109650000293934200DD0292002306340193019BA2
:10966000029A93420ED029002000039A10F02EFA9D
:109670003B68AD195B88E418019B0133EEE70248B3
:1096800005B0F0BD0020FBE717FCFFFFF8B50400B4
:109690000D0016001F00002901DB002A02DA0D4B25
:1096A0002360F8BD1000484306300BF053FC2060E7
:1096B0000CF092FB23685D809E80002F06D03B005B
:1096C000320029002000FFF7B1FFEAE720000CF08C
:1096D000BFFAE6E7C89D0200F7B507000D1E03D1EB
:1096E000244B03603800FEBD002408002600210042
:1096F00001940378002B1AD03022524294469C44A5
:109700006246092A11D90A2B0AD1019B3619013365
:109710000193B14200DA3100002426000130E8E76D
:10972000002CFBD000240136F8E70124F6E70126DF
:10973000019A380012B209B27642FFF7A7FF310052
:109740000A203B689A1D2C78002CCBD02300303B9C
:10975000092B08D8F343DB17334043431B19303B35
:109760001E000135EFE7002EFBDB16700E00013204
:10977000F7E7C046C89D0200F0B5050087B004A811
:1097800016001C000F00FFF7B5FD2B685A889642A3
:1097900035DA9B889C4232DA1F2F30D9059B019322
:1097A0009F422CDC05217943049BA0395B1801936F
:1097B0002300621D0392019A1278029200222C6803
:1097C000B7186088B8420DDDA1888B420ADAE41927
:1097D000102717415843029924180F40781E8741DB
:1097E0007F42A7710132052AE9D1019A0133013282
:1097F0000192039A9342DED1002007B0F0BD0148E8
:10980000FBE7C04617FCFFFFF7B5036806009F1D86
:109810005B880D005A1A0192002919DD0024994233
:1098200003DB0CF015FA002013E033689B889C42A0
:10983000F9DA79193800019A10F048F9019B2900EA
:10984000F8180CF0F7F9336801345B88FF18ECE77F
:109850000048FEBD17FCFFFF10B50548054C206011
:109860000CF0BDFA2000044A044910F0ECF810BDD9
:10987000C89D0200A425002000200020275C0200D3
:1098800010B5054C012120000CF09DFA2000034A80
:10989000034910F0D8F810BDA825002000200020B2
:1098A000855D0200074A030010B50120934208D0ED
:1098B000834202D00020DB0703D41E20FFF77EF98D
:1098C000002010BDFFFF000010B50400034B08335B
:1098D0000360FFF79BFB200010BDC046D09D020037
:1098E000F7B507000025040001931A4B143708331D
:1098F0000E008580290085710360C5810561009295
:109900003800182210F0FEF8380015210FF0CEFEB6
:10991000019B2200A380009B0E21238114236381DD
:10992000123BA571A563A58723733E321378266386
:109930008B431370084B0122E364084B200023651E
:10994000230054331D70064B6364230048339D701D
:109950001A80FEBDD09D020000000A03000303012F
:1099600001000100F7B504000CF0D1FB0E22A35E4C
:109970007A4F5B42BB4251DA23003E331B789B0790
:109980004CD50125210028003E310B785A08904320
:1099900002000220AA40834313430B7020000CF006
:1099A000B6FB1022A35E5B42BB4248DA23003E3383
:1099B0001B785B0743D50125210028003E310B7839
:1099C0009A08904382000420834313430B702600BF
:1099D00020000CF09CFB1222A35E4A36BB423EDA0A
:1099E00023003E331B781B0739D5210001223E316D
:1099F0000B78D80882430820D200834313430B70AE
:109A00003378032B3BD80133DBB23370012B00D00A
:109A10008EE0230000224C331A8030E020000CF04E
:109A200076FB0E22A35EC8225B42002552009342C1
:109A3000B4DD23003E331B789B07A2D5AEE72000A0
:109A40000CF065FB1022A35EC8225B4252009342D9
:109A5000BDDD23003E331B785B07ACD5B7E72000A4
:109A60000CF055FBC8231221625E5B009A4204DDB4
:109A700023003E331B781B07B7D5002DC0D13378A8
:109A80000193002B14D0200027004C3003883E3770
:109A900001339BB203803A780125110029402A4204
:109AA00054D01D2B04D90023AA433A70038033708D
:109AB00020000CF059FB2A4A0723904244DD200085
:109AC0000CF025FB0E23E25E264E52420323B242E7
:109AD0003ADBC82520000CF01AFB0E23E25EAD0035
:109AE00052420423AA422FDC20000CF010FB10236A
:109AF000E25E02235242B24226DB20000CF007FB5A
:109B00001023E25E01235242AA421DDC20000CF029
:109B1000FEFA1223E25E0623B24215DB20000CF0AF
:109B2000F6FA1223E25E0023AA420DDD05330BE0B4
:109B3000042BA4D122003E321178033B0B43137057
:109B400000234C3423800C331800FEBD092BAFD901
:109B50000180019901393170AAE7C04670FEFFFF0C
:109B6000FF700200E0FCFFFFF0B5C369C1681A682E
:109B7000451D0400EB7F89B0114225D0002B57D141
:109B80000123A2791A4237D0002602226846A18812
:109B9000A6710CF025F8A31DDD7F012D2CD1FFF758
:109BA0007DFC3300226A801A99410F000600A188CB
:109BB0009F4203D1FA239B009E423BD30123042200
:109BC00004A80CF00DF817E00B2B01D80133EB774C
:109BD000EB7F082B0DD90122A37913420CD113433B
:109BE000A188A37104A813000BF0FAFFFFF756FC3D
:109BF0002062EB7F012BC3D90322A3791340012BF1
:109C000014D1FFF74BFC0023226A801A9941994234
:109C100002D10A4B984209D90223A279A1881343A1
:109C2000A3710522012304A80BF0DAFF09B0F0BDEF
:109C3000013BCCE72B000322C2E7C046DB05000056
:109C400010B50400034B08330360FFF75DFC2000F0
:109C500010BDC046E89D0200F0B5060000250F00CB
:109C6000040085B002930AAB1B78083603930F4BB0
:109C70002900083303600192858085711822300025
:109C80000FF040FF39003000039A0FF014FD019BE4
:109C9000029AA380A31DE771DA77631D2562200075
:109CA000DD77FFF713FC200005B0F0BDE89D020052
:109CB00010B50400034B08330360FFF7A7F9200039
:109CC00010BDC046009E0200F0B587B004AC08236A
:109CD0000F0042221021009405000CF03BFBA379F9
:109CE0000020DA0700D48BE062782678E17812024F
:109CF0001643A27809020A4312B2D2100292627984
:109D000020791202104300B242100392E47936B275
:109D100024021C43AB1CD98FF610A4108803002C1E
:109D200000D0210006F08EFB364B2A00C01800B28E
:109D30000300002143433F325156DB11013A4B43AC
:109D400011788022C90148431B185B1252039918ED
:109D50002B0034331B785BB2A0334B431B135E43A1
:109D60002B0032331B7876135BB2DB00F6183E8093
:109D7000AE1CF18F8803002C00D0210006F062FB9E
:109D8000204B2A00C01800B20300002143433F3299
:109D90005156DB11013A4B4311788022C9014843E7
:109DA0001B185B12520399182B0035331B78029A4B
:109DB0005BB2A0334B431B135A4353132A00333275
:109DC000127852B2D2009B187B803C22AB5E039A81
:109DD0003A21685ED31A3E21725EDB03A21A504319
:109DE0008010181AEB8E6100594380231B02C9189A
:109DF0003823EC5E0914091906F024FBB880012011
:109E000007B0F0BD00C0FFFFD0B504000CF0BBFAF6
:109E1000E268A369981A09F0B5F806000F002369F3
:109E2000E069C01A09F0AEF832003B0009F0A0FD6D
:109E30000022104B08F072FA0F4A104B07F086FF11
:109E400009F018F90021041C06F0FAFB002804D0E0
:109E5000201C0B4906F026FD041C201C09F0C2F84A
:109E600002000B000020074908F0C4FC09F054F878
:109E7000D0BDC04600806640EA2E4454FB21094014
:109E80000000B44300807640F0B5040085B0806ADD
:109E90000CF015FA061CA06A0CF008FA0221071C47
:109EA00020000CF00DFB0221039020000CF01AFBA7
:109EB00007F060FB80231B06C218022120000192DC
:109EC0000CF022FB07F056FB041C301C09F012FDBD
:109ED000051C301C09F0D2FC0290381C09F00AFD68
:109EE000061C381C09F0CAFC071C039807F042FB4B
:109EF00080231B06C018391C07F03AF8311C071CD8
:109F0000019807F035F8291C07F032F8011C381CBD
:109F100006F0C8FC311C071C201C07F029F8029928
:109F200007F026F8011C381C06F0BCFC291C061C96
:109F3000201C07F01DF80299041C019807F018F87E
:109F4000011C201C07F02EF9311C09F079FD0D4988
:109F500007F00EF809F046F80B4A0C4B07F0F6FE36
:109F600009F088F80021041C06F06AFB002804D0E0
:109F7000201C044906F096FC041C201C07F0DAFAA9
:109F800005B0F0BD0000B443EA2E4454FB21194053
:109F90007FB50425837904002B421BD102260CF0E7
:109FA000F2F9A3790622B3432B43A3716846012338
:109FB000A1880BF015FEA3791A003340581E834187
:109FC0005842FB239B001840034BAA43A271C018C0
:109FD00004B070BD0148FBE714FCFFFF15FCFFFF58
:109FE00010B5837904005A070DD49B0701D4FFF7FD
:109FF000CFFFA36A2000002B02D0FFF745FF10BD62
:10A00000FFF702FFFBE70148F9E7C04615FCFFFF39
:10A0100070B5C66A86B001AC050001916260A360AC
:10A02000002E0CD00B4905A8FFF77CFA0C23220068
:10A03000300005A90DF06EF805A80BF038FD2B00D7
:10A040000C3307CC07C30223AA791343AB7106B0C4
:10A0500070BDC0462EAC0200642330B5040085B04C
:10A060008180028143810CF05BFA0222A3792000F7
:10A070009343A3710CF0B1F9E06A002813D00D49A5
:10A080000DF013F8051E0ED001000C22103101A8AE
:10A090000FF01CFD20000199029A039BFFF7B8FF07
:10A0A00028000FF0D7FC0123A2791343A37105B058
:10A0B00030BDC0462EAC0200F8B504000E000020F2
:10A0C0001700E36201230B4D06AA083507A9A080FB
:10A0D000A0712560E06020616061A061E0612062A4
:10A0E00066622000A762128809882386FFF7B4FF02
:10A0F0002000F8BD009E020082B0F0B50400A5B0BB
:10A1000064202B932A920FF075FB04220C2109A8DE
:10A1100002F002FD2422CD491BA80FF0D7FC052236
:10A1200006A811000BF09DFDC94907A8FFF7D4FA56
:10A13000A06800F079FBA568C64918A8FFF7F2F9F6
:10A140007822280018A900F09FFC18A80BF0AFFC9B
:10A150006E256420013D0FF04DFB002DF9D1A06864
:10A1600000F062FBA0680CF0D6FB012160680CF0E7
:10A170000FF80121070060680CF01DF806000A20A6
:10A18000FEF7D4FF0022B44B04929F4210DB013251
:10A1900004923A00C8320BDBC822042192000491D9
:10A1A000974205DC03220492C82F01DC013A049295
:10A1B000002203929E4210DB012303933300C83335
:10A1C0000BDBC82304329B0003929E4205DC032371
:10A1D0000393C82E01DC013B039306A80BF038FD66
:10A1E0001BAF00233E000593B378002B05D0FF235F
:10A1F0007278317806A8FFF703FA059B033601331E
:10A2000005930C2BF0D16B460C229A5E6B4606A888
:10A210001021595EFF23FFF7F3F90023A0681A000D
:10A220000093743006A90BF023FD3B002433059303
:10A230003B78049A934234D17B78039A934230D18D
:10A24000BE78002E2DD1310020680CF039F907F0CE
:10A2500091F93200031C290009A80DF01AFA310007
:10A2600020680CF03FF907F085F90122031C290052
:10A2700009A80DF00EFA310020680CF045F907F03E
:10A2800079F92900031C022209A80DF002FAFE2325
:10A2900029009B05032209A80DF0FBF90123BB70DF
:10A2A000ED18059B03379F42C2D16420FEF73EFFA5
:10A2B0000B2D00DC59E709A80DF0D7F901220100A8
:10A2C0000CA802F029FC002509A80DF0CEF9A8423F
:10A2D0003CDD2900002209A80DF0C9F9002229005F
:10A2E000061C09A80DF0C3F9011C301C06F040FE45
:10A2F0002900061C012209A80DF0B9F90122290044
:10A30000071C09A80DF0B3F9011C381C06F030FE3B
:10A31000311C06F0C7FA29000222061C09A80DF01C
:10A32000A6F902222900071C09A80DF0A0F9011CBA
:10A33000381C06F01DFE311C06F0B4FA2900031C7F
:10A3400000220CA80DF0A5F90135BDE709AA1100FE
:10A35000012318A80DF0B7F918A90FA80DF011FAEC
:10A3600018A80DF0A7F90CAA09A912A801230DF04D
:10A37000AAF9002312AA0FA915A80DF0A4F900222A
:10A3800015A811000DF073F90022061C012115A873
:10A390000DF06DF90022051C022115A80DF067F9DA
:10A3A000FC21071C8905301C06F0E2FD07F0C2F80D
:10A3B000FC21060018908905281C06F0D9FD07F03D
:10A3C000B9F8FC21050019908905381C06F0D0FD6C
:10A3D00007F0B0F82A00030031001A902068FFF758
:10A3E00017FEA0680CF097FA07A908A8A5680BF05B
:10A3F00027FC0022194B009208A9019328001300A2
:10A4000000F0B0FA08A80BF00EFCFA2080000FF064
:10A41000F1F9A0680CF07FFA15A80DF04BF912A81D
:10A420000DF048F90FA80DF045F90CA80DF042F910
:10A4300007A80BF0F8FB06A80BF0F5FB09A80DF038
:10A4400039F925B0F0BC08BC02B018478CAC02004A
:10A4500039AC02007EAC0200E0FCFFFFDC0500002E
:10A46000F7B583601D4B05001F6801604260002F37
:10A4700031D028200FF0F2FA040010300BF0A6FBC8
:10A48000174B182023600FF0E9FA00220600154B45
:10A4900000210192056008320C3000930FF032FB6E
:10A4A00008226946301D0FF011FB0F4B002273612B
:10A4B000C223A3803B68E260210038005B68A6608D
:10A4C000226262629847002805D020000BF0A3FAB0
:10A4D00020000FF0BFFA2800FEBDC046A0250020D6
:10A4E00005000600F9A00100C5650200F0B50400F2
:10A4F00085B0637A9C46002B04D120000CF08DF8C7
:10A5000005B0F0BDA37A266F01931023019AF3568C
:10A5100000259B1801229A402900F36803920293B8
:10A52000029BAB4231DDB068019B6843C018736980
:10A530004000E77A1A181B5C5078E279012F14D199
:10A54000571E3F1A18003B004243606F52008218AA
:10A55000D2189379634500DD6346627B1A4202D0CC
:10A560000123AB4019430135DAE7022F07D0032F4F
:10A57000EAD1277A013FFF1A03003800E4E7571EAB
:10A58000FB1A277A013F381ADEE71123C943F35635
:10A59000606C994023691940039B19430FF0F1F94E
:10A5A000A27B072AACD8637B0C495B006373531C06
:10A5B000DBB290004158A373022A03D808000FF0C1
:10A5C0000EF996E7064B2000236300236363054BD7
:10A5D000E462236414300EF0D3FF91E7189E02006A
:10A5E000EDA401000566020070B50400104B2500C3
:10A5F00008330360FEF788FF200074300BF013FB74
:10A60000200060300BF00FFB200058300BF04FFAA9
:10A61000200050300BF04BFA064B143528006361D4
:10A620000EF09DFF280005F0C1F8200070BDC04667
:10A63000389E0200A8A20200F8B500250400324BA3
:10A640008580083303608571143016000F0005F013
:10A6500097F820002D4BE562636125645030FEF7CA
:10A660009BFF20005830FEF797FF20006030FEF778
:10A67000C1FF20000423F25E33682667590009B247
:10A6800074300BF0EEFA3368226FE37173680126C1
:10A69000237210236581A7802561D35691685918CC
:10A6A000994204DD3000984001330543F8E7112357
:10A6B0000120D356D1685918994206DD02009A400C
:10A6C0002669013332432261F6E714200FF0C6F900
:10A6D000226900212A430123060005F041FBFF23E4
:10A6E000220063720133A381002348326664A3739E
:10A6F00020001370A366FEF7E9FE0123A279200073
:10A700001343A371F8BDC046389E0200BCA20200EC
:10A71000F0B5437A040085B0002B04D120000BF083
:10A720007CFF05B0F0BD0122837A11009C46102306
:10A73000066F0025F3560392634499400291290065
:10A74000F3680193019BAB422CDDB06873696843E9
:10A7500060444000E77A1A181B5C5078E279012FB8
:10A7600010D1571E3F1A18003B004243606F520041
:10A770008218D2189379002B02D0039BAB40194367
:10A780000135DFE7022F07D0032FEED1277A013FF3
:10A79000FF1A03003800E8E7571EFB1A277A013F2B
:10A7A000381AE2E71123C943F356606C99402369D4
:10A7B0001940029B19430FF0E4F8667AB31EDBB22E
:10A7C000FC2B14D8FEF730FE0B4B0500236300234F
:10A7D0000A4863630A4BFF217043E462236405F077
:10A7E00031FE29004143200014300EF0C9FE637A87
:10A7F000012B00D995E791E71B660200B603000024
:10A80000056602001FB5012381881A0068460BF017
:10A81000E7F9012368461A0002490BF0E1F905B097
:10A8200000BDC046FE0300001FB5030048331A7880
:10A830000400002A0DD000221A70012381881A001A
:10A8400068460BF0CDF9012368461A0003490BF066
:10A85000C7F9200074300BF0FBF91FBDFF030000A7
:10A8600010B548300378002B06D00378012B03D0B5
:10A87000012102480BF052F810BDC046FF03000052
:10A8800010B50121040006200BF048F8064B984251
:10A8900008D148342378002B04D02378012B01D031
:10A8A00020BFF7E710BDC04616FCFFFF70B50500DE
:10A8B000141E19DB060048363378002B02D033789B
:10A8C000012B13D1002328001A007430FEF754FF27
:10A8D000002C07D02B004A331C80002407234C3562
:10A8E0002C803370200070BD014CFBE7014CF9E770
:10A8F00017FCFFFF12FCFFFFF8B50B6805005B8833
:10A9000008001700012B08D100210BF052F900229A
:10A9100001002800FFF7CAFFF8BD002A19DD2E004C
:10A9200048363378002B02D03378012B13D12B001B
:10A9300000245C331C80043B010018000BF014F968
:10A940002B004A331F8003234C352C8020003370AA
:10A95000E2E70248E0E70248DEE7C04617FCFFFFF7
:10A9600012FCFFFF73B5079C0500002C1CDB0600E2
:10A9700048363078002802D03078012816D1069861
:10A980001BB2C0B20090280012B274300BF070F904
:10A99000002C07D02B004A331C80002407234C35A1
:10A9A0002C803370200076BD014CFBE7014CF9E7A9
:10A9B00017FCFFFF12FCFFFFF7B505000E00171E86
:10A9C00026DDFFF74DFF2B0048331B78DCB2002B50
:10A9D00020D133685B88012B09D1210030000BF0B6
:10A9E000E8F8220001002800FFF760FFFEBD3100FB
:10A9F00001A80BF0B1F83A0001A92800FFF77CFF8D
:10AA000001A80BF054F82800FFF73AFF2000EDE70B
:10AA10000148EBE70148E9E717FCFFFF11FCFFFFE6
:10AA2000F0B587B00D9C05000E0017000393002CB5
:10AA300021DBFFF715FF2B0048331B78DAB20292B7
:10AA4000002B1AD1310005A80BF0FAF80C9B3A0044
:10AA500000932800039B019405A9FFF783FF05A835
:10AA60000BF0E1F8002C03D02800FFF709FF029C4F
:10AA7000200007B0F0BD024CFAE7024CF8E7C046F0
:10AA800017FCFFFF11FCFFFFF8B50400171E1DDDCA
:10AA9000060048363378002B02D03378012B17D1CB
:10AAA0002200E3795632013B137023000025200079
:10AAB00054331D8050300BF057F823004A331F8069
:10AAC000022328004C3425803370F8BD0148FCE790
:10AAD0000148FAE717FCFFFF12FCFFFFF7B504007F
:10AAE0000F00161E18DDFFF7BBFE230048331B784E
:10AAF000DDB2002B12D1390001A80BF02DF8320085
:10AB000001A92000FFF7C0FF01A80AF0D0FF200034
:10AB1000FFF7B6FE2800FEBD0148FCE70148FAE752
:10AB200017FCFFFF11FCFFFFFF2902D84172002034
:10AB300070470148FCE7C04617FCFFFFF0B51F0057
:10AB400085B00AAB1B780400039300933B000D0013
:10AB500016000EF078FC002833D0237D082B2DD86A
:10AB6000236800221900FC318A62A021C9005A50D2
:10AB7000154905205A500138C046C046C046C04657
:10AB8000C046C046C046C046C046C046C046C04695
:10AB9000F1D1236801325A50A0210432C9005A5021
:10ABA00005F03EFA039B3200009329003B00200091
:10ABB0000EF049FC237D01332375CCE7034805B033
:10ABC000F0BD2075FBE7C046FC0F00000EFCFFFF48
:10ABD000F0B51F0085B00AAB1B7804000393009307
:10ABE0003B000D0016000EF016FC002833D0237D2C
:10ABF000082B2DD8236800221900FC318A62A0217D
:10AC0000C9005A50154905205A500138C046C0465F
:10AC1000C046C046C046C046C046C046C046C04604
:10AC2000C046C046F1D1236801325A50A0210432F7
:10AC3000C9005A5005F0F4F9039B32000093290033
:10AC40003B0020000EF0E7FB237D01332375CCE7AA
:10AC5000034805B0F0BD2075FBE7C046FC0F0000BF
:10AC60000EFCFFFF10B5040086B0006C04F014FE6B
:10AC7000237BA0219A00A05000200C4AC90050500C
:10AC80000B4914305050626C6846517CC91849B267
:10AC90000BF01FFF039B019A03211A60207B0130F8
:10ACA000C0B205F0CBFB217306B010BD00700040B0
:10ACB0000405000082B070B50400002588B00C9235
:10ACC0000D93636C9A68AA420ADD197C02A849199F
:10ACD00049B20BF0FEFE069B039A01351A60F0E7BD
:10ACE0005D7C237B02A8ED186DB229000BF0F1FE0C
:10ACF000039A059B00211A60019202A818220EF007
:10AD000001FF02A8002229000EF0D5FC206C0028CB
:10AD100001D00EF09FFE08200EF0A0FE29000600D4
:10AD200004F094FD094B2000E3620023FA21236321
:10AD3000074B2664A462E363103009010EF020FC87
:10AD400008B070BC08BC02B01847C04665AC010032
:10AD50007D6A0200F0B504000E00150085B01F00EA
:10AD60000CAB1B88103001930AF030FF2680658001
:10AD700018200EF073FE02AE050033000AAA03CAC3
:10AD800003C32F602800082700213A000C300EF082
:10AD9000B9FE3A003100281D0EF098FE064B022243
:10ADA00020006B6100230199A5600A43E360A28043
:10ADB0002362636205B0F0BD936A020070B50400BF
:10ADC00086B010300D0004F0DBFC0023184AA362AB
:10ADD0002261184AE3631668656423732360636025
:10ADE000A3609E421FD0144A2820049205930EF0BF
:10ADF00035FEC02305006A46029304AB03CB03C2B1
:10AE00002300062102222800FFF7A4FF336829004F
:10AE100030005B689847002805D028000AF0FBFD49
:10AE200028000EF017FE00232000236406B070BD3A
:10AE3000BCA20200A0250020B5AC010030B5154B26
:10AE400004001D6891B0002D17D0134B6A4604937F
:10AE5000002305931033029304AB03CB03C22300FA
:10AE60000222062106A8FFF775FF2B6828009B68C1
:10AE700006A9984706A80AF0CEFD2500074B103515
:10AE8000280023610EF06BFB280004F08FFC2000EB
:10AE900011B030BDA0250020B5AC0100A8A2020071
:10AEA000F8B50D1E2FD000260227C468002C27D02D
:10AEB000AA88A38853403B4220D13A4215D1A368C7
:10AEC000AA6893421AD12B88002B02D022889A427A
:10AED00014D16B88002B02D062889A420ED1A288CE
:10AEE0000A4B01361343A38008E0A968A0680CF060
:10AEF000ABFB0028E7D1AB883B42E0D0646AD5E7E2
:10AF00002000002E00DC0248F8BDC0460080FFFF94
:10AF100017FCFFFFF0B506000D0085B0002959D0E1
:10AF20000127C468002C23D00221AA8800230A42EA
:10AF300002D0A3885B083B40226829688A4211D16D
:10AF4000A068A968002B0BD00CF07EFB002809D06C
:10AF50000421625EA388002A06DB1F4805B0F0BD0D
:10AF60008842F5D0646ADDE75B045B0CA380F4E7FC
:10AF7000F0682A880100031E07D1F56001236846A6
:10AF800016490AF02DFE0020E8E71C88944206D2FC
:10AF90005C6A1900002C0DD02300F6E723001C8802
:10AFA000944207D15F886C88A74203D25C6A19007B
:10AFB000002CF3D1814209D10B889A4204D305D1E8
:10AFC0004C886B889C4201D96862D6E74B6A6B62F9
:10AFD0004D62D3E70248C1E716FCFFFFFD03000006
:10AFE00017FCFFFF064B10B51A00040008322C3383
:10AFF000026043600430FEF709F8200010BDC0462F
:10B00000509E020008B4024B9C46043808BC6047BE
:10B01000E5AF010008B4024B9C46043808BC604709
:10B02000356B02000C4A002311002C32083110B598
:10B03000038183724260C3600361436143830160A3
:10B0400004000430FDF7D4FF044B1A68002A00D135
:10B050001C60200010BDC046509E0200A0250020AC
:10B06000F7B50D000126C4680192002C37D0238863
:10B070002A889A4201D0002B24D163886A889A4298
:10B0800001D0002B1ED1FDF769FF0123002806D057
:10B09000C022A3881340C03B5A425341DBB2019AFD
:10B0A00093421AD10422A35EA788002B15DB10223D
:10B0B0002900A0180EF00AFD40231F4204D02000F2
:10B0C0000BF041FD646AD0E7FDF748FF0028F6D099
:10B0D00021000448FEF7C6F8F4E70026F2E7300046
:10B0E000FEBDC046476B020008B4024B9C460438C4
:10B0F00008BC6047D16C0200F0B587B001930EAB7D
:10B100001B88060003930D9B0D000093019B0C9F71
:10B110000292002B3CD0002F02D1009BDB0737D5D9
:10B1200028200EF09BFC040010300AF04FFD029B1B
:10B130001820258063800EF091FC0500009B0822FA
:10B140000593019B002103600C3004970EF0DAFC9C
:10B15000082204A9281D0EF0B9FC0E4B02226B61D7
:10B1600000230399E3602362636233680A4330007B
:10B1700021005B68A560A2809847002806D02000C7
:10B180000AF049FC20000EF065FC034807B0F0BD52
:10B190000248FBE70B6D020016FCFFFF17FCFFFFE8
:10B1A000F0B5160000258380164A174B0400857100
:10B1B000026001814681057318688C4689B0A842F7
:10B1C0001DD0124A05950492C02202926A4604AB31
:10B1D00082CB82C223002A006146FFF78DFFC02286
:10B1E000094B0A49186802926A46069106AB079510
:10B1F00082CB82C223002A003100FFF77DFF2000AE
:10B2000009B0F0BD949E0200A0250020356E02001A
:10B2100030B5002403730123034D056084718180E0
:10B2200082734373846030BDAC9E020070B504002D
:10B2300000250C4B0E0008338580857103602100CA
:10B2400018300BF0AFFE2000210020300BF0CDFEB7
:10B25000054B2000A680E5802572E56025616561CB
:10B260001C6070BDBC9E0200AC2500208379DB070A
:10B2700002D5C160002070470048FCE716FCFFFFC4
:10B280008379DB0701D5C06870470148FCE7C046F9
:10B2900016FCFFFF70B545690400002D22D0037A2B
:10B2A000032B21D8FFF7ECFFA8622C200EF0D6FB71
:10B2B0002C22002105000EF025FC002263695A6251
:10B2C0002369934207D1636923610020237A656172
:10B2D0000133237270BD1A005B6A002BFBD16369D6
:10B2E0005362F2E70148F5E70148F3E717FCFFFF77
:10B2F00013FCFFFF144B70B55A68144C002A03D09E
:10B3000000225A600132A2601A69002A17D0002177
:10B3100019618023DB000E4DE3582868012B0FD103
:10B32000A923DB00E1584942FFF7A0FF2868FFF797
:10B33000B1FF2B685A69074BE2500123A36070BD2F
:10B34000FFF794FFF9E7C046FC10004000100040F2
:10B35000AC2500200405000003000069002809D086
:10B360000221054AD167426A1A611A7A013A1A72B1
:10B37000024B19607047C04604E100E000E100E0C4
:10B3800010B5002903DB024B19600EF0CAF810BD9E
:10B39000B025002070B504001D0004AB1E7804F039
:10B3A000ABF920000E4B40302360FEF7F5F8230088
:10B3B000220001354C331D700023E1215832013643
:10B3C00016700A3AA3646365138053809381D38116
:10B3D000013B200063644902FFF7D2FF200070BDEB
:10B3E000889D0200F7B580277F053E697C690822A9
:10B3F000113C74430500210068460EF067FB104BBA
:10B40000009A9A4219D00093002301937969280089
:10B41000133971430BF000FE019A280000990BF0DC
:10B4200017FE210028000BF0F7FD7969220013397F
:10B4300028007143B3080BF0FBFD0198FEBDC04628
:10B44000FECA0000F0B50D00ABB000210D92070060
:10B45000302212A81E000EF055FB28000EF092FBC1
:10B46000431C0C93102B00D9B8E0202E00D9B5E076
:10B47000290038000BF019FE0B90002854D1290048
:10B480000C9A12A80EF022FB32000D9916A80EF0AD
:10B490001DFB80235B051A695D690B92113D6A43B0
:10B4A00038005E690D92FFF79DFF0D9B3022083337
:10B4B000002104001EA80F930EF024FB31000B9B0B
:10B4C0001339594338000BF0A7FD00230F9E0C934E
:10B4D0000E930C9BA34246DA310030221EA80EF0D8
:10B4E000F5FA12A91EA80EF043FB00282BD13D4906
:10B4F00038002200109111940BF0AAFD6A460996BB
:10B5000015AB23CB23C223CB23C223CB23C23800CA
:10B51000149B1299139A0BF0A9FD01230E930C9B17
:10B52000303601330C93D4E70B9832000D9910306C
:10B530000EF0BEFA04000B980EF08CFA002C9ED18F
:10B5400020002BB0F0BD6A46099621AB23CB23C265
:10B5500023CB23C223CB23C238001E991F9A209BE2
:10B560000BF084FDDBE7E6433021F61726404E431F
:10B570000F9B9E190E9B002B1CD10B9B981E04F059
:10B58000D7FEA0422CD01749013438002200109178
:10B5900011940BF05DFD6A46099615AB23CB23C2CF
:10B5A00023CB23C223CB23C238001299139A149BB6
:10B5B0000BF05CFD38000D990BF02EFD80235B0530
:10B5C00059690C230B9A133963434A43380011001D
:10B5D00002330D9A0BF02CFD0024B1E7024CAFE7CB
:10B5E000024CADE7FECA000017FCFFFF13FCFFFF93
:10B5F00070B50400A280FA22002308000C499200D2
:10B6000008312160A3710B496061E260A36063822D
:10B610000BF04BFD051E09D0010020000222103165
:10B6200012300EF053FA28000EF014FA200070BD0C
:10B63000D49E0200B0AC020030B50225837904002C
:10B6400087B02B4204D1FDF7D3FCA3791D43A5712C
:10B6500020000BF070FD00281CD06B46DD1C28007C
:10B660000BF060FD2B78002B17D001A80BF058FDD4
:10B670000321019AD3170B409B189B102382FDF7DF
:10B680000DFFE368A18818180123A0601A0002A822
:10B690000AF0A6FA002007B030BD0122064B1A605E
:10B6A000064A51680029FCD000215160044A126802
:10B6B000019201225A60DBE700C00040FCC000405C
:10B6C00008C50040022802D10122014B1A707047C0
:10B6D0006528002070B5064D04002B78002B04D19E
:10B6E000044801F09FFB01232B70200070BDC04671
:10B6F00066280020C5B6010070B50C000AF0ABF852
:10B70000002810D00023144DA40A2B7020000BF049
:10B7100030FD002803D00A200EF06CF8F6E72B78F5
:10B72000002BFCD070BD02210C4B0D4A995080219A
:10B73000C90008005D58002DFCD0A121C9005C5053
:10B7400019580029FCD0002199508021C9005A586D
:10B75000002AFCD0E6E7C0466528002000E0014052
:10B7600004050000F8B50C0015001E000AF073F87F
:10B77000002811D00023174F3B7032002900200011
:10B780000BF0F5FC002803D00A200EF033F8F4E7A4
:10B790003B78002BFCD0F8BD01220F490F488C46A6
:10B7A00042508022D2008358002BFCD080270023F7
:10B7B000FF009E4207DD9A00A958A150C259002AF5
:10B7C000FCD00133F5E7002362468350C359002BB8
:10B7D000FCD0E0E7652800200405000000E00140FF
:10B7E000084B8000C018A2230322DB0010B50649D5
:10B7F000C45821432243C150C046C046C046C2502F
:10B8000010BDC04600600040031F000010B50400DA
:10B81000034B08330360FDF777FE200010BDC046E0
:10B82000EC9E0200F8B5A02303223049DB055A50F4
:10B8300004315A5080212E4A8905995080210127D0
:10B84000A225C9052B4C99502B4BED00E7506359AD
:10B850002A492B4E0B40635162592A4B0020134357
:10B860006351FFF7BDFFA359244938000B40A35192
:10B87000A259254B1343A351FFF7B2FFC046C04660
:10B88000C046224B224A23495A51A322D2009C513E
:10B890009950214A214922485A500431585021498F
:10B8A00021485C500431585020495A500F222049F9
:10B8B0005A50204B104A9F5000225A5004315A507F
:10B8C00002325A51A8223221D200DF6099501A4A1E
:10B8D00001399950043232319950184AC919995096
:10B8E00080225C3992009950F8BDC0467407000070
:10B8F0000C05000000600040FC0F0000FFE0ECFFC2
:10B9000014050000001D0300001E130000F001409C
:10B9100040A1004044A10040046000401C0500001C
:10B9200048A10040240500004CA100402C05000067
:10B930000405000000A00040440500004C05000084
:10B940000023154A10B508320260EE21A022838040
:10B95000837104000320D205C900505080200F4994
:10B960004005505032220E4920000A700D490A70DD
:10B970000D490A70FA210D4A090113700C4A118011
:10B9800001210C4A11700C4A1370FFF74BFF200085
:10B99000FDF79CFD200010BDEC9E02000C05000090
:10B9A00068280020692800206A2800206B280020D1
:10B9B00048280020672800206C28002010B50400CB
:10B9C000034B08330360FDF79FFD200010BDC04608
:10B9D000049F0200F7B501210C008368314A9C40A6
:10B9E000A023DB059C503224013CC046C046C04623
:10B9F000C046C046C046C046C046C046C046C04617
:10BA0000C046F1D1050011350195A1250400ED00D6
:10BA1000AC460D3407250E008768BE4027782F41BD
:10BA20000F4231D06746DE51C046C046C046C046D0
:10BA3000C046C046C046C046C0469E50013DEAD200
:10BA4000019D0134A542E5D1012381688B40A021ED
:10BA5000C9058B503223013BC046C046C046C04694
:10BA6000C046C046C046C046C046C046C046C046A6
:10BA7000F1D1827B437B017C9B18C27B52189B18BF
:10BA80005A1E93414374F7BD6746DE51C0469E502F
:10BA9000C046C046C046C046C046C046C046C04676
:10BAA000CCE7C0460C050000F8B5040025002600D0
:10BAB00006A80078277B6273A173E37320740D35A9
:10BAC00011362878784307F05DFA0022064B06F01D
:10BAD0003DF904F0FDFD28700135AE42F1D12000A2
:10BAE000FFF778FFF8BDC04600E06F40F7B50023D0
:10BAF00017000126224A8380083202600A008371FF
:10BB0000040081600773A02003258E40C132FF32FC
:10BB1000C005920015501B4A250086506373E381CF
:10BB20002382230011330D35009301922878784346
:10BB300007F028FA144B002206F008F904F0C8FDBB
:10BB4000009B287001359D42F0D1A023019ADB05AE
:10BB50009E503223013BC046C046C046C046C04648
:10BB6000C046C046C046C046C046C046C046F1D1E9
:10BB700020000BF014FB2000FDF7A8FC2000FEBD08
:10BB8000049F02000C05000000E06F4010B50400A7
:10BB9000054B083303601C3009F089FF2000183082
:10BBA00009F085FF200010BD1C9F0200FF23F0B5A7
:10BBB0002C4E8DB03370002301AD040029000088A5
:10BBC000019302F0EDFE002801D1AB783370264DD1
:10BBD0002B68DB68002B07D1002320881A0019008E
:10BBE0000BF0EEFA0DB0F0BD3378032BF4D81F49FB
:10BBF0006846FDF797FC2B686946DD6804A809F0E4
:10BC0000ABFF280004A90BF07FFA0027050004A869
:10BC100009F04DFFBD421ED029002022103104A89A
:10BC20000DF054FF28000DF015FF317804ABC9006A
:10BC30005918082202A80DF049FF01230822208884
:10BC400002A90BF0BDFA0137002804D10C2120888D
:10BC5000074A0BF0B3FA684609F029FF002FBBD062
:10BC6000C0E7C04680200020C0250020B8AC0200FC
:10BC7000FFFF0000F0B58379040091B05B071BD58E
:10BC8000FDF70CFC00232269801A9941994203D1E7
:10BC9000F533FF3398420FD3A068002808D0354B06
:10BCA0001D880CF03EFB0368152229001B6A98478B
:10BCB0000422A3799343A371A3799B0758D52E4EF1
:10BCC0003368DB68002B4FD02C4F3B78032B4BD8CD
:10BCD000284B2B491B8804A80193FDF723FC3368EC
:10BCE00004A9DD6808A809F037FF08A928000BF0AF
:10BCF0000BFA050008A809F0DAFE082302AAD3808F
:10BD00000198073B063206A90BF05CFA002D08D01B
:10BD100029002022103108A80DF0D8FE28000DF0CF
:10BD200099FE3D7802ABDA88ED0008AB5D1928007A
:10BD300006A90DF0BDFE002813D00822280006A990
:10BD40000DF0C4FE336804A9DD6805A809F004FFFE
:10BD50002023280008AA05A90BF0DCF905A809F0A2
:10BD6000A6FE04A809F0A3FE0222A3799343A371BF
:10BD700011B0F0BD4A280020C025002080200020FE
:10BD8000B8AC020070B5036804000D1E09D15B69F0
:10BD90009847FA2080006843074904F0C9FAE08018
:10BDA00070BD9B689847A842F3D9236820009B6820
:10BDB00098470500EDE7C04671020000F0B50400A9
:10BDC000150085B001930AAB1F880BAB1B78461C8E
:10BDD00002930EAB1B78102203930B7803704B8AEF
:10BDE0000131438230000DF071FE656100250122B2
:10BDF000019B27836383039BE5832377029B2000BA
:10BE0000F377A31CDA770C9B0C26636223000D9A50
:10BE1000283329001A705D7032009D702C300DF0AF
:10BE200071FE2000064B3200A3632900E563403019
:10BE30000DF068FE2000034B2565E36405B0F0BDFE
:10BE4000DB710200CD710200F0B507001500A1B052
:10BE500002C706006B4918A81C000BF07FFA2B1EC6
:10BE600003D028000DF08EFE83B20122049200223E
:10BE7000039202920232019200932A0018A938001C
:10BE8000FFF79CFF33006049583318A807930BF065
:10BE900065FA231E03D020000DF074FE83B2012248
:10BEA0000492002203920292023201920093220035
:10BEB00018A90798FFF782FF33005449AC3318A83C
:10BEC00008930BF04BFA269B002B03D018000DF0C3
:10BED00059FE83B20122049200220392029202329E
:10BEE00001920093269A18A90898FFF767FF731C20
:10BEF000FF33474918A809930BF030FA279B002B12
:10BF000003D018000DF03EFE83B2012204920022FD
:10BF1000701C03920292023201920093279A18A990
:10BF2000FF30FFF74BFF33005533FF33394918A873
:10BF300009930BF013FA289B002B03D018000DF087
:10BF400021FE83B201220492002203920292023265
:10BF500001920093289A18A90998FFF72FFF330040
:10BF6000A933FF332C4918A80A930BF0F7F9299B42
:10BF7000002B03D018000DF005FE83B201220492BD
:10BF8000002218AC03920292023201920093210027
:10BF9000299A0A98FFF712FF204B1B780B93002B6E
:10BFA0002DD1079B1E491393089B0DA81493731C56
:10BFB000FF331593099B129716930A9B12AD1793A3
:10BFC0000BF0CCF91D21492006AB1B7F10222370FA
:10BFD00006ABDB8D638206ABC918C0180DF076FD89
:10BFE000062323750B9B3068A383A5610CF09DF994
:10BFF000036821001B6898470122084B1A70300023
:10C0000021B0F0BD292A0000242A0000252A0000C2
:10C01000272A0000262A0000282A00006D28002078
:10C020000A18000070B5002504000A4B858008330B
:10C0300085710360C1601830FDF7AEFA20001C3036
:10C04000FDF7AAFA044B20001C600123A56065617E
:10C05000A37170BD1C9F0200C0250020FA2130B5DD
:10C0600085B00400012302226846890009F0B8FD6A
:10C07000074D2868002809D00BF0A9F92188054B45
:10C080002A681980022391790B43937105B030BD62
:10C09000C02500204A28002010B50C0007290FD821
:10C0A00080680CF03EF9074B195703685B6C9847A2
:10C0B00043425841044B40421840044BC01810BD45
:10C0C0000348FCE7C7AD0200EA03000016FCFFFFCF
:10C0D00017FCFFFFF0B5984C0D00A544040096AB8B
:10C0E0001B78964908A807930692FDF71BFA2000D3
:10C0F00029001C3009F038FD914909A8FDF712FA12
:10C1000090490AA8FDF70EFA0CAE09AA08A90BA8D7
:10C1100009F039FD2A00300011AD0BA909F033FDFB
:10C120000AAA3100280009F02EFD290008A809F00C
:10C130001BFD280009F0BBFC300009F0B8FC0BA87F
:10C1400009F0B5FC08200DF089FC0700002100F083
:10C150004FFD08220021A7600DA80DF0D3FC00239D
:10C160000C932B0007CE07C3774B2900EB6000230D
:10C1700038002B610CF0BEF8A0680CF0D2F8082251
:10C180000021059012A80DF0BDFC14200DF066FCF6
:10C190006E4B2A0011930300C2CAC2C36C4B059EAA
:10C1A000C3600023A43603613368002B00D0BDE0D8
:10C1B0003060A0680CF0B9F808220021060012A82F
:10C1C0000DF0A0FC14200DF049FC624B119303000C
:10C1D00086CD86C3604BC36000230361336B002BA5
:10C1E00000D0A5E03063A0680CF09BF80822002185
:10C1F000059012A80DF086FC14200DF02FFC574B73
:10C2000011AE119332000300A2CAA2C3544B059D84
:10C21000C3600023983503612B68002B00D089E0B0
:10C220002860012004AB1B7F04AA03430BA91377EA
:10C230000AF0CAFFA0680CF07CF8036849495B6A01
:10C240009847A0680CF075F8036847499B699847C0
:10C25000A0680CF06EF8454A036800921D68002340
:10C260001A001900A847079B002B0AD020000BF0EA
:10C27000B7F8032805DDA0680CF05BF80368DB68FD
:10C28000984706212000FFF707FF394B394A1B6802
:10C29000A1680393384B30001B6800250293374B8D
:10C2A0001B680193069B1B6804330093344B126890
:10C2B0001B68FFF7C9FDA0680CF033F803680CA9F0
:10C2C0009B6A9847082304AA1384A068DB18538448
:10C2D00095840CF026F803680CA9DB6A98470621C0
:10C2E000A0680BF047F8089A09219378A0680432F7
:10C2F0000BF053F8A0680CF014F80571A0680CF06E
:10C3000010F83221FFF73EFDA0680CF00AF80BF0A0
:10C310001BF80AA809F0CBFB09A809F0C8FB08A87C
:10C3200009F0C5FB91239B009D44F0BD03613FE7ED
:10C33000036157E7036173E7BCFDFFFFC4AC020074
:10C34000E8AC0200D2AC0200E97102005DC001005D
:10C35000F7710200ADBB01000572020033720200EA
:10C360001372020085C30100B9C30100D4AC0200FE
:10C37000BC250020B825002008200020B42500207E
:10C380000C20002013B506226846FDF7DBF8094BA8
:10C390001C68002C0AD0694601A809F0DDFB2000CA
:10C3A00001A90BF03EF801A809F081FB684609F0ED
:10C3B0007EFB13BDC0250020002373B501AE0C0029
:10C3C00031000500019302F0EBFA002802D1B278A7
:10C3D000064B1A70064B1868002806D0614261416E
:10C3E000044BC9B21D800BF024F873BD80200020DF
:10C3F000C02500204A280020F0B504008BB00F00B3
:10C4000005A87D490392FDF78DF87C4906A8FDF744
:10C4100089F8220005A91C3209A809F0B4FB06AA74
:10C4200009A907A809F0AFFB09A809F040FBA0681B
:10C430000BF077FF036800255B699847A0680BF055
:10C4400070FF030006000A331F2200211800029328
:10C450000DF058FB029B3000DD770AF06CFF0621DF
:10C46000A0680AF087FF079A09219378A068043230
:10C470000AF093FFA0680BF054FF0571A0680BF061
:10C4800050FFC821FFF77EFCA0680BF04AFF058132
:10C49000A0680BF046FF0AF057FF3800FEF7C4F91A
:10C4A000390020000AF0D8FF2000FCF7A1FD02951A
:10C4B000FF356269012316001E401A422DD05049F3
:10C4C00008A8FDF709F908A909A809F0B9FB002295
:10C4D00009A91300019200923800FEF7A1FA09A8F9
:10C4E00009F0A1FB029B002B41D1043D282D40DC2B
:10C4F00038000AF010FA002D00DC0296039809F0CB
:10C50000F3FE002806D0012362699A431300042237
:10C510001343636108A809F086FB04226369134290
:10C5200030D0FF213800FEF7FFFA0026A36902226F
:10C530009B5EB34222DD200031B2183009F039FB96
:10C540000023010038001A007430FDF715F9C820E7
:10C550008000FCF7EBFD38000AF0DDF9C820FCF79D
:10C56000E5FD02226369134208D10136DEE7043596
:10C57000BCE7FE2DC2DD00230293BFE7FA20800056
:10C58000FCF7D4FD0222636913421DD01E0006325F
:10C59000164013421CD01B4908A8FDF79DF808A9B6
:10C5A00009A809F04DFB002209A91300019200928D
:10C5B0003800FEF735FA09A809F035FB1248FCF7F8
:10C5C000B5FD08A809F02FFB6420FCF7AFFD70E76C
:10C5D0000E4908A8FDF780F808A909A809F030FB62
:10C5E0003300320038000196009609A9FEF718FAC8
:10C5F00009A809F018FBE4E7DBAC0200D2AC0200AA
:10C60000EBAC020030AD0200983A00006DAD0200C4
:10C610001FB5084B1B68DB8B834209D1064B68466C
:10C620001A78064B06491A700123032209F0D8FA3A
:10C6300005B000BDC42500206E2800206F28002012
:10C64000FF030000F0B51D00ADB00400016101352D
:10C65000143016000691FCF79FFFEBB21800079309
:10C6600008F078FC00250136F6B26060300008F072
:10C6700071FC4A4B2A001D70494B4A491D70079BAB
:10C680002060A672E37225810FA80AF083FF0127BC
:10C690000C2322680497019300963B000FA9039591
:10C6A000029517A8FFF78AFB2A003F490FA80AF056
:10C6B00071FF54200DF0D2F9202306000193079B4F
:10C6C0006268049700930FA93B0003950295FFF75A
:10C6D00075FB364B08961E600AAE17AB2A0034492C
:10C6E000300009930AF056FF34213520337802AA2E
:10C6F00052181370738A123102AA52181380253906
:10C7000002ABC9181022C0180DF0E0F9482102232D
:10C7100002AA52181370502202AB9B1808AF15974B
:10C7200006981D800BF001FE03680FA91B6898474F
:10C73000722202AB9B181B880698E3600BF0F5FD94
:10C74000079014200DF08AF907001A4B05610822A2
:10C75000310010C00A930B950DF0B8F9164BFB6031
:10C76000079B9B69AB4217D1079B06989F610BF013
:10C77000DCFD0500082200210BA80DF0C3F90F4BCA
:10C780000A932B006C3307CE07C30D4B2000AB6719
:10C790000023EB672DB0F0BD3B61E5E76E2800207C
:10C7A0006F280020CFAD0200DFAD0200C4250020BD
:10C7B000EFAD0200F1740200C774020011C601005F
:10C7C000B9740200054A03001178054A1278501A1C
:10C7D000914201D9DB7AC0187047C0466F2800200B
:10C7E0006E280020F0B58DB002AF040039607A6188
:10C7F0003B61002A00DCA2E03B69012B00D19EE0F6
:10C8000027230025FB1800691D700BF08EFD2722E1
:10C8100003684D499B69BA180968984720690AF06E
:10C82000DCFE022302001A40184236D12533FB18E1
:10C830001B78AB4200D185E0FA6120690AF0CDFE99
:10C840000223184275D02533FB181B78FB60002BA0
:10C850006FD03E4B6E461D783D4B1B78BB60FB692D
:10C86000BB6100237B60BB697A69934217DAE17A86
:10C87000681C03F0CDFEBB688B420AD0BA693B68E6
:10C880009B5C62685355FB69CDB20133FB61FB6869
:10C890007B60BB690133BB61E5E7FD61CDE77B6888
:10C8A000002B01D0294B1D702000FFF78BFF6A463B
:10C8B000C31DDB08DB00D31A9D4602AB020000213A
:10C8C00005001800BB610DF01DF9204BE27A1B78C2
:10C8D00020000193BB680093BB6961680AF082FE87
:10C8E0003B69022B03D103211A48FCF74BFC20695A
:10C8F0000BF01BFDABB20025134A1268D18B026806
:10C900000095D2681500BA69A8473B69022B14D17B
:10C91000FCF7A2FB20690BF008FD272203680A49F7
:10C920009B69BA1809689847FB697A69B5469342CA
:10C9300083DBBD46F8690BB0F0BDB546F9E7064BA1
:10C94000FB61F6E7054BFBE7C42500206E280020BD
:10C950006F280020FF03000017FCFFFF16FCFFFFFD
:10C96000002815D0006041608260C36004614561A9
:10C970008661C761444604624C4644625446846200
:10C980005C46C462644604636E46466374468463D0
:10C99000002A06D0C46B043C043A25681560B442F2
:10C9A000F9D18C6BA6464E6BB546002B06D0CC6BEE
:10C9B000043C043B1D682560B442F9D10C6BA446CD
:10C9C000CC6AA3468C6AA2464C6AA1460C6AA04671
:10C9D000CF698E694D690C69CB688A6808684968B7
:10C9E0007047006041608260C36004614561866198
:10C9F000C761444604624C464462544684625C46C5
:10CA0000C462644604636E46466374468463C46BC2
:10CA1000043C043925680D60B442F9D1C7698669C0
:10CA2000456904697047006041608260C3600461C9
:10CA300045618661C761444604624C46446254467F
:10CA400084625C46C462644604636C464463744614
:10CA5000846304697047846BA646446BA546046BE7
:10CA6000A446C46AA346846AA246446AA146046AEC
:10CA7000A046C769866945690469C3688268006819
:10CA80004168704710B5041E0CD00DF07BF8431EB2
:10CA9000E318A34208D922781978013B21705A7013
:10CAA0000134F6E7014810BD0020FCE717FCFFFF4A
:10CAB000F0B585B00D1E009029D000260A27C217B8
:10CAC000141A4B1E5440039320000296390001367D
:10CAD000019603F09DFDCB17C9185940039B3031D7
:10CAE00020009955390003F0ADFC041EECD1009BE9
:10CAF000002B04DA2D23029E019A0236AB54002348
:10CB00002800AB55FFF7BEFF200005B0F0BD014C7B
:10CB1000FAE7C04617FCFFFF10B5040010004843B9
:10CB20006160A26000280BDD074B984205DC8000A5
:10CB30000CF0A6FF2060200010BD01204042F7E766
:10CB400000232360F7E7C046FEFFFF1F4A688B689B
:10CB500070B58360534304000D004260002B12DD6A
:10CB60000A4A9E003000934201DD012040420CF051
:10CB700087FF00232A682060D158C1500433B34294
:10CB8000FAD1200070BD00230360FAE7FEFFFF1F0B
:10CB900070B5002817D1124D2E68002E11D1083023
:10CBA0000CF05CFF066046600E4E04003368002BFC
:10CBB00002D10CF006FA306023682C609B00F35819
:10CBC0006360286870BD084A0123116807480C009B
:10CBD0001C401942F6D1036044601360F2E7C0467E
:10CBE000CC250020D8250020C8250020D0250020F5
:10CBF000002370B504000160436099420AD1064DDC
:10CC00002B68002B02D10CF0DCF9286023689B0014
:10CC1000EB586360200070BDD8250020436810B534
:10CC20000400002B02D104480CF017FD6068036873
:10CC30001B69984710BDC046FFAD0200436810B5A0
:10CC40000400002B02D104480CF007FD6068036863
:10CC50009B69984710BDC046FFAD0200436810B500
:10CC60000400002B02D104480CF0F7FC6068036854
:10CC70005B6A984710BDC046FFAD020010B50400C6
:10CC800002F0E8FA034B1B68002B01D02000984704
:10CC900010BDC046E0250020F0B58BB0050001F0C6
:10CCA000B9FC002000F018FF036806001B699847D4
:10CCB000336804009B6930009847336801905B6AD1
:10CCC000300098470200288810380B286CD803F0F1
:10CCD0001BFB06486B6B6B656B6B6B716B83AF8873
:10CCE000200039000BF01DFF220016235832167861
:10CCF0009C46143B3343A879697B1370012304AE2F
:10CD0000B3700023378032001F00AC44F0709818D5
:10CD100001330771062BFAD1002791723A00F319FB
:10CD20000137DA72062FFAD163463A007361E91DC2
:10CD300005A80CF0CBFE29000B2004AB3A000E3105
:10CD4000C0180CF0C3FE94346368A360A068002888
:10CD50002AD0C36831009847A368002BF4D01B6920
:10CD6000F3E720002E49AE880BF0DBFE2200022004
:10CD700058321378A9798343137004AB1E809970DD
:10CD8000A0346368A360A06800280DD0C36804A91C
:10CD90009847A368002BF4D01B69F3E75369002B75
:10CDA00002D0A888A91D9847290001980BF010FC13
:10CDB0000BB0F0BD636E002BF6D0AE79A366A06E0B
:10CDC0000028F1D0C36831009847A36E002B01D131
:10CDD000636EF3E71B69F1E7012669460D27AB7B1C
:10CDE000EF575A071E40920FDB080A720B73062298
:10CDF000E91D04A80CF06AFE6A46127A04AB1A72A6
:10CE00006A46127B9F715A72DE712B0020000F332D
:10CE10008C3407938030236804A99847C4E7C04640
:10CE2000FFFF0000014B18607047C046E02500205E
:10CE30001FB58022A323D205DB00D3580820DB07CF
:10CE400000D4053048221D4B1D4901F01DFE00286D
:10CE50000AD080B2002807D1BFF34F8F194B1A4A6E
:10CE6000DA60BFF34F8FFEE7002302A8029301337D
:10CE70000370164B1B6843600BF063FA002802D066
:10CE8000072005B000BD6B46581C0BF058FA00286F
:10CE9000F6D16B46591C0BF050FA0028F0D10C4823
:10CEA00001F022FE80B20028EBD10A4801F026FEF4
:10CEB00080B20028E5D100F01FF8E2E747830200C6
:10CEC000E425002000ED00E00400FA05DC25002048
:10CED00099CC01007DCC010080B2002807D1BFF3BE
:10CEE0004F8F034B034ADA60BFF34F8FFEE7704763
:10CEF00000ED00E00400FA051FB5282302AC2380F2
:10CF00006933FF336380E3806B460022D81D112311
:10CF1000A2800D49037005320BF021FA80B200287F
:10CF20000FD1802080000BF016FA80B2002808D1C3
:10CF300020000BF012FA80B2002802D10BF009FA9F
:10CF400080B204B010BDC04622AE020013B5046822
:10CF50000093A46813000A000149A04716BDC0460B
:10CF6000FFFF000037B506AC2578046801950093F3
:10CF7000246913000A000149A0473EBDFFFF0000DD
:10CF8000F0B587B016000DAA0D00147800216A468E
:10CF9000518069460CAA128801930A80002C1AD18C
:10CFA00001004279F831A2420BD9E700CF5BB742CA
:10CFB0001BD130212034A40022580132D27F0A42F2
:10CFC00015D16A46310028000BF0CDF90623002860
:10CFD00008D0032306E06A46310028000BF0C3F9AD
:10CFE000031EF6D1180007B0F0BD0134DBE71021B5
:10CFF0000A4051424A41002005930CAB0493194B5F
:10D0000002AC01322680A270A0809D4207D100F0C0
:10D0100063FD03681B6998470BF086FD050021003E
:10D0200028000BF0A4F9002382B29A42DAD0100053
:10D030000D4A05339042D5D00FD801330828D1D0FE
:10D04000013B1128CED06A46310028000BF08BF945
:10D0500005230028C6D0023BC4E7044A06239042B9
:10D06000C0D0F0E7FFFF00000330000001340000F3
:10D07000F0B5040099B008002E250C9100F07EFE5A
:10D0800006ABED1812902A00012012A90BF069F9E5
:10D09000002802D0032019B0F0BD2B880C9A0B9009
:10D0A00093830C9B0B9A1B7D934200D8C6E0637957
:10D0B0001D2B01D90720EEE70C9B9B690D930B9B61
:10D0C0000D9A9B009D586B69002B07D16B8B002B31
:10D0D00004D16B1CDB7F022B00D1AAE0280000F0FA
:10D0E0004DFE2B000026283312900E960D960F93BE
:10D0F0000F9B1B78B34221D96A6AB3009F58342230
:10D1000006AB9B1800221A701300002113AA9A186C
:10D1100001335170102BF8D1462206AB9B184A4AB6
:10D1200038001A8013A90BF0A1F9002803D07B69FD
:10D130000D937B8B0E930136F6B2D9E76179AB1C68
:10D140001F31C90061186A1CDB7FD27F089129005A
:10D150002A310978002007912900293109780691A0
:10D160000E9905910D990491297F0391298B0291C4
:10D17000698B01916969009112A90BF0C7FF002822
:10D1800000D087E7637907001A00203292001F332E
:10D190001551DB001B5BEB836379013363712B005B
:10D1A00028331B78BB4244D98E239B00E35C132BAE
:10D1B00000D97FE76A6ABB009E580023180013A9B4
:10D1C0000B705A1801335070102BFAD11E4B3000DF
:10D1D0004B820BF04BF90D90002827D1300000F066
:10D1E000CDFD8E218900625C738B1E32FF325200AE
:10D1F000A2180292327F12900192328B0D98009207
:10D20000726912A90CF027F8002800D042E78E219D
:10D210008900625C531CDBB263541D337A32FF33E6
:10D2200092005B001651E3185B88F3830137FFB26D
:10D23000B5E70B980130C3B20B9332E72379002096
:10D240000133237127E7C0460129000070B50C2285
:10D250000D00002104000CF055FC00232361024B5B
:10D2600020002560E36070BDB974020070B5050050
:10D270000BF018F9041E1DD12800782221008030FF
:10D280000CF040FC2800E93050222100FF300CF067
:10D2900039FC280008222100F8300CF033FC064B42
:10D2A0002822E81821000CF02DFC8E239B00EC5462
:10D2B000200070BD0624FBE73A020000024B0B6021
:10D2C000092313607047C04628AE020010B5040061
:10D2D000002000F001FC03681B6998470300F3334A
:10D2E0001C7086235B00C05003000021044AFC33FD
:10D2F0005A61044A99615A62F4300CF041F910BD48
:10D30000DF890200F1890200012110B5054A0800F9
:10D3100000F0C6FD03005A1E93410B205B421840EB
:10D3200010BDC046CDD20100F0B50500040087B0A5
:10D33000AC356B68AB60A868002807D0C3682100D3
:10D340009847AB68002BF4D01B69F3E72600B03692
:10D350003568002D05D02F6928000CF07BFB3D00BF
:10D36000F7E7220003215832137835608B4313709E
:10D37000260023000A365C331F22290030001D706E
:10D380000CF0C0FBF5772A361F22290030000CF084
:10D39000B9FBF577606E002804D005690CF05AFBE4
:10D3A0002800F8E72500983560662868002804D032
:10D3B00006690CF04FFB3000F8E72600A436286021
:10D3C0003568002D05D02F6928000CF043FB3D0087
:10D3D000F7E729003560082202A80CF093FB01AEA4
:10D3E0002300320001956C3383CA83C3094B0822A2
:10D3F0002900A367E56702A80CF084FB23000195D0
:10D40000803307CE07C32800034A90341A60256092
:10D4100007B0F0BDD1890200C3890200F0B593B016
:10D42000029000200C0000F057FB03685B6A9847ED
:10D4300000F0C4FB030006A8002B0DD000230371ED
:10D4400005AB0693082303730AAB836000F080FCEE
:10D45000002803D013B0F0BD0371037300232373BE
:10D4600023710193029B019ABA331B7893423ED9F0
:10D47000072353431E00029ABB36D318BB331B78D5
:10D480009619022B2CD1002506AF3B7BAB4220D94D
:10D49000AB000393089BAA00300099580BF007FEDD
:10D4A00000281AD0B868AB00C118237BA6689C4638
:10D4B0009A000B6893516346013323733B7B5A1EDA
:10D4C000954204D00B4D5B199B001B580B6006ABBB
:10D4D0001A73019B0133DBB2C3E70135EDB2D3E729
:10D4E000237921689A00013356502371F1E7002017
:10D4F000B0E7C046FFFFFF3F0200087810B50128E3
:10D5000016D04B8803280ED1A03B0A4C9BB2A342F5
:10D5100008D880238C880320DB019C4202D21000B3
:10D520000BF005FB10BD203B0320034C9BB2EEE744
:10D530000220F7E7603F0000E03F0000F0B59DB03B
:10D540001E006B4605005A70981C06225F1C02AC38
:10D550000CF0BCFA002E2FD03388238073886380B0
:10D56000B388A380F388E3800CAB049314AB6A46C2
:10D5700006932E000023B936137513773378002BEA
:10D5800022D101223378022608A9134058000B78D3
:10D59000B3430343229804AE4E6000281CD12800F8
:10D5A000323000789343104003430B70AB8D0B81F6
:10D5B000EB8D4B812B8E1DE032232380DB186380A3
:10D5C000F533A680FF33CEE7280004A9FFF726FF36
:10D5D0000028D6D01DB0F0BD22989343807910402A
:10D5E00003430B70229B1B880B81229B5B884B8122
:10D5F000229B9B88220038008B810BF019F9031EB7
:10D60000E8D0112814D80B20032BE3D9181F0D28BC
:10D610000CD802F079FE150B0B09070B0B0B0B0B4B
:10D620000B0B09130620D5E70420D3E70B20D1E725
:10D63000044A0B209342CDD10738CBE70520C9E738
:10D640000720C7E70232000000487047FFFF0000D4
:10D65000F0B597B00593036807AD1B680491039379
:10D6600011002B00060091C991C30024D36821004A
:10D6700008220DA8EB602C610CF044FA22000B4B41
:10D6800010940F9311AB0C941C70E11801344A7084
:10D69000102CFAD15A820193059B2A000093300086
:10D6A0000499039C0CABA04717B0F0BD7D8C020021
:10D6B000FC3070B5046C0500002C0DD124200CF05A
:10D6C000CDF9064B44608361054B8460C4600461FE
:10D6D0004461C46103602864286C70BDC4A002006A
:10D6E000ACA10200FC3070B5C56B0400002D11D157
:10D6F00034200CF0B3F9084B85604360074B45615B
:10D700000361074B0562C361064BC5628362064B2A
:10D71000E0630360E06B70BDF4A00200E4A00200CF
:10D7200054A1020064A1020074A102007FB5037934
:10D730001548002B23D0154E154C33782000002BB4
:10D740001DD10A256D4428000BF08AFA002810D15B
:10D750006B88592B0DD12B78AA88D91F012910D895
:10D7600000920C4A2021200007F0DEFC01233370D8
:10D7700004E02022200008490CF00BFA200004B03D
:10D7800070BD0092054AEDE731AE020090280020FE
:10D790007028002053AE02004BAE020070AE0200B3
:10D7A00010B50400024B08C00BF024FB200010BD94
:10D7B000E4A0020010B50400024B08C00BF02FFBE0
:10D7C000200010BDF4A00200064B70B504000360F9
:10D7D0004068002804D005690CF03CF92800F8E7FF
:10D7E000200070BDD4A00200064B70B50400036099
:10D7F0004068002804D005690CF02CF92800F8E7EF
:10D80000200070BD04A10200064B70B50400036047
:10D810004068002804D005690CF01CF92800F8E7DE
:10D82000200070BD14A10200064B70B50400036017
:10D830004068002804D005690CF00CF92800F8E7CE
:10D84000200070BD54A10200064B70B504000360B7
:10D850004068002804D005690CF0FCF82800F8E7BF
:10D86000200070BDF89F0200064B70B504000360F5
:10D870004068002804D005690CF0ECF82800F8E7AF
:10D88000200070BD08A00200064B70B504000360C4
:10D890004068002804D005690CF0DCF82800F8E79F
:10D8A000200070BD18A00200064B70B50400036094
:10D8B0004068002804D005690CF0CCF82800F8E78F
:10D8C000200070BD28A00200064B70B50400036064
:10D8D0004068002804D005690CF0BCF82800F8E77F
:10D8E000200070BDC4A00200064B70B504000360A8
:10D8F0004068002804D005690CF0ACF82800F8E76F
:10D90000200070BD64A10200FC3070B5046C0500FD
:10D91000002C0DD124200CF0A1F8064B446083614B
:10D92000054B8460C46004614461C4610360286481
:10D93000286C70BDC4A00200ACA10200134B70B5EE
:10D9400008330360124B0400C3608023114A451C56
:10D95000FF355B00C25028000BF001FE280001F0EB
:10D9600025FF20000C4BB830E360FFF79DFF20003F
:10D97000AC30FFF789FF2000A030FFF775FF2000D3
:10D980006C30FFF761FF200070BDC046D8A10200D7
:10D990006C9F0200A8A2020038A00200444AF0B521
:10D9A0000600C260A022434B010008330360163614
:10D9B000002342820400320085B003718360037447
:10D9C00083823531137001329142FBD18025802250
:10D9D0002000AD00D2011100F37735843830009378
:10D9E000002300F01DFA2300210040331A000393A6
:10D9F0002B0000255F31157001328A42FBD1039A5A
:10DA00000321D577220060321380137920008B43E5
:10DA10001371230068331D70274B0C22E36600212D
:10DA2000256778300CF06EF82300270088331D60DE
:10DA3000224B0837A567FB67843700210C2238008A
:10DA40000CF060F81E4B1F4AFB602300A0333D61C1
:10DA50003D601A601C4A5D60DA601C4A1D619A6173
:10DA6000DD6130000BF0A4FA03980BF0A1FA184B1B
:10DA7000601CE3602300C4331D809D70FF3001F003
:10DA80007FFE8C235B00E55023001933FF335D617B
:10DA90008023104A5B00E250230001222000FE3365
:10DAA00052425A86023B9D63DD631D6405B0F0BDA2
:10DAB00038A00200D8A10200F89F0200D18902001C
:10DAC000C389020008A0020018A0020028A00200DA
:10DAD0006C9F0200BCA2020070B5074D2B68002BA2
