:020000021000EC
:1080000000400020E5FA010021FB010023FB0100F4
:108010000000000000000000000000000000000060
:1080200000000000000000000000000025FB01002F
:10803000000000000000000027FB010029FB0100F8
:108040002BFB010021B20100E10102002BFB01002A
:108050002BFB010000000000FDFB01002BFB0100D9
:108060002BFB0100C9030200690002002BFB010089
:108070002BFB01002BFB01002BFB01002BFB010064
:108080002BFB01002BFB01002BFB01002BFB010054
:108090002BFB010089F7010009F901002BFB01000E
:1080A0002BFB01002BFB0100000000000000000082
:1080B00000000000000000000000000000000000C0
:1080C00010B5064C2378002B07D1054B002B02D0AE
:1080D000044800E000BF0123237010BDB020002041
:1080E00000000000C8B10200044B10B5002B03D003
:1080F0000349044800E000BF10BDC0460000000076
:10810000B4200020C8B10200164B002B00D1144B44
:108110009D46402292029A1A924600218B460F46B3
:108120001348144A121A11F053FE0F4B002B00D0C3
:1081300098470E4B002B00D09847002000210400E8
:108140000D000D48002802D00C4800E000BF0DF0E3
:108150004DF82000290011F031FC0DF031F8C04637
:1081600000000800004000200000000000000000A7
:10817000A82000204429002000000000000000008A
:1081800010B50400034B036040300DF000FE2000EA
:1081900010BDC04650A00200F0B585B01F000AAB6C
:1081A0001B880600150002910393002F1CD0282085
:1081B00001F0B6F96B4604001989039BAAB200933B
:1081C0003B000DF082FD3368210030005B6898476A
:1081D00000280AD0002C05D020000DF08CFD2000D6
:1081E00001F0B8F9024800E0024805B0F0BDC04611
:1081F00016FCFFFF17FCFFFF0022104B00B51A70A2
:10820000FF2389B0009380328D3BFA210C4803F0A4
:108210007DFC0C4907A801F087FAC82207A9520083
:10822000094802F085FB07A80DF0B1FD074801F0F1
:108230007FF807480DF0E1FB09B000BD8028002061
:108240001425002068AC0200E421002088130000FF
:10825000F8200020822110B50D4C4900200003F0C9
:108260004FFB782001F064F8200003F0B5FB3C20C0
:1082700001F05EF8C3212000890003F041FBFA20E1
:10828000400001F055F8200003F0A6FB10BDC046E9
:108290002825002070B5052500240C480EF001FCAF
:1082A000013D24180F2001F043F8002DF5D10521E0
:1082B000200008F037FA0AF0D5FF054A054B0AF00E
:1082C0009DF90BF0F5FB0AF097FF70BDE42100204B
:1082D0000EBE30992A18D93F37B50321684607F0FA
:1082E00025FC64240025684607F064FC104908F06A
:1082F000AFFF09F08FFA7E2802DD854200DA050023
:10830000013C002CEFD128000AF0ACFF094A0A4BCF
:108310000AF074F90022094B0AF0DCFB0AF06CFF4A
:10832000002801DA20003EBD6428FCDD6420FAE765
:1083300000007F43333333333333E93F0000594088
:10834000F7B501211E480DF0E4FF0AF08BFF040091
:108350000D001B4801210DF0EFFF0AF083FF06001E
:108360000F00174801210DF0FAFF0AF07BFF2200F1
:10837000009001912B00200029000AF03FF9320003
:108380003B0004000D00300039000AF037F902000C
:108390000B002000290009F0DFFA009A019B0D0074
:1083A0000400190010000AF029F902000B00200057
:1083B000290009F0D1FA0BF04FFC0AF01DFFFEBDB9
:1083C000BC22002010B508480EF084FF0AF04AFFD6
:1083D000064A074B0AF012F9064A074B0AF07AFBE5
:1083E0000AF00AFF10BDC046702300200C022B8744
:1083F00016D9F03F6891ED7C3F350440F0B501247B
:10840000022689B0D24907A801F08EF9782207A97F
:10841000D04802F0F5FA07A80DF0B9FCCE480EF0EE
:108420007FFFCE4B1C70CE4905A801F07DF9FFF708
:1084300053FF010006A80DF0C6FC06AA05A907A86F
:108440000DF011FD07A9C7480DF0FEFC07A80DF0BF
:108450009EFC06A80DF09BFC05A80DF098FCC249F7
:1084600005A801F061F9FFF7ADFF010006A80DF0C6
:10847000AAFC06AA05A907A80DF0F5FC07A9BB48A8
:108480000DF0E2FC07A80DF082FC06A80DF07FFCC1
:1084900005A80DF07CFCB64905A801F045F9B548E2
:1084A00001F05AFD010006A80DF08DFC06AA05A9F1
:1084B00007A80DF0D8FC07A9AF480DF0C5FC07A828
:1084C0000DF065FC06A80DF062FC05A80DF05FFC40
:1084D000AA4905A801F028F9A94D210028000DF0AE
:1084E00018FF010006A80DF06EFC06AA05A907A852
:1084F0000DF0B9FC07A9A3480DF0A6FC07A80DF0E4
:1085000046FC06A80DF043FC05A80DF040FC9E4972
:1085100005A801F009F9210028000DF00DFF010068
:1085200006A80DF050FC06AA05A907A80DF09BFCB3
:1085300007A996480DF088FC07A80DF028FC06A8AE
:108540000DF025FC05A80DF022FC914905A801F0CD
:10855000EBF8210028000DF002FF010006A80DF045
:1085600032FC06AA05A907A80DF07DFC07A98948D9
:108570000DF06AFC07A80DF00AFC06A80DF007FC38
:1085800005A80DF004FC844905A801F0CDF8FFF71B
:10859000D7FE010006A80DF016FC06AA05A907A83B
:1085A0000DF061FC07A97D480DF04EFC07A80DF009
:1085B000EEFB06A80DF0EBFB05A80DF0E8FB7849F3
:1085C00005A801F0B1F877480DF04FFF010006A8AB
:1085D0000DF0F9FB06AA05A907A80DF044FC07A9B0
:1085E00071480DF031FC07A80DF0D1FB06A80DF085
:1085F000CEFB05A80DF0CBFB6C4905A801F094F863
:108600006B480DF032FF010006A80DF0DCFB06AA56
:1086100005A907A80DF027FC07A966480DF014FC72
:1086200007A80DF0B4FB06A80DF0B1FB05A80DF0EE
:10863000AEFB614D2B68022B1DDD604905A801F0E2
:1086400073F8FFF727FE010006A80DF0BCFB06AA91
:1086500005A907A80DF007FC07A959480DF0F4FB80
:1086600007A80DF094FB06A80DF091FB05A80DF0EE
:108670008EFB00232B602B683C4A01332B60514D4D
:10868000384905A82F680DF0EEFB4D4A05A906A84C
:108690000DF0E9FB384A06A907A80DF0E4FB32000B
:1086A00007A938000FF073F807A80DF070FB06A8B3
:1086B0000DF06DFB05A80DF06AFB0A2000F038FEF6
:1086C0002F68324A2F4906A80DF0CDFB314A06A982
:1086D00007A80DF0C8FB320007A938000FF057F8C3
:1086E00007A80DF054FB06A80DF051FB0A2000F07E
:1086F0001FFE2D4A294904A82D680DF0B4FB2D4A10
:1087000004A905A80DF0AFFB2F4906A801F00CF84D
:1087100006AA05A907A80DF0A6FB320007A92800A4
:108720000FF035F807A80DF032FB06A80DF02FFB6F
:1087300005A80DF02CFB04A80DF029FB0A2000F081
:10874000F7FD064B1B78002B00D06CE609B0F0BD9E
:1087500072B10200E42100201425002080280020AE
:108760006AAC0200F02000206DAC0200F420002072
:1087700070AC020020230020E820002073AC02002F
:10878000BC220020D420002077AC0200D82000209A
:108790007BAC0200DC2000207FAC0200D020002057
:1087A00083AC02005C220020E020002087AC0200A5
:1087B00084220020E4200020042000208BAC020052
:1087C000EC200020302500208EAC0200F7B51E4DB5
:1087D000FA26280000F0F6F90A231C4C0093F53322
:1087E0001A001900200003F091F9194801F0B4FBB8
:1087F000FF2310270093DD3B190020008B2203F09C
:1088000085F9FFF727FD134CB600310000970122D0
:108810002000114BFFF7C0FC310002220F4B0097E4
:108820002000FFF7B9FC1C2000F07AFE83212023F2
:108830000400C9001A00695803F036FF084B1C6099
:1088400000F0F2FD0020FEBDF820002014250020DD
:1088500020230020C8210020FD830100F9810100B0
:1088600030250020F8B53D4D280000F0D9F83C4CEB
:10887000280022003B4911F04CFA3B4E3B4F31009F
:10888000380000F051FF3A4D22002900380011F065
:1088900040FA384F3100380000F046FF220029002E
:1088A000380011F036FA344F3100380000F03CFF48
:1088B00022002900380011F02CFA304F3100380026
:1088C00000F032FF22002900380011F022FA2C4F6C
:1088D0003100380000F028FF22002900380011F094
:1088E00018FA284F3100380000F01EFF220029003E
:1088F000380011F00EFA244F3100380000F014FF58
:1089000022002900380011F004FA204F310038000D
:1089100000F00AFF22002900380011F0FAF91C4F7C
:108920003100380000F000FF22002900380011F06B
:10893000F0F9184F3100380000F0F6FE220029004F
:10894000380011F0E6F9144F3100380000F0ECFE69
:1089500029003800220011F0DCF9F8BDF8200020D1
:10896000002000209D89010090AC0200EC20002036
:108970008F5D0200CC200020F0200020F420002099
:10898000E8200020D4200020D8200020DC20002077
:10899000D0200020E0200020E4200020862310B515
:1089A0000400DB00C01802F0D3FE1B4BE01803F0FC
:1089B00037F8F423194A9B00E2501C33E0180DF0FD
:1089C000E6F9FA239B00E0180DF0E1F98A239B00F9
:1089D000E01801F029F92000C530FF3000F030FF29
:1089E00020008D30FF3001F0E7F820006530FF30C7
:1089F00001F0E2F82000EC3001F0B2FD2000D030B0
:108A000002F086FA2000643006F0B6FF201DFFF762
:108A1000B7FB200010BDC0461C040000E4A102000A
:108A2000F0B51425040097B019222B0000951821E9
:108A3000043002F045FC23002700260064331800B0
:108A4000B43713211393B83606F0A2FF38000EF0A6
:108A5000E7FB2900132230000EF037F82000D03059
:108A600002F076FA2300EC3306211800514A1493E1
:108A700001F09EFD200000236530009301331A00B1
:108A80001121FF3001F0A4F8200000238D30009365
:108A9000022210210133FF3001F09AF82000B53096
:108AA0001A2302220121FF3002F010FB2200C532FE
:108AB000FF321292310004231822129800F0CCFEEB
:108AC0008A229200A218159205231D2231000193DB
:108AD00000923B00129A159801F0AAFA9B2292008C
:108AE000149B1599A018129A01F076FC9E22920010
:108AF0003900A0181C2202F011FD3223A422109389
:108B0000193B0F93013B0E93013B0D93013B0C93DB
:108B1000013B0B93023B0993023B0793013B0693F6
:108B2000013B0593013B0493013B0393013B0293FB
:108B3000013B0A950193023D9200013BA01800936E
:108B40000822013B072108950DF0C7FFF42292008F
:108B50003900A01803F098FAFC229200A0181D21F9
:108B600002F0FAFA83230026DB00E650124B28229B
:108B70002900E01802F0ECFF8623DB00E01802F089
:108B800081FE13980321267010F0ECFD23002200D3
:108B900020000A499C33A0321C6011605660084ACC
:108BA00002215A618030012207F0DAF8200017B064
:108BB000F0BDC04658A002001C040000FB59020092
:108BC0002D5A0200F0B502780123170004008BB083
:108BD0001F401A4200D0A9E0C530FF300DF0F5F972
:108BE0002300D0331800039300F064FA00F092F9E8
:108BF000282000F095FC050010300DF057F94C4B83
:108C000018202B6000F08CFC06004A4B08220893C9
:108C10003900099704600C3011F0DAF808A908222D
:108C2000301D11F0B9F8444B2900736112230398E9
:108C3000AE60EF60AB802F626F6202F001F9002836
:108C400005D028000DF057F8280000F083FC01251E
:108C50000027237864202B43237000F069FB0595DF
:108C600026006536FF3630000DF0FFFB00283CD0B3
:108C700020008D30FF300DF0F8FB002835D00A2F92
:108C800033D06420013700F053FB0A2FE8D1F423DE
:108C90009B00E5184833E3580493002B1ED100F0E5
:108CA00059F8010007A800F03FFD08A80CF022FFCA
:108CB000059B08AA07A928000093039B03F03CFA30
:108CC00008A80DF064F807A80DF061F8F6239B00E2
:108CD000E35804938323049ADB00E250210032001E
:108CE0002800EC3103F0BAFBBAE78325ED006659A2
:108CF000002E1BD100F02EF8010007A800F014FD93
:108D000008A80CF0F7FEF4239B00E01808AA039BC8
:108D100007A9009603F010FA08A80DF038F807A884
:108D20000DF035F8F6239B00E35863510BB0F0BD0E
:108D3000FD030000835A0200435A0200BFF34F8F25
:108D4000024B034ADA60BFF34F8FFEE700ED00E00D
:108D50000400FA05F0B58BB002ABDF1D1922380014
:108D6000144911F019F80023134D05266B71802367
:108D70005B055B6E2C00009301230193310000988A
:108D800007F0CCFC0800019907F042FC0522009B8B
:108D900056431B1A0093019B534301932B1B5343D0
:108DA000FB181B5C013C6371044B9C42E6D10248FA
:108DB0000BB0F0BDC7AC0200812800207C28002049
:108DC000F0B595B01822002104000EA811F000F8AB
:108DD00013210EA810F0D0FD03210EA810F077FE8D
:108DE000464B1B68002B00D10133DBB200930021FE
:108DF0000123434A09A807F023F9FA239B009C4268
:108E00009B411C4072B63F4B64211E683E4B2000C4
:108E10000593052507F086FC6843503030180A2179
:108E20000690200007F07EFC0A2107F061FD6943EF
:108E300050317118200007910A2107F059FD4D4368
:108E400050357619089680260024B601009B002B29
:108E500052D004AD0027032C02D180260024B60195
:108E60006B682A4A02936300D31800220192587853
:108E70000299095C039119788C46102160460141E2
:108E80000398014204D001209040019901430191CF
:108E900001320633092AEAD1019B2A68D9431C4BC7
:108EA00009011940029B934224D1312F22DC002179
:108EB00009A810F0CCFEFA23139A0F99DB00106872
:108EC000014219D0013B002BF9D1FA2301340137BB
:108ED0007600E4B25B009F42BDD1043508ABAB42E3
:108EE000B8D1064B1B68002BB0D0009B013BDBB216
:108EF0000093ABE73143DBE7FFF720FF3825002085
:108F0000F0FF00000820002016AD0200E0AC0200D7
:108F1000F01F0000F8B50023124C23600CF00BFE8C
:108F2000002808D0042120000CF001FE002801D008
:108F30000D4B2360F8BD0122A12704250B4B0C49E2
:108F40001A602268FF0048604E68002EFCD0DE598F
:108F50001202013D3243002DF5D1226001225A60F8
:108F6000E8E7C04634250020ED5EBC0B00D0004091
:108F7000FCD000400B4B70B51C68002C10D0656D08
:108F800000F08EFBA36C002901D1834206D820009B
:108F90000CF004FE200004490CF0EEFD2C00ECE780
:108FA00070BDC0464025002060250020F0B593B07C
:108FB00007932A4B04AC1E68049005910692002E7C
:108FC00049D0274B258867881C6800230293002C12
:108FD0002DD0636D23480393A36C190C9AB20B0038
:108FE000854214D12048824211D1002901D0B942D2
:108FF0000BD1029B002B08D120000CF0CFFD2000EC
:109000001A490CF0B9FD01230293039CDFE7002A03
:1090100001D09542F9D1002901D0BB42F5D1200001
:109020000CF0BCFD200011490CF0A6FDEDE7104B43
:10903000EB18012B0FD910233A002900009308A840
:109040000C4B0CF042FE336830009B6808A998472F
:1090500008A80CF050FE13B0F0BDC0463C2500201F
:109060006C250020FE030000FF03000060250020A7
:1090700002FCFFFFAD8F010010B572B60B4B1C68F0
:10908000002C08D020000CF089FD0023E364084B7D
:109090002000E36310BD62B65C2010F045FE5C2248
:1090A0000021040010F094FEEFE7C0466425002084
:1090B00000400020F7B51E4C0123227816001E4008
:1090C0001A4233D11B4D2860FFF7D6FF1A4B1B49BC
:1090D00018600CF051FDFFF7CFFF194B1860194BCA
:1090E0004363194B8363286800280FD0C023174FB0
:1090F0003200174900933B00FFF74EF8C02300935E
:1091000032003B0013492868FFF746F80C2010F0A6
:109110000BFE0023838083710F4B03600F4B836032
:1091200000F0D6FA0123227813432370F7BDC0461E
:10913000872800203C250020702500206025002085
:1091400068250020FC3F0020355C0200AD8F010047
:10915000FF030000FE03000078A00200758F0100ED
:10916000024B1878012318407047C046872800201A
:10917000F7B506000D0017000193002802D1002466
:109180002000FEBD0029FAD0FFF776FF041EF6D0BE
:10919000074B019A43630660064B45608760002ACF
:1091A00000D0054B20000549A3630CF0E5FCE7E780
:1091B000FC3F00200F5C02001D5C020060250020C7
:1091C00070B5074B0E0011001A780500012310003E
:1091D00018401A4203D032002800FFF7C9FF70BDC3
:1091E00087280020024B1868434258417047C04608
:1091F000602500200300002210B504499400605847
:10920000002801D00132F9E7635010BD4825002045
:10921000002310B5044A99008C58844201D00133D0
:10922000F9E70020885010BD4825002010B5002423
:10923000084BA200D058002802D003685B6898470A
:109240000134062CF4D1044B1B68002B00D120BF45
:1092500010BDC04648250020602500200122F8B539
:109260002C4B1B7813421CD02B4D2C68E36C134203
:1092700018D002273B43E364284B1E680423F26C9A
:1092800030001343F364636BF3630CF09EFC300017
:10929000716C03F0D8FB2868C36C3B4201D003F02B
:1092A0000CFCF8BD1E4F1F4E3A683068002A0AD1E8
:1092B00028601B0712D52C60FFF7B8FF3B68002B16
:1092C000FAD02B600AE0216DB94219D1616D0029F5
:1092D00000D1110029602A688242EAD029688C42B4
:1092E000DFD0336899420DD10F4B4B630F4B8B632B
:1092F00020000CF06AFC296820004B6C626C06E0D0
:109300002A60E8E79C42F3D1002210004B6C03F086
:1093100059FBC6E78728002070250020442500203F
:109320006025002068250020FC3F0020355C0200FD
:1093300070B5114B04001A7801231A4202D110F0C3
:10934000BFFB70BD0D4A1568EA6C1A4206D0FFF7E4
:1093500093FE0B4B1860002800D0050000F0A0F928
:109360002418AC6428000CF019FC280005490CF006
:1093700003FCFFF773FFE4E7872800207025002037
:109380004425002040250020F0B51E4B1E4F1E68CE
:109390003B6885B005000391002B31D01B4B1A7838
:1093A00001231A422CD0F26C1A420ED0FFF764FE51
:1093B000174B041E186008D00CF0F0FB2000154974
:1093C0000CF0DAFB2600FFF749FF039B30001B047B
:1093D0002B43B3640CF0E2FB30000F490CF0CCFBE4
:1093E0000E4B0024EB18012B07D9C0230093290052
:1093F0000B4B039A3868FEF7CFFE200005B0F0BD96
:10940000084CFAE7702500203C2500208728002022
:1094100044250020602500206C25002002FCFFFF71
:10942000AD8F010016FCFFFF10B5074B1B78DB0763
:1094300009D5064C20680CF0B1FB054920680CF0FA
:109440009BFBFFF70BFF10BD872800207025002035
:109450006425002010B5034B1B78DB0701D5FFF70F
:10946000E3FF10BD87280020F7B505000C00002899
:1094700033D001261B4B1B78334230D01A4F0723C1
:109480003868C26C1100194000911A4207D02100BF
:109490002800164AFFF794FE00252800FEBD03F0C1
:1094A000F4FA3A680221D36C1800084001900B428C
:1094B00003D001318B43D364EEE73343D364200000
:1094C000A8473A68019DD36C1900B143D1645B078A
:1094D000E3D52000FFF7BEFFDFE7054DDDE7054DD3
:1094E000DBE7C04687280020702500205594010046
:1094F00017FCFFFF16FCFFFF020010B5014B12CB5B
:1095000012C210BD74250020034B1A68034B1A6069
:109510007E225A607047C046082000207425002033
:1095200070B504000025094B1B78AB4209DD0849E2
:10953000EB002000C9180CF083FB002804D1013592
:10954000F1E720000BF076FE70BDC04688280020B1
:109550007C25002010B5002811D000220B4B197873
:109560000B4B91420FDD1C68844209D25C68844237
:1095700006D98023043802681B061343036010BD1C
:1095800001320833EDE70BF05FFEF8E78828002092
:109590007C25002070B5051E14DD0B4E0B4C336886
:1095A000002B02D0206810F040F9FA212068002436
:1095B000074B89008361C4626943356010F046F946
:1095C000200070BD0348FCE78C250020BC2500204E
:1095D0007D96010017FCFFFFF8B5114F05003E68AE
:1095E000002E0AD1302010F09FFB040006F038FA5C
:1095F0000C4BA6612360E6623C600B4E3368002B87
:1096000009D1102010F090FB040010F06BF920003D
:10961000346010F041F92800FFF7BCFFF8BDC046E8
:10962000BC25002070A50200B8250020014B186859
:109630007047C0468C25002070B50D4C2368002B68
:1096400003D00C4B1B68002B02D10620FFF7C4FF90
:10965000206810F038F902000749C3170D684E68FA
:109660005219734120680A604B6010F032F970BDE6
:10967000B8250020BC250020A820002010B5FFF749
:10968000DBFF0024054BA200D058002802D003685D
:109690001B68984701340A2CF4D110BD9025002096
:1096A00010B5FFF7C9FFFA22034B920018685968FA
:1096B000002307F05DF910BDA820002010B5FFF7CA
:1096C000BBFF024B1868596810BDC046A820002097
:1096D0000B4B10B51B680400002B03D0094B1B6813
:1096E000002B02D10620FFF777FF0023064A9900DE
:1096F0008858002801D00133F9E78C5010BDC046CE
:10970000B8250020BC25002090250020002310B59E
:10971000044A99008C58844201D00133F9E70020B3
:10972000885010BD9025002010B50400002902D0FB
:109730000B78002B03D1034B2360200010BD0CF0ED
:109740002DFBFAE788A00200F8B504000E00150012
:1097500000290AD00B78002B07D0002A05D008007A
:1097600097B210F075FB874203D90B4B23602000A2
:10977000F8BD681D0BF05EFD20600CF0EEFB20686C
:109780002A0047803100043010F006FB23685D1981
:1097900000232B71EBE7C04688A00200014B036059
:1097A0007047C04688A0020010B50548054C2060EF
:1097B0000CF0D6FB2000044A044910F0AAFA10BDB0
:1097C00088A00200C0250020002000208F5D02003C
:1097D000084B73B51D680400002D0AD001002E68E7
:1097E00008220831684610F0D7FA0CCC28003168FE
:1097F000884773BDC425002010B5054C0121200009
:109800000CF0A2FB2000034A034910F082FA10BDBD
:10981000C825002000200020075F0200074A03003F
:1098200010B50120934208D0834202D00020DB070C
:1098300003D41E20FFF7C4FA002010BDFFFF000074
:1098400010B50400034B08330360FFF7E1FC200070
:1098500010BDC04690A00200F7B507000025040027
:1098600001931A4B143708330E0085802900857147
:109870000360C581056100923800182210F0A8FA33
:109880003800152110F078F8019B2200A380009B7E
:109890000E21238114236381123BA571A563A58743
:1098A00023733E32137826638B431370084B0122D7
:1098B000E364084B20002365230054331D70064BDE
:1098C0006364230048339D701A80FEBD90A002009F
:1098D00000000A030003030101000100F7B50400C2
:1098E0000CF0D6FC0E22A35E7A4F5B42BB4251DAEB
:1098F00023003E331B789B074CD50125210028000F
:109900003E310B785A08904302000220AA4083435C
:1099100013430B7020000CF0BBFC1022A35E5B42D3
:10992000BB4248DA23003E331B785B0743D5012551
:10993000210028003E310B789A08904382000420D1
:10994000834313430B70260020000CF0A1FC12226D
:10995000A35E4A36BB423EDA23003E331B781B0728
:1099600039D5210001223E310B78D80882430820E6
:10997000D200834313430B703378032B3BD801335E
:10998000DBB23370012B00D08EE0230000224C3379
:109990001A8030E020000CF07BFC0E22A35EC8226F
:1099A0005B42002552009342B4DD23003E331B7816
:1099B0009B07A2D5AEE720000CF06AFC1022A35E44
:1099C000C8225B4252009342BDDD23003E331B7828
:1099D0005B07ACD5B7E720000CF05AFCC823122176
:1099E000625E5B009A4204DD23003E331B781B0756
:1099F000B7D5002DC0D133780193002B14D02000AF
:109A000027004C3003883E3701339BB203803A78FD
:109A10000125110029402A4254D01D2B04D90023CE
:109A2000AA433A700380337020000CF05EFC2A4A8F
:109A30000723904244DD20000CF02AFC0E23E25E56
:109A4000264E52420323B2423ADBC82520000CF0D6
:109A50001FFC0E23E25EAD0052420423AA422FDC1B
:109A600020000CF015FC1023E25E02235242B242A9
:109A700026DB20000CF00CFC1023E25E0123524296
:109A8000AA421DDC20000CF003FC1223E25E062338
:109A9000B24215DB20000CF0FBFB1223E25E002338
:109AA000AA420DDD05330BE0042BA4D122003E3287
:109AB0001178033B0B43137000234C3423800C3389
:109AC0001800FEBD092BAFD9018001990139317011
:109AD000AAE7C04670FEFFFFFF700200E0FCFFFF38
:109AE000F0B5C369C1681A68451D0400EB7F89B0F1
:109AF000114225D0002B57D10123A2791A4237D029
:109B0000002602226846A188A6710CF0D9F9A31D8F
:109B1000DD7F012D2CD1FFF7C3FD3300226A801AAF
:109B200099410F000600A1889F4203D1FA239B00B0
:109B30009E423BD30123042204A80CF0C1F917E094
:109B40000B2B01D80133EB77EB7F082B0DD90122CA
:109B5000A37913420CD11343A188A37104A8130065
:109B60000CF0AEF9FFF79CFD2062EB7F012BC3D90F
:109B70000322A3791340012B14D1FFF791FD002399
:109B8000226A801A9941994202D10A4B984209D916
:109B90000223A279A1881343A3710522012304A8FB
:109BA0000CF08EF909B0F0BD013BCCE72B0003228D
:109BB000C2E7C046DB05000010B50400034B0833C4
:109BC0000360FFF7A3FD200010BDC046A8A002005F
:109BD000F0B5060000250F00040085B002930AAB23
:109BE0001B78083603930F4B29000833036001925A
:109BF000858085711822300010F0EAF839003000B5
:109C0000039A0FF0BEFE019B029AA380A31DE77189
:109C1000DA77631D25622000DD77FFF759FD20000C
:109C200005B0F0BDA8A0020010B50400034B083336
:109C30000360FFF7EDFA200010BDC046C0A002008F
:109C4000F0B587B004AC08230F0042221021009425
:109C500005000CF040FCA3790020DA0700D48BE06B
:109C600062782678E17812021643A27809020A4344
:109C700012B2D2100292627920791202104300B21D
:109C800042100392E47936B224021C43AB1CD98FF4
:109C9000F610A4108803002C00D0210006F042FD2D
:109CA000364B2A00C01800B20300002143433F3264
:109CB0005156DB11013A4B4311788022C9014843C8
:109CC0001B185B12520399182B0034331B785BB2BC
:109CD000A0334B431B135E432B0032331B787613A8
:109CE0005BB2DB00F6183E80AE1CF18F8803002CBF
:109CF00000D0210006F016FD204B2A00C01800B24B
:109D00000300002143433F325156DB11013A4B43DC
:109D100011788022C90148431B185B12520399181D
:109D20002B0035331B78029A5BB2A0334B431B13D5
:109D30005A4353132A003332127852B2D2009B187E
:109D40007B803C22AB5E039A3A21685ED31A3E21A7
:109D5000725EDB03A21A50438010181AEB8E61006A
:109D6000594380231B02C9183823EC5E09140919D2
:109D700006F0D8FCB880012007B0F0BD00C0FFFF9E
:109D8000D0B504000CF0C0FBE268A369981A09F092
:109D900069FA06000F002369E069C01A09F062FA47
:109DA00032003B0009F054FF0022104B08F026FC63
:109DB0000F4A104B08F03AF909F0CCFA0021041CC4
:109DC00006F0AEFD002804D0201C0B4906F0DAFE98
:109DD000041C201C09F076FA02000B000020074941
:109DE00008F078FE09F008FAD0BDC0460080664051
:109DF000EA2E4454FB2109400000B4430080764021
:109E0000F0B5040085B0806A0CF01AFB061CA06A4D
:109E10000CF00DFB0221071C20000CF012FC0221AB
:109E2000039020000CF01FFC07F014FD80231B069C
:109E3000C2180221200001920CF027FC07F00AFD55
:109E4000041C301C09F0C6FE051C301C09F086FEFF
:109E50000290381C09F0BEFE061C381C09F07EFE7C
:109E6000071C039807F0F6FC80231B06C018391C5A
:109E700007F0EEF9311C071C019807F0E9F9291CDD
:109E800007F0E6F9011C381C06F07CFE311C071CAB
:109E9000201C07F0DDF9029907F0DAF9011C381CE3
:109EA00006F070FE291C061C201C07F0D1F902994F
:109EB000041C019807F0CCF9011C201C07F0E2FA01
:109EC000311C09F02DFF0D4907F0C2F909F0FAF92C
:109ED0000B4A0C4B08F0AAF809F03CFA0021041CCC
:109EE00006F01EFD002804D0201C044906F04AFE9E
:109EF000041C201C07F08EFC05B0F0BD0000B4432C
:109F0000EA2E4454FB2119407FB5042583790400CF
:109F10002B421BD102260CF0F7FAA3790622B34399
:109F20002B43A37168460123A1880BF0C9FFA379D5
:109F30001A003340581E83415842FB239B001840AF
:109F4000034BAA43A271C01804B070BD0148FBE7DF
:109F500014FCFFFF15FCFFFF10B5837904005A07BE
:109F60000DD49B0701D4FFF7CFFFA36A2000002B7D
:109F700002D0FFF745FF10BDFFF702FFFBE70148E6
:109F8000F9E7C04615FCFFFF70B5C66A86B001ACA4
:109F9000050001916260A360002E0CD00B4905A85A
:109FA000FFF7C2FB0C232200300005A90DF073F966
:109FB00005A80BF0ECFE2B000C3307CC07C30223E3
:109FC000AA791343AB7106B070BDC046F6AE02006D
:109FD000642330B5040085B08180028143810CF098
:109FE00060FB0222A37920009343A3710CF0B6FA20
:109FF000E06A002813D00D490DF018F9051E0ED0A7
:10A0000001000C22103101A80FF0C6FE20000199BA
:10A01000029A039BFFF7B8FF28000FF081FE01238F
:10A02000A2791343A37105B030BDC046F6AE02005D
:10A03000F8B504000E0000201700E36201230B4D69
:10A0400006AA083507A9A080A0712560E0602061FC
:10A050006061A061E061206266622000A7621288F0
:10A0600009882386FFF7B4FF2000F8BDC0A00200D6
:10A0700082B0F0B50400A5B064202B932A920FF0B3
:10A080001FFD04220C2109A802F078FD2422CD49ED
:10A090001BA80FF081FE052206A811000EF009FA98
:10A0A000C94907A802F018FEA06800F079FBA5686E
:10A0B000C64918A8FFF738FB7822280018A900F035
:10A0C0009FFC18A80BF063FEAF256420013D0FF044
:10A0D000F7FC002DF9D1A06800F062FBA0680CF03D
:10A0E000DBFC012160680CF014F9012107006068B5
:10A0F0000CF022F906000A20FFF71AF90022B44BEF
:10A1000004929F4210DB013204923A00C8320BDB0A
:10A11000C822042192000491974205DC0322049294
:10A12000C82F01DC013A0492002203929E4210DB08
:10A13000012303933300C8330BDBC82304329B0095
:10A1400003929E4205DC03230393C82E01DC013BEE
:10A15000039306A80EF0A4F91BAF00233E0005935D
:10A16000B378002B05D0FF237278317806A802F06F
:10A1700047FD059B0336013305930C2BF0D16B464D
:10A180000C229A5E6B4606A81021595EFF2302F04E
:10A1900037FD0023A0681A000093743006A90EF062
:10A1A0008FF93B00243305933B78049A934234D1D2
:10A1B0007B78039A934230D1BE78002E2DD13100A6
:10A1C00020680CF03EFA07F045FB3200031C290022
:10A1D00009A80DF01FFB310020680CF044FA07F0CD
:10A1E00039FB0122031C290009A80DF013FB3100E3
:10A1F00020680CF04AFA07F02DFB2900031C02220C
:10A2000009A80DF007FBFE2329009B05032209A8DE
:10A210000DF000FB0123BB70ED18059B03379F4237
:10A22000C2D16420FFF784F80B2D00DC59E709A8A0
:10A230000DF0DCFA012201000CA802F09FFC0025C1
:10A2400009A80DF0D3FAA8423CDD2900002209A894
:10A250000DF0CEFA00222900061C09A80DF0C8FA5C
:10A26000011C301C06F0F4FF2900061C012209A87D
:10A270000DF0BEFA01222900071C09A80DF0B8FA5A
:10A28000011C381C06F0E4FF311C06F07BFC2900A1
:10A290000222061C09A80DF0ABFA02222900071CB5
:10A2A00009A80DF0A5FA011C381C06F0D1FF311CDD
:10A2B00006F068FC2900031C00220CA80DF0AAFA85
:10A2C0000135BDE709AA1100012318A80DF0BCFA59
:10A2D00018A90FA80DF016FB18A80DF0ACFA0CAADF
:10A2E00009A912A801230DF0AFFA002312AA0FA9A1
:10A2F00015A80DF0A9FA002215A811000DF078FAA2
:10A300000022061C012115A80DF072FA0022051C7E
:10A31000022115A80DF06CFAFC21071C8905301CE0
:10A3200006F096FF07F076FAFC21060018908905E2
:10A33000281C06F08DFF07F06DFAFC21050019902E
:10A340008905381C06F084FF07F064FA2A00030030
:10A3500031001A902068FFF717FEA0680CF09CFBF4
:10A3600007A908A8A5680EF093F80022194B0092DF
:10A3700008A901932800130000F0B0FA08A80EF015
:10A380007AF8FA2080000FF09BFBA0680CF084FBA9
:10A3900015A80DF050FA12A80DF04DFA0FA80DF007
:10A3A0004AFA0CA80DF047FA07A80EF064F806A8C0
:10A3B0000EF061F809A80DF03EFA25B0F0BC08BC1B
:10A3C00002B018475AAF020001AF020046AF0200C8
:10A3D000E0FCFFFFDC050000F7B583601D4B0500C6
:10A3E0001F6801604260002F31D028200FF09CFCD4
:10A3F000040010300BF05AFD174B182023600FF0AB
:10A4000093FC00220600154B0021019205600832E2
:10A410000C3000930FF0DCFC08226946301D0FF071
:10A42000BBFC0F4B00227361C223A3803B68E26038
:10A43000210038005B68A6602262626298470028AB
:10A4400005D020000BF057FC20000FF069FC28001D
:10A45000FEBDC046C42500200500060071A0010015
:10A4600047670200F0B5040085B0637A9C46002B74
:10A4700004D120000CF092F905B0F0BDA37A266F4C
:10A4800001931023019AF35600259B1801229A404C
:10A490002900F36803920293029BAB4231DDB0685E
:10A4A000019B6843C01873694000E77A1A181B5C67
:10A4B0005078E279012F14D1571E3F1A18003B0043
:10A4C0004243606F52008218D2189379634500DDD1
:10A4D0006346627B1A4202D00123AB401943013527
:10A4E000DAE7022F07D0032FEAD1277A013FFF1ABC
:10A4F00003003800E4E7571EFB1A277A013F381A99
:10A50000DEE71123C943F356606C99402369194073
:10A51000039B19430FF09BFBA27B072AACD8637BFC
:10A520000C495B006373531CDBB290004158A3736A
:10A53000022A03D808000FF0B8FA96E7064B20006D
:10A54000236300236363054BE462236414300FF03C
:10A550007DF991E7D8A0020065A401008767020099
:10A5600070B50400104B250008330360FFF7CEF8E8
:10A57000200074300DF07FFF200060300DF07BFF75
:10A58000200058300BF003FC200050300BF0FFFB94
:10A59000064B1435280063610FF047F9280005F0D9
:10A5A00075FA200070BDC046F8A0020070A5020038
:10A5B000F8B500250400324B8580083303608571AF
:10A5C000143016000F0005F04BFA20002D4BE56209
:10A5D000636125645030FFF7E1F820005830FFF741
:10A5E000DDF82000603002F005FB20000423F25E5D
:10A5F00033682667590009B274300DF05AFF33688A
:10A60000226FE37173680126237210236581A7808E
:10A610002561D35691685918994204DD300098405D
:10A6200001330543F8E711230120D356D1685918A7
:10A63000994206DD02009A402669013332432261C5
:10A64000F6E714200FF070FB226900212A43012352
:10A65000060005F0F5FCFF23220063720133A3819D
:10A66000002348326664A37320001370A366FFF7CB
:10A670002FF80123A27920001343A371F8BDC0462F
:10A68000F8A0020084A50200F0B5437A040085B06A
:10A69000002B04D120000CF081F805B0F0BD0122A0
:10A6A000837A11009C461023066F0025F35603920F
:10A6B0006344994002912900F3680193019BAB42E6
:10A6C0002CDDB0687369684360444000E77A1A186B
:10A6D0001B5C5078E279012F10D1571E3F1A1800E9
:10A6E0003B004243606F52008218D2189379002BCE
:10A6F00002D0039BAB4019430135DFE7022F07D09F
:10A70000032FEED1277A013FFF1A03003800E8E754
:10A71000571EFB1A277A013F381AE2E71123C94373
:10A72000F356606C994023691940029B19430FF05E
:10A730008EFA667AB31EDBB2FC2B14D8FEF776FFD6
:10A740000B4B0500236300230A4863630A4BFF2178
:10A750007043E462236405F0E5FF290041432000D3
:10A7600014300FF073F8637A012B00D995E791E765
:10A770009D670200B6030000876702001FB5012332
:10A7800081881A0068460BF09BFB012368461A007B
:10A7900002490BF095FB05B000BDC046FE0300006A
:10A7A0001FB5030048331A780400002A0DD0002298
:10A7B0001A70012381881A0068460BF081FB01237F
:10A7C00068461A0003490BF07BFB200074300DF043
:10A7D00067FE1FBDFF03000010B548300378002B53
:10A7E00006D00378012B03D0012102480BF006FAB2
:10A7F00010BDC046FF03000010B501210400062073
:10A800000BF0FCF9064B984208D148342378002B12
:10A8100004D02378012B01D020BFF7E710BDC0463C
:10A8200016FCFFFF70B50500141E19DB0600483644
:10A830003378002B02D03378012B13D1002328006A
:10A840001A00743002F098FA002C07D02B004A331B
:10A850001C80002407234C352C803370200070BDF1
:10A86000014CFBE7014CF9E717FCFFFF12FCFFFF6F
:10A87000F8B50B6805005B8808001700012B08D1AC
:10A8800000210BF006FB002201002800FFF7CAFFA1
:10A89000F8BD002A19DD2E0048363378002B02D08F
:10A8A0003378012B13D12B0000245C331C80043B34
:10A8B000010018000BF0C8FA2B004A331F80032355
:10A8C0004C352C8020003370E2E70248E0E7024874
:10A8D000DEE7C04617FCFFFF12FCFFFF73B5079CC5
:10A8E0000500002C1CDB060048363078002802D01A
:10A8F0003078012816D106981BB2C0B2009028000B
:10A9000012B274300DF0DCFD002C07D02B004A335E
:10A910001C80002407234C352C803370200076BD2A
:10A92000014CFBE7014CF9E717FCFFFF12FCFFFFAE
:10A93000F7B505000E00171E26DDFFF74DFF2B00B3
:10A9400048331B78DCB2002B20D133685B88012BA5
:10A9500009D1210030000BF09CFA220001002800F0
:10A96000FFF760FFFEBD310001A80BF065FA3A0069
:10A9700001A92800FFF77CFF01A80BF008FA2800C6
:10A98000FFF73AFF2000EDE70148EBE70148E9E770
:10A9900017FCFFFF11FCFFFFF0B587B00D9C050011
:10A9A0000E0017000393002C21DBFFF715FF2B008F
:10A9B00048331B78DAB20292002B1AD1310005A875
:10A9C0000DF066FD0C9B3A0000932800039B019458
:10A9D00005A9FFF783FF05A80DF04DFD002C03D05E
:10A9E0002800FFF709FF029C200007B0F0BD024CD1
:10A9F000FAE7024CF8E7C04617FCFFFF11FCFFFF27
:10AA0000F8B50400171E1DDD060048363378002B0C
:10AA100002D03378012B17D12200E3795632013B63
:10AA2000137023000025200054331D8050300BF09C
:10AA30000BFA23004A331F80022328004C34258060
:10AA40003370F8BD0148FCE70148FAE717FCFFFF47
:10AA500012FCFFFFFF2902D8417200207047014815
:10AA6000FCE7C04617FCFFFFF0B51F0085B00AAB3E
:10AA70001B780400039300933B000D0016000EF0BA
:10AA800048FE002833D0237D082B2DD823680022D0
:10AA90001900FC318A62A021C9005A5015490520CD
:10AAA0005A500138C046C046C046C046C046C0469F
:10AAB000C046C046C046C046C046C046F1D1236825
:10AAC00001325A50A0210432C9005A5005F018FC36
:10AAD000039B3200009329003B0020000EF019FE7A
:10AAE000237D01332375CCE7034805B0F0BD207505
:10AAF000FBE7C046FC0F00000EFCFFFFF0B51F0097
:10AB000085B00AAB1B780400039300933B000D0053
:10AB100016000EF0E6FD002833D0237D082B2DD83B
:10AB2000236800221900FC318A62A021C9005A5012
:10AB3000154905205A500138C046C046C046C04697
:10AB4000C046C046C046C046C046C046C046C046D5
:10AB5000F1D1236801325A50A0210432C9005A5061
:10AB600005F0CEFB039B3200009329003B00200040
:10AB70000EF0B7FD237D01332375CCE7034805B004
:10AB8000F0BD2075FBE7C046FC0F00000EFCFFFF88
:10AB900010B5040086B0006C04F0EEFF237BA0210A
:10ABA0009A00A05000200C4AC90050500B491430A4
:10ABB0005050626C6846517CC91849B20CF04AF892
:10ABC000039B019A03211A60207B0130C0B205F07B
:10ABD000A5FD217306B010BD007000400405000003
:10ABE00082B070B50400002588B00C920D93636CA0
:10ABF0009A68AA420ADD197C02A8491949B20CF0E8
:10AC000029F8069B039A01351A60F0E75D7C237BE7
:10AC100002A8ED186DB229000CF01CF8039A059BF0
:10AC200000211A60019202A818220FF0D1F802A8A0
:10AC3000002229000EF0A5FE206C002801D00FF0A4
:10AC40006FF808200FF070F82900060004F06EFF7E
:10AC5000094B2000E3620023FA212363074B26649B
:10AC6000A462E363103009010EF0F0FD08B070BC7F
:10AC700008BC02B01847C04691AB0100FF6B020050
:10AC8000F0B504000E00150085B01F000CAB1B884A
:10AC9000103001930BF00AF92680658018200FF020
:10ACA00043F802AE050033000AAA03CA03C32F60AB
:10ACB0002800082700213A000C300FF089F83A00EC
:10ACC0003100281D0FF068F8064B022220006B614E
:10ACD00000230199A5600A43E360A28023626362B6
:10ACE00005B0F0BD156C020070B5040086B01030E0
:10ACF0000D0004F0B5FE0023184AA3622261184A31
:10AD0000E36316686564237323606360A3609E42F7
:10AD10001FD0144A2820049205930FF005F8C02391
:10AD200005006A46029304AB03CB03C2230006214D
:10AD300002222800FFF7A4FF3368290030005B6877
:10AD40009847002805D028000AF0D5FF28000EF00B
:10AD5000E7FF00232000236406B070BD84A5020035
:10AD6000C4250020E1AB010030B5154B04001D687F
:10AD700091B0002D17D0134B6A460493002305931E
:10AD80001033029304AB03CB03C22300022206213B
:10AD900006A8FFF775FF2B6828009B6806A998474F
:10ADA00006A80AF0A8FF2500074B103528002361EC
:10ADB0000EF03BFD280004F069FE200011B030BD0C
:10ADC000C4250020E1AB010070A50200F8B50D1EFE
:10ADD0002FD000260227C468002C27D0AA88A38879
:10ADE00053403B4220D13A4215D1A368AA6893420E
:10ADF0001AD12B88002B02D022889A4214D16B885A
:10AE0000002B02D062889A420ED1A2880A4B0136EA
:10AE10001343A38008E0A968A0680CF0D6FC0028C2
:10AE2000E7D1AB883B42E0D0646AD5E72000002E32
:10AE300000DC0248F8BDC0460080FFFF17FCFFFFA2
:10AE4000F0B506000D0085B0002959D00127C4686F
:10AE5000002C23D00221AA8800230A4202D0A38812
:10AE60005B083B40226829688A4211D1A068A96822
:10AE7000002B0BD00CF0A9FC002809D00421625E45
:10AE8000A388002A06DB1F4805B0F0BD8842F5D034
:10AE9000646ADDE75B045B0CA380F4E7F0682A8852
:10AEA0000100031E07D1F5600123684616490BF027
:10AEB00007F80020E8E71C88944206D25C6A190073
:10AEC000002C0DD02300F6E723001C88944207D104
:10AED0005F886C88A74203D25C6A1900002CF3D10A
:10AEE000814209D10B889A4204D305D14C886B88E2
:10AEF0009C4201D96862D6E74B6A6B624D62D3E728
:10AF00000248C1E716FCFFFFFD03000017FCFFFF2E
:10AF1000064B10B51A00040008322C33026043605F
:10AF20000430FEF775F9200010BDC04610A10200E4
:10AF300008B4024B9C46043808BC604711AF0100BE
:10AF400008B4024B9C46043808BC6047B76C02004A
:10AF50000C4A002311002C32083110B50381837292
:10AF60004260C360036143614383016004000430B5
:10AF7000FEF740F9044B1A68002A00D11C6020003B
:10AF800010BDC04610A10200C4250020F7B50D0079
:10AF90000126C4680192002C37D023882A889A425F
:10AFA00001D0002B24D163886A889A4201D0002BFB
:10AFB0001ED1FEF7D5F80123002806D0C022A388B1
:10AFC0001340C03B5A425341DBB2019A93421AD11B
:10AFD0000422A35EA788002B15DB10222900A018ED
:10AFE0000EF0DAFE40231F4204D020000BF06CFE6E
:10AFF000646AD0E7FEF7B4F80028F6D021000448D0
:10B00000FEF732FAF4E70026F2E73000FEBDC04654
:10B01000C96C020008B4024B9C46043808BC604767
:10B02000536E0200F0B587B001930EAB1B8806008B
:10B0300003930D9B0D000093019B0C9F0292002B2C
:10B040003CD0002F02D1009BDB0737D528200EF023
:10B050006BFE040010300AF029FF029B18202580A7
:10B0600063800EF061FE0500009B08220593019BA2
:10B07000002103600C3004970EF0AAFE082204A9F8
:10B08000281D0EF089FE0E4B02226B6100230399EE
:10B09000E3602362636233680A43300021005B6827
:10B0A000A560A2809847002806D020000AF023FE61
:10B0B00020000EF035FE034807B0F0BD0248FBE764
:10B0C0008D6E020016FCFFFF17FCFFFFF0B51600A7
:10B0D00000258380164A174B0400857102600181A8
:10B0E0004681057318688C4689B0A8421DD0124A63
:10B0F00005950492C02202926A4604AB82CB82C2BA
:10B1000023002A006146FFF78DFFC022094B0A4940
:10B11000186802926A46069106AB079582CB82C2F6
:10B1200023002A003100FFF77DFF200009B0F0BDA9
:10B1300054A10200C4250020B76F020030B50024DE
:10B1400003730123034D056084718180827343730F
:10B15000846030BD6CA1020070B5040000250C4B6A
:10B160000E000833858085710360210018300BF0D4
:10B17000DAFF2000210020300BF0F8FF054B200003
:10B18000A680E5802572E560256165611C6070BD63
:10B190007CA10200CC2500208379DB0702D5C160A9
:10B1A000002070470048FCE716FCFFFF8379DB07AF
:10B1B00001D5C06870470148FCE7C04616FCFFFF98
:10B1C00070B545690400002D22D0037A032B21D8E5
:10B1D000FFF7ECFFA8622C200EF0A6FD2C22002128
:10B1E00005000EF0F5FD002263695A62236993425F
:10B1F00007D1636923610020237A656101332372DB
:10B2000070BD1A005B6A002BFBD163695362F2E7E1
:10B210000148F5E70148F3E717FCFFFF13FCFFFFC8
:10B22000144B70B55A68144C002A03D000225A609F
:10B230000132A2601A69002A17D000211961802307
:10B24000DB000E4DE3582868012B0FD1A923DB004A
:10B25000E1584942FFF7A0FF2868FFF7B1FF2B68CC
:10B260005A69074BE2500123A36070BDFFF794FFBA
:10B27000F9E7C046FC10004000100040CC2500203B
:10B280000405000003000069002809D00221054AD6
:10B29000D167426A1A611A7A013A1A72024B19602E
:10B2A0007047C04604E100E000E100E010B500296D
:10B2B00003DB024B19600EF09AFA10BDD025002076
:10B2C00070B504001D0004AB1E7804F085FB20005F
:10B2D0000E4B40302360FEF761FA23002200013557
:10B2E0004C331D700023E1215832013616700A3AA2
:10B2F000A3646365138053809381D381013B200055
:10B3000063644902FFF7D2FF200070BD50A0020025
:10B31000F7B580277F053E697C690822113C74439C
:10B320000500210068460EF037FD104B009A9A4246
:10B3300019D00093002301937969280013397143D0
:10B340000BF02BFF019A280000990BF042FF21001F
:10B3500028000BF022FF796922001339280071437D
:10B36000B3080BF026FF0198FEBDC046FECA0000E0
:10B37000F0B50D00ABB000210D920700302212A8ED
:10B380001E000EF025FD28000EF062FD431C0C93FC
:10B39000102B00D9B8E0202E00D9B5E029003800E4
:10B3A0000BF044FF0B90002854D129000C9A12A8EE
:10B3B0000EF0F2FC32000D9916A80EF0EDFC802381
:10B3C0005B051A695D690B92113D6A4338005E693D
:10B3D0000D92FFF79DFF0D9B3022083300210400E2
:10B3E0001EA80F930EF0F4FC31000B9B1339594348
:10B3F00038000BF0D2FE00230F9E0C930E930C9B93
:10B40000A34246DA310030221EA80EF0C5FC12A974
:10B410001EA80EF013FD00282BD13D493800220054
:10B42000109111940BF0D5FE6A46099615AB23CB0B
:10B4300023C223CB23C223CB23C23800149B1299EF
:10B44000139A0BF0D4FE01230E930C9B303601337C
:10B450000C93D4E70B9832000D9910300EF08EFC4F
:10B4600004000B980EF05CFC002C9ED120002BB049
:10B47000F0BD6A46099621AB23CB23C223CB23C25E
:10B4800023CB23C238001E991F9A209B0BF0AFFEDE
:10B49000DBE7E6433021F61726404E430F9B9E190B
:10B4A0000E9B002B1CD10B9B981E05F0B1F8A042FF
:10B4B0002CD01749013438002200109111940BF060
:10B4C00088FE6A46099615AB23CB23C223CB23C241
:10B4D00023CB23C238001299139A149B0BF087FEDA
:10B4E00038000D990BF059FE80235B0559690C2338
:10B4F0000B9A133963434A433800110002330D9A03
:10B500000BF057FE0024B1E7024CAFE7024CADE769
:10B51000FECA000017FCFFFF13FCFFFF70B504001C
:10B52000A280FA22002308000C4992000831216011
:10B53000A3710B496061E260A36063820BF076FE49
:10B54000051E09D0010020000222103112300EF039
:10B5500023FC28000EF0E4FB200070BD94A1020043
:10B560007EAF020030B502258379040087B02B42FC
:10B5700004D1FDF73FFEA3791D43A57120000BF018
:10B580009BFE00281CD06B46DD1C28000BF08BFEB8
:10B590002B78002B17D001A80BF083FE0321019A12
:10B5A000D3170B409B189B102382FEF779F8E368B2
:10B5B000A18818180123A0601A0002A80AF080FCD4
:10B5C000002007B030BD0122064B1A60064A5168C0
:10B5D0000029FCD000215160044A12680192012226
:10B5E0005A60DBE700C00040FCC0004008C50040D6
:10B5F000022802D10122014B1A70704789280020CD
:10B6000070B5064D04002B78002B04D1044802F0DD
:10B61000B1FB01232B70200070BDC0468A2800209A
:10B62000F1B5010070B50C000AF085FA002810D0C1
:10B630000023144DA40A2B7020000BF05BFE0028A1
:10B6400003D00A200EF03CFAF6E72B78002BFCD052
:10B6500070BD02210C4B0D4A99508021C900080091
:10B660005D58002DFCD0A121C9005C50195800295B
:10B67000FCD0002199508021C9005A58002AFCD0E2
:10B68000E6E7C0468928002000E0014004050000EC
:10B69000F8B50C0015001E000AF04DFA002811D074
:10B6A0000023174F3B703200290020000BF020FED2
:10B6B000002803D00A200EF003FAF4E73B78002BB1
:10B6C000FCD0F8BD01220F490F488C464250802221
:10B6D000D2008358002BFCD080270023FF009E421D
:10B6E00007DD9A00A958A150C259002AFCD00133A5
:10B6F000F5E7002362468350C359002BFCD0E0E7F6
:10B70000892800200405000000E00140084B80006B
:10B71000C018A2230322DB0010B50649C4582143F8
:10B720002243C150C046C046C046C25010BDC046AC
:10B7300000600040031F0000A2220321034B800091
:10B74000C018D20083588B4383507047006000407C
:10B7500010B50400034B08330360FDF7D7FF20004A
:10B7600010BDC046ACA10200F8B5A02303223049A9
:10B77000DB055A5004315A5080212E4A89059950D0
:10B7800080210127A225C9052B4C99502B4BED0098
:10B79000E75063592A492B4E0B40635162592A4B9B
:10B7A000002013436351FFF7B1FFA3592449380028
:10B7B0000B40A351A259254B1343A351FFF7A6FFFA
:10B7C000C046C046C046224B224A23495A51A322B2
:10B7D000D2009C519950214A214922485A500431A3
:10B7E0005850214921485C500431585020495A5042
:10B7F0000F2220495A50204B104A9F5000225A5085
:10B8000004315A5002325A51A8223221D200DF604C
:10B8100099501A4A01399950043232319950184AD4
:10B82000C919995080225C3992009950F8BDC046E0
:10B83000740700000C05000000600040FC0F0000D1
:10B84000FFE0ECFF14050000001D0300001E1300C4
:10B8500000F0014040A1004044A1004004600040CD
:10B860001C05000048A10040240500004CA1004038
:10B870002C0500000405000000A000404405000065
:10B880004C0500000023154A10B508320260EE2175
:10B89000A0228380837104000320D205C900505088
:10B8A00080200F494005505032220E4920000A7076
:10B8B0000D490A700D490A70FA210D4A09011370E9
:10B8C0000C4A118001210C4A11700C4A1370FFF7C9
:10B8D0004BFF2000FDF7FCFE200010BDACA10200D4
:10B8E0000C0500008C2800208D2800208E280020C8
:10B8F0008F2800206C2800208B2800209028002012
:10B900000B002B4A143B9BB270B50D0093424ED8EE
:10B910000322284B284C1980284B1A700022284BF0
:10B920001A7001236360E360A223DB00F42900D8CE
:10B930000432E2500020FFF7FFFE0120FFF7FCFE7B
:10B94000A02380211F4ADB05890599508021043AF4
:10B95000C90599502901F42D00D929001A4804F08D
:10B9600057FEA92385B232206A1EDB00E250174B36
:10B970006421E550684304F0D5FEA8232D1ADB00AE
:10B98000E550134B0138E0500020FFF7BFFE114B8C
:10B990001B78002B02D10120FFF7B8FE0123A02263
:10B9A00023608021A123D205DB004905D15070BD61
:10B9B0000C4E00006C28002000A0004090280020C1
:10B9C0008F2800200C0500000024F4004C05000026
:10B9D000440500008B28002070B50E4D2B78032BFA
:10B9E00017D101240C4B00205C60DC60FFF7A4FE43
:10B9F0002000FFF7A1FEA0228021084BD205890577
:10BA0000D1508021C905D15080214905D150002352
:10BA10002B7070BD9028002000A000400C05000095
:10BA200010B50400034B08330360FDF76FFE2000E0
:10BA300010BDC046C4A10200F7B501210C00836807
:10BA4000314A9C40A023DB059C503224013CC04677
:10BA5000C046C046C046C046C046C046C046C046B6
:10BA6000C046C046C046F1D1050011350195A1255B
:10BA70000400ED00AC460D3407250E008768BE407B
:10BA800027782F410F4231D06746DE51C046C0466D
:10BA9000C046C046C046C046C046C046C0469E508E
:10BAA000013DEAD2019D0134A542E5D1012381681F
:10BAB0008B40A021C9058B503223013BC046C046B4
:10BAC000C046C046C046C046C046C046C046C04646
:10BAD000C046C046F1D1827B437B017C9B18C27B70
:10BAE00052189B185A1E93414374F7BD6746DE51A6
:10BAF000C0469E50C046C046C046C046C046C0462E
:10BB0000C046C046CCE7C0460C050000F8B50400AE
:10BB10002500260006A80078277B6273A173E373D3
:10BB200020740D3511362878784307F09BFB0022EE
:10BB3000064B06F07BFA04F03BFF28700135AE425D
:10BB4000F1D12000FFF778FFF8BDC04600E06F405C
:10BB5000F7B5002317000126224A838008320260CD
:10BB60000A008371040081600773A02003258E40C2
:10BB7000C132FF32C005920015501B4A2500865085
:10BB80006373E3812382230011330D350093019207
:10BB90002878784307F066FB144B002206F046FA3B
:10BBA00004F006FF009B287001359D42F0D1A023D0
:10BBB000019ADB059E503223013BC046C046C04679
:10BBC000C046C046C046C046C046C046C046C04645
:10BBD000C046F1D120000BF0A3FB2000FDF778FD5B
:10BBE0002000FEBDC4A102000C05000000E06F4073
:10BBF00010B50400054B083303601C300AF0C7F889
:10BC0000200018300AF0C3F8200010BDDCA10200AB
:10BC1000FF23F0B52C4E8DB03370002301AD04002E
:10BC200029000088019302F0FFFF002801D1AB78C2
:10BC30003370264D2B68DB68002B07D1002320884A
:10BC40001A0019000BF07DFB0DB0F0BD3378032B0B
:10BC5000F4D81F496846FDF767FD2B686946DD6823
:10BC600004A80AF0E9F8280004A90BF00EFB00274D
:10BC7000050004A80AF08BF8BD421ED0290020223E
:10BC8000103104A80EF088F828000EF049F8317839
:10BC900004ABC9005918082202A80EF07DF8012350
:10BCA0000822208802A90BF04CFB0137002804D1A0
:10BCB0000C212088074A0BF042FB68460AF067F81F
:10BCC000002FBBD0C0E7C04684200020E025002024
:10BCD00086AF0200FFFF0000F0B58379040091B049
:10BCE0005B071BD5FDF7DCFC00232269801A994114
:10BCF000994203D1F533FF3398420FD3A06800284F
:10BD000008D0354B1D880CF07CFC036815222900F7
:10BD10001B6A98470422A3799343A371A3799B07D5
:10BD200058D52E4E3368DB68002B4FD02C4F3B7814
:10BD3000032B4BD8284B2B491B8804A80193FDF7F4
:10BD4000F3FC336804A9DD6808A80AF075F808A9AF
:10BD500028000BF09AFA050008A80AF018F8082342
:10BD600002AAD3800198073B063206A90BF0EBFA32
:10BD7000002D08D029002022103108A80EF00CF860
:10BD800028000DF0CDFF3D7802ABDA88ED0008AB5E
:10BD90005D19280006A90DF0F1FF002813D0082234
:10BDA000280006A90DF0F8FF336804A9DD6805A88E
:10BDB0000AF042F82023280008AA05A90BF06BFA24
:10BDC00005A809F0E4FF04A809F0E1FF0222A37925
:10BDD0009343A37111B0F0BD6E280020E025002030
:10BDE0008420002086AF020070B5036804000D1E99
:10BDF00009D15B699847FA2080006843074904F03D
:10BE000007FCE08070BD9B689847A842F3D923687F
:10BE100020009B6898470500EDE7C04671020000CE
:10BE2000F0B50400150085B001930AAB1F880BAB79
:10BE30001B78461C02930EAB1B78102203930B78E1
:10BE400003704B8A0131438230000DF0A5FF65611C
:10BE500000250122019B27836383039BE5832377CE
:10BE6000029B2000F377A31CDA770C9B0C266362FD
:10BE700023000D9A283329001A705D7032009D70DE
:10BE80002C300DF0A5FF2000064B3200A3632900E3
:10BE9000E56340300DF09CFF2000034B2565E36413
:10BEA00005B0F0BD5D7302004F730200F0B50700EE
:10BEB0001500A1B002C706006B4918A81C000BF0C2
:10BEC0000EFB2B1E03D028000DF0C2FF83B201220F
:10BED00004920022039202920232019200932A00FD
:10BEE00018A93800FFF79CFF33006049583318A8A1
:10BEF00007930BF0F4FA231E03D020000DF0A8FFE7
:10BF000083B2012204920022039202920232019231
:10BF10000093220018A90798FFF782FF33005449C5
:10BF2000AC3318A808930BF0DAFA269B002B03D049
:10BF300018000DF08DFF83B20122049200220392BB
:10BF40000292023201920093269A18A90898FFF7EC
:10BF500067FF731CFF33474918A809930BF0BFFA1A
:10BF6000279B002B03D018000DF072FF83B2012233
:10BF700004920022701C03920292023201920093FA
:10BF8000279A18A9FF30FFF74BFF33005533FF33D3
:10BF9000394918A809930BF0A2FA289B002B03D06B
:10BFA00018000DF055FF83B2012204920022039283
:10BFB0000292023201920093289A18A90998FFF779
:10BFC0002FFF3300A933FF332C4918A80A930BF035
:10BFD00086FA299B002B03D018000DF039FF83B29D
:10BFE00001220492002218AC0392029202320192C2
:10BFF00000932100299A0A98FFF712FF204B1B7823
:10C000000B93002B2DD1079B1E491393089B0DA862
:10C010001493731CFF331593099B129716930A9B75
:10C0200012AD17930BF05BFA1D21492006AB1B7F65
:10C030001022237006ABDB8D638206ABC918C018D3
:10C040000DF0AAFE062323750B9B3068A383A56120
:10C050000CF0DBFA036821001B6898470122084BAB
:10C060001A70300021B0F0BD292A0000242A0000F7
:10C07000252A0000272A0000262A0000282A00007E
:10C08000912800200A18000070B5002504000A4B12
:10C090008580083385710360C1601830FDF77EFB31
:10C0A00020001C30FDF77AFB044B20001C600123AC
:10C0B000A5606561A37170BDDCA10200E0250020D0
:10C0C000FA2130B585B004000123022268468900B8
:10C0D00009F0F6FE074D2868002809D00BF038FA61
:10C0E0002188054B2A681980022391790B439371AB
:10C0F00005B030BDE02500206E28002010B50C00F2
:10C1000007290FD880680CF07CFA074B1957036891
:10C110005B6C984743425841044B40421840044BE3
:10C12000C01810BD0348FCE795B00200EA03000008
:10C1300016FCFFFF17FCFFFFF0B5984C0D00A5445F
:10C14000040096AB1B78964908A807930692FDF762
:10C15000EBFA200029001C3009F076FE914909A86D
:10C16000FDF7E2FA90490AA8FDF7DEFA0CAE09AA3B
:10C1700008A90BA809F077FE2A00300011AD0BA921
:10C1800009F071FE0AAA3100280009F06CFE2900AE
:10C1900008A809F059FE280009F0F9FD300009F05F
:10C1A000F6FD0BA809F0F3FD08200DF0BDFD07001A
:10C1B000002100F095FE08220021A7600DA80DF0D7
:10C1C00007FE00230C932B0007CE07C3774B2900F3
:10C1D000EB60002338002B610CF0FCF9A0680CF038
:10C1E00010FA08220021059012A80DF0F1FD14208C
:10C1F0000DF09AFD6E4B2A0011930300C2CAC2C310
:10C200006C4B059EC3600023A43603613368002B8A
:10C2100000D0BDE03060A0680CF0F7F908220021E2
:10C22000060012A80DF0D4FD14200DF07DFD624B28
:10C230001193030086CD86C3604BC3600023036166
:10C24000336B002B00D0A5E03063A0680CF0D9F967
:10C2500008220021059012A80DF0BAFD14200DF05F
:10C2600063FD574B11AE119332000300A2CAA2C363
:10C27000544B059DC3600023983503612B68002B48
:10C2800000D089E02860012004AB1B7F04AA03438F
:10C290000BA913770BF059F8A0680CF0BAF90368F2
:10C2A00049495B6A9847A0680CF0B3F903684749AD
:10C2B0009B699847A0680CF0ACF9454A0368009266
:10C2C0001D6800231A001900A847079B002B0AD0FD
:10C2D00020000BF046F9032805DDA0680CF099F961
:10C2E0000368DB68984706212000FFF707FF394BFA
:10C2F000394A1B68A1680393384B30001B6800253E
:10C300000293374B1B680193069B1B680433009311
:10C31000344B12681B68FFF7C9FDA0680CF071F977
:10C3200003680CA99B6A9847082304AA1384A06891
:10C33000DB18538495840CF064F903680CA9DB6A5C
:10C3400098470621A0680BF0D6F8089A092193783F
:10C35000A06804320BF0E2F8A0680CF052F9057105
:10C36000A0680CF04EF93221FFF73EFDA0680CF0FA
:10C3700048F90BF0AAF80AA809F009FD09A809F084
:10C3800006FD08A809F003FD91239B009D44F0BD24
:10C3900003613FE7036157E7036173E7BCFDFFFFFC
:10C3A00092AF0200B6AF0200A0AF02006B730200B2
:10C3B000C1C001007973020011BC01008773020043
:10C3C000B573020095730200E9C301001DC40100AA
:10C3D000A2AF0200DC250020D82500200C20002080
:10C3E000D42500201020002013B506226846FDF752
:10C3F000ABF9094B1C68002C0AD0694601A809F06A
:10C400001BFD200001A90BF0CDF801A809F0BFFC2D
:10C41000684609F0BCFC13BDE0250020002373B57D
:10C4200001AE0C0031000500019302F0FDFB002875
:10C4300002D1B278064B1A70064B1868002806D055
:10C4400061426141044BC9B21D800BF0B3F873BD6A
:10C4500084200020E02500206E280020F0B5040094
:10C460008BB00F0005A87D490392FDF75DF97C496B
:10C4700006A8FDF759F9220005A91C3209A809F000
:10C48000F2FC06AA09A907A809F0EDFC09A809F021
:10C490007EFCA0680CF0B5F8036800255B6998473E
:10C4A000A0680CF0AEF8030006000A331F2200213A
:10C4B000180002930DF08CFC029B3000DD770AF02F
:10C4C000FBFF0621A0680BF016F8079A0921937864
:10C4D000A06804320BF022F8A0680CF092F8057105
:10C4E000A0680CF08EF8C821FFF77EFCA0680CF065
:10C4F00088F80581A0680CF084F80AF0E6FF38009F
:10C50000FEF74EF9390020000BF067F82000FCF729
:10C5100071FE0295FF356269012316001E401A4222
:10C520002DD0504908A800F0D7FB08A909A80BF0A6
:10C53000AFFF002209A91300019200923800FEF714
:10C540002BFA09A80BF097FF029B002B41D1043D69
:10C55000282D40DC38000AF09FFA002D00DC0296FE
:10C56000039809F082FF002806D0012362699A43EC
:10C57000130004221343636108A80BF07CFF04221C
:10C580006369134230D0FF213800FEF763FA0026BA
:10C59000A36902229B5EB34222DD200031B2183033
:10C5A00009F077FC0023010038001A00743000F015
:10C5B000E3FBC8208000FCF7BBFE38000AF06CFAF1
:10C5C000C820FCF7B5FE02226369134208D1013688
:10C5D000DEE70435BCE7FE2DC2DD00230293BFE792
:10C5E000FA208000FCF7A4FE0222636913421DD0EA
:10C5F0001E000632164013421CD01B4908A800F04A
:10C600006BFB08A909A80BF043FF002209A913003E
:10C61000019200923800FEF7BFF909A80BF02BFF3A
:10C620001248FCF785FE08A80BF025FF6420FCF7F4
:10C630007FFE70E70E4908A800F04EFB08A909A884
:10C640000BF026FF3300320038000196009609A94E
:10C65000FEF7A2F909A80BF00EFFE4E7A9AF02006C
:10C66000A0AF0200B9AF0200FEAF0200983A00008E
:10C670003BB002001FB5084B1B68DB8B834209D11E
:10C68000064B68461A78064B06491A7001230322A6
:10C6900009F016FC05B000BDE4250020922800201A
:10C6A00093280020FF030000F0B51D00ADB004008A
:10C6B00001610135143016000691FDF76FF8EBB2F9
:10C6C0001800079308F0B6FD00250136F6B2606049
:10C6D000300008F0AFFD4A4B2A001D70494B4A4913
:10C6E0001D70079B2060A672E37225810FA80BF0D6
:10C6F00012F801270C2322680497019300963B004F
:10C700000FA90395029517A8FFF78AFB2A003F4956
:10C710000FA80BF000F854200DF006FB20230600B4
:10C720000193079B6268049700930FA93B00039550
:10C730000295FFF775FB364B08961E600AAE17ABE5
:10C740002A003449300009930AF0E5FF34213520EE
:10C75000337802AA52181370738A123102AA52183F
:10C760001380253902ABC9181022C0180DF014FB34
:10C770004821022302AA52181370502202AB9B18C0
:10C7800008AF159706981D800BF03FFF03680FA9AF
:10C790001B689847722202AB9B181B880698E360BF
:10C7A0000BF033FF079014200DF0BEFA07001A4B70
:10C7B00005610822310010C00A930B950DF0ECFAC8
:10C7C000164BFB60079B9B69AB4217D1079B0698F2
:10C7D0009F610BF01AFF0500082200210BA80DF045
:10C7E000F7FA0F4B0A932B006C3307CE07C30D4BA0
:10C7F0002000AB670023EB672DB0F0BD3B61E5E7A0
:10C8000092280020932800209DB00200ADB00200C5
:10C81000E4250020BDB002007376020049760200D4
:10C8200075C601003B760200054A03001178054AEF
:10C830001278501A914201D9DB7AC0187047C0466D
:10C840009328002092280020F0B58DB002AF04009C
:10C8500039607A613B61002A00DCA2E03B69012B70
:10C8600000D19EE027230025FB1800691D700BF006
:10C87000CCFE272203684D499B69BA18096898477E
:10C8800020690AF06BFF022302001A40184236D1D9
:10C890002533FB181B78AB4200D185E0FA61206993
:10C8A0000AF05CFF0223184275D02533FB181B7871
:10C8B000FB60002B6FD03E4B6E461D783D4B1B78C6
:10C8C000BB60FB69BB6100237B60BB697A699342F3
:10C8D00017DAE17A681C04F00BF8BB688B420AD0C7
:10C8E000BA693B689B5C62685355FB69CDB2013302
:10C8F000FB61FB687B60BB690133BB61E5E7FD6100
:10C90000CDE77B68002B01D0294B1D702000FFF77D
:10C910008BFF6A46C31DDB08DB00D31A9D4602ABC2
:10C920000200002105001800BB610DF051FA204BF8
:10C93000E27A1B7820000193BB680093BB696168B1
:10C940000AF011FF3B69022B03D103211A48FCF7BF
:10C950001BFD20690BF059FEABB20025134A12688B
:10C96000D18B02680095D2681500BA69A8473B6967
:10C97000022B14D1FCF772FC20690BF046FE272233
:10C9800003680A499B69BA1809689847FB697A697C
:10C99000B546934283DBBD46F8690BB0F0BDB546A2
:10C9A000F9E7064BFB61F6E7054BFBE7E4250020C2
:10C9B0009228002093280020FF03000017FCFFFFAF
:10C9C00016FCFFFF002815D0006041608260C36044
:10C9D000046145618661C761444604624C46446215
:10C9E000544684625C46C462644604636E46466391
:10C9F00074468463002A06D0C46B043C043A25685C
:10CA00001560B442F9D18C6BA6464E6BB546002B2F
:10CA100006D0CC6B043C043B1D682560B442F9D1C0
:10CA20000C6BA446CC6AA3468C6AA2464C6AA1460B
:10CA30000C6AA046CF698E694D690C69CB688A681B
:10CA4000086849687047006041608260C3600461A3
:10CA500045618661C761444604624C46446254465F
:10CA600084625C46C462644604636E4646637446F0
:10CA70008463C46B043C043925680D60B442F9D169
:10CA8000C7698669456904697047006041608260D2
:10CA9000C360046145618661C761444604624C46D7
:10CAA0004462544684625C46C462644604636C46D5
:10CAB00044637446846304697047846BA646446B80
:10CAC000A546046BA446C46AA346846AA246446A87
:10CAD000A146046AA046C769866945690469C368B6
:10CAE000826800684168704710B5041E0CD00DF0D4
:10CAF000AFF9431EE318A34208D922781978013B05
:10CB000021705A700134F6E7014810BD0020FCE79F
:10CB100017FCFFFFF0B585B00D1E009029D0002650
:10CB20000A27C217141A4B1E544003932000029682
:10CB300039000136019603F0DBFECB17C9185940C6
:10CB4000039B303120009955390003F0EBFD041EA2
:10CB5000ECD1009B002B04DA2D23029E019A0236B1
:10CB6000AB5400232800AB55FFF7BEFF200005B0F3
:10CB7000F0BD014CFAE7C04617FCFFFF10B50400FA
:10CB8000100048436160A26000280BDD074B98420B
:10CB900005DC80000DF0DAF82060200010BD0120D7
:10CBA0004042F7E700232360F7E7C046FEFFFF1F80
:10CBB0004A688B6870B58360534304000D0042607F
:10CBC000002B12DD0A4A9E003000934201DD012055
:10CBD00040420DF0BBF800232A682060D158C150B4
:10CBE0000433B342FAD1200070BD00230360FAE79A
:10CBF000FEFFFF1F014B03607047C046F4A1020017
:10CC000030B500684488A1420CDA8588AA4209DA66
:10CC1000002907DB002A05DB624340188018837176
:10CC2000002030BD0048FCE717FCFFFFF0B507000F
:10CC30000E001D0085B0002921DD002A1FDD002B1C
:10CC40001DD00468638803938B4200DD0391A388A1
:10CC50000293934200DD0292002306340193019B6C
:10CC6000029A93420ED029002000039A0DF094F806
:10CC70003B68AD195B88E418019B0133EEE702487D
:10CC800005B0F0BD0020FBE717FCFFFFF8B504007E
:10CC90000D0016001F00002901DB002A02DA0D4BEF
:10CCA0002360F8BD10004843063008F0C3FA206046
:10CCB00009F053F923685D809E80002F06D03B0069
:10CCC000320029002000FFF7B1FFEAE720000BF057
:10CCD000E7FBE6E7F4A10200F7B507000D1E03D15C
:10CCE000244B03603800FEBD00240800260021000C
:10CCF00001940378002B1AD03022524294469C446F
:10CD00006246092A11D90A2B0AD1019B361901332F
:10CD10000193B14200DA3100002426000130E8E737
:10CD2000002CFBD000240136F8E70124F6E70126A9
:10CD3000019A380012B209B27642FFF7A7FF31001C
:10CD40000A203B689A1D2C78002CCBD02300303B66
:10CD5000092B08D8F343DB17334043431B19303BFF
:10CD60001E000135EFE7002EFBDB16700E000132CE
:10CD7000F7E7C046F4A10200F0B5050087B004A8AB
:10CD800016001C000F00FCF7B7FB2B685A88964270
:10CD900035DA9B889C4232DA1F2F30D9059B0193EC
:10CDA0009F422CDC05217943049BA0395B18019339
:10CDB0002300621D0392019A1278029200222C68CD
:10CDC000B7186088B8420DDDA1888B420ADAE419F1
:10CDD000102717415843029924180F40781E8741A5
:10CDE0007F42A7710132052AE9D1019A013301324C
:10CDF0000192039A9342DED1002007B0F0BD0148B2
:10CE0000FBE7C04617FCFFFFF7B5036806009F1D50
:10CE10005B880D005A1A0192002919DD00249942FD
:10CE200003DB0BF03DFB002013E033689B889C4242
:10CE3000F9DA79193800019A0CF0AEFF019B29004C
:10CE4000F8180BF01FFB336801345B88FF18ECE720
:10CE50000048FEBD17FCFFFF10B50548054C2060DB
:10CE600009F07EF82000044A04490CF052FF10BD7E
:10CE7000F4A10200E82500200020002077840200B1
:10CE800070B5002817D1124D2E68002E11D1083030
:10CE90000CF04AFF066046600E4E04003368002B1B
:10CEA00002D10BF0E1FD306023682C609B00F35849
:10CEB0006360286870BD084A0123116807480C00A8
:10CEC0001C401942F6D1036044601360F2E7C0468B
:10CED000F0250020FC250020EC250020F425002072
:10CEE000002370B504000160436099420AD1064DE9
:10CEF0002B68002B02D10BF0B7FD286023689B0044
:10CF0000EB586360200070BDFC250020436810B51D
:10CF10000400002B02D104480CF005FD6068036892
:10CF20001B69984710BDC046CDB00200436810B5DC
:10CF30000400002B02D104480CF0F5FC6068036883
:10CF40009B69984710BDC046CDB00200436810B53C
:10CF50000400002B02D104480CF0E5FC6068036873
:10CF60005B6A984710BDC046CDB0020000487047CC
:10CF7000FFFF0000F0B597B00593036807AD1B688D
:10CF80000491039311002B00060091C991C3002462
:10CF9000D368210008220DA8EB602C610CF018FF6B
:10CFA00022000B4B10940F9311AB0C941C70E118E2
:10CFB00001344A70102CFAD15A820193059B2A0041
:10CFC000009330000499039C0CABA04717B0F0BD50
:10CFD00023870200FC3070B5046C0500002C0DD1D5
:10CFE00024200CF0A1FE064B44608361054B846055
:10CFF000C46004614461C46103602864286C70BD2E
:10D00000D0A20200B8A30200FC3070B5C56B0400CA
:10D01000002D11D134200CF087FE084B8560436051
:10D02000074B45610361074B0562C361064BC5624F
:10D030008362064BE0630360E06B70BD00A30200F7
:10D04000F0A2020060A3020070A3020080A302000D
:10D050007FB503791548002B23D0154E154C337836
:10D060002000002B1DD10A256D4428000BF03DFB4C
:10D07000002810D16B88592B0DD12B78AA88D91F85
:10D08000012910D800920C4A2021200008F0BCF998
:10D090000123337004E02022200008490CF0DFFE59
:10D0A000200004B070BD0092054AEDE7F0B0020028
:10D0B000B42800209428002012B102000AB1020016
:10D0C0002FB1020010B50400024B08C00BF0E5FBC5
:10D0D000200010BDF0A2020010B50400024B08C0F1
:10D0E0000BF0F0FB200010BD00A30200064B70B552
:10D0F000040003604068002804D005690CF010FEAD
:10D100002800F8E7200070BDE0A20200064B70B5D1
:10D11000040003604068002804D005690CF000FE9C
:10D120002800F8E7200070BD10A30200064B70B580
:10D13000040003604068002804D005690CF0F0FD8D
:10D140002800F8E7200070BD20A30200064B70B550
:10D15000040003604068002804D005690CF0E0FD7D
:10D160002800F8E7200070BD60A30200064B70B5F0
:10D17000040003604068002804D005690CF0D0FD6D
:10D180002800F8E7200070BD04A20200064B70B52D
:10D19000040003604068002804D005690CF0C0FD5D
:10D1A0002800F8E7200070BD14A20200064B70B5FD
:10D1B000040003604068002804D005690CF0B0FD4D
:10D1C0002800F8E7200070BD24A20200064B70B5CD
:10D1D000040003604068002804D005690CF0A0FD3D
:10D1E0002800F8E7200070BD34A20200064B70B59D
:10D1F000040003604068002804D005690CF090FD2D
:10D200002800F8E7200070BDD0A20200064B70B5E0
:10D21000040003604068002804D005690CF080FD1C
:10D220002800F8E7200070BD70A30200FC3070B544
:10D23000046C0500002C0DD124200CF075FD064B6C
:10D2400044608361054B8460C46004614461C461CF
:10D2500003602864286C70BDD0A20200B8A302004D
:10D26000134B70B508330360124B0400C360802376
:10D27000114A451CFF355B00C25028000CF0D5FA5E
:10D28000280002F003FC20000C4BB830E360FFF7ED
:10D290009DFF2000AC30FFF789FF2000A030FFF792
:10D2A00075FF20006C30FFF761FF200070BDC046A5
:10D2B000E4A302005CA4020070A5020044A20200E4
:10D2C000F0B50500040087B0AC356B68AB60A868AA
:10D2D000002807D0C36821009847AB68002BF4D022
:10D2E0001B69F3E72500B0352868002804D00669DB
:10D2F0000CF016FD3000F8E72200032158321378B5
:10D3000028608B43137023005C33187020000A30B0
:10D310000BF0A1FB200034300BF09DFB606E002869
:10D3200004D005690CF0FCFC2800F8E725009835CE
:10D3300060662868002804D006690CF0F1FC300013
:10D34000F8E72600A43628603568002D05D02F693F
:10D3500028000CF0E5FC3D00F7E7290035600822C5
:10D3600002A80CF035FD01AE2300320001956C33AC
:10D3700083CA83C3094B08222900A367E56702A873
:10D380000CF026FD23000195803307CE07C328004B
:10D39000034A90341A60256007B0F0BD158702007B
:10D3A00007870200444AF0B50600C260A022434B42
:10D3B0000100083303601636002342820400320065
:10D3C00085B0037183600374838235311370013239
:10D3D0009142FBD1802580222000AD00D2011100B6
:10D3E000F377358438300093002300F089FE230062
:10D3F000210040331A0003932B0000255F31157084
:10D4000001328A42FBD1039A0321D5772200603290
:10D410001380137920008B431371230068331D7030
:10D42000274B0C22E3660021256778300CF0D0FCF6
:10D430002300270088331D60224B0837A567FB6750
:10D44000843700210C2238000CF0C2FC1E4B1F4A0E
:10D45000FB602300A0333D613D601A601C4A5D60A3
:10D46000DA601C4A1D619A61DD6130000BF0F3FA4D
:10D4700003980BF0F0FA184B601CE3602300C433F0
:10D480001D809D70FF3002F0EBFA8C235B00E550AD
:10D4900023001933FF335D618023104A5B00E250A3
:10D4A000230001222000FE3352425A86023B9D6334
:10D4B000DD631D6405B0F0BD44A20200E4A30200D8
:10D4C00004A20200158702000787020014A20200CE
:10D4D00024A2020034A202005CA4020084A502007F
:10D4E00070B5074D2B68002B07D1A02040000CF031
:10D4F0001BFC0400FFF756FF2C60286870BDC04677
:10D500000026002070B50C220D00002104000CF054
:10D510005FFC00232361024B20002560E36070BDA7
:10D520003B76020070B500250400254B29000360FE
:10D53000244B85808360244BC5604361234B856108
:10D540000362234B4562C362224B05638363C56359
:10D550004430FFF7D7FF200029005830FFF7D2FFF3
:10D56000200029006C30FFF7CDFF1B4B2200236009
:10D570002300F832803320C39342FCD126001D00E3
:10D58000E936FF3628000822002108350CF020FC7F
:10D59000AE42F7D18E2300229B00E11804C68E42D2
:10D5A000FCD18E2300219B00E2540C4B0C4AE31863
:10D5B000A218198002339342FBD1200070BDC046EF
:10D5C00030A30200E0A20200F0A2020000A30200C9
:10D5D00010A3020020A302002CA402003A020000C3
:10D5E0006202000013B504680093A46813000A00E7
:10D5F0000149A04716BDC046FFFF000037B506AC85
:10D600002578046801950093246913000A000149F4
:10D61000A0473EBDFFFF0000F0B587B016000DAA81
:10D620000D00147800216A46518069460CAA1288C0
:10D6300001930A80002C1AD101004279F831A242EC
:10D640000BD9E700CF5BB7421BD130212034A400B7
:10D6500022580132D27F0A4215D16A463100280091
:10D660000BF086FA0623002808D0032306E06A465A
:10D67000310028000BF07CFA031EF6D1180007B029
:10D68000F0BD0134DBE710210A4051424A4100203D
:10D6900005930CAB0493194B02AC01322680A270A7
:10D6A000A0809D4207D1FFF71BFF03681B699847C5
:10D6B0000BF0C4FD0500210028000BF05DFA0023EB
:10D6C00082B29A42DAD010000D4A05339042D5D08A
:10D6D0000FD801330828D1D0013B1128CED06A469B
:10D6E000310028000BF044FA05230028C6D0023B85
:10D6F000C4E7044A06239042C0D0F0E7FFFF0000D1
:10D700000330000001340000F0B5040099B00800B7
:10D710002E250C9100F078FC06ABED1812902A0033
:10D72000012012A90BF022FA002802D0032019B020
:10D73000F0BD2B880C9A0B9093830C9B0B9A1B7D4E
:10D74000934200D8C6E063791D2B01D90720EEE78C
:10D750000C9B9B690D930B9B0D9A9B009D586B69CD
:10D76000002B07D16B8B002B04D16B1CDB7F022BB2
:10D7700000D1AAE0280000F047FC2B000026283347
:10D7800012900E960D960F930F9B1B78B34221D9E2
:10D790006A6AB3009F58342206AB9B1800221A70A5
:10D7A0001300002113AA9A1801335170102BF8D1DD
:10D7B000462206AB9B184A4A38001A8013A90BF080
:10D7C00058FA002803D07B690D937B8B0E930136AA
:10D7D000F6B2D9E76179AB1C1F31C90061186A1C28
:10D7E000DB7FD27F089129002A3109780020079138
:10D7F00029002931097806910E9905910D99049116
:10D80000297F0391298B0291698B019169690091AC
:10D8100012A90BF0D9FD002800D087E76379070033
:10D820001A00203292001F331551DB001B5BEB8383
:10D830006379013363712B0028331B78BB4244D9D1
:10D840008E239B00E35C132B00D97FE76A6ABB0041
:10D850009E580023180013A90B705A1801335070FA
:10D86000102BFAD11E4B30004B820BF002FA0D90B8
:10D87000002827D1300000F0C7FB8E218900625CB0
:10D88000738B1E32FF325200A2180292327F129026
:10D890000192328B0D980092726912A90BF039FE39
:10D8A000002800D042E78E218900625C531CDBB265
:10D8B00063541D337A32FF3392005B001651E31834
:10D8C0005B88F3830137FFB2B5E70B980130C3B231
:10D8D0000B9332E7237900200133237127E7C046F9
:10D8E0000129000070B505000BF0E3F8041E1DD1FE
:10D8F00028007822210080300CF06AFA2800E930F4
:10D9000050222100FF300CF063FA28000822210089
:10D91000F8300CF05DFA064B2822E81821000CF0D4
:10D9200057FA8E239B00EC54200070BD0624FBE7C1
:10D930003A020000024B0B60092313607047C04697
:10D9400054B1020010B504000020FFF7C9FD0368C0
:10D950001B6998470300F3331C7086235B00C0509B
:10D9600003000021044AFC335A61044A99615A6257
:10D97000F4300BF06BFF10BDF39002000591020034
:10D98000012110B5054A080001F00EFF03005A1EE0
:10D9900093410B205B42184010BDC04645D90100A1
:10D9A000F0B593B0029000200C00FFF799FD0368DA
:10D9B0005B6A984700F048FA030006A8002B0DD0D8
:10D9C0000023037105AB0693082303730AAB83603E
:10D9D00000F004FB002803D013B0F0BD0371037303
:10D9E0000023237323710193029B019ABA331B789E
:10D9F00093423ED9072353431E00029ABB36D318E5
:10DA0000BB331B789619022B2CD1002506AF3B7B2C
:10DA1000AB4220D9AB000393089BAA003000995871
:10DA20000BF0A3FC00281AD0B868AB00C118237B08
:10DA3000A6689C469A000B68935163460133237392
:10DA40003B7B5A1E954204D00B4D5B199B001B5823
:10DA50000B6006AB1A73019B0133DBB2C3E70135E0
:10DA6000EDB2D3E7237921689A0001335650237130
:10DA7000F1E70020B0E7C046FFFFFF3F0200087853
:10DA800010B5012816D04B8803280ED1A03B0A4CB4
:10DA90009BB2A34208D880238C880320DB019C42E0
:10DAA00002D210000BF0CDFB10BD203B0320034C35
:10DAB0009BB2EEE70220F7E7603F0000E03F000086
:10DAC000F0B59DB01E006B4605005A70981C0622EA
:10DAD0005F1C02AC0CF060F9002E2FD0338823803D
