:020000021000EC
:1080000000400020F50102003102020033020200AC
:108010000000000000000000000000000000000060
:108020000000000000000000000000003502020017
:1080300000000000000000003702020039020200C8
:108040003B020200DDB50100F10802003B02020024
:108050003B020200000000000D0302003B02020090
:108060003B020200D90A0200790702003B0202002B
:108070003B0202003B0202003B0202003B02020004
:108080003B0202003B0202003B0202003B020200F4
:108090003B02020071E80100F1E901003B0202002D
:1080A0003B0202003B020200000000000000000052
:1080B00000000000000000000000000000000000C0
:1080C00010B5064C2378002B07D1054B002B02D0AE
:1080D000044800E000BF0123237010BDB020002041
:1080E00000000000D8BB0200044B10B5002B03D0E9
:1080F0000349044800E000BF10BDC0460000000076
:10810000B4200020D8BB0200164B002B00D1144B2A
:108110009D46402292029A1A924600218B460F46B3
:108120001348144A121A12F01AFB0F4B002B00D0FE
:1081300098470E4B002B00D09847002000210400E8
:108140000D000D48002802D00C4800E000BF0DF0E3
:108150007FFB2000290012F0F8F80DF063FBC04609
:1081600000000800004000200000000000000000A7
:10817000A8200020202900200000000000000000AE
:1081800010B50400034B036040300EF032F92000BC
:1081900010BDC046E0A90200FF2300B589B00093DE
:1081A000882200210B4803F0F3FD0B4907A801F0DA
:1081B00011FB782207A9094802F004FE07A80EF077
:1081C00018F9642001F00AF90122054B1A7009B070
:1081D00000BDC046F0240020F8B50200C0210020F8
:1081E0005C280020F0B58BB00290039109A83149BA
:1081F0000593049201F0EEFAC8222F4E520009A90D
:10820000300002F04DFD09A80EF0F3F82B4B1B785F
:10821000002B4CD00023FF27294D6622190028008F
:10822000009703F0B5FD274907A801F0D3FA264BC4
:1082300007A91C6809A80EF031F9210000240223C7
:1082400009AA08A804F0B6FE09A80EF0D2F8089B07
:1082500000225B8808A9023B1BB209A801F0FAFAC8
:1082600009A908A80EF022F909A80EF0C2F8230007
:10827000220039002800009403F08AFD08A909A80B
:108280000EF00CF9782209A9300002F09BFD09A834
:108290000EF0AFF82300220021002800009403F024
:1082A00077FD08A80EF0A5F807A80EF0A2F80BB00D
:1082B000F0BDC046FFB50200C02100205C280020B0
:1082C000F024002024B602000C250020F0B585B073
:1082D0001F000AAB1B880600150002910393002FB4
:1082E0001CD0282001F072F96B4604001989039B09
:1082F000AAB200933B000EF01AF833682100300058
:108300005B68984700280AD0002C05D020000EF0AA
:1083100024F8200001F074F9024800E0024805B09A
:10832000F0BDC04616FCFFFF17FCFFFF00220E4BFE
:1083300000B5FF211A70662389B01A0000910B481E
:1083400003F026FD0A4907A801F044FAC82207A94C
:108350005200084802F0A4FC07A80EF04AF80648AC
:108360000DF07DFE09B000BD5C280020F024002047
:1083700001B60200C0210020D420002010B506481C
:108380000EF07DFF0BF0F6FA044A054B0AF0BEFC36
:108390000BF0BAFA10BDC046C02100200EBE3099C5
:1083A0002A18D93F37B50321684607F047FF6424F0
:1083B0000025684607F086FF104909F0D1FA09F058
:1083C000B1FD7E2802DD854200DA0500013C002C6B
:1083D000EFD128000BF0CEFA094A0A4B0AF096FCBE
:1083E0000022094B0AF0FEFE0BF08EFA002801DA9B
:1083F00020003EBD6428FCDD6420FAE700007F43D6
:10840000333333333333E93F00005940F7B50121AB
:108410001E480EF05FFB0BF0ADFA04000D001B4888
:1084200001210EF06AFB0BF0A5FA06000F001748B9
:1084300001210EF075FB0BF09DFA220000900191D6
:108440002B00200029000AF061FC32003B000400F0
:108450000D00300039000AF059FC02000B0020002A
:10846000290009F001FE009A019B0D00040019008B
:1084700010000AF04BFC02000B002000290009F05C
:10848000F3FD0BF01BFF0BF03FFAFEBD982200201E
:10849000F0B58FB0F0490DA801F09CF978220DA934
:1084A000EE4802F08FFC0DA80DF0A3FFFF23009310
:1084B000CC3B1A000021EA4803F06AFC01220225A5
:1084C000E84BE9491A700B6803929B180B60E74C64
:1084D000E74909A8276801F07DF9FFF763FF01006C
:1084E0000AA80DF0A2FF0AAA09A90BA80DF0EDFF3A
:1084F000E04E0CA8310001F06DF90CAA0BA90DA8F3
:108500000DF0E3FF2A000DA938000FF0B6FE0DA80C
:108510000DF06FFF0CA80DF06CFF0BA80DF069FFBC
:108520000AA80DF066FF09A80DF063FFD24909A85B
:10853000276801F04FF9D1480FF0BAFA01000AA8F4
:108540000DF073FF0AAA09A90BA80DF0BEFF3100B8
:108550000CA801F03FF90CAA0BA90DA80DF0B5FF6E
:108560002A000DA938000FF088FE0DA80DF041FF7C
:108570000CA80DF03EFF0BA80DF03BFF0AA80DF074
:1085800038FF09A80DF035FFBD4909A8276801F09B
:1085900021F9FFF7F3FE01000AA80DF046FF0AAA31
:1085A00009A90BA80DF091FF31000CA801F012F9F8
:1085B0000CAA0BA90DA80DF088FF2A000DA9380000
:1085C0000FF05BFE0DA80DF014FF0CA80DF011FFCD
:1085D0000BA80DF00EFF0AA80DF00BFF09A80DF077
:1085E00008FFA84909A8276801F0F4F8A64801F097
:1085F0006BFE01000AA80DF018FF0AAA09A90BA832
:108600000DF063FF31000CA801F0E4F80CAA0BA9EF
:108610000DA80DF05AFF2A000DA938000FF02DFE0D
:108620000DA80DF0E6FE0CA80DF0E3FE0BA80DF072
:10863000E0FE0AA80DF0DDFE09A80DF0DAFE934970
:1086400009A8276801F0C6F8039991480EF042FA8C
:1086500001000AA80DF0E9FE0AAA09A90BA80DF06D
:1086600034FF31000CA801F0B5F80CAA0BA90DA835
:108670000DF02BFF2A000DA938000FF0FEFD0DA80C
:108680000DF0B7FE0CA80DF0B4FE0BA80DF0B1FE76
:108690000AA80DF0AEFE09A80DF0ABFE7D4909A8B1
:1086A000276801F097F8039979480EF026FA01003F
:1086B0000AA80DF0BAFE0AAA09A90BA80DF005FF39
:1086C00031000CA801F086F80CAA0BA90DA80DF03A
:1086D000FCFE2A000DA938000FF0CFFD0DA80DF00B
:1086E00088FE0CA80DF085FE0BA80DF082FE0AA8EE
:1086F0000DF07FFE09A80DF07CFE674909A82768E8
:1087000001F068F8039962480EF00AFA01000AA81D
:108710000DF08BFE0AAA09A90BA80DF0D6FE3100B8
:108720000CA801F057F80CAA0BA90DA80DF0CDFE6E
:108730002A000DA938000FF0A0FD0DA80DF059FE7C
:108740000CA80DF056FE0BA80DF053FE0AA80DF074
:1087500050FE09A80DF04DFE504909A8276801F008
:1087600039F8FFF753FE01000AA80DF05EFE0AAAD1
:1087700009A90BA80DF0A9FE31000CA801F02AF8F8
:108780000CAA0BA90DA80DF0A0FE2A000DA9380017
:108790000FF073FD0DA80DF02CFE0CA80DF029FEB6
:1087A0000BA80DF026FE0AA80DF023FE09A80DF077
:1087B00020FE3B4909A8276801F00CF834480EF068
:1087C00029FA01000AA80DF030FE0AAA09A90BA88F
:1087D0000DF07BFE31000CA800F0FCFF0CAA0BA9E9
:1087E0000DA80DF072FE2A000DA938000FF045FD0E
:1087F0000DA80DF0FEFD0CA80DF0FBFD0BA80DF073
:10880000F8FD0AA80DF0F5FD09A80DF0F2FD002312
:10881000039A21680DA80FF00BFD224C0DA9200032
:108820000DF044FE0DA80DF0E4FD21000DA80DF0A3
:1088300035FE78220DA9094802F0C4FA0DA80DF002
:10884000D8FD142000F0CAFD064B1B78002B00D089
:108850003DE60FB0F0BDC04681BB0200C021002044
:10886000F02400205C280020CC2000200C250020D3
:1088700003B6020006B6020009B602004C2300202F
:108880000CB602000FB60200FC22002012B6020055
:108890009822002016B602001AB602001EB6020088
:1088A00022B60200D0200020084A03000020934294
:1088B0000BDB1A000130F93207DB0130FA2B04DD43
:1088C000034A0130934200DD0130704713FDFFFF82
:1088D000EE020000F0B53226012787B0124C3900B5
:1088E00020000EF0F7F8FFF7DFFF390001902000BD
:1088F0000EF003F9FFF7D8FF0C4D040028000DF02F
:1089000049FE6B4622B20421595E2800FF2300F085
:10891000EBFF013E642000F061FD002EDED1280057
:108920000DF038FE07B0F0BD982200203422002060
:10893000F7B5294EFA27300000F09AF9274801F0E0
:10894000C3FCFF2110240B000A000091244803F00F
:108950001FFA244DBF00390001222800224B009449
:10896000FFF7B4FC390002222800204B0094FFF7E7
:10897000ADFC0322012128001D4B0094FFF7A6FC4B
:108980000322022128001B4B0094FFF79FFC0322C7
:108990001A21194B28000094FFF798FC1C2000F0C6
:1089A00015FE202305003037F1591A0004F02CFA87
:1089B000124B20001D6000F009FEF159104A04F02E
:1089C00023F91C2000F002FEF159044A03F0E8FFED
:1089D00000F080FD0020FEBDD4200020FC220020FD
:1089E000F0240020A4210020918401002D830100A7
:1089F000E5810100D5880100998101000C25002046
:108A00004C23002070B50A4C200000F05FF8094D9F
:108A100020002A00084911F043FE084C08492000B4
:108A200000F0D8FE2A002000064911F039FE70BD82
:108A3000D420002000200020498A0100D0200020FE
:108A400008B60200F3630200862310B50400DB00C1
:108A5000C01803F04FF81B4BE01803F023F9F42380
:108A6000194A9B00E2501C33E0180DF0C2FCFA23B7
:108A70009B00E0180DF0BDFC8A239B00E01801F07C
:108A80008BFA2000C530FF3001F092F820008D30C5
:108A9000FF3001F049FA20006530FF3001F044FA60
:108AA0002000EC3001F014FF2000D03002F00EFC6A
:108AB0002000643007F0E8FA201DFFF761FB20007A
:108AC00010BDC0461C0400007CAB0200F0B51425AC
:108AD000040097B019222B0000951821043002F0F1
:108AE000CDFD23002700260064331800B43713217E
:108AF0001393B83607F0D4FA38000EF07FFF290040
:108B0000132230000EF0CFFB2000D03002F0FEFB2D
:108B10002300EC3306211800514A149301F000FFA2
:108B2000200000236530009301331A001121FF302B
:108B300001F006FA200000238D300093022210215C
:108B40000133FF3001F0FCF92000B5301A23022276
:108B50000121FF3002F098FC2200C532FF32129250
:108B6000310004231822129801F02EF88A22920074
:108B7000A218159205231D223100019300923B009B
:108B8000129A159801F00CFC9B229200149B1599E7
:108B9000A018129A01F0D8FD9E2292003900A01868
:108BA0001C2202F099FE3223A4221093193B0F934A
:108BB000013B0E93013B0D93013B0C93013B0B9347
:108BC000023B0993023B0793013B0693013B05934C
:108BD000013B0493013B0393013B0293013B0A9544
:108BE0000193023D9200013BA01800930822013B33
:108BF000072108950EF05FFBF42292003900A018BF
:108C000003F084FBFC229200A0181D2102F082FCDC
:108C100083230026DB00E650124B28222900E018AF
:108C200003F0D8F88623DB00E01802F0FDFF13986C
:108C30000321267011F05DFA2300220020000A496A
:108C40009C33A0321C6011605660084A02215A61B0
:108C50008030012207F00CFC200017B0F0BDC046A8
:108C6000E8A902001C0400005F600200916002009D
:108C7000F0B502780123170004008BB01F401A42A0
:108C800000D0A9E0C530FF300DF080FD2300D033C7
:108C90001800039300F064FA00F092F9282000F025
:108CA00095FC050010300DF033FC4C4B18202B6068
:108CB00000F08CFC06004A4B082208933900099703
:108CC00004600C3011F04BFD08A90822301D11F092
:108CD0002AFD444B2900736112230398AE60EF60B4
:108CE000AB802F626F6202F089FA002805D028005D
:108CF0000DF033FB280000F083FC012500272378CA
:108D000064202B43237000F069FB0595260065362F
:108D1000FF3630000DF08CFF00283CD020008D3055
:108D2000FF300DF085FF002835D00A2F33D06420A6
:108D3000013700F053FB0A2FE8D1F4239B00E5181C
:108D40004833E3580493002B1ED100F059F801007A
:108D500007A800F03FFD08A80DF0FEF9059B08AA42
:108D600007A928000093039B03F028FB08A80DF037
:108D700040FB07A80DF03DFBF6239B00E35804934E
:108D80008323049ADB00E250210032002800EC31FA
:108D900003F0A6FCBAE78325ED006659002E1BD12F
:108DA00000F02EF8010007A800F014FD08A80DF04F
:108DB000D3F9F4239B00E01808AA039B07A90096A7
:108DC00003F0FCFA08A80DF014FB07A80DF011FB46
:108DD000F6239B00E35863510BB0F0BDFD03000088
:108DE000E7600200A7600200BFF34F8F024B034A07
:108DF000DA60BFF34F8FFEE700ED00E00400FA05F4
:108E0000F0B58BB002ABDF1D19223800144911F008
:108E10008AFC0023134D05266B7180235B055B6E76
:108E20002C000093012301933100009807F0FEFF0E
:108E30000800019907F074FF0522009B56431B1A96
:108E40000093019B534301932B1B5343FB181B5C63
:108E5000013C6371044B9C42E6D102480BB0F0BD6B
:108E60005CB602005D28002058280020F0B595B0BF
:108E70001822002104000EA811F071FC13210EA885
:108E800011F041FA03210EA811F0E8FA464B1B68D5
:108E9000002B00D10133DBB2009300210123434AB0
:108EA00009A807F055FCFA239B009C429B411C40FB
:108EB00072B63F4B64211E683E4B2000059305258A
:108EC00007F0B8FF6843503030180A2106902000A0
:108ED00007F0B0FF0A2108F093F869435031711888
:108EE000200007910A2108F08BF84D435035761980
:108EF000089680260024B601009B002B52D004ADBA
:108F00000027032C02D180260024B6016B682A4A70
:108F100002936300D3180022019258780299095CE9
:108F2000039119788C461021604601410398014253
:108F300004D0012090400199014301910132063390
:108F4000092AEAD1019B2A68D9431C4B090119401F
:108F5000029B934224D1312F22DC002109A811F079
:108F60003DFBFA23139A0F99DB001068014219D0D8
:108F7000013B002BF9D1FA23013401377600E4B22A
:108F80005B009F42BDD1043508ABAB42B8D1064B64
:108F90001B68002BB0D0009B013BDBB20093ABE71A
:108FA0003143DBE7FFF720FF14250020F0FF00002E
:108FB00004200020ABB6020075B60200F01F0000CE
:108FC000F8B50023124C23600DF0E7F8002808D014
:108FD000042120000DF0DDF8002801D00D4B2360A6
:108FE000F8BD0122A12704250B4B0C491A60226809
:108FF000FF0048604E68002EFCD0DE591202013D91
:109000003243002DF5D1226001225A60E8E7C046C4
:1090100010250020ED5EBC0B00D00040FCD00040CD
:109020000B4B70B51C68002C10D0656D00F08EFBEA
:10903000A36C002901D1834206D820000DF0E0F88E
:10904000200004490DF0CAF82C00ECE770BDC046C2
:109050001C2500203C250020F0B593B007932A4B37
:1090600004AC1E68049005910692002E49D0274B4F
:10907000258867881C6800230293002C2DD0636D1F
:1090800023480393A36C190C9AB20B00854214D1A8
:109090002048824211D1002901D0B9420BD1029B54
:1090A000002B08D120000DF0ABF820001A490DF07C
:1090B00095F801230293039CDFE7002A01D0954233
:1090C000F9D1002901D0BB42F5D120000DF098F86C
:1090D000200011490DF082F8EDE7104BEB18012B41
:1090E0000FD910233A002900009308A80C4B0DF06B
:1090F0001EF9336830009B6808A9984708A80DF04E
:109100002CF913B0F0BDC0461825002048250020DA
:10911000FE030000FF0300003C25002002FCFFFFCF
:109120005990010010B572B60B4B1C68002C08D08A
:1091300020000DF065F80023E364084B2000E36392
:1091400010BD62B65C2011F0B6FA5C22002104006A
:1091500011F005FBEFE7C04640250020004000204D
:10916000F7B51E4C0123227816001E401A4233D157
:109170001B4D2860FFF7D6FF1A4B1B4918600DF0F6
:109180002DF8FFF7CFFF194B1860194B4363194BAC
:109190008363286800280FD0C023174F3200174977
:1091A00000933B00FFF792F8C023009332003B008E
:1091B00013492868FFF78AF80C2011F07CFA002385
:1091C000838083710F4B03600F4B836000F0D6FAEE
:1091D0000123227813432370F7BDC0466328002083
:1091E000182500204C2500203C2500204425002087
:1091F000FC3F00209962020059900100FF0300002B
:10920000FE03000008AA020021900100024B18781A
:10921000012318407047C04663280020F7B50600B8
:109220000D0017000193002802D100242000FEBD8C
:109230000029FAD0FFF776FF041EF6D0074B019AFB
:1092400043630660064B45608760002A00D0054BEB
:1092500020000549A3630CF0C1FFE7E7FC3F0020B5
:1092600073620200816202003C25002070B5074B4A
:109270000E0011001A7805000123100018401A4250
:1092800003D032002800FFF7C9FF70BD632800201B
:10929000024B1868434258417047C0463C250020A5
:1092A0000300002210B5044994006058002801D042
:1092B0000132F9E7635010BD24250020002310B5CA
:1092C000044A99008C58844201D00133F9E7002008
:1092D000885010BD2425002010B50024084BA200A2
:1092E000D058002802D003685B6898470134062CE8
:1092F000F4D1044B1B68002B00D120BF10BDC04629
:10930000242500203C2500200122F8B52C4B1B7899
:1093100013421CD02B4D2C68E36C134218D002274B
:109320003B43E364284B1E680423F26C3000134374
:10933000F364636BF3630CF07AFF3000716C04F03C
:1093400050F82868C36C3B4201D004F084F8F8BDA3
:109350001E4F1F4E3A683068002A0AD128601B074A
:1093600012D52C60FFF7B8FF3B68002BFAD02B60BA
:109370000AE0216DB94219D1616D002900D11100B7
:1093800029602A688242EAD029688C42DFD033689B
:1093900099420DD10F4B4B630F4B8B6320000CF0A8
:1093A00046FF296820004B6C626C06E02A60E8E703
:1093B0009C42F3D1002210004B6C03F0D1FFC6E7B2
:1093C000632800204C250020202500203C2500207B
:1093D00044250020FC3F00209962020070B5114B2B
:1093E00004001A7801231A4202D111F030F870BD3E
:1093F0000D4A1568EA6C1A4206D0FFF793FE0B4B34
:109400001860002800D0050000F0A0F92418AC6412
:1094100028000CF0F5FE280005490CF0DFFEFFF7F0
:1094200073FFE4E7632800204C250020202500205E
:109430001C250020F0B51E4B1E4F1E683B6885B0F2
:1094400005000391002B31D01B4B1A7801231A42DF
:109450002CD0F26C1A420ED0FFF764FE174B041E9C
:10946000186008D00CF0CCFE200015490CF0B6FEB8
:109470002600FFF749FF039B30001B042B43B36416
:109480000CF0BEFE30000F490CF0A8FE0E4B00247D
:10949000EB18012B07D9C023009329000B4B039A2B
:1094A0003868FEF713FF200005B0F0BD084CFAE75E
:1094B0004C250020182500206328002020250020AE
:1094C0003C2500204825002002FCFFFF59900100A8
:1094D00016FCFFFF10B5074B1B78DB0709D5064CC0
:1094E00020680CF08DFE054920680CF077FEFFF730
:1094F0000BFF10BD632800204C25002040250020D4
:1095000010B5034B1B78DB0701D5FFF7E3FF10BD58
:1095100063280020F7B505000C00002833D0012691
:109520001B4B1B78334230D01A4F07233868C26C6C
:109530001100194000911A4207D021002800164A54
:10954000FFF794FE00252800FEBD03F06CFF3A688B
:109550000221D36C1800084001900B4203D0013166
:109560008B43D364EEE73343D3642000A8473A68C3
:10957000019DD36C1900B143D1645B07E3D5200092
:10958000FFF7BEFFDFE7054DDDE7054DDBE7C04632
:10959000632800204C2500200195010017FCFFFFE7
:1095A00016FCFFFF020010B5014B12CB12C210BD1A
:1095B00050250020034B1A68034B1A607E225A6024
:1095C0007047C046042000205025002070B50400DC
:1095D0000025094B1B78AB4209DD0849EB00200050
:1095E000C9180CF05FFE002804D10135F1E7200016
:1095F0000CF052F970BDC0466428002058250020A8
:1096000010B5002811D000220B4B19780B4B91425A
:109610000FDD1C68844209D25C68844206D980232D
:10962000043802681B061343036010BD013208337F
:10963000EDE70CF03BF9F8E76428002058250020FE
:1096400070B5051E14DD0B4E0B4C3368002B02D099
:10965000206810F0B1FDFA2120680024074B890032
:109660008361C4626943356010F0B7FD200070BDAE
:109670000348FCE768250020982500202997010071
:1096800017FCFFFFF8B5114F05003E68002E0AD108
:10969000302011F010F8040006F06AFD0C4BA661B2
:1096A0002360E6623C600B4E3368002B09D110202A
:1096B00011F001F8040010F0DCFD2000346010F01F
:1096C000B2FD2800FFF7BCFFF8BDC046982500207A
:1096D00000AF020094250020014B18687047C04677
:1096E0006825002070B50D4C2368002B03D00C4B6F
:1096F0001B68002B02D10620FFF7C4FF206810F082
:10970000A9FD02000749C3170D684E68521973413D
:1097100020680A604B6010F0A3FD70BD9425002006
:1097200098250020A820002010B5FFF7DBFF0024BB
:10973000054BA200D058002802D003681B68984748
:1097400001340A2CF4D110BD6C25002010B5FFF7B0
:10975000C9FFFA22034B920018685968002307F0EA
:109760008FFC10BDA820002010B5FFF7BBFF024BF7
:109770001868596810BDC046A82000200B4B10B5D2
:109780001B680400002B03D0094B1B68002B02D17F
:109790000620FFF777FF0023064A99008858002823
:1097A00001D00133F9E78C5010BDC046942500204C
:1097B000982500206C250020002310B5044A99004C
:1097C0008C58844201D00133F9E70020885010BD45
:1097D0006C25002010B50400002902D00B78002B66
:1097E00003D1034B2360200010BD0CF009FEFAE703
:1097F00018AA0200F8B504000E00150000290AD0CE
:109800000B78002B07D0002A05D0080097B210F083
:10981000E6FF874203D90B4B23602000F8BD681D8B
:109820000CF03AF820600CF079FF20682A0047809D
:109830003100043010F077FF23685D1900232B718D
:10984000EBE7C04618AA0200014B03607047C04610
:1098500018AA020070B50968160002228C5E050085
:10986000A64206DB084B186828600CF05AFF280057
:1098700070BDA41B9C4200DD1C000431280022B2F4
:109880008919FFF7B7FFF2E79C25002010B50548BE
:10989000054C20600CF045FF2000044A044910F0FC
:1098A000FFFE10BD18AA02009C2500200020002009
:1098B000F3630200084B73B51D680400002D0AD045
:1098C00001002E6808220831684610F02CFF0CCCED
:1098D00028003168884773BDA0250020014B036034
:1098E0007047C04620AA020030B500684488A142F3
:1098F0000CDA8588AA4209DA002907DB002A05DB91
:109900006243401880188371002030BD0048FCE796
:1099100017FCFFFFF0B507000E001D0085B0002901
:1099200021DD002A1FDD002B1DD00468638803930E
:109930008B4200DD0391A3880293934200DD0292E3
:10994000002306340193019B029A93420ED0290012
:109950002000039A10F0E7FE3B68AD195B88E4181D
:10996000019B0133EEE7024805B0F0BD0020FBE7A4
:1099700017FCFFFFF8B504000D0016001F000029BA
:1099800001DB002A02DA0D4B2360F8BD10004843CA
:1099900006300BF081FF20600CF0C0FE23685D8074
:1099A0009E80002F06D03B00320029002000FFF7E8
:1099B000B1FFEAE720000CF0EDFDE6E720AA020087
:1099C000F7B507000D1E03D1244B03603800FEBD20
:1099D000002408002600210001940378002B1AD0EF
:1099E0003022524294469C446246092A11D90A2BDD
:1099F0000AD1019B361901330193B14200DA3100DB
:109A0000002426000130E8E7002CFBD000240136BA
:109A1000F8E70124F6E70126019A380012B209B2EC
:109A20007642FFF7A7FF31000A203B689A1D2C7889
:109A3000002CCBD02300303B092B08D8F343DB1795
:109A4000334043431B19303B1E000135EFE7002E26
:109A5000FBDB16700E000132F7E7C04620AA0200B9
:109A6000F0B5050087B004A816001C000F00FFF732
:109A700099FD2B685A88964235DA9B889C4232DAE7
:109A80001F2F30D9059B01939F422CDC0521794380
:109A9000049BA0395B1801932300621D0392019A75
:109AA0001278029200222C68B7186088B8420DDD47
:109AB000A1888B420ADAE41910271741584302990A
:109AC00024180F40781E87417F42A7710132052A72
:109AD000E9D1019A013301320192039A9342DED116
:109AE000002007B0F0BD0148FBE7C04617FCFFFFB0
:109AF000F7B5036806009F1D5B880D005A1A019296
:109B0000002919DD0024994203DB0CF043FD0020FD
:109B100013E033689B889C42F9DA79193800019A7E
:109B200010F001FE019B2900F8180CF025FD3368A8
:109B300001345B88FF18ECE70048FEBD17FCFFFF0F
:109B400010B50548054C20600CF0EBFD2000044AE0
:109B5000044910F0A5FD10BD20AA0200A425002094
:109B6000002000206B65020010B5054C012120008B
:109B70000CF0CBFD2000034A034910F091FD10BD0D
:109B8000A825002000200020C9660200074A030023
:109B900010B50120934208D0834202D00020DB0799
:109BA00003D41E20FFF762F9002010BDFFFF000064
:109BB00010B50400034B08330360FFF77FFB200060
:109BC00010BDC04628AA0200F7B507000025040012
:109BD00001931A4B143708330E00858029008571D4
:109BE0000360C581056100923800182210F0B7FDAE
:109BF0003800152110F087FB019B2200A380009BF9
:109C00000E21238114236381123BA571A563A587CF
:109C100023733E32137826638B431370084B012263
:109C2000E364084B20002365230054331D70064B6A
:109C30006364230048339D701A80FEBD28AA020089
:109C400000000A030003030101000100F7B504004E
:109C50000CF0FFFE0E22A35E7A4F5B42BB4251DA4C
:109C600023003E331B789B074CD50125210028009B
:109C70003E310B785A08904302000220AA408343E9
:109C800013430B7020000CF0E4FE1022A35E5B4235
:109C9000BB4248DA23003E331B785B0743D50125DE
:109CA000210028003E310B789A089043820004205E
:109CB000834313430B70260020000CF0CAFE1222CF
:109CC000A35E4A36BB423EDA23003E331B781B07B5
:109CD00039D5210001223E310B78D8088243082073
:109CE000D200834313430B703378032B3BD80133EB
:109CF000DBB23370012B00D08EE0230000224C3306
:109D00001A8030E020000CF0A4FE0E22A35EC822D0
:109D10005B42002552009342B4DD23003E331B78A2
:109D20009B07A2D5AEE720000CF093FE1022A35EA5
:109D3000C8225B4252009342BDDD23003E331B78B4
:109D40005B07ACD5B7E720000CF083FEC8231221D7
:109D5000625E5B009A4204DD23003E331B781B07E2
:109D6000B7D5002DC0D133780193002B14D020003B
:109D700027004C3003883E3701339BB203803A788A
:109D80000125110029402A4254D01D2B04D900235B
:109D9000AA433A700380337020000CF087FE2A4AF1
:109DA0000723904244DD20000CF053FE0E23E25EB8
:109DB000264E52420323B2423ADBC82520000CF063
:109DC00048FE0E23E25EAD0052420423AA422FDC7D
:109DD00020000CF03EFE1023E25E02235242B2420B
:109DE00026DB20000CF035FE1023E25E01235242F8
:109DF000AA421DDC20000CF02CFE1223E25E06239A
:109E0000B24215DB20000CF024FE1223E25E002398
:109E1000AA420DDD05330BE0042BA4D122003E3213
:109E20001178033B0B43137000234C3423800C3315
:109E30001800FEBD092BAFD901800199013931709D
:109E4000AAE7C04670FEFFFFFF700200E0FCFFFFC4
:109E5000F0B5C369C1681A68451D0400EB7F89B07D
:109E6000114225D0002B57D10123A2791A4237D0B5
:109E7000002602226846A188A6710CF053FBA31DA0
:109E8000DD7F012D2CD1FFF761FC3300226A801A9F
:109E900099410F000600A1889F4203D1FA239B003D
:109EA0009E423BD30123042204A80CF03BFB17E0A5
:109EB0000B2B01D80133EB77EB7F082B0DD9012257
:109EC000A37913420CD11343A188A37104A81300F2
:109ED0000CF028FBFFF73AFC2062EB7F012BC3D983
:109EE0000322A3791340012B14D1FFF72FFC002389
:109EF000226A801A9941994202D10A4B984209D9A3
:109F00000223A279A1881343A3710522012304A887
:109F10000CF008FB09B0F0BD013BCCE72B0003229D
:109F2000C2E7C046DB05000010B50400034B083350
:109F30000360FFF741FC200010BDC04640AA0200AC
:109F4000F0B5060000250F00040085B002930AABAF
:109F50001B78083603930F4B2900083303600192E6
:109F6000858085711822300010F0F9FB390030002F
:109F7000039A10F0CDF9019B029AA380A31DE7710B
:109F8000DA77631D25622000DD77FFF7F7FB2000FD
:109F900005B0F0BD40AA020010B50400034B083321
:109FA0000360FFF78BF9200010BDC04658AA0200DD
:109FB000F0B587B004AC08230F00422210210094B2
:109FC00005000CF06BFEA3790020DA0700D48BE0CB
:109FD00062782678E17812021643A27809020A43D1
:109FE00012B2D2100292627920791202104300B2AA
:109FF00042100392E47936B224021C43AB1CD98F81
:10A00000F610A4108803002C00D0210006F012FFE7
:10A01000364B2A00C01800B20300002143433F32F0
:10A020005156DB11013A4B4311788022C901484354
:10A030001B185B12520399182B0034331B785BB248
:10A04000A0334B431B135E432B0032331B78761334
:10A050005BB2DB00F6183E80AE1CF18F8803002C4B
:10A0600000D0210006F0E6FE204B2A00C01800B206
:10A070000300002143433F325156DB11013A4B4369
:10A0800011788022C90148431B185B1252039918AA
:10A090002B0035331B78029A5BB2A0334B431B1362
:10A0A0005A4353132A003332127852B2D2009B180B
:10A0B0007B803C22AB5E039A3A21685ED31A3E2134
:10A0C000725EDB03A21A50438010181AEB8E6100F7
:10A0D000594380231B02C9183823EC5E091409195F
:10A0E00006F0A8FEB880012007B0F0BD00C0FFFF59
:10A0F000D0B504000CF0EBFDE268A369981A09F0F2
:10A1000039FC06000F002369E069C01A09F032FC2F
:10A1100032003B000AF0CEF80022104B08F0F6FDAA
:10A120000F4A104B08F00AFB09F09CFC0021041CAC
:10A1300006F07EFF002804D0201C0B4907F0AAF887
:10A14000041C201C09F046FC02000B0000200749FB
:10A1500009F048F809F0D8FBD0BDC0460080664041
:10A16000EA2E4454FB2109400000B44300807640AD
:10A17000F0B5040085B0806A0CF043FD061CA06AAF
:10A180000CF036FD0221071C20000CF03DFE0221E0
:10A19000039020000CF04AFE07F0E4FE80231B062B
:10A1A000C2180221200001920CF052FE07F0DAFEE4
:10A1B000041C301C0AF040F8051C301C0AF000F8A2
:10A1C0000290381C0AF038F8061C381C09F0F8FF19
:10A1D000071C039807F0C6FE80231B06C018391C15
:10A1E00007F0BEFB311C071C019807F0B9FB291CC6
:10A1F00007F0B6FB011C381C07F04CF8311C071C9B
:10A20000201C07F0ADFB029907F0AAFB011C381CCB
:10A2100007F040F8291C061C201C07F0A1FB02993E
:10A22000041C019807F09CFB011C201C07F0B2FCE9
:10A23000311C0AF0A7F80D4907F092FB09F0CAFBA0
:10A240000B4A0C4B08F07AFA09F00CFC0021041CB4
:10A2500006F0EEFE002804D0201C044907F01AF88E
:10A26000041C201C07F05EFE05B0F0BD0000B443E6
:10A27000EA2E4454FB2119407FB50425837904005C
:10A280002B421BD102260CF022FDA3790622B343F8
:10A290002B43A37168460123A1880CF043F9A379ED
:10A2A0001A003340581E83415842FB239B0018403C
:10A2B000034BAA43A271C01804B070BD0148FBE76C
:10A2C00014FCFFFF15FCFFFF10B5837904005A074B
:10A2D0000DD49B0701D4FFF7CFFFA36A2000002B0A
:10A2E00002D0FFF745FF10BDFFF702FFFBE7014873
:10A2F000F9E7C04615FCFFFF70B5C66A86B001AC31
:10A30000050001916260A360002E0CD00B4905A8E6
:10A31000FFF760FA0C232200300005A90DF0A9FB1D
:10A3200005A80CF066F82B000C3307CC07C30223FA
:10A33000AA791343AB7106B070BDC0468BB802005A
:10A34000642330B5040085B08180028143810CF024
:10A350008BFD0222A37920009343A3710CF0E1FC52
:10A36000E06A002813D00D490DF04EFB051E0ED0FB
:10A3700001000C22103101A810F0D5F9200001993C
:10A38000029A039BFFF7B8FF280010F090F9012311
:10A39000A2791343A37105B030BDC0468BB802004B
:10A3A000F8B504000E0000201700E36201230B4DF6
:10A3B00006AA083507A9A080A0712560E060206189
:10A3C0006061A061E061206266622000A76212887D
:10A3D00009882386FFF7B4FF2000F8BD58AA0200C1
:10A3E00082B0F0B50400A5B064202B932A9210F03F
:10A3F0002EF804220C2109A803F08EF82422CD495E
:10A400001BA810F090F9052206A811000CF0CBF85B
:10A41000C94907A8FFF7D4FAA06800F079FBA5683E
:10A42000C64918A8FFF7D6F97822280018A900F025
:10A430009FFC18A80BF0DDFF6E256420013D10F095
:10A4400006F8002DF9D1A06800F062FBA0680CF0BE
:10A4500011FF012160680CF03DFB012107006068DD
:10A460000CF04BFB06000A20FEF7B8FF0022B44BAD
:10A4700004929F4210DB013204923A00C8320BDB97
:10A48000C822042192000491974205DC0322049221
:10A49000C82F01DC013A0492002203929E4210DB95
:10A4A000012303933300C8330BDBC82304329B0022
:10A4B00003929E4205DC03230393C82E01DC013B7B
:10A4C000039306A80CF066F81BAF00233E0005932B
:10A4D000B378002B05D0FF237278317806A8FFF7F8
:10A4E00003FA059B0336013305930C2BF0D16B4621
:10A4F0000C229A5E6B4606A81021595EFF23FFF7D7
:10A50000F3F90023A0681A000093743006A90CF038
:10A5100051F83B00243305933B78049A934234D19D
:10A520007B78039A934230D1BE78002E2DD1310032
:10A5300020680CF069FC07F015FD3200031C2900AF
:10A5400009A80DF0DDFE310020680CF06FFC07F06B
:10A5500009FD0122031C290009A80DF0D1FE3100DC
:10A5600020680CF075FC07F0FDFC2900031C02229A
:10A5700009A80DF0C5FEFE2329009B05032209A8AA
:10A580000DF0BEFE0123BB70ED18059B03379F4203
:10A59000C2D16420FEF722FF0B2D00DC59E709A889
:10A5A0000DF09AFE012201000CA802F0B5FF002573
:10A5B00009A80DF091FEA8423CDD2900002209A85F
:10A5C0000DF08CFE00222900061C09A80DF086FE65
:10A5D000011C301C07F0C4F92900061C012209A83F
:10A5E0000DF07CFE01222900071C09A80DF076FE63
:10A5F000011C381C07F0B4F9311C06F04BFE290091
:10A600000222061C09A80DF069FE02222900071C7F
:10A6100009A80DF063FE011C381C07F0A1F9311CDC
:10A6200006F038FE2900031C00220CA80DF068FE7D
:10A630000135BDE709AA1100012318A80DF07AFE23
:10A6400018A90FA80DF0D4FE18A80DF06AFE0CAAE8
:10A6500009A912A801230DF06DFE002312AA0FA96B
:10A6600015A80DF067FE002215A811000DF036FEAA
:10A670000022061C012115A80DF030FE0022051C49
:10A68000022115A80DF02AFEFC21071C8905301CAB
:10A6900007F066F907F046FCFC21060018908905D2
:10A6A000281C07F05DF907F03DFCFC21050019901E
:10A6B0008905381C07F054F907F034FC2A00030020
:10A6C00031001A902068FFF717FEA0680CF0D2FD49
:10A6D00007A908A8A5680BF055FF0022194B0092A6
:10A6E00008A901932800130000F0B0FA08A80BF0A5
:10A6F0003CFFFA2080000FF0AAFEA0680CF0BAFD23
:10A7000015A80DF00EFE12A80DF00BFE0FA80DF00F
:10A7100008FE0CA80DF005FE07A80BF026FF06A802
:10A720000BF023FF09A80DF0FCFD25B0F0BC08BC20
:10A7300002B01847E9B8020096B80200DBB8020080
:10A74000E0FCFFFFDC050000F7B583601D4B050052
:10A750001F6801604260002F31D028200FF0ABFF4E
:10A76000040010300BF0D4FE174B182023600FF0BC
:10A77000A2FF00220600154B00210192056008325D
:10A780000C3000930FF0EBFF08226946301D0FF0EC
:10A79000CAFF0F4B00227361C223A3803B68E260B3
:10A7A000210038005B68A660226262629847002838
:10A7B00005D020000BF0D1FD20000FF078FF28001D
:10A7C000FEBDC046A025002005000600E1A3010053
:10A7D000236F0200F0B5040085B0637A9C46002B1D
:10A7E00004D120000CF0C8FB05B0F0BDA37A266FA1
:10A7F00001931023019AF35600259B1801229A40D9
:10A800002900F36803920293029BAB4231DDB068EA
:10A81000019B6843C01873694000E77A1A181B5CF3
:10A820005078E279012F14D1571E3F1A18003B00CF
:10A830004243606F52008218D2189379634500DD5D
:10A840006346627B1A4202D00123AB4019430135B3
:10A85000DAE7022F07D0032FEAD1277A013FFF1A48
:10A8600003003800E4E7571EFB1A277A013F381A25
:10A87000DEE71123C943F356606C99402369194000
:10A88000039B19430FF0AAFEA27B072AACD8637B77
:10A890000C495B006373531CDBB290004158A373F7
:10A8A000022A03D808000FF0C7FD96E7064B2000E8
:10A8B000236300236363054BE462236414300FF0C9
:10A8C0008CFC91E770AA0200D5A70100636F02001B
:10A8D00070B50400104B250008330360FEF76CFFD1
:10A8E000200074300BF041FE200060300BF03DFE84
:10A8F000200058300BF07DFD200050300BF079FD2A
:10A90000064B1435280063610FF056FC280005F053
:10A9100045FC200070BDC04690AA020000AF0200B6
:10A92000F8B500250400324B85800833036085713B
:10A93000143016000F0005F01BFC20002D4BE562C3
:10A94000636125645030FEF77FFF20005830FEF72A
:10A950007BFF20006030FEF7C1FF20000423F25E81
:10A9600033682667590009B274300BF01CFE336857
:10A97000226FE37173680126237210236581A7801B
:10A980002561D35691685918994204DD30009840EA
:10A9900001330543F8E711230120D356D168591834
:10A9A000994206DD02009A40266901333243226152
:10A9B000F6E714200FF07FFE226900212A430123CD
:10A9C000060005F0C5FEFF23220063720133A38158
:10A9D000002348326664A37320001370A366FEF759
:10A9E000CDFE0123A27920001343A371F8BDC04618
:10A9F00090AA020014AF0200F0B5437A040085B0BB
:10AA0000002B04D120000CF0B7FA05B0F0BD0122F4
:10AA1000837A11009C461023066F0025F35603929B
:10AA20006344994002912900F3680193019BAB4272
:10AA30002CDDB0687369684360444000E77A1A18F7
:10AA40001B5C5078E279012F10D1571E3F1A180075
:10AA50003B004243606F52008218D2189379002B5A
:10AA600002D0039BAB4019430135DFE7022F07D02B
:10AA7000032FEED1277A013FFF1A03003800E8E7E1
:10AA8000571EFB1A277A013F381AE2E71123C94300
:10AA9000F356606C994023691940029B19430FF0EB
:10AAA0009DFD667AB31EDBB2FC2B14D8FEF714FEB4
:10AAB0000B4B0500236300230A4863630A4BFF2105
:10AAC0007043E462236406F0B5F929004143200095
:10AAD00014300FF082FB637A012B00D995E791E7E0
:10AAE000796F0200B6030000636F02001FB50123F7
:10AAF00081881A0068460BF015FD012368461A008C
:10AB000002490BF00FFD05B000BDC046FE0300007A
:10AB10001FB5030048331A780400002A0DD0002224
:10AB20001A70012381881A0068460BF0FBFC012390
:10AB300068461A0003490BF0F5FC200074300BF056
:10AB400029FD1FBDFF03000010B548300378002B1E
:10AB500006D00378012B03D0012102480BF080FBC3
:10AB600010BDC046FF03000010B5012104000620FF
:10AB70000BF076FB064B984208D148342378002B23
:10AB800004D02378012B01D020BFF7E710BDC046C9
:10AB900016FCFFFF70B50500141E19DB06004836D1
:10ABA0003378002B02D03378012B13D100232800F7
:10ABB0001A007430FEF754FF002C07D02B004A33E4
:10ABC0001C80002407234C352C803370200070BD7E
:10ABD000014CFBE7014CF9E717FCFFFF12FCFFFFFC
:10ABE000F8B50B6805005B8808001700012B08D139
:10ABF00000210BF080FC002201002800FFF7CAFFB3
:10AC0000F8BD002A19DD2E0048363378002B02D01B
:10AC10003378012B13D12B0000245C331C80043BC0
:10AC2000010018000BF042FC2B004A331F80032365
:10AC30004C352C8020003370E2E70248E0E7024800
:10AC4000DEE7C04617FCFFFF12FCFFFF73B5079C51
:10AC50000500002C1CDB060048363078002802D0A6
:10AC60003078012816D106981BB2C0B20090280097
:10AC700012B274300BF09EFC002C07D02B004A332C
:10AC80001C80002407234C352C803370200076BDB7
:10AC9000014CFBE7014CF9E717FCFFFF12FCFFFF3B
:10ACA000F7B505000E00171E26DDFFF74DFF2B0040
:10ACB00048331B78DCB2002B20D133685B88012B32
:10ACC00009D1210030000BF016FC22000100280001
:10ACD000FFF760FFFEBD310001A80BF0DFFB3A007B
:10ACE00001A92800FFF77CFF01A80BF082FB2800D8
:10ACF000FFF73AFF2000EDE70148EBE70148E9E7FD
:10AD000017FCFFFF11FCFFFFF0B587B00D9C05009D
:10AD10000E0017000393002C21DBFFF715FF2B001B
:10AD200048331B78DAB20292002B1AD1310005A801
:10AD30000BF028FC0C9B3A0000932800039B019425
:10AD400005A9FFF783FF05A80BF00FFC002C03D02B
:10AD50002800FFF709FF029C200007B0F0BD024C5D
:10AD6000FAE7024CF8E7C04617FCFFFF11FCFFFFB3
:10AD7000F8B50400171E1DDD060048363378002B99
:10AD800002D03378012B17D12200E3795632013BF0
:10AD9000137023000025200054331D8050300BF029
:10ADA00085FB23004A331F80022328004C34258072
:10ADB0003370F8BD0148FCE70148FAE717FCFFFFD4
:10ADC00012FCFFFFF7B504000F00161E18DDFFF799
:10ADD000BBFE230048331B78DDB2002B12D13900B3
:10ADE00001A80BF05BFB320001A92000FFF7C0FFB8
:10ADF00001A80BF0FEFA2000FFF7B6FE2800FEBD0A
:10AE00000148FCE70148FAE717FCFFFF11FCFFFFD0
:10AE1000FF2902D84172002070470148FCE7C04674
:10AE200017FCFFFFF0B51F0085B00AAB1B780400CC
:10AE3000039300933B000D0016000FF031F900283A
:10AE400033D0237D082B2DD8236800221900FC3134
:10AE50008A62A021C9005A50154905205A5001386C
:10AE6000C046C046C046C046C046C046C046C046B2
:10AE7000C046C046C046C046F1D1236801325A5090
:10AE8000A0210432C9005A5005F0C2FD039B3200D4
:10AE9000009329003B0020000FF002F9237D0133CD
:10AEA0002375CCE7034805B0F0BD2075FBE7C0462D
:10AEB000FC0F00000EFCFFFFF0B51F0085B00AABD1
:10AEC0001B780400039300933B000D0016000FF065
:10AED000CFF8002833D0237D082B2DD823680022FB
:10AEE0001900FC318A62A021C9005A501549052079
:10AEF0005A500138C046C046C046C046C046C0464B
:10AF0000C046C046C046C046C046C046F1D12368D0
:10AF100001325A50A0210432C9005A5005F078FD80
:10AF2000039B3200009329003B0020000FF0A0F8A3
:10AF3000237D01332375CCE7034805B0F0BD2075B0
:10AF4000FBE7C046FC0F00000EFCFFFF10B504003D
:10AF500086B0006C05F098F9237BA0219A00A050E0
:10AF600000200C4AC90050500B4914305050626CFC
:10AF70006846517CC91849B20CF05AFA039B019AF1
:10AF800003211A60207B0130C0B205F04FFF21730E
:10AF900006B010BD007000400405000082B070B51E
:10AFA0000400002588B00C920D93636C9A68AA4245
:10AFB0000ADD197C02A8491949B20CF039FA069B3E
:10AFC000039A01351A60F0E75D7C237B02A8ED1837
:10AFD0006DB229000CF02CFA039A059B00211A602F
:10AFE000019202A818220FF0BAFB02A80022290041
:10AFF0000FF08EF9206C002801D00FF058FB0820CC
:10B000000FF059FB2900060005F018F9094B200044
:10B01000E3620023FA212363074B2664A462E363FF
:10B02000103009010FF0D9F808B070BC08BC02B0AC
:10B030001847C0464DAF0100DB730200F0B50400B5
:10B040000E00150085B01F000CAB1B88103001935B
:10B050000BF05EFA2680658018200FF02CFB02AE04
:10B06000050033000AAA03CA03C32F60280008277B
:10B0700000213A000C300FF072FB3A003100281D1D
:10B080000FF051FB064B022220006B610023019957
:10B09000A5600A43E360A2802362636205B0F0BD4D
:10B0A000F173020070B5040086B010300D0005F099
:10B0B0005FF80023184AA3622261184AE363166806
:10B0C0006564237323606360A3609E421FD0144AAB
:10B0D0002820049205930FF0EEFAC02305006A467B
:10B0E000029304AB03CB03C22300062102222800F3
:10B0F000FFF7A4FF3368290030005B6898470028F9
:10B1000005D028000BF029F928000FF0D0FA002311
:10B110002000236406B070BD14AF0200A0250020FB
:10B120009DAF010030B5154B04001D6891B0002D96
:10B1300017D0134B6A4604930023059310330293F0
:10B1400004AB03CB03C223000222062106A8FFF7AB
:10B1500075FF2B6828009B6806A9984706A80BF086
:10B16000FCF82500074B1035280023610FF024F868
:10B17000280005F013F8200011B030BDA0250020F4
:10B180009DAF010000AF0200F8B50D1E2FD00026C4
:10B190000227C468002C27D0AA88A38853403B42CA
:10B1A00020D13A4215D1A368AA6893421AD12B88BC
:10B1B000002B02D022889A4214D16B88002B02D037
:10B1C00062889A420ED1A2880A4B01361343A380AB
:10B1D00008E0A968A0680DF06EF80028E7D1AB88F8
:10B1E0003B42E0D0646AD5E72000002E00DC024834
:10B1F000F8BDC0460080FFFF17FCFFFFF0B506005A
:10B200000D0085B0002959D00127C468002C23D037
:10B210000221AA8800230A4202D0A3885B083B408F
:10B22000226829688A4211D1A068A968002B0BD036
:10B230000DF041F8002809D00421625EA388002A9D
:10B2400006DB1F4805B0F0BD8842F5D0646ADDE733
:10B250005B045B0CA380F4E7F0682A880100031EFE
:10B2600007D1F5600123684616490BF05BF9002011
:10B27000E8E71C88944206D25C6A1900002C0DD0C5
:10B280002300F6E723001C88944207D15F886C886E
:10B29000A74203D25C6A1900002CF3D1814209D184
:10B2A0000B889A4204D305D14C886B889C4201D903
:10B2B0006862D6E74B6A6B624D62D3E70248C1E72A
:10B2C00016FCFFFFFD03000017FCFFFF064B10B547
:10B2D0001A00040008322C33026043600430FDF78A
:10B2E000EDFF200010BDC046A8AA020008B4024B22
:10B2F0009C46043808BC6047CDB2010008B4024B3C
:10B300009C46043808BC6047937402000C4A002332
:10B3100011002C32083110B5038183724260C36082
:10B32000036143614383016004000430FDF7B8FF0B
:10B33000044B1A68002A00D11C60200010BDC046D2
:10B34000A8AA0200A0250020F7B50D000126C468B8
:10B350000192002C37D023882A889A4201D0002BF2
:10B3600024D163886A889A4201D0002B1ED1FDF750
:10B370004DFF0123002806D0C022A3881340C03B04
:10B380005A425341DBB2019A93421AD10422A35E7E
:10B39000A788002B15DB10222900A0180FF0C3F995
:10B3A00040231F4204D020000CF07CF8646AD0E7F0
:10B3B000FDF72CFF0028F6D021000448FEF7AAF87C
:10B3C000F4E70026F2E73000FEBDC046A574020097
:10B3D00008B4024B9C46043808BC60472F76020034
:10B3E000F0B587B001930EAB1B88060003930D9B4D
:10B3F0000D000093019B0C9F0292002B3CD0002F6C
:10B4000002D1009BDB0737D528200FF054F9040048
:10B4100010300BF07DF8029B1820258063800FF020
:10B420004AF90500009B08220593019B0021036057
:10B430000C3004970FF093F9082204A9281D0FF08F
:10B4400072F90E4B02226B6100230399E3602362C1
:10B45000636233680A43300021005B68A560A28004
:10B460009847002806D020000AF077FF20000FF050
:10B470001EF9034807B0F0BD0248FBE769760200F9
:10B4800016FCFFFF17FCFFFFF0B5160000258380B8
:10B49000164A174B040085710260018146810573CD
:10B4A00018688C4689B0A8421DD0124A05950492AE
:10B4B000C02202926A4604AB82CB82C223002A00D9
:10B4C0006146FFF78DFFC022094B0A4918680292B6
:10B4D0006A46069106AB079582CB82C223002A00FA
:10B4E0003100FFF77DFF200009B0F0BDECAA02009B
:10B4F000A02500209377020030B5002403730123B8
:10B50000034D05608471818082734373846030BD14
:10B5100004AB020070B5040000250C4B0E0008338C
:10B52000858085710360210018300CF0EAF9200055
:10B53000210020300CF008FA054B2000A680E580A1
:10B540002572E560256165611C6070BD14AB020069
:10B55000AC2500208379DB0702D5C160002070474D
:10B560000048FCE716FCFFFF8379DB0701D5C068C4
:10B5700070470148FCE7C04616FCFFFF70B54569FF
:10B580000400002D22D0037A032B21D8FFF7ECFF13
:10B59000A8622C200FF08FF82C22002105000FF05C
:10B5A000DEF8002263695A622369934207D1636916
:10B5B00023610020237A65610133237270BD1A0074
:10B5C0005B6A002BFBD163695362F2E70148F5E740
:10B5D0000148F3E717FCFFFF13FCFFFF144B70B5A6
:10B5E0005A68144C002A03D000225A600132A2602B
:10B5F0001A69002A17D0002119618023DB000E4D43
:10B60000E3582868012B0FD1A923DB00E1584942F8
:10B61000FFF7A0FF2868FFF7B1FF2B685A69074BB7
:10B62000E2500123A36070BDFFF794FFF9E7C04625
:10B63000FC10004000100040AC2500200405000074
:10B6400003000069002809D00221054AD167426A37
:10B650001A611A7A013A1A72024B19607047C04691
:10B6600004E100E000E100E010B5002903DB024B3B
:10B6700019600EF083FD10BDB025002070B50400E8
:10B680001D0004AB1E7804F02FFD20000E4B40304F
:10B690002360FEF7D9F82300220001354C331D70DA
:10B6A0000023E1215832013616700A3AA36463651B
:10B6B000138053809381D381013B2000636449024E
:10B6C000FFF7D2FF200070BDE0A90200F7B5802788
:10B6D0007F053E697C690822113C74430500210006
:10B6E00068460FF020F8104B009A9A4219D0009348
:10B6F0000023019379692800133971430CF03BF959
:10B70000019A280000990CF052F9210028000CF051
:10B7100032F979692200133928007143B3080CF01B
:10B7200036F90198FEBDC046FECA0000F0B50D0016
:10B73000ABB000210D920700302212A81E000FF0BE
:10B740000EF828000FF04BF8431C0C93102B00D977
:10B75000B8E0202E00D9B5E0290038000CF054F9EB
:10B760000B90002854D129000C9A12A80EF0DBFF90
:10B7700032000D9916A80EF0D6FF80235B051A69DA
:10B780005D690B92113D6A4338005E690D92FFF7C7
:10B790009DFF0D9B30220833002104001EA80F934B
:10B7A0000EF0DDFF31000B9B1339594338000CF0CC
:10B7B000E2F800230F9E0C930E930C9BA34246DAF3
:10B7C000310030221EA80EF0AEFF12A91EA80EF006
:10B7D000FCFF00282BD13D49380022001091119424
:10B7E0000CF0E5F86A46099615AB23CB23C223CBB0
:10B7F00023C223CB23C23800149B1299139A0CF056
:10B80000E4F801230E930C9B303601330C93D4E7FC
:10B810000B9832000D9910300EF077FF04000B9852
:10B820000EF045FF002C9ED120002BB0F0BD6A46E3
:10B83000099621AB23CB23C223CB23C223CB23C224
:10B8400038001E991F9A209B0CF0BFF8DBE7E643F7
:10B850003021F61726404E430F9B9E190E9B002B5E
:10B860001CD10B9B981E05F05BFAA0422CD0174907
:10B87000013438002200109111940CF098F86A46B7
:10B88000099615AB23CB23C223CB23C223CB23C2E0
:10B8900038001299139A149B0CF097F838000D9900
:10B8A0000CF069F880235B0559690C230B9A133956
:10B8B00063434A433800110002330D9A0CF067F8D5
:10B8C0000024B1E7024CAFE7024CADE7FECA00002E
:10B8D00017FCFFFF13FCFFFF70B50400A280FA22E3
:10B8E000002308000C49920008312160A3710B4924
:10B8F0006061E260A36063820CF086F8051E09D0E7
:10B90000010020000222103112300EF00CFF28003E
:10B910000EF0CDFE200070BD2CAB02000DB9020070
:10B9200030B502258379040087B02B4204D1FDF79E
:10B93000B7FCA3791D43A57120000CF0ABF80028DB
:10B940001CD06B46DD1C28000CF09BF82B78002BDC
:10B9500017D001A80CF093F80321019AD3170B40DC
:10B960009B189B102382FDF7F1FEE368A18818184D
:10B970000123A0601A0002A80AF0D4FD002007B03D
:10B9800030BD0122064B1A60064A51680029FCD0DE
:10B9900000215160044A1268019201225A60DBE7DB
:10B9A00000C00040FCC0004008C50040022802D191
:10B9B0000122014B1A7070476528002070B5064DB2
:10B9C00004002B78002B04D1044801F02BFF012345
:10B9D0002B70200070BDC04666280020ADB9010064
:10B9E00070B50C000AF0D9FB002810D00023144DCC
:10B9F000A40A2B7020000CF074F8002803D00A2051
:10BA00000EF025FDF6E72B78002BFCD070BD02214F
:10BA10000C4B0D4A99508021C90008005D58002D3B
:10BA2000FCD0A121C9005C5019580029FCD000218C
:10BA300099508021C9005A58002AFCD0E6E7C04638
:10BA40006528002000E0014004050000F8B50C0066
:10BA500015001E000AF0A1FB002811D00023174F8B
:10BA60003B703200290020000CF039F8002803D088
:10BA70000A200EF0ECFCF4E73B78002BFCD0F8BD7C
:10BA800001220F490F488C4642508022D200835831
:10BA9000002BFCD080270023FF009E4207DD9A0088
:10BAA000A958A150C259002AFCD00133F5E7002360
:10BAB00062468350C359002BFCD0E0E76528002084
:10BAC0000405000000E00140084B8000C018A223DC
:10BAD0000322DB0010B50649C45821432243C1505C
:10BAE000C046C046C046C25010BDC04600600040BF
:10BAF000031F000010B50400034B08330360FDF77B
:10BB00005BFE200010BDC04644AB0200F8B5A02388
:10BB100003223049DB055A5004315A5080212E4A05
:10BB20008905995080210127A225C9052B4C9950E0
:10BB30002B4BED00E75063592A492B4E0B406351C4
:10BB400062592A4B002013436351FFF7BDFFA359ED
:10BB5000244938000B40A351A259254B1343A3514C
:10BB6000FFF7B2FFC046C046C046224B224A2349D7
:10BB70005A51A322D2009C519950214A214922486E
:10BB80005A5004315850214921485C5004315850D2
:10BB900020495A500F2220495A50204B104A9F509A
:10BBA00000225A5004315A5002325A51A8223221EE
:10BBB000D200DF6099501A4A01399950043232316B
:10BBC0009950184AC919995080225C3992009950AD
:10BBD000F8BDC046740700000C050000006000407E
:10BBE000FC0F0000FFE0ECFF14050000001D030047
:10BBF000001E130000F0014040A1004044A100409D
:10BC0000046000401C05000048A10040240500001D
:10BC10004CA100402C0500000405000000A00040DD
:10BC2000440500004C0500000023154A10B50832F9
:10BC30000260EE21A0228380837104000320D205DC
:10BC4000C900505080200F494005505032220E4903
:10BC500020000A700D490A700D490A70FA210D4A38
:10BC6000090113700C4A118001210C4A11700C4A11
:10BC70001370FFF74BFF2000FDF780FD200010BD83
:10BC800044AB02000C050000682800206928002051
:10BC90006A2800206B280020482800206728002000
:10BCA0006C28002010B50400034B08330360FDF737
:10BCB00083FD200010BDC0465CAB0200F7B501213A
:10BCC0000C008368314A9C40A023DB059C50322441
:10BCD000013CC046C046C046C046C046C046C046FD
:10BCE000C046C046C046C046C046F1D10500113529
:10BCF0000195A1250400ED00AC460D3407250E008A
:10BD00008768BE4027782F410F4231D06746DE5109
:10BD1000C046C046C046C046C046C046C046C046F3
:10BD2000C0469E50013DEAD2019D0134A542E5D1B5
:10BD3000012381688B40A021C9058B503223013B30
:10BD4000C046C046C046C046C046C046C046C046C3
:10BD5000C046C046C046C046F1D1827B437B017CD1
:10BD60009B18C27B52189B185A1E93414374F7BD0F
:10BD70006746DE51C0469E50C046C046C046C046DB
:10BD8000C046C046C046C046CCE7C0460C050000D1
:10BD9000F8B504002500260006A80078277B62730A
:10BDA000A173E37320740D3511362878784307F0BA
:10BDB000E1FD0022064B06F0C1FC05F081F9287078
:10BDC0000135AE42F1D12000FFF778FFF8BDC04643
:10BDD00000E06F40F7B5002317000126224A838058
:10BDE000083202600A008371040081600773A0209A
:10BDF00003258E40C132FF32C005920015501B4A08
:10BE0000250086506373E3812382230011330D35AF
:10BE1000009301922878784307F0ACFD144B002280
:10BE200006F08CFC05F04CF9009B287001359D4212
:10BE3000F0D1A023019ADB059E503223013BC0467E
:10BE4000C046C046C046C046C046C046C046C046C2
:10BE5000C046C046C046F1D120000BF058FE20007D
:10BE6000FDF78CFC2000FEBD5CAB02000C05000061
:10BE700000E06F4010B50400054B083303601C3030
:10BE80000AF0B7FA200018300AF0B3FA200010BD0B
:10BE900074AB0200FF23F0B52C4E8DB0337000233D
:10BEA00001AD040029000088019304F0A3F80028E4
:10BEB00001D1AB783370264D2B68DB68002B07D19E
:10BEC000002320881A0019000BF032FE0DB0F0BDDF
:10BED0003378032BF4D81F496846FDF77BFC2B68A9
:10BEE0006946DD6804A80AF0D9FA280004A90BF015
:10BEF000BAFD0027050004A80AF07BFABD421ED057
:10BF000029002022103104A80EF00DFC28000EF0AC
:10BF1000CEFB317804ABC9005918082202A80EF0F4
:10BF200002FC01230822208802A90BF001FE013740
:10BF3000002804D10C212088074A0BF0F7FD684641
:10BF40000AF057FA002FBBD0C0E7C046802000207F
:10BF5000C025002015B90200FFFF0000F0B583796D
:10BF6000040091B05B071BD5FDF7F0FB00232269AD
:10BF7000801A9941994203D1F533FF3398420FD388
:10BF8000A068002808D0354B1D880DF001F8036823
:10BF9000152229001B6A98470422A3799343A371B1
:10BFA000A3799B0758D52E4E3368DB68002B4FD002
:10BFB0002C4F3B78032B4BD8284B2B491B8804A8CC
:10BFC0000193FDF707FC336804A9DD6808A80AF0AF
:10BFD00065FA08A928000BF046FD050008A80AF03C
:10BFE00008FA082302AAD3800198073B063206A963
:10BFF0000BF0A0FD002D08D029002022103108A848
:10C000000EF091FB28000EF052FB3D7802ABDA886F
:10C01000ED0008AB5D19280006A90EF076FB00289C
:10C0200013D00822280006A90EF07DFB336804A96E
:10C03000DD6805A80AF032FA2023280008AA05A91D
:10C040000BF017FD05A80AF0D4F904A80AF0D1F9FD
:10C050000222A3799343A37111B0F0BD4A280020B6
:10C06000C02500208020002015B9020070B50368AB
:10C0700004000D1E09D15B699847FA2080006843CF
:10C08000074904F04DFEE08070BD9B689847A842C8
:10C09000F3D9236820009B6898470500EDE7C04668
:10C0A00071020000F0B50400150085B001930AABE1
:10C0B0001F880BAB1B78461C02930EAB1B7810221B
:10C0C00003930B7803704B8A0131438230000EF0EA
:10C0D0002AFB656100250122019B27836383039B63
:10C0E000E5832377029B2000F377A31CDA770C9B70
:10C0F0000C26636223000D9A283329001A705D70A4
:10C1000032009D702C300EF02AFB2000064B3200CE
:10C11000A3632900E56340300EF021FB2000034BB0
:10C120002565E36405B0F0BD4B7B02003D7B02005A
:10C13000F0B507001500A1B002C706006B4918A8AA
:10C140001C000BF0C3FD2B1E03D028000EF047FB94
:10C1500083B20122049200220392029202320192DF
:10C1600000932A0018A93800FFF79CFF33006049AC
:10C17000583318A807930BF0A9FD231E03D0200005
:10C180000EF02DFB83B20122049200220392029250
:10C19000023201920093220018A90798FFF782FF4C
:10C1A00033005449AC3318A808930BF08FFD269B3D
:10C1B000002B03D018000EF012FB83B20122049270
:10C1C000002203920292023201920093269A18A949
:10C1D0000898FFF767FF731CFF33474918A80993B6
:10C1E0000BF074FD279B002B03D018000EF0F7FA1C
:10C1F00083B2012204920022701C03920292023246
:10C2000001920093279A18A9FF30FFF74BFF3300E4
:10C210005533FF33394918A809930BF057FD289B74
:10C22000002B03D018000EF0DAFA83B20122049238
:10C23000002203920292023201920093289A18A9D6
:10C240000998FFF72FFF3300A933FF332C4918A8B3
:10C250000A930BF03BFD299B002B03D018000EF036
:10C26000BEFA83B201220492002218AC0392029219
:10C270000232019200932100299A0A98FFF712FFD7
:10C28000204B1B780B93002B2DD1079B1E4913933A
:10C29000089B0DA81493731CFF331593099B1297E9
:10C2A00016930A9B12AD17930BF010FD1D21492028
:10C2B00006AB1B7F1022237006ABDB8D638206ABBF
:10C2C000C918C0180EF02FFA062323750B9B30688F
:10C2D000A383A5610CF060FE036821001B689847EA
:10C2E0000122084B1A70300021B0F0BD292A00004D
:10C2F000242A0000252A0000272A0000262A000000
:10C30000282A00006D2800200A18000070B50025BA
:10C3100004000A4B8580083385710360C1601830C2
:10C32000FDF792FA20001C30FDF78EFA044B200036
:10C330001C600123A5606561A37170BD74AB020030
:10C34000C0250020FA2130B585B004000123022267
:10C35000684689000AF0E6F8074D2868002809D0E9
:10C360000BF0EDFC2188054B2A6819800223917996
:10C370000B43937105B030BDC02500204A28002032
:10C3800010B50C0007290FD880680CF001FE074B90
:10C39000195703685B6C984743425841044B40422D
:10C3A0001840044BC01810BD0348FCE724BA020033
:10C3B000EA03000016FCFFFF17FCFFFFF0B5984CE6
:10C3C0000D00A544040096AB1B78964908A8079376
:10C3D0000692FDF7FFF9200029001C300AF066F8EC
:10C3E000914909A8FDF7F6F990490AA8FDF7F2F975
:10C3F0000CAE09AA08A90BA80AF067F82A003000B9
:10C4000011AD0BA90AF061F80AAA310028000AF060
:10C410005CF8290008A80AF049F8280009F0E9FFAB
:10C42000300009F0E6FF0BA809F0E3FF08200EF04A
:10C4300042F90700002101F0DBF808220021A76083
:10C440000DA80EF08CF900230C932B0007CE07C328
:10C45000774B2900EB60002338002B610CF081FD45
:10C46000A0680CF095FD08220021059012A80EF09E
:10C4700076F914200EF01FF96E4B2A001193030079
:10C48000C2CAC2C36C4B059EC3600023A4360361BD
:10C490003368002B00D0BDE03060A0680CF07CFD5C
:10C4A00008220021060012A80EF059F914200EF0FF
:10C4B00002F9624B1193030086CD86C3604BC360C3
:10C4C00000230361336B002B00D0A5E03063A0682C
:10C4D0000CF05EFD08220021059012A80EF03FF935
:10C4E00014200EF0E8F8574B11AE11933200030000
:10C4F000A2CAA2C3544B059DC360002398350361B3
:10C500002B68002B00D089E02860012004AB1B7F42
:10C5100004AA03430BA913770BF00EFBA0680CF0E1
:10C520003FFD036849495B6A9847A0680CF038FDF5
:10C53000036847499B699847A0680CF031FD454A5C
:10C54000036800921D6800231A001900A847079B82
:10C55000002B0AD020000BF0FBFB032805DDA068B0
:10C560000CF01EFD0368DB68984706212000FFF7EA
:10C5700007FF394B394A1B68A1680393384B3000D9
:10C580001B6800250293374B1B680193069B1B68B1
:10C5900004330093344B12681B68FFF7C9FDA06891
:10C5A0000CF0F6FC03680CA99B6A9847082304AAC0
:10C5B0001384A068DB18538495840CF0E9FC0368AD
:10C5C0000CA9DB6A98470621A0680BF08BFB089A40
:10C5D00009219378A06804320BF097FBA0680CF057
:10C5E000D7FC0571A0680CF0D3FC3221FFF73EFDAB
:10C5F000A0680CF0CDFC0BF05FFB0AA809F0F9FE77
:10C6000009A809F0F6FE08A809F0F3FE91239B00A3
:10C610009D44F0BD03613FE7036157E7036173E7A2
:10C62000BCFDFFFF21B9020045B902002FB902008D
:10C63000597B020045C30100677B020095BE0100E3
:10C64000757B0200A37B0200837B02006DC60100A4
:10C65000A1C6010031B90200BC250020B825002088
:10C6600008200020B42500200C20002013B506224D
:10C670006846FDF7BFF8094B1C68002C0AD06946D4
:10C6800001A809F00BFF200001A90BF082FB01A813
:10C6900009F0AFFE684609F0ACFE13BDC0250020CE
:10C6A000002373B501AE0C0031000500019303F0C7
:10C6B000A1FC002802D1B278064B1A70064B18680C
:10C6C000002806D061426141044BC9B21D800BF0C5
:10C6D00068FB73BD80200020C02500204A28002070
:10C6E000F0B504008BB00F0005A87D490392FDF75B
:10C6F00071F87C4906A8FDF76DF8220005A91C32E7
:10C7000009A809F0E2FE06AA09A907A809F0DDFEBA
:10C7100009A809F06EFEA0680CF03AFC0368002539
:10C720005B699847A0680CF033FC030006000A33ED
:10C730001F220021180002930EF011F8029B300016
:10C74000DD770BF0B0FA0621A0680BF0CBFA079A60
:10C7500009219378A06804320BF0D7FAA0680CF096
:10C7600017FC0571A0680CF013FCC821FFF77EFCD4
:10C77000A0680CF00DFC0581A0680CF009FC0BF022
:10C780009BFA3800FEF7C4F9390020000BF01CFBBF
:10C790002000FCF785FD0295FF3562690123160034
:10C7A0001E401A422DD0504908A8FDF709F908A9E2
:10C7B00009A809F0E7FE002209A9130001920092DE
:10C7C0003800FEF7A1FA09A809F0CFFE029B002B62
:10C7D00041D1043D282D40DC38000AF04BFD002DEE
:10C7E00000DC029603980AF023FA002806D0012301
:10C7F00062699A43130004221343636108A809F095
:10C80000B4FE04226369134230D0FF213800FEF7E2
:10C81000FFFA0026A36902229B5EB34222DD2000BC
:10C8200031B2183009F067FE0023010038001A0009
:10C830007430FDF715F9C8208000FCF7CFFD3800F3
:10C840000AF018FDC820FCF7C9FD022263691342F3
:10C8500008D10136DEE70435BCE7FE2DC2DD00233A
:10C860000293BFE7FA208000FCF7B8FD022263695B
:10C8700013421DD01E000632164013421CD01B4925
:10C8800008A8FDF79DF808A909A809F07BFE002279
:10C8900009A91300019200923800FEF735FA09A8A1
:10C8A00009F063FE1248FCF799FD08A809F05DFE47
:10C8B0006420FCF793FD70E70E4908A8FDF780F8A7
:10C8C00008A909A809F05EFE33003200380001967D
:10C8D000009609A9FEF718FA09A809F046FEE4E750
:10C8E00038B902002FB9020048B902008DB9020020
:10C8F000983A0000CAB90200F0B587B001930EABB8
:10C900001B88060003930D9B0D000093019B0C9F59
:10C910000292002B3CD0002F02D1009BDB0737D5C1
:10C9200028200DF0C8FE0400103009F0F1FD029B34
:10C930001820258063800DF0BEFE0500009B0822B4
:10C940000593019B002103600C3004970DF007FF55
:10C95000082204A9281D0DF0E6FE0E4B02226B6191
:10C9600000230399E3602362636233680A43300063
:10C9700021005B68A560A2809847002806D02000AF
:10C9800009F0EBFC20000DF092FE034807B0F0BD6B
:10C990000248FBE7537E020016FCFFFF17FCFFFF77
:10C9A000F0B50700F5B0016042608E4900225FA833
:10C9B0000BF090FA3B000833002401261225069361
:10C9C0000623069A0496019500935FA92300039419
:10C9D000029420A8FFF766FB220083495FA80BF0B2
:10C9E00079FA3B000E3307930195103D2300009523
:10C9F000079A04965FA90394029435A8FFF752FBA7
:10CA000022007A495FA80BF065FA3B0010330893C7
:10CA10000A230095089A18AD049601935FA9230094
:10CA2000039402944AA8FFF73DFB220028007049B6
:10CA30000BF050FA3B001233099318232900099A8E
:10CA40000496019300962300039402945FA8FFF7D5
:10CA500029FB7868BC60FC600AF05DFA722304AAC6
:10CA60009B18DE77C6239B18DE778D235B009B180F
:10CA7000DE77B7235B009B18DE7720AB0F9335ABD7
:10CA800010934AAB22005B4938821193BC745FABB0
:10CA900013A812930BF01EFA3C223D21512004AB47
:10CAA0009B181B7812322B7004AB9B181B883E3AE4
:10CAB0006B8204ABC918C0180DF035FE04232B752A
:10CAC0000FABAB61AC8338680CF066FA03682900E1
:10CAD0001B6898478E2204AB9B181B885432BB827C
:10CAE00004AB9B181B885432FB8204AB9B181B8839
:10CAF00054323B8304AB9B181B8838687B830CF053
:10CB00004BFA0368B98A5D69069A0623A847386814
:10CB10000CF042FA0368F98A5D69079A0223A84774
:10CB200038680CF039FA03680094398BDD68089A8C
:10CB30000223A84738680CF02FFA03680094798B19
:10CB4000099ADD683300A84738680CF025FA06001A
:10CB500014200DF0B0FD0500274B0461082280C0B1
:10CB600013A9139314940DF0DEFD244BEB60B3690D
:10CB7000A34234D1B561224E306800282CD0002267
:10CB80000C92C03202926A461E4D0BAB0B9512CB33
:10CB900012C23B0004220521FFF7AEFE00226946C7
:10CBA0000E92103202920D950DAB11CB11C10B3AC2
:10CBB00011003B003068FFF79FFE002214921032F4
:10CBC000306802926A4613AB139512CB12C23B0037
:10CBD00007220521FFF790FE380075B0F0BD2B61EC
:10CBE000C8E7C0464CBA02002CBA02005CBA020088
:10CBF0003CBA02006CBA0200937E0200297E020059
:10CC0000A0250020FD7F0200F0B50700C3B0016041
:10CC10004260674900222DA80BF05CF93B00083305
:10CC2000002401260693122310AD069A0496019360
:10CC3000009623002DA90394029418A8FFF732FA56
:10CC4000220028005B490BF045F93B000A330793AB
:10CC50000A230193083B2900079A04960093039442
:10CC6000230002942DA8FFF71DFA78683C720AF0A1
:10CC700034FF5A2202ABD218D677AE2202ABD218BA
:10CC8000D67718AA09922DAA4B4978810A920BA847
:10CC900022000BF01FF92421392002AA5218137820
:10CCA00002AA2B70D38E89196B8202AB1022C9188D
:10CCB000C0180DF038FD02232B7509ABAB61AC83B6
:10CCC00038680CF069F9036829001B6898477622D8
:10CCD00002AB9B181B885432BB8102AB9B181B888C
:10CCE0003868FB810CF058F903680094B989DD6855
:10CCF000069A3300A84738680CF04EF90368009490
:10CD0000F989079ADD680223A84738680CF044F9CE
:10CD1000060014200DF0CFFC0500284B046108220A
:10CD200080C00BA90B930C940DF0FDFC244BEB6021
:10CD3000B369A34239D1234BB5611E68002E31D0AF
:10CD400028200DF0B8FC0400103009F0E1FB1E4B68
:10CD5000182023600DF0AFFC002205001B4B0021C2
:10CD60000C92076008320C300B930DF0F8FC08228F
:10CD70000BA9281D0DF0D7FC154B00226B61C223B7
:10CD8000A3803368E260210030005B68A560226206
:10CD900062629847002805D0200009F0DEFA2000E2
:10CDA0000DF085FC380043B0F0BD2B61C3E7C046F1
:10CDB0007CBA02008CBA02009CBA02009580020084
:10CDC0002B800200A02500201C000100D58002005D
:10CDD000558002001FB5084B1B68DB8B834209D1CD
:10CDE000064B68461A78064B06491A70012303223F
:10CDF00009F098FB05B000BDC42500206E28002076
:10CE00006F280020FF030000F0B51D00ADB0040046
:10CE100001610135143016000691FCF715FDEBB2E7
:10CE20001800079308F038FD00250136F6B260605F
:10CE3000300008F031FD4A4B2A001D70494B4A4929
:10CE40001D70079B2060A672E37225810FA80BF06E
:10CE500041F801270C2322680497019300963B00B8
:10CE60000FA90395029517A8FFF71CF92A003F495F
:10CE70000FA80BF02FF854200DF01DFC2023060006
:10CE80000193079B6268049700930FA93B000395E9
:10CE90000295FFF707F9364B08961E600AAE17ABEE
:10CEA0002A003449300009930BF014F8342135205E
:10CEB000337802AA52181370738A123102AA5218D8
:10CEC0001380253902ABC9181022C0180DF02BFCB5
:10CED0004821022302AA52181370502202AB9B1859
:10CEE00008AF159706981D800CF056F803680FA937
:10CEF0001B689847722202AB9B181B880698E36058
:10CF00000CF04AF8079014200DF0D5FB07001A4BDF
:10CF100005610822310010C00A930B950DF003FC47
:10CF2000164BFB60079B9B69AB4217D1079B06988A
:10CF30009F610CF031F80500082200210BA80DF0CC
:10CF40000EFC0F4B0A932B006C3307CE07C30D4B1F
:10CF50002000AB670023EB672DB0F0BD3B61E5E738
:10CF60006E2800206F280020ACBA0200BCBA020074
:10CF7000C4250020CCBA0200478102001D810200B6
:10CF8000D5CD01000F81020070B51400012A0CD02C
:10CF9000143009F08BFA0025022C04D196200121CF
:10CFA000C00009F05DF9280070BD014DFBE7C046E7
:10CFB00017FCFFFFF0B58BB002AF0D001400B86096
:10CFC0007B60012B06D1434909F02FFABD46B868B2
:10CFD00009B0F0BD4B7A1E003B6101235B427B61CF
:10CFE0002B7AB3421FD07B6901333DD12B689B5D07
:10CFF0003B600023FB60236802229B5EFA68934239
:10D000000BDD0C23F95E200009F075FA3B689842AD
:10D0100000D17E61FB680133ECE7701CA97A03F054
:10D02000EFFF0E00DCE77B68022B1DD17B6901332B
:10D030001AD121001C24381909F030FA7A683919FC
:10D040002800FFF7A1FF381909F0D3F92B7A381916
:10D05000013B7B61FCF7F8FB28003919143009F01B
:10D0600025FA381909F0C5F97B69002B2EDB3A69DE
:10D070006E469C1A934203DAAC7A7B69A41AE418D0
:10D08000230069460833DB08DB00CB1A9D4602AB60
:10D0900000211800621CFB600DF061FBBB8AAA7ABC
:10D0A00001933B6928000093FB6829680BF0A2F804
:10D0B000687AA97A0130001903F0A2FFB868697292
:10D0C00022B2F968FCF796FBB5467FE7B868FCF733
:10D0D000BBFB7BE717FCFFFF70B505001400012ABE
:10D0E0000FD0007A4018A97A03F08AFFA9610025C1
:10D0F000022C04D196202100C00009F0B1F82800CC
:10D1000070BD014DFBE7C04617FCFFFF70B50A007C
:10D110000400012919D0437A002904D1027A9A42E5
:10D1200009D10B4870BD022905D1017A994202D17B
:10D130000121FFF7D1FF607A2368A17A1D5C0130DD
:10D1400003F05EFF28006172ECE70248EAE7C046A0
:10D150000CFCFFFF17FCFFFFF7B5070015001E00D2
:10D160000191012B2AD0002B0CD11C00AC4223DAF8
:10D1700000213800FFF7CAFF00281DDB019B18556E
:10D180000134F3E70024022B16D10BF047F8A84234
:10D1900004DA291A32003800FFF79EFF0024AC425F
:10D1A00007DA02213800FFF7B1FF019B185501345F
:10D1B000F5E7EC43E4172C402000FEBD004CFBE7F4
:10D1C00017FCFFFF054A03001178054A1278501A30
:10D1D000914201D9DB7AC0187047C0466F28002001
:10D1E0006E280020F0B58DB002AF040039607A617E
:10D1F0003B61002A00DCA2E03B69012B00D19EE0EC
:10D2000027230025FB1800691D700BF0C5FE27229F
:10D2100003684D499B69BA180968984720690AF064
:10D22000E4FF022302001A40184236D12533FB18CE
:10D230001B78AB4200D185E0FA6120690AF0D5FF86
:10D240000223184275D02533FB181B78FB60002B96
:10D250006FD03E4B6E461D783D4B1B78BB60FB6923
:10D26000BB6100237B60BB697A69934217DAE17A7C
:10D27000681C03F0C5FEBB688B420AD0BA693B68E4
:10D280009B5C62685355FB69CDB20133FB61FB685F
:10D290007B60BB690133BB61E5E7FD61CDE77B687E
:10D2A000002B01D0294B1D702000FFF78BFF6A4631
:10D2B000C31DDB08DB00D31A9D4602AB0200002130
:10D2C00005001800BB610DF04AFA204BE27A1B788A
:10D2D00020000193BB680093BB6961680AF08AFF74
:10D2E0003B69022B03D103211A48FCF7A3F82069FC
:10D2F0000BF052FEABB20025134A1268D18B0268C4
:10D300000095D2681500BA69A8473B69022B14D171
:10D31000FBF7FAFF20690BF03FFE272203680A495A
:10D320009B69BA1809689847FB697A69B5469342C0
:10D3300083DBBD46F8690BB0F0BDB546F9E7064B97
:10D34000FB61F6E7054BFBE7C42500206E280020B3
:10D350006F280020FF03000017FCFFFF16FCFFFFF3
:10D36000002815D0006041608260C360046145619F
:10D370008661C761444604624C46446254468462F6
:10D380005C46C462644604636E46466374468463C6
:10D39000002A06D0C46B043C043A25681560B442E8
:10D3A000F9D18C6BA6464E6BB546002B06D0CC6BE4
:10D3B000043C043B1D682560B442F9D10C6BA446C3
:10D3C000CC6AA3468C6AA2464C6AA1460C6AA04667
:10D3D000CF698E694D690C69CB688A6808684968AD
:10D3E0007047006041608260C3600461456186618E
:10D3F000C761444604624C464462544684625C46BB
:10D40000C462644604636E46466374468463C46BB8
:10D41000043C043925680D60B442F9D1C7698669B6
:10D42000456904697047006041608260C3600461BF
:10D4300045618661C761444604624C464462544675
:10D4400084625C46C462644604636C46446374460A
:10D45000846304697047846BA646446BA546046BDD
:10D46000A446C46AA346846AA246446AA146046AE2
:10D47000A046C769866945690469C368826800680F
:10D480004168704710B5041E0CD00DF0A8F9431E7A
:10D49000E318A34208D922781978013B21705A7009
:10D4A0000134F6E7014810BD0020FCE717FCFFFF40
:10D4B000F0B585B00D1E009029D000260A27C217AE
:10D4C000141A4B1E54400393200002963900013673
:10D4D000019603F095FDCB17C9185940039B3031D5
:10D4E00020009955390003F0A5FC041EECD1009BE7
:10D4F000002B04DA2D23029E019A0236AB5400233E
:10D500002800AB55FFF7BEFF200005B0F0BD014C71
:10D51000FAE7C04617FCFFFF10B5040010004843AF
:10D520006160A26000280BDD074B984205DC80009B
:10D530000DF0D3F82060200010BD01204042F7E735
:10D5400000232360F7E7C046FEFFFF1F4A688B6891
:10D5500070B58360534304000D004260002B12DD60
:10D560000A4A9E003000934201DD012040420DF046
:10D57000B4F800232A682060D158C1500433B34264
:10D58000FAD1200070BD00230360FAE7FEFFFF1F01
:10D5900070B5002817D1124D2E68002E11D1083019
:10D5A0000DF089F8066046600E4E04003368002BCB
:10D5B00002D10BF02CFF306023682C609B00F358E5
:10D5C0006360286870BD084A0123116807480C0091
:10D5D0001C401942F6D1036044601360F2E7C04674
:10D5E000CC250020D8250020C8250020D0250020EB
:10D5F000002370B504000160436099420AD1064DD2
:10D600002B68002B02D10BF002FF286023689B00DF
:10D61000EB586360200070BDD8250020436810B52A
:10D620000400002B02D104480CF044FE606803683B
:10D630001B69984710BDC046DCBA0200436810B5AC
:10D640000400002B02D104480CF034FE606803682B
:10D650009B69984710BDC046DCBA0200436810B50C
:10D660000400002B02D104480CF024FE606803681B
:10D670005B6A984710BDC046DCBA020010B50400D2
:10D6800001F058FD034B1B68002B01D02000984788
:10D6900010BDC046E0250020F0B58BB0050002F0BB
:10D6A000E3FA002000F0E2FB036806001B699847DC
:10D6B000336804009B6930009847336801905B6AC7
:10D6C000300098470200288810380B286CD803F0E7
:10D6D00013FB06486B6B6B656B6B6B716B83AF8871
:10D6E000200039000CF09CF82200162358321678DE
:10D6F0009C46143B3343A879697B1370012304AE25
:10D70000B3700023378032001F00AC44F0709818CB
:10D7100001330771062BFAD1002791723A00F319F1
:10D720000137DA72062FFAD163463A007361E91DB8
:10D7300005A80CF0F8FF29000B2004AB3A000E31CD
:10D74000C0180CF0F0FF94346368A360A068002850
:10D750002AD0C36831009847A368002BF4D01B6916
:10D76000F3E720002E49AE880CF05AF82200022080
:10D7700058321378A9798343137004AB1E809970D3
:10D78000A0346368A360A06800280DD0C36804A912
:10D790009847A368002BF4D01B69F3E75369002B6B
:10D7A00002D0A888A91D9847290001980CF0AEF96D
:10D7B0000BB0F0BD636E002BF6D0AE79A366A06E01
:10D7C0000028F1D0C36831009847A36E002B01D127
:10D7D000636EF3E71B69F1E7012669460D27AB7B12
:10D7E000EF575A071E40920FDB080A720B7306228E
:10D7F000E91D04A80CF097FF6A46127A04AB1A726E
:10D800006A46127B9F715A72DE712B0020000F3323
:10D810008C3407938030236804A99847C4E7C04636
:10D82000FFFF0000014B18607047C046E025002054
:10D830001FB58022A323D205DB00D3580820DB07C5
:10D8400000D4053048221D4B1D4901F08DF80028F9
:10D850000AD080B2002807D1BFF34F8F194B1A4A64
:10D86000DA60BFF34F8FFEE7002302A80293013373
:10D870000370164B1B6843600BF09AFB002802D024
:10D88000072005B000BD6B46581C0BF08FFB00282D
:10D89000F6D16B46591C0BF087FB0028F0D10C48E1
:10D8A00001F092F880B20028EBD10A4801F096F816
:10D8B00080B20028E5D100F087FDE2E7B58F0200D5
:10D8C000E425002000ED00E00400FA05DC2500203E
:10D8D00099D601007DD6010080B2002807D1BFF3A0
:10D8E0004F8F034B034ADA60BFF34F8FFEE7704759
:10D8F00000ED00E00400FA0500487047FFFF00005B
:10D90000F0B597B00593036807AD1B6804910393C6
:10D9100011002B00060091C991C30024D368210097
:10D9200008220DA8EB602C610CF019FF22000B4BB4
:10D9300010940F9311AB0C941C70E11801344A70D1
:10D94000102CFAD15A820193059B2A0000933000D3
:10D950000499039C0CABA04717B0F0BDC99002001E
:10D96000FC3070B5046C0500002C0DD124200CF0A7
:10D97000A2FE064B44608361054B8460C460046171
:10D980004461C46103602864286C70BD60AC02000F
:10D9900048AD0200FC3070B5C56B0400002D11D1FC
:10D9A00034200CF088FE084B85604360074B4561CE
:10D9B0000361074B0562C361064BC5628362064B78
:10D9C000E0630360E06B70BD90AC020080AC0200CD
:10D9D000F0AC020000AD020010AD02007FB503798B
:10D9E0001548002B23D0154E154C33782000002B02
:10D9F0001DD10A256D4428000BF04AFB002810D1E8
:10DA00006B88592B0DD12B78AA88D91F012910D8E2
:10DA100000920C4A2021200008F028F801233370DE
:10DA200004E02022200008490CF0E0FE200004B0B1
:10DA300070BD0092054AEDE7FFBA02009028002071
:10DA40007028002021BB020019BB02003EBB02006F
:10DA500010B50400024B08C00BF0F2FB200010BD13
:10DA600080AC020010B50400024B08C00BF0FDFBB7
:10DA7000200010BD90AC0200064B70B5040003609E
:10DA80004068002804D005690CF011FE2800F8E772
:10DA9000200070BD70AC0200064B70B5040003603E
:10DAA0004068002804D005690CF001FE2800F8E762
:10DAB000200070BDA0AC0200064B70B504000360EE
:10DAC0004068002804D005690CF0F1FD2800F8E753
:10DAD000200070BDB0AC0200064B70B504000360BE
