:020000021000EC
:108000000040002069F90100A5F90100A7F901006D
:108010000000000000000000000000000000000060
:10802000000000000000000000000000A9F90100AD
:108030000000000000000000ABF90100ADF90100F4
:10804000AFF90100A5B0010065000200AFF9010021
:10805000AFF901000000000081FA0100AFF9010052
:10806000AFF901004D020200EDFE0100AFF9010081
:10807000AFF90100AFF90100AFF90100AFF901005C
:10808000AFF90100AFF90100AFF90100AFF901004C
:10809000AFF90100E5DF010065E10100AFF9010082
:1080A000AFF90100AFF9010000000000000000007E
:1080B00000000000000000000000000000000000C0
:1080C00010B5064C2378002B07D1054B002B02D0AE
:1080D000044800E000BF0123237010BDB020002041
:1080E0000000000050B00200044B10B5002B03D07C
:1080F0000349044800E000BF10BDC0460000000076
:10810000B420002050B00200164B002B00D1144BBD
:108110009D46402292029A1A924600218B460F46B3
:108120001348144A121A11F095FD0F4B002B00D082
:1081300098470E4B002B00D09847002000210400E8
:108140000D000D48002802D00C4800E000BF0CF0E4
:108150008FFF2000290011F073FB0CF073FFC04665
:1081600000000800004000200000000000000000A7
:10817000A8200020202900200000000000000000AE
:1081800010B50400034B036040300DF042FD2000A9
:1081900010BDC046D89E0200F0B585B01F000AABE6
:1081A0001B880600150002910393002F1CD0282085
:1081B00001F0F8F86B4604001989039BAAB20093FA
:1081C0003B000DF0C4FC3368210030005B68984729
:1081D00000280AD0002C05D020000DF0CEFC200095
:1081E00001F0FAF8024800E0024805B0F0BDC046D0
:1081F00016FCFFFF17FCFFFF0022104B00B5FF210C
:108200001A70662389B01A0000910D4803F0C0FB74
:108210000C4907A801F0CAF9C82207A952000A4868
:1082200002F0C8FA07A80DF0F4FC084800F0C2FFFD
:1082300007480DF024FB09B000BDC0465C280020B3
:10824000F0240020F0AA0200C021002088130000C2
:10825000D4200020822110B50E4C4900200003F0EC
:1082600091FA782000F0A6FF200003F0F7FA3C20F6
:1082700000F0A0FFC3212000890003F083FAFA2058
:10828000400000F097FF200003F0E8FA02480EF0EB
:1082900089FF10BD04250020F024002070B50525BD
:1082A00000240C480EF03FFB013D24180A2000F08A
:1082B00081FF002DF5D10521200008F075F90AF0A5
:1082C00013FF054A054B0AF0DBF80BF033FB0AF00D
:1082D000D5FE70BDC02100200EBE30992A18D93FAE
:1082E00037B50321684607F063FB64240025684620
:1082F00007F0A2FB104908F0EDFE09F0CDF97E2849
:1083000002DD854200DA0500013C002CEFD1280097
:108310000AF0EAFE094A0A4B0AF0B2F80022094BB9
:108320000AF01AFB0AF0AAFE002801DA20003EBD7E
:108330006428FCDD6420FAE700007F4333333333E5
:108340003333E93F00005940F7B501211E480DF0D5
:1083500022FF0AF0C9FE04000D001B4801210DF0A8
:108360002DFF0AF0C1FE06000F00174801210DF095
:1083700038FF0AF0B9FE2200009001912B00200086
:1083800029000AF07DF832003B0004000D003000A7
:1083900039000AF075F802000B002000290009F0EE
:1083A0001DFA009A019B0D000400190010000AF04C
:1083B00067F802000B002000290009F00FFA0BF00B
:1083C0008DFB0AF05BFEFEBD98220020F0B5012473
:1083D000022693B0C14911A801F0E8F8782211A94A
:1083E000BF4802F04FFA11A80DF013FCBD480EF083
:1083F000D9FEBD4B1C70BD4910A801F0D7F8FFF79E
:108400006FFF010011A80DF020FC11AA10A905A80A
:108410000DF06BFC11A80DF0FCFB10A80DF0F9FBA2
:10842000B34910A801F0C2F8B2480EF095FE010061
:1084300011A80DF00AFC11AA10A906A80DF055FC10
:1084400011A80DF0E6FB10A80DF0E3FBAA4D2B6878
:10845000022B1DDDA9490FA801F0A8F8FFF71EFFA8
:10846000010010A80DF0F1FB10AA0FA911A80DF042
:108470003CFC11A9A2480DF029FC11A80DF0C9FB84
:1084800010A80DF0C6FB0FA80DF0C3FB00232B6056
:108490002B689C49013310A82B6001F087F89A489B
:1084A00001F09CFC010011A80DF0CFFB11AA10A94E
:1084B00007A80DF01AFC11A80DF0ABFB10A80DF0E9
:1084C000A8FB924910A801F071F8914D21002800F5
:1084D0000DF061FE010011A80DF0B7FB11AA10A963
:1084E00008A80DF002FC11A80DF093FB10A80DF0E8
:1084F00090FB884910A801F059F8210028000DF0E0
:108500005DFE010011A80DF0A0FB11AA10A909A899
:108510000DF0EBFB11A80DF07CFB10A80DF079FB22
:108520007D4910A801F042F8210028000DF059FE05
:10853000010011A80DF089FB11AA10A90AA80DF0DD
:10854000D4FB11A80DF065FB10A80DF062FB734978
:1085500010A801F02BF8FFF7F7FE010011A80DF0AD
:1085600074FB11AA10A90BA80DF0BFFB11A80DF008
:1085700050FB10A80DF04DFB694910A801F016F84A
:1085800068480DF0B4FE010011A80DF05EFB11AAC1
:1085900010A90CA80DF0A9FB11A80DF03AFB10A82A
:1085A0000DF037FB604910A801F000F85F480DF0AE
:1085B0009EFE010011A80DF048FB11AA10A90DA8FC
:1085C0000DF093FB11A80DF024FB10A80DF021FB7A
:1085D000574D06AA05A90FA82F680DF086FB484A3B
:1085E0000FA910A80DF081FB07AA10A911A80DF082
:1085F0007CFB320011A938000FF00BF811A80DF028
:1086000008FB10A80DF005FB0FA80DF002FB1420CD
:1086100000F0D0FD2F6809AA08A910A80DF065FB8D
:108620000AAA10A911A80DF060FB320011A93800A8
:108630000EF0EFFF11A80DF0ECFA10A80DF0E9FA1A
:10864000142000F0B7FD0CAA0BA90EA82D680DF0A0
:108650004CFB0DAA0EA90FA80DF047FB354910A839
:1086600000F0A4FF10AA0FA911A80DF03EFB3200E4
:1086700011A928000EF0CDFF11A80DF0CAFA10A81C
:108680000DF0C7FA0FA80DF0C4FA0EA80DF0C1FA4C
:10869000322000F08FFD0DA80DF0BBFA0CA80DF0F4
:1086A000B8FA0BA80DF0B5FA0AA80DF0B2FA09A8AD
:1086B0000DF0AFFA08A80DF0ACFA07A80DF0A9FA72
:1086C00006A80DF0A6FA05A80DF0A3FA064B1B7834
:1086D000002B00D08FE613B0F0BDC046FAAF020009
:1086E000C0210020F02400205C280020F2AA020013
:1086F000F5AA02004C23002004200020F8AA020062
:10870000D0200020FBAA0200FC220020FEAA0200CA
:108710009822002002AB020006AB02000AAB020066
:108720000EAB02003822002012AB020060220020B3
:108730000C25002016AB0200F7B51A4DFA262800CA
:1087400000F082F9184801F049FBFFF783FD0A2386
:1087500010270093F5331A001900144803F018F994
:10876000134CB6003100009701222000114BFFF797
:1087700013FD31000222104B00972000FFF70CFD83
:108780001C2000F00FFE832120230400C9001A00E2
:10879000695803F0CBFE094B1C6000F087FD0020F8
:1087A000FEBDC046D4200020FC220020F024002082
:1087B000A4210020CD830100F98101000C250020B7
:1087C000F8B5104D280000F06DF80F4C280022007D
:1087D0000E4911F0E0F90E4F0E4D3900280000F05F
:1087E000E5FE0D4E22003100280011F0D4F90B4DAA
:1087F0003900280000F0DAFE31002800220011F0D4
:10880000CAF9F8BDD42000200020002021880100F2
:1088100018AB0200D0200020135C0200CC20002006
:10882000862310B50400DB00C01802F0D3FE1B4BFA
:10883000E01803F037F8F423194A9B00E2501C3388
:10884000E0180DF0E6F9FA239B00E0180DF0E1F9CD
:108850008A239B00E01801F029F92000C530FF3081
:1088600000F030FF20008D30FF3001F0E7F82000ED
:108870006530FF3001F0E2F82000EC3001F0B2FD8D
:108880002000D03002F086FA2000643006F0B6FFF7
:10889000201DFFF775FC200010BDC0461C04000021
:1088A0006CA00200F0B51425040097B019222B002B
:1088B00000951821043002F045FC23002700260013
:1088C00064331800B43713211393B83606F0A2FFAF
:1088D00038000EF0E7FB2900132230000EF037F8C5
:1088E0002000D03002F076FA2300EC330621180085
:1088F000514A149301F09EFD20000023653000933F
:1089000001331A001121FF3001F0A4F820000023E8
:108910008D300093022210210133FF3001F09AF8CC
:108920002000B5301A2302220121FF3002F010FB93
:108930002200C532FF32129231000423182212980D
:1089400000F0CCFE8A229200A218159205231D2267
:108950003100019300923B00129A159801F0AAFA97
:108960009B229200149B1599A018129A01F076FC94
:108970009E2292003900A0181C2202F011FD322321
:10898000A4221093193B0F93013B0E93013B0D93CF
:10899000013B0C93013B0B93023B0993023B079372
:1089A000013B0693013B0593013B0493013B039379
:1089B000013B0293013B0A950193023D9200013B6A
:1089C000A01800930822013B072108950DF0C7FF6E
:1089D000F42292003900A01803F098FAFC229200C9
:1089E000A0181D2102F0FAFA83230026DB00E650CE
:1089F000124B28222900E01802F0ECFF8623DB004E
:108A0000E01802F081FE13980321267010F0ECFDAF
:108A10002300220020000A499C33A0321C60116010
:108A20005660084A02215A618030012207F0DAF8C4
:108A3000200017B0F0BDC046E09E02001C040000FC
:108A40007F580200B1580200F0B5027801231700E8
:108A500004008BB01F401A4200D0A9E0C530FF309F
:108A60000DF0F5F92300D0331800039300F064FAF9
:108A700000F092F9282000F095FC050010300DF070
:108A800057F94C4B18202B6000F08CFC06004A4B29
:108A9000082208933900099704600C3011F0DAF8C5
:108AA00008A90822301D11F0B9F8444B2900736160
:108AB00012230398AE60EF60AB802F626F6202F00A
:108AC00001F9002805D028000DF057F8280000F023
:108AD00083FC01250027237864202B43237000F0BA
:108AE00069FB059526006536FF3630000DF0FFFB6B
:108AF00000283CD020008D30FF300DF0F8FB00281E
:108B000035D00A2F33D06420013700F053FB0A2FF1
:108B1000E8D1F4239B00E5184833E3580493002B75
:108B20001ED100F059F8010007A800F03FFD08A889
:108B30000CF022FF059B08AA07A928000093039BBD
:108B400003F03CFA08A80DF064F807A80DF061F8EE
:108B5000F6239B00E35804938323049ADB00E2503E
:108B6000210032002800EC3103F0BAFBBAE783257C
:108B7000ED006659002E1BD100F02EF8010007A869
:108B800000F014FD08A80CF0F7FEF4239B00E01899
:108B900008AA039B07A9009603F010FA08A80DF095
:108BA00038F807A80DF035F8F6239B00E358635119
:108BB0000BB0F0BDFD03000007590200C7580200CA
:108BC000BFF34F8F024B034ADA60BFF34F8FFEE7CC
:108BD00000ED00E00400FA05F0B58BB002ABDF1D3C
:108BE00019223800144911F019F80023134D0526F5
:108BF0006B7180235B055B6E2C0000930123019356
:108C00003100009807F0CCFC0800019907F042FC05
:108C10000522009B56431B1A0093019B534301936B
:108C20002B1B5343FB181B5C013C6371044B9C42A0
:108C3000E6D102480BB0F0BD4FAB02005D2800202A
:108C400058280020F0B595B01822002104000EA885
:108C500011F000F813210EA810F0D0FD03210EA88A
:108C600010F077FE464B1B68002B00D10133DBB2BE
:108C7000009300210123434A09A807F023F9FA23AE
:108C80009B009C429B411C4072B63F4B64211E6876
:108C90003E4B20000593052507F086FC68435030C5
:108CA00030180A210690200007F07EFC0A2107F008
:108CB00061FD694350317118200007910A2107F0C6
:108CC00059FD4D4350357619089680260024B6018B
:108CD000009B002B52D004AD0027032C02D180262C
:108CE0000024B6016B682A4A02936300D31800225D
:108CF000019258780299095C039119788C461021E9
:108D0000604601410398014204D00120904001993E
:108D10000143019101320633092AEAD1019B2A68F5
:108D2000D9431C4B09011940029B934224D1312F96
:108D300022DC002109A810F0CCFEFA23139A0F9927
:108D4000DB001068014219D0013B002BF9D1FA2356
:108D5000013401377600E4B25B009F42BDD1043597
:108D600008ABAB42B8D1064B1B68002BB0D0009BC0
:108D7000013BDBB20093ABE73143DBE7FFF720FFBA
:108D800014250020F0FF0000082000209EAB020008
:108D900068AB0200F01F0000F8B50023124C2360FE
:108DA0000CF00BFE002808D0042120000CF001FE7E
:108DB000002801D00D4B2360F8BD0122A127042516
:108DC0000B4B0C491A602268FF0048604E68002E69
:108DD000FCD0DE591202013D3243002DF5D1226054
:108DE00001225A60E8E7C04610250020ED5EBC0B6A
:108DF00000D00040FCD000400B4B70B51C68002C2C
:108E000010D0656D00F08EFBA36C002901D1834268
:108E100006D820000CF004FE200004490CF0EEFD02
:108E20002C00ECE770BDC0461C2500203C2500202E
:108E3000F0B593B007932A4B04AC1E6804900591DB
:108E40000692002E49D0274B258867881C6800238E
:108E50000293002C2DD0636D23480393A36C190C4F
:108E60009AB20B00854214D12048824211D10029C8
:108E700001D0B9420BD1029B002B08D120000CF08D
:108E8000CFFD20001A490CF0B9FD01230293039C89
:108E9000DFE7002A01D09542F9D1002901D0BB4279
:108EA000F5D120000CF0BCFD200011490CF0A6FD0E
:108EB000EDE7104BEB18012B0FD910233A002900D6
:108EC000009308A80C4B0CF042FE336830009B68FE
:108ED00008A9984708A80CF050FE13B0F0BDC04692
:108EE0001825002048250020FE030000FF03000095
:108EF0003C25002002FCFFFF318E010010B572B648
:108F00000B4B1C68002C08D020000CF089FD0023BE
:108F1000E364084B2000E36310BD62B65C2010F0F0
:108F200045FE5C220021040010F094FEEFE7C046ED
:108F30004025002000400020F7B51E4C0123227878
:108F400016001E401A4233D11B4D2860FFF7D6FF92
:108F50001A4B1B4918600CF051FDFFF7CFFF194B5E
:108F60001860194B4363194B8363286800280FD09E
:108F7000C023174F3200174900933B00FFF70CF94D
:108F8000C023009332003B0013492868FFF704F91F
:108F90000C2010F00BFE0023838083710F4B0360C5
:108FA0000F4B836000F0D6FA01232278134323701D
:108FB000F7BDC04663280020182500204C2500205E
:108FC0003C25002044250020FC3F0020B95A020027
:108FD000318E0100FF030000FE030000009F02002D
:108FE000F98D0100024B1878012318407047C046E4
:108FF00063280020F7B506000D0017000193002834
:1090000002D100242000FEBD0029FAD0FFF776FF30
:10901000041EF6D0074B019A43630660064B456079
:109020008760002A00D0054B20000549A3630CF09F
:10903000E5FCE7E7FC3F0020935A0200A15A02003A
:109040003C25002070B5074B0E0011001A78050072
:109050000123100018401A4203D032002800FFF705
:10906000C9FF70BD63280020024B18684342584175
:109070007047C0463C2500200300002210B504497B
:1090800094006058002801D00132F9E7635010BD08
:1090900024250020002310B5044A99008C588442EE
:1090A00001D00133F9E70020885010BD24250020AD
:1090B00010B50024084BA200D058002802D0036845
:1090C0005B6898470134062CF4D1044B1B68002BD5
:1090D00000D120BF10BDC046242500203C25002023
:1090E0000122F8B52C4B1B7813421CD02B4D2C6859
:1090F000E36C134218D002273B43E364284B1E68FD
:109100000423F26C30001343F364636BF3630CF0DD
:109110009EFC3000716C03F0D8FB2868C36C3B42A6
:1091200001D003F00CFCF8BD1E4F1F4E3A683068AA
:10913000002A0AD128601B0712D52C60FFF7B8FF60
:109140003B68002BFAD02B600AE0216DB94219D19F
:10915000616D002900D1110029602A688242EAD09D
:1091600029688C42DFD0336899420DD10F4B4B6395
:109170000F4B8B6320000CF06AFC296820004B6CBD
:10918000626C06E02A60E8E79C42F3D100221000FE
:109190004B6C03F059FBC6E7632800204C250020E8
:1091A000202500203C25002044250020FC3F0020F5
:1091B000B95A020070B5114B04001A7801231A4203
:1091C00002D110F0BFFB70BD0D4A1568EA6C1A425F
:1091D00006D0FFF793FE0B4B1860002800D0050067
:1091E00000F0A0F92418AC6428000CF019FC280049
:1091F00005490CF003FCFFF773FFE4E76328002048
:109200004C250020202500201C250020F0B51E4BF9
:109210001E4F1E683B6885B005000391002B31D0BE
:109220001B4B1A7801231A422CD0F26C1A420ED032
:10923000FFF764FE174B041E186008D00CF0F0FB1B
:10924000200015490CF0DAFB2600FFF749FF039BCD
:1092500030001B042B43B3640CF0E2FB30000F49D9
:109260000CF0CCFB0E4B0024EB18012B07D9C023CC
:10927000009329000B4B039A3868FEF78DFF2000FE
:1092800005B0F0BD084CFAE74C2500201825002059
:1092900063280020202500203C25002048250020B0
:1092A00002FCFFFF318E010016FCFFFF10B5074BDB
:1092B0001B78DB0709D5064C20680CF0B1FB05498B
:1092C00020680CF09BFBFFF70BFF10BD632800200C
:1092D0004C2500204025002010B5034B1B78DB07F0
:1092E00001D5FFF7E3FF10BD63280020F7B50500A7
:1092F0000C00002833D001261B4B1B78334230D0A2
:109300001A4F07233868C26C1100194000911A42A5
:1093100007D021002800164AFFF794FE00252800F8
:10932000FEBD03F0F4FA3A680221D36C180008403D
:1093300001900B4203D001318B43D364EEE73343FA
:10934000D3642000A8473A68019DD36C1900B1434B
:10935000D1645B07E3D52000FFF7BEFFDFE7054DD3
:10936000DDE7054DDBE7C046632800204C250020E3
:10937000D992010017FCFFFF16FCFFFF020010B599
:10938000014B12CB12C210BD50250020034B1A68AE
:10939000034B1A607E225A607047C04608200020A6
:1093A0005025002070B504000025094B1B78AB4206
:1093B00009DD0849EB002000C9180CF083FB0028E8
:1093C00004D10135F1E720000BF076FE70BDC046F8
:1093D000642800205825002010B5002811D0002254
:1093E0000B4B19780B4B91420FDD1C68844209D25C
:1093F0005C68844206D98023043802681B06134344
:10940000036010BD01320833EDE70BF05FFEF8E7B3
:10941000642800205825002070B5051E14DD0B4E71
:109420000B4C3368002B02D0206810F040F9FA2171
:1094300020680024074B89008361C462694335605A
:1094400010F046F9200070BD0348FCE768250020B5
:10945000982500200195010017FCFFFFF8B5114F7A
:1094600005003E68002E0AD1302010F09FFB04005A
:1094700006F038FA0C4BA6612360E6623C600B4EA6
:109480003368002B09D1102010F090FB040010F07D
:109490006BF92000346010F041F92800FFF7BCFFA1
:1094A000F8BDC04698250020F8A3020094250020AE
:1094B000014B18687047C0466825002070B50D4CF8
:1094C0002368002B03D00C4B1B68002B02D1062015
:1094D000FFF7C4FF206810F038F902000749C317EE
:1094E0000D684E685219734120680A604B6010F095
:1094F00032F970BD9425002098250020A820002076
:1095000010B5FFF7DBFF0024054BA200D058002860
:1095100002D003681B68984701340A2CF4D110BDAF
:109520006C25002010B5FFF7C9FFFA22034B92000B
:1095300018685968002307F05DF910BDA8200020C5
:1095400010B5FFF7BBFF024B1868596810BDC04645
:10955000A82000200B4B10B51B680400002B03D083
:10956000094B1B68002B02D10620FFF777FF002371
:10957000064A99008858002801D00133F9E78C5039
:1095800010BDC04694250020982500206C250020A1
:10959000002310B5044A99008C58844201D001334D
:1095A000F9E70020885010BD6C25002010B504009C
:1095B000002902D00B78002B03D1034B236020003D
:1095C00010BD0CF02DFBFAE7109F0200F8B5040067
:1095D0000E00150000290AD00B78002B07D0002AB6
:1095E00005D0080097B210F075FB874203D90B4BEA
:1095F00023602000F8BD681D0BF05EFD20600CF0BC
:10960000EEFB20682A0047803100043010F006FB92
:1096100023685D1900232B71EBE7C046109F020001
:10962000014B03607047C046109F020010B505480B
:10963000054C20600CF0D6FB2000044A044910F0D1
:10964000AAFA10BD109F02009C25002000200020D7
:10965000135C0200084B73B51D680400002D0AD08E
:1096600001002E6808220831684610F0D7FA0CCCA9
:1096700028003168884773BDA025002010B5054C2F
:10968000012120000CF0A2FB2000034A034910F046
:1096900082FA10BDA4250020002000208B5D02006E
:1096A000074A030010B50120934208D0834202D03C
:1096B0000020DB0703D41E20FFF7C4FA002010BDF2
:1096C000FFFF000010B50400034B08330360FFF7F1
:1096D000E1FC200010BDC046189F0200F7B507004E
:1096E0000025040001931A4B143708330E008580BF
:1096F000290085710360C581056100923800182238
:1097000010F0A8FA3800152110F078F8019B22001B
:10971000A380009B0E21238114236381123BA5713A
:10972000A563A58723733E32137826638B4313709A
:10973000084B0122E364084B2000236523005433C7
:109740001D70064B6364230048339D701A80FEBD74
:10975000189F020000000A0300030301010001003A
:10976000F7B504000CF0D6FC0E22A35E7A4F5B42E4
:10977000BB4251DA23003E331B789B074CD50125B1
:10978000210028003E310B785A0890430200022045
:10979000AA40834313430B7020000CF0BBFC102243
:1097A000A35E5B42BB4248DA23003E331B785B0773
:1097B00043D50125210028003E310B789A089043BB
:1097C00082000420834313430B70260020000CF01A
:1097D000A1FC1222A35E4A36BB423EDA23003E338E
:1097E0001B781B0739D5210001223E310B78D808A0
:1097F00082430820D200834313430B703378032B3A
:109800003BD80133DBB23370012B00D08EE0230054
:1098100000224C331A8030E020000CF07BFC0E223A
:10982000A35EC8225B42002552009342B4DD2300B0
:109830003E331B789B07A2D5AEE720000CF06AFCF4
:109840001022A35EC8225B4252009342BDDD23007A
:109850003E331B785B07ACD5B7E720000CF05AFC11
:10986000C8231221625E5B009A4204DD23003E336E
:109870001B781B07B7D5002DC0D133780193002B7F
:1098800014D0200027004C3003883E3701339BB2B0
:1098900003803A780125110029402A4254D01D2B1B
:1098A00004D90023AA433A700380337020000CF0DF
:1098B0005EFC2A4A0723904244DD20000CF02AFC7B
:1098C0000E23E25E264E52420323B2423ADBC82503
:1098D00020000CF01FFC0E23E25EAD005242042378
:1098E000AA422FDC20000CF015FC1023E25E0223BC
:1098F0005242B24226DB20000CF00CFC1023E25E48
:1099000001235242AA421DDC20000CF003FC12236A
:10991000E25E0623B24215DB20000CF0FBFB1223B3
:10992000E25E0023AA420DDD05330BE0042BA4D137
:1099300022003E321178033B0B43137000234C345A
:1099400023800C331800FEBD092BAFD9018001998B
:1099500001393170AAE7C04670FEFFFFFF700200B8
:10996000E0FCFFFFF0B5C369C1681A68451D04003B
:10997000EB7F89B0114225D0002B57D10123A2796A
:109980001A4237D0002602226846A188A6710CF040
:10999000D9F9A31DDD7F012D2CD1FFF7C3FD3300C5
:1099A000226A801A99410F000600A1889F4203D1C4
:1099B000FA239B009E423BD30123042204A80CF00F
:1099C000C1F917E00B2B01D80133EB77EB7F082BA4
:1099D0000DD90122A37913420CD11343A188A3719D
:1099E00004A813000CF0AEF9FFF79CFD2062EB7F9A
:1099F000012BC3D90322A3791340012B14D1FFF704
:109A000091FD0023226A801A9941994202D10A4BA2
:109A1000984209D90223A279A1881343A371052290
:109A2000012304A80CF08EF909B0F0BD013BCCE78E
:109A30002B000322C2E7C046DB05000010B504007E
:109A4000034B08330360FFF7A3FD200010BDC046A1
:109A5000309F0200F0B5060000250F00040085B01D
:109A600002930AAB1B78083603930F4B2900083387
:109A700003600192858085711822300010F0EAF8A9
:109A800039003000039A0FF0BEFE019B029AA380BA
:109A9000A31DE771DA77631D25622000DD77FFF7EC
:109AA00059FD200005B0F0BD309F020010B5040044
:109AB000034B08330360FFF7EDFA200010BDC046EA
:109AC000489F0200F0B587B004AC08230F00422283
:109AD0001021009405000CF040FCA3790020DA0767
:109AE00000D48BE062782678E17812021643A278DF
:109AF00009020A4312B2D21002926279207912024C
:109B0000104300B242100392E47936B224021C439F
:109B1000AB1CD98FF610A4108803002C00D02100B4
:109B200006F042FD364B2A00C01800B203000021A7
:109B300043433F325156DB11013A4B4311788022A7
:109B4000C90148431B185B12520399182B00343388
:109B50001B785BB2A0334B431B135E432B003233A5
:109B60001B7876135BB2DB00F6183E80AE1CF18FDB
:109B70008803002C00D0210006F016FD204B2A009F
:109B8000C01800B20300002143433F325156DB119D
:109B9000013A4B4311788022C90148431B185B12DC
:109BA000520399182B0035331B78029A5BB2A0330D
:109BB0004B431B135A4353132A003332127852B2C9
:109BC000D2009B187B803C22AB5E039A3A21685EF0
:109BD000D31A3E21725EDB03A21A50438010181A7A
:109BE000EB8E6100594380231B02C9183823EC5EB9
:109BF0000914091906F0D8FCB880012007B0F0BD9F
:109C000000C0FFFFD0B504000CF0C0FBE268A36900
:109C1000981A09F069FA06000F002369E069C01A72
:109C200009F062FA32003B0009F054FF0022104BA9
:109C300008F026FC0F4A104B08F03AF909F0CCFA6C
:109C40000021041C06F0AEFD002804D0201C0B49A6
:109C500006F0DAFE041C201C09F076FA02000B0064
:109C60000020074908F078FE09F008FAD0BDC04688
:109C700000806640EA2E4454FB2109400000B443B2
:109C800000807640F0B5040085B0806A0CF01AFBC5
:109C9000061CA06A0CF00DFB0221071C20000CF032
:109CA00012FC0221039020000CF01FFC07F014FDB1
:109CB00080231B06C2180221200001920CF027FC11
:109CC00007F00AFD041C301C09F0C6FE051C301C00
:109CD00009F086FE0290381C09F0BEFE061C381CF6
:109CE00009F07EFE071C039807F0F6FC80231B0694
:109CF000C018391C07F0EEF9311C071C019807F059
:109D0000E9F9291C07F0E6F9011C381C06F07CFE75
:109D1000311C071C201C07F0DDF9029907F0DAF965
:109D2000011C381C06F070FE291C061C201C07F0C4
:109D3000D1F90299041C019807F0CCF9011C201CF0
:109D400007F0E2FA311C09F02DFF0D4907F0C2F9C6
:109D500009F0FAF90B4A0C4B08F0AAF809F03CFAA2
:109D60000021041C06F01EFD002804D0201C04491C
:109D700006F04AFE041C201C07F08EFC05B0F0BD66
:109D80000000B443EA2E4454FB2119407FB504255A
:109D9000837904002B421BD102260CF0F7FAA37939
:109DA0000622B3432B43A37168460123A1880BF01D
:109DB000C9FFA3791A003340581E83415842FB2340
:109DC0009B001840034BAA43A271C01804B070BD99
:109DD0000148FBE714FCFFFF15FCFFFF10B583797A
:109DE00004005A070DD49B0701D4FFF7CFFFA36AE5
:109DF0002000002B02D0FFF745FF10BDFFF702FF48
:109E0000FBE70148F9E7C04615FCFFFF70B5C66ADD
:109E100086B001AC050001916260A360002E0CD0F9
:109E20000B4905A8FFF7C2FB0C232200300005A94F
:109E30000DF073F905A80BF0ECFE2B000C3307CCEA
:109E400007C30223AA791343AB7106B070BDC046A5
:109E50007EAD0200642330B5040085B081800281AC
:109E600043810CF060FB0222A37920009343A3718D
:109E70000CF0B6FAE06A002813D00D490DF018F97D
:109E8000051E0ED001000C22103101A80FF0C6FEF5
:109E900020000199029A039BFFF7B8FF28000FF0FA
:109EA00081FE0123A2791343A37105B030BDC046E2
:109EB0007EAD0200F8B504000E0000201700E3623A
:109EC00001230B4D06AA083507A9A080A0712560C3
:109ED000E06020616061A061E06120626662200054
:109EE000A762128809882386FFF7B4FF2000F8BD17
:109EF000489F020082B0F0B50400A5B064202B9307
:109F00002A920FF01FFD04220C2109A802F078FD0F
:109F10002422CD491BA80FF081FE052206A81100BE
:109F20000EF009FAC94907A802F018FEA06800F06F
:109F300079FBA568C64918A8FFF738FB78222800E6
:109F400018A900F09FFC18A80BF063FE6E25962060
:109F5000013D0FF0F7FC002DF9D1A06800F062FB85
:109F6000A0680CF0DBFC012160680CF014F9012101
:109F7000070060680CF022F906000A20FFF71AF9C2
:109F80000022B44B04929F4210DB013204923A004B
:109F9000C8320BDBC822042192000491974205DCF1
:109FA00003220492C82F01DC013A0492002203929A
:109FB0009E4210DB012303933300C8330BDBC8231D
:109FC00004329B0003929E4205DC03230393C82EB8
:109FD00001DC013B039306A80EF0A4F91BAF00239C
:109FE0003E000593B378002B05D0FF2372783178BB
:109FF00006A802F047FD059B0336013305930C2BA1
:10A00000F0D16B460C229A5E6B4606A81021595E71
:10A01000FF2302F037FD0023A0681A00009374307C
:10A0200006A90EF08FF93B00243305933B78049A80
:10A03000934234D17B78039A934230D1BE78002E7C
:10A040002DD1310020680CF03EFA07F045FB3200BC
:10A05000031C290009A80DF01FFB310020680CF03B
:10A0600044FA07F039FB0122031C290009A80DF06E
:10A0700013FB310020680CF04AFA07F02DFB290091
:10A08000031C022209A80DF007FBFE2329009B05F3
:10A09000032209A80DF000FB0123BB70ED18059BFE
:10A0A00003379F42C2D16420FFF784F80B2D00DCF8
:10A0B00059E709A80DF0DCFA012201000CA802F012
:10A0C0009FFC002509A80DF0D3FAA8423CDD290029
:10A0D000002209A80DF0CEFA00222900061C09A8CA
:10A0E0000DF0C8FA011C301C06F0F4FF2900061C14
:10A0F000012209A80DF0BEFA01222900071C09A8B7
:10A100000DF0B8FA011C381C06F0E4FF311C06F013
:10A110007BFC29000222061C09A80DF0ABFA0222E2
:10A120002900071C09A80DF0A5FA011C381C06F02F
:10A13000D1FF311C06F068FC2900031C00220CA88A
:10A140000DF0AAFA0135BDE709AA1100012318A8EC
:10A150000DF0BCFA18A90FA80DF016FB18A80DF009
:10A16000ACFA0CAA09A912A801230DF0AFFA00233A
:10A1700012AA0FA915A80DF0A9FA002215A811001E
:10A180000DF078FA0022061C012115A80DF072FAD4
:10A190000022051C022115A80DF06CFAFC21071CF9
:10A1A0008905301C06F096FF07F076FAFC210600C0
:10A1B00018908905281C06F08DFF07F06DFAFC2128
:10A1C000050019908905381C06F084FF07F064FA31
:10A1D0002A00030031001A902068FFF717FEA068DC
:10A1E0000CF09CFB07A908A8A5680EF093F80022C4
:10A1F000194B009208A901932800130000F0B0FA4F
:10A2000008A80EF07AF8FA2080000FF09BFBA068F7
:10A210000CF084FB15A80DF050FA12A80DF04DFAC1
:10A220000FA80DF04AFA0CA80DF047FA07A80EF097
:10A2300064F806A80EF061F809A80DF03EFA25B002
:10A24000F0BC08BC02B01847E2AD020089AD0200C4
:10A25000CEAD0200E0FCFFFFDC050000F7B5836037
:10A260001D4B05001F6801604260002F31D028207F
:10A270000FF09CFC040010300BF05AFD174B182017
:10A2800023600FF093FC00220600154B0021019281
:10A29000056008320C3000930FF0DCFC08226946A0
:10A2A000301D0FF0BBFC0F4B00227361C223A38053
:10A2B0003B68E260210038005B68A660226262624F
:10A2C0009847002805D020000BF057FC20000FF025
:10A2D00069FC2800FEBDC046A02500200500060040
:10A2E000F59E0100CB650200F0B5040085B0637AED
:10A2F0009C46002B04D120000CF092F905B0F0BD73
:10A30000A37A266F01931023019AF35600259B1818
:10A3100001229A402900F36803920293029BAB4208
:10A3200031DDB068019B6843C01873694000E77A6B
:10A330001A181B5C5078E279012F14D1571E3F1A6E
:10A3400018003B004243606F52008218D218937984
:10A35000634500DD6346627B1A4202D00123AB40B5
:10A3600019430135DAE7022F07D0032FEAD1277A04
:10A37000013FFF1A03003800E4E7571EFB1A277A53
:10A38000013F381ADEE71123C943F356606C994048
:10A3900023691940039B19430FF09BFBA27B072AFB
:10A3A000ACD8637B0C495B006373531CDBB2900039
:10A3B0004158A373022A03D808000FF0B8FA96E7B1
:10A3C000064B2000236300236363054BE462236490
:10A3D00014300FF07DF991E7609F0200E9A20100BF
:10A3E0000B66020070B50400104B250008330360B3
:10A3F000FFF7CEF8200074300DF07FFF20006030B2
:10A400000DF07BFF200058300BF003FC2000503093
:10A410000BF0FFFB064B1435280063610FF047F982
:10A42000280005F075FA200070BDC046809F02002C
:10A43000F8A30200F8B500250400324B85800833EC
:10A4400003608571143016000F0005F04BFA2000F0
:10A450002D4BE562636125645030FFF7E1F8200081
:10A460005830FFF7DDF82000603002F005FB2000D7
:10A470000423F25E33682667590009B274300DF088
:10A480005AFF3368226FE371736801262372102329
:10A490006581A7802561D35691685918994204DDDA
:10A4A0003000984001330543F8E711230120D356CB
:10A4B000D1685918994206DD02009A402669013395
:10A4C00032432261F6E714200FF070FB226900216D
:10A4D0002A430123060005F0F5FCFF2322006372E6
:10A4E0000133A381002348326664A37320001370F4
:10A4F000A366FFF72FF80123A27920001343A3716D
:10A50000F8BDC046809F02000CA40200F0B5437A5B
:10A51000040085B0002B04D120000CF081F805B0B8
:10A52000F0BD0122837A11009C461023066F00259E
:10A53000F35603926344994002912900F368019312
:10A54000019BAB422CDDB0687369684360444000F6
:10A55000E77A1A181B5C5078E279012F10D1571E48
:10A560003F1A18003B004243606F52008218D21815
:10A570009379002B02D0039BAB4019430135DFE7F1
:10A58000022F07D0032FEED1277A013FFF1A0300D5
:10A590003800E8E7571EFB1A277A013F381AE2E72E
:10A5A0001123C943F356606C994023691940029BFB
:10A5B00019430FF08EFA667AB31EDBB2FC2B14D867
:10A5C000FEF776FF0B4B0500236300230A48636305
:10A5D0000A4BFF217043E462236405F0E5FF290084
:10A5E0004143200014300FF073F8637A012B00D937
:10A5F00095E791E721660200B60300000B660200B2
:10A600001FB5012381881A0068460BF09BFB0123CC
:10A6100068461A0002490BF095FB05B000BDC04624
:10A62000FE0300001FB5030048331A780400002A17
:10A630000DD000221A70012381881A0068460BF0A1
:10A6400081FB012368461A0003490BF07BFB2000C5
:10A6500074300DF067FE1FBDFF03000010B54830D9
:10A660000378002B06D00378012B03D00121024888
:10A670000BF006FA10BDC046FF03000010B5012123
:10A68000040006200BF0FCF9064B984208D1483430
:10A690002378002B04D02378012B01D020BFF7E7CB
:10A6A00010BDC04616FCFFFF70B50500141E19DB77
:10A6B000060048363378002B02D03378012B13D1B3
:10A6C000002328001A00743002F098FA002C07D0FA
:10A6D0002B004A331C80002407234C352C80337018
:10A6E000200070BD014CFBE7014CF9E717FCFFFFB0
:10A6F00012FCFFFFF8B50B6805005B880800170027
:10A70000012B08D100210BF006FB002201002800DC
:10A71000FFF7CAFFF8BD002A19DD2E00483633784E
:10A72000002B02D03378012B13D12B0000245C3393
:10A730001C80043B010018000BF0C8FA2B004A33C0
:10A740001F8003234C352C8020003370E2E7024841
:10A75000E0E70248DEE7C04617FCFFFF12FCFFFF00
:10A7600073B5079C0500002C1CDB060048363078CA
:10A77000002802D03078012816D106981BB2C0B24A
:10A780000090280012B274300DF0DCFD002C07D0D0
:10A790002B004A331C80002407234C352C80337057
:10A7A000200076BD014CFBE7014CF9E717FCFFFFE9
:10A7B00012FCFFFFF7B505000E00171E26DDFFF7A0
:10A7C0004DFF2B0048331B78DCB2002B20D13368BF
:10A7D0005B88012B09D1210030000BF09CFA22008C
:10A7E00001002800FFF760FFFEBD310001A80BF05B
:10A7F00065FA3A0001A92800FFF77CFF01A80BF0D9
:10A8000008FA2800FFF73AFF2000EDE70148EBE7E0
:10A810000148E9E717FCFFFF11FCFFFFF0B587B027
:10A820000D9C05000E0017000393002C21DBFFF7A1
:10A8300015FF2B0048331B78DAB20292002B1AD195
:10A84000310005A80DF066FD0C9B3A00009328002E
:10A85000039B019405A9FFF783FF05A80DF04DFDAB
:10A86000002C03D02800FFF709FF029C200007B04E
:10A87000F0BD024CFAE7024CF8E7C04617FCFFFFB8
:10A8800011FCFFFFF8B50400171E1DDD0600483659
:10A890003378002B02D03378012B17D12200E379D3
:10A8A0005632013B137023000025200054331D80D5
:10A8B00050300BF00BFA23004A331F80022328008C
:10A8C0004C3425803370F8BD0148FCE70148FAE7B5
:10A8D00017FCFFFF12FCFFFFFF2902D84172002086
:10A8E00070470148FCE7C04617FCFFFFF0B51F00AA
:10A8F00085B00AAB1B780400039300933B000D0066
:10A9000016000EF048FE002833D0237D082B2DD8EA
:10A91000236800221900FC318A62A021C9005A5024
:10A92000154905205A500138C046C046C046C046A9
:10A93000C046C046C046C046C046C046C046C046E7
:10A94000F1D1236801325A50A0210432C9005A5073
:10A9500005F018FC039B3200009329003B00200007
:10A960000EF019FE237D01332375CCE7034805B0B3
:10A97000F0BD2075FBE7C046FC0F00000EFCFFFF9A
:10A98000F0B51F0085B00AAB1B7804000393009359
:10A990003B000D0016000EF0E6FD002833D0237DAD
:10A9A000082B2DD8236800221900FC318A62A021CF
:10A9B000C9005A50154905205A500138C046C046B2
:10A9C000C046C046C046C046C046C046C046C04657
:10A9D000C046C046F1D1236801325A50A02104324A
:10A9E000C9005A5005F0CEFB039B320000932900AA
:10A9F0003B0020000EF0B7FD237D01332375CCE72B
:10AA0000034805B0F0BD2075FBE7C046FC0F000011
:10AA10000EFCFFFF10B5040086B0006C04F0EEFFE2
:10AA2000237BA0219A00A05000200C4AC90050505E
:10AA30000B4914305050626C6846517CC91849B2B9
:10AA40000CF04AF8039B019A03211A60207B013025
:10AA5000C0B205F0A5FD217306B010BD0070004026
:10AA60000405000082B070B50400002588B00C9287
:10AA70000D93636C9A68AA420ADD197C02A84919F1
:10AA800049B20CF029F8069B039A01351A60F0E7E9
:10AA90005D7C237B02A8ED186DB229000CF01CF838
:10AAA000039A059B00211A60019202A818220FF058
:10AAB000D1F802A8002229000EF0A5FE206C002883
:10AAC00001D00FF06FF808200FF070F82900060091
:10AAD00004F06EFF094B2000E3620023FA21236398
:10AAE000074B2664A462E363103009010EF0F0FD09
:10AAF00008B070BC08BC02B01847C04615AA0100D7
:10AB0000836A0200F0B504000E00150085B01F0036
:10AB10000CAB1B88103001930BF00AF9268065807E
:10AB200018200FF043F802AE050033000AAA03CA4A
:10AB300003C32F602800082700213A000C300FF0D3
:10AB400089F83A003100281D0FF068F8064B022200
:10AB500020006B6100230199A5600A43E360A28095
:10AB60002362636205B0F0BD996A020070B504000B
:10AB700086B010300D0004F0B5FE0023184AA36221
:10AB80002261184AE3631668656423732360636077
:10AB9000A3609E421FD0144A2820049205930FF010
:10ABA00005F8C02305006A46029304AB03CB03C239
:10ABB0002300062102222800FFF7A4FF33682900A2
:10ABC00030005B689847002805D028000AF0D5FFC0
:10ABD00028000EF0E7FF00232000236406B070BDBC
:10ABE0000CA40200A025002065AA010030B5154B79
:10ABF00004001D6891B0002D17D0134B6A460493D2
:10AC0000002305931033029304AB03CB03C223004C
:10AC10000222062106A8FFF775FF2B6828009B6813
:10AC200006A9984706A80AF0A8FF2500074B10358B
:10AC3000280023610EF03BFD280004F069FE20008F
:10AC400011B030BDA025002065AA0100F8A30200C4
:10AC5000F8B50D1E2FD000260227C468002C27D07F
:10AC6000AA88A38853403B4220D13A4215D1A36819
:10AC7000AA6893421AD12B88002B02D022889A42CC
:10AC800014D16B88002B02D062889A420ED1A28820
:10AC90000A4B01361343A38008E0A968A0680CF0B2
:10ACA000D6FC0028E7D1AB883B42E0D0646AD5E708
:10ACB0002000002E00DC0248F8BDC0460080FFFFE7
:10ACC00017FCFFFFF0B506000D0085B0002959D034
:10ACD0000127C468002C23D00221AA8800230A423D
:10ACE00002D0A3885B083B40226829688A4211D1C0
:10ACF000A068A968002B0BD00CF0A9FC002809D093
:10AD00000421625EA388002A06DB1F4805B0F0BD5F
:10AD10008842F5D0646ADDE75B045B0CA380F4E74E
:10AD2000F0682A880100031E07D1F56001236846F8
:10AD300016490BF007F80020E8E71C88944206D279
:10AD40005C6A1900002C0DD02300F6E723001C8854
:10AD5000944207D15F886C88A74203D25C6A1900CD
:10AD6000002CF3D1814209D10B889A4204D305D13A
:10AD70004C886B889C4201D96862D6E74B6A6B624B
:10AD80004D62D3E70248C1E716FCFFFFFD03000058
:10AD900017FCFFFF064B10B51A00040008322C33D5
:10ADA000026043600430FEF775F9200010BDC04614
:10ADB000989F020008B4024B9C46043808BC6047C8
:10ADC00095AD010008B4024B9C46043808BC6047AE
:10ADD0003B6B02000C4A002311002C32083110B5E5
:10ADE000038183724260C3600361436143830160F6
:10ADF00004000430FEF740F9044B1A68002A00D121
:10AE00001C60200010BDC046989F0200A0250020B5
:10AE1000F7B50D000126C4680192002C37D02388B5
:10AE20002A889A4201D0002B24D163886A889A42EA
:10AE300001D0002B1ED1FEF7D5F80123002806D043
:10AE4000C022A3881340C03B5A425341DBB2019A4F
:10AE500093421AD10422A35EA788002B15DB10228F
:10AE60002900A0180EF0DAFE40231F4204D0200073
:10AE70000BF06CFE646AD0E7FEF7B4F80028F6D059
:10AE800021000448FEF732FAF4E70026F2E730002A
:10AE9000FEBDC0464D6B020008B4024B9C46043810
:10AEA00008BC6047D76C0200F0B587B001930EABC9
:10AEB0001B88060003930D9B0D000093019B0C9FC4
:10AEC0000292002B3CD0002F02D1009BDB0737D52C
:10AED00028200EF06BFE040010300AF029FF029BC0
:10AEE0001820258063800EF061FE0500009B08227B
:10AEF0000593019B002103600C3004970EF0AAFE1D
:10AF0000082204A9281D0EF089FE0E4B02226B6157
:10AF100000230399E3602362636233680A433000CD
:10AF200021005B68A560A2809847002806D0200019
:10AF30000AF023FE20000EF035FE034807B0F0BDF6
:10AF40000248FBE7116D020016FCFFFF17FCFFFF34
:10AF5000F0B5160000258380164A174B0400857152
:10AF6000026001814681057318688C4689B0A84249
:10AF70001DD0124A05950492C02202926A4604AB83
:10AF800082CB82C223002A006146FFF78DFFC022D8
:10AF9000094B0A49186802926A46069106AB079562
:10AFA00082CB82C223002A003100FFF77DFF200000
:10AFB00009B0F0BDDC9F0200A02500203B6E02001E
:10AFC00030B5002403730123034D05608471818033
:10AFD00082734373846030BDF49F020070B5040037
:10AFE00000250C4B0E00083385808571036021001D
:10AFF00018300BF0DAFF2000210020300BF0F8FFB2
:10B00000054B2000A680E5802572E560256165611D
:10B010001C6070BD04A00200A82500208379DB0716
:10B0200002D5C160002070470048FCE716FCFFFF16
:10B030008379DB0701D5C06870470148FCE7C0464B
:10B0400016FCFFFF70B545690400002D22D0037A7D
:10B05000032B21D8FFF7ECFFA8622C200EF0A6FDF1
:10B060002C22002105000EF0F5FD002263695A62D2
:10B070002369934207D1636923610020237A6561C4
:10B080000133237270BD1A005B6A002BFBD1636928
:10B090005362F2E70148F5E70148F3E717FCFFFFC9
:10B0A00013FCFFFF144B70B55A68144C002A03D0F0
:10B0B00000225A600132A2601A69002A17D00021CA
:10B0C00019618023DB000E4DE3582868012B0FD156
:10B0D000A923DB00E1584942FFF7A0FF2868FFF7EA
:10B0E000B1FF2B685A69074BE2500123A36070BD82
:10B0F000FFF794FFF9E7C046FC1000400010004045
:10B10000A82500200405000003000069002809D0DC
:10B110000221054AD167426A1A611A7A013A1A7203
:10B12000024B19607047C04604E100E000E100E016
:10B1300010B5002903DB024B19600EF09AFA10BD1E
:10B14000AC25002070B504001D0004AB1E7804F08F
:10B1500085FB20000E4B40302360FEF761FA230090
:10B16000220001354C331D700023E1215832013695
:10B1700016700A3AA3646365138053809381D38168
:10B18000013B200063644902FFF7D2FF200070BD3D
:10B19000D89E0200F7B580277F053E697C690822AA
:10B1A000113C74430500210068460EF037FD104B3A
:10B1B000009A9A4219D000930023019379692800DC
:10B1C000133971430BF02BFF019A280000990BF003
:10B1D00042FF210028000BF022FF79692200133979
:10B1E00028007143B3080BF026FF0198FEBDC0464E
:10B1F000FECA0000F0B50D00ABB000210D920700B3
:10B20000302212A81E000EF025FD28000EF062FD6F
:10B21000431C0C93102B00D9B8E0202E00D9B5E0C8
:10B22000290038000BF044FF0B90002854D129006E
:10B230000C9A12A80EF0F2FC32000D9916A80EF02E
:10B24000EDFC80235B051A695D690B92113D6A4331
:10B2500038005E690D92FFF79DFF0D9B3022083389
:10B26000002104001EA80F930EF0F4FC31000B9B8C
:10B270001339594338000BF0D2FE00230F9E0C9374
:10B280000E930C9BA34246DA310030221EA80EF02A
:10B29000C5FC12A91EA80EF013FD00282BD13D49B4
:10B2A00038002200109111940BF0D5FE6A460996E1
:10B2B00015AB23CB23C223CB23C223CB23C238001D
:10B2C000149B1299139A0BF0D4FE01230E930C9B3E
:10B2D000303601330C93D4E70B9832000D991030BF
:10B2E0000EF08EFC04000B980EF05CFC002C9ED13E
:10B2F00020002BB0F0BD6A46099621AB23CB23C2B8
:10B3000023CB23C223CB23C238001E991F9A209B34
:10B310000BF0AFFEDBE7E6433021F61726404E4345
:10B320000F9B9E190E9B002B1CD10B9B981E05F0AA
:10B33000B1F8A0422CD017490134380022001091F6
:10B3400011940BF088FE6A46099615AB23CB23C2F5
:10B3500023CB23C223CB23C238001299139A149B08
:10B360000BF087FE38000D990BF059FE80235B052A
:10B3700059690C230B9A133963434A43380011006F
:10B3800002330D9A0BF057FE0024B1E7024CAFE7F1
:10B39000024CADE7FECA000017FCFFFF13FCFFFFE5
:10B3A00070B50400A280FA22002308000C49920024
:10B3B00008312160A3710B496061E260A360638280
:10B3C0000BF076FE051E09D001002000022210318C
:10B3D00012300EF023FC28000EF0E4FB200070BDBC
:10B3E0001CA0020006AE020030B5022583790400DD
:10B3F00087B02B4204D1FDF73FFEA3791D43A57111
:10B4000020000BF09BFE00281CD06B46DD1C2800A2
:10B410000BF08BFE2B78002B17D001A80BF083FECE
:10B420000321019AD3170B409B189B102382FEF730
:10B4300079F8E368A18818180123A0601A0002A80F
:10B440000AF080FC002007B030BD0122064B1A60D4
:10B45000064A51680029FCD000215160044A126854
:10B46000019201225A60DBE700C00040FCC00040AE
:10B4700008C50040022802D10122014B1A70704712
:10B480006528002070B5064D04002B78002B04D1F0
:10B49000044801F081FD01232B70200070BDC046DF
:10B4A0006628002075B4010070B50C000AF085FA1A
:10B4B000002810D00023144DA40A2B7020000BF09C
:10B4C0005BFE002803D00A200EF03CFAF6E72B784A
:10B4D000002BFCD070BD02210C4B0D4A99508021ED
:10B4E000C90008005D58002DFCD0A121C9005C50A6
:10B4F00019580029FCD0002199508021C9005A58C0
:10B50000002AFCD0E6E7C0466528002000E00140A4
:10B5100004050000F8B50C0015001E000AF04DFAF5
:10B52000002811D00023174F3B7032002900200063
:10B530000BF020FE002803D00A200EF003FAF4E7F7
:10B540003B78002BFCD0F8BD01220F490F488C46F8
:10B5500042508022D2008358002BFCD08027002349
:10B56000FF009E4207DD9A00A958A150C259002A47
:10B57000FCD00133F5E7002362468350C359002B0A
:10B58000FCD0E0E7652800200405000000E0014051
:10B59000084B8000C018A2230322DB0010B5064927
:10B5A000C45821432243C150C046C046C046C25081
:10B5B00010BDC04600600040031F0000A22203210E
:10B5C000034B8000C018D20083588B4383507047D0
:10B5D0000060004010B50400034B08330360FDF722
:10B5E000D7FF200010BDC04634A00200F8B5A0234C
:10B5F00003223049DB055A5004315A5080212E4A2B
:10B600008905995080210127A225C9052B4C995005
:10B610002B4BED00E75063592A492B4E0B406351E9
:10B6200062592A4B002013436351FFF7B1FFA3591E
:10B63000244938000B40A351A259254B1343A35171
:10B64000FFF7A6FFC046C046C046224B224A234908
:10B650005A51A322D2009C519950214A2149224893
:10B660005A5004315850214921485C5004315850F7
:10B6700020495A500F2220495A50204B104A9F50BF
:10B6800000225A5004315A5002325A51A822322113
:10B69000D200DF6099501A4A013999500432323190
:10B6A0009950184AC919995080225C3992009950D2
:10B6B000F8BDC046740700000C05000000600040A3
:10B6C000FC0F0000FFE0ECFF14050000001D03006C
:10B6D000001E130000F0014040A1004044A10040C2
:10B6E000046000401C05000048A100402405000043
:10B6F0004CA100402C0500000405000000A0004003
:10B70000440500004C0500000023154A10B508321E
:10B710000260EE21A0228380837104000320D20501
:10B72000C900505080200F494005505032220E4928
:10B7300020000A700D490A700D490A70FA210D4A5D
:10B74000090113700C4A118001210C4A11700C4A36
:10B750001370FFF74BFF2000FDF7FCFE200010BD2B
:10B7600034A002000C050000682800206928002091
:10B770006A2800206B280020482800206728002025
:10B780006C2800200B002B4A143B9BB270B50D00B7
:10B7900093424ED80322284B284C1980284B1A700C
:10B7A0000022284B1A7001236360E360A223DB00B0
:10B7B000F42900D80432E2500020FFF7FFFE0120F8
:10B7C000FFF7FCFEA02380211F4ADB058905995065
:10B7D0008021043AC90599502901F42D00D9290086
:10B7E0001A4804F057FEA92385B232206A1EDB00F6
:10B7F000E250174B6421E550684304F0D5FEA823BE
:10B800002D1ADB00E550134B0138E0500020FFF704
:10B81000BFFE114B1B78002B02D10120FFF7B8FEB1
:10B820000123A02223608021A123D205DB0049054A
:10B83000D15070BD0C4E00004828002000A00040F0
:10B840006C2800206B2800200C0500000024F40068
:10B850004C050000440500006728002070B50E4D1F
:10B860002B78032B17D101240C4B00205C60DC608B
:10B87000FFF7A4FE2000FFF7A1FEA0228021084BC5
:10B88000D2058905D1508021C905D15080214905B3
:10B89000D15000232B7070BD6C28002000A0004008
:10B8A0000C05000010B50400034B08330360FDF7DE
:10B8B0006FFE200010BDC0464CA00200F7B501216C
:10B8C0000C008368314A9C40A023DB059C50322445
:10B8D000013CC046C046C046C046C046C046C04601
:10B8E000C046C046C046C046C046F1D1050011352D
:10B8F0000195A1250400ED00AC460D3407250E008E
:10B900008768BE4027782F410F4231D06746DE510D
:10B91000C046C046C046C046C046C046C046C046F7
:10B92000C0469E50013DEAD2019D0134A542E5D1B9
:10B93000012381688B40A021C9058B503223013B34
:10B94000C046C046C046C046C046C046C046C046C7
:10B95000C046C046C046C046F1D1827B437B017CD5
:10B960009B18C27B52189B185A1E93414374F7BD13
:10B970006746DE51C0469E50C046C046C046C046DF
:10B98000C046C046C046C046CCE7C0460C050000D5
:10B99000F8B504002500260006A80078277B62730E
:10B9A000A173E37320740D3511362878784307F0BE
:10B9B0009BFB0022064B06F07BFA04F03BFF28704D
:10B9C0000135AE42F1D12000FFF778FFF8BDC04647
:10B9D00000E06F40F7B5002317000126224A83805C
:10B9E000083202600A008371040081600773A0209E
:10B9F00003258E40C132FF32C005920015501B4A0C
:10BA0000250086506373E3812382230011330D35B3
:10BA1000009301922878784307F066FB144B0022CC
:10BA200006F046FA04F006FF009B287001359D429F
:10BA3000F0D1A023019ADB059E503223013BC04682
:10BA4000C046C046C046C046C046C046C046C046C6
:10BA5000C046C046C046F1D120000BF0A3FB200039
:10BA6000FDF778FD2000FEBD4CA002000C05000093
:10BA700000E06F4010B50400054B083303601C3034
:10BA80000AF0C7F8200018300AF0C3F8200010BDF3
:10BA900064A00200FF23F0B52C4E8DB0337000235C
:10BAA00001AD040029000088019303F05DFE002829
:10BAB00001D1AB783370264D2B68DB68002B07D1A2
:10BAC000002320881A0019000BF07DFB0DB0F0BD9B
:10BAD0003378032BF4D81F496846FDF767FD2B68C0
:10BAE0006946DD6804A80AF0E9F8280004A90BF00B
:10BAF0000EFB0027050004A80AF08BF8BD421ED0FB
:10BB000029002022103104A80EF088F828000EF039
:10BB100049F8317804ABC9005918082202A80EF080
:10BB20007DF801230822208802A90BF04CFB013785
:10BB3000002804D10C212088074A0BF042FB6846FC
:10BB40000AF067F8002FBBD0C0E7C0468420002071
:10BB5000BC2500200EAE0200FFFF0000F0B5837987
:10BB6000040091B05B071BD5FDF7DCFC00232269C4
:10BB7000801A9941994203D1F533FF3398420FD38C
:10BB8000A068002808D0354B1D880CF07CFC0368A9
:10BB9000152229001B6A98470422A3799343A371B5
:10BBA000A3799B0758D52E4E3368DB68002B4FD006
:10BBB0002C4F3B78032B4BD8284B2B491B8804A8D0
:10BBC0000193FDF7F3FC336804A9DD6808A80AF0C7
:10BBD00075F808A928000BF09AFA050008A80AF0E1
:10BBE00018F8082302AAD3800198073B063206A959
:10BBF0000BF0EBFA002D08D029002022103108A804
:10BC00000EF00CF828000DF0CDFF3D7802ABDA887D
:10BC1000ED0008AB5D19280006A90DF0F1FF002822
:10BC200013D00822280006A90DF0F8FF336804A9F4
:10BC3000DD6805A80AF042F82023280008AA05A913
:10BC40000BF06BFA05A809F0E4FF04A809F0E1FF86
:10BC50000222A3799343A37111B0F0BD4A280020BA
:10BC6000BC250020842000200EAE020070B50368C1
:10BC700004000D1E09D15B699847FA2080006843D3
:10BC8000074904F007FCE08070BD9B689847A84214
:10BC9000F3D9236820009B6898470500EDE7C0466C
:10BCA00071020000F0B50400150085B001930AABE5
:10BCB0001F880BAB1B78461C02930EAB1B7810221F
:10BCC00003930B7803704B8A0131438230000DF0EF
:10BCD000A5FF656100250122019B27836383039BE8
:10BCE000E5832377029B2000F377A31CDA770C9B74
:10BCF0000C26636223000D9A283329001A705D70A8
:10BD000032009D702C300DF0A5FF2000064B320054
:10BD1000A3632900E56340300DF09CFF2000034B36
:10BD20002565E36405B0F0BDE1710200D371020046
:10BD3000F0B507001500A1B002C706006B4918A8AE
:10BD40001C000BF00EFB2B1E03D028000DF0C2FFD1
:10BD500083B20122049200220392029202320192E3
:10BD600000932A0018A93800FFF79CFF33006049B0
:10BD7000583318A807930BF0F4FA231E03D02000C1
:10BD80000DF0A8FF83B201220492002203920292D6
:10BD9000023201920093220018A90798FFF782FF50
:10BDA00033005449AC3318A808930BF0DAFA269BF9
:10BDB000002B03D018000DF08DFF83B201220492F6
:10BDC000002203920292023201920093269A18A94D
:10BDD0000898FFF767FF731CFF33474918A80993BA
:10BDE0000BF0BFFA279B002B03D018000DF072FF59
:10BDF00083B2012204920022701C0392029202324A
:10BE000001920093279A18A9FF30FFF74BFF3300E8
:10BE10005533FF33394918A809930BF0A2FA289B30
:10BE2000002B03D018000DF055FF83B201220492BD
:10BE3000002203920292023201920093289A18A9DA
:10BE40000998FFF72FFF3300A933FF332C4918A8B7
:10BE50000A930BF086FA299B002B03D018000DF0F3
:10BE600039FF83B201220492002218AC039202929D
:10BE70000232019200932100299A0A98FFF712FFDB
:10BE8000204B1B780B93002B2DD1079B1E4913933E
:10BE9000089B0DA81493731CFF331593099B1297ED
:10BEA00016930A9B12AD17930BF05BFA1D214920E4
:10BEB00006AB1B7F1022237006ABDB8D638206ABC3
:10BEC000C918C0180DF0AAFE062323750B9B306815
:10BED000A383A5610CF0DBFA036821001B68984777
:10BEE0000122084B1A70300021B0F0BD292A000051
:10BEF000242A0000252A0000272A0000262A000004
:10BF0000282A00006D2800200A18000070B50025BE
:10BF100004000A4B8580083385710360C1601830C6
:10BF2000FDF77EFB20001C30FDF77AFB044B200060
:10BF30001C600123A5606561A37170BD64A002004F
:10BF4000BC250020FA2130B585B00400012302226F
:10BF50006846890009F0F6FE074D2868002809D0D8
:10BF60000BF038FA2188054B2A6819800223917951
:10BF70000B43937105B030BDBC2500204A2800203A
:10BF800010B50C0007290FD880680CF07CFA074B1D
:10BF9000195703685B6C984743425841044B404231
:10BFA0001840044BC01810BD0348FCE71DAF020049
:10BFB000EA03000016FCFFFF17FCFFFFF0B5984CEA
:10BFC0000D00A544040096AB1B78964908A807937A
:10BFD0000692FDF7EBFA200029001C3009F076FEEE
:10BFE000914909A8FDF7E2FA90490AA8FDF7DEFA9F
:10BFF0000CAE09AA08A90BA809F077FE2A003000A8
:10C0000011AD0BA909F071FE0AAA3100280009F050
:10C010006CFE290008A809F059FE280009F0F9FD76
:10C02000300009F0F6FD0BA809F0F3FD08200DF033
:10C03000BDFD0700002100F095FE08220021A76049
:10C040000DA80DF007FE00230C932B0007CE07C3AD
:10C05000774B2900EB60002338002B610CF0FCF9D2
:10C06000A0680CF010FA08220021059012A80DF02B
:10C07000F1FD14200DF09AFD6E4B2A001193030080
:10C08000C2CAC2C36C4B059EC3600023A4360361C1
:10C090003368002B00D0BDE03060A0680CF0F7F9E9
:10C0A00008220021060012A80DF0D4FD14200DF086
:10C0B0007DFD624B1193030086CD86C3604BC36048
:10C0C00000230361336B002B00D0A5E03063A06830
:10C0D0000CF0D9F908220021059012A80DF0BAFD44
:10C0E00014200DF063FD574B11AE11933200030085
:10C0F000A2CAA2C3544B059DC360002398350361B7
:10C100002B68002B00D089E02860012004AB1B7F46
:10C1100004AA03430BA913770BF059F8A0680CF09D
:10C12000BAF9036849495B6A9847A0680CF0B3F90B
:10C13000036847499B699847A0680CF0ACF9454AE9
:10C14000036800921D6800231A001900A847079B86
:10C15000002B0AD020000BF046F9032805DDA0686B
:10C160000CF099F90368DB68984706212000FFF777
:10C1700007FF394B394A1B68A1680393384B3000DD
:10C180001B6800250293374B1B680193069B1B68B5
:10C1900004330093344B12681B68FFF7C9FDA06895
:10C1A0000CF071F903680CA99B6A9847082304AA4C
:10C1B0001384A068DB18538495840CF064F9036839
:10C1C0000CA9DB6A98470621A0680BF0D6F8089AFC
:10C1D00009219378A06804320BF0E2F8A0680CF013
:10C1E00052F90571A0680CF04EF93221FFF73EFDBF
:10C1F000A0680CF048F90BF0AAF80AA809F009FDAC
:10C2000009A809F006FD08A809F003FD91239B0089
:10C210009D44F0BD03613FE7036157E7036173E7A6
:10C22000BCFDFFFF1AAE02003EAE020028AE0200C7
:10C23000EF71020045BF0100FD71020095BA0100D7
:10C240000B72020039720200197202006DC2010005
:10C25000A1C201002AAE0200B8250020B4250020AA
:10C260000C200020B02500201020002013B506224D
:10C270006846FDF7ABF9094B1C68002C0AD06946EB
:10C2800001A809F01BFD200001A90BF0CDF801A8C1
:10C2900009F0BFFC684609F0BCFC13BDBC250020BA
:10C2A000002373B501AE0C0031000500019303F0CB
:10C2B0005BFA002802D1B278064B1A70064B186858
:10C2C000002806D061426141044BC9B21D800BF0C9
:10C2D000B3F873BD84200020BC2500204A2800202C
:10C2E000F0B504008BB00F0005A87D490392FDF75F
:10C2F0005DF97C4906A8FDF759F9220005A91C3211
:10C3000009A809F0F2FC06AA09A907A809F0EDFCA2
:10C3100009A809F07EFCA0680CF0B5F803680025B8
:10C320005B699847A0680CF0AEF8030006000A337A
:10C330001F220021180002930DF08CFC029B30009C
:10C34000DD770AF0FBFF0621A0680BF016F8079ACC
:10C3500009219378A06804320BF022F8A0680CF051
:10C3600092F80571A0680CF08EF8C821FFF77EFCEA
:10C37000A0680CF088F80581A0680CF084F80AF039
:10C38000E6FF3800FEF74EF9390020000BF067F8A1
:10C390002000FCF771FE0295FF356269012316004B
:10C3A0001E401A422DD0504908A800F0D7FB08A91A
:10C3B00009A80BF0AFFF002209A913000192009217
:10C3C0003800FEF72BFA09A80BF097FF029B002B11
:10C3D00041D1043D282D40DC38000AF09FFA002DA1
:10C3E00000DC0296039809F082FF002806D00123A2
:10C3F00062699A43130004221343636108A80BF097
:10C400007CFF04226369134230D0FF213800FEF71D
:10C4100063FA0026A36902229B5EB34222DD20005C
:10C4200031B2183009F077FC0023010038001A00FF
:10C43000743000F0E3FBC8208000FCF7BBFE38003E
:10C440000AF06CFAC820FCF7B5FE022263691342B9
:10C4500008D10136DEE70435BCE7FE2DC2DD00233E
:10C460000293BFE7FA208000FCF7A4FE0222636972
:10C4700013421DD01E000632164013421CD01B4929
:10C4800008A800F06BFB08A909A80BF043FF0022E5
:10C4900009A91300019200923800FEF7BFF909A81C
:10C4A0000BF02BFF1248FCF785FE08A80BF025FFC8
:10C4B0006420FCF77FFE70E70E4908A800F04EFBF1
:10C4C00008A909A80BF026FF3300320038000196B6
:10C4D000009609A9FEF7A2F909A80BF00EFFE4E700
:10C4E00031AE020028AE020041AE020086AE02006C
:10C4F000983A0000C3AE02001FB5084B1B68DB8BE7
:10C50000834209D1064B68461A78064B06491A70D1
:10C510000123032209F016FC05B000BDC025002050
:10C520006E2800206F280020FF030000F0B51D00DA
:10C53000ADB0040001610135143016000691FDF71D
:10C540006FF8EBB21800079308F0B6FD002501362E
:10C55000F6B26060300008F0AFFD4A4B2A001D7053
:10C56000494B4A491D70079B2060A672E3722581E2
:10C570000FA80BF012F801270C23226804970193EF
:10C5800000963B000FA90395029517A8FFF78AFBB9
:10C590002A003F490FA80BF000F854200DF006FBCD
:10C5A000202306000193079B6268049700930FA95C
:10C5B0003B0003950295FFF775FB364B08961E600E
:10C5C0000AAE17AB2A003449300009930AF0E5FFA0
:10C5D00034213520337802AA52181370738A12312D
:10C5E00002AA52181380253902ABC9181022C018AC
:10C5F0000DF014FB4821022302AA52181370502296
:10C6000002AB9B1808AF159706981D800BF03FFFF3
:10C6100003680FA91B689847722202AB9B181B88FE
:10C620000698E3600BF033FF079014200DF0BEFA7C
:10C6300007001A4B05610822310010C00A930B95C0
:10C640000DF0ECFA164BFB60079B9B69AB4217D1D0
:10C65000079B06989F610BF01AFF05000822002136
:10C660000BA80DF0F7FA0F4B0A932B006C3307CE93
:10C6700007C30D4B2000AB670023EB672DB0F0BD67
:10C680003B61E5E76E2800206F28002025AF0200FF
:10C6900035AF0200C025002045AF0200F77402004C
:10C6A000CD740200F9C40100BF740200054A030002
:10C6B0001178054A1278501A914201D9DB7AC018D4
:10C6C0007047C0466F2800206E280020F0B58DB05E
:10C6D00002AF040039607A613B61002A00DCA2E00D
:10C6E0003B69012B00D19EE027230025FB18006940
:10C6F0001D700BF0CCFE272203684D499B69BA18C8
:10C700000968984720690AF06BFF022302001A406B
:10C71000184236D12533FB181B78AB4200D185E097
:10C72000FA6120690AF05CFF0223184275D02533B4
:10C73000FB181B78FB60002B6FD03E4B6E461D78BC
:10C740003D4B1B78BB60FB69BB6100237B60BB6911
:10C750007A69934217DAE17A681C04F00BF8BB6837
:10C760008B420AD0BA693B689B5C62685355FB698F
:10C77000CDB20133FB61FB687B60BB690133BB61F8
:10C78000E5E7FD61CDE77B68002B01D0294B1D70EB
:10C790002000FFF78BFF6A46C31DDB08DB00D31ABE
:10C7A0009D4602AB0200002105001800BB610DF0A0
:10C7B00051FA204BE27A1B7820000193BB6800936A
:10C7C000BB6961680AF011FF3B69022B03D10321A9
:10C7D0001A48FCF71BFD20690BF059FEABB200258F
:10C7E000134A1268D18B02680095D2681500BA69A5
:10C7F000A8473B69022B14D1FCF772FC20690BF0AF
:10C8000046FE272203680A499B69BA1809689847B7
:10C81000FB697A69B546934283DBBD46F8690BB084
:10C82000F0BDB546F9E7064BFB61F6E7054BFBE7C4
:10C83000C02500206E2800206F280020FF03000084
:10C8400017FCFFFF16FCFFFF002815D000604160B9
:10C850008260C360046145618661C76144460462C9
:10C860004C464462544684625C46C4626446046337
:10C870006E46466374468463002A06D0C46B043C4B
:10C88000043A25681560B442F9D18C6BA6464E6B0C
:10C89000B546002B06D0CC6B043C043B1D682560DC
:10C8A000B442F9D10C6BA446CC6AA3468C6AA2466A
:10C8B0004C6AA1460C6AA046CF698E694D690C6925
:10C8C000CB688A6808684968704700604160826088
:10C8D000C360046145618661C761444604624C4699
:10C8E0004462544684625C46C462644604636E4695
:10C8F000466374468463C46B043C043925680D6048
:10C90000B442F9D1C7698669456904697047006016
:10C9100041608260C360046145618661C7614446CD
:10C9200004624C464462544684625C46C462644677
:10C9300004636C4644637446846304697047846B83
:10C94000A646446BA546046BA446C46AA346846A03
:10C95000A246446AA146046AA046C7698669456939
:10C960000469C368826800684168704710B5041E96
:10C970000CD00DF0AFF9431EE318A34208D922787A
:10C980001978013B21705A700134F6E7014810BD57
:10C990000020FCE717FCFFFFF0B585B00D1E0090EE
:10C9A00029D000260A27C217141A4B1E544003939D
:10C9B0002000029639000136019603F0DBFECB170A
:10C9C000C9185940039B303120009955390003F0B4
:10C9D000EBFD041EECD1009B002B04DA2D23029EFC
:10C9E000019A0236AB5400232800AB55FFF7BEFF77
:10C9F000200005B0F0BD014CFAE7C04617FCFFFF70
:10CA000010B50400100048436160A26000280BDDEF
:10CA1000074B984205DC80000DF0DAF8206020001A
:10CA200010BD01204042F7E700232360F7E7C0462E
:10CA3000FEFFFF1F4A688B6870B583605343040094
:10CA40000D004260002B12DD0A4A9E003000934226
:10CA500001DD012040420DF0BBF800232A68206070
:10CA6000D158C1500433B342FAD1200070BD002325
:10CA70000360FAE7FEFFFF1F014B03607047C046EB
:10CA80007CA0020030B500684488A1420CDA858899
:10CA9000AA4209DA002907DB002A05DB62434018B5
:10CAA00080188371002030BD0048FCE717FCFFFFB1
:10CAB000F0B507000E001D0085B0002921DD002A19
:10CAC0001FDD002B1DD00468638803938B4200DDBB
:10CAD0000391A3880293934200DD0292002306345F
:10CAE0000193019B029A93420ED029002000039AE1
:10CAF0000DF094F83B68AD195B88E418019B013395
:10CB0000EEE7024805B0F0BD0020FBE717FCFFFF91
:10CB1000F8B504000D0016001F00002901DB002AF3
:10CB200002DA0D4B2360F8BD10004843063008F0D0
:10CB3000C3FA206009F053F923685D809E80002FBE
:10CB400006D03B00320029002000FFF7B1FFEAE7E2
:10CB500020000BF0E7FBE6E77CA00200F7B507003A
:10CB60000D1E03D1244B03603800FEBD00240800D5
:10CB70002600210001940378002B1AD03022524263
:10CB800094469C446246092A11D90A2B0AD1019B7A
:10CB9000361901330193B14200DA31000024260036
:10CBA0000130E8E7002CFBD000240136F8E701242F
:10CBB000F6E70126019A380012B209B27642FFF771
:10CBC000A7FF31000A203B689A1D2C78002CCBD09F
:10CBD0002300303B092B08D8F343DB173340434392
:10CBE0001B19303B1E000135EFE7002EFBDB1670F2
:10CBF0000E000132F7E7C0467CA00200F0B5050048
:10CC000087B004A816001C000F00FCF7B7FB2B68C8
:10CC10005A88964235DA9B889C4232DA1F2F30D9E7
:10CC2000059B01939F422CDC05217943049BA0398D
:10CC30005B1801932300621D0392019A12780292FD
:10CC400000222C68B7186088B8420DDDA1888B429D
:10CC50000ADAE419102717415843029924180F40A3
:10CC6000781E87417F42A7710132052AE9D1019AD6
:10CC7000013301320192039A9342DED1002007B0C2
:10CC8000F0BD0148FBE7C04617FCFFFFF7B503689E
:10CC900006009F1D5B880D005A1A0192002919DDBC
:10CCA0000024994203DB0BF03DFB002013E03368C6
:10CCB0009B889C42F9DA79193800019A0CF0AEFF92
:10CCC000019B2900F8180BF01FFB336801345B88C7
:10CCD000FF18ECE70048FEBD17FCFFFF10B5054844
:10CCE000054C206009F07EF82000044A04490CF04D
:10CCF00052FF10BD7CA00200C425002000200020AF
:10CD0000FB82020070B5002817D1124D2E68002E4C
:10CD100011D108300CF04AFF066046600E4E040048
:10CD20003368002B02D10BF0EDFD306023682C60DE
:10CD30009B00F3586360286870BD084A012311689E
:10CD400007480C001C401942F6D103604460136090
:10CD5000F2E7C046CC250020D8250020C8250020B9
:10CD6000D0250020002370B5040001604360994283
:10CD70000AD1064D2B68002B02D10BF0C3FD2860B1
:10CD800023689B00EB586360200070BDD82500200D
:10CD9000436810B50400002B02D104480CF005FDD7
:10CDA000606803681B69984710BDC04655AF020014
:10CDB000436810B50400002B02D104480CF0F5FCC8
:10CDC000606803689B69984710BDC04655AF020074
:10CDD000436810B50400002B02D104480CF0E5FCB8
:10CDE000606803685B6A984710BDC04655AF020093
:10CDF00010B5040001F058FD034B1B68002B01D057
:10CE00002000984710BDC046E0250020F0B58BB04B
:10CE1000050002F0E3FA002000F0E2FB03680600E0
:10CE20001B699847336804009B6930009847336852
:10CE300001905B6A300098470200288810380B2860
:10CE40006CD803F013FB06486B6B6B656B6B6B71F7
:10CE50006B83AF88200039000BF0C8FF2200162337
:10CE6000583216789C46143B3343A879697B13707B
:10CE7000012304AEB3700023378032001F00AC449E
:10CE8000F070981801330771062BFAD100279172C0
:10CE90003A00F3190137DA72062FFAD163463A00E5
:10CEA0007361E91D05A80CF0B9FE29000B2004AB45
:10CEB0003A000E31C0180CF0B1FE94346368A360E0
:10CEC000A06800282AD0C36831009847A368002BC7
:10CED000F4D01B69F3E720002E49AE880BF086FFE3
:10CEE0002200022058321378A9798343137004ABCF
:10CEF0001E809970A0346368A360A06800280DD0DC
:10CF0000C36804A99847A368002BF4D01B69F3E712
:10CF10005369002B02D0A888A91D984729000198C1
:10CF20000CF06FF80BB0F0BD636E002BF6D0AE794D
:10CF3000A366A06E0028F1D0C36831009847A36EA5
:10CF4000002B01D1636EF3E71B69F1E70126694607
:10CF50000D27AB7BEF575A071E40920FDB080A7272
:10CF60000B730622E91D04A80CF058FE6A46127ADB
:10CF700004AB1A726A46127B9F715A72DE712B00E3
:10CF800020000F338C3407938030236804A998471E
:10CF9000C4E7C046FFFF0000014B18607047C04661
:10CFA000E02500201FB58022A323D205DB00D35843
:10CFB0000820DB0700D4053048221D4B1D4901F035
:10CFC0008DF800280AD080B2002807D1BFF34F8F18
:10CFD000194B1A4ADA60BFF34F8FFEE7002302A80D
:10CFE000029301330370164B1B6843600BF05BFA2E
:10CFF000002802D0072005B000BD6B46581C0BF07E
:10D0000050FA0028F6D16B46591C0BF048FA00285C
:10D01000F0D10C4801F092F880B20028EBD10A4818
:10D0200001F096F880B20028E5D100F03BFCE2E781
:10D03000AB840200E425002000ED00E00400FA05C6
:10D04000DC2500200DCE0100F1CD010080B20028CA
:10D0500007D1BFF34F8F034B034ADA60BFF34F8F03
:10D06000FEE7704700ED00E00400FA050048704755
:10D07000FFFF0000F0B597B00593036807AD1B688C
:10D080000491039311002B00060091C991C3002461
:10D09000D368210008220DA8EB602C610CF0DAFDAA
:10D0A00022000B4B10940F9311AB0C941C70E118E1
:10D0B00001344A70102CFAD15A820193059B2A0040
:10D0C000009330000499039C0CABA04717B0F0BD4F
:10D0D000BF850200FC3070B5046C0500002C0DD13A
:10D0E00024200CF063FD064B44608361054B846093
:10D0F000C46004614461C46103602864286C70BD2D
:10D1000058A1020040A20200FC3070B5C56B0400BB
:10D11000002D11D134200CF049FD084B856043608F
:10D12000074B45610361074B0562C361064BC5624E
:10D130008362064BE0630360E06B70BD88A1020070
:10D1400078A10200E8A10200F8A1020008A20200F2
:10D150007FB503791548002B23D0154E154C337835
:10D160002000002B1DD10A256D4428000BF00BFA7E
:10D17000002810D16B88592B0DD12B78AA88D91F84
:10D18000012910D800920C4A2021200008F07EF8D6
:10D190000123337004E02022200008490CF0A1FD97
:10D1A000200004B070BD0092054AEDE778AF0200A0
:10D1B00090280020702800209AAF020092AF020051
:10D1C000B7AF020010B50400024B08C00BF0B3FA71
:10D1D000200010BD78A1020010B50400024B08C069
:10D1E0000BF0BEFA200010BD88A10200064B70B5FE
:10D1F000040003604068002804D005690CF0D2FCEC
:10D200002800F8E7200070BD68A10200064B70B549
:10D21000040003604068002804D005690CF0C2FCDB
:10D220002800F8E7200070BD98A10200064B70B5F9
:10D23000040003604068002804D005690CF0B2FCCB
:10D240002800F8E7200070BDA8A10200064B70B5C9
:10D25000040003604068002804D005690CF0A2FCBB
:10D260002800F8E7200070BDE8A10200064B70B569
:10D27000040003604068002804D005690CF092FCAB
:10D280002800F8E7200070BD8CA00200064B70B5A6
:10D29000040003604068002804D005690CF082FC9B
:10D2A0002800F8E7200070BD9CA00200064B70B576
:10D2B000040003604068002804D005690CF072FC8B
:10D2C0002800F8E7200070BDACA00200064B70B546
:10D2D000040003604068002804D005690CF062FC7B
:10D2E0002800F8E7200070BDBCA00200064B70B516
:10D2F000040003604068002804D005690CF052FC6B
:10D300002800F8E7200070BD58A10200064B70B558
:10D31000040003604068002804D005690CF042FC5A
:10D320002800F8E7200070BDF8A10200FC3070B5BD
:10D33000046C0500002C0DD124200CF037FC064BAA
:10D3400044608361054B8460C46004614461C461CE
:10D3500003602864286C70BD58A1020040A202003E
:10D36000134B70B508330360124B0400C360802375
:10D37000114A451CFF355B00C25028000CF097F99C
:10D38000280002F0C5FA20000C4BB830E360FFF72C
:10D390009DFF2000AC30FFF789FF2000A030FFF791
:10D3A00075FF20006C30FFF761FF200070BDC046A4
:10D3B0006CA20200B4A20200F8A30200CCA00200FA
:10D3C000F0B50500040087B0AC356B68AB60A868A9
:10D3D000002807D0C36821009847AB68002BF4D021
:10D3E0001B69F3E72500B0352868002804D00669DA
:10D3F0000CF0D8FB3000F8E72200032158321378F4
:10D4000028608B43137023005C33187020000A30AF
:10D410000BF06FFA200034300BF06BFA606E0028CE
:10D4200004D005690CF0BEFB2800F8E7250098350C
:10D4300060662868002804D006690CF0B3FB300051
:10D44000F8E72600A43628603568002D05D02F693E
:10D4500028000CF0A7FB3D00F7E729003560082203
:10D4600002A80CF0F7FB01AE2300320001956C33EB
:10D4700083CA83C3094B08222900A367E56702A872
:10D480000CF0E8FB23000195803307CE07C328008A
:10D49000034A90341A60256007B0F0BDB1850200E0
:10D4A000A3850200444AF0B50600C260A022434BA7
:10D4B0000100083303601636002342820400320064
:10D4C00085B0037183600374838235311370013238
:10D4D0009142FBD1802580222000AD00D2011100B5
:10D4E000F377358438300093002300F04BFD2300A0
:10D4F000210040331A0003932B0000255F31157083
:10D5000001328A42FBD1039A0321D577220060328F
:10D510001380137920008B431371230068331D702F
:10D52000274B0C22E3660021256778300CF092FB34
:10D530002300270088331D60224B0837A567FB674F
:10D54000843700210C2238000CF084FB1E4B1F4A4C
:10D55000FB602300A0333D613D601A601C4A5D60A2
:10D56000DA601C4A1D619A61DD6130000BF0C1F97F
:10D5700003980BF0BEF9184B601CE3602300C43322
:10D580001D809D70FF3002F0ADF98C235B00E550EB
:10D5900023001933FF335D618023104A5B00E250A2
:10D5A000230001222000FE3352425A86023B9D6333
:10D5B000DD631D6405B0F0BDCCA002006CA20200CA
:10D5C0008CA00200B1850200A38502009CA002008D
:10D5D000ACA00200BCA00200B4A202000CA4020095
:10D5E00070B5074D2B68002B07D1A02040000CF030
:10D5F000DDFA0400FFF756FF2C60286870BDC046B6
:10D600002C26002070B50C220D00002104000CF027
:10D6100021FB00232361024B20002560E36070BDE5
:10D62000BF74020070B500250400254B290003607B
:10D63000244B85808360244BC5604361234B856107
:10D640000362234B4562C362224B05638363C56358
:10D650004430FFF7D7FF200029005830FFF7D2FFF2
:10D66000200029006C30FFF7CDFF1B4B2200236008
:10D670002300F832803320C39342FCD126001D00E2
:10D68000E936FF3628000822002108350CF0E2FABE
:10D69000AE42F7D18E2300229B00E11804C68E42D1
:10D6A000FCD18E2300219B00E2540C4B0C4AE31862
:10D6B000A218198002339342FBD1200070BDC046EE
:10D6C000B8A1020068A1020078A1020088A10200AE
:10D6D00098A10200A8A1020040A302003A020000A3
:10D6E00062020000014B18787047C0469128002064
:10D6F000F0B587B0019000202A4F1E003B780D0046
:10D700001400834204D101F003F9002802D00B2059
:10D7100007B0F0BD002E0ED0222003A903960BF017
:10D7200075F9031E07D00620082BF1D0113B584293
:10D7300058410430ECE702ABD81C0023037001F021
:10D74000AFFC0028E3D11C22019B6D00A4002B43F9
:10D7500014401C431F2314491C400D7802AA9D430A
:10D76000113B9B181880114B2C43039302230C7020
:10D7700003AC2371093002ABC01805220CF04EFA3D
:10D7800021000B4801F0F6FC031E07D00720042BF4
:10D79000BED00430082BBBD10538B9E701223A705E
:10D7A000B6E7C0469128002085200020118A02009B
:10D7B0009228002010B5064801F0ACFD031E06D0EB
:10D7C0000720042B03D00430082B00D1053810BDEE
:10D7D0009228002073B56B4604000322581D0E00EA
:10D7E00000210CF037FA0F4B01AD1B782000290007
:10D7F0002B7001F0B9FF041E04D00420052C00D0CA
:10D80000073076BD3100280001F0ECFC0300200059
:10D81000002BF6D00720042BF3D00430082BF0D1D6
:10D820000538EEE79228002073B56B46114C0D00C9
:10D83000060005222100D81C0CF0F0F9012D09D0BA
:10D840000223022D13D10322237893431A000123CC
:10D85000134302E003222378934323706B46300086
:10D86000D91C0BF0D1F80023984200D00B331800DC
:10D8700076BDC04685200020084B01001B7809209A
:10D8800010B5002B08D0064801F0E6FC031E03D0BB
:10D8900003200E2B00D0001810BDC0469128002098
:10D8A000922800201FB5282302AC23806933FF3360
:10D8B0006380E3806B460022D81D1123A2800D49AE
:10D8C000037005320BF009F980B200280FD18020D7
:10D8D00080000BF0FEF880B2002808D120000BF089
:10D8E000FAF880B2002802D10BF0F1F880B204B04F
:10D8F00010BDC046DCAF0200024B0B600923136071
:10D900007047C046E2AF020010B504000020FFF7E8
:10D9100067FE03681B6998470300F3331C70862376
:10D920005B00C05003000021044AFC335A61044AE2
:10D9300099615A62F4300BF0CBFE10BDA98C020045
:10D94000BB8C0200012110B5054A080000F05AFB0B
:10D9500003005A1E93410B205B42184010BDC04685
:10D9600009D90100F0B593B0029000200C00FFF738
:10D9700037FE03685B6A9847FFF7B4FE030006A80A
:10D98000002B0DD00023037105AB0693082303730E
:10D990000AAB8360FFF770FF002803D013B0F0BD1F
:10D9A000037103730023237323710193029B019A74
:10D9B000BA331B7893423ED9072353431E00029A81
:10D9C000BB36D318BB331B789619022B2CD10025FC
:10D9D00006AF3B7BAB4220D9AB000393089BAA0068
:10D9E000300099580BF061F800281AD0B868AB00E5
:10D9F000C118237BA6689C469A000B689351634626
:10DA0000013323733B7B5A1E954204D00B4D5B19A7
:10DA10009B001B580B6006AB1A73019B0133DBB2F2
:10DA2000C3E70135EDB2D3E7237921689A000133CA
:10DA300056502371F1E70020B0E7C046FFFFFF3FDB
:10DA40000200087810B5012816D04B8803280ED1A3
:10DA5000A03B0A4C9BB2A34208D880238C880320A9
:10DA6000DB019C4202D210000BF0C6F910BD203B36
:10DA70000320034C9BB2EEE70220F7E7603F000073
:10DA8000E03F0000F0B59DB01E006B4605005A70E7
:10DA9000981C06225F1C02AC0CF0C0F8002E2FD0A0
:10DAA0003388238073886380B388A380F388E380FE
:10DAB0000CAB049314AB6A4606932E000023B936D0
:10DAC000137513773378002B22D101223378022685
:10DAD00008A9134058000B78B3430343229804AEBF
