:020000021000EC
:10800000004000209D1C0200D91C0200DB1C020065
:108010000000000000000000000000000000000060
:10802000000000000000000000000000DD1C020055
:108030000000000000000000DF1C0200E11C020044
:10804000E31C0200E5B70100F9230200E31C020073
:10805000E31C020000000000B51D0200E31C02004A
:10806000E31C0200E125020081220200E31C020061
:10807000E31C0200E31C0200E31C0200E31C0200FC
:10808000E31C0200E31C0200E31C0200E31C0200EC
:10809000E31C020059010200E91A0200E31C02007D
:1080A000E31C0200E31C02000000000000000000CE
:1080B00000000000000000000000000000000000C0
:1080C00010B5064C2378002B07D1054B002B02D0AE
:1080D000044800E000BF0123237010BDB020002041
:1080E00000000000CCCF0200044B10B5002B03D0E1
:1080F0000349044800E000BF10BDC0460000000076
:10810000B4200020CCCF0200164B002B00D1144B22
:108110009D46402292029A1A924600218B460F46B3
:108120001348144A121A13F084FA0F4B002B00D094
:1081300098470E4B002B00D09847002000210400E8
:108140000D000D48002802D00C4800E000BF0FF0E1
:1081500075F82000290013F069F80FF059F8C046AF
:1081600000000800004000200000000000000000A7
:10817000A8200020D82800200000000000000000F7
:1081800010B50400034B036040300FF06AFD20007F
:1081900010BDC04658B80200F0B58BB002900391F4
:1081A00009A831490593049201F08EFAC8222F4E96
:1081B000520009A9300002F0B5FD09A80FF051FDE9
:1081C0002B4B1B68012B4CD10023FF27294D662226
:1081D00019002800009704F043FF274907A801F081
:1081E00073FA264B07A91C6809A80FF08FFD210020
:1081F0000024022309AA08A806F02EFB09A80FF004
:1082000030FD089B00225B8808A9023B1BB209A82D
:1082100001F09AFA09A908A80FF080FD09A80FF04B
:1082200020FD2300220039002800009404F018FFEC
:1082300008A909A80FF06AFD782209A9300002F008
:1082400003FE09A80FF00DFD2300220021002800E5
:10825000009404F005FF08A80FF003FD07A80FF035
:1082600000FD0BB0F0BDC046CCC80200C02100200C
:10827000CC20002058240020DDC8020074240020F7
:10828000F0B585B01F000AAB1B88060015000291EF
:108290000393002F1BD0282013F07DF96B460400B8
:1082A0001989039BAAB200933B000FF078FC336856
:1082B000210030005B689847002806D020000FF0AE
:1082C00084FC200013F063F9024805B0F0BD0248B9
:1082D000FBE7C04616FCFFFF17FCFFFF0022114B17
:1082E00000B5FF211A60662389B01A0000910E487C
:1082F00004F0B6FE0D4907A801F0E6F9C82207A967
:1083000052000B4802F00EFD07A80FF0AAFC062150
:108310000848FF3104F0C2FD07480FF0B0FA09B079
:1083200000BDC046CC20002058240020CEC802004A
:10833000C02100206C240020D020002010B5064869
:1083400010F09EFB0DF0F6F9044A054B0CF0BEFB55
:108350000DF0BAF910BDC046C02100200EBE309904
:108360002A18D93F37B50321684609F0BBFC6424BD
:108370000025684609F0FAFC10490BF0B3F80BF041
:1083800093FB7E2802DD854200DA0500013C002CCB
:10839000EFD128000DF0CEF9094A0A4B0CF096FBFC
:1083A0000022094B0CF0FEFD0DF08EF9002801DAD9
:1083B00020003EBD6428FCDD6420FAE700007F4316
:1083C000333333333333E93F00005940F0B589B0DC
:1083D000B64907A801F078F9782207A9B44802F055
:1083E00033FD07A80FF03DFCFF230093CC3B1A00A0
:1083F0000021B04804F034FE01220224AE4B1A6082
:10840000AE4DAF492E6807A801F05EF9220007A91A
:10841000300011F076FC07A80FF023FC2E68FFF760
:10842000A1FF010007A80FF038FC220007A93000C7
:1084300011F067FC07A80FF014FCA24E2F68310062
:1084400007A801F041F9220007A9380011F059FCF2
:1084500007A80FF006FC142000F0EAFE2F689A49E6
:1084600007A801F031F9220007A9380011F049FCF2
:1084700007A80FF0F6FB95482F6810F02DFF0100BC
:1084800007A80FF00AFC220007A9380011F039FCF8
:1084900007A80FF0E6FB2F68310007A801F014F9D8
:1084A000220007A9380011F02CFC07A80FF0D9FB17
:1084B000142000F0BDFE2F68854907A801F004F9DB
:1084C000220007A9380011F01CFC07A80FF0C9FB17
:1084D0002F68FFF733FF010007A80FF0DEFB220033
:1084E00007A9380011F00DFC07A80FF0BAFB2F68A0
:1084F000310007A801F0E8F8220007A9380011F0C0
:1085000000FC07A80FF0ADFB142000F091FE2F68CF
:10851000704907A801F0D8F807A92200380011F027
:10852000F0FB07A80FF09DFBE6236B4A5B00D058D9
:108530002F6801F087FF010007A80FF0AEFB2200B3
:1085400007A9380011F0DDFB07A80FF08AFB2F68A0
:10855000310007A801F0B8F8220007A9380011F08F
:10856000D0FB07A80FF07DFB142000F061FE2F6800
:108570005A4907A801F0A8F807A92200380011F00D
:10858000C0FB07A80FF06DFBE423534A5B00D058F3
:108590002F680FF0F7FD010007A80FF07EFB220007
:1085A00007A9380011F0ADFB07A80FF05AFB2F68A0
:1085B000310007A801F088F8220007A9380011F05F
:1085C000A0FB07A80FF04DFB2F68454907A801F055
:1085D0007BF807A92200380011F093FB07A80FF0E1
:1085E00040FBE4233C4A5B00D0582F680FF0D1FDDC
:1085F000010007A80FF051FB220007A9380011F075
:1086000080FB07A80FF02DFB2F68310007A801F0B1
:108610005BF8220007A9380011F073FB07A80FF0E0
:1086200020FB2F682F4907A801F04EF807A9220068
:10863000380011F066FB07A80FF013FBE423264A6D
:108640005B00D0582F680FF0ABFD010007A80FF0BA
:1086500024FB220007A9380011F053FB07A80FF0F4
:1086600000FB2F68310007A801F02EF8220007A9AF
:10867000380011F046FB07A80FF0F3FA2D6831001F
:1086800007A801F021F8220007A9280011F039FB02
:1086900007A80FF0E6FA642000F0CAFD064B1B683D
:1086A000012B00D1ACE609B0F0BDC04675CF020089
:1086B000C021002058240020CC2000207424002059
:1086C000D0C80200D3C80200D6C80200B0220020E1
:1086D000D9C80200DCC80200D0200020DFC8020098
:1086E000E3C80200E7C80200084A030000209342E2
:1086F0000BDB1A000130F93207DB0130FA2B04DD05
:10870000034A0130934200DD0130704713FDFFFF43
:10871000EE020000F0B5E427322687B07F00124C4D
:10872000013EE0590FF02EFDFFF7DEFF0190E0590A
:108730000FF02FFDFFF7D8FF0C4D040028000FF0BD
:1087400070FB6B4622B20421595E2800FF2301F022
:1087500053F8642000F06CFD002EE0D128000FF0EB
:1087600060FB07B0F0BDC046D020002034220020BE
:10877000F7B5254CFA27200000F068F9FF211025F5
:108780000B000A000091214804F06AFC204EBF0053
:1087900039000095012230001E4BFFF771FD3900B2
:1087A0000095022230001C4BFFF76AFD0095032262
:1087B00001213000194BFFF763FD03220221184B02
:1087C00000953000FFF75CFD1C2012F0E4FE202332
:1087D0000600643FE1591A0005F068FF114B2800BC
:1087E0001E6012F0D8FEE1590F4A05F05FFE1C2012
:1087F00012F0D1FEE6235B00E159E25805F022FDBC
:1088000000F092FD0020FEBDD02000205824002062
:10881000A0210020CD830100DD82010099810100AB
:108820001587010074240020B022002010B5054CEB
:10883000200000F043F82000034A044912F0A0FE93
:1088400010BDC046D020002000200020518801002B
:10885000E7239B0010B50400C01804F047FAE22398
:108860009B00E01804F086FBCE23134A9B00E250E5
:108870001C33E0180FF0F5F9D4239B00E0180FF03B
:10888000F0F920009130FF3001F0D2FB2000693078
:10889000FF3001F0CDFB2000F03002F05BF820004B
:1088A000D03002F085FD2000643009F055F9201D1C
:1088B000FFF766FC200010BD2CBE0200F0B51427A7
:1088C000040095B019223B0018210097043002F0F3
:1088D000D9FF230025000121260064331800B43598
:1088E00049421293B83609F043F9280010F09AFC77
:1088F00039001322300010F0D7F82000D03002F0F9
:1089000077FD2300F033062118004D4A139302F03F
:1089100049F8200000236930009301331A00112127
:10892000FF3001F091FB20000023913000930222E0
:1089300010210133FF3001F087FB2000B9301A23EA
:1089400001210222FF3002F011FE300001F0FCF89C
:10895000E4225200A050300001F0D0FBE6235B007F
:10896000E0500100E42220005200D130139BA258B5
:108970000095FF3001F02CFF2000E13029001C227F
:10898000FF3003F019F93223200012261093193B0F
:108990000F93013B0E93013B0D93013B0C93013B65
:1089A0000B93023B0993023B0793013B0693013B68
:1089B0000593013B0493013B0393013B0293013B6D
:1089C0000193F930013B00930822013B07210A97EC
:1089D0000896FF3010F08AF8CE2292002900A018E5
:1089E00004F0FCFDD7229200A0181D2102F096FE93
:1089F000E12300259B00E550043328223100E018D4
:108A000004F050FBE7239B00E01804F009FA1298E9
:108A10000321257012F0DEFA23002200200009490C
:108A20009C33A0321C6011605560074A02215A61D4
:108A30008030012209F070FA200015B0F0BDC04668
:108A400060B802007F780200B1780200F0B50278C9
:108A50000123170004008FB01F401A4200D081E0AC
:108A60000300D0331800039300F0A4FA00F0D2F909
:108A7000282012F090FD050010300FF081F96F4BA7
:108A800018202B6012F087FD06006D4B082239007C
:108A900004600C300C930D9712F0CBFD0CA908224A
:108AA000301D12F0AAFD674B290073611223039851
:108AB000AE60EF60AB802F626F6202F00DFC0028A9
:108AC00005D028000FF081F8280012F060FD012386
:108AD00025002278B435134323705B49280010F039
:108AE000A7FB002659490590280010F0A1FB37008C
:108AF0000690642000F09CFB049623006933FF334A
:108B0000180007930FF079FB00282DD1059B002B4F
:108B100034D1069B002B31D1E1254D49AD00080031
:108B200000F07EFC6359002B1CD100F093F801008B
:108B30000BA800F0C9FD0CA80EF01FFFCE239B0070
:108B4000E018069B0CAA0BA90093039B04F0A0FD60
:108B50000CA80FF086F80BA80FF083F8D0239B0029
:108B6000E35863510FB0F0BD20009130FF300FF09B
:108B700044FB0028CAD0049B182BC7DC20006530BA
:108B8000FF2339B232B2FF3000F036FE322000F05F
:108B90004FFB049B01370133FFB20493052F02D131
:108BA00000270136F6B2049B192B0AD0059B002B37
:108BB000A3D02800244902F093FF059812F0E7FCA7
:108BC00002E0059B002BF4D1069B002B02D018007D
:108BD00012F0DDFC1E49080000F022FCCE239B00B1
:108BE000E3180893E1239B00E3580993002B1ED15F
:108BF00000F030F801000BA800F066FD0CA80EF0A4
:108C0000BCFE01230CAA0BA908980093039B04F057
:108C10003FFD0CA80FF025F80BA80FF022F8D02389
:108C20009B00E3580993E123099A9B00E25021003D
:108C3000079A0898F03104F021FF5EE7FD03000079
:108C400007790200C7780200EBC80200F6C80200EC
:108C500000200020F0B58BB002ABDF1D19223800D8
:108C6000144912F0CAFC0023134D05266B718023B2
:108C70005B055B6E2C00009301230193310000988B
:108C800009F058FE0800019909F0CEFD0522009B6D
:108C900056431B1A0093019B534301932B1B5343D1
:108CA000FB181B5C013C6371044B9C42E6D10248FB
:108CB0000BB0F0BD3CC9020000280020FB270020BB
:108CC000BFF34F8F024B034ADA60BFF34F8FFEE7CB
:108CD00000ED00E00400FA05F0B5464B04001B6807
:108CE0008FB0002B00D10133DBB2009300210123B0
:108CF000414A09A809F080FAFA239B009C429B4153
:108D00001C4072B63D4B64211E683D4B200005930C
:108D1000052509F013FE6843503030180A210690EB
:108D2000200009F00BFE0A2109F0EEFE69435031E4
:108D30007118200007910A2109F0E6FE4D435035D5
:108D40007619089680260024B601009B002B48D097
:108D500004AD0027032C02D180260024B6016B68E5
:108D6000284A02936300D31800220192587802998E
:108D7000095C039119788C461021604601410398E3
:108D8000014204D001209040019901430191013238
:108D90000633092AEAD1019B2A68D9431A4B0901F3
:108DA0001940029B93421AD1312F18DC002109A8E7
:108DB00012F07EFBFA23013401377600E4B25B0047
:108DC0009F42C7D1043508ABAB42C2D1094B1B68E7
:108DD000002BBAD0009B013BDBB20093B5E73143D7
:108DE000E5E7BFF34F8F094B094ADA60BFF34F8FB6
:108DF000FEE7C0467C240020F0FF00000420002095
:108E00008BC9020055C90200F01F000000ED00E010
:108E10000400FA05F8B50023124C23600EF0CEFDD5
:108E2000002808D0042120000EF0C4FD002801D045
:108E30000D4B2360F8BD0122A12704250B4B0C49E3
:108E40001A602268FF0048604E68002EFCD0DE5990
:108E50001202013D3243002DF5D1226001225A60F9
:108E6000E8E7C04678240020ED5EBC0B00D000404F
:108E7000FCD000400B4B70B51C68002C10D0656D09
:108E800000F0DEFBA36C002901D1834206D820004C
:108E90000EF0C4FD200004490EF0AEFD2C00ECE7FE
:108EA00070BDC04684240020A4240020F0B593B0F7
:108EB00007932A4B04AC1E68049005910692002E7D
:108EC00049D0274B258867881C6800230293002C13
:108ED0002DD0636D23480393A36C190C9AB20B0039
:108EE000854214D12048824211D1002901D0B942D3
:108EF0000BD1029B002B08D120000EF08FFD20002B
:108F00001A490EF079FD01230293039CDFE7002A42
:108F100001D09542F9D1002901D0BB42F5D1200002
:108F20000EF07CFD200011490EF066FDEDE7104BC0
:108F3000EB18012B0FD910233A002900009308A841
:108F40000C4B0EF02CFE336830009B6808A9984744
:108F500008A80EF03AFE13B0F0BDC04680240020F1
:108F6000B0240020FE030000FF030000A424002022
:108F700002FCFFFFAD8E010010B572B60B4B1C68F2
:108F8000002C08D020000EF049FD0023E364084BBC
:108F90002000E36310BD62B65C2012F0FCFA5C2294
:108FA0000021040012F045FBEFE7C046A824002092
:108FB00000400020F7B51E4C0123227816001E4009
:108FC0001A4233D11B4D2860FFF7D6FF1A4B1B49BD
:108FD00018600EF011FDFFF7CFFF194B1860194B09
:108FE0004363194B8363286800280FD0C023174FB1
:108FF0003200174900933B00FFF742F9C02300936A
:1090000032003B0013492868FFF73AF90C2012F0B0
:10901000C2FA0023838083710F4B03600F4B836080
:1090200000F026FB0123227813432370F7BDC046CE
:109030000628002080240020B4240020A42400203E
:10904000AC240020FC3F0020B57A0200AD8E010068
:10905000FF030000FE03000080B80200758E0100CF
:10906000024B1878012318407047C046062800209C
:10907000F7B506000D0017000193002802D1002467
:109080002000FEBD0029FAD0FFF776FF041EF6D0BF
:10909000074B019A43630660064B45608760002AD0
:1090A00000D0054B20000549A3630EF0A5FCE7E7BF
:1090B000FC3F00208F7A02009D7A0200A424002049
:1090C00070B5074B0E0011001A780500012310003F
:1090D00018401A4203D032002800FFF7C9FF70BDC4
:1090E00006280020024B1868434258417047C0468A
:1090F000A42400200300002210B504499400605805
:10910000002801D00132F9E7635010BD8C24002003
:10911000002310B5044A99008C58844201D00133D1
:10912000F9E70020885010BD8C24002010B50024E1
:10913000084BA200D058002802D003685B6898470B
:109140000134062CF4D1044B1B68002B00D120BF46
:1091500010BDC0468C240020A42400200122F8B5B4
:109160002C4B1B7813421CD02B4D2C68E36C134204
:1091700018D002273B43E364284B1E680423F26C9B
:1091800030001343F364636BF3630EF05EFC300056
:10919000716C05F002FD2868C36C3B4201D005F0FC
:1091A00036FDF8BD1E4F1F4E3A683068002A0AD1BE
:1091B00028601B0712D52C60FFF7B8FF3B68002B17
:1091C000FAD02B600AE0216DB94219D1616D0029F6
:1091D00000D1110029602A688242EAD029688C42B5
:1091E000DFD0336899420DD10F4B4B630F4B8B632C
:1091F00020000EF02AFC296820004B6C626C06E00F
:109200002A60E8E79C42F3D1002210004B6C05F085
:1092100083FCC6E706280020B42400208824002010
:10922000A4240020AC240020FC3F0020B57A0200DA
:1092300070B5114B04001A7801231A4202D112F0C2
:1092400077F870BD0D4A1568EA6C1A4206D0FFF730
:1092500093FE0B4B1860002800D0050000F0F0F9D9
:109260002418AC6428000EF0D9FB280005490EF044
:10927000C3FBFFF773FFE4E706280020B4240020B7
:109280008824002084240020F0B51E4B1E4F1E6849
:109290003B6885B005000391002B31D01B4B1A7839
:1092A00001231A422CD0F26C1A420ED0FFF764FE52
:1092B000174B041E186008D00EF0B0FB20001549B3
:1092C0000EF09AFB2600FFF749FF039B30001B04BA
:1092D0002B43B3640EF0A2FB30000F490EF08CFB61
:1092E0000E4B0024EB18012B07D9C0230093290053
:1092F0000B4B039A3868FEF7C3FF200005B0F0BDA2
:10930000084CFAE7B424002080240020062800201E
:1093100088240020A4240020B024002002FCFFFFA9
:10932000AD8E010016FCFFFF10B5074B1B78DB0765
:1093300009D5064C20680EF071FB054920680EF037
:109340005BFBFFF70BFF10BD06280020B4240020B4
:10935000A824002010B5034B1B78DB0701D5FFF7CD
:10936000E3FF10BD06280020F7B505000C0000281B
:1093700033D001261B4B1B78334230D01A4F0723C2
:109380003868C26C1100194000911A4207D02100C0
:109390002800164AFFF794FE00252800FEBD05F0C0
:1093A0001EFC3A680221D36C1800084001900B4261
:1093B00003D001318B43D364EEE73343D364200001
:1093C000A8473A68019DD36C1900B143D1645B078B
:1093D000E3D52000FFF7BEFFDFE7054DDDE7054DD4
:1093E000DBE7C04606280020B42400205593010086
:1093F00017FCFFFF16FCFFFF020010B5014B12CB5C
:1094000012C210BDB8240020034B1A68034B1A6027
:109410007E225A607047C04604200020B8240020F5
:10942000F0B5124E03003278022A1BD081421BD9BC
:109430000C1A072C18D90D000543032728003840C3
:109440003D4211D172B6BA40094DA4085351AA1831
:1094500051608022120614431C603378013333704C
:1094600062B6F0BD0348FCE70348FAE7082800208D
:10947000C024002013FCFFFF17FCFFFF70B5134C46
:1094800005002378124E002B0CD11249124833707C
:10949000FFF7C6FF114B984202D11E20FFF71CFCBC
:1094A0000123237000243378A34209DD0C49E30033
:1094B0002800C9180EF004FB002805D10134F2E79A
:1094C0001420FFF709FC002070BDC04607280020CB
:1094D0000828002000380020D828002017FCFFFFB3
:1094E000C024002010B5002817D000220F4B197897
:1094F0000F4B914215DD1C6884420FD25C68844298
:109500000CD9041F2368002B02DC1E20FFF7E4FBAC
:10951000802322681B061343236010BD01320833E9
:10952000E7E71E20FFF7D8FBF7E7C0460828002032
:10953000C024002070B5051E14DD0B4E0B4C3368A3
:10954000002B02D0206811F0A8FDFA212068002429
:10955000074B89008361C4626943356011F0AEFD39
:10956000200070BD0348FCE7D02400200025002027
:109570001D96010017FCFFFFF8B5114F05003E686E
:10958000002E0AD1302012F006F8040008F058FB33
:109590000C4BA6612360E6623C600B4E3368002BE7
:1095A00009D1102011F0F7FF040011F0D3FD2000C5
:1095B000346011F0A9FD2800FFF7BCFFF8BDC046DC
:1095C00000250020D4C10200FC240020014B1868B3
:1095D0007047C046D024002070B50D4C2368002B86
:1095E00003D00C4B1B68002B02D10620FFF7C4FFF1
:1095F000206811F0A0FD02000749C3170D684E68EE
:109600005219734120680A604B6011F09AFD70BDD9
:10961000FC24002000250020A820002010B5FFF722
:10962000DBFF0024054BA200D058002802D00368BD
:109630001B68984701340A2CF4D110BDD4240020B3
:1096400010B5FFF7C9FFFA22034B9200186859685A
:10965000002309F0D7FA10BDA820002010B5FFF7AD
:10966000BBFF024B1868596810BDC046A8200020F7
:109670000B4B10B51B680400002B03D0094B1B6873
:10968000002B02D10620FFF777FF0023064A99003E
:109690008858002801D00133F9E78C5010BDC0462E
:1096A000FC24002000250020D4240020002310B535
:1096B000044A99008C58844201D00133F9E7002014
:1096C000885010BDD424002010B50400002902D019
:1096D0000B78002B03D1034B2360200010BD0EF04C
:1096E000C7FAFAE790B80200F8B504000E001500BA
:1096F00000290AD00B78002B07D0002A05D00800DB
:1097000097B211F0D6FF874203D90B4B236020009C
:10971000F8BD681DFFF7B2FE20600EF04CFC20681B
:109720002A0047803100043011F067FF23685D197B
:1097300000232B71EBE7C04690B80200014B036099
:109740007047C04690B8020070B509681600022242
:109750008C5E0500A64206DB084B186828600EF0F8
:109760002DFC280070BDA41B9C4200DD1C000431B0
:10977000280022B28919FFF7B7FFF2E7042500207D
:1097800010B50548054C20600EF018FC2000044A76
:10979000044911F0F5FE10BD90B802000425002028
:1097A00000200020637C0200084B73B51D68040094
:1097B000002D0AD001002E6808220831684611F0F9
:1097C0001CFF0CCC28003168884773BD0825002099
:1097D000014B03607047C04698B8020010B5040002
:1097E000081E03D1034B2360200010BD21600EF042
:1097F000E5FBF9E798B8020030B500684488A1425B
:109800000CDA8588AA4209DA002907DB002A05DB81
:109810006243401880188371002030BD0048FCE787
:1098200017FCFFFFF0B507000E001D0085B00029F2
:1098300021DD002A1FDD002B1DD0046863880393FF
:109840008B4200DD0391A3880293934200DD0292D4
:10985000002306340193019B029A93420ED0290003
:109860002000039A11F0C9FE3B68AD195B88E4182B
:10987000019B0133EEE7024805B0F0BD0020FBE795
:1098800017FCFFFFF8B504000D0016001F000029AB
:1098900001DB002A02DA0D4B2360F8BD10004843BB
:1098A0000630FFF7EBFD20600EF085FB23685D803E
:1098B0009E80002F06D03B00320029002000FFF7D9
:1098C000B1FFEAE720000EF0ACFAE6E798B8020034
:1098D000F7B507000D1E03D1244B03603800FEBD11
:1098E000002408002600210001940378002B1AD0E0
:1098F0003022524294469C446246092A11D90A2BCE
:109900000AD1019B361901330193B14200DA3100CB
:10991000002426000130E8E7002CFBD000240136AB
:10992000F8E70124F6E70126019A380012B209B2DD
:109930007642FFF7A7FF31000A203B689A1D2C787A
:10994000002CCBD02300303B092B08D8F343DB1786
:10995000334043431B19303B1E000135EFE7002E17
:10996000FBDB16700E000132F7E7C04698B8020024
:10997000F0B5050087B004A816001C000F00FFF723
:109980003BFD2B685A88964235DA9B889C4232DA36
:109990001F2F30D9059B01939F422CDC0521794371
:1099A000049BA0395B1801932300621D0392019A66
:1099B0001278029200222C68B7186088B8420DDD38
:1099C000A1888B420ADAE4191027174158430299FB
:1099D00024180F40781E87417F42A7710132052A63
:1099E000E9D1019A013301320192039A9342DED107
:1099F000002007B0F0BD0148FBE7C04617FCFFFFA1
:109A0000F7B5036806009F1D5B880D005A1A019286
:109A1000002919DD0024994203DB0EF002FA002030
:109A200013E033689B889C42F9DA79193800019A6F
:109A300011F0E3FD019B2900F8180EF0D5F9336809
:109A400001345B88FF18ECE70048FEBD17FCFFFF00
:109A500010B50548054C20600EF0B0FA2000044A0D
:109A6000044911F08DFD10BD98B802000C250020AE
:109A700000200020DB7D020010B5054C01212000F4
:109A80000EF090FA2000034A034911F079FD10BD51
:109A90001025002000200020637F0200074A0300F9
:109AA00010B50120934208D0834202D00020DB078A
:109AB00003D41E20FFF710F9002010BDFFFF0000A7
:109AC0000048704716FCFFFF10B53220FFF704F97D
:109AD000004810BD16FCFFFF82801422002310B541
:109AE00041620F4C0100083404600E240281123AD6
:109AF000837182720363838636310A78C360A2431E
:109B0000036143618361C36103620A70021DD387ED
:109B100001224287034AC26302004032137010BD23
:109B2000B8B80200010001008B8883808B798371B3
:109B3000044B8A6803600E23CB5682608A89837344
:109B400082817047A8B80200F0B5624D04002E680B
:109B50008DB0002E25D13A210FF0FEFB071E2AD032
:109B6000082011F018FD012233001100070010F049
:109B700001F90B231C22212104A801F02FFD04A9C7
:109B800008A8FFF7D1FF5C2011F005FD04230600B3
:109B900001933633009321003B0008AA02F00EFB2C
:109BA0002E604D4B1868002802D029680EF0A6FBE5
:109BB00028680DB0F0BD322120000FF0FBFB061E1F
:109BC00021D0082011F0E7FC01223B001100060023
:109BD00010F0D0F80B231C22212104A801F0FEFC78
:109BE00004A908A8FFF7A0FF5C2011F0D4FC04230F
:109BF00001932E3300932100330008AA070002F0DE
:109C00007DFC2F60CDE73C2120000FF08EFB071E6E
:109C100026D0082011F0BFFC0122330011000700FC
:109C200010F0A8F80B231B22232104A801F0D6FC76
:109C300004A908A8FFF778FFA42011F0ACFC0523C5
:109C400006000293013B01933833009321003B004F
:109C500008AA02F0D3F9204B2E6044361E60A0E71C
:109C6000302120000FF0D4FB06000820002E1FD06A
:109C700011F091FC3A0002230121060010F07AF85D
:109C80000B231522212104A801F0A8FC04A908A88F
:109C9000FFF74AFF5C2011F07EFC042301932C3374
:109CA00000932100330008AA070002F0CDFDA8E7C9
:109CB00011F071FC012233001100070010F05AF876
:109CC000442011F068FC040004223900FFF704FF6F
:109CD0002C6066E71425002018250020F0B56349A4
:109CE000C56885B08D4258DA030036331C780222ED
:109CF0002300134014425BD1026901928A4265DA63
:109D000002003632127852076AD442690292020087
:109D1000029C40328C4270DA010036310978090722
:109D200075D4002B7ED113789C46002B16D00100F1
:109D3000061DF38F363101339BB2F3870391097807
:109D400001270C003C40394200D188E01D2B05D989
:109D5000039BB94319700023F38713700EF07AF94F
:109D6000434A0723904277D94249043B8D4273DB33
:109D7000C8220133920095426EDC0198023B884272
:109D80006ADB013B904267DC02980433884263DB64
:109D90000023904260DD06335EE0C82200235200BB
:109DA0009542A9DD030036331A7800239207A3D425
:109DB000012306001F00363632785408A7433C00C2
:109DC00002279C40BA432243327095E7C822019C87
:109DD0005200944299DD020036321278520794D430
:109DE000012306001C00363632789708BC43A700D2
:109DF0000424A2433A43327087E7C821029C4900F9
:109E00008C428EDD010036310978090789D40100C2
:109E1000012636310B78DF08BE430827F600BB4326
:109E200033430B701378032B00D97CE70133DBB28B
:109E30001370012B03D10021031DD98773E7042B75
:109E400000D070E7020036321178033B0B431370E9
:109E500000230430C3870B33180005B0F0BD092B75
:109E600000D87BE76346F487013B76E770FEFFFF8F
:109E7000FF700200E0FCFFFFF0B5040087B0C0688F
:109E80000BF058FC060020690F000BF053FC6369CF
:109E900002900391180000930BF04CFC020001901B
:109EA000802000060B180591300039000BF0E6FD0C
:109EB0000BF0B8FCE062051C0BF0A2FD0490281C1E
:109EC0000BF062FD051C04980BF064FC32003B00B3
:109ED0000AF0FCFD0600281C0F000BF05BFC019A49
:109EE000059B0AF0F3FD02000B00300039000BF077
:109EF00059F80B000200029803990BF0BFFD0BF01C
:109F000091FC009B051C002B06DCA0620223A279B9
:109F10001343A37107B0F0BD002108F05FFE0B4EA4
:109F2000002811D10A4F281C0BF034FC02000B0052
:109F3000300039000BF036F832003B0009F056FED5
:109F40000BF070FCA062E1E7024FECE7EA2E44540C
:109F5000FB21F9BFFB21F93FF0B5C369C1681A685D
:109F6000451D0400EB7F89B0114225D0002B57D14D
:109F70000123A2791A4237D0002602226846A1881E
:109F8000A6710DF007FFA31DDD7F012D2CD1FFF77A
:109F900057FB3300226A801A99410F000600A188FE
:109FA0009F4203D1FA239B009E423BD3012304220C
:109FB00004A80DF0EFFE17E00B2B01D80133EB776F
:109FC000EB7F082B0DD90122A37913420CD1134347
:109FD000A188A37104A813000DF0DCFEFFF730FB8D
:109FE0002062EB7F012BC3D90322A3791340012BFD
:109FF00014D1FFF725FB0023226A801A9941994268
:10A0000002D10A4B984209D90223A279A1881343AD
:10A01000A3710522012304A80DF0BCFE09B0F0BD18
:10A02000013BCCE72B000322C2E7C046DB05000062
:10A0300010B50400034B08330360FFF737FB200023
:10A0400010BDC046ECB80200F0B5060000250F00B8
:10A05000040085B002930AAB1B78083603930F4BBC
:10A060002900083303600192858085711822300031
:10A0700011F0DFFA39003000039A11F0BAF8019BB1
:10A08000029AA380A31DE771DA77631D2562200081
:10A09000DD77FFF7EDFA200005B0F0BDECB8020067
:10A0A0000048704716FCFFFF10B53320FEF714FE82
:10A0B000004810BD16FCFFFF002310B5040083808C
:10A0C00083710D482164083020608020C000A061A9
:10A0D000E061206211002000E3602361636163623C
:10A0E000A362E36223636363A363E36363640EF0C9
:10A0F000CAF8200010BDC04604B90200F0B5614D99
:10A1000004002E688DB0002E25D11D210FF03BF9E3
:10A11000071E28D0082011F03EFA0122330011005A
:10A1200007000FF027FE0B231D22222104A801F0B7
:10A1300055FA04A908A8FFF7F7FC602011F02BFAE4
:10A14000052301931833009321003B0008AA060061
:10A1500002F004F92E604C4B28681B68002B00D0DD
:10A1600043640DB0F0BD3C2120000FF03AF9061E0B
:10A1700021D0082011F00FFA01223B001100060047
:10A180000FF0F8FD0B231D22222104A801F026FA6E
:10A1900004A908A8FFF7C8FC602011F0FCF905230A
:10A1A0000193373300932100330008AA070002F01F
:10A1B00049FA2F60CFE73C2120000FF0B6F8071EC8
:10A1C00025D0082011F0E7F9012233001100070023
:10A1D0000FF0D0FD0B231B22232104A801F0FEF970
:10A1E00004A908A8FFF7A0FCA42011F0D4F90523C6
:10A1F00006000293013B01933833009321003B009A
:10A2000008AA01F0FBFE204B1E604436A2E7202185
:10A21000200002F02FFD06000820002E1FD011F0B4
:10A22000BAF93A000223012106000FF0A3FD0B2327
:10A230001722232104A801F0D1F904A908A8FFF7E7
:10A2400073FC702011F0A7F9052301931B330093D1
:10A250002100330008AA070002F0DEFCA9E711F094
:10A260009AF901223300110007000FF083FD482006
:10A2700011F091F9040005223900FFF71DFF2C6051
:10A2800069E7C046182500201425002030B50425B4
:10A290008379040085B02B421BD10368DB699847A2
:10A2A00020000EF01CF8A37903222B43A37168460B
:10A2B0000123A1880DF06EFDA079FB230200800729
:10A2C0009B00C0171840044BAA43A271C01805B0E8
:10A2D00030BD0248FBE7C04614FCFFFF15FCFFFF42
:10A2E000F0B5040089B0406C0DF06EFF071C606C87
:10A2F0000DF05DFF02222100061C05A80EF000F8FB
:10A30000069809F0F1FB051C079809F0EDFB039096
:10A31000381C0BF075FB041C381C0BF035FB01904E
:10A32000301C0BF06DFB0290301C0BF02DFB211C40
:10A33000071C039809F0D6F80199061C281C09F09F
:10A34000D1F8011C301C09F0E7F9061C059809F04A
:10A35000CBFB391C09F0C6F80299071C281C09F030
:10A36000C1F8211C09F0BEF8011C381C08F054FD8E
:10A370000299041C039809F0B5F8019909F0B2F8A4
:10A38000011C201C08F048FD311C0BF07BFB0F4921
:10A3900009F0A8F80BF0FEF90D4A0E4B09F090FFFA
:10A3A0000BF040FA011C0C4809F0B6F90021041C1E
:10A3B00008F000FC002804D0201C044908F02CFD03
:10A3C000041C201C09F070FB09B0F0BD0000B44370
:10A3D000EA2E4454FB2119400000B4421FB501226B
:10A3E000010001A80DF08CFF029809F07DFB041C10
:10A3F000019809F079FB211C0BF044FB0D4909F091
:10A4000071F80BF0C7F90C4A0C4B09F059FF0BF02F
:10A4100009FA0021041C08F0CDFB002804D0201C00
:10A42000074908F0F9FC041C201C09F03DFB04B0AE
:10A4300010BDC04600003443EA2E4454FB210940BD
:10A440000000B44310B5837904005A070DD49B076C
:10A4500001D4FFF71BFF636C2000002B02D0FFF735
:10A460003FFF10BDFFF7BAFFFBE70148F9E7C04621
:10A4700015FCFFFF82B0F0B50400EDB064207393CB
:10A48000729210F055FF052210A811000DF0D2FCB9
:10A490009C4911A8FFF71CFA1925002221AB013DA8
:10A4A0001A605A609A600C33002DF8D12F23964A17
:10A4B00008A912785B181A702900182214A811F044
:10A4C000B8F8A0680EF0D5FAFF210A90A06800F055
:10A4D0004BFD8E4FA06800F05DFB04950795099534
:10A4E0008A4B9F4203D08A4B9F4200DBFFE0A0686B
:10A4F0000EF0C1FAA56887491AA8FFF7E5F8782297
:10A500001AA9280000F076FC1AA80DF0AAFB002377
:10A510007E4F04930326099B6068013333400993FF
:10A520000DF030FE050060680DF033FE00227A4B1E
:10A5300005929D420FDB013205922A00C8320ADBE8
:10A54000AA22042192000591954204DC0596C82DAB
:10A5500001DC0222059200220692984210DB0123C0
:10A5600006930300C8330BDBAA2304329B00069238
:10A57000984205DC03230693C82801DC013B0693BF
:10A5800010A80DF04EFC654B00251E0008932F23EC
:10A5900008AA9B18EB5C012B05D172783178FE3349
:10A5A00010A8FFF729F901350236192DEFD16B46B6
:10A5B00018229A5E6B4610A81421595E099BFFF77A
:10A5C0001BF9002F02DB049B0F2B07D90023A06887
:10A5D0001A007430009310A90DF039FC0026089B76
:10A5E000059A1B78934228D1089B069A5B78934280
:10A5F00023D12F2308AAD218935D012B1DD00C2242
:10A6000007990CAD4A43280021680B9200220DF0F7
:10A6100077FE21A98C460B9A6244130007CD07C32D
:10A620002F2308AAD31801229A55079B9B18DBB247
:10A630000793049B9B18DBB20493089B01360233FB
:10A640000893192ECBD1642010F072FE079B643F53
:10A650003FB2182B00D843E71A0021A91AA80EF020
:10A660006CF86A461DAB23CB23C21B6813601A9992
:10A670001B9A1C9B20680DF018FEE568002D0CD07D
:10A68000274912A8FFF720F81C2328001AAA12A9AC
:10A690000EF003FE12A80DF0E4FAA0680EF0EBF93C
:10A6A00011A912A8A5680DF0A5FB00221D4B009270
:10A6B00012A901932800130000F00AFB12A80DF064
:10A6C0008CFBFA20800010F033FEA0680EF0D3F966
:10A6D0000A99A06800F048FC11A80DF07EFB10A8B4
:10A6E0000DF07BFB6DB0F0BC08BC02B01847002F2A
:10A6F00003D0049B0F2B00D00CE7A06800F04AFAAF
:10A7000008E7C0466BCB0200D0CB02008C3C0000B7
:10A71000D18AFFFFB0CB020058FDFFFFE9CB02005A
:10A72000C5CB0200DC050000F0B587B001930EAB8D
:10A730001B88060003930D9B0D000093019B0C9F4B
:10A740000292002B3CD0002F02D1009BDB0737D5B3
:10A75000282010F020FF040010300DF011FB029BA8
:10A7600018202580638010F016FF0500009B08224A
:10A770000593019B002103600C30049710F059FFF2
:10A78000082204A9281D10F038FF0E4B02226B612D
:10A7900000230399E3602362636233680A43300055
:10A7A00021005B68A560A2809847002806D02000A1
:10A7B0000DF00BFA200010F0EAFE034807B0F0BDE0
:10A7C0000248FBE76B83020016FCFFFF17FCFFFF4C
:10A7D00070B58CB08360109B01604260C360040060
:10A7E000184918000EF024FD051E14D001001C228B
:10A7F000103105A810F001FF6A4608AB43CB43C2F5
:10A800001B68136020680599069A079B0DF04DFDA3
:10A81000280010F0BCFE0C4B186800280ED00B4A24
:10A8200005AB059200220692C03202926A4622CB04
:10A8300022C2230003220521FFF776FF20000CB07F
:10A8400070BDC046C5CB02000825002075A40100DC
:10A85000F0B5040085B0637A0093002B04D120008A
:10A860000DF089FF05B0F0BDA37A01229C461023AC
:10A870000025266F2900F35663449A40F36802923C
:10A880000193230009330393019BAB4233DDB2688C
:10A8900073696A4362445200E77A981840789A5C78
:10A8A000E379012F17D15F1E3F1A10003A0043438E
:10A8B000676F5B0006379A18BB180098BA5C824233
:10A8C00000D9039B1B78627B1A4202D00123AB4064
:10A8D00019430135D8E7022F07D0032FE7D1277A94
:10A8E000013FBF1A02003800E1E75F1EBA1A277A5B
:10A8F000013F381ADBE71123C943F356606C9940D6
:10A9000023691940029B194310F0D2FDA27B072A4C
:10A91000A8D8637B0C495B006373531CDBB29000C7
:10A920004158A373022A03D8080010F0F6FC92E7FE
:10A93000064B2000236300236363054BE46223641A
:10A94000143010F0BBFB8DE730B9020051A80100B4
:10A950006187020070B50400104B250008330360C6
:10A96000FEF7A4FE200074300DF037FA20006030AE
:10A970000DF033FA200058300DF073F920005030FC
:10A980000DF06FF9064B14352800636110F085FB5C
:10A99000280007F06BF9200070BDC04650B90200D6
:10A9A000D4C10200F8B500250400324B858008337D
:10A9B00003608571143016000F0007F041F9200084
:10A9C0002D4BE562636125645030FEF7B7FE200031
:10A9D0005830FEF7B3FE20006030FEF7F9FE20008D
:10A9E0000423F25E33682667590009B274300DF013
:10A9F00021FA3368226FE3717368012623721023F2
:10AA00006581A7802561D35691685918994204DD64
:10AA10003000984001330543F8E711230120D35655
:10AA2000D1685918994206DD02009A40266901331F
:10AA300032432261F6E7142010F0ADFD22690021B7
:10AA40002A430123060007F0D7FBFF23220063728D
:10AA50000133A381002348326664A373200013707E
:10AA6000A366FEF705FE0123A27920001343A3711C
:10AA7000F8BDC04650B90200E8C10200F0B5437A03
:10AA8000040085B0002B04D120000DF074FE05B049
:10AA9000F0BD0122837A11009C461023066F002529
:10AAA000F35603926344994002912900F36801939D
:10AAB000019BAB422CDDB068736968436044400081
:10AAC000E77A1A181B5C5078E279012F10D1571ED3
:10AAD0003F1A18003B004243606F52008218D218A0
:10AAE0009379002B02D0039BAB4019430135DFE77C
:10AAF000022F07D0032FEED1277A013FFF1A030060
:10AB00003800E8E7571EFB1A277A013F381AE2E7B8
:10AB10001123C943F356606C994023691940029B85
:10AB2000194310F0C5FC667AB31EDBB2FC2B14D8B7
:10AB3000FEF74CFD0B4B0500236300230A486363BB
:10AB40000A4BFF217043E462236407F0F7FE2900FB
:10AB500041432000143010F0B1FA637A012B00D980
:10AB600095E791E777870200B6030000618702004E
:10AB70001FB5012381881A0068460DF00BF90123E7
:10AB800068461A0002490DF005F905B000BDC0463F
:10AB9000FE0300001FB5030048331A780400002AA2
:10ABA0000DD000221A70012381881A0068460DF02A
:10ABB000F1F8012368461A0003490DF0EBF8200074
:10ABC00074300DF02EF91FBDFF03000010B54830A2
:10ABD0000378002B06D00378012B03D00121024813
:10ABE0000CF04CFF10BDC046FF03000010B5012162
:10ABF000040006200CF042FF064B984208D148346E
:10AC00002378002B04D02378012B01D020BFF7E755
:10AC100010BDC04616FCFFFF70B50500141E19DB01
:10AC2000060048363378002B02D03378012B13D13D
:10AC3000002328001A007430FEF79AFE002C07D07B
:10AC40002B004A331C80002407234C352C803370A2
:10AC5000200070BD014CFBE7014CF9E717FCFFFF3A
:10AC600012FCFFFFF8B50B6805005B8808001700B1
:10AC7000012B08D100210DF076F8002201002800F8
:10AC8000FFF7CAFFF8BD002A19DD2E0048363378D9
:10AC9000002B02D03378012B13D12B0000245C331E
:10ACA0001C80043B010018000DF038F82B004A33DB
:10ACB0001F8003234C352C8020003370E2E70248CC
:10ACC000E0E70248DEE7C04617FCFFFF12FCFFFF8B
:10ACD00073B5079C0500002C1CDB06004836307855
:10ACE000002802D03078012816D106981BB2C0B2D5
:10ACF0000090280012B274300DF0A9F8002C07D093
:10AD00002B004A331C80002407234C352C803370E1
:10AD1000200076BD014CFBE7014CF9E717FCFFFF73
:10AD200012FCFFFFF7B505000E00171E26DDFFF72A
:10AD30004DFF2B0048331B78DCB2002B20D1336849
:10AD40005B88012B09D1210030000DF00CF82200A6
:10AD500001002800FFF760FFFEBD310001A80CF0E4
:10AD6000D5FF3A0001A92800FFF77CFF01A80CF0ED
:10AD700078FF2800FFF73AFF2000EDE70148EBE7F6
:10AD80000148E9E717FCFFFF11FCFFFFF0B587B0B2
:10AD90000D9C05000E0017000393002C21DBFFF72C
:10ADA00015FF2B0048331B78DAB20292002B1AD120
:10ADB000310005A80DF01EF80C9B3A000093280006
:10ADC000039B019405A9FFF783FF05A80DF005F883
:10ADD000002C03D02800FFF709FF029C200007B0D9
:10ADE000F0BD024CFAE7024CF8E7C04617FCFFFF43
:10ADF00011FCFFFFF8B50400171E1DDD06004836E4
:10AE00003378002B02D03378012B17D12200E3795D
:10AE10005632013B137023000025200054331D805F
:10AE200050300CF07BFF23004A331F8002232800A0
:10AE30004C3425803370F8BD0148FCE70148FAE73F
:10AE400017FCFFFF12FCFFFFF7B504000F00161EF2
:10AE500018DDFFF7BBFE230048331B78DDB2002B63
:10AE600012D1390001A80CF051FF320001A92000D5
:10AE7000FFF7C0FF01A80CF0F4FE2000FFF7B6FEBC
:10AE80002800FEBD0148FCE70148FAE717FCFFFF78
:10AE900011FCFFFFF8B50400171E2DDD0600483633
:10AEA0003278002A02D03278012A27D15D42069BEF
:10AEB000FF331FD16B1D22001BB2643213802300AD
:10AEC000200066331D7060300CF09CFF23000022D0
:10AED0006C331A70954200D03D0023004A331D8028
:10AEE000079B00205A1E9341013F4C3405332780B5
:10AEF0003370F8BD069BDEE70148FAE70148F8E742
:10AF000017FCFFFF12FCFFFFF0B504000F00160056
:10AF10001D0087B0002A1FDDFFF758FE23004833CD
:10AF20001B78DAB20392002B18D1390005A80CF077
:10AF300061FF0D9B320001930C9B05A9009320003B
:10AF40002B00FFF7A7FF05A80CF047FF2000FFF735
:10AF50004DFE039807B0F0BD0148FBE70148F9E753
:10AF600017FCFFFF11FCFFFFFF2902D841720020F0
:10AF700070470148FCE7C04617FCFFFF13B504000B
:10AF800004A80078009020000FF0FCFF002801D1F9
:10AF9000207516BD0048FCE70EFCFFFF13B504004A
:10AFA00004A80078009020000FF0D4FF002801D101
:10AFB000207516BD0048FCE70EFCFFFF7FB50D00B5
:10AFC00011000F226A4404001E1E117015D0089B48
:10AFD000002B12DD012329000093FFF7DFFF00287B
:10AFE00008D10090320029002000089BFFF7C6FF1F
:10AFF000002800D0024804B070BD0248FBE7C046FC
:10B000000EFCFFFF17FCFFFF10B5040086B0006CBC
:10B0100006F08EFE237BA0219A00A05000200C4A4F
:10B02000C90050500B4914305050626C6846517C36
:10B03000C91849B20DF017FE039B019A03211A604B
:10B04000207B0130C0B207F075FC217306B010BD43
:10B05000007000400405000082B070B504000025B7
:10B0600088B00C920D93636C9A68AA420ADD197C31
:10B0700002A8491949B20DF0F6FD069B039A013565
:10B080001A60F0E75D7C237B02A8ED186DB2290001
:10B090000DF0E9FD039A059B00211A60019202A8B8
:10B0A000182210F0C6FA02A80022290010F0A1F818
:10B0B000206C002801D010F06AFA082010F06BFA1A
:10B0C0002900060006F00EFE094B2000E362002373
:10B0D000FA212363074B2664A462E363103009015D
:10B0E0000FF0ECFF08B070BC08BC02B01847C046B7
:10B0F00009B00100118C0200F0B504000E0015002B
:10B1000085B01F000CAB1B88103001930CF038FE8B
:10B1100026806580182010F03EFA02AE050033004C
:10B120000AAA03CA03C32F602800082700213A0097
:10B130000C3010F07EFA3A003100281D10F05DFA54
:10B14000064B022220006B6100230199A5600A438F
:10B15000E360A2802362636205B0F0BD278C020029
:10B1600070B5040086B010300D0006F069FD0023B4
:10B17000184AA3622261184AE36316686564237360
:10B1800023606360A3609E421FD0144A282004926B
:10B19000059310F000FAC02305006A46029304AB41
:10B1A00003CB03C22300062102222800FFF7A4FFDD
:10B1B0003368290030005B689847002805D02800D4
:10B1C0000CF003FD280010F0E2F9002320002364B6
:10B1D00006B070BDE8C102000825002059B001008A
:10B1E00030B5154B04001D6891B0002D17D0134BDE
:10B1F0006A460493002305931033029304AB03CBF8
:10B2000003C223000222062106A8FFF775FF2B6860
:10B2100028009B6806A9984706A80CF0D6FC2500D4
:10B22000074B1035280023610FF037FF280006F088
:10B230001DFD200011B030BD0825002059B00100CF
:10B24000D4C10200F7B506000D1E3ED00023022730
:10B2500004690193002C34D0AA88A38853403B4250
:10B260002DD13A4222D1A368AA68934227D12B88D4
:10B27000002B02D022889A4221D16B88002B02D069
:10B2800062889A421BD1EB68E268934201D0002B9E
:10B2900015D17368002B01D020009847A2880C4B71
:10B2A0001343A380019B0133019308E0A968A068C0
:10B2B0000EF045FD0028DAD1AB883B42D3D0646A5A
:10B2C000C8E7019B2000002B00DC0248FEBDC04601
:10B2D0000080FFFF17FCFFFFF0B506000D0085B0F2
:10B2E00000295DD001270469002C27D00221AA88FB
:10B2F00000230A4202D0A3885B083B4022682968E9
:10B300008A4215D1A068A968002B0FD00EF017FD56
:10B3100000280DD0EB68E268934209D10421625EF7
:10B32000A388002A06DB1F4805B0F0BD8842F1D093
:10B33000646AD9E75B045B0CA380F4E730692A8870
:10B340000100031E07D135610123684616490CF040
:10B3500021FD0020E8E71C88944206D25C6A1900AF
:10B36000002C0DD02300F6E723001C88944207D15F
:10B370005F886C88A74203D85C6A1900002CF3D15F
:10B38000884209D10B889A4204D305D148886B883A
:10B39000984201D96962D6E74B6A6B624D62D3E786
:10B3A0000248C1E716FCFFFFFD03000017FCFFFF8A
:10B3B000064B10B51A00040008322C33026083607B
:10B3C0000830FDF7A5FE200010BDC04668B9020098
:10B3D00008B4024B9C46083808BC6047B1B3010072
:10B3E00008B4024B9C46083808BC6047C98C020070
:10B3F0000C4A002311002C32083110B543608381C0
:10B4000083738260036143618361C38301600400CD
:10B410000830FDF76FFE044B1A68002A00D11C604B
:10B42000200010BD68B9020008250020F7B50D0006
:10B43000012604690192002C37D023882A889A4279
:10B4400001D0002B24D163886A889A4201D0002B56
:10B450001ED1FDF705FE0123002806D0C022A388D7
:10B460001340C03B5A425341DBB2019A93421AD176
:10B470000422A35EA788002B15DB10222900A01848
:10B4800010F0BBF840231F4204D020000DF025FC33
:10B49000646AD0E7FDF7E4FD0028F6D021000448F7
:10B4A000FDF762FFF4E70026F2E73000FEBDC0467C
:10B4B000DB8C020008B4024B9C46083808BC60478D
:10B4C000658E0200F0B587B001930EAB1B880600B5
:10B4D00003930D9B0D000093019B0C9F0292002B88
:10B4E0003CD0002F02D1009BDB0737D5282010F07D
:10B4F00052F8040010300CF043FC029B1820258009
:10B50000638010F048F80500009B08220593019B1A
:10B51000002103600C30049710F08BF8082204A976
:10B52000281D10F06AF80E4B02226B61002303996C
:10B53000E3602362636233680A43300021005B6882
:10B54000A560A2809847002806D020000CF03DFBA3
:10B55000200010F01CF8034807B0F0BD0248FBE7DC
:10B560009F8E020016FCFFFF17FCFFFFF0B51600D0
:10B5700000258380164A174B040085710260018103
:10B580004681057318688C4689B0A8421DD0124ABE
:10B5900005950492C02202926A4604AB82CB82C215
:10B5A00023002A006146FFF78DFFC022094B0A499C
:10B5B000186802926A46069106AB079582CB82C252
:10B5C00023002A003100FFF77DFF200009B0F0BD05
:10B5D000ACB9020008250020C98F020030B5002454
:10B5E00003730123034D056084718180827343736B
:10B5F000846030BDA8B8020070B583790400DB0711
:10B6000004D58068002801D00FF0C1FFA3799B0703
:10B6100004D5A068002801D00FF0B9FFA3795B071B
:10B6200009D5A0230021154AA068DB00D15088422B
:10B6300001D00FF0ACFFA3791B0708D5A568002D3A
:10B6400005D028000EF0ECFB28000FF0A0FFA37936
:10B65000DB0605D5A068002802D00368DB689847A0
:10B660006023A2791A4205D0A068002802D003689E
:10B670005B6898470023A360A37170BD0070004011
:10B68000F7B50126037B040033422CD08279612375
:10B690001100194001911A4216D1FFF7ADFF182091
:10B6A0000FF079FF0E230500E356677B18220199FE
:10B6B00000930FF0BEFF3A00280000990FF099FDAB
:10B6C000A379A5603343A3716023A279A0681A42CD
:10B6D00002D00FF078FCFEBD436940681B6818403B
:10B6E000431E9841F7E70148F5E7C04616FCFFFF07
:10B6F000012210B583794173134204D080680FF0A2
:10B700001EFE002010BD6022134203D080680FF09F
:10B7100061FCF6E70048F5E716FCFFFF70B5040092
:10B7200000250C4B0E0008338580857103602100D5
:10B7300018300DF0FAFC2000210020300DF018FD2B
:10B74000054B2000A680E5802572E56025616561D6
:10B750001C6070BDBCB902001C2500208379DB078A
:10B7600002D5C160002070470048FCE716FCFFFFCF
:10B770008379DB0701D5C06870470148FCE7C04604
:10B7800016FCFFFF70B545690400002D22D0037A36
:10B79000032B21D8FFF7ECFFA8622C200FF0FBFE53
:10B7A0002C22002105000FF044FF002263695A6239
:10B7B0002369934207D1636923610020237A65617D
:10B7C0000133237270BD1A005B6A002BFBD16369E1
:10B7D0005362F2E70148F5E70148F3E717FCFFFF82
:10B7E00013FCFFFF144B70B55A68144C002A03D0A9
:10B7F00000225A600132A2601A69002A17D0002183
:10B8000019618023DB000E4DE3582868012B0FD10E
:10B81000A923DB00E1584942FFF7A0FF2868FFF7A2
:10B82000B1FF2B685A69074BE2500123A36070BD3A
:10B83000FFF794FFF9E7C046FC10004000100040FD
:10B840001C2500200405000003000069002809D021
:10B850000221054AD167426A1A611A7A013A1A72BC
:10B86000024B19607047C04604E100E000E100E0CF
:10B8700010B5002903DB024B19600FF0F0FB10BD7F
:10B880002025002070B504001D0004AB1E7806F0D2
:10B8900093F920000E4B40302360FDF74FFF23004B
:10B8A000220001354C331D700023E121583201364E
:10B8B00016700A3AA3646365138053809381D38121
:10B8C000013B200063644902FFF7D2FF200070BDF6
:10B8D00058B80200F7B580277F053E697C690822C9
:10B8E000113C74430500210068460FF086FE104BA2
:10B8F000009A9A4219D00093002301937969280095
:10B90000133971430DF04BFC019A280000990DF09A
:10B9100062FC210028000DF042FC796922001339F5
:10B9200028007143B3080DF046FC0198FEBDC046E7
:10B93000FECA0000F0B50D00ABB000210D9207006B
:10B94000302212A81E000FF074FE28000FF0B1FE86
:10B95000431C0C93102B00D9B8E0202E00D9B5E081
:10B96000290038000DF064FC0B90002854D1290008
:10B970000C9A12A80FF041FE32000D9916A80FF094
:10B980003CFE80235B051A695D690B92113D6A4399
:10B9900038005E690D92FFF79DFF0D9B3022083342
:10B9A000002104001EA80F930FF043FE31000B9BF3
:10B9B0001339594338000DF0F2FB00230F9E0C930E
:10B9C0000E930C9BA34246DA310030221EA80FF0E2
:10B9D00014FE12A91EA80FF062FE00282BD13D49CB
:10B9E00038002200109111940DF0F5FB6A4609967B
:10B9F00015AB23CB23C223CB23C223CB23C23800D6
:10BA0000149B1299139A0DF0F4FB01230E930C9BD7
:10BA1000303601330C93D4E70B9832000D99103077
:10BA20000FF0DDFD04000B980FF0B1FD002C9ED14E
:10BA300020002BB0F0BD6A46099621AB23CB23C270
:10BA400023CB23C223CB23C238001E991F9A209BED
:10BA50000DF0CFFBDBE7E6433021F61726404E43DF
:10BA60000F9B9E190E9B002B1CD10B9B981E06F062
:10BA7000DBFEA0422CD0174901343800220010917F
:10BA800011940DF0A8FB6A46099615AB23CB23C28F
:10BA900023CB23C223CB23C238001299139A149BC1
:10BAA0000DF0A7FB38000D990DF079FB80235B05A5
:10BAB00059690C230B9A133963434A433800110028
:10BAC00002330D9A0DF077FB0024B1E7024CAFE78B
:10BAD000024CADE7FECA000017FCFFFF13FCFFFF9E
:10BAE0008023F0B55B051A6995B002925A690591F9
:10BAF0000299113A51435C69029B133C05005C4377
:10BB00000391FFF7E7FE061E3AD0302200210834E9
:10BB100008A8039F0FF08DFD210028000DF03FFBCA
:10BB20000023083701930493019BB34220DA3900C4
:10BB3000302208A80FF061FD059908A80FF0AFFDAD
:10BB400000280DD11A49721E2800069107920DF0A7
:10BB500042FB01230493019B303701330193E3E758
:10BB600022000C23390028000DF025FB3034F2E7C9
:10BB7000049B002B06D1320028000D490DF02BFB51
:10BB80000C4812E0280003990DF009FB80235B05A7
:10BB900059690C23029A13394A4373431100280050
:10BBA000039A02330DF007FB002015B0F0BDC0462C
:10BBB000FECA00000CFCFFFF70B50400A280FA2250
:10BBC000002308000C49920008312160A3710B4941
:10BBD0006061E260A36063820DF02AFB051E09D05C
:10BBE000010020000222103112300FF006FD280063
:10BBF0000FF0CDFC200070BDD4B902001BCC0200B8
:10BC000030B502258379040087B02B4204D1FDF7BB
:10BC100071FAA3791D43A57120000DF04FFB002898
:10BC20001CD06B46DD1C28000DF03FFB2B78002B51
:10BC300017D001A80DF037FB0321019AD3170B4051
:10BC40009B189B102382FDF7FBFCE368A188181862
:10BC50000123A0601A0002A80CF09CF8002007B095
:10BC600030BD0122064B1A60064A51680029FCD0FB
:10BC700000215160044A1268019201225A60DBE7F8
:10BC800000C00040FCC0004008C50040022802D1AE
:10BC90000122014B1A7070470928002070B5064D2B
:10BCA00004002B78002B04D1044803F0B5FC0123D9
:10BCB0002B70200070BDC0460A2800208DBC0100FA
:10BCC00070B50C000BF07AFE002810D00023144D44
:10BCD000A40A2B7020000DF018FB002803D00A20C6
:10BCE0000FF026FBF6E72B78002BFCD070BD02216D
:10BCF0000C4B0D4A99508021C90008005D58002D59
:10BD0000FCD0A121C9005C5019580029FCD00021A9
:10BD100099508021C9005A58002AFCD0E6E7C04655
:10BD20000928002000E0014004050000F8B50C00DF
:10BD300015001E000BF042FE002811D00023174F03
:10BD40003B703200290020000DF0DDFA002803D0FE
:10BD50000A200FF0EDFAF4E73B78002BFCD0F8BD99
:10BD600001220F490F488C4642508022D20083584E
:10BD7000002BFCD080270023FF009E4207DD9A00A5
:10BD8000A958A150C259002AFCD00133F5E700237D
:10BD900062468350C359002BFCD0E0E709280020FD
:10BDA0000405000000E0014008B4024B9C46443802
:10BDB00008BC60470F930200FA21F8B50389C90057
:10BDC0000400594332480DF0D0FFFA21890006F0F3
:10BDD0002BFD304FA17A208138000DF0C6FF2300E3
:10BDE0002600250022894C33A072A0361A808C359B
:10BDF00000232A22317828680CF05EFE002844D106
:10BE00001F235B22317828680CF056FE00283CD1B5
:10BE100020235C22317828680CF04EFE002834D1B3
:10BE200001232C22317828680CF046FE00282CD102
:10BE300001232D22317828680CF03EFE002824D101
:10BE400001232E22317828680CF036FE00281CD100
:10BE5000A17A38000DF084FF0E22C3B23178286831
:10BE60000CF02AFE002810D1FA21238989005943B9
:10BE700007480DF075FF012303432A223178286813
:10BE8000DBB20CF019FE002800D00348F8BDC04614
:10BE9000F4B90200ECB902000EFCFFFF08B4024B3B
:10BEA0009C46443808BC6047B9BD0100074B10B53B
:10BEB0001A00040008323C330260436444300CF042
:10BEC000B0F920000CF0B8F8200010BD54BA020000
:10BED00008B4024B9C46443808BC6047ADBE010024
:10BEE00008B4024B9C46443808BC604719930200D2
:10BEF000F0B50425837904008BB02B4204D1FDF703
:10BF0000F9F8A3791D43A57120009030FFF7B8FB25
:10BF10000026B0420FD12300A033197820000C2353
:10BF200007AD00938C302B0001220068FFF746F824
:10BF3000061E03D02C4E30000BB0F0BD0A2304AA1D
:10BF40009B182A785A706A781A700022985EAA782C
:10BF50005A70EA781A700022995E03912A795A7011
:10BF60006A791A7000229F5EAA795A70EA791A706B
:10BF700000215A5E04922A7A5A706A7A1A70002155
:10BF80005A5E0592AA7A5A70EA7A1F251A70002220
:10BF90009B5EA27A03999C46514349425043CB177A
:10BFA0002B407A435B185B11A361C3172B40181811
:10BFB000D3171D406423AD18059A5B425343A36712
:10BFC00064236146049A40115A434B43E2676D1162
:10BFD000221DE06125622000D3670CF0A6F8200046
:10BFE00044300CF025F9A6E70EFCFFFF08B4024B25
:10BFF0009C46443808BC6047F1BE0100F7B51E00FE
:10C00000040008AB1B881500019309AB1A88009146
:10C010000AAB31001F88FDF75FFD20003A003100B8
:10C020004430FEF749F8134B20001A003C33636498
:10C03000230008322260009A8C331A60AB8890305B
:10C040008380AB79AA6883710B4BA98903600E23A7
:10C05000EB56826022009C32118083732300019A88
:10C06000A03303211A80FFF743FB2000FFF7A4FE53
:10C070002000FEBD54BA0200A8B80200F8B5FA26A6
:10C080000189B6000400714325480DF06EFE3100B1
:10C0900006F0CAFB234FA17A208138000DF065FE1F
:10C0A0002500A072583500232A222978606C0CF0F4
:10C0B00003FD002832D110232B222978606C0CF06C
:10C0C000FBFC00282AD101232D222978606C0CF07A
:10C0D000F3FC002822D101232E222978606C0CF079
:10C0E000EBFC00281AD1A17A38000DF039FE0E229F
:10C0F000C3B22978606C0CF0DFFC00280ED12189D6
:10C10000074871430DF02CFE012303432A222978AE
:10C11000606CDBB20CF0D0FC002800D00248F8BD07
:10C12000BCBA0200B4BA02000EFCFFFF10B5040056
:10C13000034B083303600BF07FFF200010BDC046A7
:10C140001CBB02007FB50425837904002B4204D177
:10C15000FCF7D0FFA3791D43A57120004830FFF7FD
:10C160008FFA0025A8420ED123000A2658331978E9
:10C1700006236E44009301223300606CFEF71EFF1D
:10C18000051E03D00C4D280004B070BD0021042012
:10C19000022230567156B256A37A5A43594343434A
:10C1A000DB002362D20023685242C90020009B6A50
:10C1B000A261E1619847E6E70EFCFFFFF8B50400D5
:10C1C0000F00190006AB1E8807AB15001A88FDF793
:10C1D00083FC0F4B6764083323602300AA8848332D
:10C1E0009A80AA79A9689A710A4AA889A2640E223B
:10C1F000AA5621652100543108809A730023A37147
:10C20000230058331E802000FFF738FF2000F8BDC0
:10C210001CBB0200A8B8020010B50400034B083391
:10C2200003600BF0FEFF200010BDC046B0BB020053
:10C23000F0B507005C37040087B00023102239787E
:10C24000806C0CF039FC00283BD103260F2502AB93
:10C25000ED180123397808220093A06C2B00FEF71B
:10C26000ADFE194B98422CD02B78334203D064207A
:10C27000FCF7DEFFEAE7FA262189144DB600714388
:10C2800028000DF072FD310006F0CEFA2081A023C7
:10C2900011223978A06C0CF00FFC002811D1A36C8E
:10C2A00021890393714328003F780DF059FD012344
:10C2B0001843C3B21022390003980CF0FDFB00288C
:10C2C00000D0014807B0F0BD0EFCFFFF50BB0200DC
:10C2D0007FB50825837904002B4204D1FCF70AFFBF
:10C2E000A3791D43A57120004C30FFF7C9F9051E45
:10C2F0000ED023000A265C33197806236E4400937F
:10C3000001223300A06CFEF759FE051E03D0124D2A
:10C31000280004B070BD327802AB5A7072782000E9
:10C320001A700022995E64224A43A263B2785A705E
:10C33000F2781A700022995E64225242514361637E
:10C34000317959707179197000215B5E5A43236805
:10C35000E2631B6A9847DBE70EFCFFFFF8B50400B9
:10C360000F00190006AB1E8807AB15001A88FDF7F1
:10C37000A3FE0D4BA764083323602300AA884C3327
:10C380009A80AA79A9689A71084AA889E2640E225B
:10C39000AA5661652100583108801E8220009A73D8
:10C3A000FFF746FF2000F8BDB0BB0200A8B80200AE
:10C3B000F0B5FA250189234FAD0085B0040069432B
:10C3C00038000DF0D2FC290006F02EFA1E4EA17A9C
:10C3D000208130000DF0C9FC636CA0720293230031
:10C3E0005833218901931B786943380003930DF07A
:10C3F000B7FC07230343202203990298DBB20CF019
:10C400005BFB00281AD1019B22221978606C102353
:10C410000CF052FB002811D1019BA17A30001F784B
:10C42000656C0DF09DFC80235B42034323223900A1
:10C430002800DBB20CF040FB002800D0034805B018
:10C44000F0BDC046E4BB0200DCBB02000EFCFFFFF7
:10C4500010B50400034B083303600BF0EDFD200022
:10C4600010BDC04654BC0200F0B504258379040019
:10C4700085B02B4204D1FCF73DFEA3791D43A57185
:10C4800020004830FFF7FCF8051E0ED023000A26D6
:10C490005833197806236E440093A8223300606C49
:10C4A000FEF78CFD051E03D0134D280005B0F0BD2E
:10C4B0001F200023F25ED31703409B180222B15EB7
:10C4C0005B11CA17024052180421775E5211F91706
:10C4D0000140C919491133807280B180A07A434369
:10C4E000424341435B42E3612368524220009B6A1E
:10C4F000A26121629847D8E70EFCFFFFF8B504005F
:10C500000F00190006AB1E8807AB15001A88FDF74F
:10C51000E3FA0F4B6764083323602300AA8848338B
:10C520009A80AA79A9689A710A4AA889A2640E22F7
:10C53000AA5621652100543108809A730023A37103
:10C54000230058331E802000FFF732FF2000F8BD83
:10C5500054BC0200A8B80200F7B5FA25040001890E
:10C56000134EAD00694330000DF0FFFB290006F0CB
:10C570005BF92700A36C208100935C373B7881B284
:10C580006943300001930DF0EBFB6022C3B20199C7
:10C5900000980CF091FA002807D101236222397823
:10C5A000A06C0CF089FA002800D00248FEBDC046FD
:10C5B00088BC02000EFCFFFF10B50400034B0833DB
:10C5C00003600BF02EFE200010BDC046B0BC020080
:10C5D0007FB50825837904002B4204D1FCF78AFD3E
:10C5E000A3791D43A57120004C30FFF749F8051EC3
:10C5F0000ED023000A265C33197806236E4400937C
:10C60000E8223300A06CFEF7D9FC051E03D00C4DC8
:10C61000280004B070BD0223F25E96235B425A43A9
:10C6200062630021725E20005343A3630423F25E21
:10C6300096235343E36323681B6A9847E8E7C046A1
:10C640000EFCFFFFF8B504000F00190006AB1E88B2
:10C6500007AB15001A88FDF72FFD0D4BA7640833B3
:10C6600023602300AA884C339A80AA79A9689A711A
:10C67000084AA889E2640E22AA5661652100583151
:10C6800008801E8220009A73FFF766FF2000F8BD25
:10C69000B0BC0200A8B80200FA2170B50389890075
:10C6A000040059433A480DF060FBA17A20813948D3
:10C6B0000DF05BFB2500A0725835B62314222978B3
:10C6C000606C0CF0F9F9002860D10F266430FCF79B
:10C6D000AFFDA37A32002978606C33400CF0ECF99E
:10C6E000002853D12389102233402978606C0CF044
:10C6F000E3F9031E4AD113222978606C0CF0DCF9AF
:10C70000002843D1062334222978606C0CF0D4F938
:10C71000031E3BD116222978606C0CF0CDF900285D
:10C7200034D1102317222978606C0CF0C5F9031E50
:10C730002CD118222978606C0CF0BEF9031E25D18B
:10C7400019222978606C0CF0B7F900281ED18123DA
:10C750001A222978606C0CF0AFF9002816D100235A
:10C760001B222978606C0CF0A7F9031E0ED11E2243
:10C770002978606C0CF0A0F9002807D10223202250
:10C780002978606C0CF098F9002800D0024870BD40
:10C79000E4BC0200DCBC02000EFCFFFF10B504008C
:10C7A000034B083303600BF047FC200010BDC0466C
:10C7B0004CBD0200F0B504258379040085B02B42FE
:10C7C00004D1FCF797FCA3791D43A57120004830E4
:10C7D000FEF756FF0026B0420ED123000A2558333B
:10C7E000197806236D44009302222B00606CFEF73B
:10C7F000E5FB061E03D0134E300005B0F0BD1F2030
:10C800000022AB5EDA170240D2180223E95E521111
:10C81000CB1703405B1804216F5E5B11F9170140D1
:10C82000C91949112A806B80A980A07A43434243E9
:10C830004143E361236820009B6AA261216298471B
:10C84000DAE7C0460EFCFFFFF8B504000F00190040
:10C8500006AB1E8807AB15001A88FDF73DF90F4B94
:10C860006764083323602300AA8848339A80AA7932
:10C87000A9689A710A4AA889A2640E22AA5621655B
:10C880002100543108809A730023A3712300583388
:10C890001E802000FFF700FF2000F8BD4CBD020005
:10C8A000A8B802007FB5FA21038989000400594322
:10C8B00079480DF05AFA822320814B222021A06C66
:10C8C0000CF0FAF8002802D0744804B070BD64205F
:10C8D000FCF7AEFC01234B222021A06C0CF0ECF8FD
:10C8E0000028F1D16430FCF7A3FC23894C22DB0043
:10C8F0002021A06CDBB20CF0DFF80028E4D1842307
:10C900004E222021A06C0CF0D7F80028DCD12300A7
:10C910005E331878032800D9BCE005F071FF02B03F
:10C920009AA5012351222021A06C0CF0C5F8022306
:10C930000028C9D152222021A06C0CF0BDF800289B
:10C94000C2D10125230000955D222021A06C5F3318
:10C95000FEF734FB0028B7D1230000956422202184
:10C96000A06C6133FEF72AFB0028ADD123000095AF
:10C970005E222021A06C6033FEF720FB0028A3D1AB
:10C980002300009565222021A06C6233FEF716FB80
:10C99000002899D12300009571222021A06C6C33CE
:10C9A000FEF70CFB002800D08EE7230000957022D4
:10C9B0002021A06C6D33FEF701FB002800D083E737
:10C9C0000E2502266D4400962B006A222021A06CC1
:10C9D000FEF7F4FA002800D076E76A782B78120286
:10C9E000134322006432138000962B00682220211A
:10C9F000A06CFEF7E3FA002800D065E76A782B7890
:10CA00001202134322001BB2663213805380009639
:10CA10002B0062222021A06CFEF7D0FA002800D063
:10CA200052E76A782B781202134322006A3213808D
:10CA300000962B006C222021A06CFEF7BFFA002884
:10CA400000D041E76A782B78120213436E342380BA
:10CA50003BE7072351222021A06C0CF02DF8222364
:10CA6000002800D166E72FE7172351222021A06C70
:10CA70000CF022F85123002800D15BE724E70423BF
:10CA800051222021A06C0CF017F8002800D01BE7E1
:10CA900016234FE7024818E780BD02000EFCFFFF97
:10CAA00017FCFFFFF0B508258379040089B02B42FD
:10CAB00004D1FCF71FFBA3791D43A571082306AD24
:10CAC000009342222B002021A06CFEF777FA0390FE
:10CAD000002800D08DE0AB79DA0700D486E06A78D0
:10CAE0002E78E97812021643AA7809020A4312B294
:10CAF000D21004926A7928791202104300B24210CF
:10CB00000592E97936B20902194323006E331B8876
:10CB10008F10F610190002939803002F00D03900EF
:10CB200005F00CFF344BC01800B20500230045434C
:10CB30006D331B78ED115BB25D4323006C331B78C2
:10CB4000DB01584380232D185B036D12ED18230081
:10CB500061331B785BB2A0336B431B135E4323002E
:10CB60005F331B7876135BB2DB00F61823006A3361
:10CB700000229A5E059B36B29A1A23006833002180
:10CB8000595E6B460820185E230064331B88381AF0
:10CB900048437900594380231B02C9182300D2035C
:10CBA00080106633101A00229B5E0914C91805F024
:10CBB000C5FE230062331B78049A5BB2A0336B433B
:10CBC0001B135A4360255313642265575242ED00EC
:10CBD0005B191BB253436363642300B258435E4343
:10CBE0002368E0631B6A2000A6639847039809B096
:10CBF000F0BD024B0393F9E700C0FFFF0EFCFFFFFF
:10CC000010B50400034B083303600BF00AFB20004F
:10CC100010BDC046C8BD0200F8B504000F001900E1
:10CC200006AB1E8807AB15001A88FDF745FA0F4BB7
:10CC3000A764083323602300AA884C339A80AA791A
:10CC4000A9689A710A4AA889E2640E22AA56616507
:10CC50002100583108809A73012210339A701E8087
:10CC60002000FFF71FFE2000F8BDC046C8BD02002F
:10CC7000A8B8020070B501230C004B22202105004A
:10CC80000BF01AFF00280BD16430FCF7D1FA4022D8
:10CC90002800E1B20BF01DFF32384342584170BD0D
:10CCA0000048FCE70EFCFFFF084B8000C018A223E1
:10CCB0000322DB0010B50649C45821432243C1506A
:10CCC000C046C046C046C25010BDC04600600040CD
:10CCD000031F0000A2220321034B8000C018D200D2
:10CCE00083588B43835070470060004010B50400A8
:10CCF000034B08330360FCF7D9FC200010BDC0468D
:10CD0000F4BD0200F8B5A02303223049DB055A50D8
:10CD100004315A5080212E4A8905995080210127DB
:10CD2000A225C9052B4C99502B4BED00E7506359B8
:10CD30002A492B4E0B40635162592A4B0020134362
:10CD40006351FFF7B1FFA359244938000B40A351A9
:10CD5000A259254B1343A351FFF7A6FFC046C04677
:10CD6000C046224B224A23495A51A322D2009C5149
:10CD70009950214A214922485A500431585021499A
:10CD800021485C500431585020495A500F22204904
:10CD90005A50204B104A9F5000225A5004315A508A
:10CDA00002325A51A8223221D200DF6099501A4A29
:10CDB00001399950043232319950184AC9199950A1
:10CDC00080225C3992009950F8BDC046740700007B
:10CDD0000C05000000600040FC0F0000FFE0ECFFCD
:10CDE00014050000001D1300001E030000F00140A8
:10CDF00040A1004044A10040046000401C05000028
:10CE000048A10040240500004CA100402C05000072
:10CE10000405000000A00040440500004C0500008F
:10CE20000023154A10B508320260EE21A02283804B
:10CE3000837104000320D205C900505080200F499F
:10CE40004005505032220E4920000A700D490A70E8
:10CE50000D490A70FA210D4A090113700C4A11801C
:10CE600001210C4A11700C4A1370FFF74BFF200090
:10CE7000FCF7FEFB200010BDF4BD02000C05000015
:10CE80000C2800200D2800200E2800200F2800204C
:10CE9000B02700200B280020102800200B002B4A70
:10CEA000143B9BB270B50D0093424ED80322284B21
:10CEB000284C1980284B1A700022284B1A70012325
:10CEC0006360E360A223DB00F42900D80432E2505F
:10CED0000020FFF7FFFE0120FFF7FCFEA0238021CA
:10CEE0001F4ADB05890599508021043AC9059950EC
:10CEF0002901F42D00D929001A4805F095FCA92331
:10CF000085B232206A1EDB00E250174B6421E550E7
:10CF1000684305F013FDA8232D1ADB00E550134BE1
:10CF20000138E0500020FFF7BFFE114B1B78002BAB
:10CF300002D10120FFF7B8FE0123A0222360802147
:10CF4000A123D205DB004905D15070BD0C4E000075
:10CF5000B027002000A00040102800200F2800204B
:10CF60000C0500000024F4004C05000044050000FE
:10CF70000B28002010B50400034B08330360FCF7B6
:10CF800095FB200010BDC0460CBE0200F7B5012184
:10CF90000C008368314A9C40A023DB059C5032245E
:10CFA000013CC046C046C046C046C046C046C0461A
:10CFB000C046C046C046C046C046F1D10500113546
:10CFC0000195A1250400ED00AC460D3407250E00A7
:10CFD0008768BE4027782F410F4231D06746DE5127
:10CFE000C046C046C046C046C046C046C046C04611
:10CFF000C0469E50013DEAD2019D0134A542E5D1D3
:10D00000012381688B40A021C9058B503223013B4D
:10D01000C046C046C046C046C046C046C046C046E0
:10D02000C046C046C046C046F1D1827B437B017CEE
:10D030009B18C27B52189B185A1E93414374F7BD2C
:10D040006746DE51C0469E50C046C046C046C046F8
:10D05000C046C046C046C046CCE7C0460C050000EE
:10D06000F8B504002500260006A80078277B627327
:10D07000A173E37320740D3511362878784308F0D6
:10D0800059FB0022064B07F01BF905F0DBFD287069
:10D090000135AE42F1D12000FFF778FFF8BDC04660
:10D0A00000E06F40F7B5002317000126224A838075
:10D0B000083202600A008371040081600773A020B7
:10D0C00003258E40C132FF32C005920015501B4A25
:10D0D000250086506373E3812382230011330D35CD
:10D0E000009301922878784308F024FB144B002227
:10D0F00007F0E6F805F0A6FD009B287001359D427B
:10D10000F0D1A023019ADB059E503223013BC0469B
:10D11000C046C046C046C046C046C046C046C046DF
:10D12000C046C046C046F1D120000CF0A7F920004F
:10D13000FCF79EFA2000FEBD0CBE02000C050000AC
:10D1400000E06F4010B50400054B083303601C304D
:10D150000AF087FD200018300AF083FD200010BD82
:10D1600024BE0200FF23F0B52C4E8DB03370002397
:10D1700001AD040029000088019304F0FDFB0028A4
:10D1800001D1AB783370264D2B68DB68002B07D1BB
:10D19000002320881A0019000CF081F90DB0F0BDB1
:10D1A0003378032BF4D81F496846FCF78DFA2B68B7
:10D1B0006946DD6804A80AF0A9FD280004A90CF05E
:10D1C00066F80027050004A80AF04BFDBD421ED0FA
:10D1D00029002022103104A80EF00FFA28000EF0CA
:10D1E000D6F9317804ABC9005918082202A80EF00C
:10D1F00004FA01230822208802A90CF050F9013713
:10D20000002804D10C212088074A0CF046F9684612
:10D210000AF027FD002FBBD0C0E7C04680200020C9
:10D220003025002023CC0200FFFF0000F0B58379F9
:10D23000040091B05B071BD5FCF702FA00232269BA
:10D24000801A9941994203D1F533FF3398420FD3A5
:10D25000A068002808D0354B1D880CF0FEFD03683F
:10D26000152229001B6A98470422A3799343A371CE
:10D27000A3799B0758D52E4E3368DB68002B4FD01F
:10D280002C4F3B78032B4BD8284B2B491B8804A8E9
:10D290000193FCF719FA336804A9DD6808A80AF0BD
:10D2A00035FD08A928000BF0F2FF050008A80AF0D8
:10D2B000D8FC082302AAD3800198073B063206A9AE
:10D2C0000CF0EFF8002D08D029002022103108A81A
:10D2D0000EF093F928000EF05AF93D7802ABDA8887
:10D2E000ED0008AB5D19280006A90EF078F90028BA
:10D2F00013D00822280006A90EF07FF9336804A98C
:10D30000DD6805A80AF002FD2023280008AA05A967
:10D310000BF0C3FF05A80AF0A4FC04A80AF0A1FCC6
:10D320000222A3799343A37111B0F0BDB22700206C
:10D33000302500208020002023CC020070B5036837
:10D3400004000D1E09D15B699847FA2080006843EC
:10D35000074905F069FAE08070BD9B689847A842CC
:10D36000F3D9236820009B6898470500EDE7C04685
:10D3700071020000F0B50400150085B001930AABFE
:10D380001F880BAB1B78461C02930EAB1B78102238
:10D3900003930B7803704B8A0131438230000EF007
:10D3A0002CF9656100250122019B27836383039B80
:10D3B000E5832377029B2000F377A31CDA770C9B8D
:10D3C0000C26636223000D9A283329001A705D70C1
:10D3D00032009D702C300EF02CF92000064B3200EC
:10D3E000A3632900E56340300EF023F92000034BCE
:10D3F0002565E36405B0F0BDB9940200AB9402006A
:10D40000F0B507001500A1B002C706006B4918A8C7
:10D410001C000CF012F92B1E03D028000EF049F965
:10D4200083B20122049200220392029202320192FC
:10D4300000932A0018A93800FFF79CFF33006049C9
:10D44000583318A807930CF0F8F8231E03D02000D7
:10D450000EF02FF983B2012204920022039202926D
:10D46000023201920093220018A90798FFF782FF69
:10D4700033005449AC3318A808930CF0DEF8269B0F
:10D48000002B03D018000EF014F983B2012204928D
:10D49000002203920292023201920093269A18A966
:10D4A0000898FFF767FF731CFF33474918A80993D3
:10D4B0000CF0C3F8279B002B03D018000EF0F9F8EE
:10D4C00083B2012204920022701C03920292023263
:10D4D00001920093279A18A9FF30FFF74BFF330002
:10D4E0005533FF33394918A809930CF0A6F8289B47
:10D4F000002B03D018000EF0DCF883B20122049256
:10D50000002203920292023201920093289A18A9F3
:10D510000998FFF72FFF3300A933FF332C4918A8D0
:10D520000A930CF08AF8299B002B03D018000EF008
:10D53000C0F883B201220492002218AC0392029236
:10D540000232019200932100299A0A98FFF712FFF4
:10D55000204B1B780B93002B2DD1079B1E49139357
:10D56000089B0DA81493731CFF331593099B129706
:10D5700016930A9B12AD17930CF05FF81D214920FA
:10D5800006AB1B7F1022237006ABDB8D638206ABDC
:10D59000C918C0180EF031F8062323750B9B3068AC
:10D5A000A383A5610CF05DFC036821001B6898470C
:10D5B0000122084B1A70300021B0F0BD292A00006A
:10D5C000242A0000252A0000272A0000262A00001D
:10D5D000282A0000112800200A18000070B5002534
:10D5E00004000B4B8580083385710360C1601830DF
:10D5F000FCF7A4F820001C30FCF7A0F80123621C03
:10D60000D377044A2000A56065611460A37170BDE2
:10D6100024BE020030250020FA2130B585B0040078
:10D6200001230222684689000AF0B4FB074D2868EE
:10D63000002809D00CF03AF82188054B2A68198097
:10D64000022391790B43937105B030BD3025002042
:10D65000B227002010B50C0007290FD880680CF005
:10D66000FCFB074B195703685B6C984743425841D2
:10D67000044B40421840044BC01810BD0348FCE75F
:10D68000A8CD0200EA03000016FCFFFF17FCFFFF15
:10D69000F0B5A24C0E00A5440400069396AB1B788F
:10D6A00008A807939E4B05921968FCF70DF8200017
:10D6B00031001C300AF032FB9A4909A8FCF704F843
:10D6C00099490AA8FCF700F80CAD09AA08A90BA80B
:10D6D00011AF0AF032FB320028000BA90AF02DFB33
:10D6E0000AAA290038000AF028FB390008A80AF025
:10D6F00015FB38000AF0B5FA28000AF0B2FA0BA8B8
:10D700000AF0AFFAE020C00001F07CFF08200DF025
:10D7100042FF0600002101F01FFB08220021A66045
:10D720000DA80DF086FF00230C933B0007CD07C327
:10D730007E4B3900FB60002330003B610CF076FB30
:10D74000A0680CF08AFB08220021049012A80DF0BA
:10D7500070FF14200DF01FFF754B3A00119303006A
:10D7600062CA62C3734B049DC3600023A435036186
:10D770002B68002B00D0CBE02860A0680CF071FB78
:10D7800008220021049012A80DF053FF14200DF080
:10D7900002FF694B3A001193030062CA62C3674BF0
:10D7A000C36000230361049B1B6B002B00D0B1E01E
:10D7B000049B11AE1863A0680CF04FFB08220021F7
:10D7C000049012A80DF035FF14200DF0E4FE5C4B20
:10D7D0001193030026CE26C35A4B049DC360002339
:10D7E000983503612B68002B00D095E0286001205C
:10D7F00004AB1B7F04AA03430BA913770BF053FE62
:10D80000A0680CF032FB03684F495B6A9847A06838
:10D810000CF02BFB03684D499B699847A0680CF0FE
:10D8200024FB0021036800911D680A000B00A84733
:10D83000079B002B0AD020000BF041FF032805DDD9
:10D84000A0680CF012FB0368DB68984706212000F3
:10D85000FFF700FF18200DF09EFEA16800F042FACD
:10D860003B4B3C4A1B68A16803933B4B38001B6849
:10D8700000250293394B1B680193059B1B680433F9
:10D880000093274B12681B68FFF7BAFD30200DF09C
:10D8900082FE069AA16800F0DBFAA0680CF0DDFABF
:10D8A00003680CA99B6A9847082304AA1384A068FC
:10D8B000DB18538495840CF0D0FA03680CA9DB6A5A
:10D8C00098470621A0680BF0C4FE089A09219378B6
:10D8D000A06804320BF0D0FEA0680CF0BEFA05710F
:10D8E000A0680CF0BAFA3221FFF728FDA0680CF00E
:10D8F000B4FA0BF098FE0AA80AF0B3F909A80AF0E6
:10D90000B0F908A80AF0ADF991239B009D44F0BD41
:10D91000036131E703614BE7036167E7BCFDFFFF8C
:10D920000C2000203ECC02002FCC0200C794020045
:10D9300019D60100D594020065D10100E3940200DC
:10D9400011950200F194020061D9010095D90100FE
:10D950002C25002028250020082000202425002038
:10D9600013B506226846FBF7BFFE094B1C68002C66
:10D970000AD0694601A80AF0C9F9200001A90BF0F4
:10D98000BFFE01A80AF06DF968460AF06AF913BDF6
:10D9900030250020002373B501AE0C0031000500D6
:10D9A000019303F0E9FF002802D1B278064B1A7008
:10D9B000064B1868002806D061426141044BC9B289
:10D9C0001D800BF0A5FE73BD8020002030250020B7
:10D9D000B227002030B5284CA9B06A220D000DA84E
:10D9E00021000DF00AFE0DA903A8FBF7F7FE03A91D
:10D9F00006A80AF0FFF901230193013BFF3B0093C6
:10DA00000533FF33642206A92800FDF77DFA06A836
:10DA10000AF0E3F9210019226A3106A80DF0EDFDA4
:10DA200005220024110006AB04A80AF00AFA04A992
:10DA300005A80AF0DFF923002200280001940094D1
:10DA400005A9FDF7A3F905A80AF0C7F921002800E8
:10DA5000FDF78AFA05340520FBF7EAFBFF2CF5D128
:10DA6000FA208000FBF7E4FB04A80AF0B6F903A84B
:10DA70000AF0B3F929B030BD25CD0200F0B5904BC6
:10DA80008DB005921A68082304000F00D16C07A816
:10DA90000B43D3648B49FBF717FE8B4908A8FBF7B0
:10DAA00013FE220000251C3207A90BA80AF045F935
:10DAB00008AA0BA909A80AF040F90BA80AF0D1F8A6
:10DAC000631CDD77A0680CF0C8F903685B699847B0
:10DAD000A0680CF0C2F9030006000A331F222900D7
